{
	"v2-periphery-master/v2-periphery-master/contracts/DEXV2Router01.sol": {
		"DEXV2Router01": {
			"abi": [
				{
					"inputs": [
						{
							"internalType": "address",
							"name": "_factory",
							"type": "address"
						},
						{
							"internalType": "address",
							"name": "_WETH",
							"type": "address"
						}
					],
					"stateMutability": "nonpayable",
					"type": "constructor"
				},
				{
					"inputs": [],
					"name": "WETH",
					"outputs": [
						{
							"internalType": "address",
							"name": "",
							"type": "address"
						}
					],
					"stateMutability": "view",
					"type": "function"
				},
				{
					"inputs": [
						{
							"internalType": "address",
							"name": "tokenA",
							"type": "address"
						},
						{
							"internalType": "address",
							"name": "tokenB",
							"type": "address"
						},
						{
							"internalType": "uint256",
							"name": "amountADesired",
							"type": "uint256"
						},
						{
							"internalType": "uint256",
							"name": "amountBDesired",
							"type": "uint256"
						},
						{
							"internalType": "uint256",
							"name": "amountAMin",
							"type": "uint256"
						},
						{
							"internalType": "uint256",
							"name": "amountBMin",
							"type": "uint256"
						},
						{
							"internalType": "address",
							"name": "to",
							"type": "address"
						},
						{
							"internalType": "uint256",
							"name": "deadline",
							"type": "uint256"
						}
					],
					"name": "addLiquidity",
					"outputs": [
						{
							"internalType": "uint256",
							"name": "amountA",
							"type": "uint256"
						},
						{
							"internalType": "uint256",
							"name": "amountB",
							"type": "uint256"
						},
						{
							"internalType": "uint256",
							"name": "liquidity",
							"type": "uint256"
						}
					],
					"stateMutability": "nonpayable",
					"type": "function"
				},
				{
					"inputs": [
						{
							"internalType": "address",
							"name": "token",
							"type": "address"
						},
						{
							"internalType": "uint256",
							"name": "amountTokenDesired",
							"type": "uint256"
						},
						{
							"internalType": "uint256",
							"name": "amountTokenMin",
							"type": "uint256"
						},
						{
							"internalType": "uint256",
							"name": "amountETHMin",
							"type": "uint256"
						},
						{
							"internalType": "address",
							"name": "to",
							"type": "address"
						},
						{
							"internalType": "uint256",
							"name": "deadline",
							"type": "uint256"
						}
					],
					"name": "addLiquidityETH",
					"outputs": [
						{
							"internalType": "uint256",
							"name": "amountToken",
							"type": "uint256"
						},
						{
							"internalType": "uint256",
							"name": "amountETH",
							"type": "uint256"
						},
						{
							"internalType": "uint256",
							"name": "liquidity",
							"type": "uint256"
						}
					],
					"stateMutability": "payable",
					"type": "function"
				},
				{
					"inputs": [],
					"name": "factory",
					"outputs": [
						{
							"internalType": "address",
							"name": "",
							"type": "address"
						}
					],
					"stateMutability": "view",
					"type": "function"
				},
				{
					"inputs": [
						{
							"internalType": "uint256",
							"name": "amountOut",
							"type": "uint256"
						},
						{
							"internalType": "uint256",
							"name": "reserveIn",
							"type": "uint256"
						},
						{
							"internalType": "uint256",
							"name": "reserveOut",
							"type": "uint256"
						}
					],
					"name": "getAmountIn",
					"outputs": [
						{
							"internalType": "uint256",
							"name": "amountIn",
							"type": "uint256"
						}
					],
					"stateMutability": "pure",
					"type": "function"
				},
				{
					"inputs": [
						{
							"internalType": "uint256",
							"name": "amountIn",
							"type": "uint256"
						},
						{
							"internalType": "uint256",
							"name": "reserveIn",
							"type": "uint256"
						},
						{
							"internalType": "uint256",
							"name": "reserveOut",
							"type": "uint256"
						}
					],
					"name": "getAmountOut",
					"outputs": [
						{
							"internalType": "uint256",
							"name": "amountOut",
							"type": "uint256"
						}
					],
					"stateMutability": "pure",
					"type": "function"
				},
				{
					"inputs": [
						{
							"internalType": "uint256",
							"name": "amountOut",
							"type": "uint256"
						},
						{
							"internalType": "address[]",
							"name": "path",
							"type": "address[]"
						}
					],
					"name": "getAmountsIn",
					"outputs": [
						{
							"internalType": "uint256[]",
							"name": "amounts",
							"type": "uint256[]"
						}
					],
					"stateMutability": "view",
					"type": "function"
				},
				{
					"inputs": [
						{
							"internalType": "uint256",
							"name": "amountIn",
							"type": "uint256"
						},
						{
							"internalType": "address[]",
							"name": "path",
							"type": "address[]"
						}
					],
					"name": "getAmountsOut",
					"outputs": [
						{
							"internalType": "uint256[]",
							"name": "amounts",
							"type": "uint256[]"
						}
					],
					"stateMutability": "view",
					"type": "function"
				},
				{
					"inputs": [
						{
							"internalType": "uint256",
							"name": "amountA",
							"type": "uint256"
						},
						{
							"internalType": "uint256",
							"name": "reserveA",
							"type": "uint256"
						},
						{
							"internalType": "uint256",
							"name": "reserveB",
							"type": "uint256"
						}
					],
					"name": "quote",
					"outputs": [
						{
							"internalType": "uint256",
							"name": "amountB",
							"type": "uint256"
						}
					],
					"stateMutability": "pure",
					"type": "function"
				},
				{
					"inputs": [
						{
							"internalType": "address",
							"name": "tokenA",
							"type": "address"
						},
						{
							"internalType": "address",
							"name": "tokenB",
							"type": "address"
						},
						{
							"internalType": "uint256",
							"name": "liquidity",
							"type": "uint256"
						},
						{
							"internalType": "uint256",
							"name": "amountAMin",
							"type": "uint256"
						},
						{
							"internalType": "uint256",
							"name": "amountBMin",
							"type": "uint256"
						},
						{
							"internalType": "address",
							"name": "to",
							"type": "address"
						},
						{
							"internalType": "uint256",
							"name": "deadline",
							"type": "uint256"
						}
					],
					"name": "removeLiquidity",
					"outputs": [
						{
							"internalType": "uint256",
							"name": "amountA",
							"type": "uint256"
						},
						{
							"internalType": "uint256",
							"name": "amountB",
							"type": "uint256"
						}
					],
					"stateMutability": "nonpayable",
					"type": "function"
				},
				{
					"inputs": [
						{
							"internalType": "address",
							"name": "token",
							"type": "address"
						},
						{
							"internalType": "uint256",
							"name": "liquidity",
							"type": "uint256"
						},
						{
							"internalType": "uint256",
							"name": "amountTokenMin",
							"type": "uint256"
						},
						{
							"internalType": "uint256",
							"name": "amountETHMin",
							"type": "uint256"
						},
						{
							"internalType": "address",
							"name": "to",
							"type": "address"
						},
						{
							"internalType": "uint256",
							"name": "deadline",
							"type": "uint256"
						}
					],
					"name": "removeLiquidityETH",
					"outputs": [
						{
							"internalType": "uint256",
							"name": "amountToken",
							"type": "uint256"
						},
						{
							"internalType": "uint256",
							"name": "amountETH",
							"type": "uint256"
						}
					],
					"stateMutability": "nonpayable",
					"type": "function"
				},
				{
					"inputs": [
						{
							"internalType": "address",
							"name": "token",
							"type": "address"
						},
						{
							"internalType": "uint256",
							"name": "liquidity",
							"type": "uint256"
						},
						{
							"internalType": "uint256",
							"name": "amountTokenMin",
							"type": "uint256"
						},
						{
							"internalType": "uint256",
							"name": "amountETHMin",
							"type": "uint256"
						},
						{
							"internalType": "address",
							"name": "to",
							"type": "address"
						},
						{
							"internalType": "uint256",
							"name": "deadline",
							"type": "uint256"
						},
						{
							"internalType": "bool",
							"name": "approveMax",
							"type": "bool"
						},
						{
							"internalType": "uint8",
							"name": "v",
							"type": "uint8"
						},
						{
							"internalType": "bytes32",
							"name": "r",
							"type": "bytes32"
						},
						{
							"internalType": "bytes32",
							"name": "s",
							"type": "bytes32"
						}
					],
					"name": "removeLiquidityETHWithPermit",
					"outputs": [
						{
							"internalType": "uint256",
							"name": "amountToken",
							"type": "uint256"
						},
						{
							"internalType": "uint256",
							"name": "amountETH",
							"type": "uint256"
						}
					],
					"stateMutability": "nonpayable",
					"type": "function"
				},
				{
					"inputs": [
						{
							"internalType": "address",
							"name": "tokenA",
							"type": "address"
						},
						{
							"internalType": "address",
							"name": "tokenB",
							"type": "address"
						},
						{
							"internalType": "uint256",
							"name": "liquidity",
							"type": "uint256"
						},
						{
							"internalType": "uint256",
							"name": "amountAMin",
							"type": "uint256"
						},
						{
							"internalType": "uint256",
							"name": "amountBMin",
							"type": "uint256"
						},
						{
							"internalType": "address",
							"name": "to",
							"type": "address"
						},
						{
							"internalType": "uint256",
							"name": "deadline",
							"type": "uint256"
						},
						{
							"internalType": "bool",
							"name": "approveMax",
							"type": "bool"
						},
						{
							"internalType": "uint8",
							"name": "v",
							"type": "uint8"
						},
						{
							"internalType": "bytes32",
							"name": "r",
							"type": "bytes32"
						},
						{
							"internalType": "bytes32",
							"name": "s",
							"type": "bytes32"
						}
					],
					"name": "removeLiquidityWithPermit",
					"outputs": [
						{
							"internalType": "uint256",
							"name": "amountA",
							"type": "uint256"
						},
						{
							"internalType": "uint256",
							"name": "amountB",
							"type": "uint256"
						}
					],
					"stateMutability": "nonpayable",
					"type": "function"
				},
				{
					"inputs": [
						{
							"internalType": "uint256",
							"name": "amountOut",
							"type": "uint256"
						},
						{
							"internalType": "address[]",
							"name": "path",
							"type": "address[]"
						},
						{
							"internalType": "address",
							"name": "to",
							"type": "address"
						},
						{
							"internalType": "uint256",
							"name": "deadline",
							"type": "uint256"
						}
					],
					"name": "swapETHForExactTokens",
					"outputs": [
						{
							"internalType": "uint256[]",
							"name": "amounts",
							"type": "uint256[]"
						}
					],
					"stateMutability": "payable",
					"type": "function"
				},
				{
					"inputs": [
						{
							"internalType": "uint256",
							"name": "amountOutMin",
							"type": "uint256"
						},
						{
							"internalType": "address[]",
							"name": "path",
							"type": "address[]"
						},
						{
							"internalType": "address",
							"name": "to",
							"type": "address"
						},
						{
							"internalType": "uint256",
							"name": "deadline",
							"type": "uint256"
						}
					],
					"name": "swapExactETHForTokens",
					"outputs": [
						{
							"internalType": "uint256[]",
							"name": "amounts",
							"type": "uint256[]"
						}
					],
					"stateMutability": "payable",
					"type": "function"
				},
				{
					"inputs": [
						{
							"internalType": "uint256",
							"name": "amountIn",
							"type": "uint256"
						},
						{
							"internalType": "uint256",
							"name": "amountOutMin",
							"type": "uint256"
						},
						{
							"internalType": "address[]",
							"name": "path",
							"type": "address[]"
						},
						{
							"internalType": "address",
							"name": "to",
							"type": "address"
						},
						{
							"internalType": "uint256",
							"name": "deadline",
							"type": "uint256"
						}
					],
					"name": "swapExactTokensForETH",
					"outputs": [
						{
							"internalType": "uint256[]",
							"name": "amounts",
							"type": "uint256[]"
						}
					],
					"stateMutability": "nonpayable",
					"type": "function"
				},
				{
					"inputs": [
						{
							"internalType": "uint256",
							"name": "amountIn",
							"type": "uint256"
						},
						{
							"internalType": "uint256",
							"name": "amountOutMin",
							"type": "uint256"
						},
						{
							"internalType": "address[]",
							"name": "path",
							"type": "address[]"
						},
						{
							"internalType": "address",
							"name": "to",
							"type": "address"
						},
						{
							"internalType": "uint256",
							"name": "deadline",
							"type": "uint256"
						}
					],
					"name": "swapExactTokensForTokens",
					"outputs": [
						{
							"internalType": "uint256[]",
							"name": "amounts",
							"type": "uint256[]"
						}
					],
					"stateMutability": "nonpayable",
					"type": "function"
				},
				{
					"inputs": [
						{
							"internalType": "uint256",
							"name": "amountOut",
							"type": "uint256"
						},
						{
							"internalType": "uint256",
							"name": "amountInMax",
							"type": "uint256"
						},
						{
							"internalType": "address[]",
							"name": "path",
							"type": "address[]"
						},
						{
							"internalType": "address",
							"name": "to",
							"type": "address"
						},
						{
							"internalType": "uint256",
							"name": "deadline",
							"type": "uint256"
						}
					],
					"name": "swapTokensForExactETH",
					"outputs": [
						{
							"internalType": "uint256[]",
							"name": "amounts",
							"type": "uint256[]"
						}
					],
					"stateMutability": "nonpayable",
					"type": "function"
				},
				{
					"inputs": [
						{
							"internalType": "uint256",
							"name": "amountOut",
							"type": "uint256"
						},
						{
							"internalType": "uint256",
							"name": "amountInMax",
							"type": "uint256"
						},
						{
							"internalType": "address[]",
							"name": "path",
							"type": "address[]"
						},
						{
							"internalType": "address",
							"name": "to",
							"type": "address"
						},
						{
							"internalType": "uint256",
							"name": "deadline",
							"type": "uint256"
						}
					],
					"name": "swapTokensForExactTokens",
					"outputs": [
						{
							"internalType": "uint256[]",
							"name": "amounts",
							"type": "uint256[]"
						}
					],
					"stateMutability": "nonpayable",
					"type": "function"
				},
				{
					"stateMutability": "payable",
					"type": "receive"
				}
			],
			"devdoc": {
				"methods": {}
			},
			"evm": {
				"assembly": "    /* \"v2-periphery-master/v2-periphery-master/contracts/DEXV2Router01.sol\":257:12425  contract DEXV2Router01 is IDEXV2Router01 {... */\n  mstore(0x40, 0xc0)\n    /* \"v2-periphery-master/v2-periphery-master/contracts/DEXV2Router01.sol\":521:630  constructor(address _factory, address _WETH) public {... */\n  callvalue\n    /* \"--CODEGEN--\":5:14   */\n  dup1\n    /* \"--CODEGEN--\":2:4   */\n  iszero\n  tag_1\n  jumpi\n    /* \"--CODEGEN--\":27:28   */\n  0x00\n    /* \"--CODEGEN--\":24:25   */\n  dup1\n    /* \"--CODEGEN--\":17:29   */\n  revert\n    /* \"--CODEGEN--\":2:4   */\ntag_1:\n    /* \"v2-periphery-master/v2-periphery-master/contracts/DEXV2Router01.sol\":521:630  constructor(address _factory, address _WETH) public {... */\n  pop\n  mload(0x40)\n  sub(codesize, bytecodeSize)\n  dup1\n  bytecodeSize\n  dup4\n  codecopy\n  dup2\n  dup2\n  add\n  0x40\n  mstore\n    /* \"--CODEGEN--\":15:17   */\n  0x40\n    /* \"--CODEGEN--\":10:13   */\n  dup2\n    /* \"--CODEGEN--\":7:18   */\n  lt\n    /* \"--CODEGEN--\":4:6   */\n  iszero\n  tag_2\n  jumpi\n    /* \"--CODEGEN--\":31:32   */\n  0x00\n    /* \"--CODEGEN--\":28:29   */\n  dup1\n    /* \"--CODEGEN--\":21:33   */\n  revert\n    /* \"--CODEGEN--\":4:6   */\ntag_2:\n  pop\n    /* \"v2-periphery-master/v2-periphery-master/contracts/DEXV2Router01.sol\":521:630  constructor(address _factory, address _WETH) public {... */\n  dup1\n  mload\n  0x20\n  swap1\n  swap2\n  add\n  mload\n  not(sub(shl(0x60, 0x01), 0x01))\n    /* \"v2-periphery-master/v2-periphery-master/contracts/DEXV2Router01.sol\":583:601  factory = _factory */\n  0x60\n  swap3\n  dup4\n  shl\n  dup2\n  and\n  0x80\n  mstore\n    /* \"v2-periphery-master/v2-periphery-master/contracts/DEXV2Router01.sol\":611:623  WETH = _WETH */\n  swap2\n  shl\n  and\n  0xa0\n  mstore\n    /* \"v2-periphery-master/v2-periphery-master/contracts/DEXV2Router01.sol\":257:12425  contract DEXV2Router01 is IDEXV2Router01 {... */\n  shr(0x60, mload(0x80))\n  shr(0x60, mload(0xa0))\n  codecopy(0x00, dataOffset(sub_0), dataSize(sub_0))\n  assignImmutable(\"0x1d3be50b2bb17407dd170f1d5da128d1def30c6b1598d6a629e79b4775265526\")\n  assignImmutable(\"0x7f8b6b088b6d74c2852fc86c796dca07b44eed6fb3daf5e6b59f7c364db14528\")\n  return(0x00, dataSize(sub_0))\nstop\n\nsub_0: assembly {\n        /* \"v2-periphery-master/v2-periphery-master/contracts/DEXV2Router01.sol\":257:12425  contract DEXV2Router01 is IDEXV2Router01 {... */\n      mstore(0x40, 0x80)\n      jumpi(tag_1, lt(calldatasize, 0x04))\n      shr(0xe0, calldataload(0x00))\n      dup1\n      0x8803dbee\n      gt\n      tag_22\n      jumpi\n      dup1\n      0xd06ca61f\n      gt\n      tag_23\n      jumpi\n      dup1\n      0xd06ca61f\n      eq\n      tag_17\n      jumpi\n      dup1\n      0xded9382a\n      eq\n      tag_18\n      jumpi\n      dup1\n      0xe8e33700\n      eq\n      tag_19\n      jumpi\n      dup1\n      0xf305d719\n      eq\n      tag_20\n      jumpi\n      dup1\n      0xfb3bdb41\n      eq\n      tag_21\n      jumpi\n      jump(tag_2)\n    tag_23:\n      dup1\n      0x8803dbee\n      eq\n      tag_12\n      jumpi\n      dup1\n      0xad5c4648\n      eq\n      tag_13\n      jumpi\n      dup1\n      0xad615dec\n      eq\n      tag_14\n      jumpi\n      dup1\n      0xbaa2abde\n      eq\n      tag_15\n      jumpi\n      dup1\n      0xc45a0155\n      eq\n      tag_16\n      jumpi\n      jump(tag_2)\n    tag_22:\n      dup1\n      0x2195995c\n      gt\n      tag_24\n      jumpi\n      dup1\n      0x2195995c\n      eq\n      tag_7\n      jumpi\n      dup1\n      0x38ed1739\n      eq\n      tag_8\n      jumpi\n      dup1\n      0x4a25d94a\n      eq\n      tag_9\n      jumpi\n      dup1\n      0x7ff36ab5\n      eq\n      tag_10\n      jumpi\n      dup1\n      0x85f8c259\n      eq\n      tag_4\n      jumpi\n      jump(tag_2)\n    tag_24:\n      dup1\n      0x02751cec\n      eq\n      tag_3\n      jumpi\n      dup1\n      0x054d50d4\n      eq\n      tag_4\n      jumpi\n      dup1\n      0x18cbafe5\n      eq\n      tag_5\n      jumpi\n      dup1\n      0x1f00ca74\n      eq\n      tag_6\n      jumpi\n      jump(tag_2)\n    tag_1:\n      jumpi(tag_2, calldatasize)\n        /* \"v2-periphery-master/v2-periphery-master/contracts/DEXV2Router01.sol\":680:690  msg.sender */\n      caller\n      sub(shl(0xa0, 0x01), 0x01)\n        /* \"v2-periphery-master/v2-periphery-master/contracts/DEXV2Router01.sol\":694:698  WETH */\n      immutable(\"0x1d3be50b2bb17407dd170f1d5da128d1def30c6b1598d6a629e79b4775265526\")\n        /* \"v2-periphery-master/v2-periphery-master/contracts/DEXV2Router01.sol\":680:698  msg.sender == WETH */\n      and\n      eq\n        /* \"v2-periphery-master/v2-periphery-master/contracts/DEXV2Router01.sol\":673:699  assert(msg.sender == WETH) */\n      tag_27\n      jumpi\n      invalid\n    tag_27:\n        /* \"v2-periphery-master/v2-periphery-master/contracts/DEXV2Router01.sol\":257:12425  contract DEXV2Router01 is IDEXV2Router01 {... */\n      stop\n    tag_2:\n        /* \"--CODEGEN--\":12:13   */\n      0x00\n        /* \"--CODEGEN--\":9:10   */\n      dup1\n        /* \"--CODEGEN--\":2:14   */\n      revert\n        /* \"v2-periphery-master/v2-periphery-master/contracts/DEXV2Router01.sol\":4630:5275  function removeLiquidityETH(... */\n    tag_3:\n      callvalue\n        /* \"--CODEGEN--\":5:14   */\n      dup1\n        /* \"--CODEGEN--\":2:4   */\n      iszero\n      tag_28\n      jumpi\n        /* \"--CODEGEN--\":27:28   */\n      0x00\n        /* \"--CODEGEN--\":24:25   */\n      dup1\n        /* \"--CODEGEN--\":17:29   */\n      revert\n        /* \"--CODEGEN--\":2:4   */\n    tag_28:\n        /* \"v2-periphery-master/v2-periphery-master/contracts/DEXV2Router01.sol\":4630:5275  function removeLiquidityETH(... */\n      pop\n      tag_29\n      0x04\n      dup1\n      calldatasize\n      sub\n        /* \"--CODEGEN--\":15:18   */\n      0xc0\n        /* \"--CODEGEN--\":10:13   */\n      dup2\n        /* \"--CODEGEN--\":7:19   */\n      lt\n        /* \"--CODEGEN--\":4:6   */\n      iszero\n      tag_30\n      jumpi\n        /* \"--CODEGEN--\":32:33   */\n      0x00\n        /* \"--CODEGEN--\":29:30   */\n      dup1\n        /* \"--CODEGEN--\":22:34   */\n      revert\n        /* \"--CODEGEN--\":4:6   */\n    tag_30:\n      pop\n      sub(shl(0xa0, 0x01), 0x01)\n        /* \"v2-periphery-master/v2-periphery-master/contracts/DEXV2Router01.sol\":4630:5275  function removeLiquidityETH(... */\n      dup2\n      calldataload\n      dup2\n      and\n      swap2\n      0x20\n      dup2\n      add\n      calldataload\n      swap2\n      0x40\n      dup3\n      add\n      calldataload\n      swap2\n      0x60\n      dup2\n      add\n      calldataload\n      swap2\n      0x80\n      dup3\n      add\n      calldataload\n      and\n      swap1\n      0xa0\n      add\n      calldataload\n      tag_31\n      jump\t// in\n    tag_29:\n      0x40\n      dup1\n      mload\n      swap3\n      dup4\n      mstore\n      0x20\n      dup4\n      add\n      swap2\n      swap1\n      swap2\n      mstore\n      dup1\n      mload\n      swap2\n      dup3\n      swap1\n      sub\n      add\n      swap1\n      return\n        /* \"v2-periphery-master/v2-periphery-master/contracts/DEXV2Router01.sol\":11631:11829  function getAmountOut(uint amountIn, uint reserveIn, uint reserveOut) public pure override returns (uint amountOut) {... */\n    tag_4:\n      callvalue\n        /* \"--CODEGEN--\":5:14   */\n      dup1\n        /* \"--CODEGEN--\":2:4   */\n      iszero\n      tag_32\n      jumpi\n        /* \"--CODEGEN--\":27:28   */\n      0x00\n        /* \"--CODEGEN--\":24:25   */\n      dup1\n        /* \"--CODEGEN--\":17:29   */\n      revert\n        /* \"--CODEGEN--\":2:4   */\n    tag_32:\n        /* \"v2-periphery-master/v2-periphery-master/contracts/DEXV2Router01.sol\":11631:11829  function getAmountOut(uint amountIn, uint reserveIn, uint reserveOut) public pure override returns (uint amountOut) {... */\n      pop\n      tag_33\n      0x04\n      dup1\n      calldatasize\n      sub\n        /* \"--CODEGEN--\":15:17   */\n      0x60\n        /* \"--CODEGEN--\":10:13   */\n      dup2\n        /* \"--CODEGEN--\":7:18   */\n      lt\n        /* \"--CODEGEN--\":4:6   */\n      iszero\n      tag_34\n      jumpi\n        /* \"--CODEGEN--\":31:32   */\n      0x00\n        /* \"--CODEGEN--\":28:29   */\n      dup1\n        /* \"--CODEGEN--\":21:33   */\n      revert\n        /* \"--CODEGEN--\":4:6   */\n    tag_34:\n      pop\n        /* \"v2-periphery-master/v2-periphery-master/contracts/DEXV2Router01.sol\":11631:11829  function getAmountOut(uint amountIn, uint reserveIn, uint reserveOut) public pure override returns (uint amountOut) {... */\n      dup1\n      calldataload\n      swap1\n      0x20\n      dup2\n      add\n      calldataload\n      swap1\n      0x40\n      add\n      calldataload\n      tag_35\n      jump\t// in\n    tag_33:\n      0x40\n      dup1\n      mload\n      swap2\n      dup3\n      mstore\n      mload\n      swap1\n      dup2\n      swap1\n      sub\n      0x20\n      add\n      swap1\n      return\n        /* \"v2-periphery-master/v2-periphery-master/contracts/DEXV2Router01.sol\":9906:10686  function swapExactTokensForETH(uint amountIn, uint amountOutMin, address[] calldata path, address to, uint deadline)... */\n    tag_5:\n      callvalue\n        /* \"--CODEGEN--\":5:14   */\n      dup1\n        /* \"--CODEGEN--\":2:4   */\n      iszero\n      tag_36\n      jumpi\n        /* \"--CODEGEN--\":27:28   */\n      0x00\n        /* \"--CODEGEN--\":24:25   */\n      dup1\n        /* \"--CODEGEN--\":17:29   */\n      revert\n        /* \"--CODEGEN--\":2:4   */\n    tag_36:\n        /* \"v2-periphery-master/v2-periphery-master/contracts/DEXV2Router01.sol\":9906:10686  function swapExactTokensForETH(uint amountIn, uint amountOutMin, address[] calldata path, address to, uint deadline)... */\n      pop\n      tag_37\n      0x04\n      dup1\n      calldatasize\n      sub\n        /* \"--CODEGEN--\":15:18   */\n      0xa0\n        /* \"--CODEGEN--\":10:13   */\n      dup2\n        /* \"--CODEGEN--\":7:19   */\n      lt\n        /* \"--CODEGEN--\":4:6   */\n      iszero\n      tag_38\n      jumpi\n        /* \"--CODEGEN--\":32:33   */\n      0x00\n        /* \"--CODEGEN--\":29:30   */\n      dup1\n        /* \"--CODEGEN--\":22:34   */\n      revert\n        /* \"--CODEGEN--\":4:6   */\n    tag_38:\n        /* \"v2-periphery-master/v2-periphery-master/contracts/DEXV2Router01.sol\":9906:10686  function swapExactTokensForETH(uint amountIn, uint amountOutMin, address[] calldata path, address to, uint deadline)... */\n      dup2\n      calldataload\n      swap2\n      0x20\n      dup2\n      add\n      calldataload\n      swap2\n      dup2\n      add\n      swap1\n      0x60\n      dup2\n      add\n      0x40\n      dup3\n      add\n      calldataload\n      shl(0x20, 0x01)\n        /* \"--CODEGEN--\":11:39   */\n      dup2\n      gt\n        /* \"--CODEGEN--\":8:10   */\n      iszero\n      tag_39\n      jumpi\n        /* \"--CODEGEN--\":52:53   */\n      0x00\n        /* \"--CODEGEN--\":49:50   */\n      dup1\n        /* \"--CODEGEN--\":42:54   */\n      revert\n        /* \"--CODEGEN--\":8:10   */\n    tag_39:\n        /* \"v2-periphery-master/v2-periphery-master/contracts/DEXV2Router01.sol\":9906:10686  function swapExactTokensForETH(uint amountIn, uint amountOutMin, address[] calldata path, address to, uint deadline)... */\n      dup3\n      add\n        /* \"--CODEGEN--\":41:50   */\n      dup4\n        /* \"--CODEGEN--\":34:38   */\n      0x20\n        /* \"--CODEGEN--\":18:32   */\n      dup3\n        /* \"--CODEGEN--\":14:39   */\n      add\n        /* \"--CODEGEN--\":11:51   */\n      gt\n        /* \"--CODEGEN--\":8:10   */\n      iszero\n      tag_40\n      jumpi\n        /* \"--CODEGEN--\":64:65   */\n      0x00\n        /* \"--CODEGEN--\":61:62   */\n      dup1\n        /* \"--CODEGEN--\":54:66   */\n      revert\n        /* \"--CODEGEN--\":8:10   */\n    tag_40:\n        /* \"v2-periphery-master/v2-periphery-master/contracts/DEXV2Router01.sol\":9906:10686  function swapExactTokensForETH(uint amountIn, uint amountOutMin, address[] calldata path, address to, uint deadline)... */\n      dup1\n      calldataload\n      swap1\n      0x20\n      add\n      swap2\n        /* \"--CODEGEN--\":101:110   */\n      dup5\n        /* \"--CODEGEN--\":95:97   */\n      0x20\n        /* \"--CODEGEN--\":81:93   */\n      dup4\n        /* \"--CODEGEN--\":77:98   */\n      mul\n        /* \"--CODEGEN--\":67:75   */\n      dup5\n        /* \"--CODEGEN--\":63:99   */\n      add\n        /* \"--CODEGEN--\":60:111   */\n      gt\n      shl(0x20, 0x01)\n        /* \"--CODEGEN--\":25:37   */\n      dup4\n        /* \"--CODEGEN--\":22:51   */\n      gt\n        /* \"--CODEGEN--\":11:119   */\n      or\n        /* \"--CODEGEN--\":8:10   */\n      iszero\n      tag_41\n      jumpi\n        /* \"--CODEGEN--\":132:133   */\n      0x00\n        /* \"--CODEGEN--\":129:130   */\n      dup1\n        /* \"--CODEGEN--\":122:134   */\n      revert\n        /* \"--CODEGEN--\":8:10   */\n    tag_41:\n        /* \"v2-periphery-master/v2-periphery-master/contracts/DEXV2Router01.sol\":9906:10686  function swapExactTokensForETH(uint amountIn, uint amountOutMin, address[] calldata path, address to, uint deadline)... */\n      swap2\n      swap4\n      pop\n      swap2\n      pop\n      sub(shl(0xa0, 0x01), 0x01)\n      dup2\n      calldataload\n      and\n      swap1\n      0x20\n      add\n      calldataload\n      tag_42\n      jump\t// in\n    tag_37:\n      0x40\n      dup1\n      mload\n      0x20\n      dup1\n      dup3\n      mstore\n      dup4\n      mload\n      dup2\n      dup4\n      add\n      mstore\n      dup4\n      mload\n      swap2\n      swap3\n      dup4\n      swap3\n      swap1\n      dup4\n      add\n      swap2\n      dup6\n      dup2\n      add\n      swap2\n      mul\n      dup1\n      dup4\n      dup4\n      0x00\n        /* \"--CODEGEN--\":8:108   */\n    tag_43:\n        /* \"--CODEGEN--\":33:36   */\n      dup4\n        /* \"--CODEGEN--\":30:31   */\n      dup2\n        /* \"--CODEGEN--\":27:37   */\n      lt\n        /* \"--CODEGEN--\":8:108   */\n      iszero\n      tag_45\n      jumpi\n        /* \"--CODEGEN--\":90:101   */\n      dup2\n      dup2\n      add\n        /* \"--CODEGEN--\":84:102   */\n      mload\n        /* \"--CODEGEN--\":71:82   */\n      dup4\n      dup3\n      add\n        /* \"--CODEGEN--\":64:103   */\n      mstore\n        /* \"--CODEGEN--\":52:54   */\n      0x20\n        /* \"--CODEGEN--\":45:55   */\n      add\n        /* \"--CODEGEN--\":8:108   */\n      jump(tag_43)\n    tag_45:\n        /* \"--CODEGEN--\":12:26   */\n      pop\n        /* \"v2-periphery-master/v2-periphery-master/contracts/DEXV2Router01.sol\":9906:10686  function swapExactTokensForETH(uint amountIn, uint amountOutMin, address[] calldata path, address to, uint deadline)... */\n      pop\n      pop\n      pop\n      swap1\n      pop\n      add\n      swap3\n      pop\n      pop\n      pop\n      mload(0x40)\n      dup1\n      swap2\n      sub\n      swap1\n      return\n        /* \"v2-periphery-master/v2-periphery-master/contracts/DEXV2Router01.sol\":12234:12423  function getAmountsIn(uint amountOut, address[] memory path) public view override returns (uint[] memory amounts) {... */\n    tag_6:\n      callvalue\n        /* \"--CODEGEN--\":5:14   */\n      dup1\n        /* \"--CODEGEN--\":2:4   */\n      iszero\n      tag_46\n      jumpi\n        /* \"--CODEGEN--\":27:28   */\n      0x00\n        /* \"--CODEGEN--\":24:25   */\n      dup1\n        /* \"--CODEGEN--\":17:29   */\n      revert\n        /* \"--CODEGEN--\":2:4   */\n    tag_46:\n        /* \"v2-periphery-master/v2-periphery-master/contracts/DEXV2Router01.sol\":12234:12423  function getAmountsIn(uint amountOut, address[] memory path) public view override returns (uint[] memory amounts) {... */\n      pop\n      tag_37\n      0x04\n      dup1\n      calldatasize\n      sub\n        /* \"--CODEGEN--\":15:17   */\n      0x40\n        /* \"--CODEGEN--\":10:13   */\n      dup2\n        /* \"--CODEGEN--\":7:18   */\n      lt\n        /* \"--CODEGEN--\":4:6   */\n      iszero\n      tag_48\n      jumpi\n        /* \"--CODEGEN--\":31:32   */\n      0x00\n        /* \"--CODEGEN--\":28:29   */\n      dup1\n        /* \"--CODEGEN--\":21:33   */\n      revert\n        /* \"--CODEGEN--\":4:6   */\n    tag_48:\n        /* \"v2-periphery-master/v2-periphery-master/contracts/DEXV2Router01.sol\":12234:12423  function getAmountsIn(uint amountOut, address[] memory path) public view override returns (uint[] memory amounts) {... */\n      dup2\n      calldataload\n      swap2\n      swap1\n      dup2\n      add\n      swap1\n      0x40\n      dup2\n      add\n      0x20\n      dup3\n      add\n      calldataload\n      shl(0x20, 0x01)\n        /* \"--CODEGEN--\":11:39   */\n      dup2\n      gt\n        /* \"--CODEGEN--\":8:10   */\n      iszero\n      tag_49\n      jumpi\n        /* \"--CODEGEN--\":52:53   */\n      0x00\n        /* \"--CODEGEN--\":49:50   */\n      dup1\n        /* \"--CODEGEN--\":42:54   */\n      revert\n        /* \"--CODEGEN--\":8:10   */\n    tag_49:\n        /* \"v2-periphery-master/v2-periphery-master/contracts/DEXV2Router01.sol\":12234:12423  function getAmountsIn(uint amountOut, address[] memory path) public view override returns (uint[] memory amounts) {... */\n      dup3\n      add\n        /* \"--CODEGEN--\":41:50   */\n      dup4\n        /* \"--CODEGEN--\":34:38   */\n      0x20\n        /* \"--CODEGEN--\":18:32   */\n      dup3\n        /* \"--CODEGEN--\":14:39   */\n      add\n        /* \"--CODEGEN--\":11:51   */\n      gt\n        /* \"--CODEGEN--\":8:10   */\n      iszero\n      tag_50\n      jumpi\n        /* \"--CODEGEN--\":64:65   */\n      0x00\n        /* \"--CODEGEN--\":61:62   */\n      dup1\n        /* \"--CODEGEN--\":54:66   */\n      revert\n        /* \"--CODEGEN--\":8:10   */\n    tag_50:\n        /* \"v2-periphery-master/v2-periphery-master/contracts/DEXV2Router01.sol\":12234:12423  function getAmountsIn(uint amountOut, address[] memory path) public view override returns (uint[] memory amounts) {... */\n      dup1\n      calldataload\n      swap1\n      0x20\n      add\n      swap2\n        /* \"--CODEGEN--\":101:110   */\n      dup5\n        /* \"--CODEGEN--\":95:97   */\n      0x20\n        /* \"--CODEGEN--\":81:93   */\n      dup4\n        /* \"--CODEGEN--\":77:98   */\n      mul\n        /* \"--CODEGEN--\":67:75   */\n      dup5\n        /* \"--CODEGEN--\":63:99   */\n      add\n        /* \"--CODEGEN--\":60:111   */\n      gt\n      shl(0x20, 0x01)\n        /* \"--CODEGEN--\":25:37   */\n      dup4\n        /* \"--CODEGEN--\":22:51   */\n      gt\n        /* \"--CODEGEN--\":11:119   */\n      or\n        /* \"--CODEGEN--\":8:10   */\n      iszero\n      tag_51\n      jumpi\n        /* \"--CODEGEN--\":132:133   */\n      0x00\n        /* \"--CODEGEN--\":129:130   */\n      dup1\n        /* \"--CODEGEN--\":122:134   */\n      revert\n        /* \"--CODEGEN--\":8:10   */\n    tag_51:\n        /* \"v2-periphery-master/v2-periphery-master/contracts/DEXV2Router01.sol\":12234:12423  function getAmountsIn(uint amountOut, address[] memory path) public view override returns (uint[] memory amounts) {... */\n      swap2\n      swap1\n      dup1\n      dup1\n      0x20\n      mul\n      0x20\n      add\n      mload(0x40)\n      swap1\n      dup2\n      add\n      0x40\n      mstore\n      dup1\n      swap4\n      swap3\n      swap2\n      swap1\n      dup2\n      dup2\n      mstore\n      0x20\n      add\n      dup4\n      dup4\n      0x20\n      mul\n        /* \"--CODEGEN--\":30:33   */\n      dup1\n        /* \"--CODEGEN--\":22:28   */\n      dup3\n        /* \"--CODEGEN--\":14:20   */\n      dup5\n        /* \"--CODEGEN--\":1:34   */\n      calldatacopy\n        /* \"--CODEGEN--\":99:100   */\n      0x00\n        /* \"--CODEGEN--\":81:97   */\n      swap3\n      add\n        /* \"--CODEGEN--\":74:101   */\n      swap2\n      swap1\n      swap2\n      mstore\n      pop\n        /* \"v2-periphery-master/v2-periphery-master/contracts/DEXV2Router01.sol\":12234:12423  function getAmountsIn(uint amountOut, address[] memory path) public view override returns (uint[] memory amounts) {... */\n      swap3\n      swap6\n      pop\n      tag_52\n      swap5\n      pop\n      pop\n      pop\n      pop\n      pop\n      jump\t// in\n        /* \"v2-periphery-master/v2-periphery-master/contracts/DEXV2Router01.sol\":5280:5927  function removeLiquidityWithPermit(... */\n    tag_7:\n      callvalue\n        /* \"--CODEGEN--\":5:14   */\n      dup1\n        /* \"--CODEGEN--\":2:4   */\n      iszero\n      tag_56\n      jumpi\n        /* \"--CODEGEN--\":27:28   */\n      0x00\n        /* \"--CODEGEN--\":24:25   */\n      dup1\n        /* \"--CODEGEN--\":17:29   */\n      revert\n        /* \"--CODEGEN--\":2:4   */\n    tag_56:\n        /* \"v2-periphery-master/v2-periphery-master/contracts/DEXV2Router01.sol\":5280:5927  function removeLiquidityWithPermit(... */\n      pop\n      tag_29\n      0x04\n      dup1\n      calldatasize\n      sub\n        /* \"--CODEGEN--\":15:18   */\n      0x0160\n        /* \"--CODEGEN--\":10:13   */\n      dup2\n        /* \"--CODEGEN--\":7:19   */\n      lt\n        /* \"--CODEGEN--\":4:6   */\n      iszero\n      tag_58\n      jumpi\n        /* \"--CODEGEN--\":32:33   */\n      0x00\n        /* \"--CODEGEN--\":29:30   */\n      dup1\n        /* \"--CODEGEN--\":22:34   */\n      revert\n        /* \"--CODEGEN--\":4:6   */\n    tag_58:\n      pop\n      sub(shl(0xa0, 0x01), 0x01)\n        /* \"v2-periphery-master/v2-periphery-master/contracts/DEXV2Router01.sol\":5280:5927  function removeLiquidityWithPermit(... */\n      dup2\n      calldataload\n      dup2\n      and\n      swap2\n      0x20\n      dup2\n      add\n      calldataload\n      dup3\n      and\n      swap2\n      0x40\n      dup3\n      add\n      calldataload\n      swap2\n      0x60\n      dup2\n      add\n      calldataload\n      swap2\n      0x80\n      dup3\n      add\n      calldataload\n      swap2\n      0xa0\n      dup2\n      add\n      calldataload\n      swap1\n      swap2\n      and\n      swap1\n      0xc0\n      dup2\n      add\n      calldataload\n      swap1\n      0xe0\n      dup2\n      add\n      calldataload\n      iszero\n      iszero\n      swap1\n      0xff\n      0x0100\n      dup3\n      add\n      calldataload\n      and\n      swap1\n      0x0120\n      dup2\n      add\n      calldataload\n      swap1\n      0x0140\n      add\n      calldataload\n      tag_59\n      jump\t// in\n        /* \"v2-periphery-master/v2-periphery-master/contracts/DEXV2Router01.sol\":7353:7926  function swapExactTokensForTokens(... */\n    tag_8:\n      callvalue\n        /* \"--CODEGEN--\":5:14   */\n      dup1\n        /* \"--CODEGEN--\":2:4   */\n      iszero\n      tag_60\n      jumpi\n        /* \"--CODEGEN--\":27:28   */\n      0x00\n        /* \"--CODEGEN--\":24:25   */\n      dup1\n        /* \"--CODEGEN--\":17:29   */\n      revert\n        /* \"--CODEGEN--\":2:4   */\n    tag_60:\n        /* \"v2-periphery-master/v2-periphery-master/contracts/DEXV2Router01.sol\":7353:7926  function swapExactTokensForTokens(... */\n      pop\n      tag_37\n      0x04\n      dup1\n      calldatasize\n      sub\n        /* \"--CODEGEN--\":15:18   */\n      0xa0\n        /* \"--CODEGEN--\":10:13   */\n      dup2\n        /* \"--CODEGEN--\":7:19   */\n      lt\n        /* \"--CODEGEN--\":4:6   */\n      iszero\n      tag_62\n      jumpi\n        /* \"--CODEGEN--\":32:33   */\n      0x00\n        /* \"--CODEGEN--\":29:30   */\n      dup1\n        /* \"--CODEGEN--\":22:34   */\n      revert\n        /* \"--CODEGEN--\":4:6   */\n    tag_62:\n        /* \"v2-periphery-master/v2-periphery-master/contracts/DEXV2Router01.sol\":7353:7926  function swapExactTokensForTokens(... */\n      dup2\n      calldataload\n      swap2\n      0x20\n      dup2\n      add\n      calldataload\n      swap2\n      dup2\n      add\n      swap1\n      0x60\n      dup2\n      add\n      0x40\n      dup3\n      add\n      calldataload\n      shl(0x20, 0x01)\n        /* \"--CODEGEN--\":11:39   */\n      dup2\n      gt\n        /* \"--CODEGEN--\":8:10   */\n      iszero\n      tag_63\n      jumpi\n        /* \"--CODEGEN--\":52:53   */\n      0x00\n        /* \"--CODEGEN--\":49:50   */\n      dup1\n        /* \"--CODEGEN--\":42:54   */\n      revert\n        /* \"--CODEGEN--\":8:10   */\n    tag_63:\n        /* \"v2-periphery-master/v2-periphery-master/contracts/DEXV2Router01.sol\":7353:7926  function swapExactTokensForTokens(... */\n      dup3\n      add\n        /* \"--CODEGEN--\":41:50   */\n      dup4\n        /* \"--CODEGEN--\":34:38   */\n      0x20\n        /* \"--CODEGEN--\":18:32   */\n      dup3\n        /* \"--CODEGEN--\":14:39   */\n      add\n        /* \"--CODEGEN--\":11:51   */\n      gt\n        /* \"--CODEGEN--\":8:10   */\n      iszero\n      tag_64\n      jumpi\n        /* \"--CODEGEN--\":64:65   */\n      0x00\n        /* \"--CODEGEN--\":61:62   */\n      dup1\n        /* \"--CODEGEN--\":54:66   */\n      revert\n        /* \"--CODEGEN--\":8:10   */\n    tag_64:\n        /* \"v2-periphery-master/v2-periphery-master/contracts/DEXV2Router01.sol\":7353:7926  function swapExactTokensForTokens(... */\n      dup1\n      calldataload\n      swap1\n      0x20\n      add\n      swap2\n        /* \"--CODEGEN--\":101:110   */\n      dup5\n        /* \"--CODEGEN--\":95:97   */\n      0x20\n        /* \"--CODEGEN--\":81:93   */\n      dup4\n        /* \"--CODEGEN--\":77:98   */\n      mul\n        /* \"--CODEGEN--\":67:75   */\n      dup5\n        /* \"--CODEGEN--\":63:99   */\n      add\n        /* \"--CODEGEN--\":60:111   */\n      gt\n      shl(0x20, 0x01)\n        /* \"--CODEGEN--\":25:37   */\n      dup4\n        /* \"--CODEGEN--\":22:51   */\n      gt\n        /* \"--CODEGEN--\":11:119   */\n      or\n        /* \"--CODEGEN--\":8:10   */\n      iszero\n      tag_65\n      jumpi\n        /* \"--CODEGEN--\":132:133   */\n      0x00\n        /* \"--CODEGEN--\":129:130   */\n      dup1\n        /* \"--CODEGEN--\":122:134   */\n      revert\n        /* \"--CODEGEN--\":8:10   */\n    tag_65:\n        /* \"v2-periphery-master/v2-periphery-master/contracts/DEXV2Router01.sol\":7353:7926  function swapExactTokensForTokens(... */\n      swap2\n      swap4\n      pop\n      swap2\n      pop\n      sub(shl(0xa0, 0x01), 0x01)\n      dup2\n      calldataload\n      and\n      swap1\n      0x20\n      add\n      calldataload\n      tag_66\n      jump\t// in\n        /* \"v2-periphery-master/v2-periphery-master/contracts/DEXV2Router01.sol\":9143:9901  function swapTokensForExactETH(uint amountOut, uint amountInMax, address[] calldata path, address to, uint deadline)... */\n    tag_9:\n      callvalue\n        /* \"--CODEGEN--\":5:14   */\n      dup1\n        /* \"--CODEGEN--\":2:4   */\n      iszero\n      tag_70\n      jumpi\n        /* \"--CODEGEN--\":27:28   */\n      0x00\n        /* \"--CODEGEN--\":24:25   */\n      dup1\n        /* \"--CODEGEN--\":17:29   */\n      revert\n        /* \"--CODEGEN--\":2:4   */\n    tag_70:\n        /* \"v2-periphery-master/v2-periphery-master/contracts/DEXV2Router01.sol\":9143:9901  function swapTokensForExactETH(uint amountOut, uint amountInMax, address[] calldata path, address to, uint deadline)... */\n      pop\n      tag_37\n      0x04\n      dup1\n      calldatasize\n      sub\n        /* \"--CODEGEN--\":15:18   */\n      0xa0\n        /* \"--CODEGEN--\":10:13   */\n      dup2\n        /* \"--CODEGEN--\":7:19   */\n      lt\n        /* \"--CODEGEN--\":4:6   */\n      iszero\n      tag_72\n      jumpi\n        /* \"--CODEGEN--\":32:33   */\n      0x00\n        /* \"--CODEGEN--\":29:30   */\n      dup1\n        /* \"--CODEGEN--\":22:34   */\n      revert\n        /* \"--CODEGEN--\":4:6   */\n    tag_72:\n        /* \"v2-periphery-master/v2-periphery-master/contracts/DEXV2Router01.sol\":9143:9901  function swapTokensForExactETH(uint amountOut, uint amountInMax, address[] calldata path, address to, uint deadline)... */\n      dup2\n      calldataload\n      swap2\n      0x20\n      dup2\n      add\n      calldataload\n      swap2\n      dup2\n      add\n      swap1\n      0x60\n      dup2\n      add\n      0x40\n      dup3\n      add\n      calldataload\n      shl(0x20, 0x01)\n        /* \"--CODEGEN--\":11:39   */\n      dup2\n      gt\n        /* \"--CODEGEN--\":8:10   */\n      iszero\n      tag_73\n      jumpi\n        /* \"--CODEGEN--\":52:53   */\n      0x00\n        /* \"--CODEGEN--\":49:50   */\n      dup1\n        /* \"--CODEGEN--\":42:54   */\n      revert\n        /* \"--CODEGEN--\":8:10   */\n    tag_73:\n        /* \"v2-periphery-master/v2-periphery-master/contracts/DEXV2Router01.sol\":9143:9901  function swapTokensForExactETH(uint amountOut, uint amountInMax, address[] calldata path, address to, uint deadline)... */\n      dup3\n      add\n        /* \"--CODEGEN--\":41:50   */\n      dup4\n        /* \"--CODEGEN--\":34:38   */\n      0x20\n        /* \"--CODEGEN--\":18:32   */\n      dup3\n        /* \"--CODEGEN--\":14:39   */\n      add\n        /* \"--CODEGEN--\":11:51   */\n      gt\n        /* \"--CODEGEN--\":8:10   */\n      iszero\n      tag_74\n      jumpi\n        /* \"--CODEGEN--\":64:65   */\n      0x00\n        /* \"--CODEGEN--\":61:62   */\n      dup1\n        /* \"--CODEGEN--\":54:66   */\n      revert\n        /* \"--CODEGEN--\":8:10   */\n    tag_74:\n        /* \"v2-periphery-master/v2-periphery-master/contracts/DEXV2Router01.sol\":9143:9901  function swapTokensForExactETH(uint amountOut, uint amountInMax, address[] calldata path, address to, uint deadline)... */\n      dup1\n      calldataload\n      swap1\n      0x20\n      add\n      swap2\n        /* \"--CODEGEN--\":101:110   */\n      dup5\n        /* \"--CODEGEN--\":95:97   */\n      0x20\n        /* \"--CODEGEN--\":81:93   */\n      dup4\n        /* \"--CODEGEN--\":77:98   */\n      mul\n        /* \"--CODEGEN--\":67:75   */\n      dup5\n        /* \"--CODEGEN--\":63:99   */\n      add\n        /* \"--CODEGEN--\":60:111   */\n      gt\n      shl(0x20, 0x01)\n        /* \"--CODEGEN--\":25:37   */\n      dup4\n        /* \"--CODEGEN--\":22:51   */\n      gt\n        /* \"--CODEGEN--\":11:119   */\n      or\n        /* \"--CODEGEN--\":8:10   */\n      iszero\n      tag_75\n      jumpi\n        /* \"--CODEGEN--\":132:133   */\n      0x00\n        /* \"--CODEGEN--\":129:130   */\n      dup1\n        /* \"--CODEGEN--\":122:134   */\n      revert\n        /* \"--CODEGEN--\":8:10   */\n    tag_75:\n        /* \"v2-periphery-master/v2-periphery-master/contracts/DEXV2Router01.sol\":9143:9901  function swapTokensForExactETH(uint amountOut, uint amountInMax, address[] calldata path, address to, uint deadline)... */\n      swap2\n      swap4\n      pop\n      swap2\n      pop\n      sub(shl(0xa0, 0x01), 0x01)\n      dup2\n      calldataload\n      and\n      swap1\n      0x20\n      add\n      calldataload\n      tag_76\n      jump\t// in\n        /* \"v2-periphery-master/v2-periphery-master/contracts/DEXV2Router01.sol\":8487:9138  function swapExactETHForTokens(uint amountOutMin, address[] calldata path, address to, uint deadline)... */\n    tag_10:\n      tag_37\n      0x04\n      dup1\n      calldatasize\n      sub\n        /* \"--CODEGEN--\":15:18   */\n      0x80\n        /* \"--CODEGEN--\":10:13   */\n      dup2\n        /* \"--CODEGEN--\":7:19   */\n      lt\n        /* \"--CODEGEN--\":4:6   */\n      iszero\n      tag_81\n      jumpi\n        /* \"--CODEGEN--\":32:33   */\n      0x00\n        /* \"--CODEGEN--\":29:30   */\n      dup1\n        /* \"--CODEGEN--\":22:34   */\n      revert\n        /* \"--CODEGEN--\":4:6   */\n    tag_81:\n        /* \"v2-periphery-master/v2-periphery-master/contracts/DEXV2Router01.sol\":8487:9138  function swapExactETHForTokens(uint amountOutMin, address[] calldata path, address to, uint deadline)... */\n      dup2\n      calldataload\n      swap2\n      swap1\n      dup2\n      add\n      swap1\n      0x40\n      dup2\n      add\n      0x20\n      dup3\n      add\n      calldataload\n      shl(0x20, 0x01)\n        /* \"--CODEGEN--\":11:39   */\n      dup2\n      gt\n        /* \"--CODEGEN--\":8:10   */\n      iszero\n      tag_82\n      jumpi\n        /* \"--CODEGEN--\":52:53   */\n      0x00\n        /* \"--CODEGEN--\":49:50   */\n      dup1\n        /* \"--CODEGEN--\":42:54   */\n      revert\n        /* \"--CODEGEN--\":8:10   */\n    tag_82:\n        /* \"v2-periphery-master/v2-periphery-master/contracts/DEXV2Router01.sol\":8487:9138  function swapExactETHForTokens(uint amountOutMin, address[] calldata path, address to, uint deadline)... */\n      dup3\n      add\n        /* \"--CODEGEN--\":41:50   */\n      dup4\n        /* \"--CODEGEN--\":34:38   */\n      0x20\n        /* \"--CODEGEN--\":18:32   */\n      dup3\n        /* \"--CODEGEN--\":14:39   */\n      add\n        /* \"--CODEGEN--\":11:51   */\n      gt\n        /* \"--CODEGEN--\":8:10   */\n      iszero\n      tag_83\n      jumpi\n        /* \"--CODEGEN--\":64:65   */\n      0x00\n        /* \"--CODEGEN--\":61:62   */\n      dup1\n        /* \"--CODEGEN--\":54:66   */\n      revert\n        /* \"--CODEGEN--\":8:10   */\n    tag_83:\n        /* \"v2-periphery-master/v2-periphery-master/contracts/DEXV2Router01.sol\":8487:9138  function swapExactETHForTokens(uint amountOutMin, address[] calldata path, address to, uint deadline)... */\n      dup1\n      calldataload\n      swap1\n      0x20\n      add\n      swap2\n        /* \"--CODEGEN--\":101:110   */\n      dup5\n        /* \"--CODEGEN--\":95:97   */\n      0x20\n        /* \"--CODEGEN--\":81:93   */\n      dup4\n        /* \"--CODEGEN--\":77:98   */\n      mul\n        /* \"--CODEGEN--\":67:75   */\n      dup5\n        /* \"--CODEGEN--\":63:99   */\n      add\n        /* \"--CODEGEN--\":60:111   */\n      gt\n      shl(0x20, 0x01)\n        /* \"--CODEGEN--\":25:37   */\n      dup4\n        /* \"--CODEGEN--\":22:51   */\n      gt\n        /* \"--CODEGEN--\":11:119   */\n      or\n        /* \"--CODEGEN--\":8:10   */\n      iszero\n      tag_84\n      jumpi\n        /* \"--CODEGEN--\":132:133   */\n      0x00\n        /* \"--CODEGEN--\":129:130   */\n      dup1\n        /* \"--CODEGEN--\":122:134   */\n      revert\n        /* \"--CODEGEN--\":8:10   */\n    tag_84:\n        /* \"v2-periphery-master/v2-periphery-master/contracts/DEXV2Router01.sol\":8487:9138  function swapExactETHForTokens(uint amountOutMin, address[] calldata path, address to, uint deadline)... */\n      swap2\n      swap4\n      pop\n      swap2\n      pop\n      sub(shl(0xa0, 0x01), 0x01)\n      dup2\n      calldataload\n      and\n      swap1\n      0x20\n      add\n      calldataload\n      tag_85\n      jump\t// in\n        /* \"v2-periphery-master/v2-periphery-master/contracts/DEXV2Router01.sol\":7931:8482  function swapTokensForExactTokens(... */\n    tag_12:\n      callvalue\n        /* \"--CODEGEN--\":5:14   */\n      dup1\n        /* \"--CODEGEN--\":2:4   */\n      iszero\n      tag_93\n      jumpi\n        /* \"--CODEGEN--\":27:28   */\n      0x00\n        /* \"--CODEGEN--\":24:25   */\n      dup1\n        /* \"--CODEGEN--\":17:29   */\n      revert\n        /* \"--CODEGEN--\":2:4   */\n    tag_93:\n        /* \"v2-periphery-master/v2-periphery-master/contracts/DEXV2Router01.sol\":7931:8482  function swapTokensForExactTokens(... */\n      pop\n      tag_37\n      0x04\n      dup1\n      calldatasize\n      sub\n        /* \"--CODEGEN--\":15:18   */\n      0xa0\n        /* \"--CODEGEN--\":10:13   */\n      dup2\n        /* \"--CODEGEN--\":7:19   */\n      lt\n        /* \"--CODEGEN--\":4:6   */\n      iszero\n      tag_95\n      jumpi\n        /* \"--CODEGEN--\":32:33   */\n      0x00\n        /* \"--CODEGEN--\":29:30   */\n      dup1\n        /* \"--CODEGEN--\":22:34   */\n      revert\n        /* \"--CODEGEN--\":4:6   */\n    tag_95:\n        /* \"v2-periphery-master/v2-periphery-master/contracts/DEXV2Router01.sol\":7931:8482  function swapTokensForExactTokens(... */\n      dup2\n      calldataload\n      swap2\n      0x20\n      dup2\n      add\n      calldataload\n      swap2\n      dup2\n      add\n      swap1\n      0x60\n      dup2\n      add\n      0x40\n      dup3\n      add\n      calldataload\n      shl(0x20, 0x01)\n        /* \"--CODEGEN--\":11:39   */\n      dup2\n      gt\n        /* \"--CODEGEN--\":8:10   */\n      iszero\n      tag_96\n      jumpi\n        /* \"--CODEGEN--\":52:53   */\n      0x00\n        /* \"--CODEGEN--\":49:50   */\n      dup1\n        /* \"--CODEGEN--\":42:54   */\n      revert\n        /* \"--CODEGEN--\":8:10   */\n    tag_96:\n        /* \"v2-periphery-master/v2-periphery-master/contracts/DEXV2Router01.sol\":7931:8482  function swapTokensForExactTokens(... */\n      dup3\n      add\n        /* \"--CODEGEN--\":41:50   */\n      dup4\n        /* \"--CODEGEN--\":34:38   */\n      0x20\n        /* \"--CODEGEN--\":18:32   */\n      dup3\n        /* \"--CODEGEN--\":14:39   */\n      add\n        /* \"--CODEGEN--\":11:51   */\n      gt\n        /* \"--CODEGEN--\":8:10   */\n      iszero\n      tag_97\n      jumpi\n        /* \"--CODEGEN--\":64:65   */\n      0x00\n        /* \"--CODEGEN--\":61:62   */\n      dup1\n        /* \"--CODEGEN--\":54:66   */\n      revert\n        /* \"--CODEGEN--\":8:10   */\n    tag_97:\n        /* \"v2-periphery-master/v2-periphery-master/contracts/DEXV2Router01.sol\":7931:8482  function swapTokensForExactTokens(... */\n      dup1\n      calldataload\n      swap1\n      0x20\n      add\n      swap2\n        /* \"--CODEGEN--\":101:110   */\n      dup5\n        /* \"--CODEGEN--\":95:97   */\n      0x20\n        /* \"--CODEGEN--\":81:93   */\n      dup4\n        /* \"--CODEGEN--\":77:98   */\n      mul\n        /* \"--CODEGEN--\":67:75   */\n      dup5\n        /* \"--CODEGEN--\":63:99   */\n      add\n        /* \"--CODEGEN--\":60:111   */\n      gt\n      shl(0x20, 0x01)\n        /* \"--CODEGEN--\":25:37   */\n      dup4\n        /* \"--CODEGEN--\":22:51   */\n      gt\n        /* \"--CODEGEN--\":11:119   */\n      or\n        /* \"--CODEGEN--\":8:10   */\n      iszero\n      tag_98\n      jumpi\n        /* \"--CODEGEN--\":132:133   */\n      0x00\n        /* \"--CODEGEN--\":129:130   */\n      dup1\n        /* \"--CODEGEN--\":122:134   */\n      revert\n        /* \"--CODEGEN--\":8:10   */\n    tag_98:\n        /* \"v2-periphery-master/v2-periphery-master/contracts/DEXV2Router01.sol\":7931:8482  function swapTokensForExactTokens(... */\n      swap2\n      swap4\n      pop\n      swap2\n      pop\n      sub(shl(0xa0, 0x01), 0x01)\n      dup2\n      calldataload\n      and\n      swap1\n      0x20\n      add\n      calldataload\n      tag_99\n      jump\t// in\n        /* \"v2-periphery-master/v2-periphery-master/contracts/DEXV2Router01.sol\":351:389  address public immutable override WETH */\n    tag_13:\n      callvalue\n        /* \"--CODEGEN--\":5:14   */\n      dup1\n        /* \"--CODEGEN--\":2:4   */\n      iszero\n      tag_103\n      jumpi\n        /* \"--CODEGEN--\":27:28   */\n      0x00\n        /* \"--CODEGEN--\":24:25   */\n      dup1\n        /* \"--CODEGEN--\":17:29   */\n      revert\n        /* \"--CODEGEN--\":2:4   */\n    tag_103:\n        /* \"v2-periphery-master/v2-periphery-master/contracts/DEXV2Router01.sol\":351:389  address public immutable override WETH */\n      pop\n      tag_104\n      tag_105\n      jump\t// in\n    tag_104:\n      0x40\n      dup1\n      mload\n      sub(shl(0xa0, 0x01), 0x01)\n      swap1\n      swap3\n      and\n      dup3\n      mstore\n      mload\n      swap1\n      dup2\n      swap1\n      sub\n      0x20\n      add\n      swap1\n      return\n        /* \"v2-periphery-master/v2-periphery-master/contracts/DEXV2Router01.sol\":11451:11625  function quote(uint amountA, uint reserveA, uint reserveB) public pure override returns (uint amountB) {... */\n    tag_14:\n      callvalue\n        /* \"--CODEGEN--\":5:14   */\n      dup1\n        /* \"--CODEGEN--\":2:4   */\n      iszero\n      tag_106\n      jumpi\n        /* \"--CODEGEN--\":27:28   */\n      0x00\n        /* \"--CODEGEN--\":24:25   */\n      dup1\n        /* \"--CODEGEN--\":17:29   */\n      revert\n        /* \"--CODEGEN--\":2:4   */\n    tag_106:\n        /* \"v2-periphery-master/v2-periphery-master/contracts/DEXV2Router01.sol\":11451:11625  function quote(uint amountA, uint reserveA, uint reserveB) public pure override returns (uint amountB) {... */\n      pop\n      tag_33\n      0x04\n      dup1\n      calldatasize\n      sub\n        /* \"--CODEGEN--\":15:17   */\n      0x60\n        /* \"--CODEGEN--\":10:13   */\n      dup2\n        /* \"--CODEGEN--\":7:18   */\n      lt\n        /* \"--CODEGEN--\":4:6   */\n      iszero\n      tag_108\n      jumpi\n        /* \"--CODEGEN--\":31:32   */\n      0x00\n        /* \"--CODEGEN--\":28:29   */\n      dup1\n        /* \"--CODEGEN--\":21:33   */\n      revert\n        /* \"--CODEGEN--\":4:6   */\n    tag_108:\n      pop\n        /* \"v2-periphery-master/v2-periphery-master/contracts/DEXV2Router01.sol\":11451:11625  function quote(uint amountA, uint reserveA, uint reserveB) public pure override returns (uint amountB) {... */\n      dup1\n      calldataload\n      swap1\n      0x20\n      dup2\n      add\n      calldataload\n      swap1\n      0x40\n      add\n      calldataload\n      tag_109\n      jump\t// in\n        /* \"v2-periphery-master/v2-periphery-master/contracts/DEXV2Router01.sol\":3808:4625  function removeLiquidity(... */\n    tag_15:\n      callvalue\n        /* \"--CODEGEN--\":5:14   */\n      dup1\n        /* \"--CODEGEN--\":2:4   */\n      iszero\n      tag_110\n      jumpi\n        /* \"--CODEGEN--\":27:28   */\n      0x00\n        /* \"--CODEGEN--\":24:25   */\n      dup1\n        /* \"--CODEGEN--\":17:29   */\n      revert\n        /* \"--CODEGEN--\":2:4   */\n    tag_110:\n        /* \"v2-periphery-master/v2-periphery-master/contracts/DEXV2Router01.sol\":3808:4625  function removeLiquidity(... */\n      pop\n      tag_29\n      0x04\n      dup1\n      calldatasize\n      sub\n        /* \"--CODEGEN--\":15:18   */\n      0xe0\n        /* \"--CODEGEN--\":10:13   */\n      dup2\n        /* \"--CODEGEN--\":7:19   */\n      lt\n        /* \"--CODEGEN--\":4:6   */\n      iszero\n      tag_112\n      jumpi\n        /* \"--CODEGEN--\":32:33   */\n      0x00\n        /* \"--CODEGEN--\":29:30   */\n      dup1\n        /* \"--CODEGEN--\":22:34   */\n      revert\n        /* \"--CODEGEN--\":4:6   */\n    tag_112:\n      pop\n      sub(shl(0xa0, 0x01), 0x01)\n        /* \"v2-periphery-master/v2-periphery-master/contracts/DEXV2Router01.sol\":3808:4625  function removeLiquidity(... */\n      dup2\n      calldataload\n      dup2\n      and\n      swap2\n      0x20\n      dup2\n      add\n      calldataload\n      dup3\n      and\n      swap2\n      0x40\n      dup3\n      add\n      calldataload\n      swap2\n      0x60\n      dup2\n      add\n      calldataload\n      swap2\n      0x80\n      dup3\n      add\n      calldataload\n      swap2\n      0xa0\n      dup2\n      add\n      calldataload\n      swap1\n      swap2\n      and\n      swap1\n      0xc0\n      add\n      calldataload\n      tag_113\n      jump\t// in\n        /* \"v2-periphery-master/v2-periphery-master/contracts/DEXV2Router01.sol\":304:345  address public immutable override factory */\n    tag_16:\n      callvalue\n        /* \"--CODEGEN--\":5:14   */\n      dup1\n        /* \"--CODEGEN--\":2:4   */\n      iszero\n      tag_114\n      jumpi\n        /* \"--CODEGEN--\":27:28   */\n      0x00\n        /* \"--CODEGEN--\":24:25   */\n      dup1\n        /* \"--CODEGEN--\":17:29   */\n      revert\n        /* \"--CODEGEN--\":2:4   */\n    tag_114:\n        /* \"v2-periphery-master/v2-periphery-master/contracts/DEXV2Router01.sol\":304:345  address public immutable override factory */\n      pop\n      tag_104\n      tag_116\n      jump\t// in\n        /* \"v2-periphery-master/v2-periphery-master/contracts/DEXV2Router01.sol\":12039:12228  function getAmountsOut(uint amountIn, address[] memory path) public view override returns (uint[] memory amounts) {... */\n    tag_17:\n      callvalue\n        /* \"--CODEGEN--\":5:14   */\n      dup1\n        /* \"--CODEGEN--\":2:4   */\n      iszero\n      tag_117\n      jumpi\n        /* \"--CODEGEN--\":27:28   */\n      0x00\n        /* \"--CODEGEN--\":24:25   */\n      dup1\n        /* \"--CODEGEN--\":17:29   */\n      revert\n        /* \"--CODEGEN--\":2:4   */\n    tag_117:\n        /* \"v2-periphery-master/v2-periphery-master/contracts/DEXV2Router01.sol\":12039:12228  function getAmountsOut(uint amountIn, address[] memory path) public view override returns (uint[] memory amounts) {... */\n      pop\n      tag_37\n      0x04\n      dup1\n      calldatasize\n      sub\n        /* \"--CODEGEN--\":15:17   */\n      0x40\n        /* \"--CODEGEN--\":10:13   */\n      dup2\n        /* \"--CODEGEN--\":7:18   */\n      lt\n        /* \"--CODEGEN--\":4:6   */\n      iszero\n      tag_119\n      jumpi\n        /* \"--CODEGEN--\":31:32   */\n      0x00\n        /* \"--CODEGEN--\":28:29   */\n      dup1\n        /* \"--CODEGEN--\":21:33   */\n      revert\n        /* \"--CODEGEN--\":4:6   */\n    tag_119:\n        /* \"v2-periphery-master/v2-periphery-master/contracts/DEXV2Router01.sol\":12039:12228  function getAmountsOut(uint amountIn, address[] memory path) public view override returns (uint[] memory amounts) {... */\n      dup2\n      calldataload\n      swap2\n      swap1\n      dup2\n      add\n      swap1\n      0x40\n      dup2\n      add\n      0x20\n      dup3\n      add\n      calldataload\n      shl(0x20, 0x01)\n        /* \"--CODEGEN--\":11:39   */\n      dup2\n      gt\n        /* \"--CODEGEN--\":8:10   */\n      iszero\n      tag_120\n      jumpi\n        /* \"--CODEGEN--\":52:53   */\n      0x00\n        /* \"--CODEGEN--\":49:50   */\n      dup1\n        /* \"--CODEGEN--\":42:54   */\n      revert\n        /* \"--CODEGEN--\":8:10   */\n    tag_120:\n        /* \"v2-periphery-master/v2-periphery-master/contracts/DEXV2Router01.sol\":12039:12228  function getAmountsOut(uint amountIn, address[] memory path) public view override returns (uint[] memory amounts) {... */\n      dup3\n      add\n        /* \"--CODEGEN--\":41:50   */\n      dup4\n        /* \"--CODEGEN--\":34:38   */\n      0x20\n        /* \"--CODEGEN--\":18:32   */\n      dup3\n        /* \"--CODEGEN--\":14:39   */\n      add\n        /* \"--CODEGEN--\":11:51   */\n      gt\n        /* \"--CODEGEN--\":8:10   */\n      iszero\n      tag_121\n      jumpi\n        /* \"--CODEGEN--\":64:65   */\n      0x00\n        /* \"--CODEGEN--\":61:62   */\n      dup1\n        /* \"--CODEGEN--\":54:66   */\n      revert\n        /* \"--CODEGEN--\":8:10   */\n    tag_121:\n        /* \"v2-periphery-master/v2-periphery-master/contracts/DEXV2Router01.sol\":12039:12228  function getAmountsOut(uint amountIn, address[] memory path) public view override returns (uint[] memory amounts) {... */\n      dup1\n      calldataload\n      swap1\n      0x20\n      add\n      swap2\n        /* \"--CODEGEN--\":101:110   */\n      dup5\n        /* \"--CODEGEN--\":95:97   */\n      0x20\n        /* \"--CODEGEN--\":81:93   */\n      dup4\n        /* \"--CODEGEN--\":77:98   */\n      mul\n        /* \"--CODEGEN--\":67:75   */\n      dup5\n        /* \"--CODEGEN--\":63:99   */\n      add\n        /* \"--CODEGEN--\":60:111   */\n      gt\n      shl(0x20, 0x01)\n        /* \"--CODEGEN--\":25:37   */\n      dup4\n        /* \"--CODEGEN--\":22:51   */\n      gt\n        /* \"--CODEGEN--\":11:119   */\n      or\n        /* \"--CODEGEN--\":8:10   */\n      iszero\n      tag_122\n      jumpi\n        /* \"--CODEGEN--\":132:133   */\n      0x00\n        /* \"--CODEGEN--\":129:130   */\n      dup1\n        /* \"--CODEGEN--\":122:134   */\n      revert\n        /* \"--CODEGEN--\":8:10   */\n    tag_122:\n        /* \"v2-periphery-master/v2-periphery-master/contracts/DEXV2Router01.sol\":12039:12228  function getAmountsOut(uint amountIn, address[] memory path) public view override returns (uint[] memory amounts) {... */\n      swap2\n      swap1\n      dup1\n      dup1\n      0x20\n      mul\n      0x20\n      add\n      mload(0x40)\n      swap1\n      dup2\n      add\n      0x40\n      mstore\n      dup1\n      swap4\n      swap3\n      swap2\n      swap1\n      dup2\n      dup2\n      mstore\n      0x20\n      add\n      dup4\n      dup4\n      0x20\n      mul\n        /* \"--CODEGEN--\":30:33   */\n      dup1\n        /* \"--CODEGEN--\":22:28   */\n      dup3\n        /* \"--CODEGEN--\":14:20   */\n      dup5\n        /* \"--CODEGEN--\":1:34   */\n      calldatacopy\n        /* \"--CODEGEN--\":99:100   */\n      0x00\n        /* \"--CODEGEN--\":81:97   */\n      swap3\n      add\n        /* \"--CODEGEN--\":74:101   */\n      swap2\n      swap1\n      swap2\n      mstore\n      pop\n        /* \"v2-periphery-master/v2-periphery-master/contracts/DEXV2Router01.sol\":12039:12228  function getAmountsOut(uint amountIn, address[] memory path) public view override returns (uint[] memory amounts) {... */\n      swap3\n      swap6\n      pop\n      tag_123\n      swap5\n      pop\n      pop\n      pop\n      pop\n      pop\n      jump\t// in\n        /* \"v2-periphery-master/v2-periphery-master/contracts/DEXV2Router01.sol\":5932:6572  function removeLiquidityETHWithPermit(... */\n    tag_18:\n      callvalue\n        /* \"--CODEGEN--\":5:14   */\n      dup1\n        /* \"--CODEGEN--\":2:4   */\n      iszero\n      tag_127\n      jumpi\n        /* \"--CODEGEN--\":27:28   */\n      0x00\n        /* \"--CODEGEN--\":24:25   */\n      dup1\n        /* \"--CODEGEN--\":17:29   */\n      revert\n        /* \"--CODEGEN--\":2:4   */\n    tag_127:\n        /* \"v2-periphery-master/v2-periphery-master/contracts/DEXV2Router01.sol\":5932:6572  function removeLiquidityETHWithPermit(... */\n      pop\n      tag_29\n      0x04\n      dup1\n      calldatasize\n      sub\n        /* \"--CODEGEN--\":15:18   */\n      0x0140\n        /* \"--CODEGEN--\":10:13   */\n      dup2\n        /* \"--CODEGEN--\":7:19   */\n      lt\n        /* \"--CODEGEN--\":4:6   */\n      iszero\n      tag_129\n      jumpi\n        /* \"--CODEGEN--\":32:33   */\n      0x00\n        /* \"--CODEGEN--\":29:30   */\n      dup1\n        /* \"--CODEGEN--\":22:34   */\n      revert\n        /* \"--CODEGEN--\":4:6   */\n    tag_129:\n      pop\n      sub(shl(0xa0, 0x01), 0x01)\n        /* \"v2-periphery-master/v2-periphery-master/contracts/DEXV2Router01.sol\":5932:6572  function removeLiquidityETHWithPermit(... */\n      dup2\n      calldataload\n      dup2\n      and\n      swap2\n      0x20\n      dup2\n      add\n      calldataload\n      swap2\n      0x40\n      dup3\n      add\n      calldataload\n      swap2\n      0x60\n      dup2\n      add\n      calldataload\n      swap2\n      0x80\n      dup3\n      add\n      calldataload\n      and\n      swap1\n      0xa0\n      dup2\n      add\n      calldataload\n      swap1\n      0xc0\n      dup2\n      add\n      calldataload\n      iszero\n      iszero\n      swap1\n      0xff\n      0xe0\n      dup3\n      add\n      calldataload\n      and\n      swap1\n      0x0100\n      dup2\n      add\n      calldataload\n      swap1\n      0x0120\n      add\n      calldataload\n      tag_130\n      jump\t// in\n        /* \"v2-periphery-master/v2-periphery-master/contracts/DEXV2Router01.sol\":2129:2836  function addLiquidity(... */\n    tag_19:\n      callvalue\n        /* \"--CODEGEN--\":5:14   */\n      dup1\n        /* \"--CODEGEN--\":2:4   */\n      iszero\n      tag_131\n      jumpi\n        /* \"--CODEGEN--\":27:28   */\n      0x00\n        /* \"--CODEGEN--\":24:25   */\n      dup1\n        /* \"--CODEGEN--\":17:29   */\n      revert\n        /* \"--CODEGEN--\":2:4   */\n    tag_131:\n        /* \"v2-periphery-master/v2-periphery-master/contracts/DEXV2Router01.sol\":2129:2836  function addLiquidity(... */\n      pop\n      tag_132\n      0x04\n      dup1\n      calldatasize\n      sub\n        /* \"--CODEGEN--\":15:18   */\n      0x0100\n        /* \"--CODEGEN--\":10:13   */\n      dup2\n        /* \"--CODEGEN--\":7:19   */\n      lt\n        /* \"--CODEGEN--\":4:6   */\n      iszero\n      tag_133\n      jumpi\n        /* \"--CODEGEN--\":32:33   */\n      0x00\n        /* \"--CODEGEN--\":29:30   */\n      dup1\n        /* \"--CODEGEN--\":22:34   */\n      revert\n        /* \"--CODEGEN--\":4:6   */\n    tag_133:\n      pop\n      sub(shl(0xa0, 0x01), 0x01)\n        /* \"v2-periphery-master/v2-periphery-master/contracts/DEXV2Router01.sol\":2129:2836  function addLiquidity(... */\n      dup2\n      calldataload\n      dup2\n      and\n      swap2\n      0x20\n      dup2\n      add\n      calldataload\n      dup3\n      and\n      swap2\n      0x40\n      dup3\n      add\n      calldataload\n      swap2\n      0x60\n      dup2\n      add\n      calldataload\n      swap2\n      0x80\n      dup3\n      add\n      calldataload\n      swap2\n      0xa0\n      dup2\n      add\n      calldataload\n      swap2\n      0xc0\n      dup3\n      add\n      calldataload\n      and\n      swap1\n      0xe0\n      add\n      calldataload\n      tag_134\n      jump\t// in\n    tag_132:\n      0x40\n      dup1\n      mload\n      swap4\n      dup5\n      mstore\n      0x20\n      dup5\n      add\n      swap3\n      swap1\n      swap3\n      mstore\n      dup3\n      dup3\n      add\n      mstore\n      mload\n      swap1\n      dup2\n      swap1\n      sub\n      0x60\n      add\n      swap1\n      return\n        /* \"v2-periphery-master/v2-periphery-master/contracts/DEXV2Router01.sol\":2841:3768  function addLiquidityETH(... */\n    tag_20:\n      tag_132\n      0x04\n      dup1\n      calldatasize\n      sub\n        /* \"--CODEGEN--\":15:18   */\n      0xc0\n        /* \"--CODEGEN--\":10:13   */\n      dup2\n        /* \"--CODEGEN--\":7:19   */\n      lt\n        /* \"--CODEGEN--\":4:6   */\n      iszero\n      tag_136\n      jumpi\n        /* \"--CODEGEN--\":32:33   */\n      0x00\n        /* \"--CODEGEN--\":29:30   */\n      dup1\n        /* \"--CODEGEN--\":22:34   */\n      revert\n        /* \"--CODEGEN--\":4:6   */\n    tag_136:\n      pop\n      sub(shl(0xa0, 0x01), 0x01)\n        /* \"v2-periphery-master/v2-periphery-master/contracts/DEXV2Router01.sol\":2841:3768  function addLiquidityETH(... */\n      dup2\n      calldataload\n      dup2\n      and\n      swap2\n      0x20\n      dup2\n      add\n      calldataload\n      swap2\n      0x40\n      dup3\n      add\n      calldataload\n      swap2\n      0x60\n      dup2\n      add\n      calldataload\n      swap2\n      0x80\n      dup3\n      add\n      calldataload\n      and\n      swap1\n      0xa0\n      add\n      calldataload\n      tag_137\n      jump\t// in\n        /* \"v2-periphery-master/v2-periphery-master/contracts/DEXV2Router01.sol\":10691:11445  function swapETHForExactTokens(uint amountOut, address[] calldata path, address to, uint deadline)... */\n    tag_21:\n      tag_37\n      0x04\n      dup1\n      calldatasize\n      sub\n        /* \"--CODEGEN--\":15:18   */\n      0x80\n        /* \"--CODEGEN--\":10:13   */\n      dup2\n        /* \"--CODEGEN--\":7:19   */\n      lt\n        /* \"--CODEGEN--\":4:6   */\n      iszero\n      tag_139\n      jumpi\n        /* \"--CODEGEN--\":32:33   */\n      0x00\n        /* \"--CODEGEN--\":29:30   */\n      dup1\n        /* \"--CODEGEN--\":22:34   */\n      revert\n        /* \"--CODEGEN--\":4:6   */\n    tag_139:\n        /* \"v2-periphery-master/v2-periphery-master/contracts/DEXV2Router01.sol\":10691:11445  function swapETHForExactTokens(uint amountOut, address[] calldata path, address to, uint deadline)... */\n      dup2\n      calldataload\n      swap2\n      swap1\n      dup2\n      add\n      swap1\n      0x40\n      dup2\n      add\n      0x20\n      dup3\n      add\n      calldataload\n      shl(0x20, 0x01)\n        /* \"--CODEGEN--\":11:39   */\n      dup2\n      gt\n        /* \"--CODEGEN--\":8:10   */\n      iszero\n      tag_140\n      jumpi\n        /* \"--CODEGEN--\":52:53   */\n      0x00\n        /* \"--CODEGEN--\":49:50   */\n      dup1\n        /* \"--CODEGEN--\":42:54   */\n      revert\n        /* \"--CODEGEN--\":8:10   */\n    tag_140:\n        /* \"v2-periphery-master/v2-periphery-master/contracts/DEXV2Router01.sol\":10691:11445  function swapETHForExactTokens(uint amountOut, address[] calldata path, address to, uint deadline)... */\n      dup3\n      add\n        /* \"--CODEGEN--\":41:50   */\n      dup4\n        /* \"--CODEGEN--\":34:38   */\n      0x20\n        /* \"--CODEGEN--\":18:32   */\n      dup3\n        /* \"--CODEGEN--\":14:39   */\n      add\n        /* \"--CODEGEN--\":11:51   */\n      gt\n        /* \"--CODEGEN--\":8:10   */\n      iszero\n      tag_141\n      jumpi\n        /* \"--CODEGEN--\":64:65   */\n      0x00\n        /* \"--CODEGEN--\":61:62   */\n      dup1\n        /* \"--CODEGEN--\":54:66   */\n      revert\n        /* \"--CODEGEN--\":8:10   */\n    tag_141:\n        /* \"v2-periphery-master/v2-periphery-master/contracts/DEXV2Router01.sol\":10691:11445  function swapETHForExactTokens(uint amountOut, address[] calldata path, address to, uint deadline)... */\n      dup1\n      calldataload\n      swap1\n      0x20\n      add\n      swap2\n        /* \"--CODEGEN--\":101:110   */\n      dup5\n        /* \"--CODEGEN--\":95:97   */\n      0x20\n        /* \"--CODEGEN--\":81:93   */\n      dup4\n        /* \"--CODEGEN--\":77:98   */\n      mul\n        /* \"--CODEGEN--\":67:75   */\n      dup5\n        /* \"--CODEGEN--\":63:99   */\n      add\n        /* \"--CODEGEN--\":60:111   */\n      gt\n      shl(0x20, 0x01)\n        /* \"--CODEGEN--\":25:37   */\n      dup4\n        /* \"--CODEGEN--\":22:51   */\n      gt\n        /* \"--CODEGEN--\":11:119   */\n      or\n        /* \"--CODEGEN--\":8:10   */\n      iszero\n      tag_142\n      jumpi\n        /* \"--CODEGEN--\":132:133   */\n      0x00\n        /* \"--CODEGEN--\":129:130   */\n      dup1\n        /* \"--CODEGEN--\":122:134   */\n      revert\n        /* \"--CODEGEN--\":8:10   */\n    tag_142:\n        /* \"v2-periphery-master/v2-periphery-master/contracts/DEXV2Router01.sol\":10691:11445  function swapETHForExactTokens(uint amountOut, address[] calldata path, address to, uint deadline)... */\n      swap2\n      swap4\n      pop\n      swap2\n      pop\n      sub(shl(0xa0, 0x01), 0x01)\n      dup2\n      calldataload\n      and\n      swap1\n      0x20\n      add\n      calldataload\n      tag_143\n      jump\t// in\n        /* \"v2-periphery-master/v2-periphery-master/contracts/DEXV2Router01.sol\":4630:5275  function removeLiquidityETH(... */\n    tag_31:\n        /* \"v2-periphery-master/v2-periphery-master/contracts/DEXV2Router01.sol\":4852:4868  uint amountToken */\n      0x00\n        /* \"v2-periphery-master/v2-periphery-master/contracts/DEXV2Router01.sol\":4870:4884  uint amountETH */\n      dup1\n        /* \"v2-periphery-master/v2-periphery-master/contracts/DEXV2Router01.sol\":4833:4841  deadline */\n      dup3\n        /* \"v2-periphery-master/v2-periphery-master/contracts/DEXV2Router01.sol\":457:472  block.timestamp */\n      timestamp\n        /* \"v2-periphery-master/v2-periphery-master/contracts/DEXV2Router01.sol\":445:453  deadline */\n      dup2\n        /* \"v2-periphery-master/v2-periphery-master/contracts/DEXV2Router01.sol\":445:472  deadline >= block.timestamp */\n      lt\n      iszero\n        /* \"v2-periphery-master/v2-periphery-master/contracts/DEXV2Router01.sol\":437:497  require(deadline >= block.timestamp, 'DEXV2Router: EXPIRED') */\n      tag_148\n      jumpi\n      0x40\n      dup1\n      mload\n      shl(0xe5, 0x461bcd)\n      dup2\n      mstore\n      0x20\n      0x04\n      dup3\n      add\n      mstore\n      0x14\n      0x24\n      dup3\n      add\n      mstore\n      0x00\n      dup1\n      mload\n      0x20\n      data_e8771a28dca17dc1df8d79bac70548e4ade379e3d726e3fef2a0cf06071509f4\n      dup4\n      codecopy\n      dup2\n      mload\n      swap2\n      mstore\n      0x44\n      dup3\n      add\n      mstore\n      swap1\n      mload\n      swap1\n      dup2\n      swap1\n      sub\n      0x64\n      add\n      swap1\n      revert\n    tag_148:\n        /* \"v2-periphery-master/v2-periphery-master/contracts/DEXV2Router01.sol\":4923:5111  removeLiquidity(... */\n      tag_150\n        /* \"v2-periphery-master/v2-periphery-master/contracts/DEXV2Router01.sol\":4952:4957  token */\n      dup10\n        /* \"v2-periphery-master/v2-periphery-master/contracts/DEXV2Router01.sol\":4971:4975  WETH */\n      immutable(\"0x1d3be50b2bb17407dd170f1d5da128d1def30c6b1598d6a629e79b4775265526\")\n        /* \"v2-periphery-master/v2-periphery-master/contracts/DEXV2Router01.sol\":4989:4998  liquidity */\n      dup11\n        /* \"v2-periphery-master/v2-periphery-master/contracts/DEXV2Router01.sol\":5012:5026  amountTokenMin */\n      dup11\n        /* \"v2-periphery-master/v2-periphery-master/contracts/DEXV2Router01.sol\":5040:5052  amountETHMin */\n      dup11\n        /* \"v2-periphery-master/v2-periphery-master/contracts/DEXV2Router01.sol\":5074:5078  this */\n      address\n        /* \"v2-periphery-master/v2-periphery-master/contracts/DEXV2Router01.sol\":5093:5101  deadline */\n      dup11\n        /* \"v2-periphery-master/v2-periphery-master/contracts/DEXV2Router01.sol\":4923:4938  removeLiquidity */\n      tag_113\n        /* \"v2-periphery-master/v2-periphery-master/contracts/DEXV2Router01.sol\":4923:5111  removeLiquidity(... */\n      jump\t// in\n    tag_150:\n        /* \"v2-periphery-master/v2-periphery-master/contracts/DEXV2Router01.sol\":4896:5111  (amountToken, amountETH) = removeLiquidity(... */\n      swap1\n      swap4\n      pop\n      swap2\n      pop\n        /* \"v2-periphery-master/v2-periphery-master/contracts/DEXV2Router01.sol\":5121:5172  TransferHelper.safeTransfer(token, to, amountToken) */\n      tag_151\n        /* \"v2-periphery-master/v2-periphery-master/contracts/DEXV2Router01.sol\":5149:5154  token */\n      dup10\n        /* \"v2-periphery-master/v2-periphery-master/contracts/DEXV2Router01.sol\":5156:5158  to */\n      dup7\n        /* \"v2-periphery-master/v2-periphery-master/contracts/DEXV2Router01.sol\":4896:5111  (amountToken, amountETH) = removeLiquidity(... */\n      dup6\n        /* \"v2-periphery-master/v2-periphery-master/contracts/DEXV2Router01.sol\":5121:5148  TransferHelper.safeTransfer */\n      tag_152\n        /* \"v2-periphery-master/v2-periphery-master/contracts/DEXV2Router01.sol\":5121:5172  TransferHelper.safeTransfer(token, to, amountToken) */\n      jump\t// in\n    tag_151:\n        /* \"v2-periphery-master/v2-periphery-master/contracts/DEXV2Router01.sol\":5188:5192  WETH */\n      immutable(\"0x1d3be50b2bb17407dd170f1d5da128d1def30c6b1598d6a629e79b4775265526\")\n      sub(shl(0xa0, 0x01), 0x01)\n        /* \"v2-periphery-master/v2-periphery-master/contracts/DEXV2Router01.sol\":5182:5202  IWETH(WETH).withdraw */\n      and\n      0x2e1a7d4d\n        /* \"v2-periphery-master/v2-periphery-master/contracts/DEXV2Router01.sol\":5203:5212  amountETH */\n      dup4\n        /* \"v2-periphery-master/v2-periphery-master/contracts/DEXV2Router01.sol\":5182:5213  IWETH(WETH).withdraw(amountETH) */\n      mload(0x40)\n      dup3\n      0xffffffff\n      and\n      0xe0\n      shl\n      dup2\n      mstore\n      0x04\n      add\n      dup1\n      dup3\n      dup2\n      mstore\n      0x20\n      add\n      swap2\n      pop\n      pop\n      0x00\n      mload(0x40)\n      dup1\n      dup4\n      sub\n      dup2\n      0x00\n      dup8\n      dup1\n      extcodesize\n      iszero\n        /* \"--CODEGEN--\":5:14   */\n      dup1\n        /* \"--CODEGEN--\":2:4   */\n      iszero\n      tag_153\n      jumpi\n        /* \"--CODEGEN--\":27:28   */\n      0x00\n        /* \"--CODEGEN--\":24:25   */\n      dup1\n        /* \"--CODEGEN--\":17:29   */\n      revert\n        /* \"--CODEGEN--\":2:4   */\n    tag_153:\n        /* \"v2-periphery-master/v2-periphery-master/contracts/DEXV2Router01.sol\":5182:5213  IWETH(WETH).withdraw(amountETH) */\n      pop\n      gas\n      call\n      iszero\n        /* \"--CODEGEN--\":8:17   */\n      dup1\n        /* \"--CODEGEN--\":5:7   */\n      iszero\n      tag_155\n      jumpi\n        /* \"--CODEGEN--\":45:61   */\n      returndatasize\n        /* \"--CODEGEN--\":42:43   */\n      0x00\n        /* \"--CODEGEN--\":39:40   */\n      dup1\n        /* \"--CODEGEN--\":24:62   */\n      returndatacopy\n        /* \"--CODEGEN--\":77:93   */\n      returndatasize\n        /* \"--CODEGEN--\":74:75   */\n      0x00\n        /* \"--CODEGEN--\":67:94   */\n      revert\n        /* \"--CODEGEN--\":5:7   */\n    tag_155:\n        /* \"v2-periphery-master/v2-periphery-master/contracts/DEXV2Router01.sol\":5182:5213  IWETH(WETH).withdraw(amountETH) */\n      pop\n      pop\n      pop\n      pop\n        /* \"v2-periphery-master/v2-periphery-master/contracts/DEXV2Router01.sol\":5223:5268  TransferHelper.safeTransferETH(to, amountETH) */\n      tag_156\n        /* \"v2-periphery-master/v2-periphery-master/contracts/DEXV2Router01.sol\":5254:5256  to */\n      dup6\n        /* \"v2-periphery-master/v2-periphery-master/contracts/DEXV2Router01.sol\":5258:5267  amountETH */\n      dup4\n        /* \"v2-periphery-master/v2-periphery-master/contracts/DEXV2Router01.sol\":5223:5253  TransferHelper.safeTransferETH */\n      tag_157\n        /* \"v2-periphery-master/v2-periphery-master/contracts/DEXV2Router01.sol\":5223:5268  TransferHelper.safeTransferETH(to, amountETH) */\n      jump\t// in\n    tag_156:\n        /* \"v2-periphery-master/v2-periphery-master/contracts/DEXV2Router01.sol\":4630:5275  function removeLiquidityETH(... */\n      pop\n      swap7\n      pop\n      swap7\n      swap5\n      pop\n      pop\n      pop\n      pop\n      pop\n      jump\t// out\n        /* \"v2-periphery-master/v2-periphery-master/contracts/DEXV2Router01.sol\":11631:11829  function getAmountOut(uint amountIn, uint reserveIn, uint reserveOut) public pure override returns (uint amountOut) {... */\n    tag_35:\n        /* \"v2-periphery-master/v2-periphery-master/contracts/DEXV2Router01.sol\":11731:11745  uint amountOut */\n      0x00\n        /* \"v2-periphery-master/v2-periphery-master/contracts/DEXV2Router01.sol\":11764:11822  DEXV2Library.getAmountOut(amountIn, reserveIn, reserveOut) */\n      tag_159\n        /* \"v2-periphery-master/v2-periphery-master/contracts/DEXV2Router01.sol\":11790:11798  amountIn */\n      dup5\n        /* \"v2-periphery-master/v2-periphery-master/contracts/DEXV2Router01.sol\":11800:11809  reserveIn */\n      dup5\n        /* \"v2-periphery-master/v2-periphery-master/contracts/DEXV2Router01.sol\":11811:11821  reserveOut */\n      dup5\n        /* \"v2-periphery-master/v2-periphery-master/contracts/DEXV2Router01.sol\":11764:11789  DEXV2Library.getAmountOut */\n      tag_160\n        /* \"v2-periphery-master/v2-periphery-master/contracts/DEXV2Router01.sol\":11764:11822  DEXV2Library.getAmountOut(amountIn, reserveIn, reserveOut) */\n      jump\t// in\n    tag_159:\n        /* \"v2-periphery-master/v2-periphery-master/contracts/DEXV2Router01.sol\":11757:11822  return DEXV2Library.getAmountOut(amountIn, reserveIn, reserveOut) */\n      swap5\n        /* \"v2-periphery-master/v2-periphery-master/contracts/DEXV2Router01.sol\":11631:11829  function getAmountOut(uint amountIn, uint reserveIn, uint reserveOut) public pure override returns (uint amountOut) {... */\n      swap4\n      pop\n      pop\n      pop\n      pop\n      jump\t// out\n        /* \"v2-periphery-master/v2-periphery-master/contracts/DEXV2Router01.sol\":9906:10686  function swapExactTokensForETH(uint amountIn, uint amountOutMin, address[] calldata path, address to, uint deadline)... */\n    tag_42:\n        /* \"v2-periphery-master/v2-periphery-master/contracts/DEXV2Router01.sol\":10099:10120  uint[] memory amounts */\n      0x60\n        /* \"v2-periphery-master/v2-periphery-master/contracts/DEXV2Router01.sol\":10072:10080  deadline */\n      dup2\n        /* \"v2-periphery-master/v2-periphery-master/contracts/DEXV2Router01.sol\":457:472  block.timestamp */\n      timestamp\n        /* \"v2-periphery-master/v2-periphery-master/contracts/DEXV2Router01.sol\":445:453  deadline */\n      dup2\n        /* \"v2-periphery-master/v2-periphery-master/contracts/DEXV2Router01.sol\":445:472  deadline >= block.timestamp */\n      lt\n      iszero\n        /* \"v2-periphery-master/v2-periphery-master/contracts/DEXV2Router01.sol\":437:497  require(deadline >= block.timestamp, 'DEXV2Router: EXPIRED') */\n      tag_162\n      jumpi\n      0x40\n      dup1\n      mload\n      shl(0xe5, 0x461bcd)\n      dup2\n      mstore\n      0x20\n      0x04\n      dup3\n      add\n      mstore\n      0x14\n      0x24\n      dup3\n      add\n      mstore\n      0x00\n      dup1\n      mload\n      0x20\n      data_e8771a28dca17dc1df8d79bac70548e4ade379e3d726e3fef2a0cf06071509f4\n      dup4\n      codecopy\n      dup2\n      mload\n      swap2\n      mstore\n      0x44\n      dup3\n      add\n      mstore\n      swap1\n      mload\n      swap1\n      dup2\n      swap1\n      sub\n      0x64\n      add\n      swap1\n      revert\n    tag_162:\n      sub(shl(0xa0, 0x01), 0x01)\n        /* \"v2-periphery-master/v2-periphery-master/contracts/DEXV2Router01.sol\":10169:10173  WETH */\n      immutable(\"0x1d3be50b2bb17407dd170f1d5da128d1def30c6b1598d6a629e79b4775265526\")\n        /* \"v2-periphery-master/v2-periphery-master/contracts/DEXV2Router01.sol\":10144:10173  path[path.length - 1] == WETH */\n      and\n        /* \"v2-periphery-master/v2-periphery-master/contracts/DEXV2Router01.sol\":10144:10148  path */\n      dup7\n      dup7\n      not(0x00)\n        /* \"v2-periphery-master/v2-periphery-master/contracts/DEXV2Router01.sol\":10149:10164  path.length - 1 */\n      dup2\n      add\n        /* \"v2-periphery-master/v2-periphery-master/contracts/DEXV2Router01.sol\":10144:10165  path[path.length - 1] */\n      dup2\n      dup2\n      lt\n      tag_164\n      jumpi\n      invalid\n    tag_164:\n      swap1\n      pop\n      0x20\n      mul\n      add\n      calldataload\n      sub(shl(0xa0, 0x01), 0x01)\n      and\n      sub(shl(0xa0, 0x01), 0x01)\n        /* \"v2-periphery-master/v2-periphery-master/contracts/DEXV2Router01.sol\":10144:10173  path[path.length - 1] == WETH */\n      and\n      eq\n        /* \"v2-periphery-master/v2-periphery-master/contracts/DEXV2Router01.sol\":10136:10203  require(path[path.length - 1] == WETH, 'DEXV2Router: INVALID_PATH') */\n      tag_165\n      jumpi\n      0x40\n      dup1\n      mload\n      shl(0xe5, 0x461bcd)\n      dup2\n      mstore\n      0x20\n      0x04\n      dup3\n      add\n      mstore\n      0x19\n      0x24\n      dup3\n      add\n      mstore\n      shl(0x3b, 0x0888ab0ac64a4deeae8cae47440929cac82989288bea082a89)\n      0x44\n      dup3\n      add\n      mstore\n      swap1\n      mload\n      swap1\n      dup2\n      swap1\n      sub\n      0x64\n      add\n      swap1\n      revert\n    tag_165:\n        /* \"v2-periphery-master/v2-periphery-master/contracts/DEXV2Router01.sol\":10223:10274  DEXV2Library.getAmountsOut(factory, amountIn, path) */\n      tag_166\n        /* \"v2-periphery-master/v2-periphery-master/contracts/DEXV2Router01.sol\":10250:10257  factory */\n      immutable(\"0x7f8b6b088b6d74c2852fc86c796dca07b44eed6fb3daf5e6b59f7c364db14528\")\n        /* \"v2-periphery-master/v2-periphery-master/contracts/DEXV2Router01.sol\":10259:10267  amountIn */\n      dup10\n        /* \"v2-periphery-master/v2-periphery-master/contracts/DEXV2Router01.sol\":10269:10273  path */\n      dup9\n      dup9\n        /* \"v2-periphery-master/v2-periphery-master/contracts/DEXV2Router01.sol\":10223:10274  DEXV2Library.getAmountsOut(factory, amountIn, path) */\n      dup1\n      dup1\n      0x20\n      mul\n      0x20\n      add\n      mload(0x40)\n      swap1\n      dup2\n      add\n      0x40\n      mstore\n      dup1\n      swap4\n      swap3\n      swap2\n      swap1\n      dup2\n      dup2\n      mstore\n      0x20\n      add\n      dup4\n      dup4\n      0x20\n      mul\n        /* \"--CODEGEN--\":30:33   */\n      dup1\n        /* \"--CODEGEN--\":22:28   */\n      dup3\n        /* \"--CODEGEN--\":14:20   */\n      dup5\n        /* \"--CODEGEN--\":1:34   */\n      calldatacopy\n        /* \"--CODEGEN--\":99:100   */\n      0x00\n        /* \"--CODEGEN--\":81:97   */\n      swap3\n      add\n        /* \"--CODEGEN--\":74:101   */\n      swap2\n      swap1\n      swap2\n      mstore\n      pop\n        /* \"v2-periphery-master/v2-periphery-master/contracts/DEXV2Router01.sol\":10223:10249  DEXV2Library.getAmountsOut */\n      tag_167\n      swap3\n      pop\n      pop\n      pop\n        /* \"v2-periphery-master/v2-periphery-master/contracts/DEXV2Router01.sol\":10223:10274  DEXV2Library.getAmountsOut(factory, amountIn, path) */\n      jump\t// in\n    tag_166:\n        /* \"v2-periphery-master/v2-periphery-master/contracts/DEXV2Router01.sol\":10213:10274  amounts = DEXV2Library.getAmountsOut(factory, amountIn, path) */\n      swap2\n      pop\n        /* \"v2-periphery-master/v2-periphery-master/contracts/DEXV2Router01.sol\":10323:10335  amountOutMin */\n      dup7\n        /* \"v2-periphery-master/v2-periphery-master/contracts/DEXV2Router01.sol\":10292:10299  amounts */\n      dup3\n        /* \"v2-periphery-master/v2-periphery-master/contracts/DEXV2Router01.sol\":10317:10318  1 */\n      0x01\n        /* \"v2-periphery-master/v2-periphery-master/contracts/DEXV2Router01.sol\":10300:10307  amounts */\n      dup5\n        /* \"v2-periphery-master/v2-periphery-master/contracts/DEXV2Router01.sol\":10300:10314  amounts.length */\n      mload\n        /* \"v2-periphery-master/v2-periphery-master/contracts/DEXV2Router01.sol\":10300:10318  amounts.length - 1 */\n      sub\n        /* \"v2-periphery-master/v2-periphery-master/contracts/DEXV2Router01.sol\":10292:10319  amounts[amounts.length - 1] */\n      dup2\n      mload\n      dup2\n      lt\n      tag_168\n      jumpi\n      invalid\n    tag_168:\n      0x20\n      mul\n      0x20\n      add\n      add\n      mload\n        /* \"v2-periphery-master/v2-periphery-master/contracts/DEXV2Router01.sol\":10292:10335  amounts[amounts.length - 1] >= amountOutMin */\n      lt\n      iszero\n        /* \"v2-periphery-master/v2-periphery-master/contracts/DEXV2Router01.sol\":10284:10379  require(amounts[amounts.length - 1] >= amountOutMin, 'DEXV2Router: INSUFFICIENT_OUTPUT_AMOUNT') */\n      tag_169\n      jumpi\n      mload(0x40)\n      shl(0xe5, 0x461bcd)\n      dup2\n      mstore\n      0x04\n      add\n      dup1\n      dup1\n      0x20\n      add\n      dup3\n      dup2\n      sub\n      dup3\n      mstore\n      0x27\n      dup2\n      mstore\n      0x20\n      add\n      dup1\n      data_5c1338f4c45f16a3049167ebd749a88064b60abf820d6a1f8181f4dd30bcc436\n      0x27\n      swap2\n      codecopy\n      0x40\n      add\n      swap2\n      pop\n      pop\n      mload(0x40)\n      dup1\n      swap2\n      sub\n      swap1\n      revert\n    tag_169:\n        /* \"v2-periphery-master/v2-periphery-master/contracts/DEXV2Router01.sol\":10389:10502  TransferHelper.safeTransferFrom(path[0], msg.sender, DEXV2Library.pairFor(factory, path[0], path[1]), amounts[0]) */\n      tag_170\n        /* \"v2-periphery-master/v2-periphery-master/contracts/DEXV2Router01.sol\":10421:10425  path */\n      dup7\n      dup7\n        /* \"v2-periphery-master/v2-periphery-master/contracts/DEXV2Router01.sol\":10426:10427  0 */\n      0x00\n        /* \"v2-periphery-master/v2-periphery-master/contracts/DEXV2Router01.sol\":10421:10428  path[0] */\n      dup2\n      dup2\n      lt\n      tag_171\n      jumpi\n      invalid\n    tag_171:\n      swap1\n      pop\n      0x20\n      mul\n      add\n      calldataload\n      sub(shl(0xa0, 0x01), 0x01)\n      and\n        /* \"v2-periphery-master/v2-periphery-master/contracts/DEXV2Router01.sol\":10430:10440  msg.sender */\n      caller\n        /* \"v2-periphery-master/v2-periphery-master/contracts/DEXV2Router01.sol\":10442:10489  DEXV2Library.pairFor(factory, path[0], path[1]) */\n      tag_172\n        /* \"v2-periphery-master/v2-periphery-master/contracts/DEXV2Router01.sol\":10463:10470  factory */\n      immutable(\"0x7f8b6b088b6d74c2852fc86c796dca07b44eed6fb3daf5e6b59f7c364db14528\")\n        /* \"v2-periphery-master/v2-periphery-master/contracts/DEXV2Router01.sol\":10472:10476  path */\n      dup11\n      dup11\n        /* \"v2-periphery-master/v2-periphery-master/contracts/DEXV2Router01.sol\":10477:10478  0 */\n      0x00\n        /* \"v2-periphery-master/v2-periphery-master/contracts/DEXV2Router01.sol\":10472:10479  path[0] */\n      dup2\n      dup2\n      lt\n      tag_173\n      jumpi\n      invalid\n    tag_173:\n      swap1\n      pop\n      0x20\n      mul\n      add\n      calldataload\n      sub(shl(0xa0, 0x01), 0x01)\n      and\n        /* \"v2-periphery-master/v2-periphery-master/contracts/DEXV2Router01.sol\":10481:10485  path */\n      dup12\n      dup12\n        /* \"v2-periphery-master/v2-periphery-master/contracts/DEXV2Router01.sol\":10486:10487  1 */\n      0x01\n        /* \"v2-periphery-master/v2-periphery-master/contracts/DEXV2Router01.sol\":10481:10488  path[1] */\n      dup2\n      dup2\n      lt\n      tag_174\n      jumpi\n      invalid\n    tag_174:\n      swap1\n      pop\n      0x20\n      mul\n      add\n      calldataload\n      sub(shl(0xa0, 0x01), 0x01)\n      and\n        /* \"v2-periphery-master/v2-periphery-master/contracts/DEXV2Router01.sol\":10442:10462  DEXV2Library.pairFor */\n      tag_175\n        /* \"v2-periphery-master/v2-periphery-master/contracts/DEXV2Router01.sol\":10442:10489  DEXV2Library.pairFor(factory, path[0], path[1]) */\n      jump\t// in\n    tag_172:\n        /* \"v2-periphery-master/v2-periphery-master/contracts/DEXV2Router01.sol\":10491:10498  amounts */\n      dup6\n        /* \"v2-periphery-master/v2-periphery-master/contracts/DEXV2Router01.sol\":10499:10500  0 */\n      0x00\n        /* \"v2-periphery-master/v2-periphery-master/contracts/DEXV2Router01.sol\":10491:10501  amounts[0] */\n      dup2\n      mload\n      dup2\n      lt\n      tag_176\n      jumpi\n      invalid\n    tag_176:\n      0x20\n      mul\n      0x20\n      add\n      add\n      mload\n        /* \"v2-periphery-master/v2-periphery-master/contracts/DEXV2Router01.sol\":10389:10420  TransferHelper.safeTransferFrom */\n      tag_177\n        /* \"v2-periphery-master/v2-periphery-master/contracts/DEXV2Router01.sol\":10389:10502  TransferHelper.safeTransferFrom(path[0], msg.sender, DEXV2Library.pairFor(factory, path[0], path[1]), amounts[0]) */\n      jump\t// in\n    tag_170:\n        /* \"v2-periphery-master/v2-periphery-master/contracts/DEXV2Router01.sol\":10512:10547  _swap(amounts, path, address(this)) */\n      tag_178\n        /* \"v2-periphery-master/v2-periphery-master/contracts/DEXV2Router01.sol\":10518:10525  amounts */\n      dup3\n        /* \"v2-periphery-master/v2-periphery-master/contracts/DEXV2Router01.sol\":10527:10531  path */\n      dup8\n      dup8\n        /* \"v2-periphery-master/v2-periphery-master/contracts/DEXV2Router01.sol\":10512:10547  _swap(amounts, path, address(this)) */\n      dup1\n      dup1\n      0x20\n      mul\n      0x20\n      add\n      mload(0x40)\n      swap1\n      dup2\n      add\n      0x40\n      mstore\n      dup1\n      swap4\n      swap3\n      swap2\n      swap1\n      dup2\n      dup2\n      mstore\n      0x20\n      add\n      dup4\n      dup4\n      0x20\n      mul\n        /* \"--CODEGEN--\":30:33   */\n      dup1\n        /* \"--CODEGEN--\":22:28   */\n      dup3\n        /* \"--CODEGEN--\":14:20   */\n      dup5\n        /* \"--CODEGEN--\":1:34   */\n      calldatacopy\n        /* \"--CODEGEN--\":99:100   */\n      0x00\n        /* \"--CODEGEN--\":81:97   */\n      swap3\n      add\n        /* \"--CODEGEN--\":74:101   */\n      swap2\n      swap1\n      swap2\n      mstore\n      pop\n        /* \"v2-periphery-master/v2-periphery-master/contracts/DEXV2Router01.sol\":10541:10545  this */\n      address\n      swap3\n      pop\n        /* \"v2-periphery-master/v2-periphery-master/contracts/DEXV2Router01.sol\":10512:10517  _swap */\n      tag_179\n      swap2\n      pop\n      pop\n        /* \"v2-periphery-master/v2-periphery-master/contracts/DEXV2Router01.sol\":10512:10547  _swap(amounts, path, address(this)) */\n      jump\t// in\n    tag_178:\n        /* \"v2-periphery-master/v2-periphery-master/contracts/DEXV2Router01.sol\":10563:10567  WETH */\n      immutable(\"0x1d3be50b2bb17407dd170f1d5da128d1def30c6b1598d6a629e79b4775265526\")\n      sub(shl(0xa0, 0x01), 0x01)\n        /* \"v2-periphery-master/v2-periphery-master/contracts/DEXV2Router01.sol\":10557:10577  IWETH(WETH).withdraw */\n      and\n      0x2e1a7d4d\n        /* \"v2-periphery-master/v2-periphery-master/contracts/DEXV2Router01.sol\":10578:10585  amounts */\n      dup4\n        /* \"v2-periphery-master/v2-periphery-master/contracts/DEXV2Router01.sol\":10603:10604  1 */\n      0x01\n        /* \"v2-periphery-master/v2-periphery-master/contracts/DEXV2Router01.sol\":10586:10593  amounts */\n      dup6\n        /* \"v2-periphery-master/v2-periphery-master/contracts/DEXV2Router01.sol\":10586:10600  amounts.length */\n      mload\n        /* \"v2-periphery-master/v2-periphery-master/contracts/DEXV2Router01.sol\":10586:10604  amounts.length - 1 */\n      sub\n        /* \"v2-periphery-master/v2-periphery-master/contracts/DEXV2Router01.sol\":10578:10605  amounts[amounts.length - 1] */\n      dup2\n      mload\n      dup2\n      lt\n      tag_180\n      jumpi\n      invalid\n    tag_180:\n      0x20\n      mul\n      0x20\n      add\n      add\n      mload\n        /* \"v2-periphery-master/v2-periphery-master/contracts/DEXV2Router01.sol\":10557:10606  IWETH(WETH).withdraw(amounts[amounts.length - 1]) */\n      mload(0x40)\n      dup3\n      0xffffffff\n      and\n      0xe0\n      shl\n      dup2\n      mstore\n      0x04\n      add\n      dup1\n      dup3\n      dup2\n      mstore\n      0x20\n      add\n      swap2\n      pop\n      pop\n      0x00\n      mload(0x40)\n      dup1\n      dup4\n      sub\n      dup2\n      0x00\n      dup8\n      dup1\n      extcodesize\n      iszero\n        /* \"--CODEGEN--\":5:14   */\n      dup1\n        /* \"--CODEGEN--\":2:4   */\n      iszero\n      tag_181\n      jumpi\n        /* \"--CODEGEN--\":27:28   */\n      0x00\n        /* \"--CODEGEN--\":24:25   */\n      dup1\n        /* \"--CODEGEN--\":17:29   */\n      revert\n        /* \"--CODEGEN--\":2:4   */\n    tag_181:\n        /* \"v2-periphery-master/v2-periphery-master/contracts/DEXV2Router01.sol\":10557:10606  IWETH(WETH).withdraw(amounts[amounts.length - 1]) */\n      pop\n      gas\n      call\n      iszero\n        /* \"--CODEGEN--\":8:17   */\n      dup1\n        /* \"--CODEGEN--\":5:7   */\n      iszero\n      tag_183\n      jumpi\n        /* \"--CODEGEN--\":45:61   */\n      returndatasize\n        /* \"--CODEGEN--\":42:43   */\n      0x00\n        /* \"--CODEGEN--\":39:40   */\n      dup1\n        /* \"--CODEGEN--\":24:62   */\n      returndatacopy\n        /* \"--CODEGEN--\":77:93   */\n      returndatasize\n        /* \"--CODEGEN--\":74:75   */\n      0x00\n        /* \"--CODEGEN--\":67:94   */\n      revert\n        /* \"--CODEGEN--\":5:7   */\n    tag_183:\n        /* \"v2-periphery-master/v2-periphery-master/contracts/DEXV2Router01.sol\":10557:10606  IWETH(WETH).withdraw(amounts[amounts.length - 1]) */\n      pop\n      pop\n      pop\n      pop\n        /* \"v2-periphery-master/v2-periphery-master/contracts/DEXV2Router01.sol\":10616:10679  TransferHelper.safeTransferETH(to, amounts[amounts.length - 1]) */\n      tag_184\n        /* \"v2-periphery-master/v2-periphery-master/contracts/DEXV2Router01.sol\":10647:10649  to */\n      dup5\n        /* \"v2-periphery-master/v2-periphery-master/contracts/DEXV2Router01.sol\":10651:10658  amounts */\n      dup4\n        /* \"v2-periphery-master/v2-periphery-master/contracts/DEXV2Router01.sol\":10676:10677  1 */\n      0x01\n        /* \"v2-periphery-master/v2-periphery-master/contracts/DEXV2Router01.sol\":10659:10666  amounts */\n      dup6\n        /* \"v2-periphery-master/v2-periphery-master/contracts/DEXV2Router01.sol\":10659:10673  amounts.length */\n      mload\n        /* \"v2-periphery-master/v2-periphery-master/contracts/DEXV2Router01.sol\":10659:10677  amounts.length - 1 */\n      sub\n        /* \"v2-periphery-master/v2-periphery-master/contracts/DEXV2Router01.sol\":10651:10678  amounts[amounts.length - 1] */\n      dup2\n      mload\n      dup2\n      lt\n      tag_185\n      jumpi\n      invalid\n    tag_185:\n      0x20\n      mul\n      0x20\n      add\n      add\n      mload\n        /* \"v2-periphery-master/v2-periphery-master/contracts/DEXV2Router01.sol\":10616:10646  TransferHelper.safeTransferETH */\n      tag_157\n        /* \"v2-periphery-master/v2-periphery-master/contracts/DEXV2Router01.sol\":10616:10679  TransferHelper.safeTransferETH(to, amounts[amounts.length - 1]) */\n      jump\t// in\n    tag_184:\n        /* \"v2-periphery-master/v2-periphery-master/contracts/DEXV2Router01.sol\":9906:10686  function swapExactTokensForETH(uint amountIn, uint amountOutMin, address[] calldata path, address to, uint deadline)... */\n      pop\n      swap7\n      swap6\n      pop\n      pop\n      pop\n      pop\n      pop\n      pop\n      jump\t// out\n        /* \"v2-periphery-master/v2-periphery-master/contracts/DEXV2Router01.sol\":12234:12423  function getAmountsIn(uint amountOut, address[] memory path) public view override returns (uint[] memory amounts) {... */\n    tag_52:\n        /* \"v2-periphery-master/v2-periphery-master/contracts/DEXV2Router01.sol\":12325:12346  uint[] memory amounts */\n      0x60\n        /* \"v2-periphery-master/v2-periphery-master/contracts/DEXV2Router01.sol\":12365:12416  DEXV2Library.getAmountsIn(factory, amountOut, path) */\n      tag_187\n        /* \"v2-periphery-master/v2-periphery-master/contracts/DEXV2Router01.sol\":12391:12398  factory */\n      immutable(\"0x7f8b6b088b6d74c2852fc86c796dca07b44eed6fb3daf5e6b59f7c364db14528\")\n        /* \"v2-periphery-master/v2-periphery-master/contracts/DEXV2Router01.sol\":12400:12409  amountOut */\n      dup5\n        /* \"v2-periphery-master/v2-periphery-master/contracts/DEXV2Router01.sol\":12411:12415  path */\n      dup5\n        /* \"v2-periphery-master/v2-periphery-master/contracts/DEXV2Router01.sol\":12365:12390  DEXV2Library.getAmountsIn */\n      tag_188\n        /* \"v2-periphery-master/v2-periphery-master/contracts/DEXV2Router01.sol\":12365:12416  DEXV2Library.getAmountsIn(factory, amountOut, path) */\n      jump\t// in\n    tag_187:\n        /* \"v2-periphery-master/v2-periphery-master/contracts/DEXV2Router01.sol\":12358:12416  return DEXV2Library.getAmountsIn(factory, amountOut, path) */\n      swap1\n      pop\n        /* \"v2-periphery-master/v2-periphery-master/contracts/DEXV2Router01.sol\":12234:12423  function getAmountsIn(uint amountOut, address[] memory path) public view override returns (uint[] memory amounts) {... */\n    tag_186:\n      swap3\n      swap2\n      pop\n      pop\n      jump\t// out\n        /* \"v2-periphery-master/v2-periphery-master/contracts/DEXV2Router01.sol\":5280:5927  function removeLiquidityWithPermit(... */\n    tag_59:\n        /* \"v2-periphery-master/v2-periphery-master/contracts/DEXV2Router01.sol\":5569:5581  uint amountA */\n      0x00\n        /* \"v2-periphery-master/v2-periphery-master/contracts/DEXV2Router01.sol\":5583:5595  uint amountB */\n      dup1\n        /* \"v2-periphery-master/v2-periphery-master/contracts/DEXV2Router01.sol\":5607:5619  address pair */\n      0x00\n        /* \"v2-periphery-master/v2-periphery-master/contracts/DEXV2Router01.sol\":5622:5667  DEXV2Library.pairFor(factory, tokenA, tokenB) */\n      tag_190\n        /* \"v2-periphery-master/v2-periphery-master/contracts/DEXV2Router01.sol\":5643:5650  factory */\n      immutable(\"0x7f8b6b088b6d74c2852fc86c796dca07b44eed6fb3daf5e6b59f7c364db14528\")\n        /* \"v2-periphery-master/v2-periphery-master/contracts/DEXV2Router01.sol\":5652:5658  tokenA */\n      dup16\n        /* \"v2-periphery-master/v2-periphery-master/contracts/DEXV2Router01.sol\":5660:5666  tokenB */\n      dup16\n        /* \"v2-periphery-master/v2-periphery-master/contracts/DEXV2Router01.sol\":5622:5642  DEXV2Library.pairFor */\n      tag_175\n        /* \"v2-periphery-master/v2-periphery-master/contracts/DEXV2Router01.sol\":5622:5667  DEXV2Library.pairFor(factory, tokenA, tokenB) */\n      jump\t// in\n    tag_190:\n        /* \"v2-periphery-master/v2-periphery-master/contracts/DEXV2Router01.sol\":5607:5667  address pair = DEXV2Library.pairFor(factory, tokenA, tokenB) */\n      swap1\n      pop\n        /* \"v2-periphery-master/v2-periphery-master/contracts/DEXV2Router01.sol\":5677:5687  uint value */\n      0x00\n        /* \"v2-periphery-master/v2-periphery-master/contracts/DEXV2Router01.sol\":5690:5700  approveMax */\n      dup8\n        /* \"v2-periphery-master/v2-periphery-master/contracts/DEXV2Router01.sol\":5690:5723  approveMax ? uint(-1) : liquidity */\n      tag_191\n      jumpi\n        /* \"v2-periphery-master/v2-periphery-master/contracts/DEXV2Router01.sol\":5714:5723  liquidity */\n      dup13\n        /* \"v2-periphery-master/v2-periphery-master/contracts/DEXV2Router01.sol\":5690:5723  approveMax ? uint(-1) : liquidity */\n      jump(tag_192)\n    tag_191:\n      not(0x00)\n    tag_192:\n        /* \"v2-periphery-master/v2-periphery-master/contracts/DEXV2Router01.sol\":5733:5809  IDEXV2Pair(pair).permit(msg.sender, address(this), value, deadline, v, r, s) */\n      0x40\n      dup1\n      mload\n      shl(0xe0, 0xd505accf)\n      dup2\n      mstore\n        /* \"v2-periphery-master/v2-periphery-master/contracts/DEXV2Router01.sol\":5757:5767  msg.sender */\n      caller\n        /* \"v2-periphery-master/v2-periphery-master/contracts/DEXV2Router01.sol\":5733:5809  IDEXV2Pair(pair).permit(msg.sender, address(this), value, deadline, v, r, s) */\n      0x04\n      dup3\n      add\n      mstore\n        /* \"v2-periphery-master/v2-periphery-master/contracts/DEXV2Router01.sol\":5777:5781  this */\n      address\n        /* \"v2-periphery-master/v2-periphery-master/contracts/DEXV2Router01.sol\":5733:5809  IDEXV2Pair(pair).permit(msg.sender, address(this), value, deadline, v, r, s) */\n      0x24\n      dup3\n      add\n      mstore\n      0x44\n      dup2\n      add\n      dup4\n      swap1\n      mstore\n      0x64\n      dup2\n      add\n      dup13\n      swap1\n      mstore\n      0xff\n      dup11\n      and\n      0x84\n      dup3\n      add\n      mstore\n      0xa4\n      dup2\n      add\n      dup10\n      swap1\n      mstore\n      0xc4\n      dup2\n      add\n      dup9\n      swap1\n      mstore\n      swap1\n      mload\n        /* \"v2-periphery-master/v2-periphery-master/contracts/DEXV2Router01.sol\":5677:5723  uint value = approveMax ? uint(-1) : liquidity */\n      swap2\n      swap3\n      pop\n      sub(shl(0xa0, 0x01), 0x01)\n        /* \"v2-periphery-master/v2-periphery-master/contracts/DEXV2Router01.sol\":5733:5756  IDEXV2Pair(pair).permit */\n      dup5\n      and\n      swap2\n      0xd505accf\n      swap2\n        /* \"v2-periphery-master/v2-periphery-master/contracts/DEXV2Router01.sol\":5733:5809  IDEXV2Pair(pair).permit(msg.sender, address(this), value, deadline, v, r, s) */\n      0xe4\n      dup1\n      dup3\n      add\n      swap3\n      0x00\n      swap3\n      swap1\n      swap2\n      swap1\n      dup3\n      swap1\n      sub\n      add\n      dup2\n      dup4\n        /* \"v2-periphery-master/v2-periphery-master/contracts/DEXV2Router01.sol\":5733:5756  IDEXV2Pair(pair).permit */\n      dup8\n        /* \"v2-periphery-master/v2-periphery-master/contracts/DEXV2Router01.sol\":5733:5809  IDEXV2Pair(pair).permit(msg.sender, address(this), value, deadline, v, r, s) */\n      dup1\n      extcodesize\n      iszero\n        /* \"--CODEGEN--\":2:4   */\n      dup1\n      iszero\n      tag_193\n      jumpi\n        /* \"--CODEGEN--\":27:28   */\n      0x00\n        /* \"--CODEGEN--\":24:25   */\n      dup1\n        /* \"--CODEGEN--\":17:29   */\n      revert\n        /* \"--CODEGEN--\":2:4   */\n    tag_193:\n        /* \"v2-periphery-master/v2-periphery-master/contracts/DEXV2Router01.sol\":5733:5809  IDEXV2Pair(pair).permit(msg.sender, address(this), value, deadline, v, r, s) */\n      pop\n      gas\n      call\n      iszero\n        /* \"--CODEGEN--\":8:17   */\n      dup1\n        /* \"--CODEGEN--\":5:7   */\n      iszero\n      tag_195\n      jumpi\n        /* \"--CODEGEN--\":45:61   */\n      returndatasize\n        /* \"--CODEGEN--\":42:43   */\n      0x00\n        /* \"--CODEGEN--\":39:40   */\n      dup1\n        /* \"--CODEGEN--\":24:62   */\n      returndatacopy\n        /* \"--CODEGEN--\":77:93   */\n      returndatasize\n        /* \"--CODEGEN--\":74:75   */\n      0x00\n        /* \"--CODEGEN--\":67:94   */\n      revert\n        /* \"--CODEGEN--\":5:7   */\n    tag_195:\n        /* \"v2-periphery-master/v2-periphery-master/contracts/DEXV2Router01.sol\":5733:5809  IDEXV2Pair(pair).permit(msg.sender, address(this), value, deadline, v, r, s) */\n      pop\n      pop\n      pop\n      pop\n        /* \"v2-periphery-master/v2-periphery-master/contracts/DEXV2Router01.sol\":5840:5920  removeLiquidity(tokenA, tokenB, liquidity, amountAMin, amountBMin, to, deadline) */\n      tag_196\n        /* \"v2-periphery-master/v2-periphery-master/contracts/DEXV2Router01.sol\":5856:5862  tokenA */\n      dup16\n        /* \"v2-periphery-master/v2-periphery-master/contracts/DEXV2Router01.sol\":5864:5870  tokenB */\n      dup16\n        /* \"v2-periphery-master/v2-periphery-master/contracts/DEXV2Router01.sol\":5872:5881  liquidity */\n      dup16\n        /* \"v2-periphery-master/v2-periphery-master/contracts/DEXV2Router01.sol\":5883:5893  amountAMin */\n      dup16\n        /* \"v2-periphery-master/v2-periphery-master/contracts/DEXV2Router01.sol\":5895:5905  amountBMin */\n      dup16\n        /* \"v2-periphery-master/v2-periphery-master/contracts/DEXV2Router01.sol\":5907:5909  to */\n      dup16\n        /* \"v2-periphery-master/v2-periphery-master/contracts/DEXV2Router01.sol\":5911:5919  deadline */\n      dup16\n        /* \"v2-periphery-master/v2-periphery-master/contracts/DEXV2Router01.sol\":5840:5855  removeLiquidity */\n      tag_113\n        /* \"v2-periphery-master/v2-periphery-master/contracts/DEXV2Router01.sol\":5840:5920  removeLiquidity(tokenA, tokenB, liquidity, amountAMin, amountBMin, to, deadline) */\n      jump\t// in\n    tag_196:\n        /* \"v2-periphery-master/v2-periphery-master/contracts/DEXV2Router01.sol\":5819:5920  (amountA, amountB) = removeLiquidity(tokenA, tokenB, liquidity, amountAMin, amountBMin, to, deadline) */\n      dup1\n      swap5\n      pop\n      dup2\n      swap6\n      pop\n      pop\n      pop\n        /* \"v2-periphery-master/v2-periphery-master/contracts/DEXV2Router01.sol\":5280:5927  function removeLiquidityWithPermit(... */\n      pop\n      pop\n      swap12\n      pop\n      swap12\n      swap10\n      pop\n      pop\n      pop\n      pop\n      pop\n      pop\n      pop\n      pop\n      pop\n      pop\n      jump\t// out\n        /* \"v2-periphery-master/v2-periphery-master/contracts/DEXV2Router01.sol\":7353:7926  function swapExactTokensForTokens(... */\n    tag_66:\n        /* \"v2-periphery-master/v2-periphery-master/contracts/DEXV2Router01.sol\":7563:7584  uint[] memory amounts */\n      0x60\n        /* \"v2-periphery-master/v2-periphery-master/contracts/DEXV2Router01.sol\":7544:7552  deadline */\n      dup2\n        /* \"v2-periphery-master/v2-periphery-master/contracts/DEXV2Router01.sol\":457:472  block.timestamp */\n      timestamp\n        /* \"v2-periphery-master/v2-periphery-master/contracts/DEXV2Router01.sol\":445:453  deadline */\n      dup2\n        /* \"v2-periphery-master/v2-periphery-master/contracts/DEXV2Router01.sol\":445:472  deadline >= block.timestamp */\n      lt\n      iszero\n        /* \"v2-periphery-master/v2-periphery-master/contracts/DEXV2Router01.sol\":437:497  require(deadline >= block.timestamp, 'DEXV2Router: EXPIRED') */\n      tag_198\n      jumpi\n      0x40\n      dup1\n      mload\n      shl(0xe5, 0x461bcd)\n      dup2\n      mstore\n      0x20\n      0x04\n      dup3\n      add\n      mstore\n      0x14\n      0x24\n      dup3\n      add\n      mstore\n      0x00\n      dup1\n      mload\n      0x20\n      data_e8771a28dca17dc1df8d79bac70548e4ade379e3d726e3fef2a0cf06071509f4\n      dup4\n      codecopy\n      dup2\n      mload\n      swap2\n      mstore\n      0x44\n      dup3\n      add\n      mstore\n      swap1\n      mload\n      swap1\n      dup2\n      swap1\n      sub\n      0x64\n      add\n      swap1\n      revert\n    tag_198:\n        /* \"v2-periphery-master/v2-periphery-master/contracts/DEXV2Router01.sol\":7606:7657  DEXV2Library.getAmountsOut(factory, amountIn, path) */\n      tag_200\n        /* \"v2-periphery-master/v2-periphery-master/contracts/DEXV2Router01.sol\":7633:7640  factory */\n      immutable(\"0x7f8b6b088b6d74c2852fc86c796dca07b44eed6fb3daf5e6b59f7c364db14528\")\n        /* \"v2-periphery-master/v2-periphery-master/contracts/DEXV2Router01.sol\":7642:7650  amountIn */\n      dup10\n        /* \"v2-periphery-master/v2-periphery-master/contracts/DEXV2Router01.sol\":7652:7656  path */\n      dup9\n      dup9\n        /* \"v2-periphery-master/v2-periphery-master/contracts/DEXV2Router01.sol\":7606:7657  DEXV2Library.getAmountsOut(factory, amountIn, path) */\n      dup1\n      dup1\n      0x20\n      mul\n      0x20\n      add\n      mload(0x40)\n      swap1\n      dup2\n      add\n      0x40\n      mstore\n      dup1\n      swap4\n      swap3\n      swap2\n      swap1\n      dup2\n      dup2\n      mstore\n      0x20\n      add\n      dup4\n      dup4\n      0x20\n      mul\n        /* \"--CODEGEN--\":30:33   */\n      dup1\n        /* \"--CODEGEN--\":22:28   */\n      dup3\n        /* \"--CODEGEN--\":14:20   */\n      dup5\n        /* \"--CODEGEN--\":1:34   */\n      calldatacopy\n        /* \"--CODEGEN--\":99:100   */\n      0x00\n        /* \"--CODEGEN--\":81:97   */\n      swap3\n      add\n        /* \"--CODEGEN--\":74:101   */\n      swap2\n      swap1\n      swap2\n      mstore\n      pop\n        /* \"v2-periphery-master/v2-periphery-master/contracts/DEXV2Router01.sol\":7606:7632  DEXV2Library.getAmountsOut */\n      tag_167\n      swap3\n      pop\n      pop\n      pop\n        /* \"v2-periphery-master/v2-periphery-master/contracts/DEXV2Router01.sol\":7606:7657  DEXV2Library.getAmountsOut(factory, amountIn, path) */\n      jump\t// in\n    tag_200:\n        /* \"v2-periphery-master/v2-periphery-master/contracts/DEXV2Router01.sol\":7596:7657  amounts = DEXV2Library.getAmountsOut(factory, amountIn, path) */\n      swap2\n      pop\n        /* \"v2-periphery-master/v2-periphery-master/contracts/DEXV2Router01.sol\":7706:7718  amountOutMin */\n      dup7\n        /* \"v2-periphery-master/v2-periphery-master/contracts/DEXV2Router01.sol\":7675:7682  amounts */\n      dup3\n        /* \"v2-periphery-master/v2-periphery-master/contracts/DEXV2Router01.sol\":7700:7701  1 */\n      0x01\n        /* \"v2-periphery-master/v2-periphery-master/contracts/DEXV2Router01.sol\":7683:7690  amounts */\n      dup5\n        /* \"v2-periphery-master/v2-periphery-master/contracts/DEXV2Router01.sol\":7683:7697  amounts.length */\n      mload\n        /* \"v2-periphery-master/v2-periphery-master/contracts/DEXV2Router01.sol\":7683:7701  amounts.length - 1 */\n      sub\n        /* \"v2-periphery-master/v2-periphery-master/contracts/DEXV2Router01.sol\":7675:7702  amounts[amounts.length - 1] */\n      dup2\n      mload\n      dup2\n      lt\n      tag_201\n      jumpi\n      invalid\n    tag_201:\n      0x20\n      mul\n      0x20\n      add\n      add\n      mload\n        /* \"v2-periphery-master/v2-periphery-master/contracts/DEXV2Router01.sol\":7675:7718  amounts[amounts.length - 1] >= amountOutMin */\n      lt\n      iszero\n        /* \"v2-periphery-master/v2-periphery-master/contracts/DEXV2Router01.sol\":7667:7762  require(amounts[amounts.length - 1] >= amountOutMin, 'DEXV2Router: INSUFFICIENT_OUTPUT_AMOUNT') */\n      tag_202\n      jumpi\n      mload(0x40)\n      shl(0xe5, 0x461bcd)\n      dup2\n      mstore\n      0x04\n      add\n      dup1\n      dup1\n      0x20\n      add\n      dup3\n      dup2\n      sub\n      dup3\n      mstore\n      0x27\n      dup2\n      mstore\n      0x20\n      add\n      dup1\n      data_5c1338f4c45f16a3049167ebd749a88064b60abf820d6a1f8181f4dd30bcc436\n      0x27\n      swap2\n      codecopy\n      0x40\n      add\n      swap2\n      pop\n      pop\n      mload(0x40)\n      dup1\n      swap2\n      sub\n      swap1\n      revert\n    tag_202:\n        /* \"v2-periphery-master/v2-periphery-master/contracts/DEXV2Router01.sol\":7772:7885  TransferHelper.safeTransferFrom(path[0], msg.sender, DEXV2Library.pairFor(factory, path[0], path[1]), amounts[0]) */\n      tag_203\n        /* \"v2-periphery-master/v2-periphery-master/contracts/DEXV2Router01.sol\":7804:7808  path */\n      dup7\n      dup7\n        /* \"v2-periphery-master/v2-periphery-master/contracts/DEXV2Router01.sol\":7809:7810  0 */\n      0x00\n        /* \"v2-periphery-master/v2-periphery-master/contracts/DEXV2Router01.sol\":7804:7811  path[0] */\n      dup2\n      dup2\n      lt\n      tag_171\n      jumpi\n      invalid\n        /* \"v2-periphery-master/v2-periphery-master/contracts/DEXV2Router01.sol\":7772:7885  TransferHelper.safeTransferFrom(path[0], msg.sender, DEXV2Library.pairFor(factory, path[0], path[1]), amounts[0]) */\n    tag_203:\n        /* \"v2-periphery-master/v2-periphery-master/contracts/DEXV2Router01.sol\":7895:7919  _swap(amounts, path, to) */\n      tag_184\n        /* \"v2-periphery-master/v2-periphery-master/contracts/DEXV2Router01.sol\":7901:7908  amounts */\n      dup3\n        /* \"v2-periphery-master/v2-periphery-master/contracts/DEXV2Router01.sol\":7910:7914  path */\n      dup8\n      dup8\n        /* \"v2-periphery-master/v2-periphery-master/contracts/DEXV2Router01.sol\":7895:7919  _swap(amounts, path, to) */\n      dup1\n      dup1\n      0x20\n      mul\n      0x20\n      add\n      mload(0x40)\n      swap1\n      dup2\n      add\n      0x40\n      mstore\n      dup1\n      swap4\n      swap3\n      swap2\n      swap1\n      dup2\n      dup2\n      mstore\n      0x20\n      add\n      dup4\n      dup4\n      0x20\n      mul\n        /* \"--CODEGEN--\":30:33   */\n      dup1\n        /* \"--CODEGEN--\":22:28   */\n      dup3\n        /* \"--CODEGEN--\":14:20   */\n      dup5\n        /* \"--CODEGEN--\":1:34   */\n      calldatacopy\n        /* \"--CODEGEN--\":99:100   */\n      0x00\n        /* \"--CODEGEN--\":81:97   */\n      swap3\n      add\n        /* \"--CODEGEN--\":74:101   */\n      swap2\n      swap1\n      swap2\n      mstore\n      pop\n        /* \"v2-periphery-master/v2-periphery-master/contracts/DEXV2Router01.sol\":7916:7918  to */\n      dup10\n      swap3\n      pop\n        /* \"v2-periphery-master/v2-periphery-master/contracts/DEXV2Router01.sol\":7895:7900  _swap */\n      tag_179\n      swap2\n      pop\n      pop\n        /* \"v2-periphery-master/v2-periphery-master/contracts/DEXV2Router01.sol\":7895:7919  _swap(amounts, path, to) */\n      jump\t// in\n        /* \"v2-periphery-master/v2-periphery-master/contracts/DEXV2Router01.sol\":9143:9901  function swapTokensForExactETH(uint amountOut, uint amountInMax, address[] calldata path, address to, uint deadline)... */\n    tag_76:\n        /* \"v2-periphery-master/v2-periphery-master/contracts/DEXV2Router01.sol\":9336:9357  uint[] memory amounts */\n      0x60\n        /* \"v2-periphery-master/v2-periphery-master/contracts/DEXV2Router01.sol\":9309:9317  deadline */\n      dup2\n        /* \"v2-periphery-master/v2-periphery-master/contracts/DEXV2Router01.sol\":457:472  block.timestamp */\n      timestamp\n        /* \"v2-periphery-master/v2-periphery-master/contracts/DEXV2Router01.sol\":445:453  deadline */\n      dup2\n        /* \"v2-periphery-master/v2-periphery-master/contracts/DEXV2Router01.sol\":445:472  deadline >= block.timestamp */\n      lt\n      iszero\n        /* \"v2-periphery-master/v2-periphery-master/contracts/DEXV2Router01.sol\":437:497  require(deadline >= block.timestamp, 'DEXV2Router: EXPIRED') */\n      tag_211\n      jumpi\n      0x40\n      dup1\n      mload\n      shl(0xe5, 0x461bcd)\n      dup2\n      mstore\n      0x20\n      0x04\n      dup3\n      add\n      mstore\n      0x14\n      0x24\n      dup3\n      add\n      mstore\n      0x00\n      dup1\n      mload\n      0x20\n      data_e8771a28dca17dc1df8d79bac70548e4ade379e3d726e3fef2a0cf06071509f4\n      dup4\n      codecopy\n      dup2\n      mload\n      swap2\n      mstore\n      0x44\n      dup3\n      add\n      mstore\n      swap1\n      mload\n      swap1\n      dup2\n      swap1\n      sub\n      0x64\n      add\n      swap1\n      revert\n    tag_211:\n      sub(shl(0xa0, 0x01), 0x01)\n        /* \"v2-periphery-master/v2-periphery-master/contracts/DEXV2Router01.sol\":9406:9410  WETH */\n      immutable(\"0x1d3be50b2bb17407dd170f1d5da128d1def30c6b1598d6a629e79b4775265526\")\n        /* \"v2-periphery-master/v2-periphery-master/contracts/DEXV2Router01.sol\":9381:9410  path[path.length - 1] == WETH */\n      and\n        /* \"v2-periphery-master/v2-periphery-master/contracts/DEXV2Router01.sol\":9381:9385  path */\n      dup7\n      dup7\n      not(0x00)\n        /* \"v2-periphery-master/v2-periphery-master/contracts/DEXV2Router01.sol\":9386:9401  path.length - 1 */\n      dup2\n      add\n        /* \"v2-periphery-master/v2-periphery-master/contracts/DEXV2Router01.sol\":9381:9402  path[path.length - 1] */\n      dup2\n      dup2\n      lt\n      tag_213\n      jumpi\n      invalid\n    tag_213:\n      swap1\n      pop\n      0x20\n      mul\n      add\n      calldataload\n      sub(shl(0xa0, 0x01), 0x01)\n      and\n      sub(shl(0xa0, 0x01), 0x01)\n        /* \"v2-periphery-master/v2-periphery-master/contracts/DEXV2Router01.sol\":9381:9410  path[path.length - 1] == WETH */\n      and\n      eq\n        /* \"v2-periphery-master/v2-periphery-master/contracts/DEXV2Router01.sol\":9373:9440  require(path[path.length - 1] == WETH, 'DEXV2Router: INVALID_PATH') */\n      tag_214\n      jumpi\n      0x40\n      dup1\n      mload\n      shl(0xe5, 0x461bcd)\n      dup2\n      mstore\n      0x20\n      0x04\n      dup3\n      add\n      mstore\n      0x19\n      0x24\n      dup3\n      add\n      mstore\n      shl(0x3b, 0x0888ab0ac64a4deeae8cae47440929cac82989288bea082a89)\n      0x44\n      dup3\n      add\n      mstore\n      swap1\n      mload\n      swap1\n      dup2\n      swap1\n      sub\n      0x64\n      add\n      swap1\n      revert\n    tag_214:\n        /* \"v2-periphery-master/v2-periphery-master/contracts/DEXV2Router01.sol\":9460:9511  DEXV2Library.getAmountsIn(factory, amountOut, path) */\n      tag_215\n        /* \"v2-periphery-master/v2-periphery-master/contracts/DEXV2Router01.sol\":9486:9493  factory */\n      immutable(\"0x7f8b6b088b6d74c2852fc86c796dca07b44eed6fb3daf5e6b59f7c364db14528\")\n        /* \"v2-periphery-master/v2-periphery-master/contracts/DEXV2Router01.sol\":9495:9504  amountOut */\n      dup10\n        /* \"v2-periphery-master/v2-periphery-master/contracts/DEXV2Router01.sol\":9506:9510  path */\n      dup9\n      dup9\n        /* \"v2-periphery-master/v2-periphery-master/contracts/DEXV2Router01.sol\":9460:9511  DEXV2Library.getAmountsIn(factory, amountOut, path) */\n      dup1\n      dup1\n      0x20\n      mul\n      0x20\n      add\n      mload(0x40)\n      swap1\n      dup2\n      add\n      0x40\n      mstore\n      dup1\n      swap4\n      swap3\n      swap2\n      swap1\n      dup2\n      dup2\n      mstore\n      0x20\n      add\n      dup4\n      dup4\n      0x20\n      mul\n        /* \"--CODEGEN--\":30:33   */\n      dup1\n        /* \"--CODEGEN--\":22:28   */\n      dup3\n        /* \"--CODEGEN--\":14:20   */\n      dup5\n        /* \"--CODEGEN--\":1:34   */\n      calldatacopy\n        /* \"--CODEGEN--\":99:100   */\n      0x00\n        /* \"--CODEGEN--\":81:97   */\n      swap3\n      add\n        /* \"--CODEGEN--\":74:101   */\n      swap2\n      swap1\n      swap2\n      mstore\n      pop\n        /* \"v2-periphery-master/v2-periphery-master/contracts/DEXV2Router01.sol\":9460:9485  DEXV2Library.getAmountsIn */\n      tag_188\n      swap3\n      pop\n      pop\n      pop\n        /* \"v2-periphery-master/v2-periphery-master/contracts/DEXV2Router01.sol\":9460:9511  DEXV2Library.getAmountsIn(factory, amountOut, path) */\n      jump\t// in\n    tag_215:\n        /* \"v2-periphery-master/v2-periphery-master/contracts/DEXV2Router01.sol\":9450:9511  amounts = DEXV2Library.getAmountsIn(factory, amountOut, path) */\n      swap2\n      pop\n        /* \"v2-periphery-master/v2-periphery-master/contracts/DEXV2Router01.sol\":9543:9554  amountInMax */\n      dup7\n        /* \"v2-periphery-master/v2-periphery-master/contracts/DEXV2Router01.sol\":9529:9536  amounts */\n      dup3\n        /* \"v2-periphery-master/v2-periphery-master/contracts/DEXV2Router01.sol\":9537:9538  0 */\n      0x00\n        /* \"v2-periphery-master/v2-periphery-master/contracts/DEXV2Router01.sol\":9529:9539  amounts[0] */\n      dup2\n      mload\n      dup2\n      lt\n      tag_216\n      jumpi\n      invalid\n    tag_216:\n      0x20\n      mul\n      0x20\n      add\n      add\n      mload\n        /* \"v2-periphery-master/v2-periphery-master/contracts/DEXV2Router01.sol\":9529:9554  amounts[0] <= amountInMax */\n      gt\n      iszero\n        /* \"v2-periphery-master/v2-periphery-master/contracts/DEXV2Router01.sol\":9521:9594  require(amounts[0] <= amountInMax, 'DEXV2Router: EXCESSIVE_INPUT_AMOUNT') */\n      tag_169\n      jumpi\n      mload(0x40)\n      shl(0xe5, 0x461bcd)\n      dup2\n      mstore\n      0x04\n      add\n      dup1\n      dup1\n      0x20\n      add\n      dup3\n      dup2\n      sub\n      dup3\n      mstore\n      0x23\n      dup2\n      mstore\n      0x20\n      add\n      dup1\n      data_ee7996df7f37b160878d34af17d15f428d17eb5fa3f082d192231dfdcd51de05\n      0x23\n      swap2\n      codecopy\n      0x40\n      add\n      swap2\n      pop\n      pop\n      mload(0x40)\n      dup1\n      swap2\n      sub\n      swap1\n      revert\n        /* \"v2-periphery-master/v2-periphery-master/contracts/DEXV2Router01.sol\":8487:9138  function swapExactETHForTokens(uint amountOutMin, address[] calldata path, address to, uint deadline)... */\n    tag_85:\n        /* \"v2-periphery-master/v2-periphery-master/contracts/DEXV2Router01.sol\":8681:8702  uint[] memory amounts */\n      0x60\n        /* \"v2-periphery-master/v2-periphery-master/contracts/DEXV2Router01.sol\":8654:8662  deadline */\n      dup2\n        /* \"v2-periphery-master/v2-periphery-master/contracts/DEXV2Router01.sol\":457:472  block.timestamp */\n      timestamp\n        /* \"v2-periphery-master/v2-periphery-master/contracts/DEXV2Router01.sol\":445:453  deadline */\n      dup2\n        /* \"v2-periphery-master/v2-periphery-master/contracts/DEXV2Router01.sol\":445:472  deadline >= block.timestamp */\n      lt\n      iszero\n        /* \"v2-periphery-master/v2-periphery-master/contracts/DEXV2Router01.sol\":437:497  require(deadline >= block.timestamp, 'DEXV2Router: EXPIRED') */\n      tag_232\n      jumpi\n      0x40\n      dup1\n      mload\n      shl(0xe5, 0x461bcd)\n      dup2\n      mstore\n      0x20\n      0x04\n      dup3\n      add\n      mstore\n      0x14\n      0x24\n      dup3\n      add\n      mstore\n      0x00\n      dup1\n      mload\n      0x20\n      data_e8771a28dca17dc1df8d79bac70548e4ade379e3d726e3fef2a0cf06071509f4\n      dup4\n      codecopy\n      dup2\n      mload\n      swap2\n      mstore\n      0x44\n      dup3\n      add\n      mstore\n      swap1\n      mload\n      swap1\n      dup2\n      swap1\n      sub\n      0x64\n      add\n      swap1\n      revert\n    tag_232:\n        /* \"v2-periphery-master/v2-periphery-master/contracts/DEXV2Router01.sol\":8737:8741  WETH */\n      immutable(\"0x1d3be50b2bb17407dd170f1d5da128d1def30c6b1598d6a629e79b4775265526\")\n      sub(shl(0xa0, 0x01), 0x01)\n        /* \"v2-periphery-master/v2-periphery-master/contracts/DEXV2Router01.sol\":8726:8741  path[0] == WETH */\n      and\n        /* \"v2-periphery-master/v2-periphery-master/contracts/DEXV2Router01.sol\":8726:8730  path */\n      dup7\n      dup7\n        /* \"v2-periphery-master/v2-periphery-master/contracts/DEXV2Router01.sol\":8731:8732  0 */\n      0x00\n        /* \"v2-periphery-master/v2-periphery-master/contracts/DEXV2Router01.sol\":8726:8733  path[0] */\n      dup2\n      dup2\n      lt\n      tag_234\n      jumpi\n      invalid\n    tag_234:\n      swap1\n      pop\n      0x20\n      mul\n      add\n      calldataload\n      sub(shl(0xa0, 0x01), 0x01)\n      and\n      sub(shl(0xa0, 0x01), 0x01)\n        /* \"v2-periphery-master/v2-periphery-master/contracts/DEXV2Router01.sol\":8726:8741  path[0] == WETH */\n      and\n      eq\n        /* \"v2-periphery-master/v2-periphery-master/contracts/DEXV2Router01.sol\":8718:8771  require(path[0] == WETH, 'DEXV2Router: INVALID_PATH') */\n      tag_235\n      jumpi\n      0x40\n      dup1\n      mload\n      shl(0xe5, 0x461bcd)\n      dup2\n      mstore\n      0x20\n      0x04\n      dup3\n      add\n      mstore\n      0x19\n      0x24\n      dup3\n      add\n      mstore\n      shl(0x3b, 0x0888ab0ac64a4deeae8cae47440929cac82989288bea082a89)\n      0x44\n      dup3\n      add\n      mstore\n      swap1\n      mload\n      swap1\n      dup2\n      swap1\n      sub\n      0x64\n      add\n      swap1\n      revert\n    tag_235:\n        /* \"v2-periphery-master/v2-periphery-master/contracts/DEXV2Router01.sol\":8791:8843  DEXV2Library.getAmountsOut(factory, msg.value, path) */\n      tag_236\n        /* \"v2-periphery-master/v2-periphery-master/contracts/DEXV2Router01.sol\":8818:8825  factory */\n      immutable(\"0x7f8b6b088b6d74c2852fc86c796dca07b44eed6fb3daf5e6b59f7c364db14528\")\n        /* \"v2-periphery-master/v2-periphery-master/contracts/DEXV2Router01.sol\":8827:8836  msg.value */\n      callvalue\n        /* \"v2-periphery-master/v2-periphery-master/contracts/DEXV2Router01.sol\":8838:8842  path */\n      dup9\n      dup9\n        /* \"v2-periphery-master/v2-periphery-master/contracts/DEXV2Router01.sol\":8791:8843  DEXV2Library.getAmountsOut(factory, msg.value, path) */\n      dup1\n      dup1\n      0x20\n      mul\n      0x20\n      add\n      mload(0x40)\n      swap1\n      dup2\n      add\n      0x40\n      mstore\n      dup1\n      swap4\n      swap3\n      swap2\n      swap1\n      dup2\n      dup2\n      mstore\n      0x20\n      add\n      dup4\n      dup4\n      0x20\n      mul\n        /* \"--CODEGEN--\":30:33   */\n      dup1\n        /* \"--CODEGEN--\":22:28   */\n      dup3\n        /* \"--CODEGEN--\":14:20   */\n      dup5\n        /* \"--CODEGEN--\":1:34   */\n      calldatacopy\n        /* \"--CODEGEN--\":99:100   */\n      0x00\n        /* \"--CODEGEN--\":81:97   */\n      swap3\n      add\n        /* \"--CODEGEN--\":74:101   */\n      swap2\n      swap1\n      swap2\n      mstore\n      pop\n        /* \"v2-periphery-master/v2-periphery-master/contracts/DEXV2Router01.sol\":8791:8817  DEXV2Library.getAmountsOut */\n      tag_167\n      swap3\n      pop\n      pop\n      pop\n        /* \"v2-periphery-master/v2-periphery-master/contracts/DEXV2Router01.sol\":8791:8843  DEXV2Library.getAmountsOut(factory, msg.value, path) */\n      jump\t// in\n    tag_236:\n        /* \"v2-periphery-master/v2-periphery-master/contracts/DEXV2Router01.sol\":8781:8843  amounts = DEXV2Library.getAmountsOut(factory, msg.value, path) */\n      swap2\n      pop\n        /* \"v2-periphery-master/v2-periphery-master/contracts/DEXV2Router01.sol\":8892:8904  amountOutMin */\n      dup7\n        /* \"v2-periphery-master/v2-periphery-master/contracts/DEXV2Router01.sol\":8861:8868  amounts */\n      dup3\n        /* \"v2-periphery-master/v2-periphery-master/contracts/DEXV2Router01.sol\":8886:8887  1 */\n      0x01\n        /* \"v2-periphery-master/v2-periphery-master/contracts/DEXV2Router01.sol\":8869:8876  amounts */\n      dup5\n        /* \"v2-periphery-master/v2-periphery-master/contracts/DEXV2Router01.sol\":8869:8883  amounts.length */\n      mload\n        /* \"v2-periphery-master/v2-periphery-master/contracts/DEXV2Router01.sol\":8869:8887  amounts.length - 1 */\n      sub\n        /* \"v2-periphery-master/v2-periphery-master/contracts/DEXV2Router01.sol\":8861:8888  amounts[amounts.length - 1] */\n      dup2\n      mload\n      dup2\n      lt\n      tag_237\n      jumpi\n      invalid\n    tag_237:\n      0x20\n      mul\n      0x20\n      add\n      add\n      mload\n        /* \"v2-periphery-master/v2-periphery-master/contracts/DEXV2Router01.sol\":8861:8904  amounts[amounts.length - 1] >= amountOutMin */\n      lt\n      iszero\n        /* \"v2-periphery-master/v2-periphery-master/contracts/DEXV2Router01.sol\":8853:8948  require(amounts[amounts.length - 1] >= amountOutMin, 'DEXV2Router: INSUFFICIENT_OUTPUT_AMOUNT') */\n      tag_238\n      jumpi\n      mload(0x40)\n      shl(0xe5, 0x461bcd)\n      dup2\n      mstore\n      0x04\n      add\n      dup1\n      dup1\n      0x20\n      add\n      dup3\n      dup2\n      sub\n      dup3\n      mstore\n      0x27\n      dup2\n      mstore\n      0x20\n      add\n      dup1\n      data_5c1338f4c45f16a3049167ebd749a88064b60abf820d6a1f8181f4dd30bcc436\n      0x27\n      swap2\n      codecopy\n      0x40\n      add\n      swap2\n      pop\n      pop\n      mload(0x40)\n      dup1\n      swap2\n      sub\n      swap1\n      revert\n    tag_238:\n        /* \"v2-periphery-master/v2-periphery-master/contracts/DEXV2Router01.sol\":8964:8968  WETH */\n      immutable(\"0x1d3be50b2bb17407dd170f1d5da128d1def30c6b1598d6a629e79b4775265526\")\n      sub(shl(0xa0, 0x01), 0x01)\n        /* \"v2-periphery-master/v2-periphery-master/contracts/DEXV2Router01.sol\":8958:8977  IWETH(WETH).deposit */\n      and\n      0xd0e30db0\n        /* \"v2-periphery-master/v2-periphery-master/contracts/DEXV2Router01.sol\":8985:8992  amounts */\n      dup4\n        /* \"v2-periphery-master/v2-periphery-master/contracts/DEXV2Router01.sol\":8993:8994  0 */\n      0x00\n        /* \"v2-periphery-master/v2-periphery-master/contracts/DEXV2Router01.sol\":8985:8995  amounts[0] */\n      dup2\n      mload\n      dup2\n      lt\n      tag_239\n      jumpi\n      invalid\n    tag_239:\n      0x20\n      mul\n      0x20\n      add\n      add\n      mload\n        /* \"v2-periphery-master/v2-periphery-master/contracts/DEXV2Router01.sol\":8958:8998  IWETH(WETH).deposit{value: amounts[0]}() */\n      mload(0x40)\n      dup3\n      0xffffffff\n      and\n      0xe0\n      shl\n      dup2\n      mstore\n      0x04\n      add\n      0x00\n      mload(0x40)\n      dup1\n      dup4\n      sub\n      dup2\n      dup6\n      dup9\n      dup1\n      extcodesize\n      iszero\n        /* \"--CODEGEN--\":5:14   */\n      dup1\n        /* \"--CODEGEN--\":2:4   */\n      iszero\n      tag_240\n      jumpi\n        /* \"--CODEGEN--\":27:28   */\n      0x00\n        /* \"--CODEGEN--\":24:25   */\n      dup1\n        /* \"--CODEGEN--\":17:29   */\n      revert\n        /* \"--CODEGEN--\":2:4   */\n    tag_240:\n        /* \"v2-periphery-master/v2-periphery-master/contracts/DEXV2Router01.sol\":8958:8998  IWETH(WETH).deposit{value: amounts[0]}() */\n      pop\n      gas\n      call\n      iszero\n        /* \"--CODEGEN--\":8:17   */\n      dup1\n        /* \"--CODEGEN--\":5:7   */\n      iszero\n      tag_242\n      jumpi\n        /* \"--CODEGEN--\":45:61   */\n      returndatasize\n        /* \"--CODEGEN--\":42:43   */\n      0x00\n        /* \"--CODEGEN--\":39:40   */\n      dup1\n        /* \"--CODEGEN--\":24:62   */\n      returndatacopy\n        /* \"--CODEGEN--\":77:93   */\n      returndatasize\n        /* \"--CODEGEN--\":74:75   */\n      0x00\n        /* \"--CODEGEN--\":67:94   */\n      revert\n        /* \"--CODEGEN--\":5:7   */\n    tag_242:\n        /* \"v2-periphery-master/v2-periphery-master/contracts/DEXV2Router01.sol\":8958:8998  IWETH(WETH).deposit{value: amounts[0]}() */\n      pop\n      pop\n      pop\n      pop\n      pop\n        /* \"v2-periphery-master/v2-periphery-master/contracts/DEXV2Router01.sol\":9021:9025  WETH */\n      immutable(\"0x1d3be50b2bb17407dd170f1d5da128d1def30c6b1598d6a629e79b4775265526\")\n      sub(shl(0xa0, 0x01), 0x01)\n        /* \"v2-periphery-master/v2-periphery-master/contracts/DEXV2Router01.sol\":9015:9035  IWETH(WETH).transfer */\n      and\n      0xa9059cbb\n        /* \"v2-periphery-master/v2-periphery-master/contracts/DEXV2Router01.sol\":9036:9083  DEXV2Library.pairFor(factory, path[0], path[1]) */\n      tag_243\n        /* \"v2-periphery-master/v2-periphery-master/contracts/DEXV2Router01.sol\":9057:9064  factory */\n      immutable(\"0x7f8b6b088b6d74c2852fc86c796dca07b44eed6fb3daf5e6b59f7c364db14528\")\n        /* \"v2-periphery-master/v2-periphery-master/contracts/DEXV2Router01.sol\":9066:9070  path */\n      dup10\n      dup10\n        /* \"v2-periphery-master/v2-periphery-master/contracts/DEXV2Router01.sol\":9071:9072  0 */\n      0x00\n        /* \"v2-periphery-master/v2-periphery-master/contracts/DEXV2Router01.sol\":9066:9073  path[0] */\n      dup2\n      dup2\n      lt\n      tag_244\n      jumpi\n      invalid\n    tag_244:\n      swap1\n      pop\n      0x20\n      mul\n      add\n      calldataload\n      sub(shl(0xa0, 0x01), 0x01)\n      and\n        /* \"v2-periphery-master/v2-periphery-master/contracts/DEXV2Router01.sol\":9075:9079  path */\n      dup11\n      dup11\n        /* \"v2-periphery-master/v2-periphery-master/contracts/DEXV2Router01.sol\":9080:9081  1 */\n      0x01\n        /* \"v2-periphery-master/v2-periphery-master/contracts/DEXV2Router01.sol\":9075:9082  path[1] */\n      dup2\n      dup2\n      lt\n      tag_174\n      jumpi\n      invalid\n        /* \"v2-periphery-master/v2-periphery-master/contracts/DEXV2Router01.sol\":9036:9083  DEXV2Library.pairFor(factory, path[0], path[1]) */\n    tag_243:\n        /* \"v2-periphery-master/v2-periphery-master/contracts/DEXV2Router01.sol\":9085:9092  amounts */\n      dup5\n        /* \"v2-periphery-master/v2-periphery-master/contracts/DEXV2Router01.sol\":9093:9094  0 */\n      0x00\n        /* \"v2-periphery-master/v2-periphery-master/contracts/DEXV2Router01.sol\":9085:9095  amounts[0] */\n      dup2\n      mload\n      dup2\n      lt\n      tag_246\n      jumpi\n      invalid\n    tag_246:\n      0x20\n      mul\n      0x20\n      add\n      add\n      mload\n        /* \"v2-periphery-master/v2-periphery-master/contracts/DEXV2Router01.sol\":9015:9096  IWETH(WETH).transfer(DEXV2Library.pairFor(factory, path[0], path[1]), amounts[0]) */\n      mload(0x40)\n      dup4\n      0xffffffff\n      and\n      0xe0\n      shl\n      dup2\n      mstore\n      0x04\n      add\n      dup1\n      dup4\n      sub(shl(0xa0, 0x01), 0x01)\n      and\n      sub(shl(0xa0, 0x01), 0x01)\n      and\n      dup2\n      mstore\n      0x20\n      add\n      dup3\n      dup2\n      mstore\n      0x20\n      add\n      swap3\n      pop\n      pop\n      pop\n      0x20\n      mload(0x40)\n      dup1\n      dup4\n      sub\n      dup2\n      0x00\n      dup8\n      dup1\n      extcodesize\n      iszero\n        /* \"--CODEGEN--\":5:14   */\n      dup1\n        /* \"--CODEGEN--\":2:4   */\n      iszero\n      tag_247\n      jumpi\n        /* \"--CODEGEN--\":27:28   */\n      0x00\n        /* \"--CODEGEN--\":24:25   */\n      dup1\n        /* \"--CODEGEN--\":17:29   */\n      revert\n        /* \"--CODEGEN--\":2:4   */\n    tag_247:\n        /* \"v2-periphery-master/v2-periphery-master/contracts/DEXV2Router01.sol\":9015:9096  IWETH(WETH).transfer(DEXV2Library.pairFor(factory, path[0], path[1]), amounts[0]) */\n      pop\n      gas\n      call\n      iszero\n        /* \"--CODEGEN--\":8:17   */\n      dup1\n        /* \"--CODEGEN--\":5:7   */\n      iszero\n      tag_249\n      jumpi\n        /* \"--CODEGEN--\":45:61   */\n      returndatasize\n        /* \"--CODEGEN--\":42:43   */\n      0x00\n        /* \"--CODEGEN--\":39:40   */\n      dup1\n        /* \"--CODEGEN--\":24:62   */\n      returndatacopy\n        /* \"--CODEGEN--\":77:93   */\n      returndatasize\n        /* \"--CODEGEN--\":74:75   */\n      0x00\n        /* \"--CODEGEN--\":67:94   */\n      revert\n        /* \"--CODEGEN--\":5:7   */\n    tag_249:\n        /* \"v2-periphery-master/v2-periphery-master/contracts/DEXV2Router01.sol\":9015:9096  IWETH(WETH).transfer(DEXV2Library.pairFor(factory, path[0], path[1]), amounts[0]) */\n      pop\n      pop\n      pop\n      pop\n      mload(0x40)\n      returndatasize\n        /* \"--CODEGEN--\":15:17   */\n      0x20\n        /* \"--CODEGEN--\":10:13   */\n      dup2\n        /* \"--CODEGEN--\":7:18   */\n      lt\n        /* \"--CODEGEN--\":4:6   */\n      iszero\n      tag_250\n      jumpi\n        /* \"--CODEGEN--\":31:32   */\n      0x00\n        /* \"--CODEGEN--\":28:29   */\n      dup1\n        /* \"--CODEGEN--\":21:33   */\n      revert\n        /* \"--CODEGEN--\":4:6   */\n    tag_250:\n      pop\n        /* \"v2-periphery-master/v2-periphery-master/contracts/DEXV2Router01.sol\":9015:9096  IWETH(WETH).transfer(DEXV2Library.pairFor(factory, path[0], path[1]), amounts[0]) */\n      mload\n        /* \"v2-periphery-master/v2-periphery-master/contracts/DEXV2Router01.sol\":9008:9097  assert(IWETH(WETH).transfer(DEXV2Library.pairFor(factory, path[0], path[1]), amounts[0])) */\n      tag_251\n      jumpi\n      invalid\n    tag_251:\n        /* \"v2-periphery-master/v2-periphery-master/contracts/DEXV2Router01.sol\":9107:9131  _swap(amounts, path, to) */\n      tag_252\n        /* \"v2-periphery-master/v2-periphery-master/contracts/DEXV2Router01.sol\":9113:9120  amounts */\n      dup3\n        /* \"v2-periphery-master/v2-periphery-master/contracts/DEXV2Router01.sol\":9122:9126  path */\n      dup8\n      dup8\n        /* \"v2-periphery-master/v2-periphery-master/contracts/DEXV2Router01.sol\":9107:9131  _swap(amounts, path, to) */\n      dup1\n      dup1\n      0x20\n      mul\n      0x20\n      add\n      mload(0x40)\n      swap1\n      dup2\n      add\n      0x40\n      mstore\n      dup1\n      swap4\n      swap3\n      swap2\n      swap1\n      dup2\n      dup2\n      mstore\n      0x20\n      add\n      dup4\n      dup4\n      0x20\n      mul\n        /* \"--CODEGEN--\":30:33   */\n      dup1\n        /* \"--CODEGEN--\":22:28   */\n      dup3\n        /* \"--CODEGEN--\":14:20   */\n      dup5\n        /* \"--CODEGEN--\":1:34   */\n      calldatacopy\n        /* \"--CODEGEN--\":99:100   */\n      0x00\n        /* \"--CODEGEN--\":81:97   */\n      swap3\n      add\n        /* \"--CODEGEN--\":74:101   */\n      swap2\n      swap1\n      swap2\n      mstore\n      pop\n        /* \"v2-periphery-master/v2-periphery-master/contracts/DEXV2Router01.sol\":9128:9130  to */\n      dup10\n      swap3\n      pop\n        /* \"v2-periphery-master/v2-periphery-master/contracts/DEXV2Router01.sol\":9107:9112  _swap */\n      tag_179\n      swap2\n      pop\n      pop\n        /* \"v2-periphery-master/v2-periphery-master/contracts/DEXV2Router01.sol\":9107:9131  _swap(amounts, path, to) */\n      jump\t// in\n    tag_252:\n        /* \"v2-periphery-master/v2-periphery-master/contracts/DEXV2Router01.sol\":8487:9138  function swapExactETHForTokens(uint amountOutMin, address[] calldata path, address to, uint deadline)... */\n      pop\n      swap6\n      swap5\n      pop\n      pop\n      pop\n      pop\n      pop\n      jump\t// out\n        /* \"v2-periphery-master/v2-periphery-master/contracts/DEXV2Router01.sol\":7931:8482  function swapTokensForExactTokens(... */\n    tag_99:\n        /* \"v2-periphery-master/v2-periphery-master/contracts/DEXV2Router01.sol\":8141:8162  uint[] memory amounts */\n      0x60\n        /* \"v2-periphery-master/v2-periphery-master/contracts/DEXV2Router01.sol\":8122:8130  deadline */\n      dup2\n        /* \"v2-periphery-master/v2-periphery-master/contracts/DEXV2Router01.sol\":457:472  block.timestamp */\n      timestamp\n        /* \"v2-periphery-master/v2-periphery-master/contracts/DEXV2Router01.sol\":445:453  deadline */\n      dup2\n        /* \"v2-periphery-master/v2-periphery-master/contracts/DEXV2Router01.sol\":445:472  deadline >= block.timestamp */\n      lt\n      iszero\n        /* \"v2-periphery-master/v2-periphery-master/contracts/DEXV2Router01.sol\":437:497  require(deadline >= block.timestamp, 'DEXV2Router: EXPIRED') */\n      tag_256\n      jumpi\n      0x40\n      dup1\n      mload\n      shl(0xe5, 0x461bcd)\n      dup2\n      mstore\n      0x20\n      0x04\n      dup3\n      add\n      mstore\n      0x14\n      0x24\n      dup3\n      add\n      mstore\n      0x00\n      dup1\n      mload\n      0x20\n      data_e8771a28dca17dc1df8d79bac70548e4ade379e3d726e3fef2a0cf06071509f4\n      dup4\n      codecopy\n      dup2\n      mload\n      swap2\n      mstore\n      0x44\n      dup3\n      add\n      mstore\n      swap1\n      mload\n      swap1\n      dup2\n      swap1\n      sub\n      0x64\n      add\n      swap1\n      revert\n    tag_256:\n        /* \"v2-periphery-master/v2-periphery-master/contracts/DEXV2Router01.sol\":8184:8235  DEXV2Library.getAmountsIn(factory, amountOut, path) */\n      tag_258\n        /* \"v2-periphery-master/v2-periphery-master/contracts/DEXV2Router01.sol\":8210:8217  factory */\n      immutable(\"0x7f8b6b088b6d74c2852fc86c796dca07b44eed6fb3daf5e6b59f7c364db14528\")\n        /* \"v2-periphery-master/v2-periphery-master/contracts/DEXV2Router01.sol\":8219:8228  amountOut */\n      dup10\n        /* \"v2-periphery-master/v2-periphery-master/contracts/DEXV2Router01.sol\":8230:8234  path */\n      dup9\n      dup9\n        /* \"v2-periphery-master/v2-periphery-master/contracts/DEXV2Router01.sol\":8184:8235  DEXV2Library.getAmountsIn(factory, amountOut, path) */\n      dup1\n      dup1\n      0x20\n      mul\n      0x20\n      add\n      mload(0x40)\n      swap1\n      dup2\n      add\n      0x40\n      mstore\n      dup1\n      swap4\n      swap3\n      swap2\n      swap1\n      dup2\n      dup2\n      mstore\n      0x20\n      add\n      dup4\n      dup4\n      0x20\n      mul\n        /* \"--CODEGEN--\":30:33   */\n      dup1\n        /* \"--CODEGEN--\":22:28   */\n      dup3\n        /* \"--CODEGEN--\":14:20   */\n      dup5\n        /* \"--CODEGEN--\":1:34   */\n      calldatacopy\n        /* \"--CODEGEN--\":99:100   */\n      0x00\n        /* \"--CODEGEN--\":81:97   */\n      swap3\n      add\n        /* \"--CODEGEN--\":74:101   */\n      swap2\n      swap1\n      swap2\n      mstore\n      pop\n        /* \"v2-periphery-master/v2-periphery-master/contracts/DEXV2Router01.sol\":8184:8209  DEXV2Library.getAmountsIn */\n      tag_188\n      swap3\n      pop\n      pop\n      pop\n        /* \"v2-periphery-master/v2-periphery-master/contracts/DEXV2Router01.sol\":8184:8235  DEXV2Library.getAmountsIn(factory, amountOut, path) */\n      jump\t// in\n    tag_258:\n        /* \"v2-periphery-master/v2-periphery-master/contracts/DEXV2Router01.sol\":8174:8235  amounts = DEXV2Library.getAmountsIn(factory, amountOut, path) */\n      swap2\n      pop\n        /* \"v2-periphery-master/v2-periphery-master/contracts/DEXV2Router01.sol\":8267:8278  amountInMax */\n      dup7\n        /* \"v2-periphery-master/v2-periphery-master/contracts/DEXV2Router01.sol\":8253:8260  amounts */\n      dup3\n        /* \"v2-periphery-master/v2-periphery-master/contracts/DEXV2Router01.sol\":8261:8262  0 */\n      0x00\n        /* \"v2-periphery-master/v2-periphery-master/contracts/DEXV2Router01.sol\":8253:8263  amounts[0] */\n      dup2\n      mload\n      dup2\n      lt\n      tag_259\n      jumpi\n      invalid\n    tag_259:\n      0x20\n      mul\n      0x20\n      add\n      add\n      mload\n        /* \"v2-periphery-master/v2-periphery-master/contracts/DEXV2Router01.sol\":8253:8278  amounts[0] <= amountInMax */\n      gt\n      iszero\n        /* \"v2-periphery-master/v2-periphery-master/contracts/DEXV2Router01.sol\":8245:8318  require(amounts[0] <= amountInMax, 'DEXV2Router: EXCESSIVE_INPUT_AMOUNT') */\n      tag_202\n      jumpi\n      mload(0x40)\n      shl(0xe5, 0x461bcd)\n      dup2\n      mstore\n      0x04\n      add\n      dup1\n      dup1\n      0x20\n      add\n      dup3\n      dup2\n      sub\n      dup3\n      mstore\n      0x23\n      dup2\n      mstore\n      0x20\n      add\n      dup1\n      data_ee7996df7f37b160878d34af17d15f428d17eb5fa3f082d192231dfdcd51de05\n      0x23\n      swap2\n      codecopy\n      0x40\n      add\n      swap2\n      pop\n      pop\n      mload(0x40)\n      dup1\n      swap2\n      sub\n      swap1\n      revert\n        /* \"v2-periphery-master/v2-periphery-master/contracts/DEXV2Router01.sol\":351:389  address public immutable override WETH */\n    tag_105:\n      immutable(\"0x1d3be50b2bb17407dd170f1d5da128d1def30c6b1598d6a629e79b4775265526\")\n      dup2\n      jump\t// out\n        /* \"v2-periphery-master/v2-periphery-master/contracts/DEXV2Router01.sol\":11451:11625  function quote(uint amountA, uint reserveA, uint reserveB) public pure override returns (uint amountB) {... */\n    tag_109:\n        /* \"v2-periphery-master/v2-periphery-master/contracts/DEXV2Router01.sol\":11540:11552  uint amountB */\n      0x00\n        /* \"v2-periphery-master/v2-periphery-master/contracts/DEXV2Router01.sol\":11571:11618  DEXV2Library.quote(amountA, reserveA, reserveB) */\n      tag_159\n        /* \"v2-periphery-master/v2-periphery-master/contracts/DEXV2Router01.sol\":11590:11597  amountA */\n      dup5\n        /* \"v2-periphery-master/v2-periphery-master/contracts/DEXV2Router01.sol\":11599:11607  reserveA */\n      dup5\n        /* \"v2-periphery-master/v2-periphery-master/contracts/DEXV2Router01.sol\":11609:11617  reserveB */\n      dup5\n        /* \"v2-periphery-master/v2-periphery-master/contracts/DEXV2Router01.sol\":11571:11589  DEXV2Library.quote */\n      tag_270\n        /* \"v2-periphery-master/v2-periphery-master/contracts/DEXV2Router01.sol\":11571:11618  DEXV2Library.quote(amountA, reserveA, reserveB) */\n      jump\t// in\n        /* \"v2-periphery-master/v2-periphery-master/contracts/DEXV2Router01.sol\":3808:4625  function removeLiquidity(... */\n    tag_113:\n        /* \"v2-periphery-master/v2-periphery-master/contracts/DEXV2Router01.sol\":4046:4058  uint amountA */\n      0x00\n        /* \"v2-periphery-master/v2-periphery-master/contracts/DEXV2Router01.sol\":4060:4072  uint amountB */\n      dup1\n        /* \"v2-periphery-master/v2-periphery-master/contracts/DEXV2Router01.sol\":4027:4035  deadline */\n      dup3\n        /* \"v2-periphery-master/v2-periphery-master/contracts/DEXV2Router01.sol\":457:472  block.timestamp */\n      timestamp\n        /* \"v2-periphery-master/v2-periphery-master/contracts/DEXV2Router01.sol\":445:453  deadline */\n      dup2\n        /* \"v2-periphery-master/v2-periphery-master/contracts/DEXV2Router01.sol\":445:472  deadline >= block.timestamp */\n      lt\n      iszero\n        /* \"v2-periphery-master/v2-periphery-master/contracts/DEXV2Router01.sol\":437:497  require(deadline >= block.timestamp, 'DEXV2Router: EXPIRED') */\n      tag_272\n      jumpi\n      0x40\n      dup1\n      mload\n      shl(0xe5, 0x461bcd)\n      dup2\n      mstore\n      0x20\n      0x04\n      dup3\n      add\n      mstore\n      0x14\n      0x24\n      dup3\n      add\n      mstore\n      0x00\n      dup1\n      mload\n      0x20\n      data_e8771a28dca17dc1df8d79bac70548e4ade379e3d726e3fef2a0cf06071509f4\n      dup4\n      codecopy\n      dup2\n      mload\n      swap2\n      mstore\n      0x44\n      dup3\n      add\n      mstore\n      swap1\n      mload\n      swap1\n      dup2\n      swap1\n      sub\n      0x64\n      add\n      swap1\n      revert\n    tag_272:\n        /* \"v2-periphery-master/v2-periphery-master/contracts/DEXV2Router01.sol\":4084:4096  address pair */\n      0x00\n        /* \"v2-periphery-master/v2-periphery-master/contracts/DEXV2Router01.sol\":4099:4144  DEXV2Library.pairFor(factory, tokenA, tokenB) */\n      tag_274\n        /* \"v2-periphery-master/v2-periphery-master/contracts/DEXV2Router01.sol\":4120:4127  factory */\n      immutable(\"0x7f8b6b088b6d74c2852fc86c796dca07b44eed6fb3daf5e6b59f7c364db14528\")\n        /* \"v2-periphery-master/v2-periphery-master/contracts/DEXV2Router01.sol\":4129:4135  tokenA */\n      dup13\n        /* \"v2-periphery-master/v2-periphery-master/contracts/DEXV2Router01.sol\":4137:4143  tokenB */\n      dup13\n        /* \"v2-periphery-master/v2-periphery-master/contracts/DEXV2Router01.sol\":4099:4119  DEXV2Library.pairFor */\n      tag_175\n        /* \"v2-periphery-master/v2-periphery-master/contracts/DEXV2Router01.sol\":4099:4144  DEXV2Library.pairFor(factory, tokenA, tokenB) */\n      jump\t// in\n    tag_274:\n        /* \"v2-periphery-master/v2-periphery-master/contracts/DEXV2Router01.sol\":4154:4212  IDEXV2Pair(pair).transferFrom(msg.sender, pair, liquidity) */\n      0x40\n      dup1\n      mload\n      shl(0xe0, 0x23b872dd)\n      dup2\n      mstore\n        /* \"v2-periphery-master/v2-periphery-master/contracts/DEXV2Router01.sol\":4184:4194  msg.sender */\n      caller\n        /* \"v2-periphery-master/v2-periphery-master/contracts/DEXV2Router01.sol\":4154:4212  IDEXV2Pair(pair).transferFrom(msg.sender, pair, liquidity) */\n      0x04\n      dup3\n      add\n      mstore\n      sub(shl(0xa0, 0x01), 0x01)\n        /* \"v2-periphery-master/v2-periphery-master/contracts/DEXV2Router01.sol\":4154:4183  IDEXV2Pair(pair).transferFrom */\n      dup4\n      and\n        /* \"v2-periphery-master/v2-periphery-master/contracts/DEXV2Router01.sol\":4154:4212  IDEXV2Pair(pair).transferFrom(msg.sender, pair, liquidity) */\n      0x24\n      dup3\n      add\n      dup2\n      swap1\n      mstore\n      0x44\n      dup3\n      add\n      dup14\n      swap1\n      mstore\n      swap2\n      mload\n        /* \"v2-periphery-master/v2-periphery-master/contracts/DEXV2Router01.sol\":4084:4144  address pair = DEXV2Library.pairFor(factory, tokenA, tokenB) */\n      swap3\n      swap4\n      pop\n        /* \"v2-periphery-master/v2-periphery-master/contracts/DEXV2Router01.sol\":4154:4183  IDEXV2Pair(pair).transferFrom */\n      swap1\n      swap2\n      0x23b872dd\n      swap2\n        /* \"v2-periphery-master/v2-periphery-master/contracts/DEXV2Router01.sol\":4154:4212  IDEXV2Pair(pair).transferFrom(msg.sender, pair, liquidity) */\n      0x64\n      dup1\n      dup3\n      add\n      swap3\n      0x20\n      swap3\n      swap1\n      swap2\n      swap1\n      dup3\n      swap1\n      sub\n      add\n      dup2\n      0x00\n        /* \"v2-periphery-master/v2-periphery-master/contracts/DEXV2Router01.sol\":4154:4183  IDEXV2Pair(pair).transferFrom */\n      dup8\n        /* \"v2-periphery-master/v2-periphery-master/contracts/DEXV2Router01.sol\":4154:4212  IDEXV2Pair(pair).transferFrom(msg.sender, pair, liquidity) */\n      dup1\n      extcodesize\n      iszero\n        /* \"--CODEGEN--\":2:4   */\n      dup1\n      iszero\n      tag_275\n      jumpi\n        /* \"--CODEGEN--\":27:28   */\n      0x00\n        /* \"--CODEGEN--\":24:25   */\n      dup1\n        /* \"--CODEGEN--\":17:29   */\n      revert\n        /* \"--CODEGEN--\":2:4   */\n    tag_275:\n        /* \"v2-periphery-master/v2-periphery-master/contracts/DEXV2Router01.sol\":4154:4212  IDEXV2Pair(pair).transferFrom(msg.sender, pair, liquidity) */\n      pop\n      gas\n      call\n      iszero\n        /* \"--CODEGEN--\":8:17   */\n      dup1\n        /* \"--CODEGEN--\":5:7   */\n      iszero\n      tag_277\n      jumpi\n        /* \"--CODEGEN--\":45:61   */\n      returndatasize\n        /* \"--CODEGEN--\":42:43   */\n      0x00\n        /* \"--CODEGEN--\":39:40   */\n      dup1\n        /* \"--CODEGEN--\":24:62   */\n      returndatacopy\n        /* \"--CODEGEN--\":77:93   */\n      returndatasize\n        /* \"--CODEGEN--\":74:75   */\n      0x00\n        /* \"--CODEGEN--\":67:94   */\n      revert\n        /* \"--CODEGEN--\":5:7   */\n    tag_277:\n        /* \"v2-periphery-master/v2-periphery-master/contracts/DEXV2Router01.sol\":4154:4212  IDEXV2Pair(pair).transferFrom(msg.sender, pair, liquidity) */\n      pop\n      pop\n      pop\n      pop\n      mload(0x40)\n      returndatasize\n        /* \"--CODEGEN--\":15:17   */\n      0x20\n        /* \"--CODEGEN--\":10:13   */\n      dup2\n        /* \"--CODEGEN--\":7:18   */\n      lt\n        /* \"--CODEGEN--\":4:6   */\n      iszero\n      tag_278\n      jumpi\n        /* \"--CODEGEN--\":31:32   */\n      0x00\n        /* \"--CODEGEN--\":28:29   */\n      dup1\n        /* \"--CODEGEN--\":21:33   */\n      revert\n        /* \"--CODEGEN--\":4:6   */\n    tag_278:\n      pop\n      pop\n        /* \"v2-periphery-master/v2-periphery-master/contracts/DEXV2Router01.sol\":4279:4304  IDEXV2Pair(pair).burn(to) */\n      0x40\n      dup1\n      mload\n      shl(0xe2, 0x226bf2d1)\n      dup2\n      mstore\n      sub(shl(0xa0, 0x01), 0x01)\n      dup9\n      dup2\n      and\n      0x04\n      dup4\n      add\n      mstore\n      dup3\n      mload\n        /* \"v2-periphery-master/v2-periphery-master/contracts/DEXV2Router01.sol\":4249:4261  uint amount0 */\n      0x00\n      swap4\n      dup5\n      swap4\n        /* \"v2-periphery-master/v2-periphery-master/contracts/DEXV2Router01.sol\":4279:4300  IDEXV2Pair(pair).burn */\n      swap3\n      dup7\n      and\n      swap3\n      0x89afcb44\n      swap3\n        /* \"v2-periphery-master/v2-periphery-master/contracts/DEXV2Router01.sol\":4279:4304  IDEXV2Pair(pair).burn(to) */\n      0x24\n      dup1\n      dup4\n      add\n      swap4\n      swap3\n      dup3\n      swap1\n      sub\n      add\n      dup2\n        /* \"v2-periphery-master/v2-periphery-master/contracts/DEXV2Router01.sol\":4249:4261  uint amount0 */\n      dup8\n        /* \"v2-periphery-master/v2-periphery-master/contracts/DEXV2Router01.sol\":4279:4300  IDEXV2Pair(pair).burn */\n      dup8\n        /* \"v2-periphery-master/v2-periphery-master/contracts/DEXV2Router01.sol\":4279:4304  IDEXV2Pair(pair).burn(to) */\n      dup1\n      extcodesize\n      iszero\n        /* \"--CODEGEN--\":2:4   */\n      dup1\n      iszero\n      tag_279\n      jumpi\n        /* \"--CODEGEN--\":27:28   */\n      0x00\n        /* \"--CODEGEN--\":24:25   */\n      dup1\n        /* \"--CODEGEN--\":17:29   */\n      revert\n        /* \"--CODEGEN--\":2:4   */\n    tag_279:\n        /* \"v2-periphery-master/v2-periphery-master/contracts/DEXV2Router01.sol\":4279:4304  IDEXV2Pair(pair).burn(to) */\n      pop\n      gas\n      call\n      iszero\n        /* \"--CODEGEN--\":8:17   */\n      dup1\n        /* \"--CODEGEN--\":5:7   */\n      iszero\n      tag_281\n      jumpi\n        /* \"--CODEGEN--\":45:61   */\n      returndatasize\n        /* \"--CODEGEN--\":42:43   */\n      0x00\n        /* \"--CODEGEN--\":39:40   */\n      dup1\n        /* \"--CODEGEN--\":24:62   */\n      returndatacopy\n        /* \"--CODEGEN--\":77:93   */\n      returndatasize\n        /* \"--CODEGEN--\":74:75   */\n      0x00\n        /* \"--CODEGEN--\":67:94   */\n      revert\n        /* \"--CODEGEN--\":5:7   */\n    tag_281:\n        /* \"v2-periphery-master/v2-periphery-master/contracts/DEXV2Router01.sol\":4279:4304  IDEXV2Pair(pair).burn(to) */\n      pop\n      pop\n      pop\n      pop\n      mload(0x40)\n      returndatasize\n        /* \"--CODEGEN--\":15:17   */\n      0x40\n        /* \"--CODEGEN--\":10:13   */\n      dup2\n        /* \"--CODEGEN--\":7:18   */\n      lt\n        /* \"--CODEGEN--\":4:6   */\n      iszero\n      tag_282\n      jumpi\n        /* \"--CODEGEN--\":31:32   */\n      0x00\n        /* \"--CODEGEN--\":28:29   */\n      dup1\n        /* \"--CODEGEN--\":21:33   */\n      revert\n        /* \"--CODEGEN--\":4:6   */\n    tag_282:\n      pop\n        /* \"v2-periphery-master/v2-periphery-master/contracts/DEXV2Router01.sol\":4279:4304  IDEXV2Pair(pair).burn(to) */\n      dup1\n      mload\n      0x20\n      swap1\n      swap2\n      add\n      mload\n      swap1\n      swap3\n      pop\n      swap1\n      pop\n        /* \"v2-periphery-master/v2-periphery-master/contracts/DEXV2Router01.sol\":4315:4329  address token0 */\n      0x00\n        /* \"v2-periphery-master/v2-periphery-master/contracts/DEXV2Router01.sol\":4334:4373  DEXV2Library.sortTokens(tokenA, tokenB) */\n      tag_283\n        /* \"v2-periphery-master/v2-periphery-master/contracts/DEXV2Router01.sol\":4358:4364  tokenA */\n      dup15\n        /* \"v2-periphery-master/v2-periphery-master/contracts/DEXV2Router01.sol\":4366:4372  tokenB */\n      dup15\n        /* \"v2-periphery-master/v2-periphery-master/contracts/DEXV2Router01.sol\":4334:4357  DEXV2Library.sortTokens */\n      tag_284\n        /* \"v2-periphery-master/v2-periphery-master/contracts/DEXV2Router01.sol\":4334:4373  DEXV2Library.sortTokens(tokenA, tokenB) */\n      jump\t// in\n    tag_283:\n        /* \"v2-periphery-master/v2-periphery-master/contracts/DEXV2Router01.sol\":4314:4373  (address token0,) = DEXV2Library.sortTokens(tokenA, tokenB) */\n      pop\n      swap1\n      pop\n        /* \"v2-periphery-master/v2-periphery-master/contracts/DEXV2Router01.sol\":4414:4420  token0 */\n      dup1\n      sub(shl(0xa0, 0x01), 0x01)\n        /* \"v2-periphery-master/v2-periphery-master/contracts/DEXV2Router01.sol\":4404:4420  tokenA == token0 */\n      and\n        /* \"v2-periphery-master/v2-periphery-master/contracts/DEXV2Router01.sol\":4404:4410  tokenA */\n      dup15\n      sub(shl(0xa0, 0x01), 0x01)\n        /* \"v2-periphery-master/v2-periphery-master/contracts/DEXV2Router01.sol\":4404:4420  tokenA == token0 */\n      and\n      eq\n        /* \"v2-periphery-master/v2-periphery-master/contracts/DEXV2Router01.sol\":4404:4462  tokenA == token0 ? (amount0, amount1) : (amount1, amount0) */\n      tag_285\n      jumpi\n        /* \"v2-periphery-master/v2-periphery-master/contracts/DEXV2Router01.sol\":4445:4452  amount1 */\n      dup2\n        /* \"v2-periphery-master/v2-periphery-master/contracts/DEXV2Router01.sol\":4454:4461  amount0 */\n      dup4\n        /* \"v2-periphery-master/v2-periphery-master/contracts/DEXV2Router01.sol\":4404:4462  tokenA == token0 ? (amount0, amount1) : (amount1, amount0) */\n      jump(tag_286)\n    tag_285:\n        /* \"v2-periphery-master/v2-periphery-master/contracts/DEXV2Router01.sol\":4424:4431  amount0 */\n      dup3\n        /* \"v2-periphery-master/v2-periphery-master/contracts/DEXV2Router01.sol\":4433:4440  amount1 */\n      dup3\n        /* \"v2-periphery-master/v2-periphery-master/contracts/DEXV2Router01.sol\":4404:4462  tokenA == token0 ? (amount0, amount1) : (amount1, amount0) */\n    tag_286:\n        /* \"v2-periphery-master/v2-periphery-master/contracts/DEXV2Router01.sol\":4383:4462  (amountA, amountB) = tokenA == token0 ? (amount0, amount1) : (amount1, amount0) */\n      swap1\n      swap8\n      pop\n      swap6\n      pop\n        /* \"v2-periphery-master/v2-periphery-master/contracts/DEXV2Router01.sol\":4480:4501  amountA >= amountAMin */\n      dup11\n      dup8\n      lt\n      iszero\n        /* \"v2-periphery-master/v2-periphery-master/contracts/DEXV2Router01.sol\":4472:4540  require(amountA >= amountAMin, 'DEXV2Router: INSUFFICIENT_A_AMOUNT') */\n      tag_287\n      jumpi\n      mload(0x40)\n      shl(0xe5, 0x461bcd)\n      dup2\n      mstore\n      0x04\n      add\n      dup1\n      dup1\n      0x20\n      add\n      dup3\n      dup2\n      sub\n      dup3\n      mstore\n      0x22\n      dup2\n      mstore\n      0x20\n      add\n      dup1\n      data_8358829d2392a9b5002ba64de292242a84c488c8e5c4cd51bfb614d83f536580\n      0x22\n      swap2\n      codecopy\n      0x40\n      add\n      swap2\n      pop\n      pop\n      mload(0x40)\n      dup1\n      swap2\n      sub\n      swap1\n      revert\n    tag_287:\n        /* \"v2-periphery-master/v2-periphery-master/contracts/DEXV2Router01.sol\":4569:4579  amountBMin */\n      dup10\n        /* \"v2-periphery-master/v2-periphery-master/contracts/DEXV2Router01.sol\":4558:4565  amountB */\n      dup7\n        /* \"v2-periphery-master/v2-periphery-master/contracts/DEXV2Router01.sol\":4558:4579  amountB >= amountBMin */\n      lt\n      iszero\n        /* \"v2-periphery-master/v2-periphery-master/contracts/DEXV2Router01.sol\":4550:4618  require(amountB >= amountBMin, 'DEXV2Router: INSUFFICIENT_B_AMOUNT') */\n      tag_288\n      jumpi\n      mload(0x40)\n      shl(0xe5, 0x461bcd)\n      dup2\n      mstore\n      0x04\n      add\n      dup1\n      dup1\n      0x20\n      add\n      dup3\n      dup2\n      sub\n      dup3\n      mstore\n      0x22\n      dup2\n      mstore\n      0x20\n      add\n      dup1\n      data_aed2d28a48ab074ff6e5bf47d32f2b7f5ee20e74c396cd7d323ef211dfa7f555\n      0x22\n      swap2\n      codecopy\n      0x40\n      add\n      swap2\n      pop\n      pop\n      mload(0x40)\n      dup1\n      swap2\n      sub\n      swap1\n      revert\n    tag_288:\n        /* \"v2-periphery-master/v2-periphery-master/contracts/DEXV2Router01.sol\":507:508  _ */\n      pop\n      pop\n      pop\n      pop\n        /* \"v2-periphery-master/v2-periphery-master/contracts/DEXV2Router01.sol\":3808:4625  function removeLiquidity(... */\n      pop\n      swap8\n      pop\n      swap8\n      swap6\n      pop\n      pop\n      pop\n      pop\n      pop\n      pop\n      jump\t// out\n        /* \"v2-periphery-master/v2-periphery-master/contracts/DEXV2Router01.sol\":304:345  address public immutable override factory */\n    tag_116:\n      immutable(\"0x7f8b6b088b6d74c2852fc86c796dca07b44eed6fb3daf5e6b59f7c364db14528\")\n      dup2\n      jump\t// out\n        /* \"v2-periphery-master/v2-periphery-master/contracts/DEXV2Router01.sol\":12039:12228  function getAmountsOut(uint amountIn, address[] memory path) public view override returns (uint[] memory amounts) {... */\n    tag_123:\n        /* \"v2-periphery-master/v2-periphery-master/contracts/DEXV2Router01.sol\":12130:12151  uint[] memory amounts */\n      0x60\n        /* \"v2-periphery-master/v2-periphery-master/contracts/DEXV2Router01.sol\":12170:12221  DEXV2Library.getAmountsOut(factory, amountIn, path) */\n      tag_187\n        /* \"v2-periphery-master/v2-periphery-master/contracts/DEXV2Router01.sol\":12197:12204  factory */\n      immutable(\"0x7f8b6b088b6d74c2852fc86c796dca07b44eed6fb3daf5e6b59f7c364db14528\")\n        /* \"v2-periphery-master/v2-periphery-master/contracts/DEXV2Router01.sol\":12206:12214  amountIn */\n      dup5\n        /* \"v2-periphery-master/v2-periphery-master/contracts/DEXV2Router01.sol\":12216:12220  path */\n      dup5\n        /* \"v2-periphery-master/v2-periphery-master/contracts/DEXV2Router01.sol\":12170:12196  DEXV2Library.getAmountsOut */\n      tag_167\n        /* \"v2-periphery-master/v2-periphery-master/contracts/DEXV2Router01.sol\":12170:12221  DEXV2Library.getAmountsOut(factory, amountIn, path) */\n      jump\t// in\n        /* \"v2-periphery-master/v2-periphery-master/contracts/DEXV2Router01.sol\":5932:6572  function removeLiquidityETHWithPermit(... */\n    tag_130:\n        /* \"v2-periphery-master/v2-periphery-master/contracts/DEXV2Router01.sol\":6205:6221  uint amountToken */\n      0x00\n        /* \"v2-periphery-master/v2-periphery-master/contracts/DEXV2Router01.sol\":6223:6237  uint amountETH */\n      dup1\n        /* \"v2-periphery-master/v2-periphery-master/contracts/DEXV2Router01.sol\":6249:6261  address pair */\n      0x00\n        /* \"v2-periphery-master/v2-periphery-master/contracts/DEXV2Router01.sol\":6264:6306  DEXV2Library.pairFor(factory, token, WETH) */\n      tag_292\n        /* \"v2-periphery-master/v2-periphery-master/contracts/DEXV2Router01.sol\":6285:6292  factory */\n      immutable(\"0x7f8b6b088b6d74c2852fc86c796dca07b44eed6fb3daf5e6b59f7c364db14528\")\n        /* \"v2-periphery-master/v2-periphery-master/contracts/DEXV2Router01.sol\":6294:6299  token */\n      dup15\n        /* \"v2-periphery-master/v2-periphery-master/contracts/DEXV2Router01.sol\":6301:6305  WETH */\n      immutable(\"0x1d3be50b2bb17407dd170f1d5da128d1def30c6b1598d6a629e79b4775265526\")\n        /* \"v2-periphery-master/v2-periphery-master/contracts/DEXV2Router01.sol\":6264:6284  DEXV2Library.pairFor */\n      tag_175\n        /* \"v2-periphery-master/v2-periphery-master/contracts/DEXV2Router01.sol\":6264:6306  DEXV2Library.pairFor(factory, token, WETH) */\n      jump\t// in\n    tag_292:\n        /* \"v2-periphery-master/v2-periphery-master/contracts/DEXV2Router01.sol\":6249:6306  address pair = DEXV2Library.pairFor(factory, token, WETH) */\n      swap1\n      pop\n        /* \"v2-periphery-master/v2-periphery-master/contracts/DEXV2Router01.sol\":6316:6326  uint value */\n      0x00\n        /* \"v2-periphery-master/v2-periphery-master/contracts/DEXV2Router01.sol\":6329:6339  approveMax */\n      dup8\n        /* \"v2-periphery-master/v2-periphery-master/contracts/DEXV2Router01.sol\":6329:6362  approveMax ? uint(-1) : liquidity */\n      tag_293\n      jumpi\n        /* \"v2-periphery-master/v2-periphery-master/contracts/DEXV2Router01.sol\":6353:6362  liquidity */\n      dup13\n        /* \"v2-periphery-master/v2-periphery-master/contracts/DEXV2Router01.sol\":6329:6362  approveMax ? uint(-1) : liquidity */\n      jump(tag_294)\n    tag_293:\n      not(0x00)\n    tag_294:\n        /* \"v2-periphery-master/v2-periphery-master/contracts/DEXV2Router01.sol\":6372:6448  IDEXV2Pair(pair).permit(msg.sender, address(this), value, deadline, v, r, s) */\n      0x40\n      dup1\n      mload\n      shl(0xe0, 0xd505accf)\n      dup2\n      mstore\n        /* \"v2-periphery-master/v2-periphery-master/contracts/DEXV2Router01.sol\":6396:6406  msg.sender */\n      caller\n        /* \"v2-periphery-master/v2-periphery-master/contracts/DEXV2Router01.sol\":6372:6448  IDEXV2Pair(pair).permit(msg.sender, address(this), value, deadline, v, r, s) */\n      0x04\n      dup3\n      add\n      mstore\n        /* \"v2-periphery-master/v2-periphery-master/contracts/DEXV2Router01.sol\":6416:6420  this */\n      address\n        /* \"v2-periphery-master/v2-periphery-master/contracts/DEXV2Router01.sol\":6372:6448  IDEXV2Pair(pair).permit(msg.sender, address(this), value, deadline, v, r, s) */\n      0x24\n      dup3\n      add\n      mstore\n      0x44\n      dup2\n      add\n      dup4\n      swap1\n      mstore\n      0x64\n      dup2\n      add\n      dup13\n      swap1\n      mstore\n      0xff\n      dup11\n      and\n      0x84\n      dup3\n      add\n      mstore\n      0xa4\n      dup2\n      add\n      dup10\n      swap1\n      mstore\n      0xc4\n      dup2\n      add\n      dup9\n      swap1\n      mstore\n      swap1\n      mload\n        /* \"v2-periphery-master/v2-periphery-master/contracts/DEXV2Router01.sol\":6316:6362  uint value = approveMax ? uint(-1) : liquidity */\n      swap2\n      swap3\n      pop\n      sub(shl(0xa0, 0x01), 0x01)\n        /* \"v2-periphery-master/v2-periphery-master/contracts/DEXV2Router01.sol\":6372:6395  IDEXV2Pair(pair).permit */\n      dup5\n      and\n      swap2\n      0xd505accf\n      swap2\n        /* \"v2-periphery-master/v2-periphery-master/contracts/DEXV2Router01.sol\":6372:6448  IDEXV2Pair(pair).permit(msg.sender, address(this), value, deadline, v, r, s) */\n      0xe4\n      dup1\n      dup3\n      add\n      swap3\n      0x00\n      swap3\n      swap1\n      swap2\n      swap1\n      dup3\n      swap1\n      sub\n      add\n      dup2\n      dup4\n        /* \"v2-periphery-master/v2-periphery-master/contracts/DEXV2Router01.sol\":6372:6395  IDEXV2Pair(pair).permit */\n      dup8\n        /* \"v2-periphery-master/v2-periphery-master/contracts/DEXV2Router01.sol\":6372:6448  IDEXV2Pair(pair).permit(msg.sender, address(this), value, deadline, v, r, s) */\n      dup1\n      extcodesize\n      iszero\n        /* \"--CODEGEN--\":2:4   */\n      dup1\n      iszero\n      tag_295\n      jumpi\n        /* \"--CODEGEN--\":27:28   */\n      0x00\n        /* \"--CODEGEN--\":24:25   */\n      dup1\n        /* \"--CODEGEN--\":17:29   */\n      revert\n        /* \"--CODEGEN--\":2:4   */\n    tag_295:\n        /* \"v2-periphery-master/v2-periphery-master/contracts/DEXV2Router01.sol\":6372:6448  IDEXV2Pair(pair).permit(msg.sender, address(this), value, deadline, v, r, s) */\n      pop\n      gas\n      call\n      iszero\n        /* \"--CODEGEN--\":8:17   */\n      dup1\n        /* \"--CODEGEN--\":5:7   */\n      iszero\n      tag_297\n      jumpi\n        /* \"--CODEGEN--\":45:61   */\n      returndatasize\n        /* \"--CODEGEN--\":42:43   */\n      0x00\n        /* \"--CODEGEN--\":39:40   */\n      dup1\n        /* \"--CODEGEN--\":24:62   */\n      returndatacopy\n        /* \"--CODEGEN--\":77:93   */\n      returndatasize\n        /* \"--CODEGEN--\":74:75   */\n      0x00\n        /* \"--CODEGEN--\":67:94   */\n      revert\n        /* \"--CODEGEN--\":5:7   */\n    tag_297:\n        /* \"v2-periphery-master/v2-periphery-master/contracts/DEXV2Router01.sol\":6372:6448  IDEXV2Pair(pair).permit(msg.sender, address(this), value, deadline, v, r, s) */\n      pop\n      pop\n      pop\n      pop\n        /* \"v2-periphery-master/v2-periphery-master/contracts/DEXV2Router01.sol\":6485:6565  removeLiquidityETH(token, liquidity, amountTokenMin, amountETHMin, to, deadline) */\n      tag_298\n        /* \"v2-periphery-master/v2-periphery-master/contracts/DEXV2Router01.sol\":6504:6509  token */\n      dup15\n        /* \"v2-periphery-master/v2-periphery-master/contracts/DEXV2Router01.sol\":6511:6520  liquidity */\n      dup15\n        /* \"v2-periphery-master/v2-periphery-master/contracts/DEXV2Router01.sol\":6522:6536  amountTokenMin */\n      dup15\n        /* \"v2-periphery-master/v2-periphery-master/contracts/DEXV2Router01.sol\":6538:6550  amountETHMin */\n      dup15\n        /* \"v2-periphery-master/v2-periphery-master/contracts/DEXV2Router01.sol\":6552:6554  to */\n      dup15\n        /* \"v2-periphery-master/v2-periphery-master/contracts/DEXV2Router01.sol\":6556:6564  deadline */\n      dup15\n        /* \"v2-periphery-master/v2-periphery-master/contracts/DEXV2Router01.sol\":6485:6503  removeLiquidityETH */\n      tag_31\n        /* \"v2-periphery-master/v2-periphery-master/contracts/DEXV2Router01.sol\":6485:6565  removeLiquidityETH(token, liquidity, amountTokenMin, amountETHMin, to, deadline) */\n      jump\t// in\n    tag_298:\n        /* \"v2-periphery-master/v2-periphery-master/contracts/DEXV2Router01.sol\":6458:6565  (amountToken, amountETH) = removeLiquidityETH(token, liquidity, amountTokenMin, amountETHMin, to, deadline) */\n      swap1\n      swap16\n      swap1\n      swap15\n      pop\n        /* \"v2-periphery-master/v2-periphery-master/contracts/DEXV2Router01.sol\":5932:6572  function removeLiquidityETHWithPermit(... */\n      swap13\n      pop\n      pop\n      pop\n      pop\n      pop\n      pop\n      pop\n      pop\n      pop\n      pop\n      pop\n      pop\n      pop\n      jump\t// out\n        /* \"v2-periphery-master/v2-periphery-master/contracts/DEXV2Router01.sol\":2129:2836  function addLiquidity(... */\n    tag_134:\n        /* \"v2-periphery-master/v2-periphery-master/contracts/DEXV2Router01.sol\":2400:2412  uint amountA */\n      0x00\n        /* \"v2-periphery-master/v2-periphery-master/contracts/DEXV2Router01.sol\":2414:2426  uint amountB */\n      dup1\n        /* \"v2-periphery-master/v2-periphery-master/contracts/DEXV2Router01.sol\":2428:2442  uint liquidity */\n      0x00\n        /* \"v2-periphery-master/v2-periphery-master/contracts/DEXV2Router01.sol\":2381:2389  deadline */\n      dup4\n        /* \"v2-periphery-master/v2-periphery-master/contracts/DEXV2Router01.sol\":457:472  block.timestamp */\n      timestamp\n        /* \"v2-periphery-master/v2-periphery-master/contracts/DEXV2Router01.sol\":445:453  deadline */\n      dup2\n        /* \"v2-periphery-master/v2-periphery-master/contracts/DEXV2Router01.sol\":445:472  deadline >= block.timestamp */\n      lt\n      iszero\n        /* \"v2-periphery-master/v2-periphery-master/contracts/DEXV2Router01.sol\":437:497  require(deadline >= block.timestamp, 'DEXV2Router: EXPIRED') */\n      tag_300\n      jumpi\n      0x40\n      dup1\n      mload\n      shl(0xe5, 0x461bcd)\n      dup2\n      mstore\n      0x20\n      0x04\n      dup3\n      add\n      mstore\n      0x14\n      0x24\n      dup3\n      add\n      mstore\n      0x00\n      dup1\n      mload\n      0x20\n      data_e8771a28dca17dc1df8d79bac70548e4ade379e3d726e3fef2a0cf06071509f4\n      dup4\n      codecopy\n      dup2\n      mload\n      swap2\n      mstore\n      0x44\n      dup3\n      add\n      mstore\n      swap1\n      mload\n      swap1\n      dup2\n      swap1\n      sub\n      0x64\n      add\n      swap1\n      revert\n    tag_300:\n        /* \"v2-periphery-master/v2-periphery-master/contracts/DEXV2Router01.sol\":2475:2560  _addLiquidity(tokenA, tokenB, amountADesired, amountBDesired, amountAMin, amountBMin) */\n      tag_302\n        /* \"v2-periphery-master/v2-periphery-master/contracts/DEXV2Router01.sol\":2489:2495  tokenA */\n      dup13\n        /* \"v2-periphery-master/v2-periphery-master/contracts/DEXV2Router01.sol\":2497:2503  tokenB */\n      dup13\n        /* \"v2-periphery-master/v2-periphery-master/contracts/DEXV2Router01.sol\":2505:2519  amountADesired */\n      dup13\n        /* \"v2-periphery-master/v2-periphery-master/contracts/DEXV2Router01.sol\":2521:2535  amountBDesired */\n      dup13\n        /* \"v2-periphery-master/v2-periphery-master/contracts/DEXV2Router01.sol\":2537:2547  amountAMin */\n      dup13\n        /* \"v2-periphery-master/v2-periphery-master/contracts/DEXV2Router01.sol\":2549:2559  amountBMin */\n      dup13\n        /* \"v2-periphery-master/v2-periphery-master/contracts/DEXV2Router01.sol\":2475:2488  _addLiquidity */\n      tag_303\n        /* \"v2-periphery-master/v2-periphery-master/contracts/DEXV2Router01.sol\":2475:2560  _addLiquidity(tokenA, tokenB, amountADesired, amountBDesired, amountAMin, amountBMin) */\n      jump\t// in\n    tag_302:\n        /* \"v2-periphery-master/v2-periphery-master/contracts/DEXV2Router01.sol\":2454:2560  (amountA, amountB) = _addLiquidity(tokenA, tokenB, amountADesired, amountBDesired, amountAMin, amountBMin) */\n      swap1\n      swap5\n      pop\n      swap3\n      pop\n        /* \"v2-periphery-master/v2-periphery-master/contracts/DEXV2Router01.sol\":2570:2582  address pair */\n      0x00\n        /* \"v2-periphery-master/v2-periphery-master/contracts/DEXV2Router01.sol\":2585:2630  DEXV2Library.pairFor(factory, tokenA, tokenB) */\n      tag_304\n        /* \"v2-periphery-master/v2-periphery-master/contracts/DEXV2Router01.sol\":2606:2613  factory */\n      immutable(\"0x7f8b6b088b6d74c2852fc86c796dca07b44eed6fb3daf5e6b59f7c364db14528\")\n        /* \"v2-periphery-master/v2-periphery-master/contracts/DEXV2Router01.sol\":2615:2621  tokenA */\n      dup15\n        /* \"v2-periphery-master/v2-periphery-master/contracts/DEXV2Router01.sol\":2623:2629  tokenB */\n      dup15\n        /* \"v2-periphery-master/v2-periphery-master/contracts/DEXV2Router01.sol\":2585:2605  DEXV2Library.pairFor */\n      tag_175\n        /* \"v2-periphery-master/v2-periphery-master/contracts/DEXV2Router01.sol\":2585:2630  DEXV2Library.pairFor(factory, tokenA, tokenB) */\n      jump\t// in\n    tag_304:\n        /* \"v2-periphery-master/v2-periphery-master/contracts/DEXV2Router01.sol\":2570:2630  address pair = DEXV2Library.pairFor(factory, tokenA, tokenB) */\n      swap1\n      pop\n        /* \"v2-periphery-master/v2-periphery-master/contracts/DEXV2Router01.sol\":2640:2706  TransferHelper.safeTransferFrom(tokenA, msg.sender, pair, amountA) */\n      tag_305\n        /* \"v2-periphery-master/v2-periphery-master/contracts/DEXV2Router01.sol\":2672:2678  tokenA */\n      dup14\n        /* \"v2-periphery-master/v2-periphery-master/contracts/DEXV2Router01.sol\":2680:2690  msg.sender */\n      caller\n        /* \"v2-periphery-master/v2-periphery-master/contracts/DEXV2Router01.sol\":2692:2696  pair */\n      dup4\n        /* \"v2-periphery-master/v2-periphery-master/contracts/DEXV2Router01.sol\":2698:2705  amountA */\n      dup9\n        /* \"v2-periphery-master/v2-periphery-master/contracts/DEXV2Router01.sol\":2640:2671  TransferHelper.safeTransferFrom */\n      tag_177\n        /* \"v2-periphery-master/v2-periphery-master/contracts/DEXV2Router01.sol\":2640:2706  TransferHelper.safeTransferFrom(tokenA, msg.sender, pair, amountA) */\n      jump\t// in\n    tag_305:\n        /* \"v2-periphery-master/v2-periphery-master/contracts/DEXV2Router01.sol\":2716:2782  TransferHelper.safeTransferFrom(tokenB, msg.sender, pair, amountB) */\n      tag_306\n        /* \"v2-periphery-master/v2-periphery-master/contracts/DEXV2Router01.sol\":2748:2754  tokenB */\n      dup13\n        /* \"v2-periphery-master/v2-periphery-master/contracts/DEXV2Router01.sol\":2756:2766  msg.sender */\n      caller\n        /* \"v2-periphery-master/v2-periphery-master/contracts/DEXV2Router01.sol\":2768:2772  pair */\n      dup4\n        /* \"v2-periphery-master/v2-periphery-master/contracts/DEXV2Router01.sol\":2774:2781  amountB */\n      dup8\n        /* \"v2-periphery-master/v2-periphery-master/contracts/DEXV2Router01.sol\":2716:2747  TransferHelper.safeTransferFrom */\n      tag_177\n        /* \"v2-periphery-master/v2-periphery-master/contracts/DEXV2Router01.sol\":2716:2782  TransferHelper.safeTransferFrom(tokenB, msg.sender, pair, amountB) */\n      jump\t// in\n    tag_306:\n        /* \"v2-periphery-master/v2-periphery-master/contracts/DEXV2Router01.sol\":2815:2819  pair */\n      dup1\n      sub(shl(0xa0, 0x01), 0x01)\n        /* \"v2-periphery-master/v2-periphery-master/contracts/DEXV2Router01.sol\":2804:2825  IDEXV2Pair(pair).mint */\n      and\n      0x6a627842\n        /* \"v2-periphery-master/v2-periphery-master/contracts/DEXV2Router01.sol\":2826:2828  to */\n      dup9\n        /* \"v2-periphery-master/v2-periphery-master/contracts/DEXV2Router01.sol\":2804:2829  IDEXV2Pair(pair).mint(to) */\n      mload(0x40)\n      dup3\n      0xffffffff\n      and\n      0xe0\n      shl\n      dup2\n      mstore\n      0x04\n      add\n      dup1\n      dup3\n      sub(shl(0xa0, 0x01), 0x01)\n      and\n      sub(shl(0xa0, 0x01), 0x01)\n      and\n      dup2\n      mstore\n      0x20\n      add\n      swap2\n      pop\n      pop\n      0x20\n      mload(0x40)\n      dup1\n      dup4\n      sub\n      dup2\n      0x00\n      dup8\n      dup1\n      extcodesize\n      iszero\n        /* \"--CODEGEN--\":5:14   */\n      dup1\n        /* \"--CODEGEN--\":2:4   */\n      iszero\n      tag_307\n      jumpi\n        /* \"--CODEGEN--\":27:28   */\n      0x00\n        /* \"--CODEGEN--\":24:25   */\n      dup1\n        /* \"--CODEGEN--\":17:29   */\n      revert\n        /* \"--CODEGEN--\":2:4   */\n    tag_307:\n        /* \"v2-periphery-master/v2-periphery-master/contracts/DEXV2Router01.sol\":2804:2829  IDEXV2Pair(pair).mint(to) */\n      pop\n      gas\n      call\n      iszero\n        /* \"--CODEGEN--\":8:17   */\n      dup1\n        /* \"--CODEGEN--\":5:7   */\n      iszero\n      tag_309\n      jumpi\n        /* \"--CODEGEN--\":45:61   */\n      returndatasize\n        /* \"--CODEGEN--\":42:43   */\n      0x00\n        /* \"--CODEGEN--\":39:40   */\n      dup1\n        /* \"--CODEGEN--\":24:62   */\n      returndatacopy\n        /* \"--CODEGEN--\":77:93   */\n      returndatasize\n        /* \"--CODEGEN--\":74:75   */\n      0x00\n        /* \"--CODEGEN--\":67:94   */\n      revert\n        /* \"--CODEGEN--\":5:7   */\n    tag_309:\n        /* \"v2-periphery-master/v2-periphery-master/contracts/DEXV2Router01.sol\":2804:2829  IDEXV2Pair(pair).mint(to) */\n      pop\n      pop\n      pop\n      pop\n      mload(0x40)\n      returndatasize\n        /* \"--CODEGEN--\":15:17   */\n      0x20\n        /* \"--CODEGEN--\":10:13   */\n      dup2\n        /* \"--CODEGEN--\":7:18   */\n      lt\n        /* \"--CODEGEN--\":4:6   */\n      iszero\n      tag_310\n      jumpi\n        /* \"--CODEGEN--\":31:32   */\n      0x00\n        /* \"--CODEGEN--\":28:29   */\n      dup1\n        /* \"--CODEGEN--\":21:33   */\n      revert\n        /* \"--CODEGEN--\":4:6   */\n    tag_310:\n      pop\n        /* \"v2-periphery-master/v2-periphery-master/contracts/DEXV2Router01.sol\":2804:2829  IDEXV2Pair(pair).mint(to) */\n      mload\n        /* \"v2-periphery-master/v2-periphery-master/contracts/DEXV2Router01.sol\":2129:2836  function addLiquidity(... */\n      swap5\n      swap14\n      swap4\n      swap13\n      pop\n        /* \"v2-periphery-master/v2-periphery-master/contracts/DEXV2Router01.sol\":2804:2829  IDEXV2Pair(pair).mint(to) */\n      swap4\n      swap11\n      pop\n        /* \"v2-periphery-master/v2-periphery-master/contracts/DEXV2Router01.sol\":2129:2836  function addLiquidity(... */\n      swap2\n      swap9\n      pop\n      pop\n      pop\n      pop\n      pop\n      pop\n      pop\n      pop\n      pop\n      jump\t// out\n        /* \"v2-periphery-master/v2-periphery-master/contracts/DEXV2Router01.sol\":2841:3768  function addLiquidityETH(... */\n    tag_137:\n        /* \"v2-periphery-master/v2-periphery-master/contracts/DEXV2Router01.sol\":3079:3095  uint amountToken */\n      0x00\n        /* \"v2-periphery-master/v2-periphery-master/contracts/DEXV2Router01.sol\":3097:3111  uint amountETH */\n      dup1\n        /* \"v2-periphery-master/v2-periphery-master/contracts/DEXV2Router01.sol\":3113:3127  uint liquidity */\n      0x00\n        /* \"v2-periphery-master/v2-periphery-master/contracts/DEXV2Router01.sol\":3060:3068  deadline */\n      dup4\n        /* \"v2-periphery-master/v2-periphery-master/contracts/DEXV2Router01.sol\":457:472  block.timestamp */\n      timestamp\n        /* \"v2-periphery-master/v2-periphery-master/contracts/DEXV2Router01.sol\":445:453  deadline */\n      dup2\n        /* \"v2-periphery-master/v2-periphery-master/contracts/DEXV2Router01.sol\":445:472  deadline >= block.timestamp */\n      lt\n      iszero\n        /* \"v2-periphery-master/v2-periphery-master/contracts/DEXV2Router01.sol\":437:497  require(deadline >= block.timestamp, 'DEXV2Router: EXPIRED') */\n      tag_312\n      jumpi\n      0x40\n      dup1\n      mload\n      shl(0xe5, 0x461bcd)\n      dup2\n      mstore\n      0x20\n      0x04\n      dup3\n      add\n      mstore\n      0x14\n      0x24\n      dup3\n      add\n      mstore\n      0x00\n      dup1\n      mload\n      0x20\n      data_e8771a28dca17dc1df8d79bac70548e4ade379e3d726e3fef2a0cf06071509f4\n      dup4\n      codecopy\n      dup2\n      mload\n      swap2\n      mstore\n      0x44\n      dup3\n      add\n      mstore\n      swap1\n      mload\n      swap1\n      dup2\n      swap1\n      sub\n      0x64\n      add\n      swap1\n      revert\n    tag_312:\n        /* \"v2-periphery-master/v2-periphery-master/contracts/DEXV2Router01.sol\":3166:3335  _addLiquidity(... */\n      tag_314\n        /* \"v2-periphery-master/v2-periphery-master/contracts/DEXV2Router01.sol\":3193:3198  token */\n      dup11\n        /* \"v2-periphery-master/v2-periphery-master/contracts/DEXV2Router01.sol\":3212:3216  WETH */\n      immutable(\"0x1d3be50b2bb17407dd170f1d5da128d1def30c6b1598d6a629e79b4775265526\")\n        /* \"v2-periphery-master/v2-periphery-master/contracts/DEXV2Router01.sol\":3230:3248  amountTokenDesired */\n      dup12\n        /* \"v2-periphery-master/v2-periphery-master/contracts/DEXV2Router01.sol\":3262:3271  msg.value */\n      callvalue\n        /* \"v2-periphery-master/v2-periphery-master/contracts/DEXV2Router01.sol\":3285:3299  amountTokenMin */\n      dup13\n        /* \"v2-periphery-master/v2-periphery-master/contracts/DEXV2Router01.sol\":3313:3325  amountETHMin */\n      dup13\n        /* \"v2-periphery-master/v2-periphery-master/contracts/DEXV2Router01.sol\":3166:3179  _addLiquidity */\n      tag_303\n        /* \"v2-periphery-master/v2-periphery-master/contracts/DEXV2Router01.sol\":3166:3335  _addLiquidity(... */\n      jump\t// in\n    tag_314:\n        /* \"v2-periphery-master/v2-periphery-master/contracts/DEXV2Router01.sol\":3139:3335  (amountToken, amountETH) = _addLiquidity(... */\n      swap1\n      swap5\n      pop\n      swap3\n      pop\n        /* \"v2-periphery-master/v2-periphery-master/contracts/DEXV2Router01.sol\":3345:3357  address pair */\n      0x00\n        /* \"v2-periphery-master/v2-periphery-master/contracts/DEXV2Router01.sol\":3360:3402  DEXV2Library.pairFor(factory, token, WETH) */\n      tag_315\n        /* \"v2-periphery-master/v2-periphery-master/contracts/DEXV2Router01.sol\":3381:3388  factory */\n      immutable(\"0x7f8b6b088b6d74c2852fc86c796dca07b44eed6fb3daf5e6b59f7c364db14528\")\n        /* \"v2-periphery-master/v2-periphery-master/contracts/DEXV2Router01.sol\":3390:3395  token */\n      dup13\n        /* \"v2-periphery-master/v2-periphery-master/contracts/DEXV2Router01.sol\":3397:3401  WETH */\n      immutable(\"0x1d3be50b2bb17407dd170f1d5da128d1def30c6b1598d6a629e79b4775265526\")\n        /* \"v2-periphery-master/v2-periphery-master/contracts/DEXV2Router01.sol\":3360:3380  DEXV2Library.pairFor */\n      tag_175\n        /* \"v2-periphery-master/v2-periphery-master/contracts/DEXV2Router01.sol\":3360:3402  DEXV2Library.pairFor(factory, token, WETH) */\n      jump\t// in\n    tag_315:\n        /* \"v2-periphery-master/v2-periphery-master/contracts/DEXV2Router01.sol\":3345:3402  address pair = DEXV2Library.pairFor(factory, token, WETH) */\n      swap1\n      pop\n        /* \"v2-periphery-master/v2-periphery-master/contracts/DEXV2Router01.sol\":3412:3481  TransferHelper.safeTransferFrom(token, msg.sender, pair, amountToken) */\n      tag_316\n        /* \"v2-periphery-master/v2-periphery-master/contracts/DEXV2Router01.sol\":3444:3449  token */\n      dup12\n        /* \"v2-periphery-master/v2-periphery-master/contracts/DEXV2Router01.sol\":3451:3461  msg.sender */\n      caller\n        /* \"v2-periphery-master/v2-periphery-master/contracts/DEXV2Router01.sol\":3463:3467  pair */\n      dup4\n        /* \"v2-periphery-master/v2-periphery-master/contracts/DEXV2Router01.sol\":3469:3480  amountToken */\n      dup9\n        /* \"v2-periphery-master/v2-periphery-master/contracts/DEXV2Router01.sol\":3412:3443  TransferHelper.safeTransferFrom */\n      tag_177\n        /* \"v2-periphery-master/v2-periphery-master/contracts/DEXV2Router01.sol\":3412:3481  TransferHelper.safeTransferFrom(token, msg.sender, pair, amountToken) */\n      jump\t// in\n    tag_316:\n        /* \"v2-periphery-master/v2-periphery-master/contracts/DEXV2Router01.sol\":3497:3501  WETH */\n      immutable(\"0x1d3be50b2bb17407dd170f1d5da128d1def30c6b1598d6a629e79b4775265526\")\n      sub(shl(0xa0, 0x01), 0x01)\n        /* \"v2-periphery-master/v2-periphery-master/contracts/DEXV2Router01.sol\":3491:3510  IWETH(WETH).deposit */\n      and\n      0xd0e30db0\n        /* \"v2-periphery-master/v2-periphery-master/contracts/DEXV2Router01.sol\":3518:3527  amountETH */\n      dup6\n        /* \"v2-periphery-master/v2-periphery-master/contracts/DEXV2Router01.sol\":3491:3530  IWETH(WETH).deposit{value: amountETH}() */\n      mload(0x40)\n      dup3\n      0xffffffff\n      and\n      0xe0\n      shl\n      dup2\n      mstore\n      0x04\n      add\n      0x00\n      mload(0x40)\n      dup1\n      dup4\n      sub\n      dup2\n      dup6\n      dup9\n      dup1\n      extcodesize\n      iszero\n        /* \"--CODEGEN--\":5:14   */\n      dup1\n        /* \"--CODEGEN--\":2:4   */\n      iszero\n      tag_317\n      jumpi\n        /* \"--CODEGEN--\":27:28   */\n      0x00\n        /* \"--CODEGEN--\":24:25   */\n      dup1\n        /* \"--CODEGEN--\":17:29   */\n      revert\n        /* \"--CODEGEN--\":2:4   */\n    tag_317:\n        /* \"v2-periphery-master/v2-periphery-master/contracts/DEXV2Router01.sol\":3491:3530  IWETH(WETH).deposit{value: amountETH}() */\n      pop\n      gas\n      call\n      iszero\n        /* \"--CODEGEN--\":8:17   */\n      dup1\n        /* \"--CODEGEN--\":5:7   */\n      iszero\n      tag_319\n      jumpi\n        /* \"--CODEGEN--\":45:61   */\n      returndatasize\n        /* \"--CODEGEN--\":42:43   */\n      0x00\n        /* \"--CODEGEN--\":39:40   */\n      dup1\n        /* \"--CODEGEN--\":24:62   */\n      returndatacopy\n        /* \"--CODEGEN--\":77:93   */\n      returndatasize\n        /* \"--CODEGEN--\":74:75   */\n      0x00\n        /* \"--CODEGEN--\":67:94   */\n      revert\n        /* \"--CODEGEN--\":5:7   */\n    tag_319:\n        /* \"v2-periphery-master/v2-periphery-master/contracts/DEXV2Router01.sol\":3491:3530  IWETH(WETH).deposit{value: amountETH}() */\n      pop\n      pop\n      pop\n      pop\n      pop\n        /* \"v2-periphery-master/v2-periphery-master/contracts/DEXV2Router01.sol\":3553:3557  WETH */\n      immutable(\"0x1d3be50b2bb17407dd170f1d5da128d1def30c6b1598d6a629e79b4775265526\")\n      sub(shl(0xa0, 0x01), 0x01)\n        /* \"v2-periphery-master/v2-periphery-master/contracts/DEXV2Router01.sol\":3547:3567  IWETH(WETH).transfer */\n      and\n      0xa9059cbb\n        /* \"v2-periphery-master/v2-periphery-master/contracts/DEXV2Router01.sol\":3568:3572  pair */\n      dup3\n        /* \"v2-periphery-master/v2-periphery-master/contracts/DEXV2Router01.sol\":3574:3583  amountETH */\n      dup7\n        /* \"v2-periphery-master/v2-periphery-master/contracts/DEXV2Router01.sol\":3547:3584  IWETH(WETH).transfer(pair, amountETH) */\n      mload(0x40)\n      dup4\n      0xffffffff\n      and\n      0xe0\n      shl\n      dup2\n      mstore\n      0x04\n      add\n      dup1\n      dup4\n      sub(shl(0xa0, 0x01), 0x01)\n      and\n      sub(shl(0xa0, 0x01), 0x01)\n      and\n      dup2\n      mstore\n      0x20\n      add\n      dup3\n      dup2\n      mstore\n      0x20\n      add\n      swap3\n      pop\n      pop\n      pop\n      0x20\n      mload(0x40)\n      dup1\n      dup4\n      sub\n      dup2\n      0x00\n      dup8\n      dup1\n      extcodesize\n      iszero\n        /* \"--CODEGEN--\":5:14   */\n      dup1\n        /* \"--CODEGEN--\":2:4   */\n      iszero\n      tag_320\n      jumpi\n        /* \"--CODEGEN--\":27:28   */\n      0x00\n        /* \"--CODEGEN--\":24:25   */\n      dup1\n        /* \"--CODEGEN--\":17:29   */\n      revert\n        /* \"--CODEGEN--\":2:4   */\n    tag_320:\n        /* \"v2-periphery-master/v2-periphery-master/contracts/DEXV2Router01.sol\":3547:3584  IWETH(WETH).transfer(pair, amountETH) */\n      pop\n      gas\n      call\n      iszero\n        /* \"--CODEGEN--\":8:17   */\n      dup1\n        /* \"--CODEGEN--\":5:7   */\n      iszero\n      tag_322\n      jumpi\n        /* \"--CODEGEN--\":45:61   */\n      returndatasize\n        /* \"--CODEGEN--\":42:43   */\n      0x00\n        /* \"--CODEGEN--\":39:40   */\n      dup1\n        /* \"--CODEGEN--\":24:62   */\n      returndatacopy\n        /* \"--CODEGEN--\":77:93   */\n      returndatasize\n        /* \"--CODEGEN--\":74:75   */\n      0x00\n        /* \"--CODEGEN--\":67:94   */\n      revert\n        /* \"--CODEGEN--\":5:7   */\n    tag_322:\n        /* \"v2-periphery-master/v2-periphery-master/contracts/DEXV2Router01.sol\":3547:3584  IWETH(WETH).transfer(pair, amountETH) */\n      pop\n      pop\n      pop\n      pop\n      mload(0x40)\n      returndatasize\n        /* \"--CODEGEN--\":15:17   */\n      0x20\n        /* \"--CODEGEN--\":10:13   */\n      dup2\n        /* \"--CODEGEN--\":7:18   */\n      lt\n        /* \"--CODEGEN--\":4:6   */\n      iszero\n      tag_323\n      jumpi\n        /* \"--CODEGEN--\":31:32   */\n      0x00\n        /* \"--CODEGEN--\":28:29   */\n      dup1\n        /* \"--CODEGEN--\":21:33   */\n      revert\n        /* \"--CODEGEN--\":4:6   */\n    tag_323:\n      pop\n        /* \"v2-periphery-master/v2-periphery-master/contracts/DEXV2Router01.sol\":3547:3584  IWETH(WETH).transfer(pair, amountETH) */\n      mload\n        /* \"v2-periphery-master/v2-periphery-master/contracts/DEXV2Router01.sol\":3540:3585  assert(IWETH(WETH).transfer(pair, amountETH)) */\n      tag_324\n      jumpi\n      invalid\n    tag_324:\n        /* \"v2-periphery-master/v2-periphery-master/contracts/DEXV2Router01.sol\":3618:3622  pair */\n      dup1\n      sub(shl(0xa0, 0x01), 0x01)\n        /* \"v2-periphery-master/v2-periphery-master/contracts/DEXV2Router01.sol\":3607:3628  IDEXV2Pair(pair).mint */\n      and\n      0x6a627842\n        /* \"v2-periphery-master/v2-periphery-master/contracts/DEXV2Router01.sol\":3629:3631  to */\n      dup9\n        /* \"v2-periphery-master/v2-periphery-master/contracts/DEXV2Router01.sol\":3607:3632  IDEXV2Pair(pair).mint(to) */\n      mload(0x40)\n      dup3\n      0xffffffff\n      and\n      0xe0\n      shl\n      dup2\n      mstore\n      0x04\n      add\n      dup1\n      dup3\n      sub(shl(0xa0, 0x01), 0x01)\n      and\n      sub(shl(0xa0, 0x01), 0x01)\n      and\n      dup2\n      mstore\n      0x20\n      add\n      swap2\n      pop\n      pop\n      0x20\n      mload(0x40)\n      dup1\n      dup4\n      sub\n      dup2\n      0x00\n      dup8\n      dup1\n      extcodesize\n      iszero\n        /* \"--CODEGEN--\":5:14   */\n      dup1\n        /* \"--CODEGEN--\":2:4   */\n      iszero\n      tag_325\n      jumpi\n        /* \"--CODEGEN--\":27:28   */\n      0x00\n        /* \"--CODEGEN--\":24:25   */\n      dup1\n        /* \"--CODEGEN--\":17:29   */\n      revert\n        /* \"--CODEGEN--\":2:4   */\n    tag_325:\n        /* \"v2-periphery-master/v2-periphery-master/contracts/DEXV2Router01.sol\":3607:3632  IDEXV2Pair(pair).mint(to) */\n      pop\n      gas\n      call\n      iszero\n        /* \"--CODEGEN--\":8:17   */\n      dup1\n        /* \"--CODEGEN--\":5:7   */\n      iszero\n      tag_327\n      jumpi\n        /* \"--CODEGEN--\":45:61   */\n      returndatasize\n        /* \"--CODEGEN--\":42:43   */\n      0x00\n        /* \"--CODEGEN--\":39:40   */\n      dup1\n        /* \"--CODEGEN--\":24:62   */\n      returndatacopy\n        /* \"--CODEGEN--\":77:93   */\n      returndatasize\n        /* \"--CODEGEN--\":74:75   */\n      0x00\n        /* \"--CODEGEN--\":67:94   */\n      revert\n        /* \"--CODEGEN--\":5:7   */\n    tag_327:\n        /* \"v2-periphery-master/v2-periphery-master/contracts/DEXV2Router01.sol\":3607:3632  IDEXV2Pair(pair).mint(to) */\n      pop\n      pop\n      pop\n      pop\n      mload(0x40)\n      returndatasize\n        /* \"--CODEGEN--\":15:17   */\n      0x20\n        /* \"--CODEGEN--\":10:13   */\n      dup2\n        /* \"--CODEGEN--\":7:18   */\n      lt\n        /* \"--CODEGEN--\":4:6   */\n      iszero\n      tag_328\n      jumpi\n        /* \"--CODEGEN--\":31:32   */\n      0x00\n        /* \"--CODEGEN--\":28:29   */\n      dup1\n        /* \"--CODEGEN--\":21:33   */\n      revert\n        /* \"--CODEGEN--\":4:6   */\n    tag_328:\n      pop\n        /* \"v2-periphery-master/v2-periphery-master/contracts/DEXV2Router01.sol\":3607:3632  IDEXV2Pair(pair).mint(to) */\n      mload\n      swap3\n      pop\n        /* \"v2-periphery-master/v2-periphery-master/contracts/DEXV2Router01.sol\":3646:3655  msg.value */\n      callvalue\n        /* \"v2-periphery-master/v2-periphery-master/contracts/DEXV2Router01.sol\":3646:3667  msg.value > amountETH */\n      dup5\n      lt\n        /* \"v2-periphery-master/v2-periphery-master/contracts/DEXV2Router01.sol\":3642:3734  if (msg.value > amountETH) TransferHelper.safeTransferETH(msg.sender, msg.value - amountETH) */\n      iszero\n      tag_330\n      jumpi\n        /* \"v2-periphery-master/v2-periphery-master/contracts/DEXV2Router01.sol\":3669:3734  TransferHelper.safeTransferETH(msg.sender, msg.value - amountETH) */\n      tag_330\n        /* \"v2-periphery-master/v2-periphery-master/contracts/DEXV2Router01.sol\":3700:3710  msg.sender */\n      caller\n        /* \"v2-periphery-master/v2-periphery-master/contracts/DEXV2Router01.sol\":3724:3733  amountETH */\n      dup6\n        /* \"v2-periphery-master/v2-periphery-master/contracts/DEXV2Router01.sol\":3712:3721  msg.value */\n      callvalue\n        /* \"v2-periphery-master/v2-periphery-master/contracts/DEXV2Router01.sol\":3712:3733  msg.value - amountETH */\n      sub\n        /* \"v2-periphery-master/v2-periphery-master/contracts/DEXV2Router01.sol\":3669:3699  TransferHelper.safeTransferETH */\n      tag_157\n        /* \"v2-periphery-master/v2-periphery-master/contracts/DEXV2Router01.sol\":3669:3734  TransferHelper.safeTransferETH(msg.sender, msg.value - amountETH) */\n      jump\t// in\n    tag_330:\n        /* \"v2-periphery-master/v2-periphery-master/contracts/DEXV2Router01.sol\":507:508  _ */\n      pop\n        /* \"v2-periphery-master/v2-periphery-master/contracts/DEXV2Router01.sol\":2841:3768  function addLiquidityETH(... */\n      pop\n      swap7\n      pop\n      swap7\n      pop\n      swap7\n      swap4\n      pop\n      pop\n      pop\n      pop\n      jump\t// out\n        /* \"v2-periphery-master/v2-periphery-master/contracts/DEXV2Router01.sol\":10691:11445  function swapETHForExactTokens(uint amountOut, address[] calldata path, address to, uint deadline)... */\n    tag_143:\n        /* \"v2-periphery-master/v2-periphery-master/contracts/DEXV2Router01.sol\":10882:10903  uint[] memory amounts */\n      0x60\n        /* \"v2-periphery-master/v2-periphery-master/contracts/DEXV2Router01.sol\":10855:10863  deadline */\n      dup2\n        /* \"v2-periphery-master/v2-periphery-master/contracts/DEXV2Router01.sol\":457:472  block.timestamp */\n      timestamp\n        /* \"v2-periphery-master/v2-periphery-master/contracts/DEXV2Router01.sol\":445:453  deadline */\n      dup2\n        /* \"v2-periphery-master/v2-periphery-master/contracts/DEXV2Router01.sol\":445:472  deadline >= block.timestamp */\n      lt\n      iszero\n        /* \"v2-periphery-master/v2-periphery-master/contracts/DEXV2Router01.sol\":437:497  require(deadline >= block.timestamp, 'DEXV2Router: EXPIRED') */\n      tag_332\n      jumpi\n      0x40\n      dup1\n      mload\n      shl(0xe5, 0x461bcd)\n      dup2\n      mstore\n      0x20\n      0x04\n      dup3\n      add\n      mstore\n      0x14\n      0x24\n      dup3\n      add\n      mstore\n      0x00\n      dup1\n      mload\n      0x20\n      data_e8771a28dca17dc1df8d79bac70548e4ade379e3d726e3fef2a0cf06071509f4\n      dup4\n      codecopy\n      dup2\n      mload\n      swap2\n      mstore\n      0x44\n      dup3\n      add\n      mstore\n      swap1\n      mload\n      swap1\n      dup2\n      swap1\n      sub\n      0x64\n      add\n      swap1\n      revert\n    tag_332:\n        /* \"v2-periphery-master/v2-periphery-master/contracts/DEXV2Router01.sol\":10938:10942  WETH */\n      immutable(\"0x1d3be50b2bb17407dd170f1d5da128d1def30c6b1598d6a629e79b4775265526\")\n      sub(shl(0xa0, 0x01), 0x01)\n        /* \"v2-periphery-master/v2-periphery-master/contracts/DEXV2Router01.sol\":10927:10942  path[0] == WETH */\n      and\n        /* \"v2-periphery-master/v2-periphery-master/contracts/DEXV2Router01.sol\":10927:10931  path */\n      dup7\n      dup7\n        /* \"v2-periphery-master/v2-periphery-master/contracts/DEXV2Router01.sol\":10932:10933  0 */\n      0x00\n        /* \"v2-periphery-master/v2-periphery-master/contracts/DEXV2Router01.sol\":10927:10934  path[0] */\n      dup2\n      dup2\n      lt\n      tag_334\n      jumpi\n      invalid\n    tag_334:\n      swap1\n      pop\n      0x20\n      mul\n      add\n      calldataload\n      sub(shl(0xa0, 0x01), 0x01)\n      and\n      sub(shl(0xa0, 0x01), 0x01)\n        /* \"v2-periphery-master/v2-periphery-master/contracts/DEXV2Router01.sol\":10927:10942  path[0] == WETH */\n      and\n      eq\n        /* \"v2-periphery-master/v2-periphery-master/contracts/DEXV2Router01.sol\":10919:10972  require(path[0] == WETH, 'DEXV2Router: INVALID_PATH') */\n      tag_335\n      jumpi\n      0x40\n      dup1\n      mload\n      shl(0xe5, 0x461bcd)\n      dup2\n      mstore\n      0x20\n      0x04\n      dup3\n      add\n      mstore\n      0x19\n      0x24\n      dup3\n      add\n      mstore\n      shl(0x3b, 0x0888ab0ac64a4deeae8cae47440929cac82989288bea082a89)\n      0x44\n      dup3\n      add\n      mstore\n      swap1\n      mload\n      swap1\n      dup2\n      swap1\n      sub\n      0x64\n      add\n      swap1\n      revert\n    tag_335:\n        /* \"v2-periphery-master/v2-periphery-master/contracts/DEXV2Router01.sol\":10992:11043  DEXV2Library.getAmountsIn(factory, amountOut, path) */\n      tag_336\n        /* \"v2-periphery-master/v2-periphery-master/contracts/DEXV2Router01.sol\":11018:11025  factory */\n      immutable(\"0x7f8b6b088b6d74c2852fc86c796dca07b44eed6fb3daf5e6b59f7c364db14528\")\n        /* \"v2-periphery-master/v2-periphery-master/contracts/DEXV2Router01.sol\":11027:11036  amountOut */\n      dup9\n        /* \"v2-periphery-master/v2-periphery-master/contracts/DEXV2Router01.sol\":11038:11042  path */\n      dup9\n      dup9\n        /* \"v2-periphery-master/v2-periphery-master/contracts/DEXV2Router01.sol\":10992:11043  DEXV2Library.getAmountsIn(factory, amountOut, path) */\n      dup1\n      dup1\n      0x20\n      mul\n      0x20\n      add\n      mload(0x40)\n      swap1\n      dup2\n      add\n      0x40\n      mstore\n      dup1\n      swap4\n      swap3\n      swap2\n      swap1\n      dup2\n      dup2\n      mstore\n      0x20\n      add\n      dup4\n      dup4\n      0x20\n      mul\n        /* \"--CODEGEN--\":30:33   */\n      dup1\n        /* \"--CODEGEN--\":22:28   */\n      dup3\n        /* \"--CODEGEN--\":14:20   */\n      dup5\n        /* \"--CODEGEN--\":1:34   */\n      calldatacopy\n        /* \"--CODEGEN--\":99:100   */\n      0x00\n        /* \"--CODEGEN--\":81:97   */\n      swap3\n      add\n        /* \"--CODEGEN--\":74:101   */\n      swap2\n      swap1\n      swap2\n      mstore\n      pop\n        /* \"v2-periphery-master/v2-periphery-master/contracts/DEXV2Router01.sol\":10992:11017  DEXV2Library.getAmountsIn */\n      tag_188\n      swap3\n      pop\n      pop\n      pop\n        /* \"v2-periphery-master/v2-periphery-master/contracts/DEXV2Router01.sol\":10992:11043  DEXV2Library.getAmountsIn(factory, amountOut, path) */\n      jump\t// in\n    tag_336:\n        /* \"v2-periphery-master/v2-periphery-master/contracts/DEXV2Router01.sol\":10982:11043  amounts = DEXV2Library.getAmountsIn(factory, amountOut, path) */\n      swap2\n      pop\n        /* \"v2-periphery-master/v2-periphery-master/contracts/DEXV2Router01.sol\":11075:11084  msg.value */\n      callvalue\n        /* \"v2-periphery-master/v2-periphery-master/contracts/DEXV2Router01.sol\":11061:11068  amounts */\n      dup3\n        /* \"v2-periphery-master/v2-periphery-master/contracts/DEXV2Router01.sol\":11069:11070  0 */\n      0x00\n        /* \"v2-periphery-master/v2-periphery-master/contracts/DEXV2Router01.sol\":11061:11071  amounts[0] */\n      dup2\n      mload\n      dup2\n      lt\n      tag_337\n      jumpi\n      invalid\n    tag_337:\n      0x20\n      mul\n      0x20\n      add\n      add\n      mload\n        /* \"v2-periphery-master/v2-periphery-master/contracts/DEXV2Router01.sol\":11061:11084  amounts[0] <= msg.value */\n      gt\n      iszero\n        /* \"v2-periphery-master/v2-periphery-master/contracts/DEXV2Router01.sol\":11053:11124  require(amounts[0] <= msg.value, 'DEXV2Router: EXCESSIVE_INPUT_AMOUNT') */\n      tag_338\n      jumpi\n      mload(0x40)\n      shl(0xe5, 0x461bcd)\n      dup2\n      mstore\n      0x04\n      add\n      dup1\n      dup1\n      0x20\n      add\n      dup3\n      dup2\n      sub\n      dup3\n      mstore\n      0x23\n      dup2\n      mstore\n      0x20\n      add\n      dup1\n      data_ee7996df7f37b160878d34af17d15f428d17eb5fa3f082d192231dfdcd51de05\n      0x23\n      swap2\n      codecopy\n      0x40\n      add\n      swap2\n      pop\n      pop\n      mload(0x40)\n      dup1\n      swap2\n      sub\n      swap1\n      revert\n    tag_338:\n        /* \"v2-periphery-master/v2-periphery-master/contracts/DEXV2Router01.sol\":11140:11144  WETH */\n      immutable(\"0x1d3be50b2bb17407dd170f1d5da128d1def30c6b1598d6a629e79b4775265526\")\n      sub(shl(0xa0, 0x01), 0x01)\n        /* \"v2-periphery-master/v2-periphery-master/contracts/DEXV2Router01.sol\":11134:11153  IWETH(WETH).deposit */\n      and\n      0xd0e30db0\n        /* \"v2-periphery-master/v2-periphery-master/contracts/DEXV2Router01.sol\":11161:11168  amounts */\n      dup4\n        /* \"v2-periphery-master/v2-periphery-master/contracts/DEXV2Router01.sol\":11169:11170  0 */\n      0x00\n        /* \"v2-periphery-master/v2-periphery-master/contracts/DEXV2Router01.sol\":11161:11171  amounts[0] */\n      dup2\n      mload\n      dup2\n      lt\n      tag_339\n      jumpi\n      invalid\n    tag_339:\n      0x20\n      mul\n      0x20\n      add\n      add\n      mload\n        /* \"v2-periphery-master/v2-periphery-master/contracts/DEXV2Router01.sol\":11134:11174  IWETH(WETH).deposit{value: amounts[0]}() */\n      mload(0x40)\n      dup3\n      0xffffffff\n      and\n      0xe0\n      shl\n      dup2\n      mstore\n      0x04\n      add\n      0x00\n      mload(0x40)\n      dup1\n      dup4\n      sub\n      dup2\n      dup6\n      dup9\n      dup1\n      extcodesize\n      iszero\n        /* \"--CODEGEN--\":5:14   */\n      dup1\n        /* \"--CODEGEN--\":2:4   */\n      iszero\n      tag_340\n      jumpi\n        /* \"--CODEGEN--\":27:28   */\n      0x00\n        /* \"--CODEGEN--\":24:25   */\n      dup1\n        /* \"--CODEGEN--\":17:29   */\n      revert\n        /* \"--CODEGEN--\":2:4   */\n    tag_340:\n        /* \"v2-periphery-master/v2-periphery-master/contracts/DEXV2Router01.sol\":11134:11174  IWETH(WETH).deposit{value: amounts[0]}() */\n      pop\n      gas\n      call\n      iszero\n        /* \"--CODEGEN--\":8:17   */\n      dup1\n        /* \"--CODEGEN--\":5:7   */\n      iszero\n      tag_342\n      jumpi\n        /* \"--CODEGEN--\":45:61   */\n      returndatasize\n        /* \"--CODEGEN--\":42:43   */\n      0x00\n        /* \"--CODEGEN--\":39:40   */\n      dup1\n        /* \"--CODEGEN--\":24:62   */\n      returndatacopy\n        /* \"--CODEGEN--\":77:93   */\n      returndatasize\n        /* \"--CODEGEN--\":74:75   */\n      0x00\n        /* \"--CODEGEN--\":67:94   */\n      revert\n        /* \"--CODEGEN--\":5:7   */\n    tag_342:\n        /* \"v2-periphery-master/v2-periphery-master/contracts/DEXV2Router01.sol\":11134:11174  IWETH(WETH).deposit{value: amounts[0]}() */\n      pop\n      pop\n      pop\n      pop\n      pop\n        /* \"v2-periphery-master/v2-periphery-master/contracts/DEXV2Router01.sol\":11197:11201  WETH */\n      immutable(\"0x1d3be50b2bb17407dd170f1d5da128d1def30c6b1598d6a629e79b4775265526\")\n      sub(shl(0xa0, 0x01), 0x01)\n        /* \"v2-periphery-master/v2-periphery-master/contracts/DEXV2Router01.sol\":11191:11211  IWETH(WETH).transfer */\n      and\n      0xa9059cbb\n        /* \"v2-periphery-master/v2-periphery-master/contracts/DEXV2Router01.sol\":11212:11259  DEXV2Library.pairFor(factory, path[0], path[1]) */\n      tag_343\n        /* \"v2-periphery-master/v2-periphery-master/contracts/DEXV2Router01.sol\":11233:11240  factory */\n      immutable(\"0x7f8b6b088b6d74c2852fc86c796dca07b44eed6fb3daf5e6b59f7c364db14528\")\n        /* \"v2-periphery-master/v2-periphery-master/contracts/DEXV2Router01.sol\":11242:11246  path */\n      dup10\n      dup10\n        /* \"v2-periphery-master/v2-periphery-master/contracts/DEXV2Router01.sol\":11247:11248  0 */\n      0x00\n        /* \"v2-periphery-master/v2-periphery-master/contracts/DEXV2Router01.sol\":11242:11249  path[0] */\n      dup2\n      dup2\n      lt\n      tag_244\n      jumpi\n      invalid\n        /* \"v2-periphery-master/v2-periphery-master/contracts/DEXV2Router01.sol\":11212:11259  DEXV2Library.pairFor(factory, path[0], path[1]) */\n    tag_343:\n        /* \"v2-periphery-master/v2-periphery-master/contracts/DEXV2Router01.sol\":11261:11268  amounts */\n      dup5\n        /* \"v2-periphery-master/v2-periphery-master/contracts/DEXV2Router01.sol\":11269:11270  0 */\n      0x00\n        /* \"v2-periphery-master/v2-periphery-master/contracts/DEXV2Router01.sol\":11261:11271  amounts[0] */\n      dup2\n      mload\n      dup2\n      lt\n      tag_346\n      jumpi\n      invalid\n    tag_346:\n      0x20\n      mul\n      0x20\n      add\n      add\n      mload\n        /* \"v2-periphery-master/v2-periphery-master/contracts/DEXV2Router01.sol\":11191:11272  IWETH(WETH).transfer(DEXV2Library.pairFor(factory, path[0], path[1]), amounts[0]) */\n      mload(0x40)\n      dup4\n      0xffffffff\n      and\n      0xe0\n      shl\n      dup2\n      mstore\n      0x04\n      add\n      dup1\n      dup4\n      sub(shl(0xa0, 0x01), 0x01)\n      and\n      sub(shl(0xa0, 0x01), 0x01)\n      and\n      dup2\n      mstore\n      0x20\n      add\n      dup3\n      dup2\n      mstore\n      0x20\n      add\n      swap3\n      pop\n      pop\n      pop\n      0x20\n      mload(0x40)\n      dup1\n      dup4\n      sub\n      dup2\n      0x00\n      dup8\n      dup1\n      extcodesize\n      iszero\n        /* \"--CODEGEN--\":5:14   */\n      dup1\n        /* \"--CODEGEN--\":2:4   */\n      iszero\n      tag_347\n      jumpi\n        /* \"--CODEGEN--\":27:28   */\n      0x00\n        /* \"--CODEGEN--\":24:25   */\n      dup1\n        /* \"--CODEGEN--\":17:29   */\n      revert\n        /* \"--CODEGEN--\":2:4   */\n    tag_347:\n        /* \"v2-periphery-master/v2-periphery-master/contracts/DEXV2Router01.sol\":11191:11272  IWETH(WETH).transfer(DEXV2Library.pairFor(factory, path[0], path[1]), amounts[0]) */\n      pop\n      gas\n      call\n      iszero\n        /* \"--CODEGEN--\":8:17   */\n      dup1\n        /* \"--CODEGEN--\":5:7   */\n      iszero\n      tag_349\n      jumpi\n        /* \"--CODEGEN--\":45:61   */\n      returndatasize\n        /* \"--CODEGEN--\":42:43   */\n      0x00\n        /* \"--CODEGEN--\":39:40   */\n      dup1\n        /* \"--CODEGEN--\":24:62   */\n      returndatacopy\n        /* \"--CODEGEN--\":77:93   */\n      returndatasize\n        /* \"--CODEGEN--\":74:75   */\n      0x00\n        /* \"--CODEGEN--\":67:94   */\n      revert\n        /* \"--CODEGEN--\":5:7   */\n    tag_349:\n        /* \"v2-periphery-master/v2-periphery-master/contracts/DEXV2Router01.sol\":11191:11272  IWETH(WETH).transfer(DEXV2Library.pairFor(factory, path[0], path[1]), amounts[0]) */\n      pop\n      pop\n      pop\n      pop\n      mload(0x40)\n      returndatasize\n        /* \"--CODEGEN--\":15:17   */\n      0x20\n        /* \"--CODEGEN--\":10:13   */\n      dup2\n        /* \"--CODEGEN--\":7:18   */\n      lt\n        /* \"--CODEGEN--\":4:6   */\n      iszero\n      tag_350\n      jumpi\n        /* \"--CODEGEN--\":31:32   */\n      0x00\n        /* \"--CODEGEN--\":28:29   */\n      dup1\n        /* \"--CODEGEN--\":21:33   */\n      revert\n        /* \"--CODEGEN--\":4:6   */\n    tag_350:\n      pop\n        /* \"v2-periphery-master/v2-periphery-master/contracts/DEXV2Router01.sol\":11191:11272  IWETH(WETH).transfer(DEXV2Library.pairFor(factory, path[0], path[1]), amounts[0]) */\n      mload\n        /* \"v2-periphery-master/v2-periphery-master/contracts/DEXV2Router01.sol\":11184:11273  assert(IWETH(WETH).transfer(DEXV2Library.pairFor(factory, path[0], path[1]), amounts[0])) */\n      tag_351\n      jumpi\n      invalid\n    tag_351:\n        /* \"v2-periphery-master/v2-periphery-master/contracts/DEXV2Router01.sol\":11283:11307  _swap(amounts, path, to) */\n      tag_352\n        /* \"v2-periphery-master/v2-periphery-master/contracts/DEXV2Router01.sol\":11289:11296  amounts */\n      dup3\n        /* \"v2-periphery-master/v2-periphery-master/contracts/DEXV2Router01.sol\":11298:11302  path */\n      dup8\n      dup8\n        /* \"v2-periphery-master/v2-periphery-master/contracts/DEXV2Router01.sol\":11283:11307  _swap(amounts, path, to) */\n      dup1\n      dup1\n      0x20\n      mul\n      0x20\n      add\n      mload(0x40)\n      swap1\n      dup2\n      add\n      0x40\n      mstore\n      dup1\n      swap4\n      swap3\n      swap2\n      swap1\n      dup2\n      dup2\n      mstore\n      0x20\n      add\n      dup4\n      dup4\n      0x20\n      mul\n        /* \"--CODEGEN--\":30:33   */\n      dup1\n        /* \"--CODEGEN--\":22:28   */\n      dup3\n        /* \"--CODEGEN--\":14:20   */\n      dup5\n        /* \"--CODEGEN--\":1:34   */\n      calldatacopy\n        /* \"--CODEGEN--\":99:100   */\n      0x00\n        /* \"--CODEGEN--\":81:97   */\n      swap3\n      add\n        /* \"--CODEGEN--\":74:101   */\n      swap2\n      swap1\n      swap2\n      mstore\n      pop\n        /* \"v2-periphery-master/v2-periphery-master/contracts/DEXV2Router01.sol\":11304:11306  to */\n      dup10\n      swap3\n      pop\n        /* \"v2-periphery-master/v2-periphery-master/contracts/DEXV2Router01.sol\":11283:11288  _swap */\n      tag_179\n      swap2\n      pop\n      pop\n        /* \"v2-periphery-master/v2-periphery-master/contracts/DEXV2Router01.sol\":11283:11307  _swap(amounts, path, to) */\n      jump\t// in\n    tag_352:\n        /* \"v2-periphery-master/v2-periphery-master/contracts/DEXV2Router01.sol\":11333:11340  amounts */\n      dup2\n        /* \"v2-periphery-master/v2-periphery-master/contracts/DEXV2Router01.sol\":11341:11342  0 */\n      0x00\n        /* \"v2-periphery-master/v2-periphery-master/contracts/DEXV2Router01.sol\":11333:11343  amounts[0] */\n      dup2\n      mload\n      dup2\n      lt\n      tag_353\n      jumpi\n      invalid\n    tag_353:\n      0x20\n      mul\n      0x20\n      add\n      add\n      mload\n        /* \"v2-periphery-master/v2-periphery-master/contracts/DEXV2Router01.sol\":11321:11330  msg.value */\n      callvalue\n        /* \"v2-periphery-master/v2-periphery-master/contracts/DEXV2Router01.sol\":11321:11343  msg.value > amounts[0] */\n      gt\n        /* \"v2-periphery-master/v2-periphery-master/contracts/DEXV2Router01.sol\":11317:11411  if (msg.value > amounts[0]) TransferHelper.safeTransferETH(msg.sender, msg.value - amounts[0]) */\n      iszero\n      tag_252\n      jumpi\n        /* \"v2-periphery-master/v2-periphery-master/contracts/DEXV2Router01.sol\":11345:11411  TransferHelper.safeTransferETH(msg.sender, msg.value - amounts[0]) */\n      tag_252\n        /* \"v2-periphery-master/v2-periphery-master/contracts/DEXV2Router01.sol\":11376:11386  msg.sender */\n      caller\n        /* \"v2-periphery-master/v2-periphery-master/contracts/DEXV2Router01.sol\":11400:11407  amounts */\n      dup4\n        /* \"v2-periphery-master/v2-periphery-master/contracts/DEXV2Router01.sol\":11408:11409  0 */\n      0x00\n        /* \"v2-periphery-master/v2-periphery-master/contracts/DEXV2Router01.sol\":11400:11410  amounts[0] */\n      dup2\n      mload\n      dup2\n      lt\n      tag_356\n      jumpi\n      invalid\n    tag_356:\n      0x20\n      mul\n      0x20\n      add\n      add\n      mload\n        /* \"v2-periphery-master/v2-periphery-master/contracts/DEXV2Router01.sol\":11388:11397  msg.value */\n      callvalue\n        /* \"v2-periphery-master/v2-periphery-master/contracts/DEXV2Router01.sol\":11388:11410  msg.value - amounts[0] */\n      sub\n        /* \"v2-periphery-master/v2-periphery-master/contracts/DEXV2Router01.sol\":11345:11375  TransferHelper.safeTransferETH */\n      tag_157\n        /* \"v2-periphery-master/v2-periphery-master/contracts/DEXV2Router01.sol\":11345:11411  TransferHelper.safeTransferETH(msg.sender, msg.value - amounts[0]) */\n      jump\t// in\n        /* \"v2-periphery-master/v2-periphery-master/contracts/libraries/TransferHelper.sol\":671:1120  function safeTransfer(\r... */\n    tag_152:\n        /* \"v2-periphery-master/v2-periphery-master/contracts/libraries/TransferHelper.sol\":903:948  abi.encodeWithSelector(0xa9059cbb, to, value) */\n      0x40\n      dup1\n      mload\n      sub(shl(0xa0, 0x01), 0x01)\n      dup5\n      dup2\n      and\n      0x24\n      dup4\n      add\n      mstore\n      0x44\n      dup1\n      dup4\n      add\n      dup6\n      swap1\n      mstore\n      dup4\n      mload\n        /* \"--CODEGEN--\":26:47   */\n      dup1\n      dup5\n      sub\n        /* \"--CODEGEN--\":22:54   */\n      swap1\n      swap2\n      add\n        /* \"--CODEGEN--\":6:55   */\n      dup2\n      mstore\n        /* \"v2-periphery-master/v2-periphery-master/contracts/libraries/TransferHelper.sol\":903:948  abi.encodeWithSelector(0xa9059cbb, to, value) */\n      0x64\n      swap1\n      swap3\n      add\n      dup4\n      mstore\n      0x20\n        /* \"--CODEGEN--\":25:43   */\n      dup3\n      add\n        /* \"--CODEGEN--\":61:78   */\n      dup1\n      mload\n      sub(shl(0xe0, 0x01), 0x01)\n        /* \"--CODEGEN--\":182:197   */\n      and\n      shl(0xe0, 0xa9059cbb)\n        /* \"--CODEGEN--\":179:208   */\n      or\n        /* \"--CODEGEN--\":160:209   */\n      dup2\n      mstore\n        /* \"v2-periphery-master/v2-periphery-master/contracts/libraries/TransferHelper.sol\":892:949  token.call(abi.encodeWithSelector(0xa9059cbb, to, value)) */\n      swap3\n      mload\n      dup3\n      mload\n        /* \"v2-periphery-master/v2-periphery-master/contracts/libraries/TransferHelper.sol\":857:869  bool success */\n      0x00\n      swap5\n        /* \"v2-periphery-master/v2-periphery-master/contracts/libraries/TransferHelper.sol\":871:888  bytes memory data */\n      0x60\n      swap5\n        /* \"v2-periphery-master/v2-periphery-master/contracts/libraries/TransferHelper.sol\":892:902  token.call */\n      swap4\n      dup10\n      and\n      swap4\n        /* \"v2-periphery-master/v2-periphery-master/contracts/libraries/TransferHelper.sol\":903:948  abi.encodeWithSelector(0xa9059cbb, to, value) */\n      swap3\n        /* \"v2-periphery-master/v2-periphery-master/contracts/libraries/TransferHelper.sol\":892:949  token.call(abi.encodeWithSelector(0xa9059cbb, to, value)) */\n      swap2\n      dup3\n      swap2\n        /* \"--CODEGEN--\":25:43   */\n      swap1\n        /* \"v2-periphery-master/v2-periphery-master/contracts/libraries/TransferHelper.sol\":892:949  token.call(abi.encodeWithSelector(0xa9059cbb, to, value)) */\n      dup1\n      dup4\n        /* \"--CODEGEN--\":25:43   */\n      dup4\n        /* \"--CODEGEN--\":36:189   */\n    tag_358:\n        /* \"--CODEGEN--\":66:68   */\n      0x20\n        /* \"--CODEGEN--\":61:64   */\n      dup4\n        /* \"--CODEGEN--\":58:69   */\n      lt\n        /* \"--CODEGEN--\":36:189   */\n      tag_360\n      jumpi\n        /* \"--CODEGEN--\":176:186   */\n      dup1\n      mload\n        /* \"--CODEGEN--\":164:187   */\n      dup3\n      mstore\n      not(0x1f)\n        /* \"--CODEGEN--\":139:151   */\n      swap1\n      swap3\n      add\n      swap2\n        /* \"--CODEGEN--\":98:100   */\n      0x20\n        /* \"--CODEGEN--\":89:101   */\n      swap2\n      dup3\n      add\n      swap2\n        /* \"--CODEGEN--\":114:126   */\n      add\n        /* \"--CODEGEN--\":36:189   */\n      jump(tag_358)\n    tag_360:\n        /* \"--CODEGEN--\":274:275   */\n      0x01\n        /* \"--CODEGEN--\":267:270   */\n      dup4\n        /* \"--CODEGEN--\":263:265   */\n      0x20\n        /* \"--CODEGEN--\":259:271   */\n      sub\n        /* \"--CODEGEN--\":254:257   */\n      0x0100\n        /* \"--CODEGEN--\":250:272   */\n      exp\n        /* \"--CODEGEN--\":246:276   */\n      sub\n        /* \"--CODEGEN--\":315:319   */\n      dup1\n        /* \"--CODEGEN--\":311:320   */\n      not\n        /* \"--CODEGEN--\":305:308   */\n      dup3\n        /* \"--CODEGEN--\":299:309   */\n      mload\n        /* \"--CODEGEN--\":295:321   */\n      and\n        /* \"--CODEGEN--\":356:360   */\n      dup2\n        /* \"--CODEGEN--\":350:353   */\n      dup5\n        /* \"--CODEGEN--\":344:354   */\n      mload\n        /* \"--CODEGEN--\":340:361   */\n      and\n        /* \"--CODEGEN--\":389:396   */\n      dup1\n        /* \"--CODEGEN--\":380:387   */\n      dup3\n        /* \"--CODEGEN--\":377:397   */\n      or\n        /* \"--CODEGEN--\":372:375   */\n      dup6\n        /* \"--CODEGEN--\":365:398   */\n      mstore\n        /* \"--CODEGEN--\":3:402   */\n      pop\n      pop\n      pop\n        /* \"v2-periphery-master/v2-periphery-master/contracts/libraries/TransferHelper.sol\":892:949  token.call(abi.encodeWithSelector(0xa9059cbb, to, value)) */\n      pop\n      pop\n      pop\n      swap1\n      pop\n      add\n      swap2\n      pop\n      pop\n      0x00\n      mload(0x40)\n      dup1\n      dup4\n      sub\n      dup2\n      0x00\n      dup7\n      gas\n      call\n      swap2\n      pop\n      pop\n      returndatasize\n        /* \"--CODEGEN--\":12:13   */\n      dup1\n        /* \"--CODEGEN--\":19:20   */\n      0x00\n        /* \"--CODEGEN--\":14:41   */\n      dup2\n      eq\n      tag_363\n      jumpi\n        /* \"--CODEGEN--\":67:71   */\n      0x40\n        /* \"--CODEGEN--\":61:72   */\n      mload\n        /* \"--CODEGEN--\":56:72   */\n      swap2\n      pop\n        /* \"--CODEGEN--\":134:138   */\n      0x1f\n        /* \"--CODEGEN--\":130:139   */\n      not\n        /* \"--CODEGEN--\":123:127   */\n      0x3f\n        /* \"--CODEGEN--\":105:121   */\n      returndatasize\n        /* \"--CODEGEN--\":101:128   */\n      add\n        /* \"--CODEGEN--\":97:140   */\n      and\n        /* \"--CODEGEN--\":94:95   */\n      dup3\n        /* \"--CODEGEN--\":90:141   */\n      add\n        /* \"--CODEGEN--\":84:88   */\n      0x40\n        /* \"--CODEGEN--\":77:142   */\n      mstore\n        /* \"--CODEGEN--\":157:173   */\n      returndatasize\n        /* \"--CODEGEN--\":154:155   */\n      dup3\n        /* \"--CODEGEN--\":147:174   */\n      mstore\n        /* \"--CODEGEN--\":211:227   */\n      returndatasize\n        /* \"--CODEGEN--\":208:209   */\n      0x00\n        /* \"--CODEGEN--\":201:205   */\n      0x20\n        /* \"--CODEGEN--\":198:199   */\n      dup5\n        /* \"--CODEGEN--\":194:206   */\n      add\n        /* \"--CODEGEN--\":179:228   */\n      returndatacopy\n        /* \"--CODEGEN--\":5:233   */\n      jump(tag_362)\n        /* \"--CODEGEN--\":14:41   */\n    tag_363:\n        /* \"--CODEGEN--\":32:36   */\n      0x60\n        /* \"--CODEGEN--\":27:36   */\n      swap2\n      pop\n        /* \"--CODEGEN--\":5:233   */\n    tag_362:\n      pop\n        /* \"v2-periphery-master/v2-periphery-master/contracts/libraries/TransferHelper.sol\":856:949  (bool success, bytes memory data) = token.call(abi.encodeWithSelector(0xa9059cbb, to, value)) */\n      swap2\n      pop\n      swap2\n      pop\n        /* \"v2-periphery-master/v2-periphery-master/contracts/libraries/TransferHelper.sol\":982:989  success */\n      dup2\n        /* \"v2-periphery-master/v2-periphery-master/contracts/libraries/TransferHelper.sol\":982:1039  success && (data.length == 0 || abi.decode(data, (bool))) */\n      dup1\n      iszero\n      tag_365\n      jumpi\n      pop\n        /* \"v2-periphery-master/v2-periphery-master/contracts/libraries/TransferHelper.sol\":994:1005  data.length */\n      dup1\n      mload\n        /* \"v2-periphery-master/v2-periphery-master/contracts/libraries/TransferHelper.sol\":994:1010  data.length == 0 */\n      iszero\n      dup1\n        /* \"v2-periphery-master/v2-periphery-master/contracts/libraries/TransferHelper.sol\":994:1038  data.length == 0 || abi.decode(data, (bool)) */\n      tag_365\n      jumpi\n      pop\n        /* \"v2-periphery-master/v2-periphery-master/contracts/libraries/TransferHelper.sol\":1025:1029  data */\n      dup1\n        /* \"v2-periphery-master/v2-periphery-master/contracts/libraries/TransferHelper.sol\":1014:1038  abi.decode(data, (bool)) */\n      dup1\n      0x20\n      add\n      swap1\n      mload\n        /* \"--CODEGEN--\":15:17   */\n      0x20\n        /* \"--CODEGEN--\":10:13   */\n      dup2\n        /* \"--CODEGEN--\":7:18   */\n      lt\n        /* \"--CODEGEN--\":4:6   */\n      iszero\n      tag_366\n      jumpi\n        /* \"--CODEGEN--\":31:32   */\n      0x00\n        /* \"--CODEGEN--\":28:29   */\n      dup1\n        /* \"--CODEGEN--\":21:33   */\n      revert\n        /* \"--CODEGEN--\":4:6   */\n    tag_366:\n      pop\n        /* \"v2-periphery-master/v2-periphery-master/contracts/libraries/TransferHelper.sol\":1014:1038  abi.decode(data, (bool)) */\n      mload\n        /* \"v2-periphery-master/v2-periphery-master/contracts/libraries/TransferHelper.sol\":994:1038  data.length == 0 || abi.decode(data, (bool)) */\n    tag_365:\n        /* \"v2-periphery-master/v2-periphery-master/contracts/libraries/TransferHelper.sol\":960:1112  require(\r... */\n      tag_367\n      jumpi\n      mload(0x40)\n      shl(0xe5, 0x461bcd)\n      dup2\n      mstore\n      0x04\n      add\n      dup1\n      dup1\n      0x20\n      add\n      dup3\n      dup2\n      sub\n      dup3\n      mstore\n      0x2d\n      dup2\n      mstore\n      0x20\n      add\n      dup1\n      data_daea69421eeb1164e163c36f3d4349f0db3ec4e0d1381bd5bf4faf53496c2611\n      0x2d\n      swap2\n      codecopy\n      0x40\n      add\n      swap2\n      pop\n      pop\n      mload(0x40)\n      dup1\n      swap2\n      sub\n      swap1\n      revert\n    tag_367:\n        /* \"v2-periphery-master/v2-periphery-master/contracts/libraries/TransferHelper.sol\":671:1120  function safeTransfer(\r... */\n      pop\n      pop\n      pop\n      pop\n      pop\n      jump\t// out\n        /* \"v2-periphery-master/v2-periphery-master/contracts/libraries/TransferHelper.sol\":1634:1851  function safeTransferETH(address to, uint256 value) internal {\r... */\n    tag_157:\n        /* \"v2-periphery-master/v2-periphery-master/contracts/libraries/TransferHelper.sol\":1747:1759  new bytes(0) */\n      0x40\n      dup1\n      mload\n        /* \"v2-periphery-master/v2-periphery-master/contracts/libraries/TransferHelper.sol\":1707:1719  bool success */\n      0x00\n        /* \"v2-periphery-master/v2-periphery-master/contracts/libraries/TransferHelper.sol\":1747:1759  new bytes(0) */\n      dup1\n      dup3\n      mstore\n      0x20\n      dup3\n      add\n      swap1\n      swap3\n      mstore\n      sub(shl(0xa0, 0x01), 0x01)\n        /* \"v2-periphery-master/v2-periphery-master/contracts/libraries/TransferHelper.sol\":1725:1732  to.call */\n      dup5\n      and\n      swap1\n        /* \"v2-periphery-master/v2-periphery-master/contracts/libraries/TransferHelper.sol\":1740:1745  value */\n      dup4\n      swap1\n        /* \"v2-periphery-master/v2-periphery-master/contracts/libraries/TransferHelper.sol\":1725:1760  to.call{value: value}(new bytes(0)) */\n      mload(0x40)\n      dup1\n      dup3\n      dup1\n      mload\n      swap1\n      0x20\n      add\n      swap1\n      dup1\n      dup4\n      dup4\n        /* \"--CODEGEN--\":36:189   */\n    tag_371:\n        /* \"--CODEGEN--\":66:68   */\n      0x20\n        /* \"--CODEGEN--\":61:64   */\n      dup4\n        /* \"--CODEGEN--\":58:69   */\n      lt\n        /* \"--CODEGEN--\":36:189   */\n      tag_373\n      jumpi\n        /* \"--CODEGEN--\":176:186   */\n      dup1\n      mload\n        /* \"--CODEGEN--\":164:187   */\n      dup3\n      mstore\n      not(0x1f)\n        /* \"--CODEGEN--\":139:151   */\n      swap1\n      swap3\n      add\n      swap2\n        /* \"--CODEGEN--\":98:100   */\n      0x20\n        /* \"--CODEGEN--\":89:101   */\n      swap2\n      dup3\n      add\n      swap2\n        /* \"--CODEGEN--\":114:126   */\n      add\n        /* \"--CODEGEN--\":36:189   */\n      jump(tag_371)\n    tag_373:\n        /* \"--CODEGEN--\":274:275   */\n      0x01\n        /* \"--CODEGEN--\":267:270   */\n      dup4\n        /* \"--CODEGEN--\":263:265   */\n      0x20\n        /* \"--CODEGEN--\":259:271   */\n      sub\n        /* \"--CODEGEN--\":254:257   */\n      0x0100\n        /* \"--CODEGEN--\":250:272   */\n      exp\n        /* \"--CODEGEN--\":246:276   */\n      sub\n        /* \"--CODEGEN--\":315:319   */\n      dup1\n        /* \"--CODEGEN--\":311:320   */\n      not\n        /* \"--CODEGEN--\":305:308   */\n      dup3\n        /* \"--CODEGEN--\":299:309   */\n      mload\n        /* \"--CODEGEN--\":295:321   */\n      and\n        /* \"--CODEGEN--\":356:360   */\n      dup2\n        /* \"--CODEGEN--\":350:353   */\n      dup5\n        /* \"--CODEGEN--\":344:354   */\n      mload\n        /* \"--CODEGEN--\":340:361   */\n      and\n        /* \"--CODEGEN--\":389:396   */\n      dup1\n        /* \"--CODEGEN--\":380:387   */\n      dup3\n        /* \"--CODEGEN--\":377:397   */\n      or\n        /* \"--CODEGEN--\":372:375   */\n      dup6\n        /* \"--CODEGEN--\":365:398   */\n      mstore\n        /* \"--CODEGEN--\":3:402   */\n      pop\n      pop\n      pop\n        /* \"v2-periphery-master/v2-periphery-master/contracts/libraries/TransferHelper.sol\":1725:1760  to.call{value: value}(new bytes(0)) */\n      pop\n      pop\n      pop\n      swap1\n      pop\n      add\n      swap2\n      pop\n      pop\n      0x00\n      mload(0x40)\n      dup1\n      dup4\n      sub\n      dup2\n      dup6\n      dup8\n      gas\n      call\n      swap3\n      pop\n      pop\n      pop\n      returndatasize\n        /* \"--CODEGEN--\":12:13   */\n      dup1\n        /* \"--CODEGEN--\":19:20   */\n      0x00\n        /* \"--CODEGEN--\":14:41   */\n      dup2\n      eq\n      tag_376\n      jumpi\n        /* \"--CODEGEN--\":67:71   */\n      0x40\n        /* \"--CODEGEN--\":61:72   */\n      mload\n        /* \"--CODEGEN--\":56:72   */\n      swap2\n      pop\n        /* \"--CODEGEN--\":134:138   */\n      0x1f\n        /* \"--CODEGEN--\":130:139   */\n      not\n        /* \"--CODEGEN--\":123:127   */\n      0x3f\n        /* \"--CODEGEN--\":105:121   */\n      returndatasize\n        /* \"--CODEGEN--\":101:128   */\n      add\n        /* \"--CODEGEN--\":97:140   */\n      and\n        /* \"--CODEGEN--\":94:95   */\n      dup3\n        /* \"--CODEGEN--\":90:141   */\n      add\n        /* \"--CODEGEN--\":84:88   */\n      0x40\n        /* \"--CODEGEN--\":77:142   */\n      mstore\n        /* \"--CODEGEN--\":157:173   */\n      returndatasize\n        /* \"--CODEGEN--\":154:155   */\n      dup3\n        /* \"--CODEGEN--\":147:174   */\n      mstore\n        /* \"--CODEGEN--\":211:227   */\n      returndatasize\n        /* \"--CODEGEN--\":208:209   */\n      0x00\n        /* \"--CODEGEN--\":201:205   */\n      0x20\n        /* \"--CODEGEN--\":198:199   */\n      dup5\n        /* \"--CODEGEN--\":194:206   */\n      add\n        /* \"--CODEGEN--\":179:228   */\n      returndatacopy\n        /* \"--CODEGEN--\":5:233   */\n      jump(tag_375)\n        /* \"--CODEGEN--\":14:41   */\n    tag_376:\n        /* \"--CODEGEN--\":32:36   */\n      0x60\n        /* \"--CODEGEN--\":27:36   */\n      swap2\n      pop\n        /* \"--CODEGEN--\":5:233   */\n    tag_375:\n      pop\n        /* \"v2-periphery-master/v2-periphery-master/contracts/libraries/TransferHelper.sol\":1706:1760  (bool success, ) = to.call{value: value}(new bytes(0)) */\n      pop\n      swap1\n      pop\n        /* \"v2-periphery-master/v2-periphery-master/contracts/libraries/TransferHelper.sol\":1779:1786  success */\n      dup1\n        /* \"v2-periphery-master/v2-periphery-master/contracts/libraries/TransferHelper.sol\":1771:1843  require(success, 'TransferHelper::safeTransferETH: ETH transfer failed') */\n      tag_377\n      jumpi\n      mload(0x40)\n      shl(0xe5, 0x461bcd)\n      dup2\n      mstore\n      0x04\n      add\n      dup1\n      dup1\n      0x20\n      add\n      dup3\n      dup2\n      sub\n      dup3\n      mstore\n      0x34\n      dup2\n      mstore\n      0x20\n      add\n      dup1\n      data_43d7bec223ecf9eb06ea147e7d564bc71c2448662d62a4ea86ce71fc4518b350\n      0x34\n      swap2\n      codecopy\n      0x40\n      add\n      swap2\n      pop\n      pop\n      mload(0x40)\n      dup1\n      swap2\n      sub\n      swap1\n      revert\n    tag_377:\n        /* \"v2-periphery-master/v2-periphery-master/contracts/libraries/TransferHelper.sol\":1634:1851  function safeTransferETH(address to, uint256 value) internal {\r... */\n      pop\n      pop\n      pop\n      jump\t// out\n        /* \"v2-periphery-master/v2-periphery-master/contracts/libraries/DEXV2Library.sol\":2121:2623  function getAmountOut(uint amountIn, uint reserveIn, uint reserveOut) internal pure returns (uint amountOut) {... */\n    tag_160:\n        /* \"v2-periphery-master/v2-periphery-master/contracts/libraries/DEXV2Library.sol\":2214:2228  uint amountOut */\n      0x00\n        /* \"v2-periphery-master/v2-periphery-master/contracts/libraries/DEXV2Library.sol\":2259:2260  0 */\n      dup1\n        /* \"v2-periphery-master/v2-periphery-master/contracts/libraries/DEXV2Library.sol\":2248:2256  amountIn */\n      dup5\n        /* \"v2-periphery-master/v2-periphery-master/contracts/libraries/DEXV2Library.sol\":2248:2260  amountIn > 0 */\n      gt\n        /* \"v2-periphery-master/v2-periphery-master/contracts/libraries/DEXV2Library.sol\":2240:2304  require(amountIn > 0, 'DEXV2Library: INSUFFICIENT_INPUT_AMOUNT') */\n      tag_379\n      jumpi\n      mload(0x40)\n      shl(0xe5, 0x461bcd)\n      dup2\n      mstore\n      0x04\n      add\n      dup1\n      dup1\n      0x20\n      add\n      dup3\n      dup2\n      sub\n      dup3\n      mstore\n      0x27\n      dup2\n      mstore\n      0x20\n      add\n      dup1\n      data_89c1728480bb33ba94213491017440b5afa41bba9ea2b96306c396b55006eaa3\n      0x27\n      swap2\n      codecopy\n      0x40\n      add\n      swap2\n      pop\n      pop\n      mload(0x40)\n      dup1\n      swap2\n      sub\n      swap1\n      revert\n    tag_379:\n        /* \"v2-periphery-master/v2-periphery-master/contracts/libraries/DEXV2Library.sol\":2334:2335  0 */\n      0x00\n        /* \"v2-periphery-master/v2-periphery-master/contracts/libraries/DEXV2Library.sol\":2322:2331  reserveIn */\n      dup4\n        /* \"v2-periphery-master/v2-periphery-master/contracts/libraries/DEXV2Library.sol\":2322:2335  reserveIn > 0 */\n      gt\n        /* \"v2-periphery-master/v2-periphery-master/contracts/libraries/DEXV2Library.sol\":2322:2353  reserveIn > 0 && reserveOut > 0 */\n      dup1\n      iszero\n      tag_380\n      jumpi\n      pop\n        /* \"v2-periphery-master/v2-periphery-master/contracts/libraries/DEXV2Library.sol\":2352:2353  0 */\n      0x00\n        /* \"v2-periphery-master/v2-periphery-master/contracts/libraries/DEXV2Library.sol\":2339:2349  reserveOut */\n      dup3\n        /* \"v2-periphery-master/v2-periphery-master/contracts/libraries/DEXV2Library.sol\":2339:2353  reserveOut > 0 */\n      gt\n        /* \"v2-periphery-master/v2-periphery-master/contracts/libraries/DEXV2Library.sol\":2322:2353  reserveIn > 0 && reserveOut > 0 */\n    tag_380:\n        /* \"v2-periphery-master/v2-periphery-master/contracts/libraries/DEXV2Library.sol\":2314:2394  require(reserveIn > 0 && reserveOut > 0, 'DEXV2Library: INSUFFICIENT_LIQUIDITY') */\n      tag_381\n      jumpi\n      mload(0x40)\n      shl(0xe5, 0x461bcd)\n      dup2\n      mstore\n      0x04\n      add\n      dup1\n      dup1\n      0x20\n      add\n      dup3\n      dup2\n      sub\n      dup3\n      mstore\n      0x24\n      dup2\n      mstore\n      0x20\n      add\n      dup1\n      data_ccfaa7c5db03ba2292f8d3870d9c6674c20c17a9f2323fc6c889ba3627a9f957\n      0x24\n      swap2\n      codecopy\n      0x40\n      add\n      swap2\n      pop\n      pop\n      mload(0x40)\n      dup1\n      swap2\n      sub\n      swap1\n      revert\n    tag_381:\n        /* \"v2-periphery-master/v2-periphery-master/contracts/libraries/DEXV2Library.sol\":2404:2424  uint amountInWithFee */\n      0x00\n        /* \"v2-periphery-master/v2-periphery-master/contracts/libraries/DEXV2Library.sol\":2427:2444  amountIn.mul(997) */\n      tag_382\n        /* \"v2-periphery-master/v2-periphery-master/contracts/libraries/DEXV2Library.sol\":2427:2435  amountIn */\n      dup6\n        /* \"v2-periphery-master/v2-periphery-master/contracts/libraries/DEXV2Library.sol\":2440:2443  997 */\n      0x03e5\n        /* \"v2-periphery-master/v2-periphery-master/contracts/libraries/DEXV2Library.sol\":2427:2444  amountIn.mul(997) */\n      0xffffffff\n        /* \"v2-periphery-master/v2-periphery-master/contracts/libraries/DEXV2Library.sol\":2427:2439  amountIn.mul */\n      tag_383\n        /* \"v2-periphery-master/v2-periphery-master/contracts/libraries/DEXV2Library.sol\":2427:2444  amountIn.mul(997) */\n      and\n      jump\t// in\n    tag_382:\n        /* \"v2-periphery-master/v2-periphery-master/contracts/libraries/DEXV2Library.sol\":2404:2444  uint amountInWithFee = amountIn.mul(997) */\n      swap1\n      pop\n        /* \"v2-periphery-master/v2-periphery-master/contracts/libraries/DEXV2Library.sol\":2454:2468  uint numerator */\n      0x00\n        /* \"v2-periphery-master/v2-periphery-master/contracts/libraries/DEXV2Library.sol\":2471:2502  amountInWithFee.mul(reserveOut) */\n      tag_384\n        /* \"v2-periphery-master/v2-periphery-master/contracts/libraries/DEXV2Library.sol\":2404:2444  uint amountInWithFee = amountIn.mul(997) */\n      dup3\n        /* \"v2-periphery-master/v2-periphery-master/contracts/libraries/DEXV2Library.sol\":2491:2501  reserveOut */\n      dup6\n        /* \"v2-periphery-master/v2-periphery-master/contracts/libraries/DEXV2Library.sol\":2471:2502  amountInWithFee.mul(reserveOut) */\n      0xffffffff\n        /* \"v2-periphery-master/v2-periphery-master/contracts/libraries/DEXV2Library.sol\":2471:2490  amountInWithFee.mul */\n      tag_383\n        /* \"v2-periphery-master/v2-periphery-master/contracts/libraries/DEXV2Library.sol\":2471:2502  amountInWithFee.mul(reserveOut) */\n      and\n      jump\t// in\n    tag_384:\n        /* \"v2-periphery-master/v2-periphery-master/contracts/libraries/DEXV2Library.sol\":2454:2502  uint numerator = amountInWithFee.mul(reserveOut) */\n      swap1\n      pop\n        /* \"v2-periphery-master/v2-periphery-master/contracts/libraries/DEXV2Library.sol\":2512:2528  uint denominator */\n      0x00\n        /* \"v2-periphery-master/v2-periphery-master/contracts/libraries/DEXV2Library.sol\":2531:2571  reserveIn.mul(1000).add(amountInWithFee) */\n      tag_385\n        /* \"v2-periphery-master/v2-periphery-master/contracts/libraries/DEXV2Library.sol\":2555:2570  amountInWithFee */\n      dup4\n        /* \"v2-periphery-master/v2-periphery-master/contracts/libraries/DEXV2Library.sol\":2531:2550  reserveIn.mul(1000) */\n      tag_386\n        /* \"v2-periphery-master/v2-periphery-master/contracts/libraries/DEXV2Library.sol\":2531:2540  reserveIn */\n      dup9\n        /* \"v2-periphery-master/v2-periphery-master/contracts/libraries/DEXV2Library.sol\":2545:2549  1000 */\n      0x03e8\n        /* \"v2-periphery-master/v2-periphery-master/contracts/libraries/DEXV2Library.sol\":2531:2550  reserveIn.mul(1000) */\n      0xffffffff\n        /* \"v2-periphery-master/v2-periphery-master/contracts/libraries/DEXV2Library.sol\":2531:2544  reserveIn.mul */\n      tag_383\n        /* \"v2-periphery-master/v2-periphery-master/contracts/libraries/DEXV2Library.sol\":2531:2550  reserveIn.mul(1000) */\n      and\n      jump\t// in\n    tag_386:\n        /* \"v2-periphery-master/v2-periphery-master/contracts/libraries/DEXV2Library.sol\":2531:2554  reserveIn.mul(1000).add */\n      swap1\n        /* \"v2-periphery-master/v2-periphery-master/contracts/libraries/DEXV2Library.sol\":2531:2571  reserveIn.mul(1000).add(amountInWithFee) */\n      0xffffffff\n        /* \"v2-periphery-master/v2-periphery-master/contracts/libraries/DEXV2Library.sol\":2531:2554  reserveIn.mul(1000).add */\n      tag_387\n        /* \"v2-periphery-master/v2-periphery-master/contracts/libraries/DEXV2Library.sol\":2531:2571  reserveIn.mul(1000).add(amountInWithFee) */\n      and\n      jump\t// in\n    tag_385:\n        /* \"v2-periphery-master/v2-periphery-master/contracts/libraries/DEXV2Library.sol\":2512:2571  uint denominator = reserveIn.mul(1000).add(amountInWithFee) */\n      swap1\n      pop\n        /* \"v2-periphery-master/v2-periphery-master/contracts/libraries/DEXV2Library.sol\":2605:2616  denominator */\n      dup1\n        /* \"v2-periphery-master/v2-periphery-master/contracts/libraries/DEXV2Library.sol\":2593:2602  numerator */\n      dup3\n        /* \"v2-periphery-master/v2-periphery-master/contracts/libraries/DEXV2Library.sol\":2593:2616  numerator / denominator */\n      dup2\n      tag_388\n      jumpi\n      invalid\n    tag_388:\n      div\n      swap8\n        /* \"v2-periphery-master/v2-periphery-master/contracts/libraries/DEXV2Library.sol\":2121:2623  function getAmountOut(uint amountIn, uint reserveIn, uint reserveOut) internal pure returns (uint amountOut) {... */\n      swap7\n      pop\n      pop\n      pop\n      pop\n      pop\n      pop\n      pop\n      jump\t// out\n        /* \"v2-periphery-master/v2-periphery-master/contracts/libraries/DEXV2Library.sol\":3278:3777  function getAmountsOut(address factory, uint amountIn, address[] memory path) internal view returns (uint[] memory amounts) {... */\n    tag_167:\n        /* \"v2-periphery-master/v2-periphery-master/contracts/libraries/DEXV2Library.sol\":3379:3400  uint[] memory amounts */\n      0x60\n        /* \"v2-periphery-master/v2-periphery-master/contracts/libraries/DEXV2Library.sol\":3435:3436  2 */\n      0x02\n        /* \"v2-periphery-master/v2-periphery-master/contracts/libraries/DEXV2Library.sol\":3420:3424  path */\n      dup3\n        /* \"v2-periphery-master/v2-periphery-master/contracts/libraries/DEXV2Library.sol\":3420:3431  path.length */\n      mload\n        /* \"v2-periphery-master/v2-periphery-master/contracts/libraries/DEXV2Library.sol\":3420:3436  path.length >= 2 */\n      lt\n      iszero\n        /* \"v2-periphery-master/v2-periphery-master/contracts/libraries/DEXV2Library.sol\":3412:3467  require(path.length >= 2, 'DEXV2Library: INVALID_PATH') */\n      tag_390\n      jumpi\n      0x40\n      dup1\n      mload\n      shl(0xe5, 0x461bcd)\n      dup2\n      mstore\n      0x20\n      0x04\n      dup3\n      add\n      mstore\n      0x1a\n      0x24\n      dup3\n      add\n      mstore\n      0x44455856324c6962726172793a20494e56414c49445f50415448000000000000\n      0x44\n      dup3\n      add\n      mstore\n      swap1\n      mload\n      swap1\n      dup2\n      swap1\n      sub\n      0x64\n      add\n      swap1\n      revert\n    tag_390:\n        /* \"v2-periphery-master/v2-periphery-master/contracts/libraries/DEXV2Library.sol\":3498:3502  path */\n      dup2\n        /* \"v2-periphery-master/v2-periphery-master/contracts/libraries/DEXV2Library.sol\":3498:3509  path.length */\n      mload\n        /* \"v2-periphery-master/v2-periphery-master/contracts/libraries/DEXV2Library.sol\":3487:3510  new uint[](path.length) */\n      0xffffffffffffffff\n      dup2\n      gt\n        /* \"--CODEGEN--\":5:14   */\n      dup1\n        /* \"--CODEGEN--\":2:4   */\n      iszero\n      tag_391\n      jumpi\n        /* \"--CODEGEN--\":27:28   */\n      0x00\n        /* \"--CODEGEN--\":24:25   */\n      dup1\n        /* \"--CODEGEN--\":17:29   */\n      revert\n        /* \"--CODEGEN--\":2:4   */\n    tag_391:\n        /* \"v2-periphery-master/v2-periphery-master/contracts/libraries/DEXV2Library.sol\":3487:3510  new uint[](path.length) */\n      pop\n      mload(0x40)\n      swap1\n      dup1\n      dup3\n      mstore\n      dup1\n      0x20\n      mul\n      0x20\n      add\n      dup3\n      add\n      0x40\n      mstore\n      dup1\n      iszero\n      tag_392\n      jumpi\n      dup2\n      0x20\n      add\n        /* \"--CODEGEN--\":29:31   */\n      0x20\n        /* \"--CODEGEN--\":21:27   */\n      dup3\n        /* \"--CODEGEN--\":17:32   */\n      mul\n        /* \"--CODEGEN--\":125:129   */\n      dup1\n        /* \"--CODEGEN--\":109:123   */\n      calldatasize\n        /* \"--CODEGEN--\":101:107   */\n      dup4\n        /* \"--CODEGEN--\":88:130   */\n      calldatacopy\n        /* \"--CODEGEN--\":144:161   */\n      add\n      swap1\n      pop\n        /* \"v2-periphery-master/v2-periphery-master/contracts/libraries/DEXV2Library.sol\":3487:3510  new uint[](path.length) */\n    tag_392:\n      pop\n        /* \"v2-periphery-master/v2-periphery-master/contracts/libraries/DEXV2Library.sol\":3477:3510  amounts = new uint[](path.length) */\n      swap1\n      pop\n        /* \"v2-periphery-master/v2-periphery-master/contracts/libraries/DEXV2Library.sol\":3533:3541  amountIn */\n      dup3\n        /* \"v2-periphery-master/v2-periphery-master/contracts/libraries/DEXV2Library.sol\":3520:3527  amounts */\n      dup2\n        /* \"v2-periphery-master/v2-periphery-master/contracts/libraries/DEXV2Library.sol\":3528:3529  0 */\n      0x00\n        /* \"v2-periphery-master/v2-periphery-master/contracts/libraries/DEXV2Library.sol\":3520:3530  amounts[0] */\n      dup2\n      mload\n      dup2\n      lt\n      tag_393\n      jumpi\n      invalid\n    tag_393:\n      0x20\n      mul\n      0x20\n      add\n      add\n        /* \"v2-periphery-master/v2-periphery-master/contracts/libraries/DEXV2Library.sol\":3520:3541  amounts[0] = amountIn */\n      dup2\n      dup2\n      mstore\n      pop\n      pop\n        /* \"v2-periphery-master/v2-periphery-master/contracts/libraries/DEXV2Library.sol\":3556:3562  uint i */\n      0x00\n        /* \"v2-periphery-master/v2-periphery-master/contracts/libraries/DEXV2Library.sol\":3551:3771  for (uint i; i < path.length - 1; i++) {... */\n    tag_394:\n        /* \"v2-periphery-master/v2-periphery-master/contracts/libraries/DEXV2Library.sol\":3582:3583  1 */\n      0x01\n        /* \"v2-periphery-master/v2-periphery-master/contracts/libraries/DEXV2Library.sol\":3568:3572  path */\n      dup4\n        /* \"v2-periphery-master/v2-periphery-master/contracts/libraries/DEXV2Library.sol\":3568:3579  path.length */\n      mload\n        /* \"v2-periphery-master/v2-periphery-master/contracts/libraries/DEXV2Library.sol\":3568:3583  path.length - 1 */\n      sub\n        /* \"v2-periphery-master/v2-periphery-master/contracts/libraries/DEXV2Library.sol\":3564:3565  i */\n      dup2\n        /* \"v2-periphery-master/v2-periphery-master/contracts/libraries/DEXV2Library.sol\":3564:3583  i < path.length - 1 */\n      lt\n        /* \"v2-periphery-master/v2-periphery-master/contracts/libraries/DEXV2Library.sol\":3551:3771  for (uint i; i < path.length - 1; i++) {... */\n      iszero\n      tag_395\n      jumpi\n        /* \"v2-periphery-master/v2-periphery-master/contracts/libraries/DEXV2Library.sol\":3605:3619  uint reserveIn */\n      0x00\n        /* \"v2-periphery-master/v2-periphery-master/contracts/libraries/DEXV2Library.sol\":3621:3636  uint reserveOut */\n      dup1\n        /* \"v2-periphery-master/v2-periphery-master/contracts/libraries/DEXV2Library.sol\":3640:3682  getReserves(factory, path[i], path[i + 1]) */\n      tag_397\n        /* \"v2-periphery-master/v2-periphery-master/contracts/libraries/DEXV2Library.sol\":3652:3659  factory */\n      dup8\n        /* \"v2-periphery-master/v2-periphery-master/contracts/libraries/DEXV2Library.sol\":3661:3665  path */\n      dup7\n        /* \"v2-periphery-master/v2-periphery-master/contracts/libraries/DEXV2Library.sol\":3666:3667  i */\n      dup6\n        /* \"v2-periphery-master/v2-periphery-master/contracts/libraries/DEXV2Library.sol\":3661:3668  path[i] */\n      dup2\n      mload\n      dup2\n      lt\n      tag_398\n      jumpi\n      invalid\n    tag_398:\n      0x20\n      mul\n      0x20\n      add\n      add\n      mload\n        /* \"v2-periphery-master/v2-periphery-master/contracts/libraries/DEXV2Library.sol\":3670:3674  path */\n      dup8\n        /* \"v2-periphery-master/v2-periphery-master/contracts/libraries/DEXV2Library.sol\":3675:3676  i */\n      dup7\n        /* \"v2-periphery-master/v2-periphery-master/contracts/libraries/DEXV2Library.sol\":3679:3680  1 */\n      0x01\n        /* \"v2-periphery-master/v2-periphery-master/contracts/libraries/DEXV2Library.sol\":3675:3680  i + 1 */\n      add\n        /* \"v2-periphery-master/v2-periphery-master/contracts/libraries/DEXV2Library.sol\":3670:3681  path[i + 1] */\n      dup2\n      mload\n      dup2\n      lt\n      tag_399\n      jumpi\n      invalid\n    tag_399:\n      0x20\n      mul\n      0x20\n      add\n      add\n      mload\n        /* \"v2-periphery-master/v2-periphery-master/contracts/libraries/DEXV2Library.sol\":3640:3651  getReserves */\n      tag_400\n        /* \"v2-periphery-master/v2-periphery-master/contracts/libraries/DEXV2Library.sol\":3640:3682  getReserves(factory, path[i], path[i + 1]) */\n      jump\t// in\n    tag_397:\n        /* \"v2-periphery-master/v2-periphery-master/contracts/libraries/DEXV2Library.sol\":3604:3682  (uint reserveIn, uint reserveOut) = getReserves(factory, path[i], path[i + 1]) */\n      swap2\n      pop\n      swap2\n      pop\n        /* \"v2-periphery-master/v2-periphery-master/contracts/libraries/DEXV2Library.sol\":3713:3760  getAmountOut(amounts[i], reserveIn, reserveOut) */\n      tag_401\n        /* \"v2-periphery-master/v2-periphery-master/contracts/libraries/DEXV2Library.sol\":3726:3733  amounts */\n      dup5\n        /* \"v2-periphery-master/v2-periphery-master/contracts/libraries/DEXV2Library.sol\":3734:3735  i */\n      dup5\n        /* \"v2-periphery-master/v2-periphery-master/contracts/libraries/DEXV2Library.sol\":3726:3736  amounts[i] */\n      dup2\n      mload\n      dup2\n      lt\n      tag_402\n      jumpi\n      invalid\n    tag_402:\n      0x20\n      mul\n      0x20\n      add\n      add\n      mload\n        /* \"v2-periphery-master/v2-periphery-master/contracts/libraries/DEXV2Library.sol\":3738:3747  reserveIn */\n      dup4\n        /* \"v2-periphery-master/v2-periphery-master/contracts/libraries/DEXV2Library.sol\":3749:3759  reserveOut */\n      dup4\n        /* \"v2-periphery-master/v2-periphery-master/contracts/libraries/DEXV2Library.sol\":3713:3725  getAmountOut */\n      tag_160\n        /* \"v2-periphery-master/v2-periphery-master/contracts/libraries/DEXV2Library.sol\":3713:3760  getAmountOut(amounts[i], reserveIn, reserveOut) */\n      jump\t// in\n    tag_401:\n        /* \"v2-periphery-master/v2-periphery-master/contracts/libraries/DEXV2Library.sol\":3696:3703  amounts */\n      dup5\n        /* \"v2-periphery-master/v2-periphery-master/contracts/libraries/DEXV2Library.sol\":3704:3705  i */\n      dup5\n        /* \"v2-periphery-master/v2-periphery-master/contracts/libraries/DEXV2Library.sol\":3708:3709  1 */\n      0x01\n        /* \"v2-periphery-master/v2-periphery-master/contracts/libraries/DEXV2Library.sol\":3704:3709  i + 1 */\n      add\n        /* \"v2-periphery-master/v2-periphery-master/contracts/libraries/DEXV2Library.sol\":3696:3710  amounts[i + 1] */\n      dup2\n      mload\n      dup2\n      lt\n      tag_403\n      jumpi\n      invalid\n    tag_403:\n      0x20\n      swap1\n      dup2\n      mul\n      swap2\n      swap1\n      swap2\n      add\n      add\n        /* \"v2-periphery-master/v2-periphery-master/contracts/libraries/DEXV2Library.sol\":3696:3760  amounts[i + 1] = getAmountOut(amounts[i], reserveIn, reserveOut) */\n      mstore\n      pop\n      pop\n        /* \"v2-periphery-master/v2-periphery-master/contracts/libraries/DEXV2Library.sol\":3585:3588  i++ */\n      0x01\n      add\n        /* \"v2-periphery-master/v2-periphery-master/contracts/libraries/DEXV2Library.sol\":3551:3771  for (uint i; i < path.length - 1; i++) {... */\n      jump(tag_394)\n    tag_395:\n      pop\n        /* \"v2-periphery-master/v2-periphery-master/contracts/libraries/DEXV2Library.sol\":3278:3777  function getAmountsOut(address factory, uint amountIn, address[] memory path) internal view returns (uint[] memory amounts) {... */\n      swap4\n      swap3\n      pop\n      pop\n      pop\n      jump\t// out\n        /* \"v2-periphery-master/v2-periphery-master/contracts/libraries/DEXV2Library.sol\":675:1145  function pairFor(address factory, address tokenA, address tokenB) internal pure returns (address pair) {... */\n    tag_175:\n        /* \"v2-periphery-master/v2-periphery-master/contracts/libraries/DEXV2Library.sol\":764:776  address pair */\n      0x00\n        /* \"v2-periphery-master/v2-periphery-master/contracts/libraries/DEXV2Library.sol\":789:803  address token0 */\n      dup1\n        /* \"v2-periphery-master/v2-periphery-master/contracts/libraries/DEXV2Library.sol\":805:819  address token1 */\n      0x00\n        /* \"v2-periphery-master/v2-periphery-master/contracts/libraries/DEXV2Library.sol\":823:849  sortTokens(tokenA, tokenB) */\n      tag_405\n        /* \"v2-periphery-master/v2-periphery-master/contracts/libraries/DEXV2Library.sol\":834:840  tokenA */\n      dup6\n        /* \"v2-periphery-master/v2-periphery-master/contracts/libraries/DEXV2Library.sol\":842:848  tokenB */\n      dup6\n        /* \"v2-periphery-master/v2-periphery-master/contracts/libraries/DEXV2Library.sol\":823:833  sortTokens */\n      tag_284\n        /* \"v2-periphery-master/v2-periphery-master/contracts/libraries/DEXV2Library.sol\":823:849  sortTokens(tokenA, tokenB) */\n      jump\t// in\n    tag_405:\n        /* \"v2-periphery-master/v2-periphery-master/contracts/libraries/DEXV2Library.sol\":983:1015  abi.encodePacked(token0, token1) */\n      0x40\n      dup1\n      mload\n      not(0xffffffffffffffffffffffff)\n      0x60\n      swap5\n      dup6\n      shl\n      dup2\n      and\n      0x20\n      dup1\n      dup5\n      add\n      swap2\n      swap1\n      swap2\n      mstore\n      swap4\n      dup6\n      shl\n      dup2\n      and\n      0x34\n      dup4\n      add\n      mstore\n      dup3\n      mload\n        /* \"--CODEGEN--\":22:54   */\n      0x28\n        /* \"--CODEGEN--\":26:47   */\n      dup2\n      dup5\n      sub\n        /* \"--CODEGEN--\":22:54   */\n      add\n        /* \"--CODEGEN--\":6:55   */\n      dup2\n      mstore\n        /* \"v2-periphery-master/v2-periphery-master/contracts/libraries/DEXV2Library.sol\":983:1015  abi.encodePacked(token0, token1) */\n      0x48\n      dup4\n      add\n      dup5\n      mstore\n        /* \"v2-periphery-master/v2-periphery-master/contracts/libraries/DEXV2Library.sol\":973:1016  keccak256(abi.encodePacked(token0, token1)) */\n      dup1\n      mload\n      swap1\n      dup6\n      add\n      keccak256\n      not(sub(shl(0xf8, 0x01), 0x01))\n        /* \"v2-periphery-master/v2-periphery-master/contracts/libraries/DEXV2Library.sol\":889:1135  abi.encodePacked(... */\n      0x68\n      dup5\n      add\n      mstore\n      swap11\n      swap1\n      swap5\n      shl\n      swap1\n      swap4\n      and\n      0x69\n      dup5\n      add\n      mstore\n      0x7d\n      dup4\n      add\n      swap9\n      swap1\n      swap9\n      mstore\n      0x96e8ac4277198ff8b6f785478aa9a39f403cb768dd02cbee326c3e7da348845f\n      0x9d\n      dup1\n      dup5\n      add\n      swap2\n      swap1\n      swap2\n      mstore\n      dup9\n      mload\n        /* \"--CODEGEN--\":26:47   */\n      dup1\n      dup5\n      sub\n        /* \"--CODEGEN--\":22:54   */\n      swap1\n      swap2\n      add\n        /* \"--CODEGEN--\":6:55   */\n      dup2\n      mstore\n        /* \"v2-periphery-master/v2-periphery-master/contracts/libraries/DEXV2Library.sol\":889:1135  abi.encodePacked(... */\n      0xbd\n      swap1\n      swap3\n      add\n      swap1\n      swap8\n      mstore\n        /* \"v2-periphery-master/v2-periphery-master/contracts/libraries/DEXV2Library.sol\":879:1136  keccak256(abi.encodePacked(... */\n      dup1\n      mload\n      swap7\n      add\n      swap6\n      swap1\n      swap6\n      keccak256\n      swap6\n        /* \"v2-periphery-master/v2-periphery-master/contracts/libraries/DEXV2Library.sol\":675:1145  function pairFor(address factory, address tokenA, address tokenB) internal pure returns (address pair) {... */\n      swap5\n      pop\n      pop\n      pop\n      pop\n      pop\n      jump\t// out\n        /* \"v2-periphery-master/v2-periphery-master/contracts/libraries/TransferHelper.sol\":1128:1626  function safeTransferFrom(\r... */\n    tag_177:\n        /* \"v2-periphery-master/v2-periphery-master/contracts/libraries/TransferHelper.sol\":1399:1450  abi.encodeWithSelector(0x23b872dd, from, to, value) */\n      0x40\n      dup1\n      mload\n      sub(shl(0xa0, 0x01), 0x01)\n      dup6\n      dup2\n      and\n      0x24\n      dup4\n      add\n      mstore\n      dup5\n      dup2\n      and\n      0x44\n      dup4\n      add\n      mstore\n      0x64\n      dup1\n      dup4\n      add\n      dup6\n      swap1\n      mstore\n      dup4\n      mload\n        /* \"--CODEGEN--\":26:47   */\n      dup1\n      dup5\n      sub\n        /* \"--CODEGEN--\":22:54   */\n      swap1\n      swap2\n      add\n        /* \"--CODEGEN--\":6:55   */\n      dup2\n      mstore\n        /* \"v2-periphery-master/v2-periphery-master/contracts/libraries/TransferHelper.sol\":1399:1450  abi.encodeWithSelector(0x23b872dd, from, to, value) */\n      0x84\n      swap1\n      swap3\n      add\n      dup4\n      mstore\n      0x20\n        /* \"--CODEGEN--\":25:43   */\n      dup3\n      add\n        /* \"--CODEGEN--\":61:78   */\n      dup1\n      mload\n      sub(shl(0xe0, 0x01), 0x01)\n        /* \"--CODEGEN--\":182:197   */\n      and\n      shl(0xe0, 0x23b872dd)\n        /* \"--CODEGEN--\":179:208   */\n      or\n        /* \"--CODEGEN--\":160:209   */\n      dup2\n      mstore\n        /* \"v2-periphery-master/v2-periphery-master/contracts/libraries/TransferHelper.sol\":1388:1451  token.call(abi.encodeWithSelector(0x23b872dd, from, to, value)) */\n      swap3\n      mload\n      dup3\n      mload\n        /* \"v2-periphery-master/v2-periphery-master/contracts/libraries/TransferHelper.sol\":1353:1365  bool success */\n      0x00\n      swap5\n        /* \"v2-periphery-master/v2-periphery-master/contracts/libraries/TransferHelper.sol\":1367:1384  bytes memory data */\n      0x60\n      swap5\n        /* \"v2-periphery-master/v2-periphery-master/contracts/libraries/TransferHelper.sol\":1388:1398  token.call */\n      swap4\n      dup11\n      and\n      swap4\n        /* \"v2-periphery-master/v2-periphery-master/contracts/libraries/TransferHelper.sol\":1399:1450  abi.encodeWithSelector(0x23b872dd, from, to, value) */\n      swap3\n        /* \"v2-periphery-master/v2-periphery-master/contracts/libraries/TransferHelper.sol\":1388:1451  token.call(abi.encodeWithSelector(0x23b872dd, from, to, value)) */\n      swap2\n      dup3\n      swap2\n        /* \"--CODEGEN--\":25:43   */\n      swap1\n        /* \"v2-periphery-master/v2-periphery-master/contracts/libraries/TransferHelper.sol\":1388:1451  token.call(abi.encodeWithSelector(0x23b872dd, from, to, value)) */\n      dup1\n      dup4\n        /* \"--CODEGEN--\":25:43   */\n      dup4\n        /* \"--CODEGEN--\":36:189   */\n    tag_407:\n        /* \"--CODEGEN--\":66:68   */\n      0x20\n        /* \"--CODEGEN--\":61:64   */\n      dup4\n        /* \"--CODEGEN--\":58:69   */\n      lt\n        /* \"--CODEGEN--\":36:189   */\n      tag_409\n      jumpi\n        /* \"--CODEGEN--\":176:186   */\n      dup1\n      mload\n        /* \"--CODEGEN--\":164:187   */\n      dup3\n      mstore\n      not(0x1f)\n        /* \"--CODEGEN--\":139:151   */\n      swap1\n      swap3\n      add\n      swap2\n        /* \"--CODEGEN--\":98:100   */\n      0x20\n        /* \"--CODEGEN--\":89:101   */\n      swap2\n      dup3\n      add\n      swap2\n        /* \"--CODEGEN--\":114:126   */\n      add\n        /* \"--CODEGEN--\":36:189   */\n      jump(tag_407)\n    tag_409:\n        /* \"--CODEGEN--\":274:275   */\n      0x01\n        /* \"--CODEGEN--\":267:270   */\n      dup4\n        /* \"--CODEGEN--\":263:265   */\n      0x20\n        /* \"--CODEGEN--\":259:271   */\n      sub\n        /* \"--CODEGEN--\":254:257   */\n      0x0100\n        /* \"--CODEGEN--\":250:272   */\n      exp\n        /* \"--CODEGEN--\":246:276   */\n      sub\n        /* \"--CODEGEN--\":315:319   */\n      dup1\n        /* \"--CODEGEN--\":311:320   */\n      not\n        /* \"--CODEGEN--\":305:308   */\n      dup3\n        /* \"--CODEGEN--\":299:309   */\n      mload\n        /* \"--CODEGEN--\":295:321   */\n      and\n        /* \"--CODEGEN--\":356:360   */\n      dup2\n        /* \"--CODEGEN--\":350:353   */\n      dup5\n        /* \"--CODEGEN--\":344:354   */\n      mload\n        /* \"--CODEGEN--\":340:361   */\n      and\n        /* \"--CODEGEN--\":389:396   */\n      dup1\n        /* \"--CODEGEN--\":380:387   */\n      dup3\n        /* \"--CODEGEN--\":377:397   */\n      or\n        /* \"--CODEGEN--\":372:375   */\n      dup6\n        /* \"--CODEGEN--\":365:398   */\n      mstore\n        /* \"--CODEGEN--\":3:402   */\n      pop\n      pop\n      pop\n        /* \"v2-periphery-master/v2-periphery-master/contracts/libraries/TransferHelper.sol\":1388:1451  token.call(abi.encodeWithSelector(0x23b872dd, from, to, value)) */\n      pop\n      pop\n      pop\n      swap1\n      pop\n      add\n      swap2\n      pop\n      pop\n      0x00\n      mload(0x40)\n      dup1\n      dup4\n      sub\n      dup2\n      0x00\n      dup7\n      gas\n      call\n      swap2\n      pop\n      pop\n      returndatasize\n        /* \"--CODEGEN--\":12:13   */\n      dup1\n        /* \"--CODEGEN--\":19:20   */\n      0x00\n        /* \"--CODEGEN--\":14:41   */\n      dup2\n      eq\n      tag_412\n      jumpi\n        /* \"--CODEGEN--\":67:71   */\n      0x40\n        /* \"--CODEGEN--\":61:72   */\n      mload\n        /* \"--CODEGEN--\":56:72   */\n      swap2\n      pop\n        /* \"--CODEGEN--\":134:138   */\n      0x1f\n        /* \"--CODEGEN--\":130:139   */\n      not\n        /* \"--CODEGEN--\":123:127   */\n      0x3f\n        /* \"--CODEGEN--\":105:121   */\n      returndatasize\n        /* \"--CODEGEN--\":101:128   */\n      add\n        /* \"--CODEGEN--\":97:140   */\n      and\n        /* \"--CODEGEN--\":94:95   */\n      dup3\n        /* \"--CODEGEN--\":90:141   */\n      add\n        /* \"--CODEGEN--\":84:88   */\n      0x40\n        /* \"--CODEGEN--\":77:142   */\n      mstore\n        /* \"--CODEGEN--\":157:173   */\n      returndatasize\n        /* \"--CODEGEN--\":154:155   */\n      dup3\n        /* \"--CODEGEN--\":147:174   */\n      mstore\n        /* \"--CODEGEN--\":211:227   */\n      returndatasize\n        /* \"--CODEGEN--\":208:209   */\n      0x00\n        /* \"--CODEGEN--\":201:205   */\n      0x20\n        /* \"--CODEGEN--\":198:199   */\n      dup5\n        /* \"--CODEGEN--\":194:206   */\n      add\n        /* \"--CODEGEN--\":179:228   */\n      returndatacopy\n        /* \"--CODEGEN--\":5:233   */\n      jump(tag_411)\n        /* \"--CODEGEN--\":14:41   */\n    tag_412:\n        /* \"--CODEGEN--\":32:36   */\n      0x60\n        /* \"--CODEGEN--\":27:36   */\n      swap2\n      pop\n        /* \"--CODEGEN--\":5:233   */\n    tag_411:\n      pop\n        /* \"v2-periphery-master/v2-periphery-master/contracts/libraries/TransferHelper.sol\":1352:1451  (bool success, bytes memory data) = token.call(abi.encodeWithSelector(0x23b872dd, from, to, value)) */\n      swap2\n      pop\n      swap2\n      pop\n        /* \"v2-periphery-master/v2-periphery-master/contracts/libraries/TransferHelper.sol\":1484:1491  success */\n      dup2\n        /* \"v2-periphery-master/v2-periphery-master/contracts/libraries/TransferHelper.sol\":1484:1541  success && (data.length == 0 || abi.decode(data, (bool))) */\n      dup1\n      iszero\n      tag_414\n      jumpi\n      pop\n        /* \"v2-periphery-master/v2-periphery-master/contracts/libraries/TransferHelper.sol\":1496:1507  data.length */\n      dup1\n      mload\n        /* \"v2-periphery-master/v2-periphery-master/contracts/libraries/TransferHelper.sol\":1496:1512  data.length == 0 */\n      iszero\n      dup1\n        /* \"v2-periphery-master/v2-periphery-master/contracts/libraries/TransferHelper.sol\":1496:1540  data.length == 0 || abi.decode(data, (bool)) */\n      tag_414\n      jumpi\n      pop\n        /* \"v2-periphery-master/v2-periphery-master/contracts/libraries/TransferHelper.sol\":1527:1531  data */\n      dup1\n        /* \"v2-periphery-master/v2-periphery-master/contracts/libraries/TransferHelper.sol\":1516:1540  abi.decode(data, (bool)) */\n      dup1\n      0x20\n      add\n      swap1\n      mload\n        /* \"--CODEGEN--\":15:17   */\n      0x20\n        /* \"--CODEGEN--\":10:13   */\n      dup2\n        /* \"--CODEGEN--\":7:18   */\n      lt\n        /* \"--CODEGEN--\":4:6   */\n      iszero\n      tag_415\n      jumpi\n        /* \"--CODEGEN--\":31:32   */\n      0x00\n        /* \"--CODEGEN--\":28:29   */\n      dup1\n        /* \"--CODEGEN--\":21:33   */\n      revert\n        /* \"--CODEGEN--\":4:6   */\n    tag_415:\n      pop\n        /* \"v2-periphery-master/v2-periphery-master/contracts/libraries/TransferHelper.sol\":1516:1540  abi.decode(data, (bool)) */\n      mload\n        /* \"v2-periphery-master/v2-periphery-master/contracts/libraries/TransferHelper.sol\":1496:1540  data.length == 0 || abi.decode(data, (bool)) */\n    tag_414:\n        /* \"v2-periphery-master/v2-periphery-master/contracts/libraries/TransferHelper.sol\":1462:1618  require(\r... */\n      tag_416\n      jumpi\n      mload(0x40)\n      shl(0xe5, 0x461bcd)\n      dup2\n      mstore\n      0x04\n      add\n      dup1\n      dup1\n      0x20\n      add\n      dup3\n      dup2\n      sub\n      dup3\n      mstore\n      0x31\n      dup2\n      mstore\n      0x20\n      add\n      dup1\n      data_3f8faf98afe9344b6d4b0e75b0101259bf282914b3b5a9320c6918b6e27ede1c\n      0x31\n      swap2\n      codecopy\n      0x40\n      add\n      swap2\n      pop\n      pop\n      mload(0x40)\n      dup1\n      swap2\n      sub\n      swap1\n      revert\n    tag_416:\n        /* \"v2-periphery-master/v2-periphery-master/contracts/libraries/TransferHelper.sol\":1128:1626  function safeTransferFrom(\r... */\n      pop\n      pop\n      pop\n      pop\n      pop\n      pop\n      jump\t// out\n        /* \"v2-periphery-master/v2-periphery-master/contracts/DEXV2Router01.sol\":6679:7348  function _swap(uint[] memory amounts, address[] memory path, address _to) private {... */\n    tag_179:\n        /* \"v2-periphery-master/v2-periphery-master/contracts/DEXV2Router01.sol\":6776:6782  uint i */\n      0x00\n        /* \"v2-periphery-master/v2-periphery-master/contracts/DEXV2Router01.sol\":6771:7342  for (uint i; i < path.length - 1; i++) {... */\n    tag_418:\n        /* \"v2-periphery-master/v2-periphery-master/contracts/DEXV2Router01.sol\":6802:6803  1 */\n      0x01\n        /* \"v2-periphery-master/v2-periphery-master/contracts/DEXV2Router01.sol\":6788:6792  path */\n      dup4\n        /* \"v2-periphery-master/v2-periphery-master/contracts/DEXV2Router01.sol\":6788:6799  path.length */\n      mload\n        /* \"v2-periphery-master/v2-periphery-master/contracts/DEXV2Router01.sol\":6788:6803  path.length - 1 */\n      sub\n        /* \"v2-periphery-master/v2-periphery-master/contracts/DEXV2Router01.sol\":6784:6785  i */\n      dup2\n        /* \"v2-periphery-master/v2-periphery-master/contracts/DEXV2Router01.sol\":6784:6803  i < path.length - 1 */\n      lt\n        /* \"v2-periphery-master/v2-periphery-master/contracts/DEXV2Router01.sol\":6771:7342  for (uint i; i < path.length - 1; i++) {... */\n      iszero\n      tag_419\n      jumpi\n        /* \"v2-periphery-master/v2-periphery-master/contracts/DEXV2Router01.sol\":6825:6838  address input */\n      0x00\n        /* \"v2-periphery-master/v2-periphery-master/contracts/DEXV2Router01.sol\":6840:6854  address output */\n      dup1\n        /* \"v2-periphery-master/v2-periphery-master/contracts/DEXV2Router01.sol\":6859:6863  path */\n      dup5\n        /* \"v2-periphery-master/v2-periphery-master/contracts/DEXV2Router01.sol\":6864:6865  i */\n      dup4\n        /* \"v2-periphery-master/v2-periphery-master/contracts/DEXV2Router01.sol\":6859:6866  path[i] */\n      dup2\n      mload\n      dup2\n      lt\n      tag_421\n      jumpi\n      invalid\n    tag_421:\n      0x20\n      mul\n      0x20\n      add\n      add\n      mload\n        /* \"v2-periphery-master/v2-periphery-master/contracts/DEXV2Router01.sol\":6868:6872  path */\n      dup6\n        /* \"v2-periphery-master/v2-periphery-master/contracts/DEXV2Router01.sol\":6873:6874  i */\n      dup5\n        /* \"v2-periphery-master/v2-periphery-master/contracts/DEXV2Router01.sol\":6877:6878  1 */\n      0x01\n        /* \"v2-periphery-master/v2-periphery-master/contracts/DEXV2Router01.sol\":6873:6878  i + 1 */\n      add\n        /* \"v2-periphery-master/v2-periphery-master/contracts/DEXV2Router01.sol\":6868:6879  path[i + 1] */\n      dup2\n      mload\n      dup2\n      lt\n      tag_422\n      jumpi\n      invalid\n    tag_422:\n      0x20\n      mul\n      0x20\n      add\n      add\n      mload\n        /* \"v2-periphery-master/v2-periphery-master/contracts/DEXV2Router01.sol\":6824:6880  (address input, address output) = (path[i], path[i + 1]) */\n      swap2\n      pop\n      swap2\n      pop\n        /* \"v2-periphery-master/v2-periphery-master/contracts/DEXV2Router01.sol\":6895:6909  address token0 */\n      0x00\n        /* \"v2-periphery-master/v2-periphery-master/contracts/DEXV2Router01.sol\":6914:6952  DEXV2Library.sortTokens(input, output) */\n      tag_423\n        /* \"v2-periphery-master/v2-periphery-master/contracts/DEXV2Router01.sol\":6938:6943  input */\n      dup4\n        /* \"v2-periphery-master/v2-periphery-master/contracts/DEXV2Router01.sol\":6945:6951  output */\n      dup4\n        /* \"v2-periphery-master/v2-periphery-master/contracts/DEXV2Router01.sol\":6914:6937  DEXV2Library.sortTokens */\n      tag_284\n        /* \"v2-periphery-master/v2-periphery-master/contracts/DEXV2Router01.sol\":6914:6952  DEXV2Library.sortTokens(input, output) */\n      jump\t// in\n    tag_423:\n        /* \"v2-periphery-master/v2-periphery-master/contracts/DEXV2Router01.sol\":6894:6952  (address token0,) = DEXV2Library.sortTokens(input, output) */\n      pop\n      swap1\n      pop\n        /* \"v2-periphery-master/v2-periphery-master/contracts/DEXV2Router01.sol\":6966:6980  uint amountOut */\n      0x00\n        /* \"v2-periphery-master/v2-periphery-master/contracts/DEXV2Router01.sol\":6983:6990  amounts */\n      dup8\n        /* \"v2-periphery-master/v2-periphery-master/contracts/DEXV2Router01.sol\":6991:6992  i */\n      dup6\n        /* \"v2-periphery-master/v2-periphery-master/contracts/DEXV2Router01.sol\":6995:6996  1 */\n      0x01\n        /* \"v2-periphery-master/v2-periphery-master/contracts/DEXV2Router01.sol\":6991:6996  i + 1 */\n      add\n        /* \"v2-periphery-master/v2-periphery-master/contracts/DEXV2Router01.sol\":6983:6997  amounts[i + 1] */\n      dup2\n      mload\n      dup2\n      lt\n      tag_424\n      jumpi\n      invalid\n    tag_424:\n      0x20\n      mul\n      0x20\n      add\n      add\n      mload\n        /* \"v2-periphery-master/v2-periphery-master/contracts/DEXV2Router01.sol\":6966:6997  uint amountOut = amounts[i + 1] */\n      swap1\n      pop\n        /* \"v2-periphery-master/v2-periphery-master/contracts/DEXV2Router01.sol\":7012:7027  uint amount0Out */\n      0x00\n        /* \"v2-periphery-master/v2-periphery-master/contracts/DEXV2Router01.sol\":7029:7044  uint amount1Out */\n      dup1\n        /* \"v2-periphery-master/v2-periphery-master/contracts/DEXV2Router01.sol\":7057:7063  token0 */\n      dup4\n      sub(shl(0xa0, 0x01), 0x01)\n        /* \"v2-periphery-master/v2-periphery-master/contracts/DEXV2Router01.sol\":7048:7063  input == token0 */\n      and\n        /* \"v2-periphery-master/v2-periphery-master/contracts/DEXV2Router01.sol\":7048:7053  input */\n      dup7\n      sub(shl(0xa0, 0x01), 0x01)\n        /* \"v2-periphery-master/v2-periphery-master/contracts/DEXV2Router01.sol\":7048:7063  input == token0 */\n      and\n      eq\n        /* \"v2-periphery-master/v2-periphery-master/contracts/DEXV2Router01.sol\":7048:7109  input == token0 ? (uint(0), amountOut) : (amountOut, uint(0)) */\n      tag_425\n      jumpi\n        /* \"v2-periphery-master/v2-periphery-master/contracts/DEXV2Router01.sol\":7090:7099  amountOut */\n      dup3\n        /* \"v2-periphery-master/v2-periphery-master/contracts/DEXV2Router01.sol\":7106:7107  0 */\n      0x00\n        /* \"v2-periphery-master/v2-periphery-master/contracts/DEXV2Router01.sol\":7048:7109  input == token0 ? (uint(0), amountOut) : (amountOut, uint(0)) */\n      jump(tag_426)\n    tag_425:\n        /* \"v2-periphery-master/v2-periphery-master/contracts/DEXV2Router01.sol\":7072:7073  0 */\n      0x00\n        /* \"v2-periphery-master/v2-periphery-master/contracts/DEXV2Router01.sol\":7076:7085  amountOut */\n      dup4\n        /* \"v2-periphery-master/v2-periphery-master/contracts/DEXV2Router01.sol\":7048:7109  input == token0 ? (uint(0), amountOut) : (amountOut, uint(0)) */\n    tag_426:\n        /* \"v2-periphery-master/v2-periphery-master/contracts/DEXV2Router01.sol\":7011:7109  (uint amount0Out, uint amount1Out) = input == token0 ? (uint(0), amountOut) : (amountOut, uint(0)) */\n      swap2\n      pop\n      swap2\n      pop\n        /* \"v2-periphery-master/v2-periphery-master/contracts/DEXV2Router01.sol\":7123:7133  address to */\n      0x00\n        /* \"v2-periphery-master/v2-periphery-master/contracts/DEXV2Router01.sol\":7154:7155  2 */\n      0x02\n        /* \"v2-periphery-master/v2-periphery-master/contracts/DEXV2Router01.sol\":7140:7144  path */\n      dup11\n        /* \"v2-periphery-master/v2-periphery-master/contracts/DEXV2Router01.sol\":7140:7151  path.length */\n      mload\n        /* \"v2-periphery-master/v2-periphery-master/contracts/DEXV2Router01.sol\":7140:7155  path.length - 2 */\n      sub\n        /* \"v2-periphery-master/v2-periphery-master/contracts/DEXV2Router01.sol\":7136:7137  i */\n      dup9\n        /* \"v2-periphery-master/v2-periphery-master/contracts/DEXV2Router01.sol\":7136:7155  i < path.length - 2 */\n      lt\n        /* \"v2-periphery-master/v2-periphery-master/contracts/DEXV2Router01.sol\":7136:7214  i < path.length - 2 ? DEXV2Library.pairFor(factory, output, path[i + 2]) : _to */\n      tag_427\n      jumpi\n        /* \"v2-periphery-master/v2-periphery-master/contracts/DEXV2Router01.sol\":7211:7214  _to */\n      dup9\n        /* \"v2-periphery-master/v2-periphery-master/contracts/DEXV2Router01.sol\":7136:7214  i < path.length - 2 ? DEXV2Library.pairFor(factory, output, path[i + 2]) : _to */\n      jump(tag_429)\n    tag_427:\n        /* \"v2-periphery-master/v2-periphery-master/contracts/DEXV2Router01.sol\":7158:7208  DEXV2Library.pairFor(factory, output, path[i + 2]) */\n      tag_429\n        /* \"v2-periphery-master/v2-periphery-master/contracts/DEXV2Router01.sol\":7179:7186  factory */\n      immutable(\"0x7f8b6b088b6d74c2852fc86c796dca07b44eed6fb3daf5e6b59f7c364db14528\")\n        /* \"v2-periphery-master/v2-periphery-master/contracts/DEXV2Router01.sol\":7188:7194  output */\n      dup8\n        /* \"v2-periphery-master/v2-periphery-master/contracts/DEXV2Router01.sol\":7196:7200  path */\n      dup13\n        /* \"v2-periphery-master/v2-periphery-master/contracts/DEXV2Router01.sol\":7201:7202  i */\n      dup12\n        /* \"v2-periphery-master/v2-periphery-master/contracts/DEXV2Router01.sol\":7205:7206  2 */\n      0x02\n        /* \"v2-periphery-master/v2-periphery-master/contracts/DEXV2Router01.sol\":7201:7206  i + 2 */\n      add\n        /* \"v2-periphery-master/v2-periphery-master/contracts/DEXV2Router01.sol\":7196:7207  path[i + 2] */\n      dup2\n      mload\n      dup2\n      lt\n      tag_430\n      jumpi\n      invalid\n    tag_430:\n      0x20\n      mul\n      0x20\n      add\n      add\n      mload\n        /* \"v2-periphery-master/v2-periphery-master/contracts/DEXV2Router01.sol\":7158:7178  DEXV2Library.pairFor */\n      tag_175\n        /* \"v2-periphery-master/v2-periphery-master/contracts/DEXV2Router01.sol\":7158:7208  DEXV2Library.pairFor(factory, output, path[i + 2]) */\n      jump\t// in\n    tag_429:\n        /* \"v2-periphery-master/v2-periphery-master/contracts/DEXV2Router01.sol\":7123:7214  address to = i < path.length - 2 ? DEXV2Library.pairFor(factory, output, path[i + 2]) : _to */\n      swap1\n      pop\n        /* \"v2-periphery-master/v2-periphery-master/contracts/DEXV2Router01.sol\":7239:7283  DEXV2Library.pairFor(factory, input, output) */\n      tag_431\n        /* \"v2-periphery-master/v2-periphery-master/contracts/DEXV2Router01.sol\":7260:7267  factory */\n      immutable(\"0x7f8b6b088b6d74c2852fc86c796dca07b44eed6fb3daf5e6b59f7c364db14528\")\n        /* \"v2-periphery-master/v2-periphery-master/contracts/DEXV2Router01.sol\":7269:7274  input */\n      dup9\n        /* \"v2-periphery-master/v2-periphery-master/contracts/DEXV2Router01.sol\":7276:7282  output */\n      dup9\n        /* \"v2-periphery-master/v2-periphery-master/contracts/DEXV2Router01.sol\":7239:7259  DEXV2Library.pairFor */\n      tag_175\n        /* \"v2-periphery-master/v2-periphery-master/contracts/DEXV2Router01.sol\":7239:7283  DEXV2Library.pairFor(factory, input, output) */\n      jump\t// in\n    tag_431:\n      sub(shl(0xa0, 0x01), 0x01)\n        /* \"v2-periphery-master/v2-periphery-master/contracts/DEXV2Router01.sol\":7228:7289  IDEXV2Pair(DEXV2Library.pairFor(factory, input, output)).swap */\n      and\n      0x022c0d9f\n        /* \"v2-periphery-master/v2-periphery-master/contracts/DEXV2Router01.sol\":7290:7300  amount0Out */\n      dup5\n        /* \"v2-periphery-master/v2-periphery-master/contracts/DEXV2Router01.sol\":7302:7312  amount1Out */\n      dup5\n        /* \"v2-periphery-master/v2-periphery-master/contracts/DEXV2Router01.sol\":7314:7316  to */\n      dup5\n        /* \"v2-periphery-master/v2-periphery-master/contracts/DEXV2Router01.sol\":7328:7329  0 */\n      0x00\n        /* \"v2-periphery-master/v2-periphery-master/contracts/DEXV2Router01.sol\":7318:7330  new bytes(0) */\n      mload(0x40)\n      swap1\n      dup1\n      dup3\n      mstore\n      dup1\n      0x1f\n      add\n      not(0x1f)\n      and\n      0x20\n      add\n      dup3\n      add\n      0x40\n      mstore\n      dup1\n      iszero\n      tag_433\n      jumpi\n      0x20\n      dup3\n      add\n        /* \"--CODEGEN--\":21:27   */\n      dup2\n      dup1\n        /* \"--CODEGEN--\":108:122   */\n      calldatasize\n        /* \"v2-periphery-master/v2-periphery-master/contracts/DEXV2Router01.sol\":7318:7330  new bytes(0) */\n      dup4\n        /* \"--CODEGEN--\":87:129   */\n      calldatacopy\n        /* \"--CODEGEN--\":143:160   */\n      add\n      swap1\n      pop\n        /* \"v2-periphery-master/v2-periphery-master/contracts/DEXV2Router01.sol\":7318:7330  new bytes(0) */\n    tag_433:\n      pop\n        /* \"v2-periphery-master/v2-periphery-master/contracts/DEXV2Router01.sol\":7228:7331  IDEXV2Pair(DEXV2Library.pairFor(factory, input, output)).swap(amount0Out, amount1Out, to, new bytes(0)) */\n      mload(0x40)\n      dup6\n      0xffffffff\n      and\n      0xe0\n      shl\n      dup2\n      mstore\n      0x04\n      add\n      dup1\n      dup6\n      dup2\n      mstore\n      0x20\n      add\n      dup5\n      dup2\n      mstore\n      0x20\n      add\n      dup4\n      sub(shl(0xa0, 0x01), 0x01)\n      and\n      sub(shl(0xa0, 0x01), 0x01)\n      and\n      dup2\n      mstore\n      0x20\n      add\n      dup1\n      0x20\n      add\n      dup3\n      dup2\n      sub\n      dup3\n      mstore\n      dup4\n      dup2\n      dup2\n      mload\n      dup2\n      mstore\n      0x20\n      add\n      swap2\n      pop\n      dup1\n      mload\n      swap1\n      0x20\n      add\n      swap1\n      dup1\n      dup4\n      dup4\n        /* \"--CODEGEN--\":23:24   */\n      0x00\n        /* \"--CODEGEN--\":8:108   */\n    tag_434:\n        /* \"--CODEGEN--\":33:36   */\n      dup4\n        /* \"--CODEGEN--\":30:31   */\n      dup2\n        /* \"--CODEGEN--\":27:37   */\n      lt\n        /* \"--CODEGEN--\":8:108   */\n      iszero\n      tag_436\n      jumpi\n        /* \"--CODEGEN--\":90:101   */\n      dup2\n      dup2\n      add\n        /* \"--CODEGEN--\":84:102   */\n      mload\n        /* \"--CODEGEN--\":71:82   */\n      dup4\n      dup3\n      add\n        /* \"--CODEGEN--\":64:103   */\n      mstore\n        /* \"--CODEGEN--\":52:54   */\n      0x20\n        /* \"--CODEGEN--\":45:55   */\n      add\n        /* \"--CODEGEN--\":8:108   */\n      jump(tag_434)\n    tag_436:\n        /* \"--CODEGEN--\":12:26   */\n      pop\n        /* \"v2-periphery-master/v2-periphery-master/contracts/DEXV2Router01.sol\":7228:7331  IDEXV2Pair(DEXV2Library.pairFor(factory, input, output)).swap(amount0Out, amount1Out, to, new bytes(0)) */\n      pop\n      pop\n      pop\n      swap1\n      pop\n      swap1\n      dup2\n      add\n      swap1\n      0x1f\n      and\n      dup1\n      iszero\n      tag_437\n      jumpi\n      dup1\n      dup3\n      sub\n      dup1\n      mload\n      0x01\n      dup4\n      0x20\n      sub\n      0x0100\n      exp\n      sub\n      not\n      and\n      dup2\n      mstore\n      0x20\n      add\n      swap2\n      pop\n    tag_437:\n      pop\n      swap6\n      pop\n      pop\n      pop\n      pop\n      pop\n      pop\n      0x00\n      mload(0x40)\n      dup1\n      dup4\n      sub\n      dup2\n      0x00\n      dup8\n      dup1\n      extcodesize\n      iszero\n        /* \"--CODEGEN--\":5:14   */\n      dup1\n        /* \"--CODEGEN--\":2:4   */\n      iszero\n      tag_438\n      jumpi\n        /* \"--CODEGEN--\":27:28   */\n      0x00\n        /* \"--CODEGEN--\":24:25   */\n      dup1\n        /* \"--CODEGEN--\":17:29   */\n      revert\n        /* \"--CODEGEN--\":2:4   */\n    tag_438:\n        /* \"v2-periphery-master/v2-periphery-master/contracts/DEXV2Router01.sol\":7228:7331  IDEXV2Pair(DEXV2Library.pairFor(factory, input, output)).swap(amount0Out, amount1Out, to, new bytes(0)) */\n      pop\n      gas\n      call\n      iszero\n        /* \"--CODEGEN--\":8:17   */\n      dup1\n        /* \"--CODEGEN--\":5:7   */\n      iszero\n      tag_440\n      jumpi\n        /* \"--CODEGEN--\":45:61   */\n      returndatasize\n        /* \"--CODEGEN--\":42:43   */\n      0x00\n        /* \"--CODEGEN--\":39:40   */\n      dup1\n        /* \"--CODEGEN--\":24:62   */\n      returndatacopy\n        /* \"--CODEGEN--\":77:93   */\n      returndatasize\n        /* \"--CODEGEN--\":74:75   */\n      0x00\n        /* \"--CODEGEN--\":67:94   */\n      revert\n        /* \"--CODEGEN--\":5:7   */\n    tag_440:\n      pop\n      pop\n        /* \"v2-periphery-master/v2-periphery-master/contracts/DEXV2Router01.sol\":6805:6808  i++ */\n      0x01\n      swap1\n      swap10\n      add\n      swap9\n      pop\n        /* \"v2-periphery-master/v2-periphery-master/contracts/DEXV2Router01.sol\":6771:7342  for (uint i; i < path.length - 1; i++) {... */\n      tag_418\n      swap8\n      pop\n      pop\n      pop\n      pop\n      pop\n      pop\n      pop\n      pop\n      jump\n    tag_419:\n      pop\n        /* \"v2-periphery-master/v2-periphery-master/contracts/DEXV2Router01.sol\":6679:7348  function _swap(uint[] memory amounts, address[] memory path, address _to) private {... */\n      pop\n      pop\n      pop\n      jump\t// out\n        /* \"v2-periphery-master/v2-periphery-master/contracts/libraries/DEXV2Library.sol\":3855:4375  function getAmountsIn(address factory, uint amountOut, address[] memory path) internal view returns (uint[] memory amounts) {... */\n    tag_188:\n        /* \"v2-periphery-master/v2-periphery-master/contracts/libraries/DEXV2Library.sol\":3956:3977  uint[] memory amounts */\n      0x60\n        /* \"v2-periphery-master/v2-periphery-master/contracts/libraries/DEXV2Library.sol\":4012:4013  2 */\n      0x02\n        /* \"v2-periphery-master/v2-periphery-master/contracts/libraries/DEXV2Library.sol\":3997:4001  path */\n      dup3\n        /* \"v2-periphery-master/v2-periphery-master/contracts/libraries/DEXV2Library.sol\":3997:4008  path.length */\n      mload\n        /* \"v2-periphery-master/v2-periphery-master/contracts/libraries/DEXV2Library.sol\":3997:4013  path.length >= 2 */\n      lt\n      iszero\n        /* \"v2-periphery-master/v2-periphery-master/contracts/libraries/DEXV2Library.sol\":3989:4044  require(path.length >= 2, 'DEXV2Library: INVALID_PATH') */\n      tag_442\n      jumpi\n      0x40\n      dup1\n      mload\n      shl(0xe5, 0x461bcd)\n      dup2\n      mstore\n      0x20\n      0x04\n      dup3\n      add\n      mstore\n      0x1a\n      0x24\n      dup3\n      add\n      mstore\n      0x44455856324c6962726172793a20494e56414c49445f50415448000000000000\n      0x44\n      dup3\n      add\n      mstore\n      swap1\n      mload\n      swap1\n      dup2\n      swap1\n      sub\n      0x64\n      add\n      swap1\n      revert\n    tag_442:\n        /* \"v2-periphery-master/v2-periphery-master/contracts/libraries/DEXV2Library.sol\":4075:4079  path */\n      dup2\n        /* \"v2-periphery-master/v2-periphery-master/contracts/libraries/DEXV2Library.sol\":4075:4086  path.length */\n      mload\n        /* \"v2-periphery-master/v2-periphery-master/contracts/libraries/DEXV2Library.sol\":4064:4087  new uint[](path.length) */\n      0xffffffffffffffff\n      dup2\n      gt\n        /* \"--CODEGEN--\":5:14   */\n      dup1\n        /* \"--CODEGEN--\":2:4   */\n      iszero\n      tag_443\n      jumpi\n        /* \"--CODEGEN--\":27:28   */\n      0x00\n        /* \"--CODEGEN--\":24:25   */\n      dup1\n        /* \"--CODEGEN--\":17:29   */\n      revert\n        /* \"--CODEGEN--\":2:4   */\n    tag_443:\n        /* \"v2-periphery-master/v2-periphery-master/contracts/libraries/DEXV2Library.sol\":4064:4087  new uint[](path.length) */\n      pop\n      mload(0x40)\n      swap1\n      dup1\n      dup3\n      mstore\n      dup1\n      0x20\n      mul\n      0x20\n      add\n      dup3\n      add\n      0x40\n      mstore\n      dup1\n      iszero\n      tag_444\n      jumpi\n      dup2\n      0x20\n      add\n        /* \"--CODEGEN--\":29:31   */\n      0x20\n        /* \"--CODEGEN--\":21:27   */\n      dup3\n        /* \"--CODEGEN--\":17:32   */\n      mul\n        /* \"--CODEGEN--\":125:129   */\n      dup1\n        /* \"--CODEGEN--\":109:123   */\n      calldatasize\n        /* \"--CODEGEN--\":101:107   */\n      dup4\n        /* \"--CODEGEN--\":88:130   */\n      calldatacopy\n        /* \"--CODEGEN--\":144:161   */\n      add\n      swap1\n      pop\n        /* \"v2-periphery-master/v2-periphery-master/contracts/libraries/DEXV2Library.sol\":4064:4087  new uint[](path.length) */\n    tag_444:\n      pop\n        /* \"v2-periphery-master/v2-periphery-master/contracts/libraries/DEXV2Library.sol\":4054:4087  amounts = new uint[](path.length) */\n      swap1\n      pop\n        /* \"v2-periphery-master/v2-periphery-master/contracts/libraries/DEXV2Library.sol\":4127:4136  amountOut */\n      dup3\n        /* \"v2-periphery-master/v2-periphery-master/contracts/libraries/DEXV2Library.sol\":4097:4104  amounts */\n      dup2\n        /* \"v2-periphery-master/v2-periphery-master/contracts/libraries/DEXV2Library.sol\":4122:4123  1 */\n      0x01\n        /* \"v2-periphery-master/v2-periphery-master/contracts/libraries/DEXV2Library.sol\":4105:4112  amounts */\n      dup4\n        /* \"v2-periphery-master/v2-periphery-master/contracts/libraries/DEXV2Library.sol\":4105:4119  amounts.length */\n      mload\n        /* \"v2-periphery-master/v2-periphery-master/contracts/libraries/DEXV2Library.sol\":4105:4123  amounts.length - 1 */\n      sub\n        /* \"v2-periphery-master/v2-periphery-master/contracts/libraries/DEXV2Library.sol\":4097:4124  amounts[amounts.length - 1] */\n      dup2\n      mload\n      dup2\n      lt\n      tag_445\n      jumpi\n      invalid\n    tag_445:\n      0x20\n      swap1\n      dup2\n      mul\n      swap2\n      swap1\n      swap2\n      add\n      add\n        /* \"v2-periphery-master/v2-periphery-master/contracts/libraries/DEXV2Library.sol\":4097:4136  amounts[amounts.length - 1] = amountOut */\n      mstore\n        /* \"v2-periphery-master/v2-periphery-master/contracts/libraries/DEXV2Library.sol\":4160:4171  path.length */\n      dup2\n      mload\n      not(0x00)\n        /* \"v2-periphery-master/v2-periphery-master/contracts/libraries/DEXV2Library.sol\":4160:4175  path.length - 1 */\n      add\n        /* \"v2-periphery-master/v2-periphery-master/contracts/libraries/DEXV2Library.sol\":4146:4369  for (uint i = path.length - 1; i > 0; i--) {... */\n    tag_446:\n        /* \"v2-periphery-master/v2-periphery-master/contracts/libraries/DEXV2Library.sol\":4177:4182  i > 0 */\n      dup1\n      iszero\n        /* \"v2-periphery-master/v2-periphery-master/contracts/libraries/DEXV2Library.sol\":4146:4369  for (uint i = path.length - 1; i > 0; i--) {... */\n      tag_395\n      jumpi\n        /* \"v2-periphery-master/v2-periphery-master/contracts/libraries/DEXV2Library.sol\":4204:4218  uint reserveIn */\n      0x00\n        /* \"v2-periphery-master/v2-periphery-master/contracts/libraries/DEXV2Library.sol\":4220:4235  uint reserveOut */\n      dup1\n        /* \"v2-periphery-master/v2-periphery-master/contracts/libraries/DEXV2Library.sol\":4239:4281  getReserves(factory, path[i - 1], path[i]) */\n      tag_449\n        /* \"v2-periphery-master/v2-periphery-master/contracts/libraries/DEXV2Library.sol\":4251:4258  factory */\n      dup8\n        /* \"v2-periphery-master/v2-periphery-master/contracts/libraries/DEXV2Library.sol\":4260:4264  path */\n      dup7\n        /* \"v2-periphery-master/v2-periphery-master/contracts/libraries/DEXV2Library.sol\":4269:4270  1 */\n      0x01\n        /* \"v2-periphery-master/v2-periphery-master/contracts/libraries/DEXV2Library.sol\":4265:4266  i */\n      dup7\n        /* \"v2-periphery-master/v2-periphery-master/contracts/libraries/DEXV2Library.sol\":4265:4270  i - 1 */\n      sub\n        /* \"v2-periphery-master/v2-periphery-master/contracts/libraries/DEXV2Library.sol\":4260:4271  path[i - 1] */\n      dup2\n      mload\n      dup2\n      lt\n      tag_450\n      jumpi\n      invalid\n    tag_450:\n      0x20\n      mul\n      0x20\n      add\n      add\n      mload\n        /* \"v2-periphery-master/v2-periphery-master/contracts/libraries/DEXV2Library.sol\":4273:4277  path */\n      dup8\n        /* \"v2-periphery-master/v2-periphery-master/contracts/libraries/DEXV2Library.sol\":4278:4279  i */\n      dup7\n        /* \"v2-periphery-master/v2-periphery-master/contracts/libraries/DEXV2Library.sol\":4273:4280  path[i] */\n      dup2\n      mload\n      dup2\n      lt\n      tag_399\n      jumpi\n      invalid\n        /* \"v2-periphery-master/v2-periphery-master/contracts/libraries/DEXV2Library.sol\":4239:4281  getReserves(factory, path[i - 1], path[i]) */\n    tag_449:\n        /* \"v2-periphery-master/v2-periphery-master/contracts/libraries/DEXV2Library.sol\":4203:4281  (uint reserveIn, uint reserveOut) = getReserves(factory, path[i - 1], path[i]) */\n      swap2\n      pop\n      swap2\n      pop\n        /* \"v2-periphery-master/v2-periphery-master/contracts/libraries/DEXV2Library.sol\":4312:4358  getAmountIn(amounts[i], reserveIn, reserveOut) */\n      tag_452\n        /* \"v2-periphery-master/v2-periphery-master/contracts/libraries/DEXV2Library.sol\":4324:4331  amounts */\n      dup5\n        /* \"v2-periphery-master/v2-periphery-master/contracts/libraries/DEXV2Library.sol\":4332:4333  i */\n      dup5\n        /* \"v2-periphery-master/v2-periphery-master/contracts/libraries/DEXV2Library.sol\":4324:4334  amounts[i] */\n      dup2\n      mload\n      dup2\n      lt\n      tag_453\n      jumpi\n      invalid\n    tag_453:\n      0x20\n      mul\n      0x20\n      add\n      add\n      mload\n        /* \"v2-periphery-master/v2-periphery-master/contracts/libraries/DEXV2Library.sol\":4336:4345  reserveIn */\n      dup4\n        /* \"v2-periphery-master/v2-periphery-master/contracts/libraries/DEXV2Library.sol\":4347:4357  reserveOut */\n      dup4\n        /* \"v2-periphery-master/v2-periphery-master/contracts/libraries/DEXV2Library.sol\":4312:4323  getAmountIn */\n      tag_454\n        /* \"v2-periphery-master/v2-periphery-master/contracts/libraries/DEXV2Library.sol\":4312:4358  getAmountIn(amounts[i], reserveIn, reserveOut) */\n      jump\t// in\n    tag_452:\n        /* \"v2-periphery-master/v2-periphery-master/contracts/libraries/DEXV2Library.sol\":4295:4302  amounts */\n      dup5\n        /* \"v2-periphery-master/v2-periphery-master/contracts/libraries/DEXV2Library.sol\":4307:4308  1 */\n      0x01\n        /* \"v2-periphery-master/v2-periphery-master/contracts/libraries/DEXV2Library.sol\":4303:4304  i */\n      dup6\n        /* \"v2-periphery-master/v2-periphery-master/contracts/libraries/DEXV2Library.sol\":4303:4308  i - 1 */\n      sub\n        /* \"v2-periphery-master/v2-periphery-master/contracts/libraries/DEXV2Library.sol\":4295:4309  amounts[i - 1] */\n      dup2\n      mload\n      dup2\n      lt\n      tag_455\n      jumpi\n      invalid\n    tag_455:\n      0x20\n      swap1\n      dup2\n      mul\n      swap2\n      swap1\n      swap2\n      add\n      add\n        /* \"v2-periphery-master/v2-periphery-master/contracts/libraries/DEXV2Library.sol\":4295:4358  amounts[i - 1] = getAmountIn(amounts[i], reserveIn, reserveOut) */\n      mstore\n      pop\n      pop\n      not(0x00)\n        /* \"v2-periphery-master/v2-periphery-master/contracts/libraries/DEXV2Library.sol\":4184:4187  i-- */\n      add\n        /* \"v2-periphery-master/v2-periphery-master/contracts/libraries/DEXV2Library.sol\":4146:4369  for (uint i = path.length - 1; i > 0; i--) {... */\n      jump(tag_446)\n        /* \"v2-periphery-master/v2-periphery-master/contracts/libraries/DEXV2Library.sol\":1693:2002  function quote(uint amountA, uint reserveA, uint reserveB) internal pure returns (uint amountB) {... */\n    tag_270:\n        /* \"v2-periphery-master/v2-periphery-master/contracts/libraries/DEXV2Library.sol\":1775:1787  uint amountB */\n      0x00\n        /* \"v2-periphery-master/v2-periphery-master/contracts/libraries/DEXV2Library.sol\":1817:1818  0 */\n      dup1\n        /* \"v2-periphery-master/v2-periphery-master/contracts/libraries/DEXV2Library.sol\":1807:1814  amountA */\n      dup5\n        /* \"v2-periphery-master/v2-periphery-master/contracts/libraries/DEXV2Library.sol\":1807:1818  amountA > 0 */\n      gt\n        /* \"v2-periphery-master/v2-periphery-master/contracts/libraries/DEXV2Library.sol\":1799:1856  require(amountA > 0, 'DEXV2Library: INSUFFICIENT_AMOUNT') */\n      tag_457\n      jumpi\n      mload(0x40)\n      shl(0xe5, 0x461bcd)\n      dup2\n      mstore\n      0x04\n      add\n      dup1\n      dup1\n      0x20\n      add\n      dup3\n      dup2\n      sub\n      dup3\n      mstore\n      0x21\n      dup2\n      mstore\n      0x20\n      add\n      dup1\n      data_bfff83fa53910c0962ce4909abb873c26b7b082c14673d632866e7b51319db3f\n      0x21\n      swap2\n      codecopy\n      0x40\n      add\n      swap2\n      pop\n      pop\n      mload(0x40)\n      dup1\n      swap2\n      sub\n      swap1\n      revert\n    tag_457:\n        /* \"v2-periphery-master/v2-periphery-master/contracts/libraries/DEXV2Library.sol\":1885:1886  0 */\n      0x00\n        /* \"v2-periphery-master/v2-periphery-master/contracts/libraries/DEXV2Library.sol\":1874:1882  reserveA */\n      dup4\n        /* \"v2-periphery-master/v2-periphery-master/contracts/libraries/DEXV2Library.sol\":1874:1886  reserveA > 0 */\n      gt\n        /* \"v2-periphery-master/v2-periphery-master/contracts/libraries/DEXV2Library.sol\":1874:1902  reserveA > 0 && reserveB > 0 */\n      dup1\n      iszero\n      tag_458\n      jumpi\n      pop\n        /* \"v2-periphery-master/v2-periphery-master/contracts/libraries/DEXV2Library.sol\":1901:1902  0 */\n      0x00\n        /* \"v2-periphery-master/v2-periphery-master/contracts/libraries/DEXV2Library.sol\":1890:1898  reserveB */\n      dup3\n        /* \"v2-periphery-master/v2-periphery-master/contracts/libraries/DEXV2Library.sol\":1890:1902  reserveB > 0 */\n      gt\n        /* \"v2-periphery-master/v2-periphery-master/contracts/libraries/DEXV2Library.sol\":1874:1902  reserveA > 0 && reserveB > 0 */\n    tag_458:\n        /* \"v2-periphery-master/v2-periphery-master/contracts/libraries/DEXV2Library.sol\":1866:1943  require(reserveA > 0 && reserveB > 0, 'DEXV2Library: INSUFFICIENT_LIQUIDITY') */\n      tag_459\n      jumpi\n      mload(0x40)\n      shl(0xe5, 0x461bcd)\n      dup2\n      mstore\n      0x04\n      add\n      dup1\n      dup1\n      0x20\n      add\n      dup3\n      dup2\n      sub\n      dup3\n      mstore\n      0x24\n      dup2\n      mstore\n      0x20\n      add\n      dup1\n      data_ccfaa7c5db03ba2292f8d3870d9c6674c20c17a9f2323fc6c889ba3627a9f957\n      0x24\n      swap2\n      codecopy\n      0x40\n      add\n      swap2\n      pop\n      pop\n      mload(0x40)\n      dup1\n      swap2\n      sub\n      swap1\n      revert\n    tag_459:\n        /* \"v2-periphery-master/v2-periphery-master/contracts/libraries/DEXV2Library.sol\":1987:1995  reserveA */\n      dup3\n        /* \"v2-periphery-master/v2-periphery-master/contracts/libraries/DEXV2Library.sol\":1963:1984  amountA.mul(reserveB) */\n      tag_460\n        /* \"v2-periphery-master/v2-periphery-master/contracts/libraries/DEXV2Library.sol\":1963:1970  amountA */\n      dup6\n        /* \"v2-periphery-master/v2-periphery-master/contracts/libraries/DEXV2Library.sol\":1975:1983  reserveB */\n      dup5\n        /* \"v2-periphery-master/v2-periphery-master/contracts/libraries/DEXV2Library.sol\":1963:1984  amountA.mul(reserveB) */\n      0xffffffff\n        /* \"v2-periphery-master/v2-periphery-master/contracts/libraries/DEXV2Library.sol\":1963:1974  amountA.mul */\n      tag_383\n        /* \"v2-periphery-master/v2-periphery-master/contracts/libraries/DEXV2Library.sol\":1963:1984  amountA.mul(reserveB) */\n      and\n      jump\t// in\n    tag_460:\n        /* \"v2-periphery-master/v2-periphery-master/contracts/libraries/DEXV2Library.sol\":1963:1995  amountA.mul(reserveB) / reserveA */\n      dup2\n      tag_461\n      jumpi\n      invalid\n    tag_461:\n      div\n      swap5\n        /* \"v2-periphery-master/v2-periphery-master/contracts/libraries/DEXV2Library.sol\":1693:2002  function quote(uint amountA, uint reserveA, uint reserveB) internal pure returns (uint amountB) {... */\n      swap4\n      pop\n      pop\n      pop\n      pop\n      jump\t// out\n        /* \"v2-periphery-master/v2-periphery-master/contracts/libraries/DEXV2Library.sol\":249:586  function sortTokens(address tokenA, address tokenB) internal pure returns (address token0, address token1) {... */\n    tag_284:\n        /* \"v2-periphery-master/v2-periphery-master/contracts/libraries/DEXV2Library.sol\":324:338  address token0 */\n      0x00\n        /* \"v2-periphery-master/v2-periphery-master/contracts/libraries/DEXV2Library.sol\":340:354  address token1 */\n      dup1\n        /* \"v2-periphery-master/v2-periphery-master/contracts/libraries/DEXV2Library.sol\":384:390  tokenB */\n      dup3\n      sub(shl(0xa0, 0x01), 0x01)\n        /* \"v2-periphery-master/v2-periphery-master/contracts/libraries/DEXV2Library.sol\":374:390  tokenA != tokenB */\n      and\n        /* \"v2-periphery-master/v2-periphery-master/contracts/libraries/DEXV2Library.sol\":374:380  tokenA */\n      dup5\n      sub(shl(0xa0, 0x01), 0x01)\n        /* \"v2-periphery-master/v2-periphery-master/contracts/libraries/DEXV2Library.sol\":374:390  tokenA != tokenB */\n      and\n      eq\n      iszero\n        /* \"v2-periphery-master/v2-periphery-master/contracts/libraries/DEXV2Library.sol\":366:428  require(tokenA != tokenB, 'DEXV2Library: IDENTICAL_ADDRESSES') */\n      tag_463\n      jumpi\n      mload(0x40)\n      shl(0xe5, 0x461bcd)\n      dup2\n      mstore\n      0x04\n      add\n      dup1\n      dup1\n      0x20\n      add\n      dup3\n      dup2\n      sub\n      dup3\n      mstore\n      0x21\n      dup2\n      mstore\n      0x20\n      add\n      dup1\n      data_8f26e21d8ae2d07ba282dbb971300f0a123d388182d89bc76aa6e30b8b884c66\n      0x21\n      swap2\n      codecopy\n      0x40\n      add\n      swap2\n      pop\n      pop\n      mload(0x40)\n      dup1\n      swap2\n      sub\n      swap1\n      revert\n    tag_463:\n        /* \"v2-periphery-master/v2-periphery-master/contracts/libraries/DEXV2Library.sol\":466:472  tokenB */\n      dup3\n      sub(shl(0xa0, 0x01), 0x01)\n        /* \"v2-periphery-master/v2-periphery-master/contracts/libraries/DEXV2Library.sol\":457:472  tokenA < tokenB */\n      and\n        /* \"v2-periphery-master/v2-periphery-master/contracts/libraries/DEXV2Library.sol\":457:463  tokenA */\n      dup5\n      sub(shl(0xa0, 0x01), 0x01)\n        /* \"v2-periphery-master/v2-periphery-master/contracts/libraries/DEXV2Library.sol\":457:472  tokenA < tokenB */\n      and\n      lt\n        /* \"v2-periphery-master/v2-periphery-master/contracts/libraries/DEXV2Library.sol\":457:510  tokenA < tokenB ? (tokenA, tokenB) : (tokenB, tokenA) */\n      tag_464\n      jumpi\n        /* \"v2-periphery-master/v2-periphery-master/contracts/libraries/DEXV2Library.sol\":495:501  tokenB */\n      dup3\n        /* \"v2-periphery-master/v2-periphery-master/contracts/libraries/DEXV2Library.sol\":503:509  tokenA */\n      dup5\n        /* \"v2-periphery-master/v2-periphery-master/contracts/libraries/DEXV2Library.sol\":457:510  tokenA < tokenB ? (tokenA, tokenB) : (tokenB, tokenA) */\n      jump(tag_465)\n    tag_464:\n        /* \"v2-periphery-master/v2-periphery-master/contracts/libraries/DEXV2Library.sol\":476:482  tokenA */\n      dup4\n        /* \"v2-periphery-master/v2-periphery-master/contracts/libraries/DEXV2Library.sol\":484:490  tokenB */\n      dup4\n        /* \"v2-periphery-master/v2-periphery-master/contracts/libraries/DEXV2Library.sol\":457:510  tokenA < tokenB ? (tokenA, tokenB) : (tokenB, tokenA) */\n    tag_465:\n        /* \"v2-periphery-master/v2-periphery-master/contracts/libraries/DEXV2Library.sol\":438:510  (token0, token1) = tokenA < tokenB ? (tokenA, tokenB) : (tokenB, tokenA) */\n      swap1\n      swap3\n      pop\n      swap1\n      pop\n      sub(shl(0xa0, 0x01), 0x01)\n        /* \"v2-periphery-master/v2-periphery-master/contracts/libraries/DEXV2Library.sol\":528:548  token0 != address(0) */\n      dup3\n      and\n        /* \"v2-periphery-master/v2-periphery-master/contracts/libraries/DEXV2Library.sol\":520:579  require(token0 != address(0), 'DEXV2Library: ZERO_ADDRESS') */\n      tag_466\n      jumpi\n      0x40\n      dup1\n      mload\n      shl(0xe5, 0x461bcd)\n      dup2\n      mstore\n      0x20\n      0x04\n      dup3\n      add\n      mstore\n      0x1a\n      0x24\n      dup3\n      add\n      mstore\n      0x44455856324c6962726172793a205a45524f5f41444452455353000000000000\n      0x44\n      dup3\n      add\n      mstore\n      swap1\n      mload\n      swap1\n      dup2\n      swap1\n      sub\n      0x64\n      add\n      swap1\n      revert\n    tag_466:\n        /* \"v2-periphery-master/v2-periphery-master/contracts/libraries/DEXV2Library.sol\":249:586  function sortTokens(address tokenA, address tokenB) internal pure returns (address token0, address token1) {... */\n      swap3\n      pop\n      swap3\n      swap1\n      pop\n      jump\t// out\n        /* \"v2-periphery-master/v2-periphery-master/contracts/DEXV2Router01.sol\":798:2124  function _addLiquidity(... */\n    tag_303:\n        /* \"v2-periphery-master/v2-periphery-master/contracts/DEXV2Router01.sol\":1093:1139  IDEXV2Factory(factory).getPair(tokenA, tokenB) */\n      0x40\n      dup1\n      mload\n      shl(0xe0, 0xe6a43905)\n      dup2\n      mstore\n      sub(shl(0xa0, 0x01), 0x01)\n      dup9\n      dup2\n      and\n      0x04\n      dup4\n      add\n      mstore\n      dup8\n      dup2\n      and\n      0x24\n      dup4\n      add\n      mstore\n      swap2\n      mload\n        /* \"v2-periphery-master/v2-periphery-master/contracts/DEXV2Router01.sol\":1000:1012  uint amountA */\n      0x00\n      swap3\n      dup4\n      swap3\n      dup4\n      swap3\n        /* \"v2-periphery-master/v2-periphery-master/contracts/DEXV2Router01.sol\":1107:1114  factory */\n      immutable(\"0x7f8b6b088b6d74c2852fc86c796dca07b44eed6fb3daf5e6b59f7c364db14528\")\n        /* \"v2-periphery-master/v2-periphery-master/contracts/DEXV2Router01.sol\":1093:1123  IDEXV2Factory(factory).getPair */\n      swap1\n      swap3\n      and\n      swap2\n      0xe6a43905\n      swap2\n        /* \"v2-periphery-master/v2-periphery-master/contracts/DEXV2Router01.sol\":1093:1139  IDEXV2Factory(factory).getPair(tokenA, tokenB) */\n      0x44\n      dup1\n      dup3\n      add\n      swap3\n      0x20\n      swap3\n      swap1\n      swap2\n      swap1\n      dup3\n      swap1\n      sub\n      add\n      dup2\n        /* \"v2-periphery-master/v2-periphery-master/contracts/DEXV2Router01.sol\":1093:1123  IDEXV2Factory(factory).getPair */\n      dup7\n        /* \"v2-periphery-master/v2-periphery-master/contracts/DEXV2Router01.sol\":1093:1139  IDEXV2Factory(factory).getPair(tokenA, tokenB) */\n      dup1\n      extcodesize\n      iszero\n        /* \"--CODEGEN--\":2:4   */\n      dup1\n      iszero\n      tag_468\n      jumpi\n        /* \"--CODEGEN--\":27:28   */\n      0x00\n        /* \"--CODEGEN--\":24:25   */\n      dup1\n        /* \"--CODEGEN--\":17:29   */\n      revert\n        /* \"--CODEGEN--\":2:4   */\n    tag_468:\n        /* \"v2-periphery-master/v2-periphery-master/contracts/DEXV2Router01.sol\":1093:1139  IDEXV2Factory(factory).getPair(tokenA, tokenB) */\n      pop\n      gas\n      staticcall\n      iszero\n        /* \"--CODEGEN--\":8:17   */\n      dup1\n        /* \"--CODEGEN--\":5:7   */\n      iszero\n      tag_470\n      jumpi\n        /* \"--CODEGEN--\":45:61   */\n      returndatasize\n        /* \"--CODEGEN--\":42:43   */\n      0x00\n        /* \"--CODEGEN--\":39:40   */\n      dup1\n        /* \"--CODEGEN--\":24:62   */\n      returndatacopy\n        /* \"--CODEGEN--\":77:93   */\n      returndatasize\n        /* \"--CODEGEN--\":74:75   */\n      0x00\n        /* \"--CODEGEN--\":67:94   */\n      revert\n        /* \"--CODEGEN--\":5:7   */\n    tag_470:\n        /* \"v2-periphery-master/v2-periphery-master/contracts/DEXV2Router01.sol\":1093:1139  IDEXV2Factory(factory).getPair(tokenA, tokenB) */\n      pop\n      pop\n      pop\n      pop\n      mload(0x40)\n      returndatasize\n        /* \"--CODEGEN--\":15:17   */\n      0x20\n        /* \"--CODEGEN--\":10:13   */\n      dup2\n        /* \"--CODEGEN--\":7:18   */\n      lt\n        /* \"--CODEGEN--\":4:6   */\n      iszero\n      tag_471\n      jumpi\n        /* \"--CODEGEN--\":31:32   */\n      0x00\n        /* \"--CODEGEN--\":28:29   */\n      dup1\n        /* \"--CODEGEN--\":21:33   */\n      revert\n        /* \"--CODEGEN--\":4:6   */\n    tag_471:\n      pop\n        /* \"v2-periphery-master/v2-periphery-master/contracts/DEXV2Router01.sol\":1093:1139  IDEXV2Factory(factory).getPair(tokenA, tokenB) */\n      mload\n      sub(shl(0xa0, 0x01), 0x01)\n        /* \"v2-periphery-master/v2-periphery-master/contracts/DEXV2Router01.sol\":1093:1153  IDEXV2Factory(factory).getPair(tokenA, tokenB) == address(0) */\n      and\n      eq\n        /* \"v2-periphery-master/v2-periphery-master/contracts/DEXV2Router01.sol\":1089:1229  if (IDEXV2Factory(factory).getPair(tokenA, tokenB) == address(0)) {... */\n      iszero\n      tag_472\n      jumpi\n        /* \"v2-periphery-master/v2-periphery-master/contracts/DEXV2Router01.sol\":1169:1218  IDEXV2Factory(factory).createPair(tokenA, tokenB) */\n      0x40\n      dup1\n      mload\n      shl(0xe1, 0x64e329cb)\n      dup2\n      mstore\n      sub(shl(0xa0, 0x01), 0x01)\n      dup11\n      dup2\n      and\n      0x04\n      dup4\n      add\n      mstore\n      dup10\n      dup2\n      and\n      0x24\n      dup4\n      add\n      mstore\n      swap2\n      mload\n        /* \"v2-periphery-master/v2-periphery-master/contracts/DEXV2Router01.sol\":1183:1190  factory */\n      immutable(\"0x7f8b6b088b6d74c2852fc86c796dca07b44eed6fb3daf5e6b59f7c364db14528\")\n        /* \"v2-periphery-master/v2-periphery-master/contracts/DEXV2Router01.sol\":1169:1202  IDEXV2Factory(factory).createPair */\n      swap1\n      swap3\n      and\n      swap2\n      0xc9c65396\n      swap2\n        /* \"v2-periphery-master/v2-periphery-master/contracts/DEXV2Router01.sol\":1169:1218  IDEXV2Factory(factory).createPair(tokenA, tokenB) */\n      0x44\n      dup1\n      dup3\n      add\n      swap3\n      0x20\n      swap3\n      swap1\n      swap2\n      swap1\n      dup3\n      swap1\n      sub\n      add\n      dup2\n      0x00\n        /* \"v2-periphery-master/v2-periphery-master/contracts/DEXV2Router01.sol\":1169:1202  IDEXV2Factory(factory).createPair */\n      dup8\n        /* \"v2-periphery-master/v2-periphery-master/contracts/DEXV2Router01.sol\":1169:1218  IDEXV2Factory(factory).createPair(tokenA, tokenB) */\n      dup1\n      extcodesize\n      iszero\n        /* \"--CODEGEN--\":2:4   */\n      dup1\n      iszero\n      tag_473\n      jumpi\n        /* \"--CODEGEN--\":27:28   */\n      0x00\n        /* \"--CODEGEN--\":24:25   */\n      dup1\n        /* \"--CODEGEN--\":17:29   */\n      revert\n        /* \"--CODEGEN--\":2:4   */\n    tag_473:\n        /* \"v2-periphery-master/v2-periphery-master/contracts/DEXV2Router01.sol\":1169:1218  IDEXV2Factory(factory).createPair(tokenA, tokenB) */\n      pop\n      gas\n      call\n      iszero\n        /* \"--CODEGEN--\":8:17   */\n      dup1\n        /* \"--CODEGEN--\":5:7   */\n      iszero\n      tag_475\n      jumpi\n        /* \"--CODEGEN--\":45:61   */\n      returndatasize\n        /* \"--CODEGEN--\":42:43   */\n      0x00\n        /* \"--CODEGEN--\":39:40   */\n      dup1\n        /* \"--CODEGEN--\":24:62   */\n      returndatacopy\n        /* \"--CODEGEN--\":77:93   */\n      returndatasize\n        /* \"--CODEGEN--\":74:75   */\n      0x00\n        /* \"--CODEGEN--\":67:94   */\n      revert\n        /* \"--CODEGEN--\":5:7   */\n    tag_475:\n        /* \"v2-periphery-master/v2-periphery-master/contracts/DEXV2Router01.sol\":1169:1218  IDEXV2Factory(factory).createPair(tokenA, tokenB) */\n      pop\n      pop\n      pop\n      pop\n      mload(0x40)\n      returndatasize\n        /* \"--CODEGEN--\":15:17   */\n      0x20\n        /* \"--CODEGEN--\":10:13   */\n      dup2\n        /* \"--CODEGEN--\":7:18   */\n      lt\n        /* \"--CODEGEN--\":4:6   */\n      iszero\n      tag_476\n      jumpi\n        /* \"--CODEGEN--\":31:32   */\n      0x00\n        /* \"--CODEGEN--\":28:29   */\n      dup1\n        /* \"--CODEGEN--\":21:33   */\n      revert\n        /* \"--CODEGEN--\":4:6   */\n    tag_476:\n      pop\n      pop\n        /* \"v2-periphery-master/v2-periphery-master/contracts/DEXV2Router01.sol\":1089:1229  if (IDEXV2Factory(factory).getPair(tokenA, tokenB) == address(0)) {... */\n    tag_472:\n        /* \"v2-periphery-master/v2-periphery-master/contracts/DEXV2Router01.sol\":1239:1252  uint reserveA */\n      0x00\n        /* \"v2-periphery-master/v2-periphery-master/contracts/DEXV2Router01.sol\":1254:1267  uint reserveB */\n      dup1\n        /* \"v2-periphery-master/v2-periphery-master/contracts/DEXV2Router01.sol\":1271:1320  DEXV2Library.getReserves(factory, tokenA, tokenB) */\n      tag_477\n        /* \"v2-periphery-master/v2-periphery-master/contracts/DEXV2Router01.sol\":1296:1303  factory */\n      immutable(\"0x7f8b6b088b6d74c2852fc86c796dca07b44eed6fb3daf5e6b59f7c364db14528\")\n        /* \"v2-periphery-master/v2-periphery-master/contracts/DEXV2Router01.sol\":1305:1311  tokenA */\n      dup12\n        /* \"v2-periphery-master/v2-periphery-master/contracts/DEXV2Router01.sol\":1313:1319  tokenB */\n      dup12\n        /* \"v2-periphery-master/v2-periphery-master/contracts/DEXV2Router01.sol\":1271:1295  DEXV2Library.getReserves */\n      tag_400\n        /* \"v2-periphery-master/v2-periphery-master/contracts/DEXV2Router01.sol\":1271:1320  DEXV2Library.getReserves(factory, tokenA, tokenB) */\n      jump\t// in\n    tag_477:\n        /* \"v2-periphery-master/v2-periphery-master/contracts/DEXV2Router01.sol\":1238:1320  (uint reserveA, uint reserveB) = DEXV2Library.getReserves(factory, tokenA, tokenB) */\n      swap2\n      pop\n      swap2\n      pop\n        /* \"v2-periphery-master/v2-periphery-master/contracts/DEXV2Router01.sol\":1334:1342  reserveA */\n      dup2\n        /* \"v2-periphery-master/v2-periphery-master/contracts/DEXV2Router01.sol\":1346:1347  0 */\n      0x00\n        /* \"v2-periphery-master/v2-periphery-master/contracts/DEXV2Router01.sol\":1334:1347  reserveA == 0 */\n      eq\n        /* \"v2-periphery-master/v2-periphery-master/contracts/DEXV2Router01.sol\":1334:1364  reserveA == 0 && reserveB == 0 */\n      dup1\n      iszero\n      tag_478\n      jumpi\n      pop\n        /* \"v2-periphery-master/v2-periphery-master/contracts/DEXV2Router01.sol\":1351:1364  reserveB == 0 */\n      dup1\n      iszero\n        /* \"v2-periphery-master/v2-periphery-master/contracts/DEXV2Router01.sol\":1334:1364  reserveA == 0 && reserveB == 0 */\n    tag_478:\n        /* \"v2-periphery-master/v2-periphery-master/contracts/DEXV2Router01.sol\":1330:2118  if (reserveA == 0 && reserveB == 0) {... */\n      iszero\n      tag_479\n      jumpi\n        /* \"v2-periphery-master/v2-periphery-master/contracts/DEXV2Router01.sol\":1402:1416  amountADesired */\n      dup8\n      swap4\n      pop\n        /* \"v2-periphery-master/v2-periphery-master/contracts/DEXV2Router01.sol\":1418:1432  amountBDesired */\n      dup7\n      swap3\n      pop\n        /* \"v2-periphery-master/v2-periphery-master/contracts/DEXV2Router01.sol\":1330:2118  if (reserveA == 0 && reserveB == 0) {... */\n      jump(tag_480)\n    tag_479:\n        /* \"v2-periphery-master/v2-periphery-master/contracts/DEXV2Router01.sol\":1464:1483  uint amountBOptimal */\n      0x00\n        /* \"v2-periphery-master/v2-periphery-master/contracts/DEXV2Router01.sol\":1486:1540  DEXV2Library.quote(amountADesired, reserveA, reserveB) */\n      tag_481\n        /* \"v2-periphery-master/v2-periphery-master/contracts/DEXV2Router01.sol\":1505:1519  amountADesired */\n      dup10\n        /* \"v2-periphery-master/v2-periphery-master/contracts/DEXV2Router01.sol\":1521:1529  reserveA */\n      dup5\n        /* \"v2-periphery-master/v2-periphery-master/contracts/DEXV2Router01.sol\":1531:1539  reserveB */\n      dup5\n        /* \"v2-periphery-master/v2-periphery-master/contracts/DEXV2Router01.sol\":1486:1504  DEXV2Library.quote */\n      tag_270\n        /* \"v2-periphery-master/v2-periphery-master/contracts/DEXV2Router01.sol\":1486:1540  DEXV2Library.quote(amountADesired, reserveA, reserveB) */\n      jump\t// in\n    tag_481:\n        /* \"v2-periphery-master/v2-periphery-master/contracts/DEXV2Router01.sol\":1464:1540  uint amountBOptimal = DEXV2Library.quote(amountADesired, reserveA, reserveB) */\n      swap1\n      pop\n        /* \"v2-periphery-master/v2-periphery-master/contracts/DEXV2Router01.sol\":1576:1590  amountBDesired */\n      dup8\n        /* \"v2-periphery-master/v2-periphery-master/contracts/DEXV2Router01.sol\":1558:1572  amountBOptimal */\n      dup2\n        /* \"v2-periphery-master/v2-periphery-master/contracts/DEXV2Router01.sol\":1558:1590  amountBOptimal <= amountBDesired */\n      gt\n        /* \"v2-periphery-master/v2-periphery-master/contracts/DEXV2Router01.sol\":1554:2108  if (amountBOptimal <= amountBDesired) {... */\n      tag_482\n      jumpi\n        /* \"v2-periphery-master/v2-periphery-master/contracts/DEXV2Router01.sol\":1636:1646  amountBMin */\n      dup6\n        /* \"v2-periphery-master/v2-periphery-master/contracts/DEXV2Router01.sol\":1618:1632  amountBOptimal */\n      dup2\n        /* \"v2-periphery-master/v2-periphery-master/contracts/DEXV2Router01.sol\":1618:1646  amountBOptimal >= amountBMin */\n      lt\n      iszero\n        /* \"v2-periphery-master/v2-periphery-master/contracts/DEXV2Router01.sol\":1610:1685  require(amountBOptimal >= amountBMin, 'DEXV2Router: INSUFFICIENT_B_AMOUNT') */\n      tag_483\n      jumpi\n      mload(0x40)\n      shl(0xe5, 0x461bcd)\n      dup2\n      mstore\n      0x04\n      add\n      dup1\n      dup1\n      0x20\n      add\n      dup3\n      dup2\n      sub\n      dup3\n      mstore\n      0x22\n      dup2\n      mstore\n      0x20\n      add\n      dup1\n      data_aed2d28a48ab074ff6e5bf47d32f2b7f5ee20e74c396cd7d323ef211dfa7f555\n      0x22\n      swap2\n      codecopy\n      0x40\n      add\n      swap2\n      pop\n      pop\n      mload(0x40)\n      dup1\n      swap2\n      sub\n      swap1\n      revert\n    tag_483:\n        /* \"v2-periphery-master/v2-periphery-master/contracts/DEXV2Router01.sol\":1725:1739  amountADesired */\n      dup9\n      swap5\n      pop\n        /* \"v2-periphery-master/v2-periphery-master/contracts/DEXV2Router01.sol\":1741:1755  amountBOptimal */\n      swap3\n      pop\n      dup3\n        /* \"v2-periphery-master/v2-periphery-master/contracts/DEXV2Router01.sol\":1554:2108  if (amountBOptimal <= amountBDesired) {... */\n      jump(tag_484)\n    tag_482:\n        /* \"v2-periphery-master/v2-periphery-master/contracts/DEXV2Router01.sol\":1795:1814  uint amountAOptimal */\n      0x00\n        /* \"v2-periphery-master/v2-periphery-master/contracts/DEXV2Router01.sol\":1817:1871  DEXV2Library.quote(amountBDesired, reserveB, reserveA) */\n      tag_485\n        /* \"v2-periphery-master/v2-periphery-master/contracts/DEXV2Router01.sol\":1836:1850  amountBDesired */\n      dup10\n        /* \"v2-periphery-master/v2-periphery-master/contracts/DEXV2Router01.sol\":1852:1860  reserveB */\n      dup5\n        /* \"v2-periphery-master/v2-periphery-master/contracts/DEXV2Router01.sol\":1862:1870  reserveA */\n      dup7\n        /* \"v2-periphery-master/v2-periphery-master/contracts/DEXV2Router01.sol\":1817:1835  DEXV2Library.quote */\n      tag_270\n        /* \"v2-periphery-master/v2-periphery-master/contracts/DEXV2Router01.sol\":1817:1871  DEXV2Library.quote(amountBDesired, reserveB, reserveA) */\n      jump\t// in\n    tag_485:\n        /* \"v2-periphery-master/v2-periphery-master/contracts/DEXV2Router01.sol\":1795:1871  uint amountAOptimal = DEXV2Library.quote(amountBDesired, reserveB, reserveA) */\n      swap1\n      pop\n        /* \"v2-periphery-master/v2-periphery-master/contracts/DEXV2Router01.sol\":1914:1928  amountADesired */\n      dup10\n        /* \"v2-periphery-master/v2-periphery-master/contracts/DEXV2Router01.sol\":1896:1910  amountAOptimal */\n      dup2\n        /* \"v2-periphery-master/v2-periphery-master/contracts/DEXV2Router01.sol\":1896:1928  amountAOptimal <= amountADesired */\n      gt\n      iszero\n        /* \"v2-periphery-master/v2-periphery-master/contracts/DEXV2Router01.sol\":1889:1929  assert(amountAOptimal <= amountADesired) */\n      tag_486\n      jumpi\n      invalid\n    tag_486:\n        /* \"v2-periphery-master/v2-periphery-master/contracts/DEXV2Router01.sol\":1973:1983  amountAMin */\n      dup8\n        /* \"v2-periphery-master/v2-periphery-master/contracts/DEXV2Router01.sol\":1955:1969  amountAOptimal */\n      dup2\n        /* \"v2-periphery-master/v2-periphery-master/contracts/DEXV2Router01.sol\":1955:1983  amountAOptimal >= amountAMin */\n      lt\n      iszero\n        /* \"v2-periphery-master/v2-periphery-master/contracts/DEXV2Router01.sol\":1947:2022  require(amountAOptimal >= amountAMin, 'DEXV2Router: INSUFFICIENT_A_AMOUNT') */\n      tag_487\n      jumpi\n      mload(0x40)\n      shl(0xe5, 0x461bcd)\n      dup2\n      mstore\n      0x04\n      add\n      dup1\n      dup1\n      0x20\n      add\n      dup3\n      dup2\n      sub\n      dup3\n      mstore\n      0x22\n      dup2\n      mstore\n      0x20\n      add\n      dup1\n      data_8358829d2392a9b5002ba64de292242a84c488c8e5c4cd51bfb614d83f536580\n      0x22\n      swap2\n      codecopy\n      0x40\n      add\n      swap2\n      pop\n      pop\n      mload(0x40)\n      dup1\n      swap2\n      sub\n      swap1\n      revert\n    tag_487:\n        /* \"v2-periphery-master/v2-periphery-master/contracts/DEXV2Router01.sol\":2062:2076  amountAOptimal */\n      swap5\n      pop\n        /* \"v2-periphery-master/v2-periphery-master/contracts/DEXV2Router01.sol\":2078:2092  amountBDesired */\n      dup8\n      swap4\n      pop\n        /* \"v2-periphery-master/v2-periphery-master/contracts/DEXV2Router01.sol\":1554:2108  if (amountBOptimal <= amountBDesired) {... */\n    tag_484:\n        /* \"v2-periphery-master/v2-periphery-master/contracts/DEXV2Router01.sol\":1330:2118  if (reserveA == 0 && reserveB == 0) {... */\n      pop\n    tag_480:\n        /* \"v2-periphery-master/v2-periphery-master/contracts/DEXV2Router01.sol\":798:2124  function _addLiquidity(... */\n      pop\n      pop\n      swap7\n      pop\n      swap7\n      swap5\n      pop\n      pop\n      pop\n      pop\n      pop\n      jump\t// out\n        /* \"v2-periphery-master/v2-periphery-master/contracts/libraries/SafeMath.sol\":419:559  function mul(uint x, uint y) internal pure returns (uint z) {... */\n    tag_383:\n        /* \"v2-periphery-master/v2-periphery-master/contracts/libraries/SafeMath.sol\":471:477  uint z */\n      0x00\n        /* \"v2-periphery-master/v2-periphery-master/contracts/libraries/SafeMath.sol\":497:503  y == 0 */\n      dup2\n      iszero\n      dup1\n        /* \"v2-periphery-master/v2-periphery-master/contracts/libraries/SafeMath.sol\":497:527  y == 0 || (z = x * y) / y == x */\n      tag_489\n      jumpi\n      pop\n      pop\n        /* \"v2-periphery-master/v2-periphery-master/contracts/libraries/SafeMath.sol\":512:517  x * y */\n      dup1\n      dup3\n      mul\n        /* \"v2-periphery-master/v2-periphery-master/contracts/libraries/SafeMath.sol\":526:527  x */\n      dup3\n        /* \"v2-periphery-master/v2-periphery-master/contracts/libraries/SafeMath.sol\":521:522  y */\n      dup3\n        /* \"v2-periphery-master/v2-periphery-master/contracts/libraries/SafeMath.sol\":512:517  x * y */\n      dup3\n        /* \"v2-periphery-master/v2-periphery-master/contracts/libraries/SafeMath.sol\":521:522  y */\n      dup2\n        /* \"v2-periphery-master/v2-periphery-master/contracts/libraries/SafeMath.sol\":507:522  (z = x * y) / y */\n      tag_490\n      jumpi\n      invalid\n    tag_490:\n      div\n        /* \"v2-periphery-master/v2-periphery-master/contracts/libraries/SafeMath.sol\":507:527  (z = x * y) / y == x */\n      eq\n        /* \"v2-periphery-master/v2-periphery-master/contracts/libraries/SafeMath.sol\":497:527  y == 0 || (z = x * y) / y == x */\n    tag_489:\n        /* \"v2-periphery-master/v2-periphery-master/contracts/libraries/SafeMath.sol\":489:552  require(y == 0 || (z = x * y) / y == x, 'ds-math-mul-overflow') */\n      tag_186\n      jumpi\n      0x40\n      dup1\n      mload\n      shl(0xe5, 0x461bcd)\n      dup2\n      mstore\n      0x20\n      0x04\n      dup3\n      add\n      mstore\n      0x14\n      0x24\n      dup3\n      add\n      mstore\n      shl(0x60, 0x64732d6d6174682d6d756c2d6f766572666c6f77)\n      0x44\n      dup3\n      add\n      mstore\n      swap1\n      mload\n      swap1\n      dup2\n      swap1\n      sub\n      0x64\n      add\n      swap1\n      revert\n        /* \"v2-periphery-master/v2-periphery-master/contracts/libraries/SafeMath.sol\":154:280  function add(uint x, uint y) internal pure returns (uint z) {... */\n    tag_387:\n        /* \"v2-periphery-master/v2-periphery-master/contracts/libraries/SafeMath.sol\":237:242  x + y */\n      dup1\n      dup3\n      add\n        /* \"v2-periphery-master/v2-periphery-master/contracts/libraries/SafeMath.sol\":232:248  (z = x + y) >= x */\n      dup3\n      dup2\n      lt\n      iszero\n        /* \"v2-periphery-master/v2-periphery-master/contracts/libraries/SafeMath.sol\":224:273  require((z = x + y) >= x, 'ds-math-add-overflow') */\n      tag_186\n      jumpi\n      0x40\n      dup1\n      mload\n      shl(0xe5, 0x461bcd)\n      dup2\n      mstore\n      0x20\n      0x04\n      dup3\n      add\n      mstore\n      0x14\n      0x24\n      dup3\n      add\n      mstore\n      shl(0x60, 0x64732d6d6174682d6164642d6f766572666c6f77)\n      0x44\n      dup3\n      add\n      mstore\n      swap1\n      mload\n      swap1\n      dup2\n      swap1\n      sub\n      0x64\n      add\n      swap1\n      revert\n        /* \"v2-periphery-master/v2-periphery-master/contracts/libraries/DEXV2Library.sol\":1200:1583  function getReserves(address factory, address tokenA, address tokenB) internal view returns (uint reserveA, uint reserveB) {... */\n    tag_400:\n        /* \"v2-periphery-master/v2-periphery-master/contracts/libraries/DEXV2Library.sol\":1293:1306  uint reserveA */\n      0x00\n        /* \"v2-periphery-master/v2-periphery-master/contracts/libraries/DEXV2Library.sol\":1308:1321  uint reserveB */\n      dup1\n        /* \"v2-periphery-master/v2-periphery-master/contracts/libraries/DEXV2Library.sol\":1334:1348  address token0 */\n      0x00\n        /* \"v2-periphery-master/v2-periphery-master/contracts/libraries/DEXV2Library.sol\":1353:1379  sortTokens(tokenA, tokenB) */\n      tag_495\n        /* \"v2-periphery-master/v2-periphery-master/contracts/libraries/DEXV2Library.sol\":1364:1370  tokenA */\n      dup6\n        /* \"v2-periphery-master/v2-periphery-master/contracts/libraries/DEXV2Library.sol\":1372:1378  tokenB */\n      dup6\n        /* \"v2-periphery-master/v2-periphery-master/contracts/libraries/DEXV2Library.sol\":1353:1363  sortTokens */\n      tag_284\n        /* \"v2-periphery-master/v2-periphery-master/contracts/libraries/DEXV2Library.sol\":1353:1379  sortTokens(tokenA, tokenB) */\n      jump\t// in\n    tag_495:\n        /* \"v2-periphery-master/v2-periphery-master/contracts/libraries/DEXV2Library.sol\":1333:1379  (address token0,) = sortTokens(tokenA, tokenB) */\n      pop\n      swap1\n      pop\n        /* \"v2-periphery-master/v2-periphery-master/contracts/libraries/DEXV2Library.sol\":1390:1403  uint reserve0 */\n      0x00\n        /* \"v2-periphery-master/v2-periphery-master/contracts/libraries/DEXV2Library.sol\":1405:1418  uint reserve1 */\n      dup1\n        /* \"v2-periphery-master/v2-periphery-master/contracts/libraries/DEXV2Library.sol\":1434:1466  pairFor(factory, tokenA, tokenB) */\n      tag_496\n        /* \"v2-periphery-master/v2-periphery-master/contracts/libraries/DEXV2Library.sol\":1442:1449  factory */\n      dup9\n        /* \"v2-periphery-master/v2-periphery-master/contracts/libraries/DEXV2Library.sol\":1451:1457  tokenA */\n      dup9\n        /* \"v2-periphery-master/v2-periphery-master/contracts/libraries/DEXV2Library.sol\":1459:1465  tokenB */\n      dup9\n        /* \"v2-periphery-master/v2-periphery-master/contracts/libraries/DEXV2Library.sol\":1434:1441  pairFor */\n      tag_175\n        /* \"v2-periphery-master/v2-periphery-master/contracts/libraries/DEXV2Library.sol\":1434:1466  pairFor(factory, tokenA, tokenB) */\n      jump\t// in\n    tag_496:\n      sub(shl(0xa0, 0x01), 0x01)\n        /* \"v2-periphery-master/v2-periphery-master/contracts/libraries/DEXV2Library.sol\":1423:1479  IDEXV2Pair(pairFor(factory, tokenA, tokenB)).getReserves */\n      and\n      0x0902f1ac\n        /* \"v2-periphery-master/v2-periphery-master/contracts/libraries/DEXV2Library.sol\":1423:1481  IDEXV2Pair(pairFor(factory, tokenA, tokenB)).getReserves() */\n      mload(0x40)\n      dup2\n      0xffffffff\n      and\n      0xe0\n      shl\n      dup2\n      mstore\n      0x04\n      add\n      0x60\n      mload(0x40)\n      dup1\n      dup4\n      sub\n      dup2\n      dup7\n      dup1\n      extcodesize\n      iszero\n        /* \"--CODEGEN--\":5:14   */\n      dup1\n        /* \"--CODEGEN--\":2:4   */\n      iszero\n      tag_497\n      jumpi\n        /* \"--CODEGEN--\":27:28   */\n      0x00\n        /* \"--CODEGEN--\":24:25   */\n      dup1\n        /* \"--CODEGEN--\":17:29   */\n      revert\n        /* \"--CODEGEN--\":2:4   */\n    tag_497:\n        /* \"v2-periphery-master/v2-periphery-master/contracts/libraries/DEXV2Library.sol\":1423:1481  IDEXV2Pair(pairFor(factory, tokenA, tokenB)).getReserves() */\n      pop\n      gas\n      staticcall\n      iszero\n        /* \"--CODEGEN--\":8:17   */\n      dup1\n        /* \"--CODEGEN--\":5:7   */\n      iszero\n      tag_499\n      jumpi\n        /* \"--CODEGEN--\":45:61   */\n      returndatasize\n        /* \"--CODEGEN--\":42:43   */\n      0x00\n        /* \"--CODEGEN--\":39:40   */\n      dup1\n        /* \"--CODEGEN--\":24:62   */\n      returndatacopy\n        /* \"--CODEGEN--\":77:93   */\n      returndatasize\n        /* \"--CODEGEN--\":74:75   */\n      0x00\n        /* \"--CODEGEN--\":67:94   */\n      revert\n        /* \"--CODEGEN--\":5:7   */\n    tag_499:\n        /* \"v2-periphery-master/v2-periphery-master/contracts/libraries/DEXV2Library.sol\":1423:1481  IDEXV2Pair(pairFor(factory, tokenA, tokenB)).getReserves() */\n      pop\n      pop\n      pop\n      pop\n      mload(0x40)\n      returndatasize\n        /* \"--CODEGEN--\":15:17   */\n      0x60\n        /* \"--CODEGEN--\":10:13   */\n      dup2\n        /* \"--CODEGEN--\":7:18   */\n      lt\n        /* \"--CODEGEN--\":4:6   */\n      iszero\n      tag_500\n      jumpi\n        /* \"--CODEGEN--\":31:32   */\n      0x00\n        /* \"--CODEGEN--\":28:29   */\n      dup1\n        /* \"--CODEGEN--\":21:33   */\n      revert\n        /* \"--CODEGEN--\":4:6   */\n    tag_500:\n      pop\n        /* \"v2-periphery-master/v2-periphery-master/contracts/libraries/DEXV2Library.sol\":1423:1481  IDEXV2Pair(pairFor(factory, tokenA, tokenB)).getReserves() */\n      dup1\n      mload\n      0x20\n      swap1\n      swap2\n      add\n      mload\n        /* \"v2-periphery-master/v2-periphery-master/contracts/libraries/DEXV2Library.sol\":1389:1481  (uint reserve0, uint reserve1,) = IDEXV2Pair(pairFor(factory, tokenA, tokenB)).getReserves() */\n      0xffffffffffffffffffffffffffff\n      swap2\n      dup3\n      and\n      swap4\n      pop\n      and\n      swap1\n      pop\n      sub(shl(0xa0, 0x01), 0x01)\n        /* \"v2-periphery-master/v2-periphery-master/contracts/libraries/DEXV2Library.sol\":1514:1530  tokenA == token0 */\n      dup8\n      dup2\n      and\n      swap1\n      dup5\n      and\n      eq\n        /* \"v2-periphery-master/v2-periphery-master/contracts/libraries/DEXV2Library.sol\":1514:1576  tokenA == token0 ? (reserve0, reserve1) : (reserve1, reserve0) */\n      tag_501\n      jumpi\n        /* \"v2-periphery-master/v2-periphery-master/contracts/libraries/DEXV2Library.sol\":1557:1565  reserve1 */\n      dup1\n        /* \"v2-periphery-master/v2-periphery-master/contracts/libraries/DEXV2Library.sol\":1567:1575  reserve0 */\n      dup3\n        /* \"v2-periphery-master/v2-periphery-master/contracts/libraries/DEXV2Library.sol\":1514:1576  tokenA == token0 ? (reserve0, reserve1) : (reserve1, reserve0) */\n      jump(tag_502)\n    tag_501:\n        /* \"v2-periphery-master/v2-periphery-master/contracts/libraries/DEXV2Library.sol\":1534:1542  reserve0 */\n      dup2\n        /* \"v2-periphery-master/v2-periphery-master/contracts/libraries/DEXV2Library.sol\":1544:1552  reserve1 */\n      dup2\n        /* \"v2-periphery-master/v2-periphery-master/contracts/libraries/DEXV2Library.sol\":1514:1576  tokenA == token0 ? (reserve0, reserve1) : (reserve1, reserve0) */\n    tag_502:\n        /* \"v2-periphery-master/v2-periphery-master/contracts/libraries/DEXV2Library.sol\":1491:1576  (reserveA, reserveB) = tokenA == token0 ? (reserve0, reserve1) : (reserve1, reserve0) */\n      swap1\n      swap10\n      swap1\n      swap9\n      pop\n        /* \"v2-periphery-master/v2-periphery-master/contracts/libraries/DEXV2Library.sol\":1200:1583  function getReserves(address factory, address tokenA, address tokenB) internal view returns (uint reserveA, uint reserveB) {... */\n      swap7\n      pop\n      pop\n      pop\n      pop\n      pop\n      pop\n      pop\n      jump\t// out\n        /* \"v2-periphery-master/v2-periphery-master/contracts/libraries/DEXV2Library.sol\":2741:3199  function getAmountIn(uint amountOut, uint reserveIn, uint reserveOut) internal pure returns (uint amountIn) {... */\n    tag_454:\n        /* \"v2-periphery-master/v2-periphery-master/contracts/libraries/DEXV2Library.sol\":2834:2847  uint amountIn */\n      0x00\n        /* \"v2-periphery-master/v2-periphery-master/contracts/libraries/DEXV2Library.sol\":2879:2880  0 */\n      dup1\n        /* \"v2-periphery-master/v2-periphery-master/contracts/libraries/DEXV2Library.sol\":2867:2876  amountOut */\n      dup5\n        /* \"v2-periphery-master/v2-periphery-master/contracts/libraries/DEXV2Library.sol\":2867:2880  amountOut > 0 */\n      gt\n        /* \"v2-periphery-master/v2-periphery-master/contracts/libraries/DEXV2Library.sol\":2859:2925  require(amountOut > 0, 'DEXV2Library: INSUFFICIENT_OUTPUT_AMOUNT') */\n      tag_504\n      jumpi\n      mload(0x40)\n      shl(0xe5, 0x461bcd)\n      dup2\n      mstore\n      0x04\n      add\n      dup1\n      dup1\n      0x20\n      add\n      dup3\n      dup2\n      sub\n      dup3\n      mstore\n      0x28\n      dup2\n      mstore\n      0x20\n      add\n      dup1\n      data_e73e3985af68b4b84b2869954c1dcc621a65ef73c931f1b070d1ea497cc0c5df\n      0x28\n      swap2\n      codecopy\n      0x40\n      add\n      swap2\n      pop\n      pop\n      mload(0x40)\n      dup1\n      swap2\n      sub\n      swap1\n      revert\n    tag_504:\n        /* \"v2-periphery-master/v2-periphery-master/contracts/libraries/DEXV2Library.sol\":2955:2956  0 */\n      0x00\n        /* \"v2-periphery-master/v2-periphery-master/contracts/libraries/DEXV2Library.sol\":2943:2952  reserveIn */\n      dup4\n        /* \"v2-periphery-master/v2-periphery-master/contracts/libraries/DEXV2Library.sol\":2943:2956  reserveIn > 0 */\n      gt\n        /* \"v2-periphery-master/v2-periphery-master/contracts/libraries/DEXV2Library.sol\":2943:2974  reserveIn > 0 && reserveOut > 0 */\n      dup1\n      iszero\n      tag_505\n      jumpi\n      pop\n        /* \"v2-periphery-master/v2-periphery-master/contracts/libraries/DEXV2Library.sol\":2973:2974  0 */\n      0x00\n        /* \"v2-periphery-master/v2-periphery-master/contracts/libraries/DEXV2Library.sol\":2960:2970  reserveOut */\n      dup3\n        /* \"v2-periphery-master/v2-periphery-master/contracts/libraries/DEXV2Library.sol\":2960:2974  reserveOut > 0 */\n      gt\n        /* \"v2-periphery-master/v2-periphery-master/contracts/libraries/DEXV2Library.sol\":2943:2974  reserveIn > 0 && reserveOut > 0 */\n    tag_505:\n        /* \"v2-periphery-master/v2-periphery-master/contracts/libraries/DEXV2Library.sol\":2935:3015  require(reserveIn > 0 && reserveOut > 0, 'DEXV2Library: INSUFFICIENT_LIQUIDITY') */\n      tag_506\n      jumpi\n      mload(0x40)\n      shl(0xe5, 0x461bcd)\n      dup2\n      mstore\n      0x04\n      add\n      dup1\n      dup1\n      0x20\n      add\n      dup3\n      dup2\n      sub\n      dup3\n      mstore\n      0x24\n      dup2\n      mstore\n      0x20\n      add\n      dup1\n      data_ccfaa7c5db03ba2292f8d3870d9c6674c20c17a9f2323fc6c889ba3627a9f957\n      0x24\n      swap2\n      codecopy\n      0x40\n      add\n      swap2\n      pop\n      pop\n      mload(0x40)\n      dup1\n      swap2\n      sub\n      swap1\n      revert\n    tag_506:\n        /* \"v2-periphery-master/v2-periphery-master/contracts/libraries/DEXV2Library.sol\":3025:3039  uint numerator */\n      0x00\n        /* \"v2-periphery-master/v2-periphery-master/contracts/libraries/DEXV2Library.sol\":3042:3076  reserveIn.mul(amountOut).mul(1000) */\n      tag_507\n        /* \"v2-periphery-master/v2-periphery-master/contracts/libraries/DEXV2Library.sol\":3071:3075  1000 */\n      0x03e8\n        /* \"v2-periphery-master/v2-periphery-master/contracts/libraries/DEXV2Library.sol\":3042:3066  reserveIn.mul(amountOut) */\n      tag_508\n        /* \"v2-periphery-master/v2-periphery-master/contracts/libraries/DEXV2Library.sol\":3042:3051  reserveIn */\n      dup7\n        /* \"v2-periphery-master/v2-periphery-master/contracts/libraries/DEXV2Library.sol\":3056:3065  amountOut */\n      dup9\n        /* \"v2-periphery-master/v2-periphery-master/contracts/libraries/DEXV2Library.sol\":3042:3066  reserveIn.mul(amountOut) */\n      0xffffffff\n        /* \"v2-periphery-master/v2-periphery-master/contracts/libraries/DEXV2Library.sol\":3042:3055  reserveIn.mul */\n      tag_383\n        /* \"v2-periphery-master/v2-periphery-master/contracts/libraries/DEXV2Library.sol\":3042:3066  reserveIn.mul(amountOut) */\n      and\n      jump\t// in\n    tag_508:\n        /* \"v2-periphery-master/v2-periphery-master/contracts/libraries/DEXV2Library.sol\":3042:3070  reserveIn.mul(amountOut).mul */\n      swap1\n        /* \"v2-periphery-master/v2-periphery-master/contracts/libraries/DEXV2Library.sol\":3042:3076  reserveIn.mul(amountOut).mul(1000) */\n      0xffffffff\n        /* \"v2-periphery-master/v2-periphery-master/contracts/libraries/DEXV2Library.sol\":3042:3070  reserveIn.mul(amountOut).mul */\n      tag_383\n        /* \"v2-periphery-master/v2-periphery-master/contracts/libraries/DEXV2Library.sol\":3042:3076  reserveIn.mul(amountOut).mul(1000) */\n      and\n      jump\t// in\n    tag_507:\n        /* \"v2-periphery-master/v2-periphery-master/contracts/libraries/DEXV2Library.sol\":3025:3076  uint numerator = reserveIn.mul(amountOut).mul(1000) */\n      swap1\n      pop\n        /* \"v2-periphery-master/v2-periphery-master/contracts/libraries/DEXV2Library.sol\":3086:3102  uint denominator */\n      0x00\n        /* \"v2-periphery-master/v2-periphery-master/contracts/libraries/DEXV2Library.sol\":3105:3139  reserveOut.sub(amountOut).mul(997) */\n      tag_509\n        /* \"v2-periphery-master/v2-periphery-master/contracts/libraries/DEXV2Library.sol\":3135:3138  997 */\n      0x03e5\n        /* \"v2-periphery-master/v2-periphery-master/contracts/libraries/DEXV2Library.sol\":3105:3130  reserveOut.sub(amountOut) */\n      tag_508\n        /* \"v2-periphery-master/v2-periphery-master/contracts/libraries/DEXV2Library.sol\":3105:3115  reserveOut */\n      dup7\n        /* \"v2-periphery-master/v2-periphery-master/contracts/libraries/DEXV2Library.sol\":3120:3129  amountOut */\n      dup10\n        /* \"v2-periphery-master/v2-periphery-master/contracts/libraries/DEXV2Library.sol\":3105:3130  reserveOut.sub(amountOut) */\n      0xffffffff\n        /* \"v2-periphery-master/v2-periphery-master/contracts/libraries/DEXV2Library.sol\":3105:3119  reserveOut.sub */\n      tag_511\n        /* \"v2-periphery-master/v2-periphery-master/contracts/libraries/DEXV2Library.sol\":3105:3130  reserveOut.sub(amountOut) */\n      and\n      jump\t// in\n        /* \"v2-periphery-master/v2-periphery-master/contracts/libraries/DEXV2Library.sol\":3105:3139  reserveOut.sub(amountOut).mul(997) */\n    tag_509:\n        /* \"v2-periphery-master/v2-periphery-master/contracts/libraries/DEXV2Library.sol\":3086:3139  uint denominator = reserveOut.sub(amountOut).mul(997) */\n      swap1\n      pop\n        /* \"v2-periphery-master/v2-periphery-master/contracts/libraries/DEXV2Library.sol\":3160:3192  (numerator / denominator).add(1) */\n      tag_512\n        /* \"v2-periphery-master/v2-periphery-master/contracts/libraries/DEXV2Library.sol\":3190:3191  1 */\n      0x01\n        /* \"v2-periphery-master/v2-periphery-master/contracts/libraries/DEXV2Library.sol\":3173:3184  denominator */\n      dup3\n        /* \"v2-periphery-master/v2-periphery-master/contracts/libraries/DEXV2Library.sol\":3161:3170  numerator */\n      dup5\n        /* \"v2-periphery-master/v2-periphery-master/contracts/libraries/DEXV2Library.sol\":3161:3184  numerator / denominator */\n      dup2\n      tag_513\n      jumpi\n      invalid\n    tag_513:\n      div\n      swap1\n        /* \"v2-periphery-master/v2-periphery-master/contracts/libraries/DEXV2Library.sol\":3160:3192  (numerator / denominator).add(1) */\n      0xffffffff\n        /* \"v2-periphery-master/v2-periphery-master/contracts/libraries/DEXV2Library.sol\":3160:3189  (numerator / denominator).add */\n      tag_387\n        /* \"v2-periphery-master/v2-periphery-master/contracts/libraries/DEXV2Library.sol\":3160:3192  (numerator / denominator).add(1) */\n      and\n      jump\t// in\n    tag_512:\n        /* \"v2-periphery-master/v2-periphery-master/contracts/libraries/DEXV2Library.sol\":3149:3192  amountIn = (numerator / denominator).add(1) */\n      swap7\n        /* \"v2-periphery-master/v2-periphery-master/contracts/libraries/DEXV2Library.sol\":2741:3199  function getAmountIn(uint amountOut, uint reserveIn, uint reserveOut) internal pure returns (uint amountIn) {... */\n      swap6\n      pop\n      pop\n      pop\n      pop\n      pop\n      pop\n      jump\t// out\n        /* \"v2-periphery-master/v2-periphery-master/contracts/libraries/SafeMath.sol\":286:413  function sub(uint x, uint y) internal pure returns (uint z) {... */\n    tag_511:\n        /* \"v2-periphery-master/v2-periphery-master/contracts/libraries/SafeMath.sol\":369:374  x - y */\n      dup1\n      dup3\n      sub\n        /* \"v2-periphery-master/v2-periphery-master/contracts/libraries/SafeMath.sol\":364:380  (z = x - y) <= x */\n      dup3\n      dup2\n      gt\n      iszero\n        /* \"v2-periphery-master/v2-periphery-master/contracts/libraries/SafeMath.sol\":356:406  require((z = x - y) <= x, 'ds-math-sub-underflow') */\n      tag_186\n      jumpi\n      0x40\n      dup1\n      mload\n      shl(0xe5, 0x461bcd)\n      dup2\n      mstore\n      0x20\n      0x04\n      dup3\n      add\n      mstore\n      0x15\n      0x24\n      dup3\n      add\n      mstore\n      shl(0x58, 0x64732d6d6174682d7375622d756e646572666c6f77)\n      0x44\n      dup3\n      add\n      mstore\n      swap1\n      mload\n      swap1\n      dup2\n      swap1\n      sub\n      0x64\n      add\n      swap1\n      revert\n    stop\n    data_3f8faf98afe9344b6d4b0e75b0101259bf282914b3b5a9320c6918b6e27ede1c 5472616e7366657248656c7065723a3a7472616e7366657246726f6d3a207472616e7366657246726f6d206661696c6564\n    data_43d7bec223ecf9eb06ea147e7d564bc71c2448662d62a4ea86ce71fc4518b350 5472616e7366657248656c7065723a3a736166655472616e736665724554483a20455448207472616e73666572206661696c6564\n    data_5c1338f4c45f16a3049167ebd749a88064b60abf820d6a1f8181f4dd30bcc436 4445585632526f757465723a20494e53554646494349454e545f4f55545055545f414d4f554e54\n    data_8358829d2392a9b5002ba64de292242a84c488c8e5c4cd51bfb614d83f536580 4445585632526f757465723a20494e53554646494349454e545f415f414d4f554e54\n    data_89c1728480bb33ba94213491017440b5afa41bba9ea2b96306c396b55006eaa3 44455856324c6962726172793a20494e53554646494349454e545f494e5055545f414d4f554e54\n    data_8f26e21d8ae2d07ba282dbb971300f0a123d388182d89bc76aa6e30b8b884c66 44455856324c6962726172793a204944454e544943414c5f414444524553534553\n    data_aed2d28a48ab074ff6e5bf47d32f2b7f5ee20e74c396cd7d323ef211dfa7f555 4445585632526f757465723a20494e53554646494349454e545f425f414d4f554e54\n    data_bfff83fa53910c0962ce4909abb873c26b7b082c14673d632866e7b51319db3f 44455856324c6962726172793a20494e53554646494349454e545f414d4f554e54\n    data_ccfaa7c5db03ba2292f8d3870d9c6674c20c17a9f2323fc6c889ba3627a9f957 44455856324c6962726172793a20494e53554646494349454e545f4c4951554944495459\n    data_daea69421eeb1164e163c36f3d4349f0db3ec4e0d1381bd5bf4faf53496c2611 5472616e7366657248656c7065723a3a736166655472616e736665723a207472616e73666572206661696c6564\n    data_e73e3985af68b4b84b2869954c1dcc621a65ef73c931f1b070d1ea497cc0c5df 44455856324c6962726172793a20494e53554646494349454e545f4f55545055545f414d4f554e54\n    data_e8771a28dca17dc1df8d79bac70548e4ade379e3d726e3fef2a0cf06071509f4 4445585632526f757465723a2045585049524544000000000000000000000000\n    data_ee7996df7f37b160878d34af17d15f428d17eb5fa3f082d192231dfdcd51de05 4445585632526f757465723a204558434553534956455f494e5055545f414d4f554e54\n\n    auxdata: 0xa2646970667358221220116549b587ca56707a69a13f345c4be80322b09fd8693cb4ecb6f01bfa08b8c964736f6c63430006060033\n}\n",
				"bytecode": {
					"linkReferences": {},
					"object": "60c060405234801561001057600080fd5b5060405161363d38038061363d8339818101604052604081101561003357600080fd5b5080516020909101516001600160601b0319606092831b8116608052911b1660a05260805160601c60a05160601c61350161013c600039806101285280610a015280610a3c5280610b335280610d5f52806110e9528061127b52806113cf528061145752806116ac528061199c5280611c0f5280611c655280611c995280611d0d5280611ead5280611ffe5280612086525080610bcf5280610ca65280610e255280610e5e5280610f995280611185528061131c528061148952806115fc52806117295280611921528061194a528061197a5280611ae75280611c435280611f4e52806120b85280612949528061298c5280612dd35280612e815280612f0152506135016000f3fe6080604052600436106101185760003560e01c80638803dbee116100a0578063d06ca61f11610064578063d06ca61f14610742578063ded9382a146107f7578063e8e337001461086a578063f305d719146108ea578063fb3bdb411461093057610151565b80638803dbee146105d3578063ad5c464814610669578063ad615dec1461069a578063baa2abde146106d0578063c45a01551461072d57610151565b80632195995c116100e75780632195995c146103a557806338ed1739146104235780634a25d94a146104b95780637ff36ab51461054f57806385f8c259146101c257610151565b806302751cec14610156578063054d50d4146101c257806318cbafe51461020a5780631f00ca74146102f057610151565b3661015157336001600160a01b037f0000000000000000000000000000000000000000000000000000000000000000161461014f57fe5b005b600080fd5b34801561016257600080fd5b506101a9600480360360c081101561017957600080fd5b506001600160a01b0381358116916020810135916040820135916060810135916080820135169060a001356109b4565b6040805192835260208301919091528051918290030190f35b3480156101ce57600080fd5b506101f8600480360360608110156101e557600080fd5b5080359060208101359060400135610ace565b60408051918252519081900360200190f35b34801561021657600080fd5b506102a0600480360360a081101561022d57600080fd5b813591602081013591810190606081016040820135600160201b81111561025357600080fd5b82018360208201111561026557600080fd5b803590602001918460208302840111600160201b8311171561028657600080fd5b91935091506001600160a01b038135169060200135610ae3565b60408051602080825283518183015283519192839290830191858101910280838360005b838110156102dc5781810151838201526020016102c4565b505050509050019250505060405180910390f35b3480156102fc57600080fd5b506102a06004803603604081101561031357600080fd5b81359190810190604081016020820135600160201b81111561033457600080fd5b82018360208201111561034657600080fd5b803590602001918460208302840111600160201b8311171561036757600080fd5b919080806020026020016040519081016040528093929190818152602001838360200280828437600092019190915250929550610e1e945050505050565b3480156103b157600080fd5b506101a960048036036101608110156103c957600080fd5b506001600160a01b038135811691602081013582169160408201359160608101359160808201359160a08101359091169060c08101359060e081013515159060ff6101008201351690610120810135906101400135610e54565b34801561042f57600080fd5b506102a0600480360360a081101561044657600080fd5b813591602081013591810190606081016040820135600160201b81111561046c57600080fd5b82018360208201111561047e57600080fd5b803590602001918460208302840111600160201b8311171561049f57600080fd5b91935091506001600160a01b038135169060200135610f4e565b3480156104c557600080fd5b506102a0600480360360a08110156104dc57600080fd5b813591602081013591810190606081016040820135600160201b81111561050257600080fd5b82018360208201111561051457600080fd5b803590602001918460208302840111600160201b8311171561053557600080fd5b91935091506001600160a01b038135169060200135611099565b6102a06004803603608081101561056557600080fd5b81359190810190604081016020820135600160201b81111561058657600080fd5b82018360208201111561059857600080fd5b803590602001918460208302840111600160201b831117156105b957600080fd5b91935091506001600160a01b038135169060200135611233565b3480156105df57600080fd5b506102a0600480360360a08110156105f657600080fd5b813591602081013591810190606081016040820135600160201b81111561061c57600080fd5b82018360208201111561062e57600080fd5b803590602001918460208302840111600160201b8311171561064f57600080fd5b91935091506001600160a01b0381351690602001356115b1565b34801561067557600080fd5b5061067e6116aa565b604080516001600160a01b039092168252519081900360200190f35b3480156106a657600080fd5b506101f8600480360360608110156106bd57600080fd5b50803590602081013590604001356116ce565b3480156106dc57600080fd5b506101a9600480360360e08110156106f357600080fd5b506001600160a01b038135811691602081013582169160408201359160608101359160808201359160a08101359091169060c001356116db565b34801561073957600080fd5b5061067e61191f565b34801561074e57600080fd5b506102a06004803603604081101561076557600080fd5b81359190810190604081016020820135600160201b81111561078657600080fd5b82018360208201111561079857600080fd5b803590602001918460208302840111600160201b831117156107b957600080fd5b919080806020026020016040519081016040528093929190818152602001838360200280828437600092019190915250929550611943945050505050565b34801561080357600080fd5b506101a9600480360361014081101561081b57600080fd5b506001600160a01b0381358116916020810135916040820135916060810135916080820135169060a08101359060c081013515159060ff60e08201351690610100810135906101200135611970565b34801561087657600080fd5b506108cc600480360361010081101561088e57600080fd5b506001600160a01b038135811691602081013582169160408201359160608101359160808201359160a08101359160c0820135169060e00135611a84565b60408051938452602084019290925282820152519081900360600190f35b6108cc600480360360c081101561090057600080fd5b506001600160a01b0381358116916020810135916040820135916060810135916080820135169060a00135611bc0565b6102a06004803603608081101561094657600080fd5b81359190810190604081016020820135600160201b81111561096757600080fd5b82018360208201111561097957600080fd5b803590602001918460208302840111600160201b8311171561099a57600080fd5b91935091506001600160a01b038135169060200135611e65565b60008082428110156109fb576040805162461bcd60e51b81526020600482015260146024820152600080516020613489833981519152604482015290519081900360640190fd5b610a2a897f00000000000000000000000000000000000000000000000000000000000000008a8a8a308a6116db565b9093509150610a3a8986856121f5565b7f00000000000000000000000000000000000000000000000000000000000000006001600160a01b0316632e1a7d4d836040518263ffffffff1660e01b815260040180828152602001915050600060405180830381600087803b158015610aa057600080fd5b505af1158015610ab4573d6000803e3d6000fd5b50505050610ac28583612349565b50965096945050505050565b6000610adb848484612441565b949350505050565b60608142811015610b29576040805162461bcd60e51b81526020600482015260146024820152600080516020613489833981519152604482015290519081900360640190fd5b6001600160a01b037f00000000000000000000000000000000000000000000000000000000000000001686866000198101818110610b6357fe5b905060200201356001600160a01b03166001600160a01b031614610bca576040805162461bcd60e51b81526020600482015260196024820152780888ab0ac64a4deeae8cae47440929cac82989288bea082a89603b1b604482015290519081900360640190fd5b610c287f00000000000000000000000000000000000000000000000000000000000000008988888080602002602001604051908101604052809392919081815260200183836020028082843760009201919091525061253192505050565b91508682600184510381518110610c3b57fe5b60200260200101511015610c805760405162461bcd60e51b815260040180806020018281038252602781526020018061333c6027913960400191505060405180910390fd5b610d1e86866000818110610c9057fe5b905060200201356001600160a01b031633610d047f00000000000000000000000000000000000000000000000000000000000000008a8a6000818110610cd257fe5b905060200201356001600160a01b03168b8b6001818110610cef57fe5b905060200201356001600160a01b031661267d565b85600081518110610d1157fe5b602002602001015161273d565b610d5d8287878080602002602001604051908101604052809392919081815260200183836020028082843760009201919091525030925061289a915050565b7f00000000000000000000000000000000000000000000000000000000000000006001600160a01b0316632e1a7d4d83600185510381518110610d9c57fe5b60200260200101516040518263ffffffff1660e01b815260040180828152602001915050600060405180830381600087803b158015610dda57600080fd5b505af1158015610dee573d6000803e3d6000fd5b50505050610e138483600185510381518110610e0657fe5b6020026020010151612349565b509695505050505050565b6060610e4b7f00000000000000000000000000000000000000000000000000000000000000008484612ae0565b90505b92915050565b6000806000610e847f00000000000000000000000000000000000000000000000000000000000000008f8f61267d565b9050600087610e93578c610e97565b6000195b6040805163d505accf60e01b815233600482015230602482015260448101839052606481018c905260ff8a16608482015260a4810189905260c4810188905290519192506001600160a01b0384169163d505accf9160e48082019260009290919082900301818387803b158015610f0d57600080fd5b505af1158015610f21573d6000803e3d6000fd5b50505050610f348f8f8f8f8f8f8f6116db565b809450819550505050509b509b9950505050505050505050565b60608142811015610f94576040805162461bcd60e51b81526020600482015260146024820152600080516020613489833981519152604482015290519081900360640190fd5b610ff27f00000000000000000000000000000000000000000000000000000000000000008988888080602002602001604051908101604052809392919081815260200183836020028082843760009201919091525061253192505050565b9150868260018451038151811061100557fe5b6020026020010151101561104a5760405162461bcd60e51b815260040180806020018281038252602781526020018061333c6027913960400191505060405180910390fd5b61105a86866000818110610c9057fe5b610e138287878080602002602001604051908101604052809392919081815260200183836020028082843760009201919091525089925061289a915050565b606081428110156110df576040805162461bcd60e51b81526020600482015260146024820152600080516020613489833981519152604482015290519081900360640190fd5b6001600160a01b037f0000000000000000000000000000000000000000000000000000000000000000168686600019810181811061111957fe5b905060200201356001600160a01b03166001600160a01b031614611180576040805162461bcd60e51b81526020600482015260196024820152780888ab0ac64a4deeae8cae47440929cac82989288bea082a89603b1b604482015290519081900360640190fd5b6111de7f000000000000000000000000000000000000000000000000000000000000000089888880806020026020016040519081016040528093929190818152602001838360200280828437600092019190915250612ae092505050565b915086826000815181106111ee57fe5b60200260200101511115610c805760405162461bcd60e51b81526004018080602001828103825260238152602001806134a96023913960400191505060405180910390fd5b60608142811015611279576040805162461bcd60e51b81526020600482015260146024820152600080516020613489833981519152604482015290519081900360640190fd5b7f00000000000000000000000000000000000000000000000000000000000000006001600160a01b0316868660008181106112b057fe5b905060200201356001600160a01b03166001600160a01b031614611317576040805162461bcd60e51b81526020600482015260196024820152780888ab0ac64a4deeae8cae47440929cac82989288bea082a89603b1b604482015290519081900360640190fd5b6113757f00000000000000000000000000000000000000000000000000000000000000003488888080602002602001604051908101604052809392919081815260200183836020028082843760009201919091525061253192505050565b9150868260018451038151811061138857fe5b602002602001015110156113cd5760405162461bcd60e51b815260040180806020018281038252602781526020018061333c6027913960400191505060405180910390fd5b7f00000000000000000000000000000000000000000000000000000000000000006001600160a01b031663d0e30db08360008151811061140957fe5b60200260200101516040518263ffffffff1660e01b81526004016000604051808303818588803b15801561143c57600080fd5b505af1158015611450573d6000803e3d6000fd5b50505050507f00000000000000000000000000000000000000000000000000000000000000006001600160a01b031663a9059cbb6114d27f0000000000000000000000000000000000000000000000000000000000000000898960008181106114b557fe5b905060200201356001600160a01b03168a8a6001818110610cef57fe5b846000815181106114df57fe5b60200260200101516040518363ffffffff1660e01b815260040180836001600160a01b03166001600160a01b0316815260200182815260200192505050602060405180830381600087803b15801561153657600080fd5b505af115801561154a573d6000803e3d6000fd5b505050506040513d602081101561156057600080fd5b505161156857fe5b6115a78287878080602002602001604051908101604052809392919081815260200183836020028082843760009201919091525089925061289a915050565b5095945050505050565b606081428110156115f7576040805162461bcd60e51b81526020600482015260146024820152600080516020613489833981519152604482015290519081900360640190fd5b6116557f000000000000000000000000000000000000000000000000000000000000000089888880806020026020016040519081016040528093929190818152602001838360200280828437600092019190915250612ae092505050565b9150868260008151811061166557fe5b6020026020010151111561104a5760405162461bcd60e51b81526004018080602001828103825260238152602001806134a96023913960400191505060405180910390fd5b7f000000000000000000000000000000000000000000000000000000000000000081565b6000610adb848484612c18565b6000808242811015611722576040805162461bcd60e51b81526020600482015260146024820152600080516020613489833981519152604482015290519081900360640190fd5b600061174f7f00000000000000000000000000000000000000000000000000000000000000008c8c61267d565b604080516323b872dd60e01b81523360048201526001600160a01b03831660248201819052604482018d9052915192935090916323b872dd916064808201926020929091908290030181600087803b1580156117aa57600080fd5b505af11580156117be573d6000803e3d6000fd5b505050506040513d60208110156117d457600080fd5b50506040805163226bf2d160e21b81526001600160a01b03888116600483015282516000938493928616926389afcb44926024808301939282900301818787803b15801561182157600080fd5b505af1158015611835573d6000803e3d6000fd5b505050506040513d604081101561184b57600080fd5b508051602090910151909250905060006118658e8e612cc4565b509050806001600160a01b03168e6001600160a01b03161461188857818361188b565b82825b90975095508a8710156118cf5760405162461bcd60e51b81526004018080602001828103825260228152602001806133636022913960400191505060405180910390fd5b8986101561190e5760405162461bcd60e51b81526004018080602001828103825260228152602001806133cd6022913960400191505060405180910390fd5b505050505097509795505050505050565b7f000000000000000000000000000000000000000000000000000000000000000081565b6060610e4b7f00000000000000000000000000000000000000000000000000000000000000008484612531565b60008060006119c07f00000000000000000000000000000000000000000000000000000000000000008e7f000000000000000000000000000000000000000000000000000000000000000061267d565b90506000876119cf578c6119d3565b6000195b6040805163d505accf60e01b815233600482015230602482015260448101839052606481018c905260ff8a16608482015260a4810189905260c4810188905290519192506001600160a01b0384169163d505accf9160e48082019260009290919082900301818387803b158015611a4957600080fd5b505af1158015611a5d573d6000803e3d6000fd5b50505050611a6f8e8e8e8e8e8e6109b4565b909f909e509c50505050505050505050505050565b60008060008342811015611acd576040805162461bcd60e51b81526020600482015260146024820152600080516020613489833981519152604482015290519081900360640190fd5b611adb8c8c8c8c8c8c612da2565b90945092506000611b0d7f00000000000000000000000000000000000000000000000000000000000000008e8e61267d565b9050611b1b8d33838861273d565b611b278c33838761273d565b806001600160a01b0316636a627842886040518263ffffffff1660e01b815260040180826001600160a01b03166001600160a01b03168152602001915050602060405180830381600087803b158015611b7f57600080fd5b505af1158015611b93573d6000803e3d6000fd5b505050506040513d6020811015611ba957600080fd5b5051949d939c50939a509198505050505050505050565b60008060008342811015611c09576040805162461bcd60e51b81526020600482015260146024820152600080516020613489833981519152604482015290519081900360640190fd5b611c378a7f00000000000000000000000000000000000000000000000000000000000000008b348c8c612da2565b90945092506000611c897f00000000000000000000000000000000000000000000000000000000000000008c7f000000000000000000000000000000000000000000000000000000000000000061267d565b9050611c978b33838861273d565b7f00000000000000000000000000000000000000000000000000000000000000006001600160a01b031663d0e30db0856040518263ffffffff1660e01b81526004016000604051808303818588803b158015611cf257600080fd5b505af1158015611d06573d6000803e3d6000fd5b50505050507f00000000000000000000000000000000000000000000000000000000000000006001600160a01b031663a9059cbb82866040518363ffffffff1660e01b815260040180836001600160a01b03166001600160a01b0316815260200182815260200192505050602060405180830381600087803b158015611d8b57600080fd5b505af1158015611d9f573d6000803e3d6000fd5b505050506040513d6020811015611db557600080fd5b5051611dbd57fe5b806001600160a01b0316636a627842886040518263ffffffff1660e01b815260040180826001600160a01b03166001600160a01b03168152602001915050602060405180830381600087803b158015611e1557600080fd5b505af1158015611e29573d6000803e3d6000fd5b505050506040513d6020811015611e3f57600080fd5b5051925034841015611e5757611e5733853403612349565b505096509650969350505050565b60608142811015611eab576040805162461bcd60e51b81526020600482015260146024820152600080516020613489833981519152604482015290519081900360640190fd5b7f00000000000000000000000000000000000000000000000000000000000000006001600160a01b031686866000818110611ee257fe5b905060200201356001600160a01b03166001600160a01b031614611f49576040805162461bcd60e51b81526020600482015260196024820152780888ab0ac64a4deeae8cae47440929cac82989288bea082a89603b1b604482015290519081900360640190fd5b611fa77f000000000000000000000000000000000000000000000000000000000000000088888880806020026020016040519081016040528093929190818152602001838360200280828437600092019190915250612ae092505050565b91503482600081518110611fb757fe5b60200260200101511115611ffc5760405162461bcd60e51b81526004018080602001828103825260238152602001806134a96023913960400191505060405180910390fd5b7f00000000000000000000000000000000000000000000000000000000000000006001600160a01b031663d0e30db08360008151811061203857fe5b60200260200101516040518263ffffffff1660e01b81526004016000604051808303818588803b15801561206b57600080fd5b505af115801561207f573d6000803e3d6000fd5b50505050507f00000000000000000000000000000000000000000000000000000000000000006001600160a01b031663a9059cbb6120e47f0000000000000000000000000000000000000000000000000000000000000000898960008181106114b557fe5b846000815181106120f157fe5b60200260200101516040518363ffffffff1660e01b815260040180836001600160a01b03166001600160a01b0316815260200182815260200192505050602060405180830381600087803b15801561214857600080fd5b505af115801561215c573d6000803e3d6000fd5b505050506040513d602081101561217257600080fd5b505161217a57fe5b6121b98287878080602002602001604051908101604052809392919081815260200183836020028082843760009201919091525089925061289a915050565b816000815181106121c657fe5b60200260200101513411156115a7576115a733836000815181106121e657fe5b60200260200101513403612349565b604080516001600160a01b038481166024830152604480830185905283518084039091018152606490920183526020820180516001600160e01b031663a9059cbb60e01b178152925182516000946060949389169392918291908083835b602083106122725780518252601f199092019160209182019101612253565b6001836020036101000a0380198251168184511680821785525050505050509050019150506000604051808303816000865af19150503d80600081146122d4576040519150601f19603f3d011682016040523d82523d6000602084013e6122d9565b606091505b5091509150818015612307575080511580612307575080806020019051602081101561230457600080fd5b50515b6123425760405162461bcd60e51b815260040180806020018281038252602d815260200180613434602d913960400191505060405180910390fd5b5050505050565b604080516000808252602082019092526001600160a01b0384169083906040518082805190602001908083835b602083106123955780518252601f199092019160209182019101612376565b6001836020036101000a03801982511681845116808217855250505050505090500191505060006040518083038185875af1925050503d80600081146123f7576040519150601f19603f3d011682016040523d82523d6000602084013e6123fc565b606091505b505090508061243c5760405162461bcd60e51b81526004018080602001828103825260348152602001806133086034913960400191505060405180910390fd5b505050565b60008084116124815760405162461bcd60e51b81526004018080602001828103825260278152602001806133856027913960400191505060405180910390fd5b6000831180156124915750600082115b6124cc5760405162461bcd60e51b81526004018080602001828103825260248152602001806134106024913960400191505060405180910390fd5b60006124e0856103e563ffffffff61301616565b905060006124f4828563ffffffff61301616565b9050600061251a8361250e886103e863ffffffff61301616565b9063ffffffff61307916565b905080828161252557fe5b04979650505050505050565b606060028251101561258a576040805162461bcd60e51b815260206004820152601a60248201527f44455856324c6962726172793a20494e56414c49445f50415448000000000000604482015290519081900360640190fd5b815167ffffffffffffffff811180156125a257600080fd5b506040519080825280602002602001820160405280156125cc578160200160208202803683370190505b50905082816000815181106125dd57fe5b60200260200101818152505060005b60018351038110156126755760008061262f8786858151811061260b57fe5b602002602001015187866001018151811061262257fe5b60200260200101516130c8565b9150915061265184848151811061264257fe5b60200260200101518383612441565b84846001018151811061266057fe5b602090810291909101015250506001016125ec565b509392505050565b600080600061268c8585612cc4565b604080516bffffffffffffffffffffffff19606094851b811660208084019190915293851b81166034830152825160288184030181526048830184528051908501206001600160f81b031960688401529a90941b9093166069840152607d8301989098527f96e8ac4277198ff8b6f785478aa9a39f403cb768dd02cbee326c3e7da348845f609d808401919091528851808403909101815260bd909201909752805196019590952095945050505050565b604080516001600160a01b0385811660248301528481166044830152606480830185905283518084039091018152608490920183526020820180516001600160e01b03166323b872dd60e01b17815292518251600094606094938a169392918291908083835b602083106127c25780518252601f1990920191602091820191016127a3565b6001836020036101000a0380198251168184511680821785525050505050509050019150506000604051808303816000865af19150503d8060008114612824576040519150601f19603f3d011682016040523d82523d6000602084013e612829565b606091505b5091509150818015612857575080511580612857575080806020019051602081101561285457600080fd5b50515b6128925760405162461bcd60e51b81526004018080602001828103825260318152602001806132d76031913960400191505060405180910390fd5b505050505050565b60005b6001835103811015612ada576000808483815181106128b857fe5b60200260200101518584600101815181106128cf57fe5b60200260200101519150915060006128e78383612cc4565b50905060008785600101815181106128fb57fe5b60200260200101519050600080836001600160a01b0316866001600160a01b0316146129295782600061292d565b6000835b91509150600060028a510388106129445788612985565b6129857f0000000000000000000000000000000000000000000000000000000000000000878c8b6002018151811061297857fe5b602002602001015161267d565b90506129b27f0000000000000000000000000000000000000000000000000000000000000000888861267d565b6001600160a01b031663022c0d9f84848460006040519080825280601f01601f1916602001820160405280156129ef576020820181803683370190505b506040518563ffffffff1660e01b815260040180858152602001848152602001836001600160a01b03166001600160a01b0316815260200180602001828103825283818151815260200191508051906020019080838360005b83811015612a60578181015183820152602001612a48565b50505050905090810190601f168015612a8d5780820380516001836020036101000a031916815260200191505b5095505050505050600060405180830381600087803b158015612aaf57600080fd5b505af1158015612ac3573d6000803e3d6000fd5b50506001909901985061289d975050505050505050565b50505050565b6060600282511015612b39576040805162461bcd60e51b815260206004820152601a60248201527f44455856324c6962726172793a20494e56414c49445f50415448000000000000604482015290519081900360640190fd5b815167ffffffffffffffff81118015612b5157600080fd5b50604051908082528060200260200182016040528015612b7b578160200160208202803683370190505b5090508281600183510381518110612b8f57fe5b60209081029190910101528151600019015b801561267557600080612bd187866001860381518110612bbd57fe5b602002602001015187868151811061262257fe5b91509150612bf3848481518110612be457fe5b60200260200101518383613196565b846001850381518110612c0257fe5b6020908102919091010152505060001901612ba1565b6000808411612c585760405162461bcd60e51b81526004018080602001828103825260218152602001806133ef6021913960400191505060405180910390fd5b600083118015612c685750600082115b612ca35760405162461bcd60e51b81526004018080602001828103825260248152602001806134106024913960400191505060405180910390fd5b82612cb4858463ffffffff61301616565b81612cbb57fe5b04949350505050565b600080826001600160a01b0316846001600160a01b03161415612d185760405162461bcd60e51b81526004018080602001828103825260218152602001806133ac6021913960400191505060405180910390fd5b826001600160a01b0316846001600160a01b031610612d38578284612d3b565b83835b90925090506001600160a01b038216612d9b576040805162461bcd60e51b815260206004820152601a60248201527f44455856324c6962726172793a205a45524f5f41444452455353000000000000604482015290519081900360640190fd5b9250929050565b6040805163e6a4390560e01b81526001600160a01b03888116600483015287811660248301529151600092839283927f00000000000000000000000000000000000000000000000000000000000000009092169163e6a4390591604480820192602092909190829003018186803b158015612e1c57600080fd5b505afa158015612e30573d6000803e3d6000fd5b505050506040513d6020811015612e4657600080fd5b50516001600160a01b03161415612ef957604080516364e329cb60e11b81526001600160a01b038a81166004830152898116602483015291517f00000000000000000000000000000000000000000000000000000000000000009092169163c9c65396916044808201926020929091908290030181600087803b158015612ecc57600080fd5b505af1158015612ee0573d6000803e3d6000fd5b505050506040513d6020811015612ef657600080fd5b50505b600080612f277f00000000000000000000000000000000000000000000000000000000000000008b8b6130c8565b91509150816000148015612f39575080155b15612f4957879350869250613009565b6000612f56898484612c18565b9050878111612fa95785811015612f9e5760405162461bcd60e51b81526004018080602001828103825260228152602001806133cd6022913960400191505060405180910390fd5b889450925082613007565b6000612fb6898486612c18565b905089811115612fc257fe5b878110156130015760405162461bcd60e51b81526004018080602001828103825260228152602001806133636022913960400191505060405180910390fd5b94508793505b505b5050965096945050505050565b60008115806130315750508082028282828161302e57fe5b04145b610e4e576040805162461bcd60e51b815260206004820152601460248201527364732d6d6174682d6d756c2d6f766572666c6f7760601b604482015290519081900360640190fd5b80820182811015610e4e576040805162461bcd60e51b815260206004820152601460248201527364732d6d6174682d6164642d6f766572666c6f7760601b604482015290519081900360640190fd5b60008060006130d78585612cc4565b5090506000806130e888888861267d565b6001600160a01b0316630902f1ac6040518163ffffffff1660e01b815260040160606040518083038186803b15801561312057600080fd5b505afa158015613134573d6000803e3d6000fd5b505050506040513d606081101561314a57600080fd5b5080516020909101516dffffffffffffffffffffffffffff91821693501690506001600160a01b0387811690841614613184578082613187565b81815b90999098509650505050505050565b60008084116131d65760405162461bcd60e51b81526004018080602001828103825260288152602001806134616028913960400191505060405180910390fd5b6000831180156131e65750600082115b6132215760405162461bcd60e51b81526004018080602001828103825260248152602001806134106024913960400191505060405180910390fd5b60006132456103e8613239868863ffffffff61301616565b9063ffffffff61301616565b9050600061325f6103e5613239868963ffffffff61328616565b905061327c600182848161326f57fe5b049063ffffffff61307916565b9695505050505050565b80820382811115610e4e576040805162461bcd60e51b815260206004820152601560248201527464732d6d6174682d7375622d756e646572666c6f7760581b604482015290519081900360640190fdfe5472616e7366657248656c7065723a3a7472616e7366657246726f6d3a207472616e7366657246726f6d206661696c65645472616e7366657248656c7065723a3a736166655472616e736665724554483a20455448207472616e73666572206661696c65644445585632526f757465723a20494e53554646494349454e545f4f55545055545f414d4f554e544445585632526f757465723a20494e53554646494349454e545f415f414d4f554e5444455856324c6962726172793a20494e53554646494349454e545f494e5055545f414d4f554e5444455856324c6962726172793a204944454e544943414c5f4144445245535345534445585632526f757465723a20494e53554646494349454e545f425f414d4f554e5444455856324c6962726172793a20494e53554646494349454e545f414d4f554e5444455856324c6962726172793a20494e53554646494349454e545f4c49515549444954595472616e7366657248656c7065723a3a736166655472616e736665723a207472616e73666572206661696c656444455856324c6962726172793a20494e53554646494349454e545f4f55545055545f414d4f554e544445585632526f757465723a20455850495245440000000000000000000000004445585632526f757465723a204558434553534956455f494e5055545f414d4f554e54a2646970667358221220116549b587ca56707a69a13f345c4be80322b09fd8693cb4ecb6f01bfa08b8c964736f6c63430006060033",
					"opcodes": "PUSH1 0xC0 PUSH1 0x40 MSTORE CALLVALUE DUP1 ISZERO PUSH2 0x10 JUMPI PUSH1 0x0 DUP1 REVERT JUMPDEST POP PUSH1 0x40 MLOAD PUSH2 0x363D CODESIZE SUB DUP1 PUSH2 0x363D DUP4 CODECOPY DUP2 DUP2 ADD PUSH1 0x40 MSTORE PUSH1 0x40 DUP2 LT ISZERO PUSH2 0x33 JUMPI PUSH1 0x0 DUP1 REVERT JUMPDEST POP DUP1 MLOAD PUSH1 0x20 SWAP1 SWAP2 ADD MLOAD PUSH1 0x1 PUSH1 0x1 PUSH1 0x60 SHL SUB NOT PUSH1 0x60 SWAP3 DUP4 SHL DUP2 AND PUSH1 0x80 MSTORE SWAP2 SHL AND PUSH1 0xA0 MSTORE PUSH1 0x80 MLOAD PUSH1 0x60 SHR PUSH1 0xA0 MLOAD PUSH1 0x60 SHR PUSH2 0x3501 PUSH2 0x13C PUSH1 0x0 CODECOPY DUP1 PUSH2 0x128 MSTORE DUP1 PUSH2 0xA01 MSTORE DUP1 PUSH2 0xA3C MSTORE DUP1 PUSH2 0xB33 MSTORE DUP1 PUSH2 0xD5F MSTORE DUP1 PUSH2 0x10E9 MSTORE DUP1 PUSH2 0x127B MSTORE DUP1 PUSH2 0x13CF MSTORE DUP1 PUSH2 0x1457 MSTORE DUP1 PUSH2 0x16AC MSTORE DUP1 PUSH2 0x199C MSTORE DUP1 PUSH2 0x1C0F MSTORE DUP1 PUSH2 0x1C65 MSTORE DUP1 PUSH2 0x1C99 MSTORE DUP1 PUSH2 0x1D0D MSTORE DUP1 PUSH2 0x1EAD MSTORE DUP1 PUSH2 0x1FFE MSTORE DUP1 PUSH2 0x2086 MSTORE POP DUP1 PUSH2 0xBCF MSTORE DUP1 PUSH2 0xCA6 MSTORE DUP1 PUSH2 0xE25 MSTORE DUP1 PUSH2 0xE5E MSTORE DUP1 PUSH2 0xF99 MSTORE DUP1 PUSH2 0x1185 MSTORE DUP1 PUSH2 0x131C MSTORE DUP1 PUSH2 0x1489 MSTORE DUP1 PUSH2 0x15FC MSTORE DUP1 PUSH2 0x1729 MSTORE DUP1 PUSH2 0x1921 MSTORE DUP1 PUSH2 0x194A MSTORE DUP1 PUSH2 0x197A MSTORE DUP1 PUSH2 0x1AE7 MSTORE DUP1 PUSH2 0x1C43 MSTORE DUP1 PUSH2 0x1F4E MSTORE DUP1 PUSH2 0x20B8 MSTORE DUP1 PUSH2 0x2949 MSTORE DUP1 PUSH2 0x298C MSTORE DUP1 PUSH2 0x2DD3 MSTORE DUP1 PUSH2 0x2E81 MSTORE DUP1 PUSH2 0x2F01 MSTORE POP PUSH2 0x3501 PUSH1 0x0 RETURN INVALID PUSH1 0x80 PUSH1 0x40 MSTORE PUSH1 0x4 CALLDATASIZE LT PUSH2 0x118 JUMPI PUSH1 0x0 CALLDATALOAD PUSH1 0xE0 SHR DUP1 PUSH4 0x8803DBEE GT PUSH2 0xA0 JUMPI DUP1 PUSH4 0xD06CA61F GT PUSH2 0x64 JUMPI DUP1 PUSH4 0xD06CA61F EQ PUSH2 0x742 JUMPI DUP1 PUSH4 0xDED9382A EQ PUSH2 0x7F7 JUMPI DUP1 PUSH4 0xE8E33700 EQ PUSH2 0x86A JUMPI DUP1 PUSH4 0xF305D719 EQ PUSH2 0x8EA JUMPI DUP1 PUSH4 0xFB3BDB41 EQ PUSH2 0x930 JUMPI PUSH2 0x151 JUMP JUMPDEST DUP1 PUSH4 0x8803DBEE EQ PUSH2 0x5D3 JUMPI DUP1 PUSH4 0xAD5C4648 EQ PUSH2 0x669 JUMPI DUP1 PUSH4 0xAD615DEC EQ PUSH2 0x69A JUMPI DUP1 PUSH4 0xBAA2ABDE EQ PUSH2 0x6D0 JUMPI DUP1 PUSH4 0xC45A0155 EQ PUSH2 0x72D JUMPI PUSH2 0x151 JUMP JUMPDEST DUP1 PUSH4 0x2195995C GT PUSH2 0xE7 JUMPI DUP1 PUSH4 0x2195995C EQ PUSH2 0x3A5 JUMPI DUP1 PUSH4 0x38ED1739 EQ PUSH2 0x423 JUMPI DUP1 PUSH4 0x4A25D94A EQ PUSH2 0x4B9 JUMPI DUP1 PUSH4 0x7FF36AB5 EQ PUSH2 0x54F JUMPI DUP1 PUSH4 0x85F8C259 EQ PUSH2 0x1C2 JUMPI PUSH2 0x151 JUMP JUMPDEST DUP1 PUSH4 0x2751CEC EQ PUSH2 0x156 JUMPI DUP1 PUSH4 0x54D50D4 EQ PUSH2 0x1C2 JUMPI DUP1 PUSH4 0x18CBAFE5 EQ PUSH2 0x20A JUMPI DUP1 PUSH4 0x1F00CA74 EQ PUSH2 0x2F0 JUMPI PUSH2 0x151 JUMP JUMPDEST CALLDATASIZE PUSH2 0x151 JUMPI CALLER PUSH1 0x1 PUSH1 0x1 PUSH1 0xA0 SHL SUB PUSH32 0x0 AND EQ PUSH2 0x14F JUMPI INVALID JUMPDEST STOP JUMPDEST PUSH1 0x0 DUP1 REVERT JUMPDEST CALLVALUE DUP1 ISZERO PUSH2 0x162 JUMPI PUSH1 0x0 DUP1 REVERT JUMPDEST POP PUSH2 0x1A9 PUSH1 0x4 DUP1 CALLDATASIZE SUB PUSH1 0xC0 DUP2 LT ISZERO PUSH2 0x179 JUMPI PUSH1 0x0 DUP1 REVERT JUMPDEST POP PUSH1 0x1 PUSH1 0x1 PUSH1 0xA0 SHL SUB DUP2 CALLDATALOAD DUP2 AND SWAP2 PUSH1 0x20 DUP2 ADD CALLDATALOAD SWAP2 PUSH1 0x40 DUP3 ADD CALLDATALOAD SWAP2 PUSH1 0x60 DUP2 ADD CALLDATALOAD SWAP2 PUSH1 0x80 DUP3 ADD CALLDATALOAD AND SWAP1 PUSH1 0xA0 ADD CALLDATALOAD PUSH2 0x9B4 JUMP JUMPDEST PUSH1 0x40 DUP1 MLOAD SWAP3 DUP4 MSTORE PUSH1 0x20 DUP4 ADD SWAP2 SWAP1 SWAP2 MSTORE DUP1 MLOAD SWAP2 DUP3 SWAP1 SUB ADD SWAP1 RETURN JUMPDEST CALLVALUE DUP1 ISZERO PUSH2 0x1CE JUMPI PUSH1 0x0 DUP1 REVERT JUMPDEST POP PUSH2 0x1F8 PUSH1 0x4 DUP1 CALLDATASIZE SUB PUSH1 0x60 DUP2 LT ISZERO PUSH2 0x1E5 JUMPI PUSH1 0x0 DUP1 REVERT JUMPDEST POP DUP1 CALLDATALOAD SWAP1 PUSH1 0x20 DUP2 ADD CALLDATALOAD SWAP1 PUSH1 0x40 ADD CALLDATALOAD PUSH2 0xACE JUMP JUMPDEST PUSH1 0x40 DUP1 MLOAD SWAP2 DUP3 MSTORE MLOAD SWAP1 DUP2 SWAP1 SUB PUSH1 0x20 ADD SWAP1 RETURN JUMPDEST CALLVALUE DUP1 ISZERO PUSH2 0x216 JUMPI PUSH1 0x0 DUP1 REVERT JUMPDEST POP PUSH2 0x2A0 PUSH1 0x4 DUP1 CALLDATASIZE SUB PUSH1 0xA0 DUP2 LT ISZERO PUSH2 0x22D JUMPI PUSH1 0x0 DUP1 REVERT JUMPDEST DUP2 CALLDATALOAD SWAP2 PUSH1 0x20 DUP2 ADD CALLDATALOAD SWAP2 DUP2 ADD SWAP1 PUSH1 0x60 DUP2 ADD PUSH1 0x40 DUP3 ADD CALLDATALOAD PUSH1 0x1 PUSH1 0x20 SHL DUP2 GT ISZERO PUSH2 0x253 JUMPI PUSH1 0x0 DUP1 REVERT JUMPDEST DUP3 ADD DUP4 PUSH1 0x20 DUP3 ADD GT ISZERO PUSH2 0x265 JUMPI PUSH1 0x0 DUP1 REVERT JUMPDEST DUP1 CALLDATALOAD SWAP1 PUSH1 0x20 ADD SWAP2 DUP5 PUSH1 0x20 DUP4 MUL DUP5 ADD GT PUSH1 0x1 PUSH1 0x20 SHL DUP4 GT OR ISZERO PUSH2 0x286 JUMPI PUSH1 0x0 DUP1 REVERT JUMPDEST SWAP2 SWAP4 POP SWAP2 POP PUSH1 0x1 PUSH1 0x1 PUSH1 0xA0 SHL SUB DUP2 CALLDATALOAD AND SWAP1 PUSH1 0x20 ADD CALLDATALOAD PUSH2 0xAE3 JUMP JUMPDEST PUSH1 0x40 DUP1 MLOAD PUSH1 0x20 DUP1 DUP3 MSTORE DUP4 MLOAD DUP2 DUP4 ADD MSTORE DUP4 MLOAD SWAP2 SWAP3 DUP4 SWAP3 SWAP1 DUP4 ADD SWAP2 DUP6 DUP2 ADD SWAP2 MUL DUP1 DUP4 DUP4 PUSH1 0x0 JUMPDEST DUP4 DUP2 LT ISZERO PUSH2 0x2DC JUMPI DUP2 DUP2 ADD MLOAD DUP4 DUP3 ADD MSTORE PUSH1 0x20 ADD PUSH2 0x2C4 JUMP JUMPDEST POP POP POP POP SWAP1 POP ADD SWAP3 POP POP POP PUSH1 0x40 MLOAD DUP1 SWAP2 SUB SWAP1 RETURN JUMPDEST CALLVALUE DUP1 ISZERO PUSH2 0x2FC JUMPI PUSH1 0x0 DUP1 REVERT JUMPDEST POP PUSH2 0x2A0 PUSH1 0x4 DUP1 CALLDATASIZE SUB PUSH1 0x40 DUP2 LT ISZERO PUSH2 0x313 JUMPI PUSH1 0x0 DUP1 REVERT JUMPDEST DUP2 CALLDATALOAD SWAP2 SWAP1 DUP2 ADD SWAP1 PUSH1 0x40 DUP2 ADD PUSH1 0x20 DUP3 ADD CALLDATALOAD PUSH1 0x1 PUSH1 0x20 SHL DUP2 GT ISZERO PUSH2 0x334 JUMPI PUSH1 0x0 DUP1 REVERT JUMPDEST DUP3 ADD DUP4 PUSH1 0x20 DUP3 ADD GT ISZERO PUSH2 0x346 JUMPI PUSH1 0x0 DUP1 REVERT JUMPDEST DUP1 CALLDATALOAD SWAP1 PUSH1 0x20 ADD SWAP2 DUP5 PUSH1 0x20 DUP4 MUL DUP5 ADD GT PUSH1 0x1 PUSH1 0x20 SHL DUP4 GT OR ISZERO PUSH2 0x367 JUMPI PUSH1 0x0 DUP1 REVERT JUMPDEST SWAP2 SWAP1 DUP1 DUP1 PUSH1 0x20 MUL PUSH1 0x20 ADD PUSH1 0x40 MLOAD SWAP1 DUP2 ADD PUSH1 0x40 MSTORE DUP1 SWAP4 SWAP3 SWAP2 SWAP1 DUP2 DUP2 MSTORE PUSH1 0x20 ADD DUP4 DUP4 PUSH1 0x20 MUL DUP1 DUP3 DUP5 CALLDATACOPY PUSH1 0x0 SWAP3 ADD SWAP2 SWAP1 SWAP2 MSTORE POP SWAP3 SWAP6 POP PUSH2 0xE1E SWAP5 POP POP POP POP POP JUMP JUMPDEST CALLVALUE DUP1 ISZERO PUSH2 0x3B1 JUMPI PUSH1 0x0 DUP1 REVERT JUMPDEST POP PUSH2 0x1A9 PUSH1 0x4 DUP1 CALLDATASIZE SUB PUSH2 0x160 DUP2 LT ISZERO PUSH2 0x3C9 JUMPI PUSH1 0x0 DUP1 REVERT JUMPDEST POP PUSH1 0x1 PUSH1 0x1 PUSH1 0xA0 SHL SUB DUP2 CALLDATALOAD DUP2 AND SWAP2 PUSH1 0x20 DUP2 ADD CALLDATALOAD DUP3 AND SWAP2 PUSH1 0x40 DUP3 ADD CALLDATALOAD SWAP2 PUSH1 0x60 DUP2 ADD CALLDATALOAD SWAP2 PUSH1 0x80 DUP3 ADD CALLDATALOAD SWAP2 PUSH1 0xA0 DUP2 ADD CALLDATALOAD SWAP1 SWAP2 AND SWAP1 PUSH1 0xC0 DUP2 ADD CALLDATALOAD SWAP1 PUSH1 0xE0 DUP2 ADD CALLDATALOAD ISZERO ISZERO SWAP1 PUSH1 0xFF PUSH2 0x100 DUP3 ADD CALLDATALOAD AND SWAP1 PUSH2 0x120 DUP2 ADD CALLDATALOAD SWAP1 PUSH2 0x140 ADD CALLDATALOAD PUSH2 0xE54 JUMP JUMPDEST CALLVALUE DUP1 ISZERO PUSH2 0x42F JUMPI PUSH1 0x0 DUP1 REVERT JUMPDEST POP PUSH2 0x2A0 PUSH1 0x4 DUP1 CALLDATASIZE SUB PUSH1 0xA0 DUP2 LT ISZERO PUSH2 0x446 JUMPI PUSH1 0x0 DUP1 REVERT JUMPDEST DUP2 CALLDATALOAD SWAP2 PUSH1 0x20 DUP2 ADD CALLDATALOAD SWAP2 DUP2 ADD SWAP1 PUSH1 0x60 DUP2 ADD PUSH1 0x40 DUP3 ADD CALLDATALOAD PUSH1 0x1 PUSH1 0x20 SHL DUP2 GT ISZERO PUSH2 0x46C JUMPI PUSH1 0x0 DUP1 REVERT JUMPDEST DUP3 ADD DUP4 PUSH1 0x20 DUP3 ADD GT ISZERO PUSH2 0x47E JUMPI PUSH1 0x0 DUP1 REVERT JUMPDEST DUP1 CALLDATALOAD SWAP1 PUSH1 0x20 ADD SWAP2 DUP5 PUSH1 0x20 DUP4 MUL DUP5 ADD GT PUSH1 0x1 PUSH1 0x20 SHL DUP4 GT OR ISZERO PUSH2 0x49F JUMPI PUSH1 0x0 DUP1 REVERT JUMPDEST SWAP2 SWAP4 POP SWAP2 POP PUSH1 0x1 PUSH1 0x1 PUSH1 0xA0 SHL SUB DUP2 CALLDATALOAD AND SWAP1 PUSH1 0x20 ADD CALLDATALOAD PUSH2 0xF4E JUMP JUMPDEST CALLVALUE DUP1 ISZERO PUSH2 0x4C5 JUMPI PUSH1 0x0 DUP1 REVERT JUMPDEST POP PUSH2 0x2A0 PUSH1 0x4 DUP1 CALLDATASIZE SUB PUSH1 0xA0 DUP2 LT ISZERO PUSH2 0x4DC JUMPI PUSH1 0x0 DUP1 REVERT JUMPDEST DUP2 CALLDATALOAD SWAP2 PUSH1 0x20 DUP2 ADD CALLDATALOAD SWAP2 DUP2 ADD SWAP1 PUSH1 0x60 DUP2 ADD PUSH1 0x40 DUP3 ADD CALLDATALOAD PUSH1 0x1 PUSH1 0x20 SHL DUP2 GT ISZERO PUSH2 0x502 JUMPI PUSH1 0x0 DUP1 REVERT JUMPDEST DUP3 ADD DUP4 PUSH1 0x20 DUP3 ADD GT ISZERO PUSH2 0x514 JUMPI PUSH1 0x0 DUP1 REVERT JUMPDEST DUP1 CALLDATALOAD SWAP1 PUSH1 0x20 ADD SWAP2 DUP5 PUSH1 0x20 DUP4 MUL DUP5 ADD GT PUSH1 0x1 PUSH1 0x20 SHL DUP4 GT OR ISZERO PUSH2 0x535 JUMPI PUSH1 0x0 DUP1 REVERT JUMPDEST SWAP2 SWAP4 POP SWAP2 POP PUSH1 0x1 PUSH1 0x1 PUSH1 0xA0 SHL SUB DUP2 CALLDATALOAD AND SWAP1 PUSH1 0x20 ADD CALLDATALOAD PUSH2 0x1099 JUMP JUMPDEST PUSH2 0x2A0 PUSH1 0x4 DUP1 CALLDATASIZE SUB PUSH1 0x80 DUP2 LT ISZERO PUSH2 0x565 JUMPI PUSH1 0x0 DUP1 REVERT JUMPDEST DUP2 CALLDATALOAD SWAP2 SWAP1 DUP2 ADD SWAP1 PUSH1 0x40 DUP2 ADD PUSH1 0x20 DUP3 ADD CALLDATALOAD PUSH1 0x1 PUSH1 0x20 SHL DUP2 GT ISZERO PUSH2 0x586 JUMPI PUSH1 0x0 DUP1 REVERT JUMPDEST DUP3 ADD DUP4 PUSH1 0x20 DUP3 ADD GT ISZERO PUSH2 0x598 JUMPI PUSH1 0x0 DUP1 REVERT JUMPDEST DUP1 CALLDATALOAD SWAP1 PUSH1 0x20 ADD SWAP2 DUP5 PUSH1 0x20 DUP4 MUL DUP5 ADD GT PUSH1 0x1 PUSH1 0x20 SHL DUP4 GT OR ISZERO PUSH2 0x5B9 JUMPI PUSH1 0x0 DUP1 REVERT JUMPDEST SWAP2 SWAP4 POP SWAP2 POP PUSH1 0x1 PUSH1 0x1 PUSH1 0xA0 SHL SUB DUP2 CALLDATALOAD AND SWAP1 PUSH1 0x20 ADD CALLDATALOAD PUSH2 0x1233 JUMP JUMPDEST CALLVALUE DUP1 ISZERO PUSH2 0x5DF JUMPI PUSH1 0x0 DUP1 REVERT JUMPDEST POP PUSH2 0x2A0 PUSH1 0x4 DUP1 CALLDATASIZE SUB PUSH1 0xA0 DUP2 LT ISZERO PUSH2 0x5F6 JUMPI PUSH1 0x0 DUP1 REVERT JUMPDEST DUP2 CALLDATALOAD SWAP2 PUSH1 0x20 DUP2 ADD CALLDATALOAD SWAP2 DUP2 ADD SWAP1 PUSH1 0x60 DUP2 ADD PUSH1 0x40 DUP3 ADD CALLDATALOAD PUSH1 0x1 PUSH1 0x20 SHL DUP2 GT ISZERO PUSH2 0x61C JUMPI PUSH1 0x0 DUP1 REVERT JUMPDEST DUP3 ADD DUP4 PUSH1 0x20 DUP3 ADD GT ISZERO PUSH2 0x62E JUMPI PUSH1 0x0 DUP1 REVERT JUMPDEST DUP1 CALLDATALOAD SWAP1 PUSH1 0x20 ADD SWAP2 DUP5 PUSH1 0x20 DUP4 MUL DUP5 ADD GT PUSH1 0x1 PUSH1 0x20 SHL DUP4 GT OR ISZERO PUSH2 0x64F JUMPI PUSH1 0x0 DUP1 REVERT JUMPDEST SWAP2 SWAP4 POP SWAP2 POP PUSH1 0x1 PUSH1 0x1 PUSH1 0xA0 SHL SUB DUP2 CALLDATALOAD AND SWAP1 PUSH1 0x20 ADD CALLDATALOAD PUSH2 0x15B1 JUMP JUMPDEST CALLVALUE DUP1 ISZERO PUSH2 0x675 JUMPI PUSH1 0x0 DUP1 REVERT JUMPDEST POP PUSH2 0x67E PUSH2 0x16AA JUMP JUMPDEST PUSH1 0x40 DUP1 MLOAD PUSH1 0x1 PUSH1 0x1 PUSH1 0xA0 SHL SUB SWAP1 SWAP3 AND DUP3 MSTORE MLOAD SWAP1 DUP2 SWAP1 SUB PUSH1 0x20 ADD SWAP1 RETURN JUMPDEST CALLVALUE DUP1 ISZERO PUSH2 0x6A6 JUMPI PUSH1 0x0 DUP1 REVERT JUMPDEST POP PUSH2 0x1F8 PUSH1 0x4 DUP1 CALLDATASIZE SUB PUSH1 0x60 DUP2 LT ISZERO PUSH2 0x6BD JUMPI PUSH1 0x0 DUP1 REVERT JUMPDEST POP DUP1 CALLDATALOAD SWAP1 PUSH1 0x20 DUP2 ADD CALLDATALOAD SWAP1 PUSH1 0x40 ADD CALLDATALOAD PUSH2 0x16CE JUMP JUMPDEST CALLVALUE DUP1 ISZERO PUSH2 0x6DC JUMPI PUSH1 0x0 DUP1 REVERT JUMPDEST POP PUSH2 0x1A9 PUSH1 0x4 DUP1 CALLDATASIZE SUB PUSH1 0xE0 DUP2 LT ISZERO PUSH2 0x6F3 JUMPI PUSH1 0x0 DUP1 REVERT JUMPDEST POP PUSH1 0x1 PUSH1 0x1 PUSH1 0xA0 SHL SUB DUP2 CALLDATALOAD DUP2 AND SWAP2 PUSH1 0x20 DUP2 ADD CALLDATALOAD DUP3 AND SWAP2 PUSH1 0x40 DUP3 ADD CALLDATALOAD SWAP2 PUSH1 0x60 DUP2 ADD CALLDATALOAD SWAP2 PUSH1 0x80 DUP3 ADD CALLDATALOAD SWAP2 PUSH1 0xA0 DUP2 ADD CALLDATALOAD SWAP1 SWAP2 AND SWAP1 PUSH1 0xC0 ADD CALLDATALOAD PUSH2 0x16DB JUMP JUMPDEST CALLVALUE DUP1 ISZERO PUSH2 0x739 JUMPI PUSH1 0x0 DUP1 REVERT JUMPDEST POP PUSH2 0x67E PUSH2 0x191F JUMP JUMPDEST CALLVALUE DUP1 ISZERO PUSH2 0x74E JUMPI PUSH1 0x0 DUP1 REVERT JUMPDEST POP PUSH2 0x2A0 PUSH1 0x4 DUP1 CALLDATASIZE SUB PUSH1 0x40 DUP2 LT ISZERO PUSH2 0x765 JUMPI PUSH1 0x0 DUP1 REVERT JUMPDEST DUP2 CALLDATALOAD SWAP2 SWAP1 DUP2 ADD SWAP1 PUSH1 0x40 DUP2 ADD PUSH1 0x20 DUP3 ADD CALLDATALOAD PUSH1 0x1 PUSH1 0x20 SHL DUP2 GT ISZERO PUSH2 0x786 JUMPI PUSH1 0x0 DUP1 REVERT JUMPDEST DUP3 ADD DUP4 PUSH1 0x20 DUP3 ADD GT ISZERO PUSH2 0x798 JUMPI PUSH1 0x0 DUP1 REVERT JUMPDEST DUP1 CALLDATALOAD SWAP1 PUSH1 0x20 ADD SWAP2 DUP5 PUSH1 0x20 DUP4 MUL DUP5 ADD GT PUSH1 0x1 PUSH1 0x20 SHL DUP4 GT OR ISZERO PUSH2 0x7B9 JUMPI PUSH1 0x0 DUP1 REVERT JUMPDEST SWAP2 SWAP1 DUP1 DUP1 PUSH1 0x20 MUL PUSH1 0x20 ADD PUSH1 0x40 MLOAD SWAP1 DUP2 ADD PUSH1 0x40 MSTORE DUP1 SWAP4 SWAP3 SWAP2 SWAP1 DUP2 DUP2 MSTORE PUSH1 0x20 ADD DUP4 DUP4 PUSH1 0x20 MUL DUP1 DUP3 DUP5 CALLDATACOPY PUSH1 0x0 SWAP3 ADD SWAP2 SWAP1 SWAP2 MSTORE POP SWAP3 SWAP6 POP PUSH2 0x1943 SWAP5 POP POP POP POP POP JUMP JUMPDEST CALLVALUE DUP1 ISZERO PUSH2 0x803 JUMPI PUSH1 0x0 DUP1 REVERT JUMPDEST POP PUSH2 0x1A9 PUSH1 0x4 DUP1 CALLDATASIZE SUB PUSH2 0x140 DUP2 LT ISZERO PUSH2 0x81B JUMPI PUSH1 0x0 DUP1 REVERT JUMPDEST POP PUSH1 0x1 PUSH1 0x1 PUSH1 0xA0 SHL SUB DUP2 CALLDATALOAD DUP2 AND SWAP2 PUSH1 0x20 DUP2 ADD CALLDATALOAD SWAP2 PUSH1 0x40 DUP3 ADD CALLDATALOAD SWAP2 PUSH1 0x60 DUP2 ADD CALLDATALOAD SWAP2 PUSH1 0x80 DUP3 ADD CALLDATALOAD AND SWAP1 PUSH1 0xA0 DUP2 ADD CALLDATALOAD SWAP1 PUSH1 0xC0 DUP2 ADD CALLDATALOAD ISZERO ISZERO SWAP1 PUSH1 0xFF PUSH1 0xE0 DUP3 ADD CALLDATALOAD AND SWAP1 PUSH2 0x100 DUP2 ADD CALLDATALOAD SWAP1 PUSH2 0x120 ADD CALLDATALOAD PUSH2 0x1970 JUMP JUMPDEST CALLVALUE DUP1 ISZERO PUSH2 0x876 JUMPI PUSH1 0x0 DUP1 REVERT JUMPDEST POP PUSH2 0x8CC PUSH1 0x4 DUP1 CALLDATASIZE SUB PUSH2 0x100 DUP2 LT ISZERO PUSH2 0x88E JUMPI PUSH1 0x0 DUP1 REVERT JUMPDEST POP PUSH1 0x1 PUSH1 0x1 PUSH1 0xA0 SHL SUB DUP2 CALLDATALOAD DUP2 AND SWAP2 PUSH1 0x20 DUP2 ADD CALLDATALOAD DUP3 AND SWAP2 PUSH1 0x40 DUP3 ADD CALLDATALOAD SWAP2 PUSH1 0x60 DUP2 ADD CALLDATALOAD SWAP2 PUSH1 0x80 DUP3 ADD CALLDATALOAD SWAP2 PUSH1 0xA0 DUP2 ADD CALLDATALOAD SWAP2 PUSH1 0xC0 DUP3 ADD CALLDATALOAD AND SWAP1 PUSH1 0xE0 ADD CALLDATALOAD PUSH2 0x1A84 JUMP JUMPDEST PUSH1 0x40 DUP1 MLOAD SWAP4 DUP5 MSTORE PUSH1 0x20 DUP5 ADD SWAP3 SWAP1 SWAP3 MSTORE DUP3 DUP3 ADD MSTORE MLOAD SWAP1 DUP2 SWAP1 SUB PUSH1 0x60 ADD SWAP1 RETURN JUMPDEST PUSH2 0x8CC PUSH1 0x4 DUP1 CALLDATASIZE SUB PUSH1 0xC0 DUP2 LT ISZERO PUSH2 0x900 JUMPI PUSH1 0x0 DUP1 REVERT JUMPDEST POP PUSH1 0x1 PUSH1 0x1 PUSH1 0xA0 SHL SUB DUP2 CALLDATALOAD DUP2 AND SWAP2 PUSH1 0x20 DUP2 ADD CALLDATALOAD SWAP2 PUSH1 0x40 DUP3 ADD CALLDATALOAD SWAP2 PUSH1 0x60 DUP2 ADD CALLDATALOAD SWAP2 PUSH1 0x80 DUP3 ADD CALLDATALOAD AND SWAP1 PUSH1 0xA0 ADD CALLDATALOAD PUSH2 0x1BC0 JUMP JUMPDEST PUSH2 0x2A0 PUSH1 0x4 DUP1 CALLDATASIZE SUB PUSH1 0x80 DUP2 LT ISZERO PUSH2 0x946 JUMPI PUSH1 0x0 DUP1 REVERT JUMPDEST DUP2 CALLDATALOAD SWAP2 SWAP1 DUP2 ADD SWAP1 PUSH1 0x40 DUP2 ADD PUSH1 0x20 DUP3 ADD CALLDATALOAD PUSH1 0x1 PUSH1 0x20 SHL DUP2 GT ISZERO PUSH2 0x967 JUMPI PUSH1 0x0 DUP1 REVERT JUMPDEST DUP3 ADD DUP4 PUSH1 0x20 DUP3 ADD GT ISZERO PUSH2 0x979 JUMPI PUSH1 0x0 DUP1 REVERT JUMPDEST DUP1 CALLDATALOAD SWAP1 PUSH1 0x20 ADD SWAP2 DUP5 PUSH1 0x20 DUP4 MUL DUP5 ADD GT PUSH1 0x1 PUSH1 0x20 SHL DUP4 GT OR ISZERO PUSH2 0x99A JUMPI PUSH1 0x0 DUP1 REVERT JUMPDEST SWAP2 SWAP4 POP SWAP2 POP PUSH1 0x1 PUSH1 0x1 PUSH1 0xA0 SHL SUB DUP2 CALLDATALOAD AND SWAP1 PUSH1 0x20 ADD CALLDATALOAD PUSH2 0x1E65 JUMP JUMPDEST PUSH1 0x0 DUP1 DUP3 TIMESTAMP DUP2 LT ISZERO PUSH2 0x9FB JUMPI PUSH1 0x40 DUP1 MLOAD PUSH3 0x461BCD PUSH1 0xE5 SHL DUP2 MSTORE PUSH1 0x20 PUSH1 0x4 DUP3 ADD MSTORE PUSH1 0x14 PUSH1 0x24 DUP3 ADD MSTORE PUSH1 0x0 DUP1 MLOAD PUSH1 0x20 PUSH2 0x3489 DUP4 CODECOPY DUP2 MLOAD SWAP2 MSTORE PUSH1 0x44 DUP3 ADD MSTORE SWAP1 MLOAD SWAP1 DUP2 SWAP1 SUB PUSH1 0x64 ADD SWAP1 REVERT JUMPDEST PUSH2 0xA2A DUP10 PUSH32 0x0 DUP11 DUP11 DUP11 ADDRESS DUP11 PUSH2 0x16DB JUMP JUMPDEST SWAP1 SWAP4 POP SWAP2 POP PUSH2 0xA3A DUP10 DUP7 DUP6 PUSH2 0x21F5 JUMP JUMPDEST PUSH32 0x0 PUSH1 0x1 PUSH1 0x1 PUSH1 0xA0 SHL SUB AND PUSH4 0x2E1A7D4D DUP4 PUSH1 0x40 MLOAD DUP3 PUSH4 0xFFFFFFFF AND PUSH1 0xE0 SHL DUP2 MSTORE PUSH1 0x4 ADD DUP1 DUP3 DUP2 MSTORE PUSH1 0x20 ADD SWAP2 POP POP PUSH1 0x0 PUSH1 0x40 MLOAD DUP1 DUP4 SUB DUP2 PUSH1 0x0 DUP8 DUP1 EXTCODESIZE ISZERO DUP1 ISZERO PUSH2 0xAA0 JUMPI PUSH1 0x0 DUP1 REVERT JUMPDEST POP GAS CALL ISZERO DUP1 ISZERO PUSH2 0xAB4 JUMPI RETURNDATASIZE PUSH1 0x0 DUP1 RETURNDATACOPY RETURNDATASIZE PUSH1 0x0 REVERT JUMPDEST POP POP POP POP PUSH2 0xAC2 DUP6 DUP4 PUSH2 0x2349 JUMP JUMPDEST POP SWAP7 POP SWAP7 SWAP5 POP POP POP POP POP JUMP JUMPDEST PUSH1 0x0 PUSH2 0xADB DUP5 DUP5 DUP5 PUSH2 0x2441 JUMP JUMPDEST SWAP5 SWAP4 POP POP POP POP JUMP JUMPDEST PUSH1 0x60 DUP2 TIMESTAMP DUP2 LT ISZERO PUSH2 0xB29 JUMPI PUSH1 0x40 DUP1 MLOAD PUSH3 0x461BCD PUSH1 0xE5 SHL DUP2 MSTORE PUSH1 0x20 PUSH1 0x4 DUP3 ADD MSTORE PUSH1 0x14 PUSH1 0x24 DUP3 ADD MSTORE PUSH1 0x0 DUP1 MLOAD PUSH1 0x20 PUSH2 0x3489 DUP4 CODECOPY DUP2 MLOAD SWAP2 MSTORE PUSH1 0x44 DUP3 ADD MSTORE SWAP1 MLOAD SWAP1 DUP2 SWAP1 SUB PUSH1 0x64 ADD SWAP1 REVERT JUMPDEST PUSH1 0x1 PUSH1 0x1 PUSH1 0xA0 SHL SUB PUSH32 0x0 AND DUP7 DUP7 PUSH1 0x0 NOT DUP2 ADD DUP2 DUP2 LT PUSH2 0xB63 JUMPI INVALID JUMPDEST SWAP1 POP PUSH1 0x20 MUL ADD CALLDATALOAD PUSH1 0x1 PUSH1 0x1 PUSH1 0xA0 SHL SUB AND PUSH1 0x1 PUSH1 0x1 PUSH1 0xA0 SHL SUB AND EQ PUSH2 0xBCA JUMPI PUSH1 0x40 DUP1 MLOAD PUSH3 0x461BCD PUSH1 0xE5 SHL DUP2 MSTORE PUSH1 0x20 PUSH1 0x4 DUP3 ADD MSTORE PUSH1 0x19 PUSH1 0x24 DUP3 ADD MSTORE PUSH25 0x888AB0AC64A4DEEAE8CAE47440929CAC82989288BEA082A89 PUSH1 0x3B SHL PUSH1 0x44 DUP3 ADD MSTORE SWAP1 MLOAD SWAP1 DUP2 SWAP1 SUB PUSH1 0x64 ADD SWAP1 REVERT JUMPDEST PUSH2 0xC28 PUSH32 0x0 DUP10 DUP9 DUP9 DUP1 DUP1 PUSH1 0x20 MUL PUSH1 0x20 ADD PUSH1 0x40 MLOAD SWAP1 DUP2 ADD PUSH1 0x40 MSTORE DUP1 SWAP4 SWAP3 SWAP2 SWAP1 DUP2 DUP2 MSTORE PUSH1 0x20 ADD DUP4 DUP4 PUSH1 0x20 MUL DUP1 DUP3 DUP5 CALLDATACOPY PUSH1 0x0 SWAP3 ADD SWAP2 SWAP1 SWAP2 MSTORE POP PUSH2 0x2531 SWAP3 POP POP POP JUMP JUMPDEST SWAP2 POP DUP7 DUP3 PUSH1 0x1 DUP5 MLOAD SUB DUP2 MLOAD DUP2 LT PUSH2 0xC3B JUMPI INVALID JUMPDEST PUSH1 0x20 MUL PUSH1 0x20 ADD ADD MLOAD LT ISZERO PUSH2 0xC80 JUMPI PUSH1 0x40 MLOAD PUSH3 0x461BCD PUSH1 0xE5 SHL DUP2 MSTORE PUSH1 0x4 ADD DUP1 DUP1 PUSH1 0x20 ADD DUP3 DUP2 SUB DUP3 MSTORE PUSH1 0x27 DUP2 MSTORE PUSH1 0x20 ADD DUP1 PUSH2 0x333C PUSH1 0x27 SWAP2 CODECOPY PUSH1 0x40 ADD SWAP2 POP POP PUSH1 0x40 MLOAD DUP1 SWAP2 SUB SWAP1 REVERT JUMPDEST PUSH2 0xD1E DUP7 DUP7 PUSH1 0x0 DUP2 DUP2 LT PUSH2 0xC90 JUMPI INVALID JUMPDEST SWAP1 POP PUSH1 0x20 MUL ADD CALLDATALOAD PUSH1 0x1 PUSH1 0x1 PUSH1 0xA0 SHL SUB AND CALLER PUSH2 0xD04 PUSH32 0x0 DUP11 DUP11 PUSH1 0x0 DUP2 DUP2 LT PUSH2 0xCD2 JUMPI INVALID JUMPDEST SWAP1 POP PUSH1 0x20 MUL ADD CALLDATALOAD PUSH1 0x1 PUSH1 0x1 PUSH1 0xA0 SHL SUB AND DUP12 DUP12 PUSH1 0x1 DUP2 DUP2 LT PUSH2 0xCEF JUMPI INVALID JUMPDEST SWAP1 POP PUSH1 0x20 MUL ADD CALLDATALOAD PUSH1 0x1 PUSH1 0x1 PUSH1 0xA0 SHL SUB AND PUSH2 0x267D JUMP JUMPDEST DUP6 PUSH1 0x0 DUP2 MLOAD DUP2 LT PUSH2 0xD11 JUMPI INVALID JUMPDEST PUSH1 0x20 MUL PUSH1 0x20 ADD ADD MLOAD PUSH2 0x273D JUMP JUMPDEST PUSH2 0xD5D DUP3 DUP8 DUP8 DUP1 DUP1 PUSH1 0x20 MUL PUSH1 0x20 ADD PUSH1 0x40 MLOAD SWAP1 DUP2 ADD PUSH1 0x40 MSTORE DUP1 SWAP4 SWAP3 SWAP2 SWAP1 DUP2 DUP2 MSTORE PUSH1 0x20 ADD DUP4 DUP4 PUSH1 0x20 MUL DUP1 DUP3 DUP5 CALLDATACOPY PUSH1 0x0 SWAP3 ADD SWAP2 SWAP1 SWAP2 MSTORE POP ADDRESS SWAP3 POP PUSH2 0x289A SWAP2 POP POP JUMP JUMPDEST PUSH32 0x0 PUSH1 0x1 PUSH1 0x1 PUSH1 0xA0 SHL SUB AND PUSH4 0x2E1A7D4D DUP4 PUSH1 0x1 DUP6 MLOAD SUB DUP2 MLOAD DUP2 LT PUSH2 0xD9C JUMPI INVALID JUMPDEST PUSH1 0x20 MUL PUSH1 0x20 ADD ADD MLOAD PUSH1 0x40 MLOAD DUP3 PUSH4 0xFFFFFFFF AND PUSH1 0xE0 SHL DUP2 MSTORE PUSH1 0x4 ADD DUP1 DUP3 DUP2 MSTORE PUSH1 0x20 ADD SWAP2 POP POP PUSH1 0x0 PUSH1 0x40 MLOAD DUP1 DUP4 SUB DUP2 PUSH1 0x0 DUP8 DUP1 EXTCODESIZE ISZERO DUP1 ISZERO PUSH2 0xDDA JUMPI PUSH1 0x0 DUP1 REVERT JUMPDEST POP GAS CALL ISZERO DUP1 ISZERO PUSH2 0xDEE JUMPI RETURNDATASIZE PUSH1 0x0 DUP1 RETURNDATACOPY RETURNDATASIZE PUSH1 0x0 REVERT JUMPDEST POP POP POP POP PUSH2 0xE13 DUP5 DUP4 PUSH1 0x1 DUP6 MLOAD SUB DUP2 MLOAD DUP2 LT PUSH2 0xE06 JUMPI INVALID JUMPDEST PUSH1 0x20 MUL PUSH1 0x20 ADD ADD MLOAD PUSH2 0x2349 JUMP JUMPDEST POP SWAP7 SWAP6 POP POP POP POP POP POP JUMP JUMPDEST PUSH1 0x60 PUSH2 0xE4B PUSH32 0x0 DUP5 DUP5 PUSH2 0x2AE0 JUMP JUMPDEST SWAP1 POP JUMPDEST SWAP3 SWAP2 POP POP JUMP JUMPDEST PUSH1 0x0 DUP1 PUSH1 0x0 PUSH2 0xE84 PUSH32 0x0 DUP16 DUP16 PUSH2 0x267D JUMP JUMPDEST SWAP1 POP PUSH1 0x0 DUP8 PUSH2 0xE93 JUMPI DUP13 PUSH2 0xE97 JUMP JUMPDEST PUSH1 0x0 NOT JUMPDEST PUSH1 0x40 DUP1 MLOAD PUSH4 0xD505ACCF PUSH1 0xE0 SHL DUP2 MSTORE CALLER PUSH1 0x4 DUP3 ADD MSTORE ADDRESS PUSH1 0x24 DUP3 ADD MSTORE PUSH1 0x44 DUP2 ADD DUP4 SWAP1 MSTORE PUSH1 0x64 DUP2 ADD DUP13 SWAP1 MSTORE PUSH1 0xFF DUP11 AND PUSH1 0x84 DUP3 ADD MSTORE PUSH1 0xA4 DUP2 ADD DUP10 SWAP1 MSTORE PUSH1 0xC4 DUP2 ADD DUP9 SWAP1 MSTORE SWAP1 MLOAD SWAP2 SWAP3 POP PUSH1 0x1 PUSH1 0x1 PUSH1 0xA0 SHL SUB DUP5 AND SWAP2 PUSH4 0xD505ACCF SWAP2 PUSH1 0xE4 DUP1 DUP3 ADD SWAP3 PUSH1 0x0 SWAP3 SWAP1 SWAP2 SWAP1 DUP3 SWAP1 SUB ADD DUP2 DUP4 DUP8 DUP1 EXTCODESIZE ISZERO DUP1 ISZERO PUSH2 0xF0D JUMPI PUSH1 0x0 DUP1 REVERT JUMPDEST POP GAS CALL ISZERO DUP1 ISZERO PUSH2 0xF21 JUMPI RETURNDATASIZE PUSH1 0x0 DUP1 RETURNDATACOPY RETURNDATASIZE PUSH1 0x0 REVERT JUMPDEST POP POP POP POP PUSH2 0xF34 DUP16 DUP16 DUP16 DUP16 DUP16 DUP16 DUP16 PUSH2 0x16DB JUMP JUMPDEST DUP1 SWAP5 POP DUP2 SWAP6 POP POP POP POP POP SWAP12 POP SWAP12 SWAP10 POP POP POP POP POP POP POP POP POP POP JUMP JUMPDEST PUSH1 0x60 DUP2 TIMESTAMP DUP2 LT ISZERO PUSH2 0xF94 JUMPI PUSH1 0x40 DUP1 MLOAD PUSH3 0x461BCD PUSH1 0xE5 SHL DUP2 MSTORE PUSH1 0x20 PUSH1 0x4 DUP3 ADD MSTORE PUSH1 0x14 PUSH1 0x24 DUP3 ADD MSTORE PUSH1 0x0 DUP1 MLOAD PUSH1 0x20 PUSH2 0x3489 DUP4 CODECOPY DUP2 MLOAD SWAP2 MSTORE PUSH1 0x44 DUP3 ADD MSTORE SWAP1 MLOAD SWAP1 DUP2 SWAP1 SUB PUSH1 0x64 ADD SWAP1 REVERT JUMPDEST PUSH2 0xFF2 PUSH32 0x0 DUP10 DUP9 DUP9 DUP1 DUP1 PUSH1 0x20 MUL PUSH1 0x20 ADD PUSH1 0x40 MLOAD SWAP1 DUP2 ADD PUSH1 0x40 MSTORE DUP1 SWAP4 SWAP3 SWAP2 SWAP1 DUP2 DUP2 MSTORE PUSH1 0x20 ADD DUP4 DUP4 PUSH1 0x20 MUL DUP1 DUP3 DUP5 CALLDATACOPY PUSH1 0x0 SWAP3 ADD SWAP2 SWAP1 SWAP2 MSTORE POP PUSH2 0x2531 SWAP3 POP POP POP JUMP JUMPDEST SWAP2 POP DUP7 DUP3 PUSH1 0x1 DUP5 MLOAD SUB DUP2 MLOAD DUP2 LT PUSH2 0x1005 JUMPI INVALID JUMPDEST PUSH1 0x20 MUL PUSH1 0x20 ADD ADD MLOAD LT ISZERO PUSH2 0x104A JUMPI PUSH1 0x40 MLOAD PUSH3 0x461BCD PUSH1 0xE5 SHL DUP2 MSTORE PUSH1 0x4 ADD DUP1 DUP1 PUSH1 0x20 ADD DUP3 DUP2 SUB DUP3 MSTORE PUSH1 0x27 DUP2 MSTORE PUSH1 0x20 ADD DUP1 PUSH2 0x333C PUSH1 0x27 SWAP2 CODECOPY PUSH1 0x40 ADD SWAP2 POP POP PUSH1 0x40 MLOAD DUP1 SWAP2 SUB SWAP1 REVERT JUMPDEST PUSH2 0x105A DUP7 DUP7 PUSH1 0x0 DUP2 DUP2 LT PUSH2 0xC90 JUMPI INVALID JUMPDEST PUSH2 0xE13 DUP3 DUP8 DUP8 DUP1 DUP1 PUSH1 0x20 MUL PUSH1 0x20 ADD PUSH1 0x40 MLOAD SWAP1 DUP2 ADD PUSH1 0x40 MSTORE DUP1 SWAP4 SWAP3 SWAP2 SWAP1 DUP2 DUP2 MSTORE PUSH1 0x20 ADD DUP4 DUP4 PUSH1 0x20 MUL DUP1 DUP3 DUP5 CALLDATACOPY PUSH1 0x0 SWAP3 ADD SWAP2 SWAP1 SWAP2 MSTORE POP DUP10 SWAP3 POP PUSH2 0x289A SWAP2 POP POP JUMP JUMPDEST PUSH1 0x60 DUP2 TIMESTAMP DUP2 LT ISZERO PUSH2 0x10DF JUMPI PUSH1 0x40 DUP1 MLOAD PUSH3 0x461BCD PUSH1 0xE5 SHL DUP2 MSTORE PUSH1 0x20 PUSH1 0x4 DUP3 ADD MSTORE PUSH1 0x14 PUSH1 0x24 DUP3 ADD MSTORE PUSH1 0x0 DUP1 MLOAD PUSH1 0x20 PUSH2 0x3489 DUP4 CODECOPY DUP2 MLOAD SWAP2 MSTORE PUSH1 0x44 DUP3 ADD MSTORE SWAP1 MLOAD SWAP1 DUP2 SWAP1 SUB PUSH1 0x64 ADD SWAP1 REVERT JUMPDEST PUSH1 0x1 PUSH1 0x1 PUSH1 0xA0 SHL SUB PUSH32 0x0 AND DUP7 DUP7 PUSH1 0x0 NOT DUP2 ADD DUP2 DUP2 LT PUSH2 0x1119 JUMPI INVALID JUMPDEST SWAP1 POP PUSH1 0x20 MUL ADD CALLDATALOAD PUSH1 0x1 PUSH1 0x1 PUSH1 0xA0 SHL SUB AND PUSH1 0x1 PUSH1 0x1 PUSH1 0xA0 SHL SUB AND EQ PUSH2 0x1180 JUMPI PUSH1 0x40 DUP1 MLOAD PUSH3 0x461BCD PUSH1 0xE5 SHL DUP2 MSTORE PUSH1 0x20 PUSH1 0x4 DUP3 ADD MSTORE PUSH1 0x19 PUSH1 0x24 DUP3 ADD MSTORE PUSH25 0x888AB0AC64A4DEEAE8CAE47440929CAC82989288BEA082A89 PUSH1 0x3B SHL PUSH1 0x44 DUP3 ADD MSTORE SWAP1 MLOAD SWAP1 DUP2 SWAP1 SUB PUSH1 0x64 ADD SWAP1 REVERT JUMPDEST PUSH2 0x11DE PUSH32 0x0 DUP10 DUP9 DUP9 DUP1 DUP1 PUSH1 0x20 MUL PUSH1 0x20 ADD PUSH1 0x40 MLOAD SWAP1 DUP2 ADD PUSH1 0x40 MSTORE DUP1 SWAP4 SWAP3 SWAP2 SWAP1 DUP2 DUP2 MSTORE PUSH1 0x20 ADD DUP4 DUP4 PUSH1 0x20 MUL DUP1 DUP3 DUP5 CALLDATACOPY PUSH1 0x0 SWAP3 ADD SWAP2 SWAP1 SWAP2 MSTORE POP PUSH2 0x2AE0 SWAP3 POP POP POP JUMP JUMPDEST SWAP2 POP DUP7 DUP3 PUSH1 0x0 DUP2 MLOAD DUP2 LT PUSH2 0x11EE JUMPI INVALID JUMPDEST PUSH1 0x20 MUL PUSH1 0x20 ADD ADD MLOAD GT ISZERO PUSH2 0xC80 JUMPI PUSH1 0x40 MLOAD PUSH3 0x461BCD PUSH1 0xE5 SHL DUP2 MSTORE PUSH1 0x4 ADD DUP1 DUP1 PUSH1 0x20 ADD DUP3 DUP2 SUB DUP3 MSTORE PUSH1 0x23 DUP2 MSTORE PUSH1 0x20 ADD DUP1 PUSH2 0x34A9 PUSH1 0x23 SWAP2 CODECOPY PUSH1 0x40 ADD SWAP2 POP POP PUSH1 0x40 MLOAD DUP1 SWAP2 SUB SWAP1 REVERT JUMPDEST PUSH1 0x60 DUP2 TIMESTAMP DUP2 LT ISZERO PUSH2 0x1279 JUMPI PUSH1 0x40 DUP1 MLOAD PUSH3 0x461BCD PUSH1 0xE5 SHL DUP2 MSTORE PUSH1 0x20 PUSH1 0x4 DUP3 ADD MSTORE PUSH1 0x14 PUSH1 0x24 DUP3 ADD MSTORE PUSH1 0x0 DUP1 MLOAD PUSH1 0x20 PUSH2 0x3489 DUP4 CODECOPY DUP2 MLOAD SWAP2 MSTORE PUSH1 0x44 DUP3 ADD MSTORE SWAP1 MLOAD SWAP1 DUP2 SWAP1 SUB PUSH1 0x64 ADD SWAP1 REVERT JUMPDEST PUSH32 0x0 PUSH1 0x1 PUSH1 0x1 PUSH1 0xA0 SHL SUB AND DUP7 DUP7 PUSH1 0x0 DUP2 DUP2 LT PUSH2 0x12B0 JUMPI INVALID JUMPDEST SWAP1 POP PUSH1 0x20 MUL ADD CALLDATALOAD PUSH1 0x1 PUSH1 0x1 PUSH1 0xA0 SHL SUB AND PUSH1 0x1 PUSH1 0x1 PUSH1 0xA0 SHL SUB AND EQ PUSH2 0x1317 JUMPI PUSH1 0x40 DUP1 MLOAD PUSH3 0x461BCD PUSH1 0xE5 SHL DUP2 MSTORE PUSH1 0x20 PUSH1 0x4 DUP3 ADD MSTORE PUSH1 0x19 PUSH1 0x24 DUP3 ADD MSTORE PUSH25 0x888AB0AC64A4DEEAE8CAE47440929CAC82989288BEA082A89 PUSH1 0x3B SHL PUSH1 0x44 DUP3 ADD MSTORE SWAP1 MLOAD SWAP1 DUP2 SWAP1 SUB PUSH1 0x64 ADD SWAP1 REVERT JUMPDEST PUSH2 0x1375 PUSH32 0x0 CALLVALUE DUP9 DUP9 DUP1 DUP1 PUSH1 0x20 MUL PUSH1 0x20 ADD PUSH1 0x40 MLOAD SWAP1 DUP2 ADD PUSH1 0x40 MSTORE DUP1 SWAP4 SWAP3 SWAP2 SWAP1 DUP2 DUP2 MSTORE PUSH1 0x20 ADD DUP4 DUP4 PUSH1 0x20 MUL DUP1 DUP3 DUP5 CALLDATACOPY PUSH1 0x0 SWAP3 ADD SWAP2 SWAP1 SWAP2 MSTORE POP PUSH2 0x2531 SWAP3 POP POP POP JUMP JUMPDEST SWAP2 POP DUP7 DUP3 PUSH1 0x1 DUP5 MLOAD SUB DUP2 MLOAD DUP2 LT PUSH2 0x1388 JUMPI INVALID JUMPDEST PUSH1 0x20 MUL PUSH1 0x20 ADD ADD MLOAD LT ISZERO PUSH2 0x13CD JUMPI PUSH1 0x40 MLOAD PUSH3 0x461BCD PUSH1 0xE5 SHL DUP2 MSTORE PUSH1 0x4 ADD DUP1 DUP1 PUSH1 0x20 ADD DUP3 DUP2 SUB DUP3 MSTORE PUSH1 0x27 DUP2 MSTORE PUSH1 0x20 ADD DUP1 PUSH2 0x333C PUSH1 0x27 SWAP2 CODECOPY PUSH1 0x40 ADD SWAP2 POP POP PUSH1 0x40 MLOAD DUP1 SWAP2 SUB SWAP1 REVERT JUMPDEST PUSH32 0x0 PUSH1 0x1 PUSH1 0x1 PUSH1 0xA0 SHL SUB AND PUSH4 0xD0E30DB0 DUP4 PUSH1 0x0 DUP2 MLOAD DUP2 LT PUSH2 0x1409 JUMPI INVALID JUMPDEST PUSH1 0x20 MUL PUSH1 0x20 ADD ADD MLOAD PUSH1 0x40 MLOAD DUP3 PUSH4 0xFFFFFFFF AND PUSH1 0xE0 SHL DUP2 MSTORE PUSH1 0x4 ADD PUSH1 0x0 PUSH1 0x40 MLOAD DUP1 DUP4 SUB DUP2 DUP6 DUP9 DUP1 EXTCODESIZE ISZERO DUP1 ISZERO PUSH2 0x143C JUMPI PUSH1 0x0 DUP1 REVERT JUMPDEST POP GAS CALL ISZERO DUP1 ISZERO PUSH2 0x1450 JUMPI RETURNDATASIZE PUSH1 0x0 DUP1 RETURNDATACOPY RETURNDATASIZE PUSH1 0x0 REVERT JUMPDEST POP POP POP POP POP PUSH32 0x0 PUSH1 0x1 PUSH1 0x1 PUSH1 0xA0 SHL SUB AND PUSH4 0xA9059CBB PUSH2 0x14D2 PUSH32 0x0 DUP10 DUP10 PUSH1 0x0 DUP2 DUP2 LT PUSH2 0x14B5 JUMPI INVALID JUMPDEST SWAP1 POP PUSH1 0x20 MUL ADD CALLDATALOAD PUSH1 0x1 PUSH1 0x1 PUSH1 0xA0 SHL SUB AND DUP11 DUP11 PUSH1 0x1 DUP2 DUP2 LT PUSH2 0xCEF JUMPI INVALID JUMPDEST DUP5 PUSH1 0x0 DUP2 MLOAD DUP2 LT PUSH2 0x14DF JUMPI INVALID JUMPDEST PUSH1 0x20 MUL PUSH1 0x20 ADD ADD MLOAD PUSH1 0x40 MLOAD DUP4 PUSH4 0xFFFFFFFF AND PUSH1 0xE0 SHL DUP2 MSTORE PUSH1 0x4 ADD DUP1 DUP4 PUSH1 0x1 PUSH1 0x1 PUSH1 0xA0 SHL SUB AND PUSH1 0x1 PUSH1 0x1 PUSH1 0xA0 SHL SUB AND DUP2 MSTORE PUSH1 0x20 ADD DUP3 DUP2 MSTORE PUSH1 0x20 ADD SWAP3 POP POP POP PUSH1 0x20 PUSH1 0x40 MLOAD DUP1 DUP4 SUB DUP2 PUSH1 0x0 DUP8 DUP1 EXTCODESIZE ISZERO DUP1 ISZERO PUSH2 0x1536 JUMPI PUSH1 0x0 DUP1 REVERT JUMPDEST POP GAS CALL ISZERO DUP1 ISZERO PUSH2 0x154A JUMPI RETURNDATASIZE PUSH1 0x0 DUP1 RETURNDATACOPY RETURNDATASIZE PUSH1 0x0 REVERT JUMPDEST POP POP POP POP PUSH1 0x40 MLOAD RETURNDATASIZE PUSH1 0x20 DUP2 LT ISZERO PUSH2 0x1560 JUMPI PUSH1 0x0 DUP1 REVERT JUMPDEST POP MLOAD PUSH2 0x1568 JUMPI INVALID JUMPDEST PUSH2 0x15A7 DUP3 DUP8 DUP8 DUP1 DUP1 PUSH1 0x20 MUL PUSH1 0x20 ADD PUSH1 0x40 MLOAD SWAP1 DUP2 ADD PUSH1 0x40 MSTORE DUP1 SWAP4 SWAP3 SWAP2 SWAP1 DUP2 DUP2 MSTORE PUSH1 0x20 ADD DUP4 DUP4 PUSH1 0x20 MUL DUP1 DUP3 DUP5 CALLDATACOPY PUSH1 0x0 SWAP3 ADD SWAP2 SWAP1 SWAP2 MSTORE POP DUP10 SWAP3 POP PUSH2 0x289A SWAP2 POP POP JUMP JUMPDEST POP SWAP6 SWAP5 POP POP POP POP POP JUMP JUMPDEST PUSH1 0x60 DUP2 TIMESTAMP DUP2 LT ISZERO PUSH2 0x15F7 JUMPI PUSH1 0x40 DUP1 MLOAD PUSH3 0x461BCD PUSH1 0xE5 SHL DUP2 MSTORE PUSH1 0x20 PUSH1 0x4 DUP3 ADD MSTORE PUSH1 0x14 PUSH1 0x24 DUP3 ADD MSTORE PUSH1 0x0 DUP1 MLOAD PUSH1 0x20 PUSH2 0x3489 DUP4 CODECOPY DUP2 MLOAD SWAP2 MSTORE PUSH1 0x44 DUP3 ADD MSTORE SWAP1 MLOAD SWAP1 DUP2 SWAP1 SUB PUSH1 0x64 ADD SWAP1 REVERT JUMPDEST PUSH2 0x1655 PUSH32 0x0 DUP10 DUP9 DUP9 DUP1 DUP1 PUSH1 0x20 MUL PUSH1 0x20 ADD PUSH1 0x40 MLOAD SWAP1 DUP2 ADD PUSH1 0x40 MSTORE DUP1 SWAP4 SWAP3 SWAP2 SWAP1 DUP2 DUP2 MSTORE PUSH1 0x20 ADD DUP4 DUP4 PUSH1 0x20 MUL DUP1 DUP3 DUP5 CALLDATACOPY PUSH1 0x0 SWAP3 ADD SWAP2 SWAP1 SWAP2 MSTORE POP PUSH2 0x2AE0 SWAP3 POP POP POP JUMP JUMPDEST SWAP2 POP DUP7 DUP3 PUSH1 0x0 DUP2 MLOAD DUP2 LT PUSH2 0x1665 JUMPI INVALID JUMPDEST PUSH1 0x20 MUL PUSH1 0x20 ADD ADD MLOAD GT ISZERO PUSH2 0x104A JUMPI PUSH1 0x40 MLOAD PUSH3 0x461BCD PUSH1 0xE5 SHL DUP2 MSTORE PUSH1 0x4 ADD DUP1 DUP1 PUSH1 0x20 ADD DUP3 DUP2 SUB DUP3 MSTORE PUSH1 0x23 DUP2 MSTORE PUSH1 0x20 ADD DUP1 PUSH2 0x34A9 PUSH1 0x23 SWAP2 CODECOPY PUSH1 0x40 ADD SWAP2 POP POP PUSH1 0x40 MLOAD DUP1 SWAP2 SUB SWAP1 REVERT JUMPDEST PUSH32 0x0 DUP2 JUMP JUMPDEST PUSH1 0x0 PUSH2 0xADB DUP5 DUP5 DUP5 PUSH2 0x2C18 JUMP JUMPDEST PUSH1 0x0 DUP1 DUP3 TIMESTAMP DUP2 LT ISZERO PUSH2 0x1722 JUMPI PUSH1 0x40 DUP1 MLOAD PUSH3 0x461BCD PUSH1 0xE5 SHL DUP2 MSTORE PUSH1 0x20 PUSH1 0x4 DUP3 ADD MSTORE PUSH1 0x14 PUSH1 0x24 DUP3 ADD MSTORE PUSH1 0x0 DUP1 MLOAD PUSH1 0x20 PUSH2 0x3489 DUP4 CODECOPY DUP2 MLOAD SWAP2 MSTORE PUSH1 0x44 DUP3 ADD MSTORE SWAP1 MLOAD SWAP1 DUP2 SWAP1 SUB PUSH1 0x64 ADD SWAP1 REVERT JUMPDEST PUSH1 0x0 PUSH2 0x174F PUSH32 0x0 DUP13 DUP13 PUSH2 0x267D JUMP JUMPDEST PUSH1 0x40 DUP1 MLOAD PUSH4 0x23B872DD PUSH1 0xE0 SHL DUP2 MSTORE CALLER PUSH1 0x4 DUP3 ADD MSTORE PUSH1 0x1 PUSH1 0x1 PUSH1 0xA0 SHL SUB DUP4 AND PUSH1 0x24 DUP3 ADD DUP2 SWAP1 MSTORE PUSH1 0x44 DUP3 ADD DUP14 SWAP1 MSTORE SWAP2 MLOAD SWAP3 SWAP4 POP SWAP1 SWAP2 PUSH4 0x23B872DD SWAP2 PUSH1 0x64 DUP1 DUP3 ADD SWAP3 PUSH1 0x20 SWAP3 SWAP1 SWAP2 SWAP1 DUP3 SWAP1 SUB ADD DUP2 PUSH1 0x0 DUP8 DUP1 EXTCODESIZE ISZERO DUP1 ISZERO PUSH2 0x17AA JUMPI PUSH1 0x0 DUP1 REVERT JUMPDEST POP GAS CALL ISZERO DUP1 ISZERO PUSH2 0x17BE JUMPI RETURNDATASIZE PUSH1 0x0 DUP1 RETURNDATACOPY RETURNDATASIZE PUSH1 0x0 REVERT JUMPDEST POP POP POP POP PUSH1 0x40 MLOAD RETURNDATASIZE PUSH1 0x20 DUP2 LT ISZERO PUSH2 0x17D4 JUMPI PUSH1 0x0 DUP1 REVERT JUMPDEST POP POP PUSH1 0x40 DUP1 MLOAD PUSH4 0x226BF2D1 PUSH1 0xE2 SHL DUP2 MSTORE PUSH1 0x1 PUSH1 0x1 PUSH1 0xA0 SHL SUB DUP9 DUP2 AND PUSH1 0x4 DUP4 ADD MSTORE DUP3 MLOAD PUSH1 0x0 SWAP4 DUP5 SWAP4 SWAP3 DUP7 AND SWAP3 PUSH4 0x89AFCB44 SWAP3 PUSH1 0x24 DUP1 DUP4 ADD SWAP4 SWAP3 DUP3 SWAP1 SUB ADD DUP2 DUP8 DUP8 DUP1 EXTCODESIZE ISZERO DUP1 ISZERO PUSH2 0x1821 JUMPI PUSH1 0x0 DUP1 REVERT JUMPDEST POP GAS CALL ISZERO DUP1 ISZERO PUSH2 0x1835 JUMPI RETURNDATASIZE PUSH1 0x0 DUP1 RETURNDATACOPY RETURNDATASIZE PUSH1 0x0 REVERT JUMPDEST POP POP POP POP PUSH1 0x40 MLOAD RETURNDATASIZE PUSH1 0x40 DUP2 LT ISZERO PUSH2 0x184B JUMPI PUSH1 0x0 DUP1 REVERT JUMPDEST POP DUP1 MLOAD PUSH1 0x20 SWAP1 SWAP2 ADD MLOAD SWAP1 SWAP3 POP SWAP1 POP PUSH1 0x0 PUSH2 0x1865 DUP15 DUP15 PUSH2 0x2CC4 JUMP JUMPDEST POP SWAP1 POP DUP1 PUSH1 0x1 PUSH1 0x1 PUSH1 0xA0 SHL SUB AND DUP15 PUSH1 0x1 PUSH1 0x1 PUSH1 0xA0 SHL SUB AND EQ PUSH2 0x1888 JUMPI DUP2 DUP4 PUSH2 0x188B JUMP JUMPDEST DUP3 DUP3 JUMPDEST SWAP1 SWAP8 POP SWAP6 POP DUP11 DUP8 LT ISZERO PUSH2 0x18CF JUMPI PUSH1 0x40 MLOAD PUSH3 0x461BCD PUSH1 0xE5 SHL DUP2 MSTORE PUSH1 0x4 ADD DUP1 DUP1 PUSH1 0x20 ADD DUP3 DUP2 SUB DUP3 MSTORE PUSH1 0x22 DUP2 MSTORE PUSH1 0x20 ADD DUP1 PUSH2 0x3363 PUSH1 0x22 SWAP2 CODECOPY PUSH1 0x40 ADD SWAP2 POP POP PUSH1 0x40 MLOAD DUP1 SWAP2 SUB SWAP1 REVERT JUMPDEST DUP10 DUP7 LT ISZERO PUSH2 0x190E JUMPI PUSH1 0x40 MLOAD PUSH3 0x461BCD PUSH1 0xE5 SHL DUP2 MSTORE PUSH1 0x4 ADD DUP1 DUP1 PUSH1 0x20 ADD DUP3 DUP2 SUB DUP3 MSTORE PUSH1 0x22 DUP2 MSTORE PUSH1 0x20 ADD DUP1 PUSH2 0x33CD PUSH1 0x22 SWAP2 CODECOPY PUSH1 0x40 ADD SWAP2 POP POP PUSH1 0x40 MLOAD DUP1 SWAP2 SUB SWAP1 REVERT JUMPDEST POP POP POP POP POP SWAP8 POP SWAP8 SWAP6 POP POP POP POP POP POP JUMP JUMPDEST PUSH32 0x0 DUP2 JUMP JUMPDEST PUSH1 0x60 PUSH2 0xE4B PUSH32 0x0 DUP5 DUP5 PUSH2 0x2531 JUMP JUMPDEST PUSH1 0x0 DUP1 PUSH1 0x0 PUSH2 0x19C0 PUSH32 0x0 DUP15 PUSH32 0x0 PUSH2 0x267D JUMP JUMPDEST SWAP1 POP PUSH1 0x0 DUP8 PUSH2 0x19CF JUMPI DUP13 PUSH2 0x19D3 JUMP JUMPDEST PUSH1 0x0 NOT JUMPDEST PUSH1 0x40 DUP1 MLOAD PUSH4 0xD505ACCF PUSH1 0xE0 SHL DUP2 MSTORE CALLER PUSH1 0x4 DUP3 ADD MSTORE ADDRESS PUSH1 0x24 DUP3 ADD MSTORE PUSH1 0x44 DUP2 ADD DUP4 SWAP1 MSTORE PUSH1 0x64 DUP2 ADD DUP13 SWAP1 MSTORE PUSH1 0xFF DUP11 AND PUSH1 0x84 DUP3 ADD MSTORE PUSH1 0xA4 DUP2 ADD DUP10 SWAP1 MSTORE PUSH1 0xC4 DUP2 ADD DUP9 SWAP1 MSTORE SWAP1 MLOAD SWAP2 SWAP3 POP PUSH1 0x1 PUSH1 0x1 PUSH1 0xA0 SHL SUB DUP5 AND SWAP2 PUSH4 0xD505ACCF SWAP2 PUSH1 0xE4 DUP1 DUP3 ADD SWAP3 PUSH1 0x0 SWAP3 SWAP1 SWAP2 SWAP1 DUP3 SWAP1 SUB ADD DUP2 DUP4 DUP8 DUP1 EXTCODESIZE ISZERO DUP1 ISZERO PUSH2 0x1A49 JUMPI PUSH1 0x0 DUP1 REVERT JUMPDEST POP GAS CALL ISZERO DUP1 ISZERO PUSH2 0x1A5D JUMPI RETURNDATASIZE PUSH1 0x0 DUP1 RETURNDATACOPY RETURNDATASIZE PUSH1 0x0 REVERT JUMPDEST POP POP POP POP PUSH2 0x1A6F DUP15 DUP15 DUP15 DUP15 DUP15 DUP15 PUSH2 0x9B4 JUMP JUMPDEST SWAP1 SWAP16 SWAP1 SWAP15 POP SWAP13 POP POP POP POP POP POP POP POP POP POP POP POP POP JUMP JUMPDEST PUSH1 0x0 DUP1 PUSH1 0x0 DUP4 TIMESTAMP DUP2 LT ISZERO PUSH2 0x1ACD JUMPI PUSH1 0x40 DUP1 MLOAD PUSH3 0x461BCD PUSH1 0xE5 SHL DUP2 MSTORE PUSH1 0x20 PUSH1 0x4 DUP3 ADD MSTORE PUSH1 0x14 PUSH1 0x24 DUP3 ADD MSTORE PUSH1 0x0 DUP1 MLOAD PUSH1 0x20 PUSH2 0x3489 DUP4 CODECOPY DUP2 MLOAD SWAP2 MSTORE PUSH1 0x44 DUP3 ADD MSTORE SWAP1 MLOAD SWAP1 DUP2 SWAP1 SUB PUSH1 0x64 ADD SWAP1 REVERT JUMPDEST PUSH2 0x1ADB DUP13 DUP13 DUP13 DUP13 DUP13 DUP13 PUSH2 0x2DA2 JUMP JUMPDEST SWAP1 SWAP5 POP SWAP3 POP PUSH1 0x0 PUSH2 0x1B0D PUSH32 0x0 DUP15 DUP15 PUSH2 0x267D JUMP JUMPDEST SWAP1 POP PUSH2 0x1B1B DUP14 CALLER DUP4 DUP9 PUSH2 0x273D JUMP JUMPDEST PUSH2 0x1B27 DUP13 CALLER DUP4 DUP8 PUSH2 0x273D JUMP JUMPDEST DUP1 PUSH1 0x1 PUSH1 0x1 PUSH1 0xA0 SHL SUB AND PUSH4 0x6A627842 DUP9 PUSH1 0x40 MLOAD DUP3 PUSH4 0xFFFFFFFF AND PUSH1 0xE0 SHL DUP2 MSTORE PUSH1 0x4 ADD DUP1 DUP3 PUSH1 0x1 PUSH1 0x1 PUSH1 0xA0 SHL SUB AND PUSH1 0x1 PUSH1 0x1 PUSH1 0xA0 SHL SUB AND DUP2 MSTORE PUSH1 0x20 ADD SWAP2 POP POP PUSH1 0x20 PUSH1 0x40 MLOAD DUP1 DUP4 SUB DUP2 PUSH1 0x0 DUP8 DUP1 EXTCODESIZE ISZERO DUP1 ISZERO PUSH2 0x1B7F JUMPI PUSH1 0x0 DUP1 REVERT JUMPDEST POP GAS CALL ISZERO DUP1 ISZERO PUSH2 0x1B93 JUMPI RETURNDATASIZE PUSH1 0x0 DUP1 RETURNDATACOPY RETURNDATASIZE PUSH1 0x0 REVERT JUMPDEST POP POP POP POP PUSH1 0x40 MLOAD RETURNDATASIZE PUSH1 0x20 DUP2 LT ISZERO PUSH2 0x1BA9 JUMPI PUSH1 0x0 DUP1 REVERT JUMPDEST POP MLOAD SWAP5 SWAP14 SWAP4 SWAP13 POP SWAP4 SWAP11 POP SWAP2 SWAP9 POP POP POP POP POP POP POP POP POP JUMP JUMPDEST PUSH1 0x0 DUP1 PUSH1 0x0 DUP4 TIMESTAMP DUP2 LT ISZERO PUSH2 0x1C09 JUMPI PUSH1 0x40 DUP1 MLOAD PUSH3 0x461BCD PUSH1 0xE5 SHL DUP2 MSTORE PUSH1 0x20 PUSH1 0x4 DUP3 ADD MSTORE PUSH1 0x14 PUSH1 0x24 DUP3 ADD MSTORE PUSH1 0x0 DUP1 MLOAD PUSH1 0x20 PUSH2 0x3489 DUP4 CODECOPY DUP2 MLOAD SWAP2 MSTORE PUSH1 0x44 DUP3 ADD MSTORE SWAP1 MLOAD SWAP1 DUP2 SWAP1 SUB PUSH1 0x64 ADD SWAP1 REVERT JUMPDEST PUSH2 0x1C37 DUP11 PUSH32 0x0 DUP12 CALLVALUE DUP13 DUP13 PUSH2 0x2DA2 JUMP JUMPDEST SWAP1 SWAP5 POP SWAP3 POP PUSH1 0x0 PUSH2 0x1C89 PUSH32 0x0 DUP13 PUSH32 0x0 PUSH2 0x267D JUMP JUMPDEST SWAP1 POP PUSH2 0x1C97 DUP12 CALLER DUP4 DUP9 PUSH2 0x273D JUMP JUMPDEST PUSH32 0x0 PUSH1 0x1 PUSH1 0x1 PUSH1 0xA0 SHL SUB AND PUSH4 0xD0E30DB0 DUP6 PUSH1 0x40 MLOAD DUP3 PUSH4 0xFFFFFFFF AND PUSH1 0xE0 SHL DUP2 MSTORE PUSH1 0x4 ADD PUSH1 0x0 PUSH1 0x40 MLOAD DUP1 DUP4 SUB DUP2 DUP6 DUP9 DUP1 EXTCODESIZE ISZERO DUP1 ISZERO PUSH2 0x1CF2 JUMPI PUSH1 0x0 DUP1 REVERT JUMPDEST POP GAS CALL ISZERO DUP1 ISZERO PUSH2 0x1D06 JUMPI RETURNDATASIZE PUSH1 0x0 DUP1 RETURNDATACOPY RETURNDATASIZE PUSH1 0x0 REVERT JUMPDEST POP POP POP POP POP PUSH32 0x0 PUSH1 0x1 PUSH1 0x1 PUSH1 0xA0 SHL SUB AND PUSH4 0xA9059CBB DUP3 DUP7 PUSH1 0x40 MLOAD DUP4 PUSH4 0xFFFFFFFF AND PUSH1 0xE0 SHL DUP2 MSTORE PUSH1 0x4 ADD DUP1 DUP4 PUSH1 0x1 PUSH1 0x1 PUSH1 0xA0 SHL SUB AND PUSH1 0x1 PUSH1 0x1 PUSH1 0xA0 SHL SUB AND DUP2 MSTORE PUSH1 0x20 ADD DUP3 DUP2 MSTORE PUSH1 0x20 ADD SWAP3 POP POP POP PUSH1 0x20 PUSH1 0x40 MLOAD DUP1 DUP4 SUB DUP2 PUSH1 0x0 DUP8 DUP1 EXTCODESIZE ISZERO DUP1 ISZERO PUSH2 0x1D8B JUMPI PUSH1 0x0 DUP1 REVERT JUMPDEST POP GAS CALL ISZERO DUP1 ISZERO PUSH2 0x1D9F JUMPI RETURNDATASIZE PUSH1 0x0 DUP1 RETURNDATACOPY RETURNDATASIZE PUSH1 0x0 REVERT JUMPDEST POP POP POP POP PUSH1 0x40 MLOAD RETURNDATASIZE PUSH1 0x20 DUP2 LT ISZERO PUSH2 0x1DB5 JUMPI PUSH1 0x0 DUP1 REVERT JUMPDEST POP MLOAD PUSH2 0x1DBD JUMPI INVALID JUMPDEST DUP1 PUSH1 0x1 PUSH1 0x1 PUSH1 0xA0 SHL SUB AND PUSH4 0x6A627842 DUP9 PUSH1 0x40 MLOAD DUP3 PUSH4 0xFFFFFFFF AND PUSH1 0xE0 SHL DUP2 MSTORE PUSH1 0x4 ADD DUP1 DUP3 PUSH1 0x1 PUSH1 0x1 PUSH1 0xA0 SHL SUB AND PUSH1 0x1 PUSH1 0x1 PUSH1 0xA0 SHL SUB AND DUP2 MSTORE PUSH1 0x20 ADD SWAP2 POP POP PUSH1 0x20 PUSH1 0x40 MLOAD DUP1 DUP4 SUB DUP2 PUSH1 0x0 DUP8 DUP1 EXTCODESIZE ISZERO DUP1 ISZERO PUSH2 0x1E15 JUMPI PUSH1 0x0 DUP1 REVERT JUMPDEST POP GAS CALL ISZERO DUP1 ISZERO PUSH2 0x1E29 JUMPI RETURNDATASIZE PUSH1 0x0 DUP1 RETURNDATACOPY RETURNDATASIZE PUSH1 0x0 REVERT JUMPDEST POP POP POP POP PUSH1 0x40 MLOAD RETURNDATASIZE PUSH1 0x20 DUP2 LT ISZERO PUSH2 0x1E3F JUMPI PUSH1 0x0 DUP1 REVERT JUMPDEST POP MLOAD SWAP3 POP CALLVALUE DUP5 LT ISZERO PUSH2 0x1E57 JUMPI PUSH2 0x1E57 CALLER DUP6 CALLVALUE SUB PUSH2 0x2349 JUMP JUMPDEST POP POP SWAP7 POP SWAP7 POP SWAP7 SWAP4 POP POP POP POP JUMP JUMPDEST PUSH1 0x60 DUP2 TIMESTAMP DUP2 LT ISZERO PUSH2 0x1EAB JUMPI PUSH1 0x40 DUP1 MLOAD PUSH3 0x461BCD PUSH1 0xE5 SHL DUP2 MSTORE PUSH1 0x20 PUSH1 0x4 DUP3 ADD MSTORE PUSH1 0x14 PUSH1 0x24 DUP3 ADD MSTORE PUSH1 0x0 DUP1 MLOAD PUSH1 0x20 PUSH2 0x3489 DUP4 CODECOPY DUP2 MLOAD SWAP2 MSTORE PUSH1 0x44 DUP3 ADD MSTORE SWAP1 MLOAD SWAP1 DUP2 SWAP1 SUB PUSH1 0x64 ADD SWAP1 REVERT JUMPDEST PUSH32 0x0 PUSH1 0x1 PUSH1 0x1 PUSH1 0xA0 SHL SUB AND DUP7 DUP7 PUSH1 0x0 DUP2 DUP2 LT PUSH2 0x1EE2 JUMPI INVALID JUMPDEST SWAP1 POP PUSH1 0x20 MUL ADD CALLDATALOAD PUSH1 0x1 PUSH1 0x1 PUSH1 0xA0 SHL SUB AND PUSH1 0x1 PUSH1 0x1 PUSH1 0xA0 SHL SUB AND EQ PUSH2 0x1F49 JUMPI PUSH1 0x40 DUP1 MLOAD PUSH3 0x461BCD PUSH1 0xE5 SHL DUP2 MSTORE PUSH1 0x20 PUSH1 0x4 DUP3 ADD MSTORE PUSH1 0x19 PUSH1 0x24 DUP3 ADD MSTORE PUSH25 0x888AB0AC64A4DEEAE8CAE47440929CAC82989288BEA082A89 PUSH1 0x3B SHL PUSH1 0x44 DUP3 ADD MSTORE SWAP1 MLOAD SWAP1 DUP2 SWAP1 SUB PUSH1 0x64 ADD SWAP1 REVERT JUMPDEST PUSH2 0x1FA7 PUSH32 0x0 DUP9 DUP9 DUP9 DUP1 DUP1 PUSH1 0x20 MUL PUSH1 0x20 ADD PUSH1 0x40 MLOAD SWAP1 DUP2 ADD PUSH1 0x40 MSTORE DUP1 SWAP4 SWAP3 SWAP2 SWAP1 DUP2 DUP2 MSTORE PUSH1 0x20 ADD DUP4 DUP4 PUSH1 0x20 MUL DUP1 DUP3 DUP5 CALLDATACOPY PUSH1 0x0 SWAP3 ADD SWAP2 SWAP1 SWAP2 MSTORE POP PUSH2 0x2AE0 SWAP3 POP POP POP JUMP JUMPDEST SWAP2 POP CALLVALUE DUP3 PUSH1 0x0 DUP2 MLOAD DUP2 LT PUSH2 0x1FB7 JUMPI INVALID JUMPDEST PUSH1 0x20 MUL PUSH1 0x20 ADD ADD MLOAD GT ISZERO PUSH2 0x1FFC JUMPI PUSH1 0x40 MLOAD PUSH3 0x461BCD PUSH1 0xE5 SHL DUP2 MSTORE PUSH1 0x4 ADD DUP1 DUP1 PUSH1 0x20 ADD DUP3 DUP2 SUB DUP3 MSTORE PUSH1 0x23 DUP2 MSTORE PUSH1 0x20 ADD DUP1 PUSH2 0x34A9 PUSH1 0x23 SWAP2 CODECOPY PUSH1 0x40 ADD SWAP2 POP POP PUSH1 0x40 MLOAD DUP1 SWAP2 SUB SWAP1 REVERT JUMPDEST PUSH32 0x0 PUSH1 0x1 PUSH1 0x1 PUSH1 0xA0 SHL SUB AND PUSH4 0xD0E30DB0 DUP4 PUSH1 0x0 DUP2 MLOAD DUP2 LT PUSH2 0x2038 JUMPI INVALID JUMPDEST PUSH1 0x20 MUL PUSH1 0x20 ADD ADD MLOAD PUSH1 0x40 MLOAD DUP3 PUSH4 0xFFFFFFFF AND PUSH1 0xE0 SHL DUP2 MSTORE PUSH1 0x4 ADD PUSH1 0x0 PUSH1 0x40 MLOAD DUP1 DUP4 SUB DUP2 DUP6 DUP9 DUP1 EXTCODESIZE ISZERO DUP1 ISZERO PUSH2 0x206B JUMPI PUSH1 0x0 DUP1 REVERT JUMPDEST POP GAS CALL ISZERO DUP1 ISZERO PUSH2 0x207F JUMPI RETURNDATASIZE PUSH1 0x0 DUP1 RETURNDATACOPY RETURNDATASIZE PUSH1 0x0 REVERT JUMPDEST POP POP POP POP POP PUSH32 0x0 PUSH1 0x1 PUSH1 0x1 PUSH1 0xA0 SHL SUB AND PUSH4 0xA9059CBB PUSH2 0x20E4 PUSH32 0x0 DUP10 DUP10 PUSH1 0x0 DUP2 DUP2 LT PUSH2 0x14B5 JUMPI INVALID JUMPDEST DUP5 PUSH1 0x0 DUP2 MLOAD DUP2 LT PUSH2 0x20F1 JUMPI INVALID JUMPDEST PUSH1 0x20 MUL PUSH1 0x20 ADD ADD MLOAD PUSH1 0x40 MLOAD DUP4 PUSH4 0xFFFFFFFF AND PUSH1 0xE0 SHL DUP2 MSTORE PUSH1 0x4 ADD DUP1 DUP4 PUSH1 0x1 PUSH1 0x1 PUSH1 0xA0 SHL SUB AND PUSH1 0x1 PUSH1 0x1 PUSH1 0xA0 SHL SUB AND DUP2 MSTORE PUSH1 0x20 ADD DUP3 DUP2 MSTORE PUSH1 0x20 ADD SWAP3 POP POP POP PUSH1 0x20 PUSH1 0x40 MLOAD DUP1 DUP4 SUB DUP2 PUSH1 0x0 DUP8 DUP1 EXTCODESIZE ISZERO DUP1 ISZERO PUSH2 0x2148 JUMPI PUSH1 0x0 DUP1 REVERT JUMPDEST POP GAS CALL ISZERO DUP1 ISZERO PUSH2 0x215C JUMPI RETURNDATASIZE PUSH1 0x0 DUP1 RETURNDATACOPY RETURNDATASIZE PUSH1 0x0 REVERT JUMPDEST POP POP POP POP PUSH1 0x40 MLOAD RETURNDATASIZE PUSH1 0x20 DUP2 LT ISZERO PUSH2 0x2172 JUMPI PUSH1 0x0 DUP1 REVERT JUMPDEST POP MLOAD PUSH2 0x217A JUMPI INVALID JUMPDEST PUSH2 0x21B9 DUP3 DUP8 DUP8 DUP1 DUP1 PUSH1 0x20 MUL PUSH1 0x20 ADD PUSH1 0x40 MLOAD SWAP1 DUP2 ADD PUSH1 0x40 MSTORE DUP1 SWAP4 SWAP3 SWAP2 SWAP1 DUP2 DUP2 MSTORE PUSH1 0x20 ADD DUP4 DUP4 PUSH1 0x20 MUL DUP1 DUP3 DUP5 CALLDATACOPY PUSH1 0x0 SWAP3 ADD SWAP2 SWAP1 SWAP2 MSTORE POP DUP10 SWAP3 POP PUSH2 0x289A SWAP2 POP POP JUMP JUMPDEST DUP2 PUSH1 0x0 DUP2 MLOAD DUP2 LT PUSH2 0x21C6 JUMPI INVALID JUMPDEST PUSH1 0x20 MUL PUSH1 0x20 ADD ADD MLOAD CALLVALUE GT ISZERO PUSH2 0x15A7 JUMPI PUSH2 0x15A7 CALLER DUP4 PUSH1 0x0 DUP2 MLOAD DUP2 LT PUSH2 0x21E6 JUMPI INVALID JUMPDEST PUSH1 0x20 MUL PUSH1 0x20 ADD ADD MLOAD CALLVALUE SUB PUSH2 0x2349 JUMP JUMPDEST PUSH1 0x40 DUP1 MLOAD PUSH1 0x1 PUSH1 0x1 PUSH1 0xA0 SHL SUB DUP5 DUP2 AND PUSH1 0x24 DUP4 ADD MSTORE PUSH1 0x44 DUP1 DUP4 ADD DUP6 SWAP1 MSTORE DUP4 MLOAD DUP1 DUP5 SUB SWAP1 SWAP2 ADD DUP2 MSTORE PUSH1 0x64 SWAP1 SWAP3 ADD DUP4 MSTORE PUSH1 0x20 DUP3 ADD DUP1 MLOAD PUSH1 0x1 PUSH1 0x1 PUSH1 0xE0 SHL SUB AND PUSH4 0xA9059CBB PUSH1 0xE0 SHL OR DUP2 MSTORE SWAP3 MLOAD DUP3 MLOAD PUSH1 0x0 SWAP5 PUSH1 0x60 SWAP5 SWAP4 DUP10 AND SWAP4 SWAP3 SWAP2 DUP3 SWAP2 SWAP1 DUP1 DUP4 DUP4 JUMPDEST PUSH1 0x20 DUP4 LT PUSH2 0x2272 JUMPI DUP1 MLOAD DUP3 MSTORE PUSH1 0x1F NOT SWAP1 SWAP3 ADD SWAP2 PUSH1 0x20 SWAP2 DUP3 ADD SWAP2 ADD PUSH2 0x2253 JUMP JUMPDEST PUSH1 0x1 DUP4 PUSH1 0x20 SUB PUSH2 0x100 EXP SUB DUP1 NOT DUP3 MLOAD AND DUP2 DUP5 MLOAD AND DUP1 DUP3 OR DUP6 MSTORE POP POP POP POP POP POP SWAP1 POP ADD SWAP2 POP POP PUSH1 0x0 PUSH1 0x40 MLOAD DUP1 DUP4 SUB DUP2 PUSH1 0x0 DUP7 GAS CALL SWAP2 POP POP RETURNDATASIZE DUP1 PUSH1 0x0 DUP2 EQ PUSH2 0x22D4 JUMPI PUSH1 0x40 MLOAD SWAP2 POP PUSH1 0x1F NOT PUSH1 0x3F RETURNDATASIZE ADD AND DUP3 ADD PUSH1 0x40 MSTORE RETURNDATASIZE DUP3 MSTORE RETURNDATASIZE PUSH1 0x0 PUSH1 0x20 DUP5 ADD RETURNDATACOPY PUSH2 0x22D9 JUMP JUMPDEST PUSH1 0x60 SWAP2 POP JUMPDEST POP SWAP2 POP SWAP2 POP DUP2 DUP1 ISZERO PUSH2 0x2307 JUMPI POP DUP1 MLOAD ISZERO DUP1 PUSH2 0x2307 JUMPI POP DUP1 DUP1 PUSH1 0x20 ADD SWAP1 MLOAD PUSH1 0x20 DUP2 LT ISZERO PUSH2 0x2304 JUMPI PUSH1 0x0 DUP1 REVERT JUMPDEST POP MLOAD JUMPDEST PUSH2 0x2342 JUMPI PUSH1 0x40 MLOAD PUSH3 0x461BCD PUSH1 0xE5 SHL DUP2 MSTORE PUSH1 0x4 ADD DUP1 DUP1 PUSH1 0x20 ADD DUP3 DUP2 SUB DUP3 MSTORE PUSH1 0x2D DUP2 MSTORE PUSH1 0x20 ADD DUP1 PUSH2 0x3434 PUSH1 0x2D SWAP2 CODECOPY PUSH1 0x40 ADD SWAP2 POP POP PUSH1 0x40 MLOAD DUP1 SWAP2 SUB SWAP1 REVERT JUMPDEST POP POP POP POP POP JUMP JUMPDEST PUSH1 0x40 DUP1 MLOAD PUSH1 0x0 DUP1 DUP3 MSTORE PUSH1 0x20 DUP3 ADD SWAP1 SWAP3 MSTORE PUSH1 0x1 PUSH1 0x1 PUSH1 0xA0 SHL SUB DUP5 AND SWAP1 DUP4 SWAP1 PUSH1 0x40 MLOAD DUP1 DUP3 DUP1 MLOAD SWAP1 PUSH1 0x20 ADD SWAP1 DUP1 DUP4 DUP4 JUMPDEST PUSH1 0x20 DUP4 LT PUSH2 0x2395 JUMPI DUP1 MLOAD DUP3 MSTORE PUSH1 0x1F NOT SWAP1 SWAP3 ADD SWAP2 PUSH1 0x20 SWAP2 DUP3 ADD SWAP2 ADD PUSH2 0x2376 JUMP JUMPDEST PUSH1 0x1 DUP4 PUSH1 0x20 SUB PUSH2 0x100 EXP SUB DUP1 NOT DUP3 MLOAD AND DUP2 DUP5 MLOAD AND DUP1 DUP3 OR DUP6 MSTORE POP POP POP POP POP POP SWAP1 POP ADD SWAP2 POP POP PUSH1 0x0 PUSH1 0x40 MLOAD DUP1 DUP4 SUB DUP2 DUP6 DUP8 GAS CALL SWAP3 POP POP POP RETURNDATASIZE DUP1 PUSH1 0x0 DUP2 EQ PUSH2 0x23F7 JUMPI PUSH1 0x40 MLOAD SWAP2 POP PUSH1 0x1F NOT PUSH1 0x3F RETURNDATASIZE ADD AND DUP3 ADD PUSH1 0x40 MSTORE RETURNDATASIZE DUP3 MSTORE RETURNDATASIZE PUSH1 0x0 PUSH1 0x20 DUP5 ADD RETURNDATACOPY PUSH2 0x23FC JUMP JUMPDEST PUSH1 0x60 SWAP2 POP JUMPDEST POP POP SWAP1 POP DUP1 PUSH2 0x243C JUMPI PUSH1 0x40 MLOAD PUSH3 0x461BCD PUSH1 0xE5 SHL DUP2 MSTORE PUSH1 0x4 ADD DUP1 DUP1 PUSH1 0x20 ADD DUP3 DUP2 SUB DUP3 MSTORE PUSH1 0x34 DUP2 MSTORE PUSH1 0x20 ADD DUP1 PUSH2 0x3308 PUSH1 0x34 SWAP2 CODECOPY PUSH1 0x40 ADD SWAP2 POP POP PUSH1 0x40 MLOAD DUP1 SWAP2 SUB SWAP1 REVERT JUMPDEST POP POP POP JUMP JUMPDEST PUSH1 0x0 DUP1 DUP5 GT PUSH2 0x2481 JUMPI PUSH1 0x40 MLOAD PUSH3 0x461BCD PUSH1 0xE5 SHL DUP2 MSTORE PUSH1 0x4 ADD DUP1 DUP1 PUSH1 0x20 ADD DUP3 DUP2 SUB DUP3 MSTORE PUSH1 0x27 DUP2 MSTORE PUSH1 0x20 ADD DUP1 PUSH2 0x3385 PUSH1 0x27 SWAP2 CODECOPY PUSH1 0x40 ADD SWAP2 POP POP PUSH1 0x40 MLOAD DUP1 SWAP2 SUB SWAP1 REVERT JUMPDEST PUSH1 0x0 DUP4 GT DUP1 ISZERO PUSH2 0x2491 JUMPI POP PUSH1 0x0 DUP3 GT JUMPDEST PUSH2 0x24CC JUMPI PUSH1 0x40 MLOAD PUSH3 0x461BCD PUSH1 0xE5 SHL DUP2 MSTORE PUSH1 0x4 ADD DUP1 DUP1 PUSH1 0x20 ADD DUP3 DUP2 SUB DUP3 MSTORE PUSH1 0x24 DUP2 MSTORE PUSH1 0x20 ADD DUP1 PUSH2 0x3410 PUSH1 0x24 SWAP2 CODECOPY PUSH1 0x40 ADD SWAP2 POP POP PUSH1 0x40 MLOAD DUP1 SWAP2 SUB SWAP1 REVERT JUMPDEST PUSH1 0x0 PUSH2 0x24E0 DUP6 PUSH2 0x3E5 PUSH4 0xFFFFFFFF PUSH2 0x3016 AND JUMP JUMPDEST SWAP1 POP PUSH1 0x0 PUSH2 0x24F4 DUP3 DUP6 PUSH4 0xFFFFFFFF PUSH2 0x3016 AND JUMP JUMPDEST SWAP1 POP PUSH1 0x0 PUSH2 0x251A DUP4 PUSH2 0x250E DUP9 PUSH2 0x3E8 PUSH4 0xFFFFFFFF PUSH2 0x3016 AND JUMP JUMPDEST SWAP1 PUSH4 0xFFFFFFFF PUSH2 0x3079 AND JUMP JUMPDEST SWAP1 POP DUP1 DUP3 DUP2 PUSH2 0x2525 JUMPI INVALID JUMPDEST DIV SWAP8 SWAP7 POP POP POP POP POP POP POP JUMP JUMPDEST PUSH1 0x60 PUSH1 0x2 DUP3 MLOAD LT ISZERO PUSH2 0x258A JUMPI PUSH1 0x40 DUP1 MLOAD PUSH3 0x461BCD PUSH1 0xE5 SHL DUP2 MSTORE PUSH1 0x20 PUSH1 0x4 DUP3 ADD MSTORE PUSH1 0x1A PUSH1 0x24 DUP3 ADD MSTORE PUSH32 0x44455856324C6962726172793A20494E56414C49445F50415448000000000000 PUSH1 0x44 DUP3 ADD MSTORE SWAP1 MLOAD SWAP1 DUP2 SWAP1 SUB PUSH1 0x64 ADD SWAP1 REVERT JUMPDEST DUP2 MLOAD PUSH8 0xFFFFFFFFFFFFFFFF DUP2 GT DUP1 ISZERO PUSH2 0x25A2 JUMPI PUSH1 0x0 DUP1 REVERT JUMPDEST POP PUSH1 0x40 MLOAD SWAP1 DUP1 DUP3 MSTORE DUP1 PUSH1 0x20 MUL PUSH1 0x20 ADD DUP3 ADD PUSH1 0x40 MSTORE DUP1 ISZERO PUSH2 0x25CC JUMPI DUP2 PUSH1 0x20 ADD PUSH1 0x20 DUP3 MUL DUP1 CALLDATASIZE DUP4 CALLDATACOPY ADD SWAP1 POP JUMPDEST POP SWAP1 POP DUP3 DUP2 PUSH1 0x0 DUP2 MLOAD DUP2 LT PUSH2 0x25DD JUMPI INVALID JUMPDEST PUSH1 0x20 MUL PUSH1 0x20 ADD ADD DUP2 DUP2 MSTORE POP POP PUSH1 0x0 JUMPDEST PUSH1 0x1 DUP4 MLOAD SUB DUP2 LT ISZERO PUSH2 0x2675 JUMPI PUSH1 0x0 DUP1 PUSH2 0x262F DUP8 DUP7 DUP6 DUP2 MLOAD DUP2 LT PUSH2 0x260B JUMPI INVALID JUMPDEST PUSH1 0x20 MUL PUSH1 0x20 ADD ADD MLOAD DUP8 DUP7 PUSH1 0x1 ADD DUP2 MLOAD DUP2 LT PUSH2 0x2622 JUMPI INVALID JUMPDEST PUSH1 0x20 MUL PUSH1 0x20 ADD ADD MLOAD PUSH2 0x30C8 JUMP JUMPDEST SWAP2 POP SWAP2 POP PUSH2 0x2651 DUP5 DUP5 DUP2 MLOAD DUP2 LT PUSH2 0x2642 JUMPI INVALID JUMPDEST PUSH1 0x20 MUL PUSH1 0x20 ADD ADD MLOAD DUP4 DUP4 PUSH2 0x2441 JUMP JUMPDEST DUP5 DUP5 PUSH1 0x1 ADD DUP2 MLOAD DUP2 LT PUSH2 0x2660 JUMPI INVALID JUMPDEST PUSH1 0x20 SWAP1 DUP2 MUL SWAP2 SWAP1 SWAP2 ADD ADD MSTORE POP POP PUSH1 0x1 ADD PUSH2 0x25EC JUMP JUMPDEST POP SWAP4 SWAP3 POP POP POP JUMP JUMPDEST PUSH1 0x0 DUP1 PUSH1 0x0 PUSH2 0x268C DUP6 DUP6 PUSH2 0x2CC4 JUMP JUMPDEST PUSH1 0x40 DUP1 MLOAD PUSH12 0xFFFFFFFFFFFFFFFFFFFFFFFF NOT PUSH1 0x60 SWAP5 DUP6 SHL DUP2 AND PUSH1 0x20 DUP1 DUP5 ADD SWAP2 SWAP1 SWAP2 MSTORE SWAP4 DUP6 SHL DUP2 AND PUSH1 0x34 DUP4 ADD MSTORE DUP3 MLOAD PUSH1 0x28 DUP2 DUP5 SUB ADD DUP2 MSTORE PUSH1 0x48 DUP4 ADD DUP5 MSTORE DUP1 MLOAD SWAP1 DUP6 ADD KECCAK256 PUSH1 0x1 PUSH1 0x1 PUSH1 0xF8 SHL SUB NOT PUSH1 0x68 DUP5 ADD MSTORE SWAP11 SWAP1 SWAP5 SHL SWAP1 SWAP4 AND PUSH1 0x69 DUP5 ADD MSTORE PUSH1 0x7D DUP4 ADD SWAP9 SWAP1 SWAP9 MSTORE PUSH32 0x96E8AC4277198FF8B6F785478AA9A39F403CB768DD02CBEE326C3E7DA348845F PUSH1 0x9D DUP1 DUP5 ADD SWAP2 SWAP1 SWAP2 MSTORE DUP9 MLOAD DUP1 DUP5 SUB SWAP1 SWAP2 ADD DUP2 MSTORE PUSH1 0xBD SWAP1 SWAP3 ADD SWAP1 SWAP8 MSTORE DUP1 MLOAD SWAP7 ADD SWAP6 SWAP1 SWAP6 KECCAK256 SWAP6 SWAP5 POP POP POP POP POP JUMP JUMPDEST PUSH1 0x40 DUP1 MLOAD PUSH1 0x1 PUSH1 0x1 PUSH1 0xA0 SHL SUB DUP6 DUP2 AND PUSH1 0x24 DUP4 ADD MSTORE DUP5 DUP2 AND PUSH1 0x44 DUP4 ADD MSTORE PUSH1 0x64 DUP1 DUP4 ADD DUP6 SWAP1 MSTORE DUP4 MLOAD DUP1 DUP5 SUB SWAP1 SWAP2 ADD DUP2 MSTORE PUSH1 0x84 SWAP1 SWAP3 ADD DUP4 MSTORE PUSH1 0x20 DUP3 ADD DUP1 MLOAD PUSH1 0x1 PUSH1 0x1 PUSH1 0xE0 SHL SUB AND PUSH4 0x23B872DD PUSH1 0xE0 SHL OR DUP2 MSTORE SWAP3 MLOAD DUP3 MLOAD PUSH1 0x0 SWAP5 PUSH1 0x60 SWAP5 SWAP4 DUP11 AND SWAP4 SWAP3 SWAP2 DUP3 SWAP2 SWAP1 DUP1 DUP4 DUP4 JUMPDEST PUSH1 0x20 DUP4 LT PUSH2 0x27C2 JUMPI DUP1 MLOAD DUP3 MSTORE PUSH1 0x1F NOT SWAP1 SWAP3 ADD SWAP2 PUSH1 0x20 SWAP2 DUP3 ADD SWAP2 ADD PUSH2 0x27A3 JUMP JUMPDEST PUSH1 0x1 DUP4 PUSH1 0x20 SUB PUSH2 0x100 EXP SUB DUP1 NOT DUP3 MLOAD AND DUP2 DUP5 MLOAD AND DUP1 DUP3 OR DUP6 MSTORE POP POP POP POP POP POP SWAP1 POP ADD SWAP2 POP POP PUSH1 0x0 PUSH1 0x40 MLOAD DUP1 DUP4 SUB DUP2 PUSH1 0x0 DUP7 GAS CALL SWAP2 POP POP RETURNDATASIZE DUP1 PUSH1 0x0 DUP2 EQ PUSH2 0x2824 JUMPI PUSH1 0x40 MLOAD SWAP2 POP PUSH1 0x1F NOT PUSH1 0x3F RETURNDATASIZE ADD AND DUP3 ADD PUSH1 0x40 MSTORE RETURNDATASIZE DUP3 MSTORE RETURNDATASIZE PUSH1 0x0 PUSH1 0x20 DUP5 ADD RETURNDATACOPY PUSH2 0x2829 JUMP JUMPDEST PUSH1 0x60 SWAP2 POP JUMPDEST POP SWAP2 POP SWAP2 POP DUP2 DUP1 ISZERO PUSH2 0x2857 JUMPI POP DUP1 MLOAD ISZERO DUP1 PUSH2 0x2857 JUMPI POP DUP1 DUP1 PUSH1 0x20 ADD SWAP1 MLOAD PUSH1 0x20 DUP2 LT ISZERO PUSH2 0x2854 JUMPI PUSH1 0x0 DUP1 REVERT JUMPDEST POP MLOAD JUMPDEST PUSH2 0x2892 JUMPI PUSH1 0x40 MLOAD PUSH3 0x461BCD PUSH1 0xE5 SHL DUP2 MSTORE PUSH1 0x4 ADD DUP1 DUP1 PUSH1 0x20 ADD DUP3 DUP2 SUB DUP3 MSTORE PUSH1 0x31 DUP2 MSTORE PUSH1 0x20 ADD DUP1 PUSH2 0x32D7 PUSH1 0x31 SWAP2 CODECOPY PUSH1 0x40 ADD SWAP2 POP POP PUSH1 0x40 MLOAD DUP1 SWAP2 SUB SWAP1 REVERT JUMPDEST POP POP POP POP POP POP JUMP JUMPDEST PUSH1 0x0 JUMPDEST PUSH1 0x1 DUP4 MLOAD SUB DUP2 LT ISZERO PUSH2 0x2ADA JUMPI PUSH1 0x0 DUP1 DUP5 DUP4 DUP2 MLOAD DUP2 LT PUSH2 0x28B8 JUMPI INVALID JUMPDEST PUSH1 0x20 MUL PUSH1 0x20 ADD ADD MLOAD DUP6 DUP5 PUSH1 0x1 ADD DUP2 MLOAD DUP2 LT PUSH2 0x28CF JUMPI INVALID JUMPDEST PUSH1 0x20 MUL PUSH1 0x20 ADD ADD MLOAD SWAP2 POP SWAP2 POP PUSH1 0x0 PUSH2 0x28E7 DUP4 DUP4 PUSH2 0x2CC4 JUMP JUMPDEST POP SWAP1 POP PUSH1 0x0 DUP8 DUP6 PUSH1 0x1 ADD DUP2 MLOAD DUP2 LT PUSH2 0x28FB JUMPI INVALID JUMPDEST PUSH1 0x20 MUL PUSH1 0x20 ADD ADD MLOAD SWAP1 POP PUSH1 0x0 DUP1 DUP4 PUSH1 0x1 PUSH1 0x1 PUSH1 0xA0 SHL SUB AND DUP7 PUSH1 0x1 PUSH1 0x1 PUSH1 0xA0 SHL SUB AND EQ PUSH2 0x2929 JUMPI DUP3 PUSH1 0x0 PUSH2 0x292D JUMP JUMPDEST PUSH1 0x0 DUP4 JUMPDEST SWAP2 POP SWAP2 POP PUSH1 0x0 PUSH1 0x2 DUP11 MLOAD SUB DUP9 LT PUSH2 0x2944 JUMPI DUP9 PUSH2 0x2985 JUMP JUMPDEST PUSH2 0x2985 PUSH32 0x0 DUP8 DUP13 DUP12 PUSH1 0x2 ADD DUP2 MLOAD DUP2 LT PUSH2 0x2978 JUMPI INVALID JUMPDEST PUSH1 0x20 MUL PUSH1 0x20 ADD ADD MLOAD PUSH2 0x267D JUMP JUMPDEST SWAP1 POP PUSH2 0x29B2 PUSH32 0x0 DUP9 DUP9 PUSH2 0x267D JUMP JUMPDEST PUSH1 0x1 PUSH1 0x1 PUSH1 0xA0 SHL SUB AND PUSH4 0x22C0D9F DUP5 DUP5 DUP5 PUSH1 0x0 PUSH1 0x40 MLOAD SWAP1 DUP1 DUP3 MSTORE DUP1 PUSH1 0x1F ADD PUSH1 0x1F NOT AND PUSH1 0x20 ADD DUP3 ADD PUSH1 0x40 MSTORE DUP1 ISZERO PUSH2 0x29EF JUMPI PUSH1 0x20 DUP3 ADD DUP2 DUP1 CALLDATASIZE DUP4 CALLDATACOPY ADD SWAP1 POP JUMPDEST POP PUSH1 0x40 MLOAD DUP6 PUSH4 0xFFFFFFFF AND PUSH1 0xE0 SHL DUP2 MSTORE PUSH1 0x4 ADD DUP1 DUP6 DUP2 MSTORE PUSH1 0x20 ADD DUP5 DUP2 MSTORE PUSH1 0x20 ADD DUP4 PUSH1 0x1 PUSH1 0x1 PUSH1 0xA0 SHL SUB AND PUSH1 0x1 PUSH1 0x1 PUSH1 0xA0 SHL SUB AND DUP2 MSTORE PUSH1 0x20 ADD DUP1 PUSH1 0x20 ADD DUP3 DUP2 SUB DUP3 MSTORE DUP4 DUP2 DUP2 MLOAD DUP2 MSTORE PUSH1 0x20 ADD SWAP2 POP DUP1 MLOAD SWAP1 PUSH1 0x20 ADD SWAP1 DUP1 DUP4 DUP4 PUSH1 0x0 JUMPDEST DUP4 DUP2 LT ISZERO PUSH2 0x2A60 JUMPI DUP2 DUP2 ADD MLOAD DUP4 DUP3 ADD MSTORE PUSH1 0x20 ADD PUSH2 0x2A48 JUMP JUMPDEST POP POP POP POP SWAP1 POP SWAP1 DUP2 ADD SWAP1 PUSH1 0x1F AND DUP1 ISZERO PUSH2 0x2A8D JUMPI DUP1 DUP3 SUB DUP1 MLOAD PUSH1 0x1 DUP4 PUSH1 0x20 SUB PUSH2 0x100 EXP SUB NOT AND DUP2 MSTORE PUSH1 0x20 ADD SWAP2 POP JUMPDEST POP SWAP6 POP POP POP POP POP POP PUSH1 0x0 PUSH1 0x40 MLOAD DUP1 DUP4 SUB DUP2 PUSH1 0x0 DUP8 DUP1 EXTCODESIZE ISZERO DUP1 ISZERO PUSH2 0x2AAF JUMPI PUSH1 0x0 DUP1 REVERT JUMPDEST POP GAS CALL ISZERO DUP1 ISZERO PUSH2 0x2AC3 JUMPI RETURNDATASIZE PUSH1 0x0 DUP1 RETURNDATACOPY RETURNDATASIZE PUSH1 0x0 REVERT JUMPDEST POP POP PUSH1 0x1 SWAP1 SWAP10 ADD SWAP9 POP PUSH2 0x289D SWAP8 POP POP POP POP POP POP POP POP JUMP JUMPDEST POP POP POP POP JUMP JUMPDEST PUSH1 0x60 PUSH1 0x2 DUP3 MLOAD LT ISZERO PUSH2 0x2B39 JUMPI PUSH1 0x40 DUP1 MLOAD PUSH3 0x461BCD PUSH1 0xE5 SHL DUP2 MSTORE PUSH1 0x20 PUSH1 0x4 DUP3 ADD MSTORE PUSH1 0x1A PUSH1 0x24 DUP3 ADD MSTORE PUSH32 0x44455856324C6962726172793A20494E56414C49445F50415448000000000000 PUSH1 0x44 DUP3 ADD MSTORE SWAP1 MLOAD SWAP1 DUP2 SWAP1 SUB PUSH1 0x64 ADD SWAP1 REVERT JUMPDEST DUP2 MLOAD PUSH8 0xFFFFFFFFFFFFFFFF DUP2 GT DUP1 ISZERO PUSH2 0x2B51 JUMPI PUSH1 0x0 DUP1 REVERT JUMPDEST POP PUSH1 0x40 MLOAD SWAP1 DUP1 DUP3 MSTORE DUP1 PUSH1 0x20 MUL PUSH1 0x20 ADD DUP3 ADD PUSH1 0x40 MSTORE DUP1 ISZERO PUSH2 0x2B7B JUMPI DUP2 PUSH1 0x20 ADD PUSH1 0x20 DUP3 MUL DUP1 CALLDATASIZE DUP4 CALLDATACOPY ADD SWAP1 POP JUMPDEST POP SWAP1 POP DUP3 DUP2 PUSH1 0x1 DUP4 MLOAD SUB DUP2 MLOAD DUP2 LT PUSH2 0x2B8F JUMPI INVALID JUMPDEST PUSH1 0x20 SWAP1 DUP2 MUL SWAP2 SWAP1 SWAP2 ADD ADD MSTORE DUP2 MLOAD PUSH1 0x0 NOT ADD JUMPDEST DUP1 ISZERO PUSH2 0x2675 JUMPI PUSH1 0x0 DUP1 PUSH2 0x2BD1 DUP8 DUP7 PUSH1 0x1 DUP7 SUB DUP2 MLOAD DUP2 LT PUSH2 0x2BBD JUMPI INVALID JUMPDEST PUSH1 0x20 MUL PUSH1 0x20 ADD ADD MLOAD DUP8 DUP7 DUP2 MLOAD DUP2 LT PUSH2 0x2622 JUMPI INVALID JUMPDEST SWAP2 POP SWAP2 POP PUSH2 0x2BF3 DUP5 DUP5 DUP2 MLOAD DUP2 LT PUSH2 0x2BE4 JUMPI INVALID JUMPDEST PUSH1 0x20 MUL PUSH1 0x20 ADD ADD MLOAD DUP4 DUP4 PUSH2 0x3196 JUMP JUMPDEST DUP5 PUSH1 0x1 DUP6 SUB DUP2 MLOAD DUP2 LT PUSH2 0x2C02 JUMPI INVALID JUMPDEST PUSH1 0x20 SWAP1 DUP2 MUL SWAP2 SWAP1 SWAP2 ADD ADD MSTORE POP POP PUSH1 0x0 NOT ADD PUSH2 0x2BA1 JUMP JUMPDEST PUSH1 0x0 DUP1 DUP5 GT PUSH2 0x2C58 JUMPI PUSH1 0x40 MLOAD PUSH3 0x461BCD PUSH1 0xE5 SHL DUP2 MSTORE PUSH1 0x4 ADD DUP1 DUP1 PUSH1 0x20 ADD DUP3 DUP2 SUB DUP3 MSTORE PUSH1 0x21 DUP2 MSTORE PUSH1 0x20 ADD DUP1 PUSH2 0x33EF PUSH1 0x21 SWAP2 CODECOPY PUSH1 0x40 ADD SWAP2 POP POP PUSH1 0x40 MLOAD DUP1 SWAP2 SUB SWAP1 REVERT JUMPDEST PUSH1 0x0 DUP4 GT DUP1 ISZERO PUSH2 0x2C68 JUMPI POP PUSH1 0x0 DUP3 GT JUMPDEST PUSH2 0x2CA3 JUMPI PUSH1 0x40 MLOAD PUSH3 0x461BCD PUSH1 0xE5 SHL DUP2 MSTORE PUSH1 0x4 ADD DUP1 DUP1 PUSH1 0x20 ADD DUP3 DUP2 SUB DUP3 MSTORE PUSH1 0x24 DUP2 MSTORE PUSH1 0x20 ADD DUP1 PUSH2 0x3410 PUSH1 0x24 SWAP2 CODECOPY PUSH1 0x40 ADD SWAP2 POP POP PUSH1 0x40 MLOAD DUP1 SWAP2 SUB SWAP1 REVERT JUMPDEST DUP3 PUSH2 0x2CB4 DUP6 DUP5 PUSH4 0xFFFFFFFF PUSH2 0x3016 AND JUMP JUMPDEST DUP2 PUSH2 0x2CBB JUMPI INVALID JUMPDEST DIV SWAP5 SWAP4 POP POP POP POP JUMP JUMPDEST PUSH1 0x0 DUP1 DUP3 PUSH1 0x1 PUSH1 0x1 PUSH1 0xA0 SHL SUB AND DUP5 PUSH1 0x1 PUSH1 0x1 PUSH1 0xA0 SHL SUB AND EQ ISZERO PUSH2 0x2D18 JUMPI PUSH1 0x40 MLOAD PUSH3 0x461BCD PUSH1 0xE5 SHL DUP2 MSTORE PUSH1 0x4 ADD DUP1 DUP1 PUSH1 0x20 ADD DUP3 DUP2 SUB DUP3 MSTORE PUSH1 0x21 DUP2 MSTORE PUSH1 0x20 ADD DUP1 PUSH2 0x33AC PUSH1 0x21 SWAP2 CODECOPY PUSH1 0x40 ADD SWAP2 POP POP PUSH1 0x40 MLOAD DUP1 SWAP2 SUB SWAP1 REVERT JUMPDEST DUP3 PUSH1 0x1 PUSH1 0x1 PUSH1 0xA0 SHL SUB AND DUP5 PUSH1 0x1 PUSH1 0x1 PUSH1 0xA0 SHL SUB AND LT PUSH2 0x2D38 JUMPI DUP3 DUP5 PUSH2 0x2D3B JUMP JUMPDEST DUP4 DUP4 JUMPDEST SWAP1 SWAP3 POP SWAP1 POP PUSH1 0x1 PUSH1 0x1 PUSH1 0xA0 SHL SUB DUP3 AND PUSH2 0x2D9B JUMPI PUSH1 0x40 DUP1 MLOAD PUSH3 0x461BCD PUSH1 0xE5 SHL DUP2 MSTORE PUSH1 0x20 PUSH1 0x4 DUP3 ADD MSTORE PUSH1 0x1A PUSH1 0x24 DUP3 ADD MSTORE PUSH32 0x44455856324C6962726172793A205A45524F5F41444452455353000000000000 PUSH1 0x44 DUP3 ADD MSTORE SWAP1 MLOAD SWAP1 DUP2 SWAP1 SUB PUSH1 0x64 ADD SWAP1 REVERT JUMPDEST SWAP3 POP SWAP3 SWAP1 POP JUMP JUMPDEST PUSH1 0x40 DUP1 MLOAD PUSH4 0xE6A43905 PUSH1 0xE0 SHL DUP2 MSTORE PUSH1 0x1 PUSH1 0x1 PUSH1 0xA0 SHL SUB DUP9 DUP2 AND PUSH1 0x4 DUP4 ADD MSTORE DUP8 DUP2 AND PUSH1 0x24 DUP4 ADD MSTORE SWAP2 MLOAD PUSH1 0x0 SWAP3 DUP4 SWAP3 DUP4 SWAP3 PUSH32 0x0 SWAP1 SWAP3 AND SWAP2 PUSH4 0xE6A43905 SWAP2 PUSH1 0x44 DUP1 DUP3 ADD SWAP3 PUSH1 0x20 SWAP3 SWAP1 SWAP2 SWAP1 DUP3 SWAP1 SUB ADD DUP2 DUP7 DUP1 EXTCODESIZE ISZERO DUP1 ISZERO PUSH2 0x2E1C JUMPI PUSH1 0x0 DUP1 REVERT JUMPDEST POP GAS STATICCALL ISZERO DUP1 ISZERO PUSH2 0x2E30 JUMPI RETURNDATASIZE PUSH1 0x0 DUP1 RETURNDATACOPY RETURNDATASIZE PUSH1 0x0 REVERT JUMPDEST POP POP POP POP PUSH1 0x40 MLOAD RETURNDATASIZE PUSH1 0x20 DUP2 LT ISZERO PUSH2 0x2E46 JUMPI PUSH1 0x0 DUP1 REVERT JUMPDEST POP MLOAD PUSH1 0x1 PUSH1 0x1 PUSH1 0xA0 SHL SUB AND EQ ISZERO PUSH2 0x2EF9 JUMPI PUSH1 0x40 DUP1 MLOAD PUSH4 0x64E329CB PUSH1 0xE1 SHL DUP2 MSTORE PUSH1 0x1 PUSH1 0x1 PUSH1 0xA0 SHL SUB DUP11 DUP2 AND PUSH1 0x4 DUP4 ADD MSTORE DUP10 DUP2 AND PUSH1 0x24 DUP4 ADD MSTORE SWAP2 MLOAD PUSH32 0x0 SWAP1 SWAP3 AND SWAP2 PUSH4 0xC9C65396 SWAP2 PUSH1 0x44 DUP1 DUP3 ADD SWAP3 PUSH1 0x20 SWAP3 SWAP1 SWAP2 SWAP1 DUP3 SWAP1 SUB ADD DUP2 PUSH1 0x0 DUP8 DUP1 EXTCODESIZE ISZERO DUP1 ISZERO PUSH2 0x2ECC JUMPI PUSH1 0x0 DUP1 REVERT JUMPDEST POP GAS CALL ISZERO DUP1 ISZERO PUSH2 0x2EE0 JUMPI RETURNDATASIZE PUSH1 0x0 DUP1 RETURNDATACOPY RETURNDATASIZE PUSH1 0x0 REVERT JUMPDEST POP POP POP POP PUSH1 0x40 MLOAD RETURNDATASIZE PUSH1 0x20 DUP2 LT ISZERO PUSH2 0x2EF6 JUMPI PUSH1 0x0 DUP1 REVERT JUMPDEST POP POP JUMPDEST PUSH1 0x0 DUP1 PUSH2 0x2F27 PUSH32 0x0 DUP12 DUP12 PUSH2 0x30C8 JUMP JUMPDEST SWAP2 POP SWAP2 POP DUP2 PUSH1 0x0 EQ DUP1 ISZERO PUSH2 0x2F39 JUMPI POP DUP1 ISZERO JUMPDEST ISZERO PUSH2 0x2F49 JUMPI DUP8 SWAP4 POP DUP7 SWAP3 POP PUSH2 0x3009 JUMP JUMPDEST PUSH1 0x0 PUSH2 0x2F56 DUP10 DUP5 DUP5 PUSH2 0x2C18 JUMP JUMPDEST SWAP1 POP DUP8 DUP2 GT PUSH2 0x2FA9 JUMPI DUP6 DUP2 LT ISZERO PUSH2 0x2F9E JUMPI PUSH1 0x40 MLOAD PUSH3 0x461BCD PUSH1 0xE5 SHL DUP2 MSTORE PUSH1 0x4 ADD DUP1 DUP1 PUSH1 0x20 ADD DUP3 DUP2 SUB DUP3 MSTORE PUSH1 0x22 DUP2 MSTORE PUSH1 0x20 ADD DUP1 PUSH2 0x33CD PUSH1 0x22 SWAP2 CODECOPY PUSH1 0x40 ADD SWAP2 POP POP PUSH1 0x40 MLOAD DUP1 SWAP2 SUB SWAP1 REVERT JUMPDEST DUP9 SWAP5 POP SWAP3 POP DUP3 PUSH2 0x3007 JUMP JUMPDEST PUSH1 0x0 PUSH2 0x2FB6 DUP10 DUP5 DUP7 PUSH2 0x2C18 JUMP JUMPDEST SWAP1 POP DUP10 DUP2 GT ISZERO PUSH2 0x2FC2 JUMPI INVALID JUMPDEST DUP8 DUP2 LT ISZERO PUSH2 0x3001 JUMPI PUSH1 0x40 MLOAD PUSH3 0x461BCD PUSH1 0xE5 SHL DUP2 MSTORE PUSH1 0x4 ADD DUP1 DUP1 PUSH1 0x20 ADD DUP3 DUP2 SUB DUP3 MSTORE PUSH1 0x22 DUP2 MSTORE PUSH1 0x20 ADD DUP1 PUSH2 0x3363 PUSH1 0x22 SWAP2 CODECOPY PUSH1 0x40 ADD SWAP2 POP POP PUSH1 0x40 MLOAD DUP1 SWAP2 SUB SWAP1 REVERT JUMPDEST SWAP5 POP DUP8 SWAP4 POP JUMPDEST POP JUMPDEST POP POP SWAP7 POP SWAP7 SWAP5 POP POP POP POP POP JUMP JUMPDEST PUSH1 0x0 DUP2 ISZERO DUP1 PUSH2 0x3031 JUMPI POP POP DUP1 DUP3 MUL DUP3 DUP3 DUP3 DUP2 PUSH2 0x302E JUMPI INVALID JUMPDEST DIV EQ JUMPDEST PUSH2 0xE4E JUMPI PUSH1 0x40 DUP1 MLOAD PUSH3 0x461BCD PUSH1 0xE5 SHL DUP2 MSTORE PUSH1 0x20 PUSH1 0x4 DUP3 ADD MSTORE PUSH1 0x14 PUSH1 0x24 DUP3 ADD MSTORE PUSH20 0x64732D6D6174682D6D756C2D6F766572666C6F77 PUSH1 0x60 SHL PUSH1 0x44 DUP3 ADD MSTORE SWAP1 MLOAD SWAP1 DUP2 SWAP1 SUB PUSH1 0x64 ADD SWAP1 REVERT JUMPDEST DUP1 DUP3 ADD DUP3 DUP2 LT ISZERO PUSH2 0xE4E JUMPI PUSH1 0x40 DUP1 MLOAD PUSH3 0x461BCD PUSH1 0xE5 SHL DUP2 MSTORE PUSH1 0x20 PUSH1 0x4 DUP3 ADD MSTORE PUSH1 0x14 PUSH1 0x24 DUP3 ADD MSTORE PUSH20 0x64732D6D6174682D6164642D6F766572666C6F77 PUSH1 0x60 SHL PUSH1 0x44 DUP3 ADD MSTORE SWAP1 MLOAD SWAP1 DUP2 SWAP1 SUB PUSH1 0x64 ADD SWAP1 REVERT JUMPDEST PUSH1 0x0 DUP1 PUSH1 0x0 PUSH2 0x30D7 DUP6 DUP6 PUSH2 0x2CC4 JUMP JUMPDEST POP SWAP1 POP PUSH1 0x0 DUP1 PUSH2 0x30E8 DUP9 DUP9 DUP9 PUSH2 0x267D JUMP JUMPDEST PUSH1 0x1 PUSH1 0x1 PUSH1 0xA0 SHL SUB AND PUSH4 0x902F1AC PUSH1 0x40 MLOAD DUP2 PUSH4 0xFFFFFFFF AND PUSH1 0xE0 SHL DUP2 MSTORE PUSH1 0x4 ADD PUSH1 0x60 PUSH1 0x40 MLOAD DUP1 DUP4 SUB DUP2 DUP7 DUP1 EXTCODESIZE ISZERO DUP1 ISZERO PUSH2 0x3120 JUMPI PUSH1 0x0 DUP1 REVERT JUMPDEST POP GAS STATICCALL ISZERO DUP1 ISZERO PUSH2 0x3134 JUMPI RETURNDATASIZE PUSH1 0x0 DUP1 RETURNDATACOPY RETURNDATASIZE PUSH1 0x0 REVERT JUMPDEST POP POP POP POP PUSH1 0x40 MLOAD RETURNDATASIZE PUSH1 0x60 DUP2 LT ISZERO PUSH2 0x314A JUMPI PUSH1 0x0 DUP1 REVERT JUMPDEST POP DUP1 MLOAD PUSH1 0x20 SWAP1 SWAP2 ADD MLOAD PUSH14 0xFFFFFFFFFFFFFFFFFFFFFFFFFFFF SWAP2 DUP3 AND SWAP4 POP AND SWAP1 POP PUSH1 0x1 PUSH1 0x1 PUSH1 0xA0 SHL SUB DUP8 DUP2 AND SWAP1 DUP5 AND EQ PUSH2 0x3184 JUMPI DUP1 DUP3 PUSH2 0x3187 JUMP JUMPDEST DUP2 DUP2 JUMPDEST SWAP1 SWAP10 SWAP1 SWAP9 POP SWAP7 POP POP POP POP POP POP POP JUMP JUMPDEST PUSH1 0x0 DUP1 DUP5 GT PUSH2 0x31D6 JUMPI PUSH1 0x40 MLOAD PUSH3 0x461BCD PUSH1 0xE5 SHL DUP2 MSTORE PUSH1 0x4 ADD DUP1 DUP1 PUSH1 0x20 ADD DUP3 DUP2 SUB DUP3 MSTORE PUSH1 0x28 DUP2 MSTORE PUSH1 0x20 ADD DUP1 PUSH2 0x3461 PUSH1 0x28 SWAP2 CODECOPY PUSH1 0x40 ADD SWAP2 POP POP PUSH1 0x40 MLOAD DUP1 SWAP2 SUB SWAP1 REVERT JUMPDEST PUSH1 0x0 DUP4 GT DUP1 ISZERO PUSH2 0x31E6 JUMPI POP PUSH1 0x0 DUP3 GT JUMPDEST PUSH2 0x3221 JUMPI PUSH1 0x40 MLOAD PUSH3 0x461BCD PUSH1 0xE5 SHL DUP2 MSTORE PUSH1 0x4 ADD DUP1 DUP1 PUSH1 0x20 ADD DUP3 DUP2 SUB DUP3 MSTORE PUSH1 0x24 DUP2 MSTORE PUSH1 0x20 ADD DUP1 PUSH2 0x3410 PUSH1 0x24 SWAP2 CODECOPY PUSH1 0x40 ADD SWAP2 POP POP PUSH1 0x40 MLOAD DUP1 SWAP2 SUB SWAP1 REVERT JUMPDEST PUSH1 0x0 PUSH2 0x3245 PUSH2 0x3E8 PUSH2 0x3239 DUP7 DUP9 PUSH4 0xFFFFFFFF PUSH2 0x3016 AND JUMP JUMPDEST SWAP1 PUSH4 0xFFFFFFFF PUSH2 0x3016 AND JUMP JUMPDEST SWAP1 POP PUSH1 0x0 PUSH2 0x325F PUSH2 0x3E5 PUSH2 0x3239 DUP7 DUP10 PUSH4 0xFFFFFFFF PUSH2 0x3286 AND JUMP JUMPDEST SWAP1 POP PUSH2 0x327C PUSH1 0x1 DUP3 DUP5 DUP2 PUSH2 0x326F JUMPI INVALID JUMPDEST DIV SWAP1 PUSH4 0xFFFFFFFF PUSH2 0x3079 AND JUMP JUMPDEST SWAP7 SWAP6 POP POP POP POP POP POP JUMP JUMPDEST DUP1 DUP3 SUB DUP3 DUP2 GT ISZERO PUSH2 0xE4E JUMPI PUSH1 0x40 DUP1 MLOAD PUSH3 0x461BCD PUSH1 0xE5 SHL DUP2 MSTORE PUSH1 0x20 PUSH1 0x4 DUP3 ADD MSTORE PUSH1 0x15 PUSH1 0x24 DUP3 ADD MSTORE PUSH21 0x64732D6D6174682D7375622D756E646572666C6F77 PUSH1 0x58 SHL PUSH1 0x44 DUP3 ADD MSTORE SWAP1 MLOAD SWAP1 DUP2 SWAP1 SUB PUSH1 0x64 ADD SWAP1 REVERT INVALID SLOAD PUSH19 0x616E7366657248656C7065723A3A7472616E73 PUSH7 0x657246726F6D3A KECCAK256 PUSH21 0x72616E7366657246726F6D206661696C6564547261 PUSH15 0x7366657248656C7065723A3A736166 PUSH6 0x5472616E7366 PUSH6 0x724554483A20 GASLIMIT SLOAD 0x48 KECCAK256 PUSH21 0x72616E73666572206661696C65644445585632526F PUSH22 0x7465723A20494E53554646494349454E545F4F555450 SSTORE SLOAD 0x5F COINBASE 0x4D 0x4F SSTORE 0x4E SLOAD DIFFICULTY GASLIMIT PC JUMP ORIGIN MSTORE PUSH16 0x757465723A20494E5355464649434945 0x4E SLOAD 0x5F COINBASE 0x5F COINBASE 0x4D 0x4F SSTORE 0x4E SLOAD DIFFICULTY GASLIMIT PC JUMP ORIGIN 0x4C PUSH10 0x62726172793A20494E53 SSTORE CHAINID CHAINID 0x49 NUMBER 0x49 GASLIMIT 0x4E SLOAD 0x5F 0x49 0x4E POP SSTORE SLOAD 0x5F COINBASE 0x4D 0x4F SSTORE 0x4E SLOAD DIFFICULTY GASLIMIT PC JUMP ORIGIN 0x4C PUSH10 0x62726172793A20494445 0x4E SLOAD 0x49 NUMBER COINBASE 0x4C 0x5F COINBASE DIFFICULTY DIFFICULTY MSTORE GASLIMIT MSTORE8 MSTORE8 GASLIMIT MSTORE8 DIFFICULTY GASLIMIT PC JUMP ORIGIN MSTORE PUSH16 0x757465723A20494E5355464649434945 0x4E SLOAD 0x5F TIMESTAMP 0x5F COINBASE 0x4D 0x4F SSTORE 0x4E SLOAD DIFFICULTY GASLIMIT PC JUMP ORIGIN 0x4C PUSH10 0x62726172793A20494E53 SSTORE CHAINID CHAINID 0x49 NUMBER 0x49 GASLIMIT 0x4E SLOAD 0x5F COINBASE 0x4D 0x4F SSTORE 0x4E SLOAD DIFFICULTY GASLIMIT PC JUMP ORIGIN 0x4C PUSH10 0x62726172793A20494E53 SSTORE CHAINID CHAINID 0x49 NUMBER 0x49 GASLIMIT 0x4E SLOAD 0x5F 0x4C 0x49 MLOAD SSTORE 0x49 DIFFICULTY 0x49 SLOAD MSIZE SLOAD PUSH19 0x616E7366657248656C7065723A3A7361666554 PUSH19 0x616E736665723A207472616E73666572206661 PUSH10 0x6C656444455856324C69 PUSH3 0x726172 PUSH26 0x3A20494E53554646494349454E545F4F55545055545F414D4F55 0x4E SLOAD DIFFICULTY GASLIMIT PC JUMP ORIGIN MSTORE PUSH16 0x757465723A2045585049524544000000 STOP STOP STOP STOP STOP STOP STOP STOP STOP DIFFICULTY GASLIMIT PC JUMP ORIGIN MSTORE PUSH16 0x757465723A204558434553534956455F 0x49 0x4E POP SSTORE SLOAD 0x5F COINBASE 0x4D 0x4F SSTORE 0x4E SLOAD LOG2 PUSH5 0x6970667358 0x22 SLT KECCAK256 GT PUSH6 0x49B587CA5670 PUSH27 0x69A13F345C4BE80322B09FD8693CB4ECB6F01BFA08B8C964736F6C PUSH4 0x43000606 STOP CALLER "
				},
				"gasEstimates": {
					"creation": {
						"codeDepositCost": "2713800",
						"executionCost": "infinite",
						"totalCost": "infinite"
					},
					"external": {
						"WETH()": "infinite",
						"addLiquidity(address,address,uint256,uint256,uint256,uint256,address,uint256)": "infinite",
						"addLiquidityETH(address,uint256,uint256,uint256,address,uint256)": "infinite",
						"factory()": "infinite",
						"getAmountIn(uint256,uint256,uint256)": "infinite",
						"getAmountOut(uint256,uint256,uint256)": "infinite",
						"getAmountsIn(uint256,address[])": "infinite",
						"getAmountsOut(uint256,address[])": "infinite",
						"quote(uint256,uint256,uint256)": "infinite",
						"removeLiquidity(address,address,uint256,uint256,uint256,address,uint256)": "infinite",
						"removeLiquidityETH(address,uint256,uint256,uint256,address,uint256)": "infinite",
						"removeLiquidityETHWithPermit(address,uint256,uint256,uint256,address,uint256,bool,uint8,bytes32,bytes32)": "infinite",
						"removeLiquidityWithPermit(address,address,uint256,uint256,uint256,address,uint256,bool,uint8,bytes32,bytes32)": "infinite",
						"swapETHForExactTokens(uint256,address[],address,uint256)": "infinite",
						"swapExactETHForTokens(uint256,address[],address,uint256)": "infinite",
						"swapExactTokensForETH(uint256,uint256,address[],address,uint256)": "infinite",
						"swapExactTokensForTokens(uint256,uint256,address[],address,uint256)": "infinite",
						"swapTokensForExactETH(uint256,uint256,address[],address,uint256)": "infinite",
						"swapTokensForExactTokens(uint256,uint256,address[],address,uint256)": "infinite"
					},
					"internal": {
						"_addLiquidity(address,address,uint256,uint256,uint256,uint256)": "infinite",
						"_swap(uint256[] memory,address[] memory,address)": "infinite"
					}
				},
				"methodIdentifiers": {
					"WETH()": "ad5c4648",
					"addLiquidity(address,address,uint256,uint256,uint256,uint256,address,uint256)": "e8e33700",
					"addLiquidityETH(address,uint256,uint256,uint256,address,uint256)": "f305d719",
					"factory()": "c45a0155",
					"getAmountIn(uint256,uint256,uint256)": "85f8c259",
					"getAmountOut(uint256,uint256,uint256)": "054d50d4",
					"getAmountsIn(uint256,address[])": "1f00ca74",
					"getAmountsOut(uint256,address[])": "d06ca61f",
					"quote(uint256,uint256,uint256)": "ad615dec",
					"removeLiquidity(address,address,uint256,uint256,uint256,address,uint256)": "baa2abde",
					"removeLiquidityETH(address,uint256,uint256,uint256,address,uint256)": "02751cec",
					"removeLiquidityETHWithPermit(address,uint256,uint256,uint256,address,uint256,bool,uint8,bytes32,bytes32)": "ded9382a",
					"removeLiquidityWithPermit(address,address,uint256,uint256,uint256,address,uint256,bool,uint8,bytes32,bytes32)": "2195995c",
					"swapETHForExactTokens(uint256,address[],address,uint256)": "fb3bdb41",
					"swapExactETHForTokens(uint256,address[],address,uint256)": "7ff36ab5",
					"swapExactTokensForETH(uint256,uint256,address[],address,uint256)": "18cbafe5",
					"swapExactTokensForTokens(uint256,uint256,address[],address,uint256)": "38ed1739",
					"swapTokensForExactETH(uint256,uint256,address[],address,uint256)": "4a25d94a",
					"swapTokensForExactTokens(uint256,uint256,address[],address,uint256)": "8803dbee"
				}
			},
			"storageLayout": {
				"storage": [],
				"types": null
			},
			"userdoc": {
				"methods": {}
			}
		}
	}
}