{
	"v2-periphery-master/v2-periphery-master/contracts/DEXV2Migrator.sol": {
		"DEXV2Migrator": {
			"abi": [
				{
					"inputs": [
						{
							"internalType": "address",
							"name": "_factoryV1",
							"type": "address"
						},
						{
							"internalType": "address",
							"name": "_router",
							"type": "address"
						}
					],
					"stateMutability": "nonpayable",
					"type": "constructor"
				},
				{
					"inputs": [
						{
							"internalType": "address",
							"name": "token",
							"type": "address"
						},
						{
							"internalType": "uint256",
							"name": "amountTokenMin",
							"type": "uint256"
						},
						{
							"internalType": "uint256",
							"name": "amountETHMin",
							"type": "uint256"
						},
						{
							"internalType": "address",
							"name": "to",
							"type": "address"
						},
						{
							"internalType": "uint256",
							"name": "deadline",
							"type": "uint256"
						}
					],
					"name": "migrate",
					"outputs": [],
					"stateMutability": "nonpayable",
					"type": "function"
				},
				{
					"stateMutability": "payable",
					"type": "receive"
				}
			],
			"devdoc": {
				"methods": {}
			},
			"evm": {
				"assembly": "    /* \"v2-periphery-master/v2-periphery-master/contracts/DEXV2Migrator.sol\":275:2143  contract DEXV2Migrator is IDEXV2Migrator {... */\n  mstore(0x40, 0xc0)\n    /* \"v2-periphery-master/v2-periphery-master/contracts/DEXV2Migrator.sol\":399:551  constructor(address _factoryV1, address _router) public {... */\n  callvalue\n    /* \"--CODEGEN--\":5:14   */\n  dup1\n    /* \"--CODEGEN--\":2:4   */\n  iszero\n  tag_1\n  jumpi\n    /* \"--CODEGEN--\":27:28   */\n  0x00\n    /* \"--CODEGEN--\":24:25   */\n  dup1\n    /* \"--CODEGEN--\":17:29   */\n  revert\n    /* \"--CODEGEN--\":2:4   */\ntag_1:\n    /* \"v2-periphery-master/v2-periphery-master/contracts/DEXV2Migrator.sol\":399:551  constructor(address _factoryV1, address _router) public {... */\n  pop\n  mload(0x40)\n  sub(codesize, bytecodeSize)\n  dup1\n  bytecodeSize\n  dup4\n  codecopy\n  dup2\n  dup2\n  add\n  0x40\n  mstore\n    /* \"--CODEGEN--\":15:17   */\n  0x40\n    /* \"--CODEGEN--\":10:13   */\n  dup2\n    /* \"--CODEGEN--\":7:18   */\n  lt\n    /* \"--CODEGEN--\":4:6   */\n  iszero\n  tag_2\n  jumpi\n    /* \"--CODEGEN--\":31:32   */\n  0x00\n    /* \"--CODEGEN--\":28:29   */\n  dup1\n    /* \"--CODEGEN--\":21:33   */\n  revert\n    /* \"--CODEGEN--\":4:6   */\ntag_2:\n  pop\n    /* \"v2-periphery-master/v2-periphery-master/contracts/DEXV2Migrator.sol\":399:551  constructor(address _factoryV1, address _router) public {... */\n  dup1\n  mload\n  0x20\n  swap1\n  swap2\n  add\n  mload\n  not(sub(shl(0x60, 0x01), 0x01))\n    /* \"v2-periphery-master/v2-periphery-master/contracts/DEXV2Migrator.sol\":465:502  factoryV1 = IDEXV1Factory(_factoryV1) */\n  0x60\n  swap3\n  dup4\n  shl\n  dup2\n  and\n  0x80\n  mstore\n    /* \"v2-periphery-master/v2-periphery-master/contracts/DEXV2Migrator.sol\":512:544  router = IDEXV2Router01(_router) */\n  swap2\n  shl\n  and\n  0xa0\n  mstore\n    /* \"v2-periphery-master/v2-periphery-master/contracts/DEXV2Migrator.sol\":275:2143  contract DEXV2Migrator is IDEXV2Migrator {... */\n  shr(0x60, mload(0x80))\n  shr(0x60, mload(0xa0))\n  codecopy(0x00, dataOffset(sub_0), dataSize(sub_0))\n  assignImmutable(\"0x789bcdf275fa270780a52ae3b79bb1ce0fda7e0aaad87b57b74bb99ac290714a\")\n  assignImmutable(\"0x7880aec93413f117ef14bd4e6d130875ab2c7d7d55a064fac3c2f7bd51516380\")\n  return(0x00, dataSize(sub_0))\nstop\n\nsub_0: assembly {\n        /* \"v2-periphery-master/v2-periphery-master/contracts/DEXV2Migrator.sol\":275:2143  contract DEXV2Migrator is IDEXV2Migrator {... */\n      mstore(0x40, 0x80)\n      jumpi(tag_1, lt(calldatasize, 0x04))\n      shr(0xe0, calldataload(0x00))\n      dup1\n      0xb7df1d25\n      eq\n      tag_3\n      jumpi\n      jump(tag_2)\n    tag_1:\n      jumpi(tag_2, calldatasize)\n      stop\n    tag_2:\n        /* \"--CODEGEN--\":12:13   */\n      0x00\n        /* \"--CODEGEN--\":9:10   */\n      dup1\n        /* \"--CODEGEN--\":2:14   */\n      revert\n        /* \"v2-periphery-master/v2-periphery-master/contracts/DEXV2Migrator.sol\":806:2141  function migrate(address token, uint amountTokenMin, uint amountETHMin, address to, uint deadline)... */\n    tag_3:\n      callvalue\n        /* \"--CODEGEN--\":5:14   */\n      dup1\n        /* \"--CODEGEN--\":2:4   */\n      iszero\n      tag_6\n      jumpi\n        /* \"--CODEGEN--\":27:28   */\n      0x00\n        /* \"--CODEGEN--\":24:25   */\n      dup1\n        /* \"--CODEGEN--\":17:29   */\n      revert\n        /* \"--CODEGEN--\":2:4   */\n    tag_6:\n        /* \"v2-periphery-master/v2-periphery-master/contracts/DEXV2Migrator.sol\":806:2141  function migrate(address token, uint amountTokenMin, uint amountETHMin, address to, uint deadline)... */\n      pop\n      tag_7\n      0x04\n      dup1\n      calldatasize\n      sub\n        /* \"--CODEGEN--\":15:18   */\n      0xa0\n        /* \"--CODEGEN--\":10:13   */\n      dup2\n        /* \"--CODEGEN--\":7:19   */\n      lt\n        /* \"--CODEGEN--\":4:6   */\n      iszero\n      tag_8\n      jumpi\n        /* \"--CODEGEN--\":32:33   */\n      0x00\n        /* \"--CODEGEN--\":29:30   */\n      dup1\n        /* \"--CODEGEN--\":22:34   */\n      revert\n        /* \"--CODEGEN--\":4:6   */\n    tag_8:\n      pop\n      sub(shl(0xa0, 0x01), 0x01)\n        /* \"v2-periphery-master/v2-periphery-master/contracts/DEXV2Migrator.sol\":806:2141  function migrate(address token, uint amountTokenMin, uint amountETHMin, address to, uint deadline)... */\n      dup2\n      calldataload\n      dup2\n      and\n      swap2\n      0x20\n      dup2\n      add\n      calldataload\n      swap2\n      0x40\n      dup3\n      add\n      calldataload\n      swap2\n      0x60\n      dup2\n      add\n      calldataload\n      swap1\n      swap2\n      and\n      swap1\n      0x80\n      add\n      calldataload\n      tag_9\n      jump\t// in\n    tag_7:\n      stop\n    tag_9:\n        /* \"v2-periphery-master/v2-periphery-master/contracts/DEXV2Migrator.sol\":953:978  IDEXV1Exchange exchangeV1 */\n      0x00\n        /* \"v2-periphery-master/v2-periphery-master/contracts/DEXV2Migrator.sol\":996:1005  factoryV1 */\n      immutable(\"0x7880aec93413f117ef14bd4e6d130875ab2c7d7d55a064fac3c2f7bd51516380\")\n      sub(shl(0xa0, 0x01), 0x01)\n        /* \"v2-periphery-master/v2-periphery-master/contracts/DEXV2Migrator.sol\":996:1017  factoryV1.getExchange */\n      and\n      0x06f2bf62\n        /* \"v2-periphery-master/v2-periphery-master/contracts/DEXV2Migrator.sol\":1018:1023  token */\n      dup8\n        /* \"v2-periphery-master/v2-periphery-master/contracts/DEXV2Migrator.sol\":996:1024  factoryV1.getExchange(token) */\n      mload(0x40)\n      dup3\n      0xffffffff\n      and\n      0xe0\n      shl\n      dup2\n      mstore\n      0x04\n      add\n      dup1\n      dup3\n      sub(shl(0xa0, 0x01), 0x01)\n      and\n      sub(shl(0xa0, 0x01), 0x01)\n      and\n      dup2\n      mstore\n      0x20\n      add\n      swap2\n      pop\n      pop\n      0x20\n      mload(0x40)\n      dup1\n      dup4\n      sub\n      dup2\n      dup7\n      dup1\n      extcodesize\n      iszero\n        /* \"--CODEGEN--\":5:14   */\n      dup1\n        /* \"--CODEGEN--\":2:4   */\n      iszero\n      tag_11\n      jumpi\n        /* \"--CODEGEN--\":27:28   */\n      0x00\n        /* \"--CODEGEN--\":24:25   */\n      dup1\n        /* \"--CODEGEN--\":17:29   */\n      revert\n        /* \"--CODEGEN--\":2:4   */\n    tag_11:\n        /* \"v2-periphery-master/v2-periphery-master/contracts/DEXV2Migrator.sol\":996:1024  factoryV1.getExchange(token) */\n      pop\n      gas\n      staticcall\n      iszero\n        /* \"--CODEGEN--\":8:17   */\n      dup1\n        /* \"--CODEGEN--\":5:7   */\n      iszero\n      tag_13\n      jumpi\n        /* \"--CODEGEN--\":45:61   */\n      returndatasize\n        /* \"--CODEGEN--\":42:43   */\n      0x00\n        /* \"--CODEGEN--\":39:40   */\n      dup1\n        /* \"--CODEGEN--\":24:62   */\n      returndatacopy\n        /* \"--CODEGEN--\":77:93   */\n      returndatasize\n        /* \"--CODEGEN--\":74:75   */\n      0x00\n        /* \"--CODEGEN--\":67:94   */\n      revert\n        /* \"--CODEGEN--\":5:7   */\n    tag_13:\n        /* \"v2-periphery-master/v2-periphery-master/contracts/DEXV2Migrator.sol\":996:1024  factoryV1.getExchange(token) */\n      pop\n      pop\n      pop\n      pop\n      mload(0x40)\n      returndatasize\n        /* \"--CODEGEN--\":15:17   */\n      0x20\n        /* \"--CODEGEN--\":10:13   */\n      dup2\n        /* \"--CODEGEN--\":7:18   */\n      lt\n        /* \"--CODEGEN--\":4:6   */\n      iszero\n      tag_14\n      jumpi\n        /* \"--CODEGEN--\":31:32   */\n      0x00\n        /* \"--CODEGEN--\":28:29   */\n      dup1\n        /* \"--CODEGEN--\":21:33   */\n      revert\n        /* \"--CODEGEN--\":4:6   */\n    tag_14:\n      pop\n        /* \"v2-periphery-master/v2-periphery-master/contracts/DEXV2Migrator.sol\":996:1024  factoryV1.getExchange(token) */\n      mload\n        /* \"v2-periphery-master/v2-periphery-master/contracts/DEXV2Migrator.sol\":1054:1086  exchangeV1.balanceOf(msg.sender) */\n      0x40\n      dup1\n      mload\n      shl(0xe0, 0x70a08231)\n      dup2\n      mstore\n        /* \"v2-periphery-master/v2-periphery-master/contracts/DEXV2Migrator.sol\":1075:1085  msg.sender */\n      caller\n        /* \"v2-periphery-master/v2-periphery-master/contracts/DEXV2Migrator.sol\":1054:1086  exchangeV1.balanceOf(msg.sender) */\n      0x04\n      dup3\n      add\n      mstore\n      swap1\n      mload\n        /* \"v2-periphery-master/v2-periphery-master/contracts/DEXV2Migrator.sol\":996:1024  factoryV1.getExchange(token) */\n      swap2\n      swap3\n      pop\n        /* \"v2-periphery-master/v2-periphery-master/contracts/DEXV2Migrator.sol\":1035:1051  uint liquidityV1 */\n      0x00\n      swap2\n      sub(shl(0xa0, 0x01), 0x01)\n        /* \"v2-periphery-master/v2-periphery-master/contracts/DEXV2Migrator.sol\":1054:1074  exchangeV1.balanceOf */\n      dup5\n      and\n      swap2\n      0x70a08231\n      swap2\n        /* \"v2-periphery-master/v2-periphery-master/contracts/DEXV2Migrator.sol\":1054:1086  exchangeV1.balanceOf(msg.sender) */\n      0x24\n      dup1\n      dup4\n      add\n      swap3\n        /* \"v2-periphery-master/v2-periphery-master/contracts/DEXV2Migrator.sol\":996:1024  factoryV1.getExchange(token) */\n      0x20\n      swap3\n        /* \"v2-periphery-master/v2-periphery-master/contracts/DEXV2Migrator.sol\":1054:1086  exchangeV1.balanceOf(msg.sender) */\n      swap2\n      swap1\n      dup3\n      swap1\n      sub\n      add\n      dup2\n        /* \"v2-periphery-master/v2-periphery-master/contracts/DEXV2Migrator.sol\":1054:1074  exchangeV1.balanceOf */\n      dup7\n        /* \"v2-periphery-master/v2-periphery-master/contracts/DEXV2Migrator.sol\":1054:1086  exchangeV1.balanceOf(msg.sender) */\n      dup1\n      extcodesize\n      iszero\n        /* \"--CODEGEN--\":2:4   */\n      dup1\n      iszero\n      tag_15\n      jumpi\n        /* \"--CODEGEN--\":27:28   */\n      0x00\n        /* \"--CODEGEN--\":24:25   */\n      dup1\n        /* \"--CODEGEN--\":17:29   */\n      revert\n        /* \"--CODEGEN--\":2:4   */\n    tag_15:\n        /* \"v2-periphery-master/v2-periphery-master/contracts/DEXV2Migrator.sol\":1054:1086  exchangeV1.balanceOf(msg.sender) */\n      pop\n      gas\n      staticcall\n      iszero\n        /* \"--CODEGEN--\":8:17   */\n      dup1\n        /* \"--CODEGEN--\":5:7   */\n      iszero\n      tag_17\n      jumpi\n        /* \"--CODEGEN--\":45:61   */\n      returndatasize\n        /* \"--CODEGEN--\":42:43   */\n      0x00\n        /* \"--CODEGEN--\":39:40   */\n      dup1\n        /* \"--CODEGEN--\":24:62   */\n      returndatacopy\n        /* \"--CODEGEN--\":77:93   */\n      returndatasize\n        /* \"--CODEGEN--\":74:75   */\n      0x00\n        /* \"--CODEGEN--\":67:94   */\n      revert\n        /* \"--CODEGEN--\":5:7   */\n    tag_17:\n        /* \"v2-periphery-master/v2-periphery-master/contracts/DEXV2Migrator.sol\":1054:1086  exchangeV1.balanceOf(msg.sender) */\n      pop\n      pop\n      pop\n      pop\n      mload(0x40)\n      returndatasize\n        /* \"--CODEGEN--\":15:17   */\n      0x20\n        /* \"--CODEGEN--\":10:13   */\n      dup2\n        /* \"--CODEGEN--\":7:18   */\n      lt\n        /* \"--CODEGEN--\":4:6   */\n      iszero\n      tag_18\n      jumpi\n        /* \"--CODEGEN--\":31:32   */\n      0x00\n        /* \"--CODEGEN--\":28:29   */\n      dup1\n        /* \"--CODEGEN--\":21:33   */\n      revert\n        /* \"--CODEGEN--\":4:6   */\n    tag_18:\n      pop\n        /* \"v2-periphery-master/v2-periphery-master/contracts/DEXV2Migrator.sol\":1054:1086  exchangeV1.balanceOf(msg.sender) */\n      mload\n        /* \"v2-periphery-master/v2-periphery-master/contracts/DEXV2Migrator.sol\":1104:1167  exchangeV1.transferFrom(msg.sender, address(this), liquidityV1) */\n      0x40\n      dup1\n      mload\n      shl(0xe0, 0x23b872dd)\n      dup2\n      mstore\n        /* \"v2-periphery-master/v2-periphery-master/contracts/DEXV2Migrator.sol\":1128:1138  msg.sender */\n      caller\n        /* \"v2-periphery-master/v2-periphery-master/contracts/DEXV2Migrator.sol\":1104:1167  exchangeV1.transferFrom(msg.sender, address(this), liquidityV1) */\n      0x04\n      dup3\n      add\n      mstore\n        /* \"v2-periphery-master/v2-periphery-master/contracts/DEXV2Migrator.sol\":1148:1152  this */\n      address\n        /* \"v2-periphery-master/v2-periphery-master/contracts/DEXV2Migrator.sol\":1104:1167  exchangeV1.transferFrom(msg.sender, address(this), liquidityV1) */\n      0x24\n      dup3\n      add\n      mstore\n      0x44\n      dup2\n      add\n      dup4\n      swap1\n      mstore\n      swap1\n      mload\n        /* \"v2-periphery-master/v2-periphery-master/contracts/DEXV2Migrator.sol\":1054:1086  exchangeV1.balanceOf(msg.sender) */\n      swap2\n      swap3\n      pop\n      sub(shl(0xa0, 0x01), 0x01)\n        /* \"v2-periphery-master/v2-periphery-master/contracts/DEXV2Migrator.sol\":1104:1127  exchangeV1.transferFrom */\n      dup5\n      and\n      swap2\n      0x23b872dd\n      swap2\n        /* \"v2-periphery-master/v2-periphery-master/contracts/DEXV2Migrator.sol\":1104:1167  exchangeV1.transferFrom(msg.sender, address(this), liquidityV1) */\n      0x64\n      dup1\n      dup3\n      add\n      swap3\n        /* \"v2-periphery-master/v2-periphery-master/contracts/DEXV2Migrator.sol\":1054:1086  exchangeV1.balanceOf(msg.sender) */\n      0x20\n      swap3\n        /* \"v2-periphery-master/v2-periphery-master/contracts/DEXV2Migrator.sol\":1104:1167  exchangeV1.transferFrom(msg.sender, address(this), liquidityV1) */\n      swap1\n      swap2\n      swap1\n      dup3\n      swap1\n      sub\n      add\n      dup2\n      0x00\n        /* \"v2-periphery-master/v2-periphery-master/contracts/DEXV2Migrator.sol\":1104:1127  exchangeV1.transferFrom */\n      dup8\n        /* \"v2-periphery-master/v2-periphery-master/contracts/DEXV2Migrator.sol\":1104:1167  exchangeV1.transferFrom(msg.sender, address(this), liquidityV1) */\n      dup1\n      extcodesize\n      iszero\n        /* \"--CODEGEN--\":2:4   */\n      dup1\n      iszero\n      tag_19\n      jumpi\n        /* \"--CODEGEN--\":27:28   */\n      0x00\n        /* \"--CODEGEN--\":24:25   */\n      dup1\n        /* \"--CODEGEN--\":17:29   */\n      revert\n        /* \"--CODEGEN--\":2:4   */\n    tag_19:\n        /* \"v2-periphery-master/v2-periphery-master/contracts/DEXV2Migrator.sol\":1104:1167  exchangeV1.transferFrom(msg.sender, address(this), liquidityV1) */\n      pop\n      gas\n      call\n      iszero\n        /* \"--CODEGEN--\":8:17   */\n      dup1\n        /* \"--CODEGEN--\":5:7   */\n      iszero\n      tag_21\n      jumpi\n        /* \"--CODEGEN--\":45:61   */\n      returndatasize\n        /* \"--CODEGEN--\":42:43   */\n      0x00\n        /* \"--CODEGEN--\":39:40   */\n      dup1\n        /* \"--CODEGEN--\":24:62   */\n      returndatacopy\n        /* \"--CODEGEN--\":77:93   */\n      returndatasize\n        /* \"--CODEGEN--\":74:75   */\n      0x00\n        /* \"--CODEGEN--\":67:94   */\n      revert\n        /* \"--CODEGEN--\":5:7   */\n    tag_21:\n        /* \"v2-periphery-master/v2-periphery-master/contracts/DEXV2Migrator.sol\":1104:1167  exchangeV1.transferFrom(msg.sender, address(this), liquidityV1) */\n      pop\n      pop\n      pop\n      pop\n      mload(0x40)\n      returndatasize\n        /* \"--CODEGEN--\":15:17   */\n      0x20\n        /* \"--CODEGEN--\":10:13   */\n      dup2\n        /* \"--CODEGEN--\":7:18   */\n      lt\n        /* \"--CODEGEN--\":4:6   */\n      iszero\n      tag_22\n      jumpi\n        /* \"--CODEGEN--\":31:32   */\n      0x00\n        /* \"--CODEGEN--\":28:29   */\n      dup1\n        /* \"--CODEGEN--\":21:33   */\n      revert\n        /* \"--CODEGEN--\":4:6   */\n    tag_22:\n      pop\n        /* \"v2-periphery-master/v2-periphery-master/contracts/DEXV2Migrator.sol\":1104:1167  exchangeV1.transferFrom(msg.sender, address(this), liquidityV1) */\n      mload\n        /* \"v2-periphery-master/v2-periphery-master/contracts/DEXV2Migrator.sol\":1096:1192  require(exchangeV1.transferFrom(msg.sender, address(this), liquidityV1), 'TRANSFER_FROM_FAILED') */\n      tag_23\n      jumpi\n      0x40\n      dup1\n      mload\n      shl(0xe5, 0x461bcd)\n      dup2\n      mstore\n      0x20\n      0x04\n      dup3\n      add\n      mstore\n      0x14\n      0x24\n      dup3\n      add\n      mstore\n      shl(0x62, 0x1514905394d1915497d19493d357d19052531151)\n      0x44\n      dup3\n      add\n      mstore\n      swap1\n      mload\n      swap1\n      dup2\n      swap1\n      sub\n      0x64\n      add\n      swap1\n      revert\n    tag_23:\n        /* \"v2-periphery-master/v2-periphery-master/contracts/DEXV2Migrator.sol\":1243:1298  exchangeV1.removeLiquidity(liquidityV1, 1, 1, uint(-1)) */\n      0x40\n      dup1\n      mload\n      shl(0xe1, 0x7c45f8ad)\n      dup2\n      mstore\n      0x04\n      dup2\n      add\n      dup4\n      swap1\n      mstore\n        /* \"v2-periphery-master/v2-periphery-master/contracts/DEXV2Migrator.sol\":1283:1284  1 */\n      0x01\n        /* \"v2-periphery-master/v2-periphery-master/contracts/DEXV2Migrator.sol\":1243:1298  exchangeV1.removeLiquidity(liquidityV1, 1, 1, uint(-1)) */\n      0x24\n      dup3\n      add\n      dup2\n      swap1\n      mstore\n      0x44\n      dup3\n      add\n      mstore\n      not(0x00)\n      0x64\n      dup3\n      add\n      mstore\n      dup2\n      mload\n        /* \"v2-periphery-master/v2-periphery-master/contracts/DEXV2Migrator.sol\":1203:1219  uint amountETHV1 */\n      0x00\n      swap3\n      dup4\n      swap3\n      sub(shl(0xa0, 0x01), 0x01)\n        /* \"v2-periphery-master/v2-periphery-master/contracts/DEXV2Migrator.sol\":1243:1269  exchangeV1.removeLiquidity */\n      dup8\n      and\n      swap3\n      0xf88bf15a\n      swap3\n        /* \"v2-periphery-master/v2-periphery-master/contracts/DEXV2Migrator.sol\":1243:1298  exchangeV1.removeLiquidity(liquidityV1, 1, 1, uint(-1)) */\n      0x84\n      dup1\n      dup5\n      add\n      swap4\n      swap2\n      swap3\n      swap2\n      dup3\n      swap1\n      sub\n      add\n      dup2\n        /* \"v2-periphery-master/v2-periphery-master/contracts/DEXV2Migrator.sol\":1203:1219  uint amountETHV1 */\n      dup8\n        /* \"v2-periphery-master/v2-periphery-master/contracts/DEXV2Migrator.sol\":1243:1269  exchangeV1.removeLiquidity */\n      dup8\n        /* \"v2-periphery-master/v2-periphery-master/contracts/DEXV2Migrator.sol\":1243:1298  exchangeV1.removeLiquidity(liquidityV1, 1, 1, uint(-1)) */\n      dup1\n      extcodesize\n      iszero\n        /* \"--CODEGEN--\":2:4   */\n      dup1\n      iszero\n      tag_24\n      jumpi\n        /* \"--CODEGEN--\":27:28   */\n      0x00\n        /* \"--CODEGEN--\":24:25   */\n      dup1\n        /* \"--CODEGEN--\":17:29   */\n      revert\n        /* \"--CODEGEN--\":2:4   */\n    tag_24:\n        /* \"v2-periphery-master/v2-periphery-master/contracts/DEXV2Migrator.sol\":1243:1298  exchangeV1.removeLiquidity(liquidityV1, 1, 1, uint(-1)) */\n      pop\n      gas\n      call\n      iszero\n        /* \"--CODEGEN--\":8:17   */\n      dup1\n        /* \"--CODEGEN--\":5:7   */\n      iszero\n      tag_26\n      jumpi\n        /* \"--CODEGEN--\":45:61   */\n      returndatasize\n        /* \"--CODEGEN--\":42:43   */\n      0x00\n        /* \"--CODEGEN--\":39:40   */\n      dup1\n        /* \"--CODEGEN--\":24:62   */\n      returndatacopy\n        /* \"--CODEGEN--\":77:93   */\n      returndatasize\n        /* \"--CODEGEN--\":74:75   */\n      0x00\n        /* \"--CODEGEN--\":67:94   */\n      revert\n        /* \"--CODEGEN--\":5:7   */\n    tag_26:\n        /* \"v2-periphery-master/v2-periphery-master/contracts/DEXV2Migrator.sol\":1243:1298  exchangeV1.removeLiquidity(liquidityV1, 1, 1, uint(-1)) */\n      pop\n      pop\n      pop\n      pop\n      mload(0x40)\n      returndatasize\n        /* \"--CODEGEN--\":15:17   */\n      0x40\n        /* \"--CODEGEN--\":10:13   */\n      dup2\n        /* \"--CODEGEN--\":7:18   */\n      lt\n        /* \"--CODEGEN--\":4:6   */\n      iszero\n      tag_27\n      jumpi\n        /* \"--CODEGEN--\":31:32   */\n      0x00\n        /* \"--CODEGEN--\":28:29   */\n      dup1\n        /* \"--CODEGEN--\":21:33   */\n      revert\n        /* \"--CODEGEN--\":4:6   */\n    tag_27:\n      pop\n        /* \"v2-periphery-master/v2-periphery-master/contracts/DEXV2Migrator.sol\":1243:1298  exchangeV1.removeLiquidity(liquidityV1, 1, 1, uint(-1)) */\n      dup1\n      mload\n      0x20\n      swap1\n      swap2\n      add\n      mload\n      swap1\n      swap3\n      pop\n      swap1\n      pop\n        /* \"v2-periphery-master/v2-periphery-master/contracts/DEXV2Migrator.sol\":1308:1373  TransferHelper.safeApprove(token, address(router), amountTokenV1) */\n      tag_28\n        /* \"v2-periphery-master/v2-periphery-master/contracts/DEXV2Migrator.sol\":1335:1340  token */\n      dup10\n        /* \"v2-periphery-master/v2-periphery-master/contracts/DEXV2Migrator.sol\":1350:1356  router */\n      immutable(\"0x789bcdf275fa270780a52ae3b79bb1ce0fda7e0aaad87b57b74bb99ac290714a\")\n        /* \"v2-periphery-master/v2-periphery-master/contracts/DEXV2Migrator.sol\":1243:1298  exchangeV1.removeLiquidity(liquidityV1, 1, 1, uint(-1)) */\n      dup4\n        /* \"v2-periphery-master/v2-periphery-master/contracts/DEXV2Migrator.sol\":1308:1334  TransferHelper.safeApprove */\n      tag_29\n        /* \"v2-periphery-master/v2-periphery-master/contracts/DEXV2Migrator.sol\":1308:1373  TransferHelper.safeApprove(token, address(router), amountTokenV1) */\n      jump\t// in\n    tag_28:\n        /* \"v2-periphery-master/v2-periphery-master/contracts/DEXV2Migrator.sol\":1425:1615  router.addLiquidityETH{value: amountETHV1}(... */\n      0x40\n      dup1\n      mload\n      shl(0xe0, 0xf305d719)\n      dup2\n      mstore\n      sub(shl(0xa0, 0x01), 0x01)\n      dup12\n      dup2\n      and\n      0x04\n      dup4\n      add\n      mstore\n      0x24\n      dup3\n      add\n      dup5\n      swap1\n      mstore\n      0x44\n      dup3\n      add\n      dup12\n      swap1\n      mstore\n      0x64\n      dup3\n      add\n      dup11\n      swap1\n      mstore\n      dup9\n      dup2\n      and\n      0x84\n      dup4\n      add\n      mstore\n      0xa4\n      dup3\n      add\n      dup9\n      swap1\n      mstore\n      swap2\n      mload\n      0x00\n      swap3\n      dup4\n      swap3\n        /* \"v2-periphery-master/v2-periphery-master/contracts/DEXV2Migrator.sol\":1425:1431  router */\n      immutable(\"0x789bcdf275fa270780a52ae3b79bb1ce0fda7e0aaad87b57b74bb99ac290714a\")\n        /* \"v2-periphery-master/v2-periphery-master/contracts/DEXV2Migrator.sol\":1425:1447  router.addLiquidityETH */\n      swap1\n      swap2\n      and\n      swap2\n      0xf305d719\n      swap2\n        /* \"v2-periphery-master/v2-periphery-master/contracts/DEXV2Migrator.sol\":1455:1466  amountETHV1 */\n      dup8\n      swap2\n        /* \"v2-periphery-master/v2-periphery-master/contracts/DEXV2Migrator.sol\":1425:1615  router.addLiquidityETH{value: amountETHV1}(... */\n      0xc4\n      dup1\n      dup4\n      add\n      swap3\n      0x60\n      swap3\n      swap2\n      swap1\n      dup3\n      swap1\n      sub\n      add\n      dup2\n        /* \"v2-periphery-master/v2-periphery-master/contracts/DEXV2Migrator.sol\":1455:1466  amountETHV1 */\n      dup6\n        /* \"v2-periphery-master/v2-periphery-master/contracts/DEXV2Migrator.sol\":1425:1447  router.addLiquidityETH */\n      dup9\n        /* \"v2-periphery-master/v2-periphery-master/contracts/DEXV2Migrator.sol\":1425:1615  router.addLiquidityETH{value: amountETHV1}(... */\n      dup1\n      extcodesize\n      iszero\n        /* \"--CODEGEN--\":2:4   */\n      dup1\n      iszero\n      tag_30\n      jumpi\n        /* \"--CODEGEN--\":27:28   */\n      0x00\n        /* \"--CODEGEN--\":24:25   */\n      dup1\n        /* \"--CODEGEN--\":17:29   */\n      revert\n        /* \"--CODEGEN--\":2:4   */\n    tag_30:\n        /* \"v2-periphery-master/v2-periphery-master/contracts/DEXV2Migrator.sol\":1425:1615  router.addLiquidityETH{value: amountETHV1}(... */\n      pop\n      gas\n      call\n      iszero\n        /* \"--CODEGEN--\":8:17   */\n      dup1\n        /* \"--CODEGEN--\":5:7   */\n      iszero\n      tag_32\n      jumpi\n        /* \"--CODEGEN--\":45:61   */\n      returndatasize\n        /* \"--CODEGEN--\":42:43   */\n      0x00\n        /* \"--CODEGEN--\":39:40   */\n      dup1\n        /* \"--CODEGEN--\":24:62   */\n      returndatacopy\n        /* \"--CODEGEN--\":77:93   */\n      returndatasize\n        /* \"--CODEGEN--\":74:75   */\n      0x00\n        /* \"--CODEGEN--\":67:94   */\n      revert\n        /* \"--CODEGEN--\":5:7   */\n    tag_32:\n        /* \"v2-periphery-master/v2-periphery-master/contracts/DEXV2Migrator.sol\":1425:1615  router.addLiquidityETH{value: amountETHV1}(... */\n      pop\n      pop\n      pop\n      pop\n      pop\n      mload(0x40)\n      returndatasize\n        /* \"--CODEGEN--\":15:17   */\n      0x60\n        /* \"--CODEGEN--\":10:13   */\n      dup2\n        /* \"--CODEGEN--\":7:18   */\n      lt\n        /* \"--CODEGEN--\":4:6   */\n      iszero\n      tag_33\n      jumpi\n        /* \"--CODEGEN--\":31:32   */\n      0x00\n        /* \"--CODEGEN--\":28:29   */\n      dup1\n        /* \"--CODEGEN--\":21:33   */\n      revert\n        /* \"--CODEGEN--\":4:6   */\n    tag_33:\n      pop\n        /* \"v2-periphery-master/v2-periphery-master/contracts/DEXV2Migrator.sol\":1425:1615  router.addLiquidityETH{value: amountETHV1}(... */\n      dup1\n      mload\n      0x20\n      swap1\n      swap2\n      add\n      mload\n      swap1\n      swap3\n      pop\n      swap1\n      pop\n        /* \"v2-periphery-master/v2-periphery-master/contracts/DEXV2Migrator.sol\":1629:1658  amountTokenV1 > amountTokenV2 */\n      dup2\n      dup4\n      gt\n        /* \"v2-periphery-master/v2-periphery-master/contracts/DEXV2Migrator.sol\":1625:2135  if (amountTokenV1 > amountTokenV2) {... */\n      iszero\n      tag_34\n      jumpi\n        /* \"v2-periphery-master/v2-periphery-master/contracts/DEXV2Migrator.sol\":1674:1727  TransferHelper.safeApprove(token, address(router), 0) */\n      tag_35\n        /* \"v2-periphery-master/v2-periphery-master/contracts/DEXV2Migrator.sol\":1701:1706  token */\n      dup12\n        /* \"v2-periphery-master/v2-periphery-master/contracts/DEXV2Migrator.sol\":1716:1722  router */\n      immutable(\"0x789bcdf275fa270780a52ae3b79bb1ce0fda7e0aaad87b57b74bb99ac290714a\")\n        /* \"v2-periphery-master/v2-periphery-master/contracts/DEXV2Migrator.sol\":1725:1726  0 */\n      0x00\n        /* \"v2-periphery-master/v2-periphery-master/contracts/DEXV2Migrator.sol\":1674:1700  TransferHelper.safeApprove */\n      tag_29\n        /* \"v2-periphery-master/v2-periphery-master/contracts/DEXV2Migrator.sol\":1674:1727  TransferHelper.safeApprove(token, address(router), 0) */\n      jump\t// in\n    tag_35:\n        /* \"v2-periphery-master/v2-periphery-master/contracts/DEXV2Migrator.sol\":1795:1872  TransferHelper.safeTransfer(token, msg.sender, amountTokenV1 - amountTokenV2) */\n      tag_36\n        /* \"v2-periphery-master/v2-periphery-master/contracts/DEXV2Migrator.sol\":1823:1828  token */\n      dup12\n        /* \"v2-periphery-master/v2-periphery-master/contracts/DEXV2Migrator.sol\":1830:1840  msg.sender */\n      caller\n        /* \"v2-periphery-master/v2-periphery-master/contracts/DEXV2Migrator.sol\":1858:1871  amountTokenV2 */\n      dup5\n        /* \"v2-periphery-master/v2-periphery-master/contracts/DEXV2Migrator.sol\":1842:1855  amountTokenV1 */\n      dup7\n        /* \"v2-periphery-master/v2-periphery-master/contracts/DEXV2Migrator.sol\":1842:1871  amountTokenV1 - amountTokenV2 */\n      sub\n        /* \"v2-periphery-master/v2-periphery-master/contracts/DEXV2Migrator.sol\":1795:1822  TransferHelper.safeTransfer */\n      tag_37\n        /* \"v2-periphery-master/v2-periphery-master/contracts/DEXV2Migrator.sol\":1795:1872  TransferHelper.safeTransfer(token, msg.sender, amountTokenV1 - amountTokenV2) */\n      jump\t// in\n    tag_36:\n        /* \"v2-periphery-master/v2-periphery-master/contracts/DEXV2Migrator.sol\":1625:2135  if (amountTokenV1 > amountTokenV2) {... */\n      jump(tag_40)\n    tag_34:\n        /* \"v2-periphery-master/v2-periphery-master/contracts/DEXV2Migrator.sol\":1907:1918  amountETHV2 */\n      dup1\n        /* \"v2-periphery-master/v2-periphery-master/contracts/DEXV2Migrator.sol\":1893:1904  amountETHV1 */\n      dup5\n        /* \"v2-periphery-master/v2-periphery-master/contracts/DEXV2Migrator.sol\":1893:1918  amountETHV1 > amountETHV2 */\n      gt\n        /* \"v2-periphery-master/v2-periphery-master/contracts/DEXV2Migrator.sol\":1889:2135  if (amountETHV1 > amountETHV2) {... */\n      iszero\n      tag_40\n      jumpi\n        /* \"v2-periphery-master/v2-periphery-master/contracts/DEXV2Migrator.sol\":2055:2124  TransferHelper.safeTransferETH(msg.sender, amountETHV1 - amountETHV2) */\n      tag_40\n        /* \"v2-periphery-master/v2-periphery-master/contracts/DEXV2Migrator.sol\":2086:2096  msg.sender */\n      caller\n        /* \"v2-periphery-master/v2-periphery-master/contracts/DEXV2Migrator.sol\":2112:2123  amountETHV2 */\n      dup3\n        /* \"v2-periphery-master/v2-periphery-master/contracts/DEXV2Migrator.sol\":2098:2109  amountETHV1 */\n      dup7\n        /* \"v2-periphery-master/v2-periphery-master/contracts/DEXV2Migrator.sol\":2098:2123  amountETHV1 - amountETHV2 */\n      sub\n        /* \"v2-periphery-master/v2-periphery-master/contracts/DEXV2Migrator.sol\":2055:2085  TransferHelper.safeTransferETH */\n      tag_41\n        /* \"v2-periphery-master/v2-periphery-master/contracts/DEXV2Migrator.sol\":2055:2124  TransferHelper.safeTransferETH(msg.sender, amountETHV1 - amountETHV2) */\n      jump\t// in\n    tag_40:\n        /* \"v2-periphery-master/v2-periphery-master/contracts/DEXV2Migrator.sol\":806:2141  function migrate(address token, uint amountTokenMin, uint amountETHMin, address to, uint deadline)... */\n      pop\n      pop\n      pop\n      pop\n      pop\n      pop\n      pop\n      pop\n      pop\n      pop\n      pop\n      jump\t// out\n        /* \"v2-periphery-master/v2-periphery-master/contracts/libraries/TransferHelper.sol\":218:663  function safeApprove(\r... */\n    tag_29:\n        /* \"v2-periphery-master/v2-periphery-master/contracts/libraries/TransferHelper.sol\":448:493  abi.encodeWithSelector(0x095ea7b3, to, value) */\n      0x40\n      dup1\n      mload\n      sub(shl(0xa0, 0x01), 0x01)\n      dup5\n      dup2\n      and\n      0x24\n      dup4\n      add\n      mstore\n      0x44\n      dup1\n      dup4\n      add\n      dup6\n      swap1\n      mstore\n      dup4\n      mload\n        /* \"--CODEGEN--\":26:47   */\n      dup1\n      dup5\n      sub\n        /* \"--CODEGEN--\":22:54   */\n      swap1\n      swap2\n      add\n        /* \"--CODEGEN--\":6:55   */\n      dup2\n      mstore\n        /* \"v2-periphery-master/v2-periphery-master/contracts/libraries/TransferHelper.sol\":448:493  abi.encodeWithSelector(0x095ea7b3, to, value) */\n      0x64\n      swap1\n      swap3\n      add\n      dup4\n      mstore\n      0x20\n        /* \"--CODEGEN--\":25:43   */\n      dup3\n      add\n        /* \"--CODEGEN--\":61:78   */\n      dup1\n      mload\n      sub(shl(0xe0, 0x01), 0x01)\n        /* \"--CODEGEN--\":182:197   */\n      and\n      shl(0xe0, 0x095ea7b3)\n        /* \"--CODEGEN--\":179:208   */\n      or\n        /* \"--CODEGEN--\":160:209   */\n      dup2\n      mstore\n        /* \"v2-periphery-master/v2-periphery-master/contracts/libraries/TransferHelper.sol\":437:494  token.call(abi.encodeWithSelector(0x095ea7b3, to, value)) */\n      swap3\n      mload\n      dup3\n      mload\n        /* \"v2-periphery-master/v2-periphery-master/contracts/libraries/TransferHelper.sol\":402:414  bool success */\n      0x00\n      swap5\n        /* \"v2-periphery-master/v2-periphery-master/contracts/libraries/TransferHelper.sol\":416:433  bytes memory data */\n      0x60\n      swap5\n        /* \"v2-periphery-master/v2-periphery-master/contracts/libraries/TransferHelper.sol\":437:447  token.call */\n      swap4\n      dup10\n      and\n      swap4\n        /* \"v2-periphery-master/v2-periphery-master/contracts/libraries/TransferHelper.sol\":448:493  abi.encodeWithSelector(0x095ea7b3, to, value) */\n      swap3\n        /* \"v2-periphery-master/v2-periphery-master/contracts/libraries/TransferHelper.sol\":437:494  token.call(abi.encodeWithSelector(0x095ea7b3, to, value)) */\n      swap2\n      dup3\n      swap2\n        /* \"--CODEGEN--\":25:43   */\n      swap1\n        /* \"v2-periphery-master/v2-periphery-master/contracts/libraries/TransferHelper.sol\":437:494  token.call(abi.encodeWithSelector(0x095ea7b3, to, value)) */\n      dup1\n      dup4\n        /* \"--CODEGEN--\":25:43   */\n      dup4\n        /* \"--CODEGEN--\":36:189   */\n    tag_43:\n        /* \"--CODEGEN--\":66:68   */\n      0x20\n        /* \"--CODEGEN--\":61:64   */\n      dup4\n        /* \"--CODEGEN--\":58:69   */\n      lt\n        /* \"--CODEGEN--\":36:189   */\n      tag_45\n      jumpi\n        /* \"--CODEGEN--\":176:186   */\n      dup1\n      mload\n        /* \"--CODEGEN--\":164:187   */\n      dup3\n      mstore\n      not(0x1f)\n        /* \"--CODEGEN--\":139:151   */\n      swap1\n      swap3\n      add\n      swap2\n        /* \"--CODEGEN--\":98:100   */\n      0x20\n        /* \"--CODEGEN--\":89:101   */\n      swap2\n      dup3\n      add\n      swap2\n        /* \"--CODEGEN--\":114:126   */\n      add\n        /* \"--CODEGEN--\":36:189   */\n      jump(tag_43)\n    tag_45:\n        /* \"--CODEGEN--\":274:275   */\n      0x01\n        /* \"--CODEGEN--\":267:270   */\n      dup4\n        /* \"--CODEGEN--\":263:265   */\n      0x20\n        /* \"--CODEGEN--\":259:271   */\n      sub\n        /* \"--CODEGEN--\":254:257   */\n      0x0100\n        /* \"--CODEGEN--\":250:272   */\n      exp\n        /* \"--CODEGEN--\":246:276   */\n      sub\n        /* \"--CODEGEN--\":315:319   */\n      dup1\n        /* \"--CODEGEN--\":311:320   */\n      not\n        /* \"--CODEGEN--\":305:308   */\n      dup3\n        /* \"--CODEGEN--\":299:309   */\n      mload\n        /* \"--CODEGEN--\":295:321   */\n      and\n        /* \"--CODEGEN--\":356:360   */\n      dup2\n        /* \"--CODEGEN--\":350:353   */\n      dup5\n        /* \"--CODEGEN--\":344:354   */\n      mload\n        /* \"--CODEGEN--\":340:361   */\n      and\n        /* \"--CODEGEN--\":389:396   */\n      dup1\n        /* \"--CODEGEN--\":380:387   */\n      dup3\n        /* \"--CODEGEN--\":377:397   */\n      or\n        /* \"--CODEGEN--\":372:375   */\n      dup6\n        /* \"--CODEGEN--\":365:398   */\n      mstore\n        /* \"--CODEGEN--\":3:402   */\n      pop\n      pop\n      pop\n        /* \"v2-periphery-master/v2-periphery-master/contracts/libraries/TransferHelper.sol\":437:494  token.call(abi.encodeWithSelector(0x095ea7b3, to, value)) */\n      pop\n      pop\n      pop\n      swap1\n      pop\n      add\n      swap2\n      pop\n      pop\n      0x00\n      mload(0x40)\n      dup1\n      dup4\n      sub\n      dup2\n      0x00\n      dup7\n      gas\n      call\n      swap2\n      pop\n      pop\n      returndatasize\n        /* \"--CODEGEN--\":12:13   */\n      dup1\n        /* \"--CODEGEN--\":19:20   */\n      0x00\n        /* \"--CODEGEN--\":14:41   */\n      dup2\n      eq\n      tag_48\n      jumpi\n        /* \"--CODEGEN--\":67:71   */\n      0x40\n        /* \"--CODEGEN--\":61:72   */\n      mload\n        /* \"--CODEGEN--\":56:72   */\n      swap2\n      pop\n        /* \"--CODEGEN--\":134:138   */\n      0x1f\n        /* \"--CODEGEN--\":130:139   */\n      not\n        /* \"--CODEGEN--\":123:127   */\n      0x3f\n        /* \"--CODEGEN--\":105:121   */\n      returndatasize\n        /* \"--CODEGEN--\":101:128   */\n      add\n        /* \"--CODEGEN--\":97:140   */\n      and\n        /* \"--CODEGEN--\":94:95   */\n      dup3\n        /* \"--CODEGEN--\":90:141   */\n      add\n        /* \"--CODEGEN--\":84:88   */\n      0x40\n        /* \"--CODEGEN--\":77:142   */\n      mstore\n        /* \"--CODEGEN--\":157:173   */\n      returndatasize\n        /* \"--CODEGEN--\":154:155   */\n      dup3\n        /* \"--CODEGEN--\":147:174   */\n      mstore\n        /* \"--CODEGEN--\":211:227   */\n      returndatasize\n        /* \"--CODEGEN--\":208:209   */\n      0x00\n        /* \"--CODEGEN--\":201:205   */\n      0x20\n        /* \"--CODEGEN--\":198:199   */\n      dup5\n        /* \"--CODEGEN--\":194:206   */\n      add\n        /* \"--CODEGEN--\":179:228   */\n      returndatacopy\n        /* \"--CODEGEN--\":5:233   */\n      jump(tag_47)\n        /* \"--CODEGEN--\":14:41   */\n    tag_48:\n        /* \"--CODEGEN--\":32:36   */\n      0x60\n        /* \"--CODEGEN--\":27:36   */\n      swap2\n      pop\n        /* \"--CODEGEN--\":5:233   */\n    tag_47:\n      pop\n        /* \"v2-periphery-master/v2-periphery-master/contracts/libraries/TransferHelper.sol\":401:494  (bool success, bytes memory data) = token.call(abi.encodeWithSelector(0x095ea7b3, to, value)) */\n      swap2\n      pop\n      swap2\n      pop\n        /* \"v2-periphery-master/v2-periphery-master/contracts/libraries/TransferHelper.sol\":527:534  success */\n      dup2\n        /* \"v2-periphery-master/v2-periphery-master/contracts/libraries/TransferHelper.sol\":527:584  success && (data.length == 0 || abi.decode(data, (bool))) */\n      dup1\n      iszero\n      tag_50\n      jumpi\n      pop\n        /* \"v2-periphery-master/v2-periphery-master/contracts/libraries/TransferHelper.sol\":539:550  data.length */\n      dup1\n      mload\n        /* \"v2-periphery-master/v2-periphery-master/contracts/libraries/TransferHelper.sol\":539:555  data.length == 0 */\n      iszero\n      dup1\n        /* \"v2-periphery-master/v2-periphery-master/contracts/libraries/TransferHelper.sol\":539:583  data.length == 0 || abi.decode(data, (bool)) */\n      tag_50\n      jumpi\n      pop\n        /* \"v2-periphery-master/v2-periphery-master/contracts/libraries/TransferHelper.sol\":570:574  data */\n      dup1\n        /* \"v2-periphery-master/v2-periphery-master/contracts/libraries/TransferHelper.sol\":559:583  abi.decode(data, (bool)) */\n      dup1\n      0x20\n      add\n      swap1\n      mload\n        /* \"--CODEGEN--\":15:17   */\n      0x20\n        /* \"--CODEGEN--\":10:13   */\n      dup2\n        /* \"--CODEGEN--\":7:18   */\n      lt\n        /* \"--CODEGEN--\":4:6   */\n      iszero\n      tag_51\n      jumpi\n        /* \"--CODEGEN--\":31:32   */\n      0x00\n        /* \"--CODEGEN--\":28:29   */\n      dup1\n        /* \"--CODEGEN--\":21:33   */\n      revert\n        /* \"--CODEGEN--\":4:6   */\n    tag_51:\n      pop\n        /* \"v2-periphery-master/v2-periphery-master/contracts/libraries/TransferHelper.sol\":559:583  abi.decode(data, (bool)) */\n      mload\n        /* \"v2-periphery-master/v2-periphery-master/contracts/libraries/TransferHelper.sol\":539:583  data.length == 0 || abi.decode(data, (bool)) */\n    tag_50:\n        /* \"v2-periphery-master/v2-periphery-master/contracts/libraries/TransferHelper.sol\":505:655  require(\r... */\n      tag_52\n      jumpi\n      mload(0x40)\n      shl(0xe5, 0x461bcd)\n      dup2\n      mstore\n      0x04\n      add\n      dup1\n      dup1\n      0x20\n      add\n      dup3\n      dup2\n      sub\n      dup3\n      mstore\n      0x2b\n      dup2\n      mstore\n      0x20\n      add\n      dup1\n      data_b4dd1eb4be82119fd3a99acfb5dd4c57591eb0ea309359b1af3d65a4460c7123\n      0x2b\n      swap2\n      codecopy\n      0x40\n      add\n      swap2\n      pop\n      pop\n      mload(0x40)\n      dup1\n      swap2\n      sub\n      swap1\n      revert\n    tag_52:\n        /* \"v2-periphery-master/v2-periphery-master/contracts/libraries/TransferHelper.sol\":218:663  function safeApprove(\r... */\n      pop\n      pop\n      pop\n      pop\n      pop\n      jump\t// out\n        /* \"v2-periphery-master/v2-periphery-master/contracts/libraries/TransferHelper.sol\":671:1120  function safeTransfer(\r... */\n    tag_37:\n        /* \"v2-periphery-master/v2-periphery-master/contracts/libraries/TransferHelper.sol\":903:948  abi.encodeWithSelector(0xa9059cbb, to, value) */\n      0x40\n      dup1\n      mload\n      sub(shl(0xa0, 0x01), 0x01)\n      dup5\n      dup2\n      and\n      0x24\n      dup4\n      add\n      mstore\n      0x44\n      dup1\n      dup4\n      add\n      dup6\n      swap1\n      mstore\n      dup4\n      mload\n        /* \"--CODEGEN--\":26:47   */\n      dup1\n      dup5\n      sub\n        /* \"--CODEGEN--\":22:54   */\n      swap1\n      swap2\n      add\n        /* \"--CODEGEN--\":6:55   */\n      dup2\n      mstore\n        /* \"v2-periphery-master/v2-periphery-master/contracts/libraries/TransferHelper.sol\":903:948  abi.encodeWithSelector(0xa9059cbb, to, value) */\n      0x64\n      swap1\n      swap3\n      add\n      dup4\n      mstore\n      0x20\n        /* \"--CODEGEN--\":25:43   */\n      dup3\n      add\n        /* \"--CODEGEN--\":61:78   */\n      dup1\n      mload\n      sub(shl(0xe0, 0x01), 0x01)\n        /* \"--CODEGEN--\":182:197   */\n      and\n      shl(0xe0, 0xa9059cbb)\n        /* \"--CODEGEN--\":179:208   */\n      or\n        /* \"--CODEGEN--\":160:209   */\n      dup2\n      mstore\n        /* \"v2-periphery-master/v2-periphery-master/contracts/libraries/TransferHelper.sol\":892:949  token.call(abi.encodeWithSelector(0xa9059cbb, to, value)) */\n      swap3\n      mload\n      dup3\n      mload\n        /* \"v2-periphery-master/v2-periphery-master/contracts/libraries/TransferHelper.sol\":857:869  bool success */\n      0x00\n      swap5\n        /* \"v2-periphery-master/v2-periphery-master/contracts/libraries/TransferHelper.sol\":871:888  bytes memory data */\n      0x60\n      swap5\n        /* \"v2-periphery-master/v2-periphery-master/contracts/libraries/TransferHelper.sol\":892:902  token.call */\n      swap4\n      dup10\n      and\n      swap4\n        /* \"v2-periphery-master/v2-periphery-master/contracts/libraries/TransferHelper.sol\":903:948  abi.encodeWithSelector(0xa9059cbb, to, value) */\n      swap3\n        /* \"v2-periphery-master/v2-periphery-master/contracts/libraries/TransferHelper.sol\":892:949  token.call(abi.encodeWithSelector(0xa9059cbb, to, value)) */\n      swap2\n      dup3\n      swap2\n        /* \"--CODEGEN--\":25:43   */\n      swap1\n        /* \"v2-periphery-master/v2-periphery-master/contracts/libraries/TransferHelper.sol\":892:949  token.call(abi.encodeWithSelector(0xa9059cbb, to, value)) */\n      dup1\n      dup4\n        /* \"--CODEGEN--\":25:43   */\n      dup4\n        /* \"--CODEGEN--\":36:189   */\n    tag_54:\n        /* \"--CODEGEN--\":66:68   */\n      0x20\n        /* \"--CODEGEN--\":61:64   */\n      dup4\n        /* \"--CODEGEN--\":58:69   */\n      lt\n        /* \"--CODEGEN--\":36:189   */\n      tag_56\n      jumpi\n        /* \"--CODEGEN--\":176:186   */\n      dup1\n      mload\n        /* \"--CODEGEN--\":164:187   */\n      dup3\n      mstore\n      not(0x1f)\n        /* \"--CODEGEN--\":139:151   */\n      swap1\n      swap3\n      add\n      swap2\n        /* \"--CODEGEN--\":98:100   */\n      0x20\n        /* \"--CODEGEN--\":89:101   */\n      swap2\n      dup3\n      add\n      swap2\n        /* \"--CODEGEN--\":114:126   */\n      add\n        /* \"--CODEGEN--\":36:189   */\n      jump(tag_54)\n    tag_56:\n        /* \"--CODEGEN--\":274:275   */\n      0x01\n        /* \"--CODEGEN--\":267:270   */\n      dup4\n        /* \"--CODEGEN--\":263:265   */\n      0x20\n        /* \"--CODEGEN--\":259:271   */\n      sub\n        /* \"--CODEGEN--\":254:257   */\n      0x0100\n        /* \"--CODEGEN--\":250:272   */\n      exp\n        /* \"--CODEGEN--\":246:276   */\n      sub\n        /* \"--CODEGEN--\":315:319   */\n      dup1\n        /* \"--CODEGEN--\":311:320   */\n      not\n        /* \"--CODEGEN--\":305:308   */\n      dup3\n        /* \"--CODEGEN--\":299:309   */\n      mload\n        /* \"--CODEGEN--\":295:321   */\n      and\n        /* \"--CODEGEN--\":356:360   */\n      dup2\n        /* \"--CODEGEN--\":350:353   */\n      dup5\n        /* \"--CODEGEN--\":344:354   */\n      mload\n        /* \"--CODEGEN--\":340:361   */\n      and\n        /* \"--CODEGEN--\":389:396   */\n      dup1\n        /* \"--CODEGEN--\":380:387   */\n      dup3\n        /* \"--CODEGEN--\":377:397   */\n      or\n        /* \"--CODEGEN--\":372:375   */\n      dup6\n        /* \"--CODEGEN--\":365:398   */\n      mstore\n        /* \"--CODEGEN--\":3:402   */\n      pop\n      pop\n      pop\n        /* \"v2-periphery-master/v2-periphery-master/contracts/libraries/TransferHelper.sol\":892:949  token.call(abi.encodeWithSelector(0xa9059cbb, to, value)) */\n      pop\n      pop\n      pop\n      swap1\n      pop\n      add\n      swap2\n      pop\n      pop\n      0x00\n      mload(0x40)\n      dup1\n      dup4\n      sub\n      dup2\n      0x00\n      dup7\n      gas\n      call\n      swap2\n      pop\n      pop\n      returndatasize\n        /* \"--CODEGEN--\":12:13   */\n      dup1\n        /* \"--CODEGEN--\":19:20   */\n      0x00\n        /* \"--CODEGEN--\":14:41   */\n      dup2\n      eq\n      tag_59\n      jumpi\n        /* \"--CODEGEN--\":67:71   */\n      0x40\n        /* \"--CODEGEN--\":61:72   */\n      mload\n        /* \"--CODEGEN--\":56:72   */\n      swap2\n      pop\n        /* \"--CODEGEN--\":134:138   */\n      0x1f\n        /* \"--CODEGEN--\":130:139   */\n      not\n        /* \"--CODEGEN--\":123:127   */\n      0x3f\n        /* \"--CODEGEN--\":105:121   */\n      returndatasize\n        /* \"--CODEGEN--\":101:128   */\n      add\n        /* \"--CODEGEN--\":97:140   */\n      and\n        /* \"--CODEGEN--\":94:95   */\n      dup3\n        /* \"--CODEGEN--\":90:141   */\n      add\n        /* \"--CODEGEN--\":84:88   */\n      0x40\n        /* \"--CODEGEN--\":77:142   */\n      mstore\n        /* \"--CODEGEN--\":157:173   */\n      returndatasize\n        /* \"--CODEGEN--\":154:155   */\n      dup3\n        /* \"--CODEGEN--\":147:174   */\n      mstore\n        /* \"--CODEGEN--\":211:227   */\n      returndatasize\n        /* \"--CODEGEN--\":208:209   */\n      0x00\n        /* \"--CODEGEN--\":201:205   */\n      0x20\n        /* \"--CODEGEN--\":198:199   */\n      dup5\n        /* \"--CODEGEN--\":194:206   */\n      add\n        /* \"--CODEGEN--\":179:228   */\n      returndatacopy\n        /* \"--CODEGEN--\":5:233   */\n      jump(tag_58)\n        /* \"--CODEGEN--\":14:41   */\n    tag_59:\n        /* \"--CODEGEN--\":32:36   */\n      0x60\n        /* \"--CODEGEN--\":27:36   */\n      swap2\n      pop\n        /* \"--CODEGEN--\":5:233   */\n    tag_58:\n      pop\n        /* \"v2-periphery-master/v2-periphery-master/contracts/libraries/TransferHelper.sol\":856:949  (bool success, bytes memory data) = token.call(abi.encodeWithSelector(0xa9059cbb, to, value)) */\n      swap2\n      pop\n      swap2\n      pop\n        /* \"v2-periphery-master/v2-periphery-master/contracts/libraries/TransferHelper.sol\":982:989  success */\n      dup2\n        /* \"v2-periphery-master/v2-periphery-master/contracts/libraries/TransferHelper.sol\":982:1039  success && (data.length == 0 || abi.decode(data, (bool))) */\n      dup1\n      iszero\n      tag_61\n      jumpi\n      pop\n        /* \"v2-periphery-master/v2-periphery-master/contracts/libraries/TransferHelper.sol\":994:1005  data.length */\n      dup1\n      mload\n        /* \"v2-periphery-master/v2-periphery-master/contracts/libraries/TransferHelper.sol\":994:1010  data.length == 0 */\n      iszero\n      dup1\n        /* \"v2-periphery-master/v2-periphery-master/contracts/libraries/TransferHelper.sol\":994:1038  data.length == 0 || abi.decode(data, (bool)) */\n      tag_61\n      jumpi\n      pop\n        /* \"v2-periphery-master/v2-periphery-master/contracts/libraries/TransferHelper.sol\":1025:1029  data */\n      dup1\n        /* \"v2-periphery-master/v2-periphery-master/contracts/libraries/TransferHelper.sol\":1014:1038  abi.decode(data, (bool)) */\n      dup1\n      0x20\n      add\n      swap1\n      mload\n        /* \"--CODEGEN--\":15:17   */\n      0x20\n        /* \"--CODEGEN--\":10:13   */\n      dup2\n        /* \"--CODEGEN--\":7:18   */\n      lt\n        /* \"--CODEGEN--\":4:6   */\n      iszero\n      tag_62\n      jumpi\n        /* \"--CODEGEN--\":31:32   */\n      0x00\n        /* \"--CODEGEN--\":28:29   */\n      dup1\n        /* \"--CODEGEN--\":21:33   */\n      revert\n        /* \"--CODEGEN--\":4:6   */\n    tag_62:\n      pop\n        /* \"v2-periphery-master/v2-periphery-master/contracts/libraries/TransferHelper.sol\":1014:1038  abi.decode(data, (bool)) */\n      mload\n        /* \"v2-periphery-master/v2-periphery-master/contracts/libraries/TransferHelper.sol\":994:1038  data.length == 0 || abi.decode(data, (bool)) */\n    tag_61:\n        /* \"v2-periphery-master/v2-periphery-master/contracts/libraries/TransferHelper.sol\":960:1112  require(\r... */\n      tag_52\n      jumpi\n      mload(0x40)\n      shl(0xe5, 0x461bcd)\n      dup2\n      mstore\n      0x04\n      add\n      dup1\n      dup1\n      0x20\n      add\n      dup3\n      dup2\n      sub\n      dup3\n      mstore\n      0x2d\n      dup2\n      mstore\n      0x20\n      add\n      dup1\n      data_daea69421eeb1164e163c36f3d4349f0db3ec4e0d1381bd5bf4faf53496c2611\n      0x2d\n      swap2\n      codecopy\n      0x40\n      add\n      swap2\n      pop\n      pop\n      mload(0x40)\n      dup1\n      swap2\n      sub\n      swap1\n      revert\n        /* \"v2-periphery-master/v2-periphery-master/contracts/libraries/TransferHelper.sol\":1634:1851  function safeTransferETH(address to, uint256 value) internal {\r... */\n    tag_41:\n        /* \"v2-periphery-master/v2-periphery-master/contracts/libraries/TransferHelper.sol\":1747:1759  new bytes(0) */\n      0x40\n      dup1\n      mload\n        /* \"v2-periphery-master/v2-periphery-master/contracts/libraries/TransferHelper.sol\":1707:1719  bool success */\n      0x00\n        /* \"v2-periphery-master/v2-periphery-master/contracts/libraries/TransferHelper.sol\":1747:1759  new bytes(0) */\n      dup1\n      dup3\n      mstore\n      0x20\n      dup3\n      add\n      swap1\n      swap3\n      mstore\n      sub(shl(0xa0, 0x01), 0x01)\n        /* \"v2-periphery-master/v2-periphery-master/contracts/libraries/TransferHelper.sol\":1725:1732  to.call */\n      dup5\n      and\n      swap1\n        /* \"v2-periphery-master/v2-periphery-master/contracts/libraries/TransferHelper.sol\":1740:1745  value */\n      dup4\n      swap1\n        /* \"v2-periphery-master/v2-periphery-master/contracts/libraries/TransferHelper.sol\":1725:1760  to.call{value: value}(new bytes(0)) */\n      mload(0x40)\n      dup1\n      dup3\n      dup1\n      mload\n      swap1\n      0x20\n      add\n      swap1\n      dup1\n      dup4\n      dup4\n        /* \"--CODEGEN--\":36:189   */\n    tag_67:\n        /* \"--CODEGEN--\":66:68   */\n      0x20\n        /* \"--CODEGEN--\":61:64   */\n      dup4\n        /* \"--CODEGEN--\":58:69   */\n      lt\n        /* \"--CODEGEN--\":36:189   */\n      tag_69\n      jumpi\n        /* \"--CODEGEN--\":176:186   */\n      dup1\n      mload\n        /* \"--CODEGEN--\":164:187   */\n      dup3\n      mstore\n      not(0x1f)\n        /* \"--CODEGEN--\":139:151   */\n      swap1\n      swap3\n      add\n      swap2\n        /* \"--CODEGEN--\":98:100   */\n      0x20\n        /* \"--CODEGEN--\":89:101   */\n      swap2\n      dup3\n      add\n      swap2\n        /* \"--CODEGEN--\":114:126   */\n      add\n        /* \"--CODEGEN--\":36:189   */\n      jump(tag_67)\n    tag_69:\n        /* \"--CODEGEN--\":274:275   */\n      0x01\n        /* \"--CODEGEN--\":267:270   */\n      dup4\n        /* \"--CODEGEN--\":263:265   */\n      0x20\n        /* \"--CODEGEN--\":259:271   */\n      sub\n        /* \"--CODEGEN--\":254:257   */\n      0x0100\n        /* \"--CODEGEN--\":250:272   */\n      exp\n        /* \"--CODEGEN--\":246:276   */\n      sub\n        /* \"--CODEGEN--\":315:319   */\n      dup1\n        /* \"--CODEGEN--\":311:320   */\n      not\n        /* \"--CODEGEN--\":305:308   */\n      dup3\n        /* \"--CODEGEN--\":299:309   */\n      mload\n        /* \"--CODEGEN--\":295:321   */\n      and\n        /* \"--CODEGEN--\":356:360   */\n      dup2\n        /* \"--CODEGEN--\":350:353   */\n      dup5\n        /* \"--CODEGEN--\":344:354   */\n      mload\n        /* \"--CODEGEN--\":340:361   */\n      and\n        /* \"--CODEGEN--\":389:396   */\n      dup1\n        /* \"--CODEGEN--\":380:387   */\n      dup3\n        /* \"--CODEGEN--\":377:397   */\n      or\n        /* \"--CODEGEN--\":372:375   */\n      dup6\n        /* \"--CODEGEN--\":365:398   */\n      mstore\n        /* \"--CODEGEN--\":3:402   */\n      pop\n      pop\n      pop\n        /* \"v2-periphery-master/v2-periphery-master/contracts/libraries/TransferHelper.sol\":1725:1760  to.call{value: value}(new bytes(0)) */\n      pop\n      pop\n      pop\n      swap1\n      pop\n      add\n      swap2\n      pop\n      pop\n      0x00\n      mload(0x40)\n      dup1\n      dup4\n      sub\n      dup2\n      dup6\n      dup8\n      gas\n      call\n      swap3\n      pop\n      pop\n      pop\n      returndatasize\n        /* \"--CODEGEN--\":12:13   */\n      dup1\n        /* \"--CODEGEN--\":19:20   */\n      0x00\n        /* \"--CODEGEN--\":14:41   */\n      dup2\n      eq\n      tag_72\n      jumpi\n        /* \"--CODEGEN--\":67:71   */\n      0x40\n        /* \"--CODEGEN--\":61:72   */\n      mload\n        /* \"--CODEGEN--\":56:72   */\n      swap2\n      pop\n        /* \"--CODEGEN--\":134:138   */\n      0x1f\n        /* \"--CODEGEN--\":130:139   */\n      not\n        /* \"--CODEGEN--\":123:127   */\n      0x3f\n        /* \"--CODEGEN--\":105:121   */\n      returndatasize\n        /* \"--CODEGEN--\":101:128   */\n      add\n        /* \"--CODEGEN--\":97:140   */\n      and\n        /* \"--CODEGEN--\":94:95   */\n      dup3\n        /* \"--CODEGEN--\":90:141   */\n      add\n        /* \"--CODEGEN--\":84:88   */\n      0x40\n        /* \"--CODEGEN--\":77:142   */\n      mstore\n        /* \"--CODEGEN--\":157:173   */\n      returndatasize\n        /* \"--CODEGEN--\":154:155   */\n      dup3\n        /* \"--CODEGEN--\":147:174   */\n      mstore\n        /* \"--CODEGEN--\":211:227   */\n      returndatasize\n        /* \"--CODEGEN--\":208:209   */\n      0x00\n        /* \"--CODEGEN--\":201:205   */\n      0x20\n        /* \"--CODEGEN--\":198:199   */\n      dup5\n        /* \"--CODEGEN--\":194:206   */\n      add\n        /* \"--CODEGEN--\":179:228   */\n      returndatacopy\n        /* \"--CODEGEN--\":5:233   */\n      jump(tag_71)\n        /* \"--CODEGEN--\":14:41   */\n    tag_72:\n        /* \"--CODEGEN--\":32:36   */\n      0x60\n        /* \"--CODEGEN--\":27:36   */\n      swap2\n      pop\n        /* \"--CODEGEN--\":5:233   */\n    tag_71:\n      pop\n        /* \"v2-periphery-master/v2-periphery-master/contracts/libraries/TransferHelper.sol\":1706:1760  (bool success, ) = to.call{value: value}(new bytes(0)) */\n      pop\n      swap1\n      pop\n        /* \"v2-periphery-master/v2-periphery-master/contracts/libraries/TransferHelper.sol\":1779:1786  success */\n      dup1\n        /* \"v2-periphery-master/v2-periphery-master/contracts/libraries/TransferHelper.sol\":1771:1843  require(success, 'TransferHelper::safeTransferETH: ETH transfer failed') */\n      tag_73\n      jumpi\n      mload(0x40)\n      shl(0xe5, 0x461bcd)\n      dup2\n      mstore\n      0x04\n      add\n      dup1\n      dup1\n      0x20\n      add\n      dup3\n      dup2\n      sub\n      dup3\n      mstore\n      0x34\n      dup2\n      mstore\n      0x20\n      add\n      dup1\n      data_43d7bec223ecf9eb06ea147e7d564bc71c2448662d62a4ea86ce71fc4518b350\n      0x34\n      swap2\n      codecopy\n      0x40\n      add\n      swap2\n      pop\n      pop\n      mload(0x40)\n      dup1\n      swap2\n      sub\n      swap1\n      revert\n    tag_73:\n        /* \"v2-periphery-master/v2-periphery-master/contracts/libraries/TransferHelper.sol\":1634:1851  function safeTransferETH(address to, uint256 value) internal {\r... */\n      pop\n      pop\n      pop\n      jump\t// out\n    stop\n    data_43d7bec223ecf9eb06ea147e7d564bc71c2448662d62a4ea86ce71fc4518b350 5472616e7366657248656c7065723a3a736166655472616e736665724554483a20455448207472616e73666572206661696c6564\n    data_b4dd1eb4be82119fd3a99acfb5dd4c57591eb0ea309359b1af3d65a4460c7123 5472616e7366657248656c7065723a3a73616665417070726f76653a20617070726f7665206661696c6564\n    data_daea69421eeb1164e163c36f3d4349f0db3ec4e0d1381bd5bf4faf53496c2611 5472616e7366657248656c7065723a3a736166655472616e736665723a207472616e73666572206661696c6564\n\n    auxdata: 0xa2646970667358221220a78f1fc708369815c9ea3b5e7f0e15fcd4a48f694b57f08c2d307680390b3dab64736f6c63430006060033\n}\n",
				"bytecode": {
					"linkReferences": {},
					"object": "60c060405234801561001057600080fd5b506040516109443803806109448339818101604052604081101561003357600080fd5b5080516020909101516001600160601b0319606092831b8116608052911b1660a05260805160601c60a05160601c6108bd6100876000398061030752806103775280610409525080608352506108bd6000f3fe6080604052600436106100225760003560e01c8063b7df1d251461002e57610029565b3661002957005b600080fd5b34801561003a57600080fd5b5061007d600480360360a081101561005157600080fd5b506001600160a01b0381358116916020810135916040820135916060810135909116906080013561007f565b005b60007f00000000000000000000000000000000000000000000000000000000000000006001600160a01b03166306f2bf62876040518263ffffffff1660e01b815260040180826001600160a01b03166001600160a01b0316815260200191505060206040518083038186803b1580156100f757600080fd5b505afa15801561010b573d6000803e3d6000fd5b505050506040513d602081101561012157600080fd5b5051604080516370a0823160e01b815233600482015290519192506000916001600160a01b038416916370a08231916024808301926020929190829003018186803b15801561016f57600080fd5b505afa158015610183573d6000803e3d6000fd5b505050506040513d602081101561019957600080fd5b5051604080516323b872dd60e01b81523360048201523060248201526044810183905290519192506001600160a01b038416916323b872dd916064808201926020929091908290030181600087803b1580156101f457600080fd5b505af1158015610208573d6000803e3d6000fd5b505050506040513d602081101561021e57600080fd5b5051610268576040805162461bcd60e51b81526020600482015260146024820152731514905394d1915497d19493d357d1905253115160621b604482015290519081900360640190fd5b60408051637c45f8ad60e11b81526004810183905260016024820181905260448201526000196064820152815160009283926001600160a01b0387169263f88bf15a9260848084019391929182900301818787803b1580156102c957600080fd5b505af11580156102dd573d6000803e3d6000fd5b505050506040513d60408110156102f357600080fd5b508051602090910151909250905061032c897f000000000000000000000000000000000000000000000000000000000000000083610462565b6040805163f305d71960e01b81526001600160a01b038b8116600483015260248201849052604482018b9052606482018a9052888116608483015260a48201889052915160009283927f00000000000000000000000000000000000000000000000000000000000000009091169163f305d71991879160c480830192606092919082900301818588803b1580156103c257600080fd5b505af11580156103d6573d6000803e3d6000fd5b50505050506040513d60608110156103ed57600080fd5b5080516020909101519092509050818311156104415761042f8b7f00000000000000000000000000000000000000000000000000000000000000006000610462565b61043c8b338486036105b6565b610455565b808411156104555761045533828603610703565b5050505050505050505050565b604080516001600160a01b038481166024830152604480830185905283518084039091018152606490920183526020820180516001600160e01b031663095ea7b360e01b178152925182516000946060949389169392918291908083835b602083106104df5780518252601f1990920191602091820191016104c0565b6001836020036101000a0380198251168184511680821785525050505050509050019150506000604051808303816000865af19150503d8060008114610541576040519150601f19603f3d011682016040523d82523d6000602084013e610546565b606091505b5091509150818015610574575080511580610574575080806020019051602081101561057157600080fd5b50515b6105af5760405162461bcd60e51b815260040180806020018281038252602b815260200180610830602b913960400191505060405180910390fd5b5050505050565b604080516001600160a01b038481166024830152604480830185905283518084039091018152606490920183526020820180516001600160e01b031663a9059cbb60e01b178152925182516000946060949389169392918291908083835b602083106106335780518252601f199092019160209182019101610614565b6001836020036101000a0380198251168184511680821785525050505050509050019150506000604051808303816000865af19150503d8060008114610695576040519150601f19603f3d011682016040523d82523d6000602084013e61069a565b606091505b50915091508180156106c85750805115806106c857508080602001905160208110156106c557600080fd5b50515b6105af5760405162461bcd60e51b815260040180806020018281038252602d81526020018061085b602d913960400191505060405180910390fd5b604080516000808252602082019092526001600160a01b0384169083906040518082805190602001908083835b6020831061074f5780518252601f199092019160209182019101610730565b6001836020036101000a03801982511681845116808217855250505050505090500191505060006040518083038185875af1925050503d80600081146107b1576040519150601f19603f3d011682016040523d82523d6000602084013e6107b6565b606091505b50509050806107f65760405162461bcd60e51b81526004018080602001828103825260348152602001806107fc6034913960400191505060405180910390fd5b50505056fe5472616e7366657248656c7065723a3a736166655472616e736665724554483a20455448207472616e73666572206661696c65645472616e7366657248656c7065723a3a73616665417070726f76653a20617070726f7665206661696c65645472616e7366657248656c7065723a3a736166655472616e736665723a207472616e73666572206661696c6564a2646970667358221220a78f1fc708369815c9ea3b5e7f0e15fcd4a48f694b57f08c2d307680390b3dab64736f6c63430006060033",
					"opcodes": "PUSH1 0xC0 PUSH1 0x40 MSTORE CALLVALUE DUP1 ISZERO PUSH2 0x10 JUMPI PUSH1 0x0 DUP1 REVERT JUMPDEST POP PUSH1 0x40 MLOAD PUSH2 0x944 CODESIZE SUB DUP1 PUSH2 0x944 DUP4 CODECOPY DUP2 DUP2 ADD PUSH1 0x40 MSTORE PUSH1 0x40 DUP2 LT ISZERO PUSH2 0x33 JUMPI PUSH1 0x0 DUP1 REVERT JUMPDEST POP DUP1 MLOAD PUSH1 0x20 SWAP1 SWAP2 ADD MLOAD PUSH1 0x1 PUSH1 0x1 PUSH1 0x60 SHL SUB NOT PUSH1 0x60 SWAP3 DUP4 SHL DUP2 AND PUSH1 0x80 MSTORE SWAP2 SHL AND PUSH1 0xA0 MSTORE PUSH1 0x80 MLOAD PUSH1 0x60 SHR PUSH1 0xA0 MLOAD PUSH1 0x60 SHR PUSH2 0x8BD PUSH2 0x87 PUSH1 0x0 CODECOPY DUP1 PUSH2 0x307 MSTORE DUP1 PUSH2 0x377 MSTORE DUP1 PUSH2 0x409 MSTORE POP DUP1 PUSH1 0x83 MSTORE POP PUSH2 0x8BD PUSH1 0x0 RETURN INVALID PUSH1 0x80 PUSH1 0x40 MSTORE PUSH1 0x4 CALLDATASIZE LT PUSH2 0x22 JUMPI PUSH1 0x0 CALLDATALOAD PUSH1 0xE0 SHR DUP1 PUSH4 0xB7DF1D25 EQ PUSH2 0x2E JUMPI PUSH2 0x29 JUMP JUMPDEST CALLDATASIZE PUSH2 0x29 JUMPI STOP JUMPDEST PUSH1 0x0 DUP1 REVERT JUMPDEST CALLVALUE DUP1 ISZERO PUSH2 0x3A JUMPI PUSH1 0x0 DUP1 REVERT JUMPDEST POP PUSH2 0x7D PUSH1 0x4 DUP1 CALLDATASIZE SUB PUSH1 0xA0 DUP2 LT ISZERO PUSH2 0x51 JUMPI PUSH1 0x0 DUP1 REVERT JUMPDEST POP PUSH1 0x1 PUSH1 0x1 PUSH1 0xA0 SHL SUB DUP2 CALLDATALOAD DUP2 AND SWAP2 PUSH1 0x20 DUP2 ADD CALLDATALOAD SWAP2 PUSH1 0x40 DUP3 ADD CALLDATALOAD SWAP2 PUSH1 0x60 DUP2 ADD CALLDATALOAD SWAP1 SWAP2 AND SWAP1 PUSH1 0x80 ADD CALLDATALOAD PUSH2 0x7F JUMP JUMPDEST STOP JUMPDEST PUSH1 0x0 PUSH32 0x0 PUSH1 0x1 PUSH1 0x1 PUSH1 0xA0 SHL SUB AND PUSH4 0x6F2BF62 DUP8 PUSH1 0x40 MLOAD DUP3 PUSH4 0xFFFFFFFF AND PUSH1 0xE0 SHL DUP2 MSTORE PUSH1 0x4 ADD DUP1 DUP3 PUSH1 0x1 PUSH1 0x1 PUSH1 0xA0 SHL SUB AND PUSH1 0x1 PUSH1 0x1 PUSH1 0xA0 SHL SUB AND DUP2 MSTORE PUSH1 0x20 ADD SWAP2 POP POP PUSH1 0x20 PUSH1 0x40 MLOAD DUP1 DUP4 SUB DUP2 DUP7 DUP1 EXTCODESIZE ISZERO DUP1 ISZERO PUSH2 0xF7 JUMPI PUSH1 0x0 DUP1 REVERT JUMPDEST POP GAS STATICCALL ISZERO DUP1 ISZERO PUSH2 0x10B JUMPI RETURNDATASIZE PUSH1 0x0 DUP1 RETURNDATACOPY RETURNDATASIZE PUSH1 0x0 REVERT JUMPDEST POP POP POP POP PUSH1 0x40 MLOAD RETURNDATASIZE PUSH1 0x20 DUP2 LT ISZERO PUSH2 0x121 JUMPI PUSH1 0x0 DUP1 REVERT JUMPDEST POP MLOAD PUSH1 0x40 DUP1 MLOAD PUSH4 0x70A08231 PUSH1 0xE0 SHL DUP2 MSTORE CALLER PUSH1 0x4 DUP3 ADD MSTORE SWAP1 MLOAD SWAP2 SWAP3 POP PUSH1 0x0 SWAP2 PUSH1 0x1 PUSH1 0x1 PUSH1 0xA0 SHL SUB DUP5 AND SWAP2 PUSH4 0x70A08231 SWAP2 PUSH1 0x24 DUP1 DUP4 ADD SWAP3 PUSH1 0x20 SWAP3 SWAP2 SWAP1 DUP3 SWAP1 SUB ADD DUP2 DUP7 DUP1 EXTCODESIZE ISZERO DUP1 ISZERO PUSH2 0x16F JUMPI PUSH1 0x0 DUP1 REVERT JUMPDEST POP GAS STATICCALL ISZERO DUP1 ISZERO PUSH2 0x183 JUMPI RETURNDATASIZE PUSH1 0x0 DUP1 RETURNDATACOPY RETURNDATASIZE PUSH1 0x0 REVERT JUMPDEST POP POP POP POP PUSH1 0x40 MLOAD RETURNDATASIZE PUSH1 0x20 DUP2 LT ISZERO PUSH2 0x199 JUMPI PUSH1 0x0 DUP1 REVERT JUMPDEST POP MLOAD PUSH1 0x40 DUP1 MLOAD PUSH4 0x23B872DD PUSH1 0xE0 SHL DUP2 MSTORE CALLER PUSH1 0x4 DUP3 ADD MSTORE ADDRESS PUSH1 0x24 DUP3 ADD MSTORE PUSH1 0x44 DUP2 ADD DUP4 SWAP1 MSTORE SWAP1 MLOAD SWAP2 SWAP3 POP PUSH1 0x1 PUSH1 0x1 PUSH1 0xA0 SHL SUB DUP5 AND SWAP2 PUSH4 0x23B872DD SWAP2 PUSH1 0x64 DUP1 DUP3 ADD SWAP3 PUSH1 0x20 SWAP3 SWAP1 SWAP2 SWAP1 DUP3 SWAP1 SUB ADD DUP2 PUSH1 0x0 DUP8 DUP1 EXTCODESIZE ISZERO DUP1 ISZERO PUSH2 0x1F4 JUMPI PUSH1 0x0 DUP1 REVERT JUMPDEST POP GAS CALL ISZERO DUP1 ISZERO PUSH2 0x208 JUMPI RETURNDATASIZE PUSH1 0x0 DUP1 RETURNDATACOPY RETURNDATASIZE PUSH1 0x0 REVERT JUMPDEST POP POP POP POP PUSH1 0x40 MLOAD RETURNDATASIZE PUSH1 0x20 DUP2 LT ISZERO PUSH2 0x21E JUMPI PUSH1 0x0 DUP1 REVERT JUMPDEST POP MLOAD PUSH2 0x268 JUMPI PUSH1 0x40 DUP1 MLOAD PUSH3 0x461BCD PUSH1 0xE5 SHL DUP2 MSTORE PUSH1 0x20 PUSH1 0x4 DUP3 ADD MSTORE PUSH1 0x14 PUSH1 0x24 DUP3 ADD MSTORE PUSH20 0x1514905394D1915497D19493D357D19052531151 PUSH1 0x62 SHL PUSH1 0x44 DUP3 ADD MSTORE SWAP1 MLOAD SWAP1 DUP2 SWAP1 SUB PUSH1 0x64 ADD SWAP1 REVERT JUMPDEST PUSH1 0x40 DUP1 MLOAD PUSH4 0x7C45F8AD PUSH1 0xE1 SHL DUP2 MSTORE PUSH1 0x4 DUP2 ADD DUP4 SWAP1 MSTORE PUSH1 0x1 PUSH1 0x24 DUP3 ADD DUP2 SWAP1 MSTORE PUSH1 0x44 DUP3 ADD MSTORE PUSH1 0x0 NOT PUSH1 0x64 DUP3 ADD MSTORE DUP2 MLOAD PUSH1 0x0 SWAP3 DUP4 SWAP3 PUSH1 0x1 PUSH1 0x1 PUSH1 0xA0 SHL SUB DUP8 AND SWAP3 PUSH4 0xF88BF15A SWAP3 PUSH1 0x84 DUP1 DUP5 ADD SWAP4 SWAP2 SWAP3 SWAP2 DUP3 SWAP1 SUB ADD DUP2 DUP8 DUP8 DUP1 EXTCODESIZE ISZERO DUP1 ISZERO PUSH2 0x2C9 JUMPI PUSH1 0x0 DUP1 REVERT JUMPDEST POP GAS CALL ISZERO DUP1 ISZERO PUSH2 0x2DD JUMPI RETURNDATASIZE PUSH1 0x0 DUP1 RETURNDATACOPY RETURNDATASIZE PUSH1 0x0 REVERT JUMPDEST POP POP POP POP PUSH1 0x40 MLOAD RETURNDATASIZE PUSH1 0x40 DUP2 LT ISZERO PUSH2 0x2F3 JUMPI PUSH1 0x0 DUP1 REVERT JUMPDEST POP DUP1 MLOAD PUSH1 0x20 SWAP1 SWAP2 ADD MLOAD SWAP1 SWAP3 POP SWAP1 POP PUSH2 0x32C DUP10 PUSH32 0x0 DUP4 PUSH2 0x462 JUMP JUMPDEST PUSH1 0x40 DUP1 MLOAD PUSH4 0xF305D719 PUSH1 0xE0 SHL DUP2 MSTORE PUSH1 0x1 PUSH1 0x1 PUSH1 0xA0 SHL SUB DUP12 DUP2 AND PUSH1 0x4 DUP4 ADD MSTORE PUSH1 0x24 DUP3 ADD DUP5 SWAP1 MSTORE PUSH1 0x44 DUP3 ADD DUP12 SWAP1 MSTORE PUSH1 0x64 DUP3 ADD DUP11 SWAP1 MSTORE DUP9 DUP2 AND PUSH1 0x84 DUP4 ADD MSTORE PUSH1 0xA4 DUP3 ADD DUP9 SWAP1 MSTORE SWAP2 MLOAD PUSH1 0x0 SWAP3 DUP4 SWAP3 PUSH32 0x0 SWAP1 SWAP2 AND SWAP2 PUSH4 0xF305D719 SWAP2 DUP8 SWAP2 PUSH1 0xC4 DUP1 DUP4 ADD SWAP3 PUSH1 0x60 SWAP3 SWAP2 SWAP1 DUP3 SWAP1 SUB ADD DUP2 DUP6 DUP9 DUP1 EXTCODESIZE ISZERO DUP1 ISZERO PUSH2 0x3C2 JUMPI PUSH1 0x0 DUP1 REVERT JUMPDEST POP GAS CALL ISZERO DUP1 ISZERO PUSH2 0x3D6 JUMPI RETURNDATASIZE PUSH1 0x0 DUP1 RETURNDATACOPY RETURNDATASIZE PUSH1 0x0 REVERT JUMPDEST POP POP POP POP POP PUSH1 0x40 MLOAD RETURNDATASIZE PUSH1 0x60 DUP2 LT ISZERO PUSH2 0x3ED JUMPI PUSH1 0x0 DUP1 REVERT JUMPDEST POP DUP1 MLOAD PUSH1 0x20 SWAP1 SWAP2 ADD MLOAD SWAP1 SWAP3 POP SWAP1 POP DUP2 DUP4 GT ISZERO PUSH2 0x441 JUMPI PUSH2 0x42F DUP12 PUSH32 0x0 PUSH1 0x0 PUSH2 0x462 JUMP JUMPDEST PUSH2 0x43C DUP12 CALLER DUP5 DUP7 SUB PUSH2 0x5B6 JUMP JUMPDEST PUSH2 0x455 JUMP JUMPDEST DUP1 DUP5 GT ISZERO PUSH2 0x455 JUMPI PUSH2 0x455 CALLER DUP3 DUP7 SUB PUSH2 0x703 JUMP JUMPDEST POP POP POP POP POP POP POP POP POP POP POP JUMP JUMPDEST PUSH1 0x40 DUP1 MLOAD PUSH1 0x1 PUSH1 0x1 PUSH1 0xA0 SHL SUB DUP5 DUP2 AND PUSH1 0x24 DUP4 ADD MSTORE PUSH1 0x44 DUP1 DUP4 ADD DUP6 SWAP1 MSTORE DUP4 MLOAD DUP1 DUP5 SUB SWAP1 SWAP2 ADD DUP2 MSTORE PUSH1 0x64 SWAP1 SWAP3 ADD DUP4 MSTORE PUSH1 0x20 DUP3 ADD DUP1 MLOAD PUSH1 0x1 PUSH1 0x1 PUSH1 0xE0 SHL SUB AND PUSH4 0x95EA7B3 PUSH1 0xE0 SHL OR DUP2 MSTORE SWAP3 MLOAD DUP3 MLOAD PUSH1 0x0 SWAP5 PUSH1 0x60 SWAP5 SWAP4 DUP10 AND SWAP4 SWAP3 SWAP2 DUP3 SWAP2 SWAP1 DUP1 DUP4 DUP4 JUMPDEST PUSH1 0x20 DUP4 LT PUSH2 0x4DF JUMPI DUP1 MLOAD DUP3 MSTORE PUSH1 0x1F NOT SWAP1 SWAP3 ADD SWAP2 PUSH1 0x20 SWAP2 DUP3 ADD SWAP2 ADD PUSH2 0x4C0 JUMP JUMPDEST PUSH1 0x1 DUP4 PUSH1 0x20 SUB PUSH2 0x100 EXP SUB DUP1 NOT DUP3 MLOAD AND DUP2 DUP5 MLOAD AND DUP1 DUP3 OR DUP6 MSTORE POP POP POP POP POP POP SWAP1 POP ADD SWAP2 POP POP PUSH1 0x0 PUSH1 0x40 MLOAD DUP1 DUP4 SUB DUP2 PUSH1 0x0 DUP7 GAS CALL SWAP2 POP POP RETURNDATASIZE DUP1 PUSH1 0x0 DUP2 EQ PUSH2 0x541 JUMPI PUSH1 0x40 MLOAD SWAP2 POP PUSH1 0x1F NOT PUSH1 0x3F RETURNDATASIZE ADD AND DUP3 ADD PUSH1 0x40 MSTORE RETURNDATASIZE DUP3 MSTORE RETURNDATASIZE PUSH1 0x0 PUSH1 0x20 DUP5 ADD RETURNDATACOPY PUSH2 0x546 JUMP JUMPDEST PUSH1 0x60 SWAP2 POP JUMPDEST POP SWAP2 POP SWAP2 POP DUP2 DUP1 ISZERO PUSH2 0x574 JUMPI POP DUP1 MLOAD ISZERO DUP1 PUSH2 0x574 JUMPI POP DUP1 DUP1 PUSH1 0x20 ADD SWAP1 MLOAD PUSH1 0x20 DUP2 LT ISZERO PUSH2 0x571 JUMPI PUSH1 0x0 DUP1 REVERT JUMPDEST POP MLOAD JUMPDEST PUSH2 0x5AF JUMPI PUSH1 0x40 MLOAD PUSH3 0x461BCD PUSH1 0xE5 SHL DUP2 MSTORE PUSH1 0x4 ADD DUP1 DUP1 PUSH1 0x20 ADD DUP3 DUP2 SUB DUP3 MSTORE PUSH1 0x2B DUP2 MSTORE PUSH1 0x20 ADD DUP1 PUSH2 0x830 PUSH1 0x2B SWAP2 CODECOPY PUSH1 0x40 ADD SWAP2 POP POP PUSH1 0x40 MLOAD DUP1 SWAP2 SUB SWAP1 REVERT JUMPDEST POP POP POP POP POP JUMP JUMPDEST PUSH1 0x40 DUP1 MLOAD PUSH1 0x1 PUSH1 0x1 PUSH1 0xA0 SHL SUB DUP5 DUP2 AND PUSH1 0x24 DUP4 ADD MSTORE PUSH1 0x44 DUP1 DUP4 ADD DUP6 SWAP1 MSTORE DUP4 MLOAD DUP1 DUP5 SUB SWAP1 SWAP2 ADD DUP2 MSTORE PUSH1 0x64 SWAP1 SWAP3 ADD DUP4 MSTORE PUSH1 0x20 DUP3 ADD DUP1 MLOAD PUSH1 0x1 PUSH1 0x1 PUSH1 0xE0 SHL SUB AND PUSH4 0xA9059CBB PUSH1 0xE0 SHL OR DUP2 MSTORE SWAP3 MLOAD DUP3 MLOAD PUSH1 0x0 SWAP5 PUSH1 0x60 SWAP5 SWAP4 DUP10 AND SWAP4 SWAP3 SWAP2 DUP3 SWAP2 SWAP1 DUP1 DUP4 DUP4 JUMPDEST PUSH1 0x20 DUP4 LT PUSH2 0x633 JUMPI DUP1 MLOAD DUP3 MSTORE PUSH1 0x1F NOT SWAP1 SWAP3 ADD SWAP2 PUSH1 0x20 SWAP2 DUP3 ADD SWAP2 ADD PUSH2 0x614 JUMP JUMPDEST PUSH1 0x1 DUP4 PUSH1 0x20 SUB PUSH2 0x100 EXP SUB DUP1 NOT DUP3 MLOAD AND DUP2 DUP5 MLOAD AND DUP1 DUP3 OR DUP6 MSTORE POP POP POP POP POP POP SWAP1 POP ADD SWAP2 POP POP PUSH1 0x0 PUSH1 0x40 MLOAD DUP1 DUP4 SUB DUP2 PUSH1 0x0 DUP7 GAS CALL SWAP2 POP POP RETURNDATASIZE DUP1 PUSH1 0x0 DUP2 EQ PUSH2 0x695 JUMPI PUSH1 0x40 MLOAD SWAP2 POP PUSH1 0x1F NOT PUSH1 0x3F RETURNDATASIZE ADD AND DUP3 ADD PUSH1 0x40 MSTORE RETURNDATASIZE DUP3 MSTORE RETURNDATASIZE PUSH1 0x0 PUSH1 0x20 DUP5 ADD RETURNDATACOPY PUSH2 0x69A JUMP JUMPDEST PUSH1 0x60 SWAP2 POP JUMPDEST POP SWAP2 POP SWAP2 POP DUP2 DUP1 ISZERO PUSH2 0x6C8 JUMPI POP DUP1 MLOAD ISZERO DUP1 PUSH2 0x6C8 JUMPI POP DUP1 DUP1 PUSH1 0x20 ADD SWAP1 MLOAD PUSH1 0x20 DUP2 LT ISZERO PUSH2 0x6C5 JUMPI PUSH1 0x0 DUP1 REVERT JUMPDEST POP MLOAD JUMPDEST PUSH2 0x5AF JUMPI PUSH1 0x40 MLOAD PUSH3 0x461BCD PUSH1 0xE5 SHL DUP2 MSTORE PUSH1 0x4 ADD DUP1 DUP1 PUSH1 0x20 ADD DUP3 DUP2 SUB DUP3 MSTORE PUSH1 0x2D DUP2 MSTORE PUSH1 0x20 ADD DUP1 PUSH2 0x85B PUSH1 0x2D SWAP2 CODECOPY PUSH1 0x40 ADD SWAP2 POP POP PUSH1 0x40 MLOAD DUP1 SWAP2 SUB SWAP1 REVERT JUMPDEST PUSH1 0x40 DUP1 MLOAD PUSH1 0x0 DUP1 DUP3 MSTORE PUSH1 0x20 DUP3 ADD SWAP1 SWAP3 MSTORE PUSH1 0x1 PUSH1 0x1 PUSH1 0xA0 SHL SUB DUP5 AND SWAP1 DUP4 SWAP1 PUSH1 0x40 MLOAD DUP1 DUP3 DUP1 MLOAD SWAP1 PUSH1 0x20 ADD SWAP1 DUP1 DUP4 DUP4 JUMPDEST PUSH1 0x20 DUP4 LT PUSH2 0x74F JUMPI DUP1 MLOAD DUP3 MSTORE PUSH1 0x1F NOT SWAP1 SWAP3 ADD SWAP2 PUSH1 0x20 SWAP2 DUP3 ADD SWAP2 ADD PUSH2 0x730 JUMP JUMPDEST PUSH1 0x1 DUP4 PUSH1 0x20 SUB PUSH2 0x100 EXP SUB DUP1 NOT DUP3 MLOAD AND DUP2 DUP5 MLOAD AND DUP1 DUP3 OR DUP6 MSTORE POP POP POP POP POP POP SWAP1 POP ADD SWAP2 POP POP PUSH1 0x0 PUSH1 0x40 MLOAD DUP1 DUP4 SUB DUP2 DUP6 DUP8 GAS CALL SWAP3 POP POP POP RETURNDATASIZE DUP1 PUSH1 0x0 DUP2 EQ PUSH2 0x7B1 JUMPI PUSH1 0x40 MLOAD SWAP2 POP PUSH1 0x1F NOT PUSH1 0x3F RETURNDATASIZE ADD AND DUP3 ADD PUSH1 0x40 MSTORE RETURNDATASIZE DUP3 MSTORE RETURNDATASIZE PUSH1 0x0 PUSH1 0x20 DUP5 ADD RETURNDATACOPY PUSH2 0x7B6 JUMP JUMPDEST PUSH1 0x60 SWAP2 POP JUMPDEST POP POP SWAP1 POP DUP1 PUSH2 0x7F6 JUMPI PUSH1 0x40 MLOAD PUSH3 0x461BCD PUSH1 0xE5 SHL DUP2 MSTORE PUSH1 0x4 ADD DUP1 DUP1 PUSH1 0x20 ADD DUP3 DUP2 SUB DUP3 MSTORE PUSH1 0x34 DUP2 MSTORE PUSH1 0x20 ADD DUP1 PUSH2 0x7FC PUSH1 0x34 SWAP2 CODECOPY PUSH1 0x40 ADD SWAP2 POP POP PUSH1 0x40 MLOAD DUP1 SWAP2 SUB SWAP1 REVERT JUMPDEST POP POP POP JUMP INVALID SLOAD PUSH19 0x616E7366657248656C7065723A3A7361666554 PUSH19 0x616E736665724554483A20455448207472616E PUSH20 0x666572206661696C65645472616E736665724865 PUSH13 0x7065723A3A7361666541707072 PUSH16 0x76653A20617070726F7665206661696C PUSH6 0x645472616E73 PUSH7 0x657248656C7065 PUSH19 0x3A3A736166655472616E736665723A20747261 PUSH15 0x73666572206661696C6564A2646970 PUSH7 0x7358221220A78F 0x1F 0xC7 ADDMOD CALLDATASIZE SWAP9 ISZERO 0xC9 0xEA EXTCODESIZE 0x5E PUSH32 0xE15FCD4A48F694B57F08C2D307680390B3DAB64736F6C634300060600330000 "
				},
				"gasEstimates": {
					"creation": {
						"codeDepositCost": "447400",
						"executionCost": "infinite",
						"totalCost": "infinite"
					},
					"external": {
						"migrate(address,uint256,uint256,address,uint256)": "infinite"
					}
				},
				"methodIdentifiers": {
					"migrate(address,uint256,uint256,address,uint256)": "b7df1d25"
				}
			},
			"storageLayout": {
				"storage": [],
				"types": null
			},
			"userdoc": {
				"methods": {}
			}
		}
	}
}