{
	"v2-core-master/v2-core-master/contracts/DEXV2FactoryFlat.sol": {
		"DEXV2Factory": {
			"abi": [
				{
					"inputs": [
						{
							"internalType": "address",
							"name": "_feeToSetter",
							"type": "address"
						}
					],
					"payable": false,
					"stateMutability": "nonpayable",
					"type": "constructor"
				},
				{
					"anonymous": false,
					"inputs": [
						{
							"indexed": true,
							"internalType": "address",
							"name": "token0",
							"type": "address"
						},
						{
							"indexed": true,
							"internalType": "address",
							"name": "token1",
							"type": "address"
						},
						{
							"indexed": false,
							"internalType": "address",
							"name": "pair",
							"type": "address"
						},
						{
							"indexed": false,
							"internalType": "uint256",
							"name": "",
							"type": "uint256"
						}
					],
					"name": "PairCreated",
					"type": "event"
				},
				{
					"constant": true,
					"inputs": [],
					"name": "INIT_CODE_HASH",
					"outputs": [
						{
							"internalType": "bytes32",
							"name": "",
							"type": "bytes32"
						}
					],
					"payable": false,
					"stateMutability": "view",
					"type": "function"
				},
				{
					"constant": true,
					"inputs": [
						{
							"internalType": "uint256",
							"name": "",
							"type": "uint256"
						}
					],
					"name": "allPairs",
					"outputs": [
						{
							"internalType": "address",
							"name": "",
							"type": "address"
						}
					],
					"payable": false,
					"stateMutability": "view",
					"type": "function"
				},
				{
					"constant": true,
					"inputs": [],
					"name": "allPairsLength",
					"outputs": [
						{
							"internalType": "uint256",
							"name": "",
							"type": "uint256"
						}
					],
					"payable": false,
					"stateMutability": "view",
					"type": "function"
				},
				{
					"constant": false,
					"inputs": [
						{
							"internalType": "address",
							"name": "tokenA",
							"type": "address"
						},
						{
							"internalType": "address",
							"name": "tokenB",
							"type": "address"
						}
					],
					"name": "createPair",
					"outputs": [
						{
							"internalType": "address",
							"name": "pair",
							"type": "address"
						}
					],
					"payable": false,
					"stateMutability": "nonpayable",
					"type": "function"
				},
				{
					"constant": true,
					"inputs": [],
					"name": "feeTo",
					"outputs": [
						{
							"internalType": "address",
							"name": "",
							"type": "address"
						}
					],
					"payable": false,
					"stateMutability": "view",
					"type": "function"
				},
				{
					"constant": true,
					"inputs": [],
					"name": "feeToSetter",
					"outputs": [
						{
							"internalType": "address",
							"name": "",
							"type": "address"
						}
					],
					"payable": false,
					"stateMutability": "view",
					"type": "function"
				},
				{
					"constant": true,
					"inputs": [
						{
							"internalType": "address",
							"name": "",
							"type": "address"
						},
						{
							"internalType": "address",
							"name": "",
							"type": "address"
						}
					],
					"name": "getPair",
					"outputs": [
						{
							"internalType": "address",
							"name": "",
							"type": "address"
						}
					],
					"payable": false,
					"stateMutability": "view",
					"type": "function"
				},
				{
					"constant": false,
					"inputs": [
						{
							"internalType": "address",
							"name": "_feeTo",
							"type": "address"
						}
					],
					"name": "setFeeTo",
					"outputs": [],
					"payable": false,
					"stateMutability": "nonpayable",
					"type": "function"
				},
				{
					"constant": false,
					"inputs": [
						{
							"internalType": "address",
							"name": "_feeToSetter",
							"type": "address"
						}
					],
					"name": "setFeeToSetter",
					"outputs": [],
					"payable": false,
					"stateMutability": "nonpayable",
					"type": "function"
				}
			],
			"devdoc": {
				"methods": {}
			},
			"evm": {
				"assembly": "    /* \"v2-core-master/v2-core-master/contracts/DEXV2FactoryFlat.sol\":20942:22820  contract DEXV2Factory is IDEXV2Factory {\r... */\n  mstore(0x40, 0x80)\n    /* \"v2-core-master/v2-core-master/contracts/DEXV2FactoryFlat.sol\":21354:21440  constructor(address _feeToSetter) public {\r... */\n  callvalue\n    /* \"--CODEGEN--\":8:17   */\n  dup1\n    /* \"--CODEGEN--\":5:7   */\n  iszero\n  tag_1\n  jumpi\n    /* \"--CODEGEN--\":30:31   */\n  0x00\n    /* \"--CODEGEN--\":27:28   */\n  dup1\n    /* \"--CODEGEN--\":20:32   */\n  revert\n    /* \"--CODEGEN--\":5:7   */\ntag_1:\n    /* \"v2-core-master/v2-core-master/contracts/DEXV2FactoryFlat.sol\":21354:21440  constructor(address _feeToSetter) public {\r... */\n  pop\n  mload(0x40)\n  sub(codesize, bytecodeSize)\n  dup1\n  bytecodeSize\n  dup4\n  codecopy\n  dup2\n  dup2\n  add\n  0x40\n  mstore\n    /* \"--CODEGEN--\":13:15   */\n  0x20\n    /* \"--CODEGEN--\":8:11   */\n  dup2\n    /* \"--CODEGEN--\":5:16   */\n  lt\n    /* \"--CODEGEN--\":2:4   */\n  iszero\n  tag_2\n  jumpi\n    /* \"--CODEGEN--\":29:30   */\n  0x00\n    /* \"--CODEGEN--\":26:27   */\n  dup1\n    /* \"--CODEGEN--\":19:31   */\n  revert\n    /* \"--CODEGEN--\":2:4   */\ntag_2:\n  pop\n    /* \"v2-core-master/v2-core-master/contracts/DEXV2FactoryFlat.sol\":21354:21440  constructor(address _feeToSetter) public {\r... */\n  mload\n    /* \"v2-core-master/v2-core-master/contracts/DEXV2FactoryFlat.sol\":21406:21417  feeToSetter */\n  0x01\n    /* \"v2-core-master/v2-core-master/contracts/DEXV2FactoryFlat.sol\":21406:21432  feeToSetter = _feeToSetter */\n  dup1\n  sload\n  not(sub(shl(0xa0, 0x01), 0x01))\n  and\n  sub(shl(0xa0, 0x01), 0x01)\n  swap1\n  swap3\n  and\n  swap2\n  swap1\n  swap2\n  or\n  swap1\n  sstore\n    /* \"v2-core-master/v2-core-master/contracts/DEXV2FactoryFlat.sol\":20942:22820  contract DEXV2Factory is IDEXV2Factory {\r... */\n  dataSize(sub_0)\n  dup1\n  dataOffset(sub_0)\n  0x00\n  codecopy\n  0x00\n  return\nstop\n\nsub_0: assembly {\n        /* \"v2-core-master/v2-core-master/contracts/DEXV2FactoryFlat.sol\":20942:22820  contract DEXV2Factory is IDEXV2Factory {\r... */\n      mstore(0x40, 0x80)\n      callvalue\n        /* \"--CODEGEN--\":8:17   */\n      dup1\n        /* \"--CODEGEN--\":5:7   */\n      iszero\n      tag_1\n      jumpi\n        /* \"--CODEGEN--\":30:31   */\n      0x00\n        /* \"--CODEGEN--\":27:28   */\n      dup1\n        /* \"--CODEGEN--\":20:32   */\n      revert\n        /* \"--CODEGEN--\":5:7   */\n    tag_1:\n        /* \"v2-core-master/v2-core-master/contracts/DEXV2FactoryFlat.sol\":20942:22820  contract DEXV2Factory is IDEXV2Factory {\r... */\n      pop\n      jumpi(tag_2, lt(calldatasize, 0x04))\n      shr(0xe0, calldataload(0x00))\n      dup1\n      0x574f2ba3\n      gt\n      tag_12\n      jumpi\n      dup1\n      0x574f2ba3\n      eq\n      tag_7\n      jumpi\n      dup1\n      0xa2e74af6\n      eq\n      tag_8\n      jumpi\n      dup1\n      0xc9c65396\n      eq\n      tag_9\n      jumpi\n      dup1\n      0xe6a43905\n      eq\n      tag_10\n      jumpi\n      dup1\n      0xf46901ed\n      eq\n      tag_11\n      jumpi\n      jump(tag_2)\n    tag_12:\n      dup1\n      0x017e7e58\n      eq\n      tag_3\n      jumpi\n      dup1\n      0x094b7415\n      eq\n      tag_4\n      jumpi\n      dup1\n      0x1e3dd18b\n      eq\n      tag_5\n      jumpi\n      dup1\n      0x257671f5\n      eq\n      tag_6\n      jumpi\n    tag_2:\n      0x00\n      dup1\n      revert\n        /* \"v2-core-master/v2-core-master/contracts/DEXV2FactoryFlat.sol\":20988:21008  address public feeTo */\n    tag_3:\n      tag_13\n      tag_14\n      jump\t// in\n    tag_13:\n      0x40\n      dup1\n      mload\n      sub(shl(0xa0, 0x01), 0x01)\n      swap1\n      swap3\n      and\n      dup3\n      mstore\n      mload\n      swap1\n      dup2\n      swap1\n      sub\n      0x20\n      add\n      swap1\n      return\n        /* \"v2-core-master/v2-core-master/contracts/DEXV2FactoryFlat.sol\":21015:21041  address public feeToSetter */\n    tag_4:\n      tag_13\n      tag_16\n      jump\t// in\n        /* \"v2-core-master/v2-core-master/contracts/DEXV2FactoryFlat.sol\":21226:21251  address[] public allPairs */\n    tag_5:\n      tag_13\n      0x04\n      dup1\n      calldatasize\n      sub\n        /* \"--CODEGEN--\":13:15   */\n      0x20\n        /* \"--CODEGEN--\":8:11   */\n      dup2\n        /* \"--CODEGEN--\":5:16   */\n      lt\n        /* \"--CODEGEN--\":2:4   */\n      iszero\n      tag_18\n      jumpi\n        /* \"--CODEGEN--\":29:30   */\n      0x00\n        /* \"--CODEGEN--\":26:27   */\n      dup1\n        /* \"--CODEGEN--\":19:31   */\n      revert\n        /* \"--CODEGEN--\":2:4   */\n    tag_18:\n      pop\n        /* \"v2-core-master/v2-core-master/contracts/DEXV2FactoryFlat.sol\":21226:21251  address[] public allPairs */\n      calldataload\n      tag_19\n      jump\t// in\n        /* \"v2-core-master/v2-core-master/contracts/DEXV2FactoryFlat.sol\":21050:21148  bytes32 public constant INIT_CODE_HASH = keccak256(abi.encodePacked(type(DEXV2Pair).creationCode)) */\n    tag_6:\n      tag_20\n      tag_21\n      jump\t// in\n    tag_20:\n      0x40\n      dup1\n      mload\n      swap2\n      dup3\n      mstore\n      mload\n      swap1\n      dup2\n      swap1\n      sub\n      0x20\n      add\n      swap1\n      return\n        /* \"v2-core-master/v2-core-master/contracts/DEXV2FactoryFlat.sol\":21448:21544  function allPairsLength() external view returns (uint) {\r... */\n    tag_7:\n      tag_20\n      tag_23\n      jump\t// in\n        /* \"v2-core-master/v2-core-master/contracts/DEXV2FactoryFlat.sol\":22652:22817  function setFeeToSetter(address _feeToSetter) external {\r... */\n    tag_8:\n      tag_24\n      0x04\n      dup1\n      calldatasize\n      sub\n        /* \"--CODEGEN--\":13:15   */\n      0x20\n        /* \"--CODEGEN--\":8:11   */\n      dup2\n        /* \"--CODEGEN--\":5:16   */\n      lt\n        /* \"--CODEGEN--\":2:4   */\n      iszero\n      tag_25\n      jumpi\n        /* \"--CODEGEN--\":29:30   */\n      0x00\n        /* \"--CODEGEN--\":26:27   */\n      dup1\n        /* \"--CODEGEN--\":19:31   */\n      revert\n        /* \"--CODEGEN--\":2:4   */\n    tag_25:\n      pop\n        /* \"v2-core-master/v2-core-master/contracts/DEXV2FactoryFlat.sol\":22652:22817  function setFeeToSetter(address _feeToSetter) external {\r... */\n      calldataload\n      sub(shl(0xa0, 0x01), 0x01)\n      and\n      tag_26\n      jump\t// in\n    tag_24:\n      stop\n        /* \"v2-core-master/v2-core-master/contracts/DEXV2FactoryFlat.sol\":21552:22495  function createPair(address tokenA, address tokenB) external returns (address pair) {\r... */\n    tag_9:\n      tag_13\n      0x04\n      dup1\n      calldatasize\n      sub\n        /* \"--CODEGEN--\":13:15   */\n      0x40\n        /* \"--CODEGEN--\":8:11   */\n      dup2\n        /* \"--CODEGEN--\":5:16   */\n      lt\n        /* \"--CODEGEN--\":2:4   */\n      iszero\n      tag_28\n      jumpi\n        /* \"--CODEGEN--\":29:30   */\n      0x00\n        /* \"--CODEGEN--\":26:27   */\n      dup1\n        /* \"--CODEGEN--\":19:31   */\n      revert\n        /* \"--CODEGEN--\":2:4   */\n    tag_28:\n      pop\n      sub(shl(0xa0, 0x01), 0x01)\n        /* \"v2-core-master/v2-core-master/contracts/DEXV2FactoryFlat.sol\":21552:22495  function createPair(address tokenA, address tokenB) external returns (address pair) {\r... */\n      dup2\n      calldataload\n      dup2\n      and\n      swap2\n      0x20\n      add\n      calldataload\n      and\n      tag_29\n      jump\t// in\n        /* \"v2-core-master/v2-core-master/contracts/DEXV2FactoryFlat.sol\":21157:21219  mapping(address => mapping(address => address)) public getPair */\n    tag_10:\n      tag_13\n      0x04\n      dup1\n      calldatasize\n      sub\n        /* \"--CODEGEN--\":13:15   */\n      0x40\n        /* \"--CODEGEN--\":8:11   */\n      dup2\n        /* \"--CODEGEN--\":5:16   */\n      lt\n        /* \"--CODEGEN--\":2:4   */\n      iszero\n      tag_31\n      jumpi\n        /* \"--CODEGEN--\":29:30   */\n      0x00\n        /* \"--CODEGEN--\":26:27   */\n      dup1\n        /* \"--CODEGEN--\":19:31   */\n      revert\n        /* \"--CODEGEN--\":2:4   */\n    tag_31:\n      pop\n      sub(shl(0xa0, 0x01), 0x01)\n        /* \"v2-core-master/v2-core-master/contracts/DEXV2FactoryFlat.sol\":21157:21219  mapping(address => mapping(address => address)) public getPair */\n      dup2\n      calldataload\n      dup2\n      and\n      swap2\n      0x20\n      add\n      calldataload\n      and\n      tag_32\n      jump\t// in\n        /* \"v2-core-master/v2-core-master/contracts/DEXV2FactoryFlat.sol\":22503:22644  function setFeeTo(address _feeTo) external {\r... */\n    tag_11:\n      tag_24\n      0x04\n      dup1\n      calldatasize\n      sub\n        /* \"--CODEGEN--\":13:15   */\n      0x20\n        /* \"--CODEGEN--\":8:11   */\n      dup2\n        /* \"--CODEGEN--\":5:16   */\n      lt\n        /* \"--CODEGEN--\":2:4   */\n      iszero\n      tag_34\n      jumpi\n        /* \"--CODEGEN--\":29:30   */\n      0x00\n        /* \"--CODEGEN--\":26:27   */\n      dup1\n        /* \"--CODEGEN--\":19:31   */\n      revert\n        /* \"--CODEGEN--\":2:4   */\n    tag_34:\n      pop\n        /* \"v2-core-master/v2-core-master/contracts/DEXV2FactoryFlat.sol\":22503:22644  function setFeeTo(address _feeTo) external {\r... */\n      calldataload\n      sub(shl(0xa0, 0x01), 0x01)\n      and\n      tag_35\n      jump\t// in\n        /* \"v2-core-master/v2-core-master/contracts/DEXV2FactoryFlat.sol\":20988:21008  address public feeTo */\n    tag_14:\n      and(sub(shl(0xa0, 0x01), 0x01), sload(0x00))\n      dup2\n      jump\t// out\n        /* \"v2-core-master/v2-core-master/contracts/DEXV2FactoryFlat.sol\":21015:21041  address public feeToSetter */\n    tag_16:\n      and(sub(shl(0xa0, 0x01), 0x01), sload(0x01))\n      dup2\n      jump\t// out\n        /* \"v2-core-master/v2-core-master/contracts/DEXV2FactoryFlat.sol\":21226:21251  address[] public allPairs */\n    tag_19:\n      0x03\n      dup2\n      dup2\n      sload\n      dup2\n      lt\n      tag_36\n      jumpi\n      invalid\n    tag_36:\n      0x00\n      swap2\n      dup3\n      mstore\n      0x20\n      swap1\n      swap2\n      keccak256\n      add\n      sload\n      sub(shl(0xa0, 0x01), 0x01)\n      and\n      swap1\n      pop\n      dup2\n      jump\t// out\n        /* \"v2-core-master/v2-core-master/contracts/DEXV2FactoryFlat.sol\":21050:21148  bytes32 public constant INIT_CODE_HASH = keccak256(abi.encodePacked(type(DEXV2Pair).creationCode)) */\n    tag_21:\n        /* \"v2-core-master/v2-core-master/contracts/DEXV2FactoryFlat.sol\":21118:21146  type(DEXV2Pair).creationCode */\n      mload(0x40)\n      tag_38\n      0x20\n      dup3\n      add\n      tag_39\n      jump\t// in\n    tag_38:\n        /* \"--CODEGEN--\":41:45   */\n      0x20\n        /* \"--CODEGEN--\":34:39   */\n      dup3\n        /* \"--CODEGEN--\":30:46   */\n      add\n        /* \"--CODEGEN--\":25:28   */\n      dup2\n        /* \"--CODEGEN--\":21:47   */\n      sub\n        /* \"--CODEGEN--\":14:19   */\n      dup3\n        /* \"--CODEGEN--\":7:48   */\n      mstore\n        /* \"--CODEGEN--\":87:89   */\n      0x1f\n        /* \"--CODEGEN--\":83:90   */\n      not\n        /* \"--CODEGEN--\":78:80   */\n      0x1f\n        /* \"--CODEGEN--\":73:76   */\n      dup3\n        /* \"--CODEGEN--\":69:81   */\n      add\n        /* \"--CODEGEN--\":65:91   */\n      and\n        /* \"--CODEGEN--\":61:63   */\n      0x40\n        /* \"--CODEGEN--\":54:92   */\n      mstore\n        /* \"v2-core-master/v2-core-master/contracts/DEXV2FactoryFlat.sol\":21118:21146  type(DEXV2Pair).creationCode */\n      pop\n        /* \"v2-core-master/v2-core-master/contracts/DEXV2FactoryFlat.sol\":21101:21147  abi.encodePacked(type(DEXV2Pair).creationCode) */\n      add(0x20, mload(0x40))\n      dup1\n      dup3\n      dup1\n      mload\n      swap1\n      0x20\n      add\n      swap1\n      dup1\n      dup4\n      dup4\n        /* \"--CODEGEN--\":36:189   */\n    tag_40:\n        /* \"--CODEGEN--\":66:68   */\n      0x20\n        /* \"--CODEGEN--\":61:64   */\n      dup4\n        /* \"--CODEGEN--\":58:69   */\n      lt\n        /* \"--CODEGEN--\":36:189   */\n      tag_42\n      jumpi\n        /* \"--CODEGEN--\":176:186   */\n      dup1\n      mload\n        /* \"--CODEGEN--\":164:187   */\n      dup3\n      mstore\n      not(0x1f)\n        /* \"--CODEGEN--\":139:151   */\n      swap1\n      swap3\n      add\n      swap2\n        /* \"--CODEGEN--\":98:100   */\n      0x20\n        /* \"--CODEGEN--\":89:101   */\n      swap2\n      dup3\n      add\n      swap2\n        /* \"--CODEGEN--\":114:126   */\n      add\n        /* \"--CODEGEN--\":36:189   */\n      jump(tag_40)\n    tag_42:\n        /* \"--CODEGEN--\":274:275   */\n      0x01\n        /* \"--CODEGEN--\":267:270   */\n      dup4\n        /* \"--CODEGEN--\":263:265   */\n      0x20\n        /* \"--CODEGEN--\":259:271   */\n      sub\n        /* \"--CODEGEN--\":254:257   */\n      0x0100\n        /* \"--CODEGEN--\":250:272   */\n      exp\n        /* \"--CODEGEN--\":246:276   */\n      sub\n        /* \"--CODEGEN--\":315:319   */\n      dup1\n        /* \"--CODEGEN--\":311:320   */\n      not\n        /* \"--CODEGEN--\":305:308   */\n      dup3\n        /* \"--CODEGEN--\":299:309   */\n      mload\n        /* \"--CODEGEN--\":295:321   */\n      and\n        /* \"--CODEGEN--\":356:360   */\n      dup2\n        /* \"--CODEGEN--\":350:353   */\n      dup5\n        /* \"--CODEGEN--\":344:354   */\n      mload\n        /* \"--CODEGEN--\":340:361   */\n      and\n        /* \"--CODEGEN--\":389:396   */\n      dup1\n        /* \"--CODEGEN--\":380:387   */\n      dup3\n        /* \"--CODEGEN--\":377:397   */\n      or\n        /* \"--CODEGEN--\":372:375   */\n      dup6\n        /* \"--CODEGEN--\":365:398   */\n      mstore\n        /* \"--CODEGEN--\":3:402   */\n      pop\n      pop\n      pop\n        /* \"v2-core-master/v2-core-master/contracts/DEXV2FactoryFlat.sol\":21101:21147  abi.encodePacked(type(DEXV2Pair).creationCode) */\n      pop\n      pop\n      pop\n      swap1\n      pop\n      add\n      swap2\n      pop\n      pop\n      mload(0x40)\n        /* \"--CODEGEN--\":49:53   */\n      0x20\n        /* \"--CODEGEN--\":39:46   */\n      dup2\n        /* \"--CODEGEN--\":30:37   */\n      dup4\n        /* \"--CODEGEN--\":26:47   */\n      sub\n        /* \"--CODEGEN--\":22:54   */\n      sub\n        /* \"--CODEGEN--\":13:20   */\n      dup2\n        /* \"--CODEGEN--\":6:55   */\n      mstore\n        /* \"v2-core-master/v2-core-master/contracts/DEXV2FactoryFlat.sol\":21101:21147  abi.encodePacked(type(DEXV2Pair).creationCode) */\n      swap1\n      0x40\n      mstore\n        /* \"v2-core-master/v2-core-master/contracts/DEXV2FactoryFlat.sol\":21091:21148  keccak256(abi.encodePacked(type(DEXV2Pair).creationCode)) */\n      dup1\n      mload\n      swap1\n      0x20\n      add\n      keccak256\n        /* \"v2-core-master/v2-core-master/contracts/DEXV2FactoryFlat.sol\":21050:21148  bytes32 public constant INIT_CODE_HASH = keccak256(abi.encodePacked(type(DEXV2Pair).creationCode)) */\n      dup2\n      jump\t// out\n        /* \"v2-core-master/v2-core-master/contracts/DEXV2FactoryFlat.sol\":21448:21544  function allPairsLength() external view returns (uint) {\r... */\n    tag_23:\n        /* \"v2-core-master/v2-core-master/contracts/DEXV2FactoryFlat.sol\":21521:21529  allPairs */\n      0x03\n        /* \"v2-core-master/v2-core-master/contracts/DEXV2FactoryFlat.sol\":21521:21536  allPairs.length */\n      sload\n        /* \"v2-core-master/v2-core-master/contracts/DEXV2FactoryFlat.sol\":21448:21544  function allPairsLength() external view returns (uint) {\r... */\n      swap1\n      jump\t// out\n        /* \"v2-core-master/v2-core-master/contracts/DEXV2FactoryFlat.sol\":22652:22817  function setFeeToSetter(address _feeToSetter) external {\r... */\n    tag_26:\n        /* \"v2-core-master/v2-core-master/contracts/DEXV2FactoryFlat.sol\":22740:22751  feeToSetter */\n      and(sub(shl(0xa0, 0x01), 0x01), sload(0x01))\n        /* \"v2-core-master/v2-core-master/contracts/DEXV2FactoryFlat.sol\":22726:22736  msg.sender */\n      caller\n        /* \"v2-core-master/v2-core-master/contracts/DEXV2FactoryFlat.sol\":22726:22751  msg.sender == feeToSetter */\n      eq\n        /* \"v2-core-master/v2-core-master/contracts/DEXV2FactoryFlat.sol\":22718:22772  require(msg.sender == feeToSetter, 'DEXV2: FORBIDDEN') */\n      tag_45\n      jumpi\n      0x40\n      dup1\n      mload\n      shl(0xe5, 0x461bcd)\n      dup2\n      mstore\n      0x20\n      0x04\n      dup3\n      add\n      mstore\n      0x10\n      0x24\n      dup3\n      add\n      mstore\n      shl(0x81, 0x2222ac2b191d102327a92124a22222a7)\n      0x44\n      dup3\n      add\n      mstore\n      swap1\n      mload\n      swap1\n      dup2\n      swap1\n      sub\n      0x64\n      add\n      swap1\n      revert\n    tag_45:\n        /* \"v2-core-master/v2-core-master/contracts/DEXV2FactoryFlat.sol\":22783:22794  feeToSetter */\n      0x01\n        /* \"v2-core-master/v2-core-master/contracts/DEXV2FactoryFlat.sol\":22783:22809  feeToSetter = _feeToSetter */\n      dup1\n      sload\n      not(sub(shl(0xa0, 0x01), 0x01))\n      and\n      sub(shl(0xa0, 0x01), 0x01)\n      swap3\n      swap1\n      swap3\n      and\n      swap2\n      swap1\n      swap2\n      or\n      swap1\n      sstore\n        /* \"v2-core-master/v2-core-master/contracts/DEXV2FactoryFlat.sol\":22652:22817  function setFeeToSetter(address _feeToSetter) external {\r... */\n      jump\t// out\n        /* \"v2-core-master/v2-core-master/contracts/DEXV2FactoryFlat.sol\":21552:22495  function createPair(address tokenA, address tokenB) external returns (address pair) {\r... */\n    tag_29:\n        /* \"v2-core-master/v2-core-master/contracts/DEXV2FactoryFlat.sol\":21622:21634  address pair */\n      0x00\n        /* \"v2-core-master/v2-core-master/contracts/DEXV2FactoryFlat.sol\":21665:21671  tokenB */\n      dup2\n      sub(shl(0xa0, 0x01), 0x01)\n        /* \"v2-core-master/v2-core-master/contracts/DEXV2FactoryFlat.sol\":21655:21671  tokenA != tokenB */\n      and\n        /* \"v2-core-master/v2-core-master/contracts/DEXV2FactoryFlat.sol\":21655:21661  tokenA */\n      dup4\n      sub(shl(0xa0, 0x01), 0x01)\n        /* \"v2-core-master/v2-core-master/contracts/DEXV2FactoryFlat.sol\":21655:21671  tokenA != tokenB */\n      and\n      eq\n      iszero\n        /* \"v2-core-master/v2-core-master/contracts/DEXV2FactoryFlat.sol\":21647:21702  require(tokenA != tokenB, 'DEXV2: IDENTICAL_ADDRESSES') */\n      tag_47\n      jumpi\n      0x40\n      dup1\n      mload\n      shl(0xe5, 0x461bcd)\n      dup2\n      mstore\n      0x20\n      0x04\n      dup3\n      add\n      mstore\n      0x1a\n      0x24\n      dup3\n      add\n      mstore\n      0x44455856323a204944454e544943414c5f414444524553534553000000000000\n      0x44\n      dup3\n      add\n      mstore\n      swap1\n      mload\n      swap1\n      dup2\n      swap1\n      sub\n      0x64\n      add\n      swap1\n      revert\n    tag_47:\n        /* \"v2-core-master/v2-core-master/contracts/DEXV2FactoryFlat.sol\":21714:21728  address token0 */\n      0x00\n        /* \"v2-core-master/v2-core-master/contracts/DEXV2FactoryFlat.sol\":21730:21744  address token1 */\n      dup1\n        /* \"v2-core-master/v2-core-master/contracts/DEXV2FactoryFlat.sol\":21757:21763  tokenB */\n      dup4\n      sub(shl(0xa0, 0x01), 0x01)\n        /* \"v2-core-master/v2-core-master/contracts/DEXV2FactoryFlat.sol\":21748:21763  tokenA < tokenB */\n      and\n        /* \"v2-core-master/v2-core-master/contracts/DEXV2FactoryFlat.sol\":21748:21754  tokenA */\n      dup6\n      sub(shl(0xa0, 0x01), 0x01)\n        /* \"v2-core-master/v2-core-master/contracts/DEXV2FactoryFlat.sol\":21748:21763  tokenA < tokenB */\n      and\n      lt\n        /* \"v2-core-master/v2-core-master/contracts/DEXV2FactoryFlat.sol\":21748:21801  tokenA < tokenB ? (tokenA, tokenB) : (tokenB, tokenA) */\n      tag_48\n      jumpi\n        /* \"v2-core-master/v2-core-master/contracts/DEXV2FactoryFlat.sol\":21786:21792  tokenB */\n      dup4\n        /* \"v2-core-master/v2-core-master/contracts/DEXV2FactoryFlat.sol\":21794:21800  tokenA */\n      dup6\n        /* \"v2-core-master/v2-core-master/contracts/DEXV2FactoryFlat.sol\":21748:21801  tokenA < tokenB ? (tokenA, tokenB) : (tokenB, tokenA) */\n      jump(tag_49)\n    tag_48:\n        /* \"v2-core-master/v2-core-master/contracts/DEXV2FactoryFlat.sol\":21767:21773  tokenA */\n      dup5\n        /* \"v2-core-master/v2-core-master/contracts/DEXV2FactoryFlat.sol\":21775:21781  tokenB */\n      dup5\n        /* \"v2-core-master/v2-core-master/contracts/DEXV2FactoryFlat.sol\":21748:21801  tokenA < tokenB ? (tokenA, tokenB) : (tokenB, tokenA) */\n    tag_49:\n        /* \"v2-core-master/v2-core-master/contracts/DEXV2FactoryFlat.sol\":21713:21801  (address token0, address token1) = tokenA < tokenB ? (tokenA, tokenB) : (tokenB, tokenA) */\n      swap1\n      swap3\n      pop\n      swap1\n      pop\n      sub(shl(0xa0, 0x01), 0x01)\n        /* \"v2-core-master/v2-core-master/contracts/DEXV2FactoryFlat.sol\":21820:21840  token0 != address(0) */\n      dup3\n      and\n        /* \"v2-core-master/v2-core-master/contracts/DEXV2FactoryFlat.sol\":21812:21864  require(token0 != address(0), 'DEXV2: ZERO_ADDRESS') */\n      tag_50\n      jumpi\n      0x40\n      dup1\n      mload\n      shl(0xe5, 0x461bcd)\n      dup2\n      mstore\n      0x20\n      0x04\n      dup3\n      add\n      mstore\n      0x13\n      0x24\n      dup3\n      add\n      mstore\n      shl(0x68, 0x44455856323a205a45524f5f41444452455353)\n      0x44\n      dup3\n      add\n      mstore\n      swap1\n      mload\n      swap1\n      dup2\n      swap1\n      sub\n      0x64\n      add\n      swap1\n      revert\n    tag_50:\n      sub(shl(0xa0, 0x01), 0x01)\n        /* \"v2-core-master/v2-core-master/contracts/DEXV2FactoryFlat.sol\":21883:21898  getPair[token0] */\n      dup3\n      dup2\n      and\n        /* \"v2-core-master/v2-core-master/contracts/DEXV2FactoryFlat.sol\":21918:21919  0 */\n      0x00\n        /* \"v2-core-master/v2-core-master/contracts/DEXV2FactoryFlat.sol\":21883:21898  getPair[token0] */\n      swap1\n      dup2\n      mstore\n        /* \"v2-core-master/v2-core-master/contracts/DEXV2FactoryFlat.sol\":21883:21890  getPair */\n      0x02\n        /* \"v2-core-master/v2-core-master/contracts/DEXV2FactoryFlat.sol\":21883:21898  getPair[token0] */\n      0x20\n      swap1\n      dup2\n      mstore\n      0x40\n      dup1\n      dup4\n      keccak256\n        /* \"v2-core-master/v2-core-master/contracts/DEXV2FactoryFlat.sol\":21883:21906  getPair[token0][token1] */\n      dup6\n      dup6\n      and\n      dup5\n      mstore\n      swap1\n      swap2\n      mstore\n      swap1\n      keccak256\n      sload\n      and\n        /* \"v2-core-master/v2-core-master/contracts/DEXV2FactoryFlat.sol\":21883:21920  getPair[token0][token1] == address(0) */\n      iszero\n        /* \"v2-core-master/v2-core-master/contracts/DEXV2FactoryFlat.sol\":21875:21943  require(getPair[token0][token1] == address(0), 'DEXV2: PAIR_EXISTS') */\n      tag_51\n      jumpi\n      0x40\n      dup1\n      mload\n      shl(0xe5, 0x461bcd)\n      dup2\n      mstore\n      0x20\n      0x04\n      dup3\n      add\n      mstore\n      0x12\n      0x24\n      dup3\n      add\n      mstore\n      shl(0x70, 0x44455856323a20504149525f455849535453)\n      0x44\n      dup3\n      add\n      mstore\n      swap1\n      mload\n      swap1\n      dup2\n      swap1\n      sub\n      0x64\n      add\n      swap1\n      revert\n    tag_51:\n        /* \"v2-core-master/v2-core-master/contracts/DEXV2FactoryFlat.sol\":21984:22005  bytes memory bytecode */\n      0x60\n        /* \"v2-core-master/v2-core-master/contracts/DEXV2FactoryFlat.sol\":22008:22036  type(DEXV2Pair).creationCode */\n      mload(0x40)\n      dup1\n      0x20\n      add\n      tag_52\n      swap1\n      tag_39\n      jump\t// in\n    tag_52:\n        /* \"--CODEGEN--\":41:45   */\n      0x20\n        /* \"--CODEGEN--\":34:39   */\n      dup3\n        /* \"--CODEGEN--\":30:46   */\n      add\n        /* \"--CODEGEN--\":25:28   */\n      dup2\n        /* \"--CODEGEN--\":21:47   */\n      sub\n        /* \"--CODEGEN--\":14:19   */\n      dup3\n        /* \"--CODEGEN--\":7:48   */\n      mstore\n        /* \"--CODEGEN--\":87:89   */\n      0x1f\n        /* \"--CODEGEN--\":83:90   */\n      not\n        /* \"--CODEGEN--\":78:80   */\n      0x1f\n        /* \"--CODEGEN--\":73:76   */\n      dup3\n        /* \"--CODEGEN--\":69:81   */\n      add\n        /* \"--CODEGEN--\":65:91   */\n      and\n        /* \"--CODEGEN--\":61:63   */\n      0x40\n        /* \"--CODEGEN--\":54:92   */\n      mstore\n        /* \"v2-core-master/v2-core-master/contracts/DEXV2FactoryFlat.sol\":22008:22036  type(DEXV2Pair).creationCode */\n      pop\n        /* \"v2-core-master/v2-core-master/contracts/DEXV2FactoryFlat.sol\":21984:22036  bytes memory bytecode = type(DEXV2Pair).creationCode */\n      swap1\n      pop\n        /* \"v2-core-master/v2-core-master/contracts/DEXV2FactoryFlat.sol\":22047:22059  bytes32 salt */\n      0x00\n        /* \"v2-core-master/v2-core-master/contracts/DEXV2FactoryFlat.sol\":22089:22095  token0 */\n      dup4\n        /* \"v2-core-master/v2-core-master/contracts/DEXV2FactoryFlat.sol\":22097:22103  token1 */\n      dup4\n        /* \"v2-core-master/v2-core-master/contracts/DEXV2FactoryFlat.sol\":22072:22104  abi.encodePacked(token0, token1) */\n      add(0x20, mload(0x40))\n      dup1\n      dup4\n      sub(shl(0xa0, 0x01), 0x01)\n      and\n      sub(shl(0xa0, 0x01), 0x01)\n      and\n      0x60\n      shl\n      dup2\n      mstore\n      0x14\n      add\n      dup3\n      sub(shl(0xa0, 0x01), 0x01)\n      and\n      sub(shl(0xa0, 0x01), 0x01)\n      and\n      0x60\n      shl\n      dup2\n      mstore\n      0x14\n      add\n      swap3\n      pop\n      pop\n      pop\n      mload(0x40)\n        /* \"--CODEGEN--\":49:53   */\n      0x20\n        /* \"--CODEGEN--\":39:46   */\n      dup2\n        /* \"--CODEGEN--\":30:37   */\n      dup4\n        /* \"--CODEGEN--\":26:47   */\n      sub\n        /* \"--CODEGEN--\":22:54   */\n      sub\n        /* \"--CODEGEN--\":13:20   */\n      dup2\n        /* \"--CODEGEN--\":6:55   */\n      mstore\n        /* \"v2-core-master/v2-core-master/contracts/DEXV2FactoryFlat.sol\":22072:22104  abi.encodePacked(token0, token1) */\n      swap1\n      0x40\n      mstore\n        /* \"v2-core-master/v2-core-master/contracts/DEXV2FactoryFlat.sol\":22062:22105  keccak256(abi.encodePacked(token0, token1)) */\n      dup1\n      mload\n      swap1\n      0x20\n      add\n      keccak256\n        /* \"v2-core-master/v2-core-master/contracts/DEXV2FactoryFlat.sol\":22047:22105  bytes32 salt = keccak256(abi.encodePacked(token0, token1)) */\n      swap1\n      pop\n        /* \"v2-core-master/v2-core-master/contracts/DEXV2FactoryFlat.sol\":22195:22199  salt */\n      dup1\n        /* \"v2-core-master/v2-core-master/contracts/DEXV2FactoryFlat.sol\":22184:22192  bytecode */\n      dup3\n        /* \"v2-core-master/v2-core-master/contracts/DEXV2FactoryFlat.sol\":22178:22193  mload(bytecode) */\n      mload\n        /* \"v2-core-master/v2-core-master/contracts/DEXV2FactoryFlat.sol\":22173:22175  32 */\n      0x20\n        /* \"v2-core-master/v2-core-master/contracts/DEXV2FactoryFlat.sol\":22163:22171  bytecode */\n      dup5\n        /* \"v2-core-master/v2-core-master/contracts/DEXV2FactoryFlat.sol\":22159:22176  add(bytecode, 32) */\n      add\n        /* \"v2-core-master/v2-core-master/contracts/DEXV2FactoryFlat.sol\":22156:22157  0 */\n      0x00\n        /* \"v2-core-master/v2-core-master/contracts/DEXV2FactoryFlat.sol\":22148:22200  create2(0, add(bytecode, 32), mload(bytecode), salt) */\n      create2\n        /* \"v2-core-master/v2-core-master/contracts/DEXV2FactoryFlat.sol\":22221:22264  IDEXV2Pair(pair).initialize(token0, token1) */\n      0x40\n      dup1\n      mload\n      shl(0xe0, 0x485cc955)\n      dup2\n      mstore\n      sub(shl(0xa0, 0x01), 0x01)\n      dup8\n      dup2\n      and\n      0x04\n      dup4\n      add\n      mstore\n      dup7\n      dup2\n      and\n      0x24\n      dup4\n      add\n      mstore\n      swap2\n      mload\n        /* \"v2-core-master/v2-core-master/contracts/DEXV2FactoryFlat.sol\":22140:22200  pair := create2(0, add(bytecode, 32), mload(bytecode), salt) */\n      swap3\n      swap8\n      pop\n        /* \"v2-core-master/v2-core-master/contracts/DEXV2FactoryFlat.sol\":22221:22248  IDEXV2Pair(pair).initialize */\n      swap1\n      dup8\n      and\n      swap2\n      0x485cc955\n      swap2\n        /* \"v2-core-master/v2-core-master/contracts/DEXV2FactoryFlat.sol\":22221:22264  IDEXV2Pair(pair).initialize(token0, token1) */\n      0x44\n      dup1\n      dup3\n      add\n      swap3\n      0x00\n      swap3\n      swap1\n      swap2\n      swap1\n      dup3\n      swap1\n      sub\n      add\n      dup2\n      dup4\n        /* \"v2-core-master/v2-core-master/contracts/DEXV2FactoryFlat.sol\":22221:22248  IDEXV2Pair(pair).initialize */\n      dup8\n        /* \"v2-core-master/v2-core-master/contracts/DEXV2FactoryFlat.sol\":22221:22264  IDEXV2Pair(pair).initialize(token0, token1) */\n      dup1\n      extcodesize\n      iszero\n        /* \"--CODEGEN--\":5:7   */\n      dup1\n      iszero\n      tag_53\n      jumpi\n        /* \"--CODEGEN--\":30:31   */\n      0x00\n        /* \"--CODEGEN--\":27:28   */\n      dup1\n        /* \"--CODEGEN--\":20:32   */\n      revert\n        /* \"--CODEGEN--\":5:7   */\n    tag_53:\n        /* \"v2-core-master/v2-core-master/contracts/DEXV2FactoryFlat.sol\":22221:22264  IDEXV2Pair(pair).initialize(token0, token1) */\n      pop\n      gas\n      call\n      iszero\n        /* \"--CODEGEN--\":8:17   */\n      dup1\n        /* \"--CODEGEN--\":5:7   */\n      iszero\n      tag_54\n      jumpi\n        /* \"--CODEGEN--\":45:61   */\n      returndatasize\n        /* \"--CODEGEN--\":42:43   */\n      0x00\n        /* \"--CODEGEN--\":39:40   */\n      dup1\n        /* \"--CODEGEN--\":24:62   */\n      returndatacopy\n        /* \"--CODEGEN--\":77:93   */\n      returndatasize\n        /* \"--CODEGEN--\":74:75   */\n      0x00\n        /* \"--CODEGEN--\":67:94   */\n      revert\n        /* \"--CODEGEN--\":5:7   */\n    tag_54:\n      pop\n      pop\n      pop\n      pop\n      sub(shl(0xa0, 0x01), 0x01)\n        /* \"v2-core-master/v2-core-master/contracts/DEXV2FactoryFlat.sol\":22275:22290  getPair[token0] */\n      dup5\n      dup2\n      and\n      0x00\n      dup2\n      dup2\n      mstore\n        /* \"v2-core-master/v2-core-master/contracts/DEXV2FactoryFlat.sol\":22275:22282  getPair */\n      0x02\n        /* \"v2-core-master/v2-core-master/contracts/DEXV2FactoryFlat.sol\":22275:22290  getPair[token0] */\n      0x20\n      dup2\n      dup2\n      mstore\n      0x40\n      dup1\n      dup5\n      keccak256\n        /* \"v2-core-master/v2-core-master/contracts/DEXV2FactoryFlat.sol\":22275:22298  getPair[token0][token1] */\n      dup10\n      dup8\n      and\n      dup1\n      dup7\n      mstore\n      swap1\n      dup4\n      mstore\n      dup2\n      dup6\n      keccak256\n        /* \"v2-core-master/v2-core-master/contracts/DEXV2FactoryFlat.sol\":22275:22305  getPair[token0][token1] = pair */\n      dup1\n      sload\n      swap8\n      dup14\n      and\n      not(sub(shl(0xa0, 0x01), 0x01))\n      swap9\n      dup10\n      and\n      dup2\n      or\n      swap1\n      swap2\n      sstore\n        /* \"v2-core-master/v2-core-master/contracts/DEXV2FactoryFlat.sol\":22316:22331  getPair[token1] */\n      swap4\n      dup4\n      mstore\n      dup2\n      dup6\n      keccak256\n        /* \"v2-core-master/v2-core-master/contracts/DEXV2FactoryFlat.sol\":22316:22339  getPair[token1][token0] */\n      dup7\n      dup7\n      mstore\n      dup4\n      mstore\n      dup2\n      dup6\n      keccak256\n        /* \"v2-core-master/v2-core-master/contracts/DEXV2FactoryFlat.sol\":22316:22346  getPair[token1][token0] = pair */\n      dup1\n      sload\n      dup9\n      and\n      dup6\n      or\n      swap1\n      sstore\n        /* \"v2-core-master/v2-core-master/contracts/DEXV2FactoryFlat.sol\":22402:22410  allPairs */\n      0x03\n        /* \"--CODEGEN--\":27:37   */\n      dup1\n      sload\n      0x01\n        /* \"--CODEGEN--\":23:41   */\n      dup2\n      add\n        /* \"--CODEGEN--\":45:68   */\n      dup3\n      sstore\n        /* \"v2-core-master/v2-core-master/contracts/DEXV2FactoryFlat.sol\":22402:22421  allPairs.push(pair) */\n      swap6\n      dup2\n      swap1\n      mstore\n      0xc2575a0e9e593c00f959f8c92f12db2869c3395a3b0502d05e2516446f71f85b\n      swap1\n      swap6\n      add\n      dup1\n      sload\n      swap1\n      swap8\n      and\n      dup5\n      or\n      swap1\n      swap7\n      sstore\n        /* \"v2-core-master/v2-core-master/contracts/DEXV2FactoryFlat.sol\":22471:22486  allPairs.length */\n      swap3\n      sload\n        /* \"v2-core-master/v2-core-master/contracts/DEXV2FactoryFlat.sol\":22437:22487  PairCreated(token0, token1, pair, allPairs.length) */\n      dup4\n      mload\n      swap3\n      dup4\n      mstore\n      swap1\n      dup3\n      add\n      mstore\n      dup2\n      mload\n      0x0d3648bd0f6ba80134a33ba9275ac585d9d315f0ad8355cddefde31afa28d0e9\n      swap3\n      swap2\n      dup2\n      swap1\n      sub\n      swap1\n      swap2\n      add\n      swap1\n      log3\n        /* \"v2-core-master/v2-core-master/contracts/DEXV2FactoryFlat.sol\":21552:22495  function createPair(address tokenA, address tokenB) external returns (address pair) {\r... */\n      pop\n      pop\n      pop\n      pop\n      swap3\n      swap2\n      pop\n      pop\n      jump\t// out\n        /* \"v2-core-master/v2-core-master/contracts/DEXV2FactoryFlat.sol\":21157:21219  mapping(address => mapping(address => address)) public getPair */\n    tag_32:\n      0x02\n      0x20\n      swap1\n      dup2\n      mstore\n      0x00\n      swap3\n      dup4\n      mstore\n      0x40\n      dup1\n      dup5\n      keccak256\n      swap1\n      swap2\n      mstore\n      swap1\n      dup3\n      mstore\n      swap1\n      keccak256\n      sload\n      sub(shl(0xa0, 0x01), 0x01)\n      and\n      dup2\n      jump\t// out\n        /* \"v2-core-master/v2-core-master/contracts/DEXV2FactoryFlat.sol\":22503:22644  function setFeeTo(address _feeTo) external {\r... */\n    tag_35:\n        /* \"v2-core-master/v2-core-master/contracts/DEXV2FactoryFlat.sol\":22579:22590  feeToSetter */\n      and(sub(shl(0xa0, 0x01), 0x01), sload(0x01))\n        /* \"v2-core-master/v2-core-master/contracts/DEXV2FactoryFlat.sol\":22565:22575  msg.sender */\n      caller\n        /* \"v2-core-master/v2-core-master/contracts/DEXV2FactoryFlat.sol\":22565:22590  msg.sender == feeToSetter */\n      eq\n        /* \"v2-core-master/v2-core-master/contracts/DEXV2FactoryFlat.sol\":22557:22611  require(msg.sender == feeToSetter, 'DEXV2: FORBIDDEN') */\n      tag_57\n      jumpi\n      0x40\n      dup1\n      mload\n      shl(0xe5, 0x461bcd)\n      dup2\n      mstore\n      0x20\n      0x04\n      dup3\n      add\n      mstore\n      0x10\n      0x24\n      dup3\n      add\n      mstore\n      shl(0x81, 0x2222ac2b191d102327a92124a22222a7)\n      0x44\n      dup3\n      add\n      mstore\n      swap1\n      mload\n      swap1\n      dup2\n      swap1\n      sub\n      0x64\n      add\n      swap1\n      revert\n    tag_57:\n        /* \"v2-core-master/v2-core-master/contracts/DEXV2FactoryFlat.sol\":22622:22627  feeTo */\n      0x00\n        /* \"v2-core-master/v2-core-master/contracts/DEXV2FactoryFlat.sol\":22622:22636  feeTo = _feeTo */\n      dup1\n      sload\n      not(sub(shl(0xa0, 0x01), 0x01))\n      and\n      sub(shl(0xa0, 0x01), 0x01)\n      swap3\n      swap1\n      swap3\n      and\n      swap2\n      swap1\n      swap2\n      or\n      swap1\n      sstore\n        /* \"v2-core-master/v2-core-master/contracts/DEXV2FactoryFlat.sol\":22503:22644  function setFeeTo(address _feeTo) external {\r... */\n      jump\t// out\n        /* \"v2-core-master/v2-core-master/contracts/DEXV2FactoryFlat.sol\":20942:22820  contract DEXV2Factory is IDEXV2Factory {\r... */\n    tag_39:\n      dataSize(sub_0)\n      dup1\n      dataOffset(sub_0)\n      dup4\n      codecopy\n      add\n      swap1\n      jump\t// out\n    stop\n\n    sub_0: assembly {\n            /* \"v2-core-master/v2-core-master/contracts/DEXV2FactoryFlat.sol\":11233:20852  contract DEXV2Pair is IDEXV2Pair, DEXV2ERC20 {\r... */\n          mstore(0x40, 0x80)\n            /* \"v2-core-master/v2-core-master/contracts/DEXV2FactoryFlat.sol\":12090:12091  1 */\n          0x01\n            /* \"v2-core-master/v2-core-master/contracts/DEXV2FactoryFlat.sol\":12066:12091  uint private unlocked = 1 */\n          0x0c\n          sstore\n            /* \"v2-core-master/v2-core-master/contracts/DEXV2FactoryFlat.sol\":13169:13229  constructor() public {\r... */\n          callvalue\n            /* \"--CODEGEN--\":8:17   */\n          dup1\n            /* \"--CODEGEN--\":5:7   */\n          iszero\n          tag_1\n          jumpi\n            /* \"--CODEGEN--\":30:31   */\n          0x00\n            /* \"--CODEGEN--\":27:28   */\n          dup1\n            /* \"--CODEGEN--\":20:32   */\n          revert\n            /* \"--CODEGEN--\":5:7   */\n        tag_1:\n          pop\n            /* \"v2-core-master/v2-core-master/contracts/DEXV2FactoryFlat.sol\":5470:5565  keccak256('EIP712Domain(string name,string version,uint256 chainId,address verifyingContract)') */\n          mload(0x40)\n            /* \"v2-core-master/v2-core-master/contracts/DEXV2FactoryFlat.sol\":5370:5377  chainid */\n          chainid\n          swap1\n            /* \"v2-core-master/v2-core-master/contracts/DEXV2FactoryFlat.sol\":5470:5565  keccak256('EIP712Domain(string name,string version,uint256 chainId,address verifyingContract)') */\n          dup1\n          0x52\n          data_8b73c3c69bb8fe3d512ecc4cf759cc79239f7b179b0ffacaa9a75d522b39400f\n          dup3\n          codecopy\n          0x40\n          dup1\n          mload\n          swap2\n          dup3\n          swap1\n          sub\n          0x52\n          add\n          dup3\n          keccak256\n            /* \"v2-core-master/v2-core-master/contracts/DEXV2FactoryFlat.sol\":5600:5604  name */\n          dup3\n          dup3\n          add\n          dup3\n          mstore\n          0x06\n          dup4\n          mstore\n          shl(0xd1, 0x2222ac102b19)\n          0x20\n          swap4\n          dup5\n          add\n          mstore\n            /* \"v2-core-master/v2-core-master/contracts/DEXV2FactoryFlat.sol\":5635:5645  bytes('1') */\n          dup2\n          mload\n          dup1\n          dup4\n          add\n          dup4\n          mstore\n          0x01\n          dup2\n          mstore\n          shl(0xf8, 0x31)\n          swap1\n          dup5\n          add\n          mstore\n            /* \"v2-core-master/v2-core-master/contracts/DEXV2FactoryFlat.sol\":5441:5719  abi.encode(\r... */\n          dup2\n          mload\n          dup1\n          dup5\n          add\n          swap2\n          swap1\n          swap2\n          mstore\n            /* \"v2-core-master/v2-core-master/contracts/DEXV2FactoryFlat.sol\":5584:5606  keccak256(bytes(name)) */\n          0xc1c10dcba44900605795c0d4b2d4c7476e8679a18b4c003d4fb30b906d50ef31\n            /* \"v2-core-master/v2-core-master/contracts/DEXV2FactoryFlat.sol\":5441:5719  abi.encode(\r... */\n          dup2\n          dup4\n          add\n          mstore\n            /* \"v2-core-master/v2-core-master/contracts/DEXV2FactoryFlat.sol\":5625:5646  keccak256(bytes('1')) */\n          0xc89efdaa54c0f20c7adf612882df0950f5a951637e0307cdcb4c672f298b8bc6\n            /* \"v2-core-master/v2-core-master/contracts/DEXV2FactoryFlat.sol\":5441:5719  abi.encode(\r... */\n          0x60\n          dup3\n          add\n          mstore\n          0x80\n          dup2\n          add\n          swap5\n          swap1\n          swap5\n          mstore\n            /* \"v2-core-master/v2-core-master/contracts/DEXV2FactoryFlat.sol\":5699:5703  this */\n          address\n            /* \"v2-core-master/v2-core-master/contracts/DEXV2FactoryFlat.sol\":5441:5719  abi.encode(\r... */\n          0xa0\n          dup1\n          dup7\n          add\n          swap2\n          swap1\n          swap2\n          mstore\n          dup2\n          mload\n            /* \"--CODEGEN--\":26:47   */\n          dup1\n          dup7\n          sub\n            /* \"--CODEGEN--\":22:54   */\n          swap1\n          swap2\n          add\n            /* \"--CODEGEN--\":6:55   */\n          dup2\n          mstore\n            /* \"v2-core-master/v2-core-master/contracts/DEXV2FactoryFlat.sol\":5441:5719  abi.encode(\r... */\n          0xc0\n          swap1\n          swap5\n          add\n          swap1\n          mstore\n            /* \"v2-core-master/v2-core-master/contracts/DEXV2FactoryFlat.sol\":5417:5730  keccak256(\r... */\n          dup3\n          mload\n          swap3\n          add\n          swap2\n          swap1\n          swap2\n          keccak256\n            /* \"v2-core-master/v2-core-master/contracts/DEXV2FactoryFlat.sol\":5398:5414  DOMAIN_SEPARATOR */\n          0x03\n            /* \"v2-core-master/v2-core-master/contracts/DEXV2FactoryFlat.sol\":5398:5730  DOMAIN_SEPARATOR = keccak256(\r... */\n          sstore\n          pop\n            /* \"v2-core-master/v2-core-master/contracts/DEXV2FactoryFlat.sol\":13201:13208  factory */\n          0x05\n            /* \"v2-core-master/v2-core-master/contracts/DEXV2FactoryFlat.sol\":13201:13221  factory = msg.sender */\n          dup1\n          sload\n          not(sub(shl(0xa0, 0x01), 0x01))\n          and\n            /* \"v2-core-master/v2-core-master/contracts/DEXV2FactoryFlat.sol\":13211:13221  msg.sender */\n          caller\n            /* \"v2-core-master/v2-core-master/contracts/DEXV2FactoryFlat.sol\":13201:13221  factory = msg.sender */\n          or\n          swap1\n          sstore\n          0x2229\n          dup1\n            /* \"v2-core-master/v2-core-master/contracts/DEXV2FactoryFlat.sol\":11233:20852  contract DEXV2Pair is IDEXV2Pair, DEXV2ERC20 {\r... */\n          dataOffset(sub_0)\n          0x00\n          codecopy\n          0x00\n          return\n        stop\n        data_8b73c3c69bb8fe3d512ecc4cf759cc79239f7b179b0ffacaa9a75d522b39400f 454950373132446f6d61696e28737472696e67206e616d652c737472696e672076657273696f6e2c75696e7432353620636861696e49642c6164647265737320766572696679696e67436f6e747261637429\n\n        sub_0: assembly {\n                /* \"v2-core-master/v2-core-master/contracts/DEXV2FactoryFlat.sol\":11233:20852  contract DEXV2Pair is IDEXV2Pair, DEXV2ERC20 {\r... */\n              mstore(0x40, 0x80)\n              callvalue\n                /* \"--CODEGEN--\":8:17   */\n              dup1\n                /* \"--CODEGEN--\":5:7   */\n              iszero\n              tag_1\n              jumpi\n                /* \"--CODEGEN--\":30:31   */\n              0x00\n                /* \"--CODEGEN--\":27:28   */\n              dup1\n                /* \"--CODEGEN--\":20:32   */\n              revert\n                /* \"--CODEGEN--\":5:7   */\n            tag_1:\n                /* \"v2-core-master/v2-core-master/contracts/DEXV2FactoryFlat.sol\":11233:20852  contract DEXV2Pair is IDEXV2Pair, DEXV2ERC20 {\r... */\n              pop\n              jumpi(tag_2, lt(calldatasize, 0x04))\n              shr(0xe0, calldataload(0x00))\n              dup1\n              0x6a627842\n              gt\n              tag_30\n              jumpi\n              dup1\n              0xba9a7a56\n              gt\n              tag_31\n              jumpi\n              dup1\n              0xd21220a7\n              gt\n              tag_32\n              jumpi\n              dup1\n              0xd21220a7\n              eq\n              tag_26\n              jumpi\n              dup1\n              0xd505accf\n              eq\n              tag_27\n              jumpi\n              dup1\n              0xdd62ed3e\n              eq\n              tag_28\n              jumpi\n              dup1\n              0xfff6cae9\n              eq\n              tag_29\n              jumpi\n              jump(tag_2)\n            tag_32:\n              dup1\n              0xba9a7a56\n              eq\n              tag_23\n              jumpi\n              dup1\n              0xbc25cf77\n              eq\n              tag_24\n              jumpi\n              dup1\n              0xc45a0155\n              eq\n              tag_25\n              jumpi\n              jump(tag_2)\n            tag_31:\n              dup1\n              0x7ecebe00\n              gt\n              tag_33\n              jumpi\n              dup1\n              0x7ecebe00\n              eq\n              tag_19\n              jumpi\n              dup1\n              0x89afcb44\n              eq\n              tag_20\n              jumpi\n              dup1\n              0x95d89b41\n              eq\n              tag_21\n              jumpi\n              dup1\n              0xa9059cbb\n              eq\n              tag_22\n              jumpi\n              jump(tag_2)\n            tag_33:\n              dup1\n              0x6a627842\n              eq\n              tag_16\n              jumpi\n              dup1\n              0x70a08231\n              eq\n              tag_17\n              jumpi\n              dup1\n              0x7464fc3d\n              eq\n              tag_18\n              jumpi\n              jump(tag_2)\n            tag_30:\n              dup1\n              0x23b872dd\n              gt\n              tag_34\n              jumpi\n              dup1\n              0x3644e515\n              gt\n              tag_35\n              jumpi\n              dup1\n              0x3644e515\n              eq\n              tag_12\n              jumpi\n              dup1\n              0x485cc955\n              eq\n              tag_13\n              jumpi\n              dup1\n              0x5909c0d5\n              eq\n              tag_14\n              jumpi\n              dup1\n              0x5a3d5493\n              eq\n              tag_15\n              jumpi\n              jump(tag_2)\n            tag_35:\n              dup1\n              0x23b872dd\n              eq\n              tag_9\n              jumpi\n              dup1\n              0x30adf81f\n              eq\n              tag_10\n              jumpi\n              dup1\n              0x313ce567\n              eq\n              tag_11\n              jumpi\n              jump(tag_2)\n            tag_34:\n              dup1\n              0x022c0d9f\n              eq\n              tag_3\n              jumpi\n              dup1\n              0x06fdde03\n              eq\n              tag_4\n              jumpi\n              dup1\n              0x0902f1ac\n              eq\n              tag_5\n              jumpi\n              dup1\n              0x095ea7b3\n              eq\n              tag_6\n              jumpi\n              dup1\n              0x0dfe1681\n              eq\n              tag_7\n              jumpi\n              dup1\n              0x18160ddd\n              eq\n              tag_8\n              jumpi\n            tag_2:\n              0x00\n              dup1\n              revert\n                /* \"v2-core-master/v2-core-master/contracts/DEXV2FactoryFlat.sol\":18398:20259  function swap(uint amount0Out, uint amount1Out, address to, bytes calldata data) external lock {\r... */\n            tag_3:\n              tag_36\n              0x04\n              dup1\n              calldatasize\n              sub\n                /* \"--CODEGEN--\":13:16   */\n              0x80\n                /* \"--CODEGEN--\":8:11   */\n              dup2\n                /* \"--CODEGEN--\":5:17   */\n              lt\n                /* \"--CODEGEN--\":2:4   */\n              iszero\n              tag_37\n              jumpi\n                /* \"--CODEGEN--\":30:31   */\n              0x00\n                /* \"--CODEGEN--\":27:28   */\n              dup1\n                /* \"--CODEGEN--\":20:32   */\n              revert\n                /* \"--CODEGEN--\":2:4   */\n            tag_37:\n                /* \"v2-core-master/v2-core-master/contracts/DEXV2FactoryFlat.sol\":18398:20259  function swap(uint amount0Out, uint amount1Out, address to, bytes calldata data) external lock {\r... */\n              dup2\n              calldataload\n              swap2\n              0x20\n              dup2\n              add\n              calldataload\n              swap2\n              0x40\n              dup3\n              add\n              calldataload\n              sub(shl(0xa0, 0x01), 0x01)\n              and\n              swap2\n              swap1\n              dup2\n              add\n              swap1\n              0x80\n              dup2\n              add\n              0x60\n              dup3\n              add\n              calldataload\n                /* \"--CODEGEN--\":21:32   */\n              0x0100000000\n                /* \"--CODEGEN--\":5:33   */\n              dup2\n              gt\n                /* \"--CODEGEN--\":2:4   */\n              iszero\n              tag_38\n              jumpi\n                /* \"--CODEGEN--\":46:47   */\n              0x00\n                /* \"--CODEGEN--\":43:44   */\n              dup1\n                /* \"--CODEGEN--\":36:48   */\n              revert\n                /* \"--CODEGEN--\":2:4   */\n            tag_38:\n                /* \"v2-core-master/v2-core-master/contracts/DEXV2FactoryFlat.sol\":18398:20259  function swap(uint amount0Out, uint amount1Out, address to, bytes calldata data) external lock {\r... */\n              dup3\n              add\n                /* \"--CODEGEN--\":35:44   */\n              dup4\n                /* \"--CODEGEN--\":28:32   */\n              0x20\n                /* \"--CODEGEN--\":12:26   */\n              dup3\n                /* \"--CODEGEN--\":8:33   */\n              add\n                /* \"--CODEGEN--\":5:45   */\n              gt\n                /* \"--CODEGEN--\":2:4   */\n              iszero\n              tag_39\n              jumpi\n                /* \"--CODEGEN--\":58:59   */\n              0x00\n                /* \"--CODEGEN--\":55:56   */\n              dup1\n                /* \"--CODEGEN--\":48:60   */\n              revert\n                /* \"--CODEGEN--\":2:4   */\n            tag_39:\n                /* \"v2-core-master/v2-core-master/contracts/DEXV2FactoryFlat.sol\":18398:20259  function swap(uint amount0Out, uint amount1Out, address to, bytes calldata data) external lock {\r... */\n              dup1\n              calldataload\n              swap1\n              0x20\n              add\n              swap2\n                /* \"--CODEGEN--\":100:109   */\n              dup5\n                /* \"--CODEGEN--\":95:96   */\n              0x01\n                /* \"--CODEGEN--\":81:93   */\n              dup4\n                /* \"--CODEGEN--\":77:97   */\n              mul\n                /* \"--CODEGEN--\":67:75   */\n              dup5\n                /* \"--CODEGEN--\":63:98   */\n              add\n                /* \"--CODEGEN--\":60:110   */\n              gt\n                /* \"--CODEGEN--\":39:50   */\n              0x0100000000\n                /* \"--CODEGEN--\":25:37   */\n              dup4\n                /* \"--CODEGEN--\":22:51   */\n              gt\n                /* \"--CODEGEN--\":11:118   */\n              or\n                /* \"--CODEGEN--\":8:10   */\n              iszero\n              tag_40\n              jumpi\n                /* \"--CODEGEN--\":131:132   */\n              0x00\n                /* \"--CODEGEN--\":128:129   */\n              dup1\n                /* \"--CODEGEN--\":121:133   */\n              revert\n                /* \"--CODEGEN--\":8:10   */\n            tag_40:\n              pop\n                /* \"v2-core-master/v2-core-master/contracts/DEXV2FactoryFlat.sol\":18398:20259  function swap(uint amount0Out, uint amount1Out, address to, bytes calldata data) external lock {\r... */\n              swap1\n              swap3\n              pop\n              swap1\n              pop\n              tag_41\n              jump\t// in\n            tag_36:\n              stop\n                /* \"v2-core-master/v2-core-master/contracts/DEXV2FactoryFlat.sol\":4534:4572  string public constant name = 'DEX V2' */\n            tag_4:\n              tag_42\n              tag_43\n              jump\t// in\n            tag_42:\n              0x40\n              dup1\n              mload\n              0x20\n              dup1\n              dup3\n              mstore\n              dup4\n              mload\n              dup2\n              dup4\n              add\n              mstore\n              dup4\n              mload\n              swap2\n              swap3\n              dup4\n              swap3\n              swap1\n              dup4\n              add\n              swap2\n              dup6\n              add\n              swap1\n              dup1\n              dup4\n              dup4\n              0x00\n                /* \"--CODEGEN--\":8:108   */\n            tag_44:\n                /* \"--CODEGEN--\":33:36   */\n              dup4\n                /* \"--CODEGEN--\":30:31   */\n              dup2\n                /* \"--CODEGEN--\":27:37   */\n              lt\n                /* \"--CODEGEN--\":8:108   */\n              iszero\n              tag_46\n              jumpi\n                /* \"--CODEGEN--\":90:101   */\n              dup2\n              dup2\n              add\n                /* \"--CODEGEN--\":84:102   */\n              mload\n                /* \"--CODEGEN--\":71:82   */\n              dup4\n              dup3\n              add\n                /* \"--CODEGEN--\":64:103   */\n              mstore\n                /* \"--CODEGEN--\":52:54   */\n              0x20\n                /* \"--CODEGEN--\":45:55   */\n              add\n                /* \"--CODEGEN--\":8:108   */\n              jump(tag_44)\n            tag_46:\n                /* \"--CODEGEN--\":12:26   */\n              pop\n                /* \"v2-core-master/v2-core-master/contracts/DEXV2FactoryFlat.sol\":4534:4572  string public constant name = 'DEX V2' */\n              pop\n              pop\n              pop\n              swap1\n              pop\n              swap1\n              dup2\n              add\n              swap1\n              0x1f\n              and\n              dup1\n              iszero\n              tag_47\n              jumpi\n              dup1\n              dup3\n              sub\n              dup1\n              mload\n              0x01\n              dup4\n              0x20\n              sub\n              0x0100\n              exp\n              sub\n              not\n              and\n              dup2\n              mstore\n              0x20\n              add\n              swap2\n              pop\n            tag_47:\n              pop\n              swap3\n              pop\n              pop\n              pop\n              mload(0x40)\n              dup1\n              swap2\n              sub\n              swap1\n              return\n                /* \"v2-core-master/v2-core-master/contracts/DEXV2FactoryFlat.sol\":12238:12469  function getReserves() public view returns (uint112 _reserve0, uint112 _reserve1, uint32 _blockTimestampLast) {\r... */\n            tag_5:\n              tag_48\n              tag_49\n              jump\t// in\n            tag_48:\n              0x40\n              dup1\n              mload\n              sub(shl(0x70, 0x01), 0x01)\n              swap5\n              dup6\n              and\n              dup2\n              mstore\n              swap3\n              swap1\n              swap4\n              and\n              0x20\n              dup4\n              add\n              mstore\n              0xffffffff\n              and\n              dup2\n              dup4\n              add\n              mstore\n              swap1\n              mload\n              swap1\n              dup2\n              swap1\n              sub\n              0x60\n              add\n              swap1\n              return\n                /* \"v2-core-master/v2-core-master/contracts/DEXV2FactoryFlat.sol\":6577:6724  function approve(address spender, uint value) external returns (bool) {\r... */\n            tag_6:\n              tag_50\n              0x04\n              dup1\n              calldatasize\n              sub\n                /* \"--CODEGEN--\":13:15   */\n              0x40\n                /* \"--CODEGEN--\":8:11   */\n              dup2\n                /* \"--CODEGEN--\":5:16   */\n              lt\n                /* \"--CODEGEN--\":2:4   */\n              iszero\n              tag_51\n              jumpi\n                /* \"--CODEGEN--\":29:30   */\n              0x00\n                /* \"--CODEGEN--\":26:27   */\n              dup1\n                /* \"--CODEGEN--\":19:31   */\n              revert\n                /* \"--CODEGEN--\":2:4   */\n            tag_51:\n              pop\n                /* \"v2-core-master/v2-core-master/contracts/DEXV2FactoryFlat.sol\":6577:6724  function approve(address spender, uint value) external returns (bool) {\r... */\n              dup1\n              calldataload\n              sub(shl(0xa0, 0x01), 0x01)\n              and\n              swap1\n              0x20\n              add\n              calldataload\n              tag_52\n              jump\t// in\n            tag_50:\n              0x40\n              dup1\n              mload\n              swap2\n              iszero\n              iszero\n              dup3\n              mstore\n              mload\n              swap1\n              dup2\n              swap1\n              sub\n              0x20\n              add\n              swap1\n              return\n                /* \"v2-core-master/v2-core-master/contracts/DEXV2FactoryFlat.sol\":11531:11552  address public token0 */\n            tag_7:\n              tag_53\n              tag_54\n              jump\t// in\n            tag_53:\n              0x40\n              dup1\n              mload\n              0x01\n              dup1\n              0xa0\n              shl\n              sub\n              swap1\n              swap3\n              and\n              dup3\n              mstore\n              mload\n              swap1\n              dup2\n              swap1\n              sub\n              0x20\n              add\n              swap1\n              return\n                /* \"v2-core-master/v2-core-master/contracts/DEXV2FactoryFlat.sol\":4668:4692  uint  public totalSupply */\n            tag_8:\n              tag_55\n              tag_56\n              jump\t// in\n            tag_55:\n              0x40\n              dup1\n              mload\n              swap2\n              dup3\n              mstore\n              mload\n              swap1\n              dup2\n              swap1\n              sub\n              0x20\n              add\n              swap1\n              return\n                /* \"v2-core-master/v2-core-master/contracts/DEXV2FactoryFlat.sol\":6879:7180  function transferFrom(address from, address to, uint value) external returns (bool) {\r... */\n            tag_9:\n              tag_50\n              0x04\n              dup1\n              calldatasize\n              sub\n                /* \"--CODEGEN--\":13:15   */\n              0x60\n                /* \"--CODEGEN--\":8:11   */\n              dup2\n                /* \"--CODEGEN--\":5:16   */\n              lt\n                /* \"--CODEGEN--\":2:4   */\n              iszero\n              tag_58\n              jumpi\n                /* \"--CODEGEN--\":29:30   */\n              0x00\n                /* \"--CODEGEN--\":26:27   */\n              dup1\n                /* \"--CODEGEN--\":19:31   */\n              revert\n                /* \"--CODEGEN--\":2:4   */\n            tag_58:\n              pop\n              sub(shl(0xa0, 0x01), 0x01)\n                /* \"v2-core-master/v2-core-master/contracts/DEXV2FactoryFlat.sol\":6879:7180  function transferFrom(address from, address to, uint value) external returns (bool) {\r... */\n              dup2\n              calldataload\n              dup2\n              and\n              swap2\n              0x20\n              dup2\n              add\n              calldataload\n              swap1\n              swap2\n              and\n              swap1\n              0x40\n              add\n              calldataload\n              tag_59\n              jump\t// in\n                /* \"v2-core-master/v2-core-master/contracts/DEXV2FactoryFlat.sol\":4960:5068  bytes32 public constant PERMIT_TYPEHASH = 0x6e71edae12b1b97f4d1f60370fef10105fa2faae0126114a169c64845d6126c9 */\n            tag_10:\n              tag_55\n              tag_61\n              jump\t// in\n                /* \"v2-core-master/v2-core-master/contracts/DEXV2FactoryFlat.sol\":4626:4661  uint8 public constant decimals = 18 */\n            tag_11:\n              tag_62\n              tag_63\n              jump\t// in\n            tag_62:\n              0x40\n              dup1\n              mload\n              0xff\n              swap1\n              swap3\n              and\n              dup3\n              mstore\n              mload\n              swap1\n              dup2\n              swap1\n              sub\n              0x20\n              add\n              swap1\n              return\n                /* \"v2-core-master/v2-core-master/contracts/DEXV2FactoryFlat.sol\":4817:4848  bytes32 public DOMAIN_SEPARATOR */\n            tag_12:\n              tag_55\n              tag_65\n              jump\t// in\n                /* \"v2-core-master/v2-core-master/contracts/DEXV2FactoryFlat.sol\":13294:13500  function initialize(address _token0, address _token1) external {\r... */\n            tag_13:\n              tag_36\n              0x04\n              dup1\n              calldatasize\n              sub\n                /* \"--CODEGEN--\":13:15   */\n              0x40\n                /* \"--CODEGEN--\":8:11   */\n              dup2\n                /* \"--CODEGEN--\":5:16   */\n              lt\n                /* \"--CODEGEN--\":2:4   */\n              iszero\n              tag_67\n              jumpi\n                /* \"--CODEGEN--\":29:30   */\n              0x00\n                /* \"--CODEGEN--\":26:27   */\n              dup1\n                /* \"--CODEGEN--\":19:31   */\n              revert\n                /* \"--CODEGEN--\":2:4   */\n            tag_67:\n              pop\n              sub(shl(0xa0, 0x01), 0x01)\n                /* \"v2-core-master/v2-core-master/contracts/DEXV2FactoryFlat.sol\":13294:13500  function initialize(address _token0, address _token1) external {\r... */\n              dup2\n              calldataload\n              dup2\n              and\n              swap2\n              0x20\n              add\n              calldataload\n              and\n              tag_68\n              jump\t// in\n                /* \"v2-core-master/v2-core-master/contracts/DEXV2FactoryFlat.sol\":11882:11914  uint public price0CumulativeLast */\n            tag_14:\n              tag_55\n              tag_70\n              jump\t// in\n                /* \"v2-core-master/v2-core-master/contracts/DEXV2FactoryFlat.sol\":11921:11953  uint public price1CumulativeLast */\n            tag_15:\n              tag_55\n              tag_72\n              jump\t// in\n                /* \"v2-core-master/v2-core-master/contracts/DEXV2FactoryFlat.sol\":15476:16712  function mint(address to) external lock returns (uint liquidity) {\r... */\n            tag_16:\n              tag_55\n              0x04\n              dup1\n              calldatasize\n              sub\n                /* \"--CODEGEN--\":13:15   */\n              0x20\n                /* \"--CODEGEN--\":8:11   */\n              dup2\n                /* \"--CODEGEN--\":5:16   */\n              lt\n                /* \"--CODEGEN--\":2:4   */\n              iszero\n              tag_74\n              jumpi\n                /* \"--CODEGEN--\":29:30   */\n              0x00\n                /* \"--CODEGEN--\":26:27   */\n              dup1\n                /* \"--CODEGEN--\":19:31   */\n              revert\n                /* \"--CODEGEN--\":2:4   */\n            tag_74:\n              pop\n                /* \"v2-core-master/v2-core-master/contracts/DEXV2FactoryFlat.sol\":15476:16712  function mint(address to) external lock returns (uint liquidity) {\r... */\n              calldataload\n              sub(shl(0xa0, 0x01), 0x01)\n              and\n              tag_75\n              jump\t// in\n                /* \"v2-core-master/v2-core-master/contracts/DEXV2FactoryFlat.sol\":4699:4740  mapping(address => uint) public balanceOf */\n            tag_17:\n              tag_55\n              0x04\n              dup1\n              calldatasize\n              sub\n                /* \"--CODEGEN--\":13:15   */\n              0x20\n                /* \"--CODEGEN--\":8:11   */\n              dup2\n                /* \"--CODEGEN--\":5:16   */\n              lt\n                /* \"--CODEGEN--\":2:4   */\n              iszero\n              tag_77\n              jumpi\n                /* \"--CODEGEN--\":29:30   */\n              0x00\n                /* \"--CODEGEN--\":26:27   */\n              dup1\n                /* \"--CODEGEN--\":19:31   */\n              revert\n                /* \"--CODEGEN--\":2:4   */\n            tag_77:\n              pop\n                /* \"v2-core-master/v2-core-master/contracts/DEXV2FactoryFlat.sol\":4699:4740  mapping(address => uint) public balanceOf */\n              calldataload\n              sub(shl(0xa0, 0x01), 0x01)\n              and\n              tag_78\n              jump\t// in\n                /* \"v2-core-master/v2-core-master/contracts/DEXV2FactoryFlat.sol\":11960:11977  uint public kLast */\n            tag_18:\n              tag_55\n              tag_80\n              jump\t// in\n                /* \"v2-core-master/v2-core-master/contracts/DEXV2FactoryFlat.sol\":5075:5113  mapping(address => uint) public nonces */\n            tag_19:\n              tag_55\n              0x04\n              dup1\n              calldatasize\n              sub\n                /* \"--CODEGEN--\":13:15   */\n              0x20\n                /* \"--CODEGEN--\":8:11   */\n              dup2\n                /* \"--CODEGEN--\":5:16   */\n              lt\n                /* \"--CODEGEN--\":2:4   */\n              iszero\n              tag_82\n              jumpi\n                /* \"--CODEGEN--\":29:30   */\n              0x00\n                /* \"--CODEGEN--\":26:27   */\n              dup1\n                /* \"--CODEGEN--\":19:31   */\n              revert\n                /* \"--CODEGEN--\":2:4   */\n            tag_82:\n              pop\n                /* \"v2-core-master/v2-core-master/contracts/DEXV2FactoryFlat.sol\":5075:5113  mapping(address => uint) public nonces */\n              calldataload\n              sub(shl(0xa0, 0x01), 0x01)\n              and\n              tag_83\n              jump\t// in\n                /* \"v2-core-master/v2-core-master/contracts/DEXV2FactoryFlat.sol\":16824:18286  function burn(address to) external lock returns (uint amount0, uint amount1) {\r... */\n            tag_20:\n              tag_84\n              0x04\n              dup1\n              calldatasize\n              sub\n                /* \"--CODEGEN--\":13:15   */\n              0x20\n                /* \"--CODEGEN--\":8:11   */\n              dup2\n                /* \"--CODEGEN--\":5:16   */\n              lt\n                /* \"--CODEGEN--\":2:4   */\n              iszero\n              tag_85\n              jumpi\n                /* \"--CODEGEN--\":29:30   */\n              0x00\n                /* \"--CODEGEN--\":26:27   */\n              dup1\n                /* \"--CODEGEN--\":19:31   */\n              revert\n                /* \"--CODEGEN--\":2:4   */\n            tag_85:\n              pop\n                /* \"v2-core-master/v2-core-master/contracts/DEXV2FactoryFlat.sol\":16824:18286  function burn(address to) external lock returns (uint amount0, uint amount1) {\r... */\n              calldataload\n              sub(shl(0xa0, 0x01), 0x01)\n              and\n              tag_86\n              jump\t// in\n            tag_84:\n              0x40\n              dup1\n              mload\n              swap3\n              dup4\n              mstore\n              0x20\n              dup4\n              add\n              swap2\n              swap1\n              swap2\n              mstore\n              dup1\n              mload\n              swap2\n              dup3\n              swap1\n              sub\n              add\n              swap1\n              return\n                /* \"v2-core-master/v2-core-master/contracts/DEXV2FactoryFlat.sol\":4579:4619  string public constant symbol = 'DEX-V2' */\n            tag_21:\n              tag_42\n              tag_88\n              jump\t// in\n                /* \"v2-core-master/v2-core-master/contracts/DEXV2FactoryFlat.sol\":6732:6871  function transfer(address to, uint value) external returns (bool) {\r... */\n            tag_22:\n              tag_50\n              0x04\n              dup1\n              calldatasize\n              sub\n                /* \"--CODEGEN--\":13:15   */\n              0x40\n                /* \"--CODEGEN--\":8:11   */\n              dup2\n                /* \"--CODEGEN--\":5:16   */\n              lt\n                /* \"--CODEGEN--\":2:4   */\n              iszero\n              tag_94\n              jumpi\n                /* \"--CODEGEN--\":29:30   */\n              0x00\n                /* \"--CODEGEN--\":26:27   */\n              dup1\n                /* \"--CODEGEN--\":19:31   */\n              revert\n                /* \"--CODEGEN--\":2:4   */\n            tag_94:\n              pop\n                /* \"v2-core-master/v2-core-master/contracts/DEXV2FactoryFlat.sol\":6732:6871  function transfer(address to, uint value) external returns (bool) {\r... */\n              dup1\n              calldataload\n              sub(shl(0xa0, 0x01), 0x01)\n              and\n              swap1\n              0x20\n              add\n              calldataload\n              tag_95\n              jump\t// in\n                /* \"v2-core-master/v2-core-master/contracts/DEXV2FactoryFlat.sol\":11352:11398  uint public constant MINIMUM_LIQUIDITY = 10**3 */\n            tag_23:\n              tag_55\n              tag_97\n              jump\t// in\n                /* \"v2-core-master/v2-core-master/contracts/DEXV2FactoryFlat.sol\":20308:20642  function skim(address to) external lock {\r... */\n            tag_24:\n              tag_36\n              0x04\n              dup1\n              calldatasize\n              sub\n                /* \"--CODEGEN--\":13:15   */\n              0x20\n                /* \"--CODEGEN--\":8:11   */\n              dup2\n                /* \"--CODEGEN--\":5:16   */\n              lt\n                /* \"--CODEGEN--\":2:4   */\n              iszero\n              tag_99\n              jumpi\n                /* \"--CODEGEN--\":29:30   */\n              0x00\n                /* \"--CODEGEN--\":26:27   */\n              dup1\n                /* \"--CODEGEN--\":19:31   */\n              revert\n                /* \"--CODEGEN--\":2:4   */\n            tag_99:\n              pop\n                /* \"v2-core-master/v2-core-master/contracts/DEXV2FactoryFlat.sol\":20308:20642  function skim(address to) external lock {\r... */\n              calldataload\n              sub(shl(0xa0, 0x01), 0x01)\n              and\n              tag_100\n              jump\t// in\n                /* \"v2-core-master/v2-core-master/contracts/DEXV2FactoryFlat.sol\":11502:11524  address public factory */\n            tag_25:\n              tag_53\n              tag_102\n              jump\t// in\n                /* \"v2-core-master/v2-core-master/contracts/DEXV2FactoryFlat.sol\":11559:11580  address public token1 */\n            tag_26:\n              tag_53\n              tag_104\n              jump\t// in\n                /* \"v2-core-master/v2-core-master/contracts/DEXV2FactoryFlat.sol\":7188:7854  function permit(address owner, address spender, uint value, uint deadline, uint8 v, bytes32 r, bytes32 s) external {\r... */\n            tag_27:\n              tag_36\n              0x04\n              dup1\n              calldatasize\n              sub\n                /* \"--CODEGEN--\":13:16   */\n              0xe0\n                /* \"--CODEGEN--\":8:11   */\n              dup2\n                /* \"--CODEGEN--\":5:17   */\n              lt\n                /* \"--CODEGEN--\":2:4   */\n              iszero\n              tag_106\n              jumpi\n                /* \"--CODEGEN--\":30:31   */\n              0x00\n                /* \"--CODEGEN--\":27:28   */\n              dup1\n                /* \"--CODEGEN--\":20:32   */\n              revert\n                /* \"--CODEGEN--\":2:4   */\n            tag_106:\n              pop\n              sub(shl(0xa0, 0x01), 0x01)\n                /* \"v2-core-master/v2-core-master/contracts/DEXV2FactoryFlat.sol\":7188:7854  function permit(address owner, address spender, uint value, uint deadline, uint8 v, bytes32 r, bytes32 s) external {\r... */\n              dup2\n              calldataload\n              dup2\n              and\n              swap2\n              0x20\n              dup2\n              add\n              calldataload\n              swap1\n              swap2\n              and\n              swap1\n              0x40\n              dup2\n              add\n              calldataload\n              swap1\n              0x60\n              dup2\n              add\n              calldataload\n              swap1\n              0xff\n              0x80\n              dup3\n              add\n              calldataload\n              and\n              swap1\n              0xa0\n              dup2\n              add\n              calldataload\n              swap1\n              0xc0\n              add\n              calldataload\n              tag_107\n              jump\t// in\n                /* \"v2-core-master/v2-core-master/contracts/DEXV2FactoryFlat.sol\":4747:4808  mapping(address => mapping(address => uint)) public allowance */\n            tag_28:\n              tag_55\n              0x04\n              dup1\n              calldatasize\n              sub\n                /* \"--CODEGEN--\":13:15   */\n              0x40\n                /* \"--CODEGEN--\":8:11   */\n              dup2\n                /* \"--CODEGEN--\":5:16   */\n              lt\n                /* \"--CODEGEN--\":2:4   */\n              iszero\n              tag_109\n              jumpi\n                /* \"--CODEGEN--\":29:30   */\n              0x00\n                /* \"--CODEGEN--\":26:27   */\n              dup1\n                /* \"--CODEGEN--\":19:31   */\n              revert\n                /* \"--CODEGEN--\":2:4   */\n            tag_109:\n              pop\n              sub(shl(0xa0, 0x01), 0x01)\n                /* \"v2-core-master/v2-core-master/contracts/DEXV2FactoryFlat.sol\":4747:4808  mapping(address => mapping(address => uint)) public allowance */\n              dup2\n              calldataload\n              dup2\n              and\n              swap2\n              0x20\n              add\n              calldataload\n              and\n              tag_110\n              jump\t// in\n                /* \"v2-core-master/v2-core-master/contracts/DEXV2FactoryFlat.sol\":20691:20849  function sync() external lock {\r... */\n            tag_29:\n              tag_36\n              tag_112\n              jump\t// in\n                /* \"v2-core-master/v2-core-master/contracts/DEXV2FactoryFlat.sol\":18398:20259  function swap(uint amount0Out, uint amount1Out, address to, bytes calldata data) external lock {\r... */\n            tag_41:\n                /* \"v2-core-master/v2-core-master/contracts/DEXV2FactoryFlat.sol\":12133:12141  unlocked */\n              sload(0x0c)\n                /* \"v2-core-master/v2-core-master/contracts/DEXV2FactoryFlat.sol\":12145:12146  1 */\n              0x01\n                /* \"v2-core-master/v2-core-master/contracts/DEXV2FactoryFlat.sol\":12133:12146  unlocked == 1 */\n              eq\n                /* \"v2-core-master/v2-core-master/contracts/DEXV2FactoryFlat.sol\":12125:12164  require(unlocked == 1, 'DEXV2: LOCKED') */\n              tag_114\n              jumpi\n              0x40\n              dup1\n              mload\n              shl(0xe5, 0x461bcd)\n              dup2\n              mstore\n              0x20\n              0x04\n              dup3\n              add\n              mstore\n              0x0d\n              0x24\n              dup3\n              add\n              mstore\n              shl(0x9a, 0x111156158c8e881313d0d2d151)\n              0x44\n              dup3\n              add\n              mstore\n              swap1\n              mload\n              swap1\n              dup2\n              swap1\n              sub\n              0x64\n              add\n              swap1\n              revert\n            tag_114:\n                /* \"v2-core-master/v2-core-master/contracts/DEXV2FactoryFlat.sol\":12186:12187  0 */\n              0x00\n                /* \"v2-core-master/v2-core-master/contracts/DEXV2FactoryFlat.sol\":12175:12183  unlocked */\n              0x0c\n                /* \"v2-core-master/v2-core-master/contracts/DEXV2FactoryFlat.sol\":12175:12187  unlocked = 0 */\n              sstore\n                /* \"v2-core-master/v2-core-master/contracts/DEXV2FactoryFlat.sol\":18512:18526  amount0Out > 0 */\n              dup5\n              iszero\n              iszero\n              dup1\n                /* \"v2-core-master/v2-core-master/contracts/DEXV2FactoryFlat.sol\":18512:18544  amount0Out > 0 || amount1Out > 0 */\n              tag_116\n              jumpi\n              pop\n                /* \"v2-core-master/v2-core-master/contracts/DEXV2FactoryFlat.sol\":18543:18544  0 */\n              0x00\n                /* \"v2-core-master/v2-core-master/contracts/DEXV2FactoryFlat.sol\":18530:18540  amount1Out */\n              dup5\n                /* \"v2-core-master/v2-core-master/contracts/DEXV2FactoryFlat.sol\":18530:18544  amount1Out > 0 */\n              gt\n                /* \"v2-core-master/v2-core-master/contracts/DEXV2FactoryFlat.sol\":18512:18544  amount0Out > 0 || amount1Out > 0 */\n            tag_116:\n                /* \"v2-core-master/v2-core-master/contracts/DEXV2FactoryFlat.sol\":18504:18582  require(amount0Out > 0 || amount1Out > 0, 'DEXV2: INSUFFICIENT_OUTPUT_AMOUNT') */\n              tag_117\n              jumpi\n              mload(0x40)\n              shl(0xe5, 0x461bcd)\n              dup2\n              mstore\n              0x04\n              add\n              dup1\n              dup1\n              0x20\n              add\n              dup3\n              dup2\n              sub\n              dup3\n              mstore\n              0x21\n              dup2\n              mstore\n              0x20\n              add\n              dup1\n              data_bd3d279deafa3a413c640d6c8c87c7163b054a9440c7e5272a4c3da9af95f292\n              0x21\n              swap2\n              codecopy\n              0x40\n              add\n              swap2\n              pop\n              pop\n              mload(0x40)\n              dup1\n              swap2\n              sub\n              swap1\n              revert\n            tag_117:\n                /* \"v2-core-master/v2-core-master/contracts/DEXV2FactoryFlat.sol\":18594:18611  uint112 _reserve0 */\n              0x00\n                /* \"v2-core-master/v2-core-master/contracts/DEXV2FactoryFlat.sol\":18613:18630  uint112 _reserve1 */\n              dup1\n                /* \"v2-core-master/v2-core-master/contracts/DEXV2FactoryFlat.sol\":18635:18648  getReserves() */\n              tag_118\n                /* \"v2-core-master/v2-core-master/contracts/DEXV2FactoryFlat.sol\":18635:18646  getReserves */\n              tag_49\n                /* \"v2-core-master/v2-core-master/contracts/DEXV2FactoryFlat.sol\":18635:18648  getReserves() */\n              jump\t// in\n            tag_118:\n              pop\n                /* \"v2-core-master/v2-core-master/contracts/DEXV2FactoryFlat.sol\":18593:18648  (uint112 _reserve0, uint112 _reserve1,) = getReserves() */\n              swap1\n              swap3\n              pop\n              swap1\n              pop\n              sub(shl(0x70, 0x01), 0x01)\n                /* \"v2-core-master/v2-core-master/contracts/DEXV2FactoryFlat.sol\":18682:18704  amount0Out < _reserve0 */\n              dup3\n              and\n              dup8\n              lt\n                /* \"v2-core-master/v2-core-master/contracts/DEXV2FactoryFlat.sol\":18682:18730  amount0Out < _reserve0 && amount1Out < _reserve1 */\n              dup1\n              iszero\n              tag_119\n              jumpi\n              pop\n              sub(shl(0x70, 0x01), 0x01)\n                /* \"v2-core-master/v2-core-master/contracts/DEXV2FactoryFlat.sol\":18708:18730  amount1Out < _reserve1 */\n              dup2\n              and\n              dup7\n              lt\n                /* \"v2-core-master/v2-core-master/contracts/DEXV2FactoryFlat.sol\":18682:18730  amount0Out < _reserve0 && amount1Out < _reserve1 */\n            tag_119:\n                /* \"v2-core-master/v2-core-master/contracts/DEXV2FactoryFlat.sol\":18674:18764  require(amount0Out < _reserve0 && amount1Out < _reserve1, 'DEXV2: INSUFFICIENT_LIQUIDITY') */\n              tag_120\n              jumpi\n              0x40\n              dup1\n              mload\n              shl(0xe5, 0x461bcd)\n              dup2\n              mstore\n              0x20\n              0x04\n              dup3\n              add\n              mstore\n              0x1d\n              0x24\n              dup3\n              add\n              mstore\n              0x44455856323a20494e53554646494349454e545f4c4951554944495459000000\n              0x44\n              dup3\n              add\n              mstore\n              swap1\n              mload\n              swap1\n              dup2\n              swap1\n              sub\n              0x64\n              add\n              swap1\n              revert\n            tag_120:\n                /* \"v2-core-master/v2-core-master/contracts/DEXV2FactoryFlat.sol\":18909:18915  token0 */\n              sload(0x06)\n                /* \"v2-core-master/v2-core-master/contracts/DEXV2FactoryFlat.sol\":18944:18950  token1 */\n              sload(0x07)\n                /* \"v2-core-master/v2-core-master/contracts/DEXV2FactoryFlat.sol\":18777:18790  uint balance0 */\n              0x00\n              swap2\n              dup3\n              swap2\n              sub(shl(0xa0, 0x01), 0x01)\n                /* \"v2-core-master/v2-core-master/contracts/DEXV2FactoryFlat.sol\":18909:18915  token0 */\n              swap2\n              dup3\n              and\n              swap2\n                /* \"v2-core-master/v2-core-master/contracts/DEXV2FactoryFlat.sol\":18944:18950  token1 */\n              swap1\n              dup2\n              and\n              swap1\n                /* \"v2-core-master/v2-core-master/contracts/DEXV2FactoryFlat.sol\":18969:18982  to != _token0 */\n              dup10\n              and\n              dup3\n              eq\n              dup1\n              iszero\n              swap1\n                /* \"v2-core-master/v2-core-master/contracts/DEXV2FactoryFlat.sol\":18969:18999  to != _token0 && to != _token1 */\n              tag_121\n              jumpi\n              pop\n              sub(shl(0xa0, 0x01), 0x01)\n                /* \"v2-core-master/v2-core-master/contracts/DEXV2FactoryFlat.sol\":18986:18999  to != _token1 */\n              dup10\n              dup2\n              and\n              swap1\n              dup3\n              and\n              eq\n              iszero\n                /* \"v2-core-master/v2-core-master/contracts/DEXV2FactoryFlat.sol\":18969:18999  to != _token0 && to != _token1 */\n            tag_121:\n                /* \"v2-core-master/v2-core-master/contracts/DEXV2FactoryFlat.sol\":18961:19021  require(to != _token0 && to != _token1, 'DEXV2: INVALID_TO') */\n              tag_122\n              jumpi\n              0x40\n              dup1\n              mload\n              shl(0xe5, 0x461bcd)\n              dup2\n              mstore\n              0x20\n              0x04\n              dup3\n              add\n              mstore\n              0x11\n              0x24\n              dup3\n              add\n              mstore\n              shl(0x78, 0x44455856323a20494e56414c49445f544f)\n              0x44\n              dup3\n              add\n              mstore\n              swap1\n              mload\n              swap1\n              dup2\n              swap1\n              sub\n              0x64\n              add\n              swap1\n              revert\n            tag_122:\n                /* \"v2-core-master/v2-core-master/contracts/DEXV2FactoryFlat.sol\":19036:19050  amount0Out > 0 */\n              dup11\n              iszero\n                /* \"v2-core-master/v2-core-master/contracts/DEXV2FactoryFlat.sol\":19032:19090  if (amount0Out > 0) _safeTransfer(_token0, to, amount0Out) */\n              tag_124\n              jumpi\n                /* \"v2-core-master/v2-core-master/contracts/DEXV2FactoryFlat.sol\":19052:19090  _safeTransfer(_token0, to, amount0Out) */\n              tag_124\n                /* \"v2-core-master/v2-core-master/contracts/DEXV2FactoryFlat.sol\":19066:19073  _token0 */\n              dup3\n                /* \"v2-core-master/v2-core-master/contracts/DEXV2FactoryFlat.sol\":19075:19077  to */\n              dup11\n                /* \"v2-core-master/v2-core-master/contracts/DEXV2FactoryFlat.sol\":19079:19089  amount0Out */\n              dup14\n                /* \"v2-core-master/v2-core-master/contracts/DEXV2FactoryFlat.sol\":19052:19065  _safeTransfer */\n              tag_125\n                /* \"v2-core-master/v2-core-master/contracts/DEXV2FactoryFlat.sol\":19052:19090  _safeTransfer(_token0, to, amount0Out) */\n              jump\t// in\n            tag_124:\n                /* \"v2-core-master/v2-core-master/contracts/DEXV2FactoryFlat.sol\":19139:19153  amount1Out > 0 */\n              dup10\n              iszero\n                /* \"v2-core-master/v2-core-master/contracts/DEXV2FactoryFlat.sol\":19135:19193  if (amount1Out > 0) _safeTransfer(_token1, to, amount1Out) */\n              tag_127\n              jumpi\n                /* \"v2-core-master/v2-core-master/contracts/DEXV2FactoryFlat.sol\":19155:19193  _safeTransfer(_token1, to, amount1Out) */\n              tag_127\n                /* \"v2-core-master/v2-core-master/contracts/DEXV2FactoryFlat.sol\":19169:19176  _token1 */\n              dup2\n                /* \"v2-core-master/v2-core-master/contracts/DEXV2FactoryFlat.sol\":19178:19180  to */\n              dup11\n                /* \"v2-core-master/v2-core-master/contracts/DEXV2FactoryFlat.sol\":19182:19192  amount1Out */\n              dup13\n                /* \"v2-core-master/v2-core-master/contracts/DEXV2FactoryFlat.sol\":19155:19168  _safeTransfer */\n              tag_125\n                /* \"v2-core-master/v2-core-master/contracts/DEXV2FactoryFlat.sol\":19155:19193  _safeTransfer(_token1, to, amount1Out) */\n              jump\t// in\n            tag_127:\n                /* \"v2-core-master/v2-core-master/contracts/DEXV2FactoryFlat.sol\":19242:19257  data.length > 0 */\n              dup7\n              iszero\n                /* \"v2-core-master/v2-core-master/contracts/DEXV2FactoryFlat.sol\":19238:19327  if (data.length > 0) IDEXV2Callee(to).DEXV2Call(msg.sender, amount0Out, amount1Out, data) */\n              tag_128\n              jumpi\n                /* \"v2-core-master/v2-core-master/contracts/DEXV2FactoryFlat.sol\":19272:19274  to */\n              dup9\n              0x01\n              dup1\n              0xa0\n              shl\n              sub\n                /* \"v2-core-master/v2-core-master/contracts/DEXV2FactoryFlat.sol\":19259:19285  IDEXV2Callee(to).DEXV2Call */\n              and\n              0xd48d2648\n                /* \"v2-core-master/v2-core-master/contracts/DEXV2FactoryFlat.sol\":19286:19296  msg.sender */\n              caller\n                /* \"v2-core-master/v2-core-master/contracts/DEXV2FactoryFlat.sol\":19298:19308  amount0Out */\n              dup14\n                /* \"v2-core-master/v2-core-master/contracts/DEXV2FactoryFlat.sol\":19310:19320  amount1Out */\n              dup14\n                /* \"v2-core-master/v2-core-master/contracts/DEXV2FactoryFlat.sol\":19322:19326  data */\n              dup13\n              dup13\n                /* \"v2-core-master/v2-core-master/contracts/DEXV2FactoryFlat.sol\":19259:19327  IDEXV2Callee(to).DEXV2Call(msg.sender, amount0Out, amount1Out, data) */\n              mload(0x40)\n              dup7\n              0xffffffff\n              and\n              0xe0\n              shl\n              dup2\n              mstore\n              0x04\n              add\n              dup1\n              dup7\n              0x01\n              dup1\n              0xa0\n              shl\n              sub\n              and\n              0x01\n              dup1\n              0xa0\n              shl\n              sub\n              and\n              dup2\n              mstore\n              0x20\n              add\n              dup6\n              dup2\n              mstore\n              0x20\n              add\n              dup5\n              dup2\n              mstore\n              0x20\n              add\n              dup1\n              0x20\n              add\n              dup3\n              dup2\n              sub\n              dup3\n              mstore\n              dup5\n              dup5\n              dup3\n              dup2\n              dup2\n              mstore\n              0x20\n              add\n              swap3\n              pop\n                /* \"--CODEGEN--\":30:33   */\n              dup1\n                /* \"--CODEGEN--\":22:28   */\n              dup3\n                /* \"--CODEGEN--\":14:20   */\n              dup5\n                /* \"--CODEGEN--\":1:34   */\n              calldatacopy\n                /* \"--CODEGEN--\":99:100   */\n              0x00\n                /* \"--CODEGEN--\":93:96   */\n              dup2\n                /* \"--CODEGEN--\":85:91   */\n              dup5\n                /* \"--CODEGEN--\":81:97   */\n              add\n                /* \"--CODEGEN--\":74:101   */\n              mstore\n                /* \"--CODEGEN--\":137:141   */\n              0x1f\n                /* \"--CODEGEN--\":133:142   */\n              not\n                /* \"--CODEGEN--\":126:130   */\n              0x1f\n                /* \"--CODEGEN--\":121:124   */\n              dup3\n                /* \"--CODEGEN--\":117:131   */\n              add\n                /* \"--CODEGEN--\":113:143   */\n              and\n                /* \"--CODEGEN--\":106:143   */\n              swap1\n              pop\n                /* \"--CODEGEN--\":169:172   */\n              dup1\n                /* \"--CODEGEN--\":161:167   */\n              dup4\n                /* \"--CODEGEN--\":157:173   */\n              add\n                /* \"--CODEGEN--\":147:173   */\n              swap3\n              pop\n                /* \"v2-core-master/v2-core-master/contracts/DEXV2FactoryFlat.sol\":19259:19327  IDEXV2Callee(to).DEXV2Call(msg.sender, amount0Out, amount1Out, data) */\n              pop\n              pop\n              swap7\n              pop\n              pop\n              pop\n              pop\n              pop\n              pop\n              pop\n              0x00\n              mload(0x40)\n              dup1\n              dup4\n              sub\n              dup2\n              0x00\n              dup8\n              dup1\n              extcodesize\n              iszero\n                /* \"--CODEGEN--\":8:17   */\n              dup1\n                /* \"--CODEGEN--\":5:7   */\n              iszero\n              tag_129\n              jumpi\n                /* \"--CODEGEN--\":30:31   */\n              0x00\n                /* \"--CODEGEN--\":27:28   */\n              dup1\n                /* \"--CODEGEN--\":20:32   */\n              revert\n                /* \"--CODEGEN--\":5:7   */\n            tag_129:\n                /* \"v2-core-master/v2-core-master/contracts/DEXV2FactoryFlat.sol\":19259:19327  IDEXV2Callee(to).DEXV2Call(msg.sender, amount0Out, amount1Out, data) */\n              pop\n              gas\n              call\n              iszero\n                /* \"--CODEGEN--\":8:17   */\n              dup1\n                /* \"--CODEGEN--\":5:7   */\n              iszero\n              tag_130\n              jumpi\n                /* \"--CODEGEN--\":45:61   */\n              returndatasize\n                /* \"--CODEGEN--\":42:43   */\n              0x00\n                /* \"--CODEGEN--\":39:40   */\n              dup1\n                /* \"--CODEGEN--\":24:62   */\n              returndatacopy\n                /* \"--CODEGEN--\":77:93   */\n              returndatasize\n                /* \"--CODEGEN--\":74:75   */\n              0x00\n                /* \"--CODEGEN--\":67:94   */\n              revert\n                /* \"--CODEGEN--\":5:7   */\n            tag_130:\n                /* \"v2-core-master/v2-core-master/contracts/DEXV2FactoryFlat.sol\":19259:19327  IDEXV2Callee(to).DEXV2Call(msg.sender, amount0Out, amount1Out, data) */\n              pop\n              pop\n              pop\n              pop\n                /* \"v2-core-master/v2-core-master/contracts/DEXV2FactoryFlat.sol\":19238:19327  if (data.length > 0) IDEXV2Callee(to).DEXV2Call(msg.sender, amount0Out, amount1Out, data) */\n            tag_128:\n                /* \"v2-core-master/v2-core-master/contracts/DEXV2FactoryFlat.sol\":19349:19389  IERC20(_token0).balanceOf(address(this)) */\n              0x40\n              dup1\n              mload\n              shl(0xe0, 0x70a08231)\n              dup2\n              mstore\n                /* \"v2-core-master/v2-core-master/contracts/DEXV2FactoryFlat.sol\":19383:19387  this */\n              address\n                /* \"v2-core-master/v2-core-master/contracts/DEXV2FactoryFlat.sol\":19349:19389  IERC20(_token0).balanceOf(address(this)) */\n              0x04\n              dup3\n              add\n              mstore\n              swap1\n              mload\n              sub(shl(0xa0, 0x01), 0x01)\n                /* \"v2-core-master/v2-core-master/contracts/DEXV2FactoryFlat.sol\":19349:19374  IERC20(_token0).balanceOf */\n              dup5\n              and\n              swap2\n              0x70a08231\n              swap2\n                /* \"v2-core-master/v2-core-master/contracts/DEXV2FactoryFlat.sol\":19349:19389  IERC20(_token0).balanceOf(address(this)) */\n              0x24\n              dup1\n              dup4\n              add\n              swap3\n              0x20\n              swap3\n              swap2\n              swap1\n              dup3\n              swap1\n              sub\n              add\n              dup2\n                /* \"v2-core-master/v2-core-master/contracts/DEXV2FactoryFlat.sol\":19349:19374  IERC20(_token0).balanceOf */\n              dup7\n                /* \"v2-core-master/v2-core-master/contracts/DEXV2FactoryFlat.sol\":19349:19389  IERC20(_token0).balanceOf(address(this)) */\n              dup1\n              extcodesize\n              iszero\n                /* \"--CODEGEN--\":5:7   */\n              dup1\n              iszero\n              tag_131\n              jumpi\n                /* \"--CODEGEN--\":30:31   */\n              0x00\n                /* \"--CODEGEN--\":27:28   */\n              dup1\n                /* \"--CODEGEN--\":20:32   */\n              revert\n                /* \"--CODEGEN--\":5:7   */\n            tag_131:\n                /* \"v2-core-master/v2-core-master/contracts/DEXV2FactoryFlat.sol\":19349:19389  IERC20(_token0).balanceOf(address(this)) */\n              pop\n              gas\n              staticcall\n              iszero\n                /* \"--CODEGEN--\":8:17   */\n              dup1\n                /* \"--CODEGEN--\":5:7   */\n              iszero\n              tag_132\n              jumpi\n                /* \"--CODEGEN--\":45:61   */\n              returndatasize\n                /* \"--CODEGEN--\":42:43   */\n              0x00\n                /* \"--CODEGEN--\":39:40   */\n              dup1\n                /* \"--CODEGEN--\":24:62   */\n              returndatacopy\n                /* \"--CODEGEN--\":77:93   */\n              returndatasize\n                /* \"--CODEGEN--\":74:75   */\n              0x00\n                /* \"--CODEGEN--\":67:94   */\n              revert\n                /* \"--CODEGEN--\":5:7   */\n            tag_132:\n                /* \"v2-core-master/v2-core-master/contracts/DEXV2FactoryFlat.sol\":19349:19389  IERC20(_token0).balanceOf(address(this)) */\n              pop\n              pop\n              pop\n              pop\n              mload(0x40)\n              returndatasize\n                /* \"--CODEGEN--\":13:15   */\n              0x20\n                /* \"--CODEGEN--\":8:11   */\n              dup2\n                /* \"--CODEGEN--\":5:16   */\n              lt\n                /* \"--CODEGEN--\":2:4   */\n              iszero\n              tag_133\n              jumpi\n                /* \"--CODEGEN--\":29:30   */\n              0x00\n                /* \"--CODEGEN--\":26:27   */\n              dup1\n                /* \"--CODEGEN--\":19:31   */\n              revert\n                /* \"--CODEGEN--\":2:4   */\n            tag_133:\n              pop\n                /* \"v2-core-master/v2-core-master/contracts/DEXV2FactoryFlat.sol\":19349:19389  IERC20(_token0).balanceOf(address(this)) */\n              mload\n                /* \"v2-core-master/v2-core-master/contracts/DEXV2FactoryFlat.sol\":19411:19451  IERC20(_token1).balanceOf(address(this)) */\n              0x40\n              dup1\n              mload\n              shl(0xe0, 0x70a08231)\n              dup2\n              mstore\n                /* \"v2-core-master/v2-core-master/contracts/DEXV2FactoryFlat.sol\":19445:19449  this */\n              address\n                /* \"v2-core-master/v2-core-master/contracts/DEXV2FactoryFlat.sol\":19411:19451  IERC20(_token1).balanceOf(address(this)) */\n              0x04\n              dup3\n              add\n              mstore\n              swap1\n              mload\n                /* \"v2-core-master/v2-core-master/contracts/DEXV2FactoryFlat.sol\":19349:19389  IERC20(_token0).balanceOf(address(this)) */\n              swap2\n              swap6\n              pop\n              sub(shl(0xa0, 0x01), 0x01)\n                /* \"v2-core-master/v2-core-master/contracts/DEXV2FactoryFlat.sol\":19411:19436  IERC20(_token1).balanceOf */\n              dup4\n              and\n              swap2\n              0x70a08231\n              swap2\n                /* \"v2-core-master/v2-core-master/contracts/DEXV2FactoryFlat.sol\":19411:19451  IERC20(_token1).balanceOf(address(this)) */\n              0x24\n              dup1\n              dup3\n              add\n              swap3\n                /* \"v2-core-master/v2-core-master/contracts/DEXV2FactoryFlat.sol\":19349:19389  IERC20(_token0).balanceOf(address(this)) */\n              0x20\n              swap3\n                /* \"v2-core-master/v2-core-master/contracts/DEXV2FactoryFlat.sol\":19411:19451  IERC20(_token1).balanceOf(address(this)) */\n              swap1\n              swap2\n              swap1\n              dup3\n              swap1\n              sub\n              add\n              dup2\n                /* \"v2-core-master/v2-core-master/contracts/DEXV2FactoryFlat.sol\":19411:19436  IERC20(_token1).balanceOf */\n              dup7\n                /* \"v2-core-master/v2-core-master/contracts/DEXV2FactoryFlat.sol\":19411:19451  IERC20(_token1).balanceOf(address(this)) */\n              dup1\n              extcodesize\n              iszero\n                /* \"--CODEGEN--\":5:7   */\n              dup1\n              iszero\n              tag_134\n              jumpi\n                /* \"--CODEGEN--\":30:31   */\n              0x00\n                /* \"--CODEGEN--\":27:28   */\n              dup1\n                /* \"--CODEGEN--\":20:32   */\n              revert\n                /* \"--CODEGEN--\":5:7   */\n            tag_134:\n                /* \"v2-core-master/v2-core-master/contracts/DEXV2FactoryFlat.sol\":19411:19451  IERC20(_token1).balanceOf(address(this)) */\n              pop\n              gas\n              staticcall\n              iszero\n                /* \"--CODEGEN--\":8:17   */\n              dup1\n                /* \"--CODEGEN--\":5:7   */\n              iszero\n              tag_135\n              jumpi\n                /* \"--CODEGEN--\":45:61   */\n              returndatasize\n                /* \"--CODEGEN--\":42:43   */\n              0x00\n                /* \"--CODEGEN--\":39:40   */\n              dup1\n                /* \"--CODEGEN--\":24:62   */\n              returndatacopy\n                /* \"--CODEGEN--\":77:93   */\n              returndatasize\n                /* \"--CODEGEN--\":74:75   */\n              0x00\n                /* \"--CODEGEN--\":67:94   */\n              revert\n                /* \"--CODEGEN--\":5:7   */\n            tag_135:\n                /* \"v2-core-master/v2-core-master/contracts/DEXV2FactoryFlat.sol\":19411:19451  IERC20(_token1).balanceOf(address(this)) */\n              pop\n              pop\n              pop\n              pop\n              mload(0x40)\n              returndatasize\n                /* \"--CODEGEN--\":13:15   */\n              0x20\n                /* \"--CODEGEN--\":8:11   */\n              dup2\n                /* \"--CODEGEN--\":5:16   */\n              lt\n                /* \"--CODEGEN--\":2:4   */\n              iszero\n              tag_136\n              jumpi\n                /* \"--CODEGEN--\":29:30   */\n              0x00\n                /* \"--CODEGEN--\":26:27   */\n              dup1\n                /* \"--CODEGEN--\":19:31   */\n              revert\n                /* \"--CODEGEN--\":2:4   */\n            tag_136:\n              pop\n                /* \"v2-core-master/v2-core-master/contracts/DEXV2FactoryFlat.sol\":19411:19451  IERC20(_token1).balanceOf(address(this)) */\n              mload\n              swap3\n              pop\n                /* \"v2-core-master/v2-core-master/contracts/DEXV2FactoryFlat.sol\":19473:19487  uint amount0In */\n              0x00\n              swap2\n              pop\n              pop\n              sub(shl(0x70, 0x01), 0x01)\n                /* \"v2-core-master/v2-core-master/contracts/DEXV2FactoryFlat.sol\":19501:19523  _reserve0 - amount0Out */\n              dup6\n              and\n              dup11\n              swap1\n              sub\n                /* \"v2-core-master/v2-core-master/contracts/DEXV2FactoryFlat.sol\":19490:19523  balance0 > _reserve0 - amount0Out */\n              dup4\n              gt\n                /* \"v2-core-master/v2-core-master/contracts/DEXV2FactoryFlat.sol\":19490:19565  balance0 > _reserve0 - amount0Out ? balance0 - (_reserve0 - amount0Out) : 0 */\n              tag_137\n              jumpi\n                /* \"v2-core-master/v2-core-master/contracts/DEXV2FactoryFlat.sol\":19564:19565  0 */\n              0x00\n                /* \"v2-core-master/v2-core-master/contracts/DEXV2FactoryFlat.sol\":19490:19565  balance0 > _reserve0 - amount0Out ? balance0 - (_reserve0 - amount0Out) : 0 */\n              jump(tag_138)\n            tag_137:\n              sub(shl(0x70, 0x01), 0x01)\n                /* \"v2-core-master/v2-core-master/contracts/DEXV2FactoryFlat.sol\":19538:19560  _reserve0 - amount0Out */\n              dup6\n              and\n              dup11\n              swap1\n              sub\n                /* \"v2-core-master/v2-core-master/contracts/DEXV2FactoryFlat.sol\":19526:19561  balance0 - (_reserve0 - amount0Out) */\n              dup4\n              sub\n                /* \"v2-core-master/v2-core-master/contracts/DEXV2FactoryFlat.sol\":19490:19565  balance0 > _reserve0 - amount0Out ? balance0 - (_reserve0 - amount0Out) : 0 */\n            tag_138:\n                /* \"v2-core-master/v2-core-master/contracts/DEXV2FactoryFlat.sol\":19473:19565  uint amount0In = balance0 > _reserve0 - amount0Out ? balance0 - (_reserve0 - amount0Out) : 0 */\n              swap1\n              pop\n                /* \"v2-core-master/v2-core-master/contracts/DEXV2FactoryFlat.sol\":19576:19590  uint amount1In */\n              0x00\n              sub(shl(0x70, 0x01), 0x01)\n                /* \"v2-core-master/v2-core-master/contracts/DEXV2FactoryFlat.sol\":19604:19626  _reserve1 - amount1Out */\n              dup6\n              and\n              dup11\n              swap1\n              sub\n                /* \"v2-core-master/v2-core-master/contracts/DEXV2FactoryFlat.sol\":19593:19626  balance1 > _reserve1 - amount1Out */\n              dup4\n              gt\n                /* \"v2-core-master/v2-core-master/contracts/DEXV2FactoryFlat.sol\":19593:19668  balance1 > _reserve1 - amount1Out ? balance1 - (_reserve1 - amount1Out) : 0 */\n              tag_139\n              jumpi\n                /* \"v2-core-master/v2-core-master/contracts/DEXV2FactoryFlat.sol\":19667:19668  0 */\n              0x00\n                /* \"v2-core-master/v2-core-master/contracts/DEXV2FactoryFlat.sol\":19593:19668  balance1 > _reserve1 - amount1Out ? balance1 - (_reserve1 - amount1Out) : 0 */\n              jump(tag_140)\n            tag_139:\n              sub(shl(0x70, 0x01), 0x01)\n                /* \"v2-core-master/v2-core-master/contracts/DEXV2FactoryFlat.sol\":19641:19663  _reserve1 - amount1Out */\n              dup6\n              and\n              dup11\n              swap1\n              sub\n                /* \"v2-core-master/v2-core-master/contracts/DEXV2FactoryFlat.sol\":19629:19664  balance1 - (_reserve1 - amount1Out) */\n              dup4\n              sub\n                /* \"v2-core-master/v2-core-master/contracts/DEXV2FactoryFlat.sol\":19593:19668  balance1 > _reserve1 - amount1Out ? balance1 - (_reserve1 - amount1Out) : 0 */\n            tag_140:\n                /* \"v2-core-master/v2-core-master/contracts/DEXV2FactoryFlat.sol\":19576:19668  uint amount1In = balance1 > _reserve1 - amount1Out ? balance1 - (_reserve1 - amount1Out) : 0 */\n              swap1\n              pop\n                /* \"v2-core-master/v2-core-master/contracts/DEXV2FactoryFlat.sol\":19699:19700  0 */\n              0x00\n                /* \"v2-core-master/v2-core-master/contracts/DEXV2FactoryFlat.sol\":19687:19696  amount0In */\n              dup3\n                /* \"v2-core-master/v2-core-master/contracts/DEXV2FactoryFlat.sol\":19687:19700  amount0In > 0 */\n              gt\n                /* \"v2-core-master/v2-core-master/contracts/DEXV2FactoryFlat.sol\":19687:19717  amount0In > 0 || amount1In > 0 */\n              dup1\n              tag_141\n              jumpi\n              pop\n                /* \"v2-core-master/v2-core-master/contracts/DEXV2FactoryFlat.sol\":19716:19717  0 */\n              0x00\n                /* \"v2-core-master/v2-core-master/contracts/DEXV2FactoryFlat.sol\":19704:19713  amount1In */\n              dup2\n                /* \"v2-core-master/v2-core-master/contracts/DEXV2FactoryFlat.sol\":19704:19717  amount1In > 0 */\n              gt\n                /* \"v2-core-master/v2-core-master/contracts/DEXV2FactoryFlat.sol\":19687:19717  amount0In > 0 || amount1In > 0 */\n            tag_141:\n                /* \"v2-core-master/v2-core-master/contracts/DEXV2FactoryFlat.sol\":19679:19754  require(amount0In > 0 || amount1In > 0, 'DEXV2: INSUFFICIENT_INPUT_AMOUNT') */\n              tag_142\n              jumpi\n              0x40\n              dup1\n              mload\n              shl(0xe5, 0x461bcd)\n              dup2\n              mstore\n              0x20\n              0x04\n              dup3\n              add\n              dup2\n              swap1\n              mstore\n              0x24\n              dup3\n              add\n              mstore\n              0x44455856323a20494e53554646494349454e545f494e5055545f414d4f554e54\n              0x44\n              dup3\n              add\n              mstore\n              swap1\n              mload\n              swap1\n              dup2\n              swap1\n              sub\n              0x64\n              add\n              swap1\n              revert\n            tag_142:\n                /* \"v2-core-master/v2-core-master/contracts/DEXV2FactoryFlat.sol\":19840:19861  uint balance0Adjusted */\n              0x00\n                /* \"v2-core-master/v2-core-master/contracts/DEXV2FactoryFlat.sol\":19864:19904  balance0.mul(1000).sub(amount0In.mul(3)) */\n              tag_143\n                /* \"v2-core-master/v2-core-master/contracts/DEXV2FactoryFlat.sol\":19887:19903  amount0In.mul(3) */\n              tag_144\n                /* \"v2-core-master/v2-core-master/contracts/DEXV2FactoryFlat.sol\":19887:19896  amount0In */\n              dup5\n                /* \"v2-core-master/v2-core-master/contracts/DEXV2FactoryFlat.sol\":19901:19902  3 */\n              0x03\n                /* \"v2-core-master/v2-core-master/contracts/DEXV2FactoryFlat.sol\":19887:19903  amount0In.mul(3) */\n              0xffffffff\n                /* \"v2-core-master/v2-core-master/contracts/DEXV2FactoryFlat.sol\":19887:19900  amount0In.mul */\n              tag_145\n                /* \"v2-core-master/v2-core-master/contracts/DEXV2FactoryFlat.sol\":19887:19903  amount0In.mul(3) */\n              and\n              jump\t// in\n            tag_144:\n                /* \"v2-core-master/v2-core-master/contracts/DEXV2FactoryFlat.sol\":19864:19882  balance0.mul(1000) */\n              tag_146\n                /* \"v2-core-master/v2-core-master/contracts/DEXV2FactoryFlat.sol\":19864:19872  balance0 */\n              dup8\n                /* \"v2-core-master/v2-core-master/contracts/DEXV2FactoryFlat.sol\":19877:19881  1000 */\n              0x03e8\n                /* \"v2-core-master/v2-core-master/contracts/DEXV2FactoryFlat.sol\":19864:19882  balance0.mul(1000) */\n              0xffffffff\n                /* \"v2-core-master/v2-core-master/contracts/DEXV2FactoryFlat.sol\":19864:19876  balance0.mul */\n              tag_145\n                /* \"v2-core-master/v2-core-master/contracts/DEXV2FactoryFlat.sol\":19864:19882  balance0.mul(1000) */\n              and\n              jump\t// in\n            tag_146:\n                /* \"v2-core-master/v2-core-master/contracts/DEXV2FactoryFlat.sol\":19864:19886  balance0.mul(1000).sub */\n              swap1\n                /* \"v2-core-master/v2-core-master/contracts/DEXV2FactoryFlat.sol\":19864:19904  balance0.mul(1000).sub(amount0In.mul(3)) */\n              0xffffffff\n                /* \"v2-core-master/v2-core-master/contracts/DEXV2FactoryFlat.sol\":19864:19886  balance0.mul(1000).sub */\n              tag_147\n                /* \"v2-core-master/v2-core-master/contracts/DEXV2FactoryFlat.sol\":19864:19904  balance0.mul(1000).sub(amount0In.mul(3)) */\n              and\n              jump\t// in\n            tag_143:\n                /* \"v2-core-master/v2-core-master/contracts/DEXV2FactoryFlat.sol\":19840:19904  uint balance0Adjusted = balance0.mul(1000).sub(amount0In.mul(3)) */\n              swap1\n              pop\n                /* \"v2-core-master/v2-core-master/contracts/DEXV2FactoryFlat.sol\":19915:19936  uint balance1Adjusted */\n              0x00\n                /* \"v2-core-master/v2-core-master/contracts/DEXV2FactoryFlat.sol\":19939:19979  balance1.mul(1000).sub(amount1In.mul(3)) */\n              tag_148\n                /* \"v2-core-master/v2-core-master/contracts/DEXV2FactoryFlat.sol\":19962:19978  amount1In.mul(3) */\n              tag_144\n                /* \"v2-core-master/v2-core-master/contracts/DEXV2FactoryFlat.sol\":19962:19971  amount1In */\n              dup5\n                /* \"v2-core-master/v2-core-master/contracts/DEXV2FactoryFlat.sol\":19976:19977  3 */\n              0x03\n                /* \"v2-core-master/v2-core-master/contracts/DEXV2FactoryFlat.sol\":19962:19978  amount1In.mul(3) */\n              0xffffffff\n                /* \"v2-core-master/v2-core-master/contracts/DEXV2FactoryFlat.sol\":19962:19975  amount1In.mul */\n              tag_145\n                /* \"v2-core-master/v2-core-master/contracts/DEXV2FactoryFlat.sol\":19962:19978  amount1In.mul(3) */\n              and\n              jump\t// in\n                /* \"v2-core-master/v2-core-master/contracts/DEXV2FactoryFlat.sol\":19939:19979  balance1.mul(1000).sub(amount1In.mul(3)) */\n            tag_148:\n                /* \"v2-core-master/v2-core-master/contracts/DEXV2FactoryFlat.sol\":19915:19979  uint balance1Adjusted = balance1.mul(1000).sub(amount1In.mul(3)) */\n              swap1\n              pop\n                /* \"v2-core-master/v2-core-master/contracts/DEXV2FactoryFlat.sol\":20040:20083  uint(_reserve0).mul(_reserve1).mul(1000**2) */\n              tag_151\n                /* \"v2-core-master/v2-core-master/contracts/DEXV2FactoryFlat.sol\":20075:20082  1000**2 */\n              0x0f4240\n                /* \"v2-core-master/v2-core-master/contracts/DEXV2FactoryFlat.sol\":20040:20070  uint(_reserve0).mul(_reserve1) */\n              tag_152\n              sub(shl(0x70, 0x01), 0x01)\n                /* \"v2-core-master/v2-core-master/contracts/DEXV2FactoryFlat.sol\":20040:20055  uint(_reserve0) */\n              dup12\n              dup2\n              and\n              swap1\n                /* \"v2-core-master/v2-core-master/contracts/DEXV2FactoryFlat.sol\":20040:20070  uint(_reserve0).mul(_reserve1) */\n              dup12\n              and\n                /* \"v2-core-master/v2-core-master/contracts/DEXV2FactoryFlat.sol\":20040:20059  uint(_reserve0).mul */\n              tag_145\n                /* \"v2-core-master/v2-core-master/contracts/DEXV2FactoryFlat.sol\":20040:20070  uint(_reserve0).mul(_reserve1) */\n              jump\t// in\n            tag_152:\n                /* \"v2-core-master/v2-core-master/contracts/DEXV2FactoryFlat.sol\":20040:20074  uint(_reserve0).mul(_reserve1).mul */\n              swap1\n                /* \"v2-core-master/v2-core-master/contracts/DEXV2FactoryFlat.sol\":20040:20083  uint(_reserve0).mul(_reserve1).mul(1000**2) */\n              0xffffffff\n                /* \"v2-core-master/v2-core-master/contracts/DEXV2FactoryFlat.sol\":20040:20074  uint(_reserve0).mul(_reserve1).mul */\n              tag_145\n                /* \"v2-core-master/v2-core-master/contracts/DEXV2FactoryFlat.sol\":20040:20083  uint(_reserve0).mul(_reserve1).mul(1000**2) */\n              and\n              jump\t// in\n            tag_151:\n                /* \"v2-core-master/v2-core-master/contracts/DEXV2FactoryFlat.sol\":19998:20036  balance0Adjusted.mul(balance1Adjusted) */\n              tag_153\n                /* \"v2-core-master/v2-core-master/contracts/DEXV2FactoryFlat.sol\":19998:20014  balance0Adjusted */\n              dup4\n                /* \"v2-core-master/v2-core-master/contracts/DEXV2FactoryFlat.sol\":20019:20035  balance1Adjusted */\n              dup4\n                /* \"v2-core-master/v2-core-master/contracts/DEXV2FactoryFlat.sol\":19998:20036  balance0Adjusted.mul(balance1Adjusted) */\n              0xffffffff\n                /* \"v2-core-master/v2-core-master/contracts/DEXV2FactoryFlat.sol\":19998:20018  balance0Adjusted.mul */\n              tag_145\n                /* \"v2-core-master/v2-core-master/contracts/DEXV2FactoryFlat.sol\":19998:20036  balance0Adjusted.mul(balance1Adjusted) */\n              and\n              jump\t// in\n            tag_153:\n                /* \"v2-core-master/v2-core-master/contracts/DEXV2FactoryFlat.sol\":19998:20083  balance0Adjusted.mul(balance1Adjusted) >= uint(_reserve0).mul(_reserve1).mul(1000**2) */\n              lt\n              iszero\n                /* \"v2-core-master/v2-core-master/contracts/DEXV2FactoryFlat.sol\":19990:20096  require(balance0Adjusted.mul(balance1Adjusted) >= uint(_reserve0).mul(_reserve1).mul(1000**2), 'DEXV2: K') */\n              tag_154\n              jumpi\n              0x40\n              dup1\n              mload\n              shl(0xe5, 0x461bcd)\n              dup2\n              mstore\n              0x20\n              0x04\n              dup3\n              add\n              mstore\n              0x08\n              0x24\n              dup3\n              add\n              mstore\n              shl(0xc0, 0x44455856323a204b)\n              0x44\n              dup3\n              add\n              mstore\n              swap1\n              mload\n              swap1\n              dup2\n              swap1\n              sub\n              0x64\n              add\n              swap1\n              revert\n            tag_154:\n                /* \"v2-core-master/v2-core-master/contracts/DEXV2FactoryFlat.sol\":12198:12199  _ */\n              pop\n              pop\n                /* \"v2-core-master/v2-core-master/contracts/DEXV2FactoryFlat.sol\":20120:20169  _update(balance0, balance1, _reserve0, _reserve1) */\n              tag_155\n                /* \"v2-core-master/v2-core-master/contracts/DEXV2FactoryFlat.sol\":20128:20136  balance0 */\n              dup5\n                /* \"v2-core-master/v2-core-master/contracts/DEXV2FactoryFlat.sol\":20138:20146  balance1 */\n              dup5\n                /* \"v2-core-master/v2-core-master/contracts/DEXV2FactoryFlat.sol\":20148:20157  _reserve0 */\n              dup9\n                /* \"v2-core-master/v2-core-master/contracts/DEXV2FactoryFlat.sol\":20159:20168  _reserve1 */\n              dup9\n                /* \"v2-core-master/v2-core-master/contracts/DEXV2FactoryFlat.sol\":20120:20127  _update */\n              tag_156\n                /* \"v2-core-master/v2-core-master/contracts/DEXV2FactoryFlat.sol\":20120:20169  _update(balance0, balance1, _reserve0, _reserve1) */\n              jump\t// in\n            tag_155:\n                /* \"v2-core-master/v2-core-master/contracts/DEXV2FactoryFlat.sol\":20185:20251  Swap(msg.sender, amount0In, amount1In, amount0Out, amount1Out, to) */\n              0x40\n              dup1\n              mload\n              dup4\n              dup2\n              mstore\n              0x20\n              dup2\n              add\n              dup4\n              swap1\n              mstore\n              dup1\n              dup3\n              add\n              dup14\n              swap1\n              mstore\n              0x60\n              dup2\n              add\n              dup13\n              swap1\n              mstore\n              swap1\n              mload\n              sub(shl(0xa0, 0x01), 0x01)\n              dup12\n              and\n              swap2\n                /* \"v2-core-master/v2-core-master/contracts/DEXV2FactoryFlat.sol\":20190:20200  msg.sender */\n              caller\n              swap2\n                /* \"v2-core-master/v2-core-master/contracts/DEXV2FactoryFlat.sol\":20185:20251  Swap(msg.sender, amount0In, amount1In, amount0Out, amount1Out, to) */\n              0xd78ad95fa46c994b6551d0da85fc275fe613ce37657fb8d5e3d130840159d822\n              swap2\n              dup2\n              swap1\n              sub\n              0x80\n              add\n              swap1\n              log3\n              pop\n              pop\n                /* \"v2-core-master/v2-core-master/contracts/DEXV2FactoryFlat.sol\":12221:12222  1 */\n              0x01\n                /* \"v2-core-master/v2-core-master/contracts/DEXV2FactoryFlat.sol\":12210:12218  unlocked */\n              0x0c\n                /* \"v2-core-master/v2-core-master/contracts/DEXV2FactoryFlat.sol\":12210:12222  unlocked = 1 */\n              sstore\n              pop\n              pop\n              pop\n              pop\n              pop\n              pop\n              pop\n              pop\n              pop\n                /* \"v2-core-master/v2-core-master/contracts/DEXV2FactoryFlat.sol\":18398:20259  function swap(uint amount0Out, uint amount1Out, address to, bytes calldata data) external lock {\r... */\n              jump\t// out\n                /* \"v2-core-master/v2-core-master/contracts/DEXV2FactoryFlat.sol\":4534:4572  string public constant name = 'DEX V2' */\n            tag_43:\n              0x40\n              dup1\n              mload\n              dup1\n              dup3\n              add\n              swap1\n              swap2\n              mstore\n              0x06\n              dup2\n              mstore\n              shl(0xd1, 0x2222ac102b19)\n              0x20\n              dup3\n              add\n              mstore\n              dup2\n              jump\t// out\n                /* \"v2-core-master/v2-core-master/contracts/DEXV2FactoryFlat.sol\":12238:12469  function getReserves() public view returns (uint112 _reserve0, uint112 _reserve1, uint32 _blockTimestampLast) {\r... */\n            tag_49:\n                /* \"v2-core-master/v2-core-master/contracts/DEXV2FactoryFlat.sol\":12371:12379  reserve0 */\n              sload(0x08)\n              sub(shl(0x70, 0x01), 0x01)\n              dup1\n              dup3\n              and\n              swap3\n              shl(0x70, 0x01)\n                /* \"v2-core-master/v2-core-master/contracts/DEXV2FactoryFlat.sol\":12402:12410  reserve1 */\n              dup4\n              div\n              swap1\n              swap2\n              and\n              swap2\n              shl(0xe0, 0x01)\n                /* \"v2-core-master/v2-core-master/contracts/DEXV2FactoryFlat.sol\":12443:12461  blockTimestampLast */\n              swap1\n              div\n              0xffffffff\n              and\n              swap1\n                /* \"v2-core-master/v2-core-master/contracts/DEXV2FactoryFlat.sol\":12238:12469  function getReserves() public view returns (uint112 _reserve0, uint112 _reserve1, uint32 _blockTimestampLast) {\r... */\n              jump\t// out\n                /* \"v2-core-master/v2-core-master/contracts/DEXV2FactoryFlat.sol\":6577:6724  function approve(address spender, uint value) external returns (bool) {\r... */\n            tag_52:\n                /* \"v2-core-master/v2-core-master/contracts/DEXV2FactoryFlat.sol\":6641:6645  bool */\n              0x00\n                /* \"v2-core-master/v2-core-master/contracts/DEXV2FactoryFlat.sol\":6658:6694  _approve(msg.sender, spender, value) */\n              tag_159\n                /* \"v2-core-master/v2-core-master/contracts/DEXV2FactoryFlat.sol\":6667:6677  msg.sender */\n              caller\n                /* \"v2-core-master/v2-core-master/contracts/DEXV2FactoryFlat.sol\":6679:6686  spender */\n              dup5\n                /* \"v2-core-master/v2-core-master/contracts/DEXV2FactoryFlat.sol\":6688:6693  value */\n              dup5\n                /* \"v2-core-master/v2-core-master/contracts/DEXV2FactoryFlat.sol\":6658:6666  _approve */\n              tag_160\n                /* \"v2-core-master/v2-core-master/contracts/DEXV2FactoryFlat.sol\":6658:6694  _approve(msg.sender, spender, value) */\n              jump\t// in\n            tag_159:\n              pop\n                /* \"v2-core-master/v2-core-master/contracts/DEXV2FactoryFlat.sol\":6712:6716  true */\n              0x01\n                /* \"v2-core-master/v2-core-master/contracts/DEXV2FactoryFlat.sol\":6577:6724  function approve(address spender, uint value) external returns (bool) {\r... */\n            tag_158:\n              swap3\n              swap2\n              pop\n              pop\n              jump\t// out\n                /* \"v2-core-master/v2-core-master/contracts/DEXV2FactoryFlat.sol\":11531:11552  address public token0 */\n            tag_54:\n              and(sub(shl(0xa0, 0x01), 0x01), sload(0x06))\n              dup2\n              jump\t// out\n                /* \"v2-core-master/v2-core-master/contracts/DEXV2FactoryFlat.sol\":4668:4692  uint  public totalSupply */\n            tag_56:\n              sload(0x00)\n              dup2\n              jump\t// out\n                /* \"v2-core-master/v2-core-master/contracts/DEXV2FactoryFlat.sol\":6879:7180  function transferFrom(address from, address to, uint value) external returns (bool) {\r... */\n            tag_59:\n              sub(shl(0xa0, 0x01), 0x01)\n                /* \"v2-core-master/v2-core-master/contracts/DEXV2FactoryFlat.sol\":6978:6993  allowance[from] */\n              dup4\n              and\n                /* \"v2-core-master/v2-core-master/contracts/DEXV2FactoryFlat.sol\":6957:6961  bool */\n              0x00\n                /* \"v2-core-master/v2-core-master/contracts/DEXV2FactoryFlat.sol\":6978:6993  allowance[from] */\n              swap1\n              dup2\n              mstore\n                /* \"v2-core-master/v2-core-master/contracts/DEXV2FactoryFlat.sol\":6978:6987  allowance */\n              0x02\n                /* \"v2-core-master/v2-core-master/contracts/DEXV2FactoryFlat.sol\":6978:6993  allowance[from] */\n              0x20\n              swap1\n              dup2\n              mstore\n              0x40\n              dup1\n              dup4\n              keccak256\n                /* \"v2-core-master/v2-core-master/contracts/DEXV2FactoryFlat.sol\":6994:7004  msg.sender */\n              caller\n                /* \"v2-core-master/v2-core-master/contracts/DEXV2FactoryFlat.sol\":6978:7005  allowance[from][msg.sender] */\n              dup5\n              mstore\n              swap1\n              swap2\n              mstore\n              dup2\n              keccak256\n              sload\n              not(0x00)\n                /* \"v2-core-master/v2-core-master/contracts/DEXV2FactoryFlat.sol\":6978:7017  allowance[from][msg.sender] != uint(-1) */\n              eq\n                /* \"v2-core-master/v2-core-master/contracts/DEXV2FactoryFlat.sol\":6974:7114  if (allowance[from][msg.sender] != uint(-1)) {\r... */\n              tag_162\n              jumpi\n              sub(shl(0xa0, 0x01), 0x01)\n                /* \"v2-core-master/v2-core-master/contracts/DEXV2FactoryFlat.sol\":7064:7079  allowance[from] */\n              dup5\n              and\n              0x00\n              swap1\n              dup2\n              mstore\n                /* \"v2-core-master/v2-core-master/contracts/DEXV2FactoryFlat.sol\":7064:7073  allowance */\n              0x02\n                /* \"v2-core-master/v2-core-master/contracts/DEXV2FactoryFlat.sol\":7064:7079  allowance[from] */\n              0x20\n              swap1\n              dup2\n              mstore\n              0x40\n              dup1\n              dup4\n              keccak256\n                /* \"v2-core-master/v2-core-master/contracts/DEXV2FactoryFlat.sol\":7080:7090  msg.sender */\n              caller\n                /* \"v2-core-master/v2-core-master/contracts/DEXV2FactoryFlat.sol\":7064:7091  allowance[from][msg.sender] */\n              dup5\n              mstore\n              swap1\n              swap2\n              mstore\n              swap1\n              keccak256\n              sload\n                /* \"v2-core-master/v2-core-master/contracts/DEXV2FactoryFlat.sol\":7064:7102  allowance[from][msg.sender].sub(value) */\n              tag_163\n              swap1\n                /* \"v2-core-master/v2-core-master/contracts/DEXV2FactoryFlat.sol\":7096:7101  value */\n              dup4\n                /* \"v2-core-master/v2-core-master/contracts/DEXV2FactoryFlat.sol\":7064:7095  allowance[from][msg.sender].sub */\n              tag_147\n                /* \"v2-core-master/v2-core-master/contracts/DEXV2FactoryFlat.sol\":7064:7102  allowance[from][msg.sender].sub(value) */\n              jump\t// in\n            tag_163:\n              sub(shl(0xa0, 0x01), 0x01)\n                /* \"v2-core-master/v2-core-master/contracts/DEXV2FactoryFlat.sol\":7034:7049  allowance[from] */\n              dup6\n              and\n              0x00\n              swap1\n              dup2\n              mstore\n                /* \"v2-core-master/v2-core-master/contracts/DEXV2FactoryFlat.sol\":7034:7043  allowance */\n              0x02\n                /* \"v2-core-master/v2-core-master/contracts/DEXV2FactoryFlat.sol\":7034:7049  allowance[from] */\n              0x20\n              swap1\n              dup2\n              mstore\n              0x40\n              dup1\n              dup4\n              keccak256\n                /* \"v2-core-master/v2-core-master/contracts/DEXV2FactoryFlat.sol\":7050:7060  msg.sender */\n              caller\n                /* \"v2-core-master/v2-core-master/contracts/DEXV2FactoryFlat.sol\":7034:7061  allowance[from][msg.sender] */\n              dup5\n              mstore\n              swap1\n              swap2\n              mstore\n              swap1\n              keccak256\n                /* \"v2-core-master/v2-core-master/contracts/DEXV2FactoryFlat.sol\":7034:7102  allowance[from][msg.sender] = allowance[from][msg.sender].sub(value) */\n              sstore\n                /* \"v2-core-master/v2-core-master/contracts/DEXV2FactoryFlat.sol\":6974:7114  if (allowance[from][msg.sender] != uint(-1)) {\r... */\n            tag_162:\n                /* \"v2-core-master/v2-core-master/contracts/DEXV2FactoryFlat.sol\":7124:7150  _transfer(from, to, value) */\n              tag_164\n                /* \"v2-core-master/v2-core-master/contracts/DEXV2FactoryFlat.sol\":7134:7138  from */\n              dup5\n                /* \"v2-core-master/v2-core-master/contracts/DEXV2FactoryFlat.sol\":7140:7142  to */\n              dup5\n                /* \"v2-core-master/v2-core-master/contracts/DEXV2FactoryFlat.sol\":7144:7149  value */\n              dup5\n                /* \"v2-core-master/v2-core-master/contracts/DEXV2FactoryFlat.sol\":7124:7133  _transfer */\n              tag_165\n                /* \"v2-core-master/v2-core-master/contracts/DEXV2FactoryFlat.sol\":7124:7150  _transfer(from, to, value) */\n              jump\t// in\n            tag_164:\n              pop\n                /* \"v2-core-master/v2-core-master/contracts/DEXV2FactoryFlat.sol\":7168:7172  true */\n              0x01\n                /* \"v2-core-master/v2-core-master/contracts/DEXV2FactoryFlat.sol\":6879:7180  function transferFrom(address from, address to, uint value) external returns (bool) {\r... */\n              swap4\n              swap3\n              pop\n              pop\n              pop\n              jump\t// out\n                /* \"v2-core-master/v2-core-master/contracts/DEXV2FactoryFlat.sol\":4960:5068  bytes32 public constant PERMIT_TYPEHASH = 0x6e71edae12b1b97f4d1f60370fef10105fa2faae0126114a169c64845d6126c9 */\n            tag_61:\n                /* \"v2-core-master/v2-core-master/contracts/DEXV2FactoryFlat.sol\":5002:5068  0x6e71edae12b1b97f4d1f60370fef10105fa2faae0126114a169c64845d6126c9 */\n              0x6e71edae12b1b97f4d1f60370fef10105fa2faae0126114a169c64845d6126c9\n                /* \"v2-core-master/v2-core-master/contracts/DEXV2FactoryFlat.sol\":4960:5068  bytes32 public constant PERMIT_TYPEHASH = 0x6e71edae12b1b97f4d1f60370fef10105fa2faae0126114a169c64845d6126c9 */\n              dup2\n              jump\t// out\n                /* \"v2-core-master/v2-core-master/contracts/DEXV2FactoryFlat.sol\":4626:4661  uint8 public constant decimals = 18 */\n            tag_63:\n                /* \"v2-core-master/v2-core-master/contracts/DEXV2FactoryFlat.sol\":4659:4661  18 */\n              0x12\n                /* \"v2-core-master/v2-core-master/contracts/DEXV2FactoryFlat.sol\":4626:4661  uint8 public constant decimals = 18 */\n              dup2\n              jump\t// out\n                /* \"v2-core-master/v2-core-master/contracts/DEXV2FactoryFlat.sol\":4817:4848  bytes32 public DOMAIN_SEPARATOR */\n            tag_65:\n              sload(0x03)\n              dup2\n              jump\t// out\n                /* \"v2-core-master/v2-core-master/contracts/DEXV2FactoryFlat.sol\":13294:13500  function initialize(address _token0, address _token1) external {\r... */\n            tag_68:\n                /* \"v2-core-master/v2-core-master/contracts/DEXV2FactoryFlat.sol\":13390:13397  factory */\n              and(sub(shl(0xa0, 0x01), 0x01), sload(0x05))\n                /* \"v2-core-master/v2-core-master/contracts/DEXV2FactoryFlat.sol\":13376:13386  msg.sender */\n              caller\n                /* \"v2-core-master/v2-core-master/contracts/DEXV2FactoryFlat.sol\":13376:13397  msg.sender == factory */\n              eq\n                /* \"v2-core-master/v2-core-master/contracts/DEXV2FactoryFlat.sol\":13368:13418  require(msg.sender == factory, 'DEXV2: FORBIDDEN') */\n              tag_167\n              jumpi\n              0x40\n              dup1\n              mload\n              shl(0xe5, 0x461bcd)\n              dup2\n              mstore\n              0x20\n              0x04\n              dup3\n              add\n              mstore\n              0x10\n              0x24\n              dup3\n              add\n              mstore\n              shl(0x81, 0x2222ac2b191d102327a92124a22222a7)\n              0x44\n              dup3\n              add\n              mstore\n              swap1\n              mload\n              swap1\n              dup2\n              swap1\n              sub\n              0x64\n              add\n              swap1\n              revert\n            tag_167:\n                /* \"v2-core-master/v2-core-master/contracts/DEXV2FactoryFlat.sol\":13449:13455  token0 */\n              0x06\n                /* \"v2-core-master/v2-core-master/contracts/DEXV2FactoryFlat.sol\":13449:13465  token0 = _token0 */\n              dup1\n              sload\n              sub(shl(0xa0, 0x01), 0x01)\n              swap4\n              dup5\n              and\n              not(sub(shl(0xa0, 0x01), 0x01))\n              swap2\n              dup3\n              and\n              or\n              swap1\n              swap2\n              sstore\n                /* \"v2-core-master/v2-core-master/contracts/DEXV2FactoryFlat.sol\":13476:13482  token1 */\n              0x07\n                /* \"v2-core-master/v2-core-master/contracts/DEXV2FactoryFlat.sol\":13476:13492  token1 = _token1 */\n              dup1\n              sload\n              swap3\n              swap1\n              swap4\n              and\n              swap2\n              and\n              or\n              swap1\n              sstore\n                /* \"v2-core-master/v2-core-master/contracts/DEXV2FactoryFlat.sol\":13294:13500  function initialize(address _token0, address _token1) external {\r... */\n              jump\t// out\n                /* \"v2-core-master/v2-core-master/contracts/DEXV2FactoryFlat.sol\":11882:11914  uint public price0CumulativeLast */\n            tag_70:\n              sload(0x09)\n              dup2\n              jump\t// out\n                /* \"v2-core-master/v2-core-master/contracts/DEXV2FactoryFlat.sol\":11921:11953  uint public price1CumulativeLast */\n            tag_72:\n              sload(0x0a)\n              dup2\n              jump\t// out\n                /* \"v2-core-master/v2-core-master/contracts/DEXV2FactoryFlat.sol\":15476:16712  function mint(address to) external lock returns (uint liquidity) {\r... */\n            tag_75:\n                /* \"v2-core-master/v2-core-master/contracts/DEXV2FactoryFlat.sol\":15525:15539  uint liquidity */\n              0x00\n                /* \"v2-core-master/v2-core-master/contracts/DEXV2FactoryFlat.sol\":12133:12141  unlocked */\n              sload(0x0c)\n                /* \"v2-core-master/v2-core-master/contracts/DEXV2FactoryFlat.sol\":12145:12146  1 */\n              0x01\n                /* \"v2-core-master/v2-core-master/contracts/DEXV2FactoryFlat.sol\":12133:12146  unlocked == 1 */\n              eq\n                /* \"v2-core-master/v2-core-master/contracts/DEXV2FactoryFlat.sol\":12125:12164  require(unlocked == 1, 'DEXV2: LOCKED') */\n              tag_169\n              jumpi\n              0x40\n              dup1\n              mload\n              shl(0xe5, 0x461bcd)\n              dup2\n              mstore\n              0x20\n              0x04\n              dup3\n              add\n              mstore\n              0x0d\n              0x24\n              dup3\n              add\n              mstore\n              shl(0x9a, 0x111156158c8e881313d0d2d151)\n              0x44\n              dup3\n              add\n              mstore\n              swap1\n              mload\n              swap1\n              dup2\n              swap1\n              sub\n              0x64\n              add\n              swap1\n              revert\n            tag_169:\n                /* \"v2-core-master/v2-core-master/contracts/DEXV2FactoryFlat.sol\":12186:12187  0 */\n              0x00\n                /* \"v2-core-master/v2-core-master/contracts/DEXV2FactoryFlat.sol\":12175:12183  unlocked */\n              0x0c\n                /* \"v2-core-master/v2-core-master/contracts/DEXV2FactoryFlat.sol\":12175:12187  unlocked = 0 */\n              dup2\n              swap1\n              sstore\n                /* \"v2-core-master/v2-core-master/contracts/DEXV2FactoryFlat.sol\":12186:12187  0 */\n              dup1\n                /* \"v2-core-master/v2-core-master/contracts/DEXV2FactoryFlat.sol\":15594:15607  getReserves() */\n              tag_171\n                /* \"v2-core-master/v2-core-master/contracts/DEXV2FactoryFlat.sol\":15594:15605  getReserves */\n              tag_49\n                /* \"v2-core-master/v2-core-master/contracts/DEXV2FactoryFlat.sol\":15594:15607  getReserves() */\n              jump\t// in\n            tag_171:\n              pop\n                /* \"v2-core-master/v2-core-master/contracts/DEXV2FactoryFlat.sol\":15656:15662  token0 */\n              sload(0x06)\n                /* \"v2-core-master/v2-core-master/contracts/DEXV2FactoryFlat.sol\":15649:15688  IERC20(token0).balanceOf(address(this)) */\n              0x40\n              dup1\n              mload\n              shl(0xe0, 0x70a08231)\n              dup2\n              mstore\n                /* \"v2-core-master/v2-core-master/contracts/DEXV2FactoryFlat.sol\":15682:15686  this */\n              address\n                /* \"v2-core-master/v2-core-master/contracts/DEXV2FactoryFlat.sol\":15649:15688  IERC20(token0).balanceOf(address(this)) */\n              0x04\n              dup3\n              add\n              mstore\n              swap1\n              mload\n                /* \"v2-core-master/v2-core-master/contracts/DEXV2FactoryFlat.sol\":15552:15607  (uint112 _reserve0, uint112 _reserve1,) = getReserves() */\n              swap4\n              swap6\n              pop\n              swap2\n              swap4\n              pop\n              0x00\n              swap3\n              sub(shl(0xa0, 0x01), 0x01)\n                /* \"v2-core-master/v2-core-master/contracts/DEXV2FactoryFlat.sol\":15656:15662  token0 */\n              swap1\n              swap2\n              and\n              swap2\n              0x70a08231\n              swap2\n                /* \"v2-core-master/v2-core-master/contracts/DEXV2FactoryFlat.sol\":15649:15688  IERC20(token0).balanceOf(address(this)) */\n              0x24\n              dup1\n              dup4\n              add\n              swap3\n              0x20\n              swap3\n              swap2\n              swap1\n              dup3\n              swap1\n              sub\n              add\n              dup2\n                /* \"v2-core-master/v2-core-master/contracts/DEXV2FactoryFlat.sol\":15656:15662  token0 */\n              dup7\n                /* \"v2-core-master/v2-core-master/contracts/DEXV2FactoryFlat.sol\":15649:15688  IERC20(token0).balanceOf(address(this)) */\n              dup1\n              extcodesize\n              iszero\n                /* \"--CODEGEN--\":5:7   */\n              dup1\n              iszero\n              tag_172\n              jumpi\n                /* \"--CODEGEN--\":30:31   */\n              0x00\n                /* \"--CODEGEN--\":27:28   */\n              dup1\n                /* \"--CODEGEN--\":20:32   */\n              revert\n                /* \"--CODEGEN--\":5:7   */\n            tag_172:\n                /* \"v2-core-master/v2-core-master/contracts/DEXV2FactoryFlat.sol\":15649:15688  IERC20(token0).balanceOf(address(this)) */\n              pop\n              gas\n              staticcall\n              iszero\n                /* \"--CODEGEN--\":8:17   */\n              dup1\n                /* \"--CODEGEN--\":5:7   */\n              iszero\n              tag_173\n              jumpi\n                /* \"--CODEGEN--\":45:61   */\n              returndatasize\n                /* \"--CODEGEN--\":42:43   */\n              0x00\n                /* \"--CODEGEN--\":39:40   */\n              dup1\n                /* \"--CODEGEN--\":24:62   */\n              returndatacopy\n                /* \"--CODEGEN--\":77:93   */\n              returndatasize\n                /* \"--CODEGEN--\":74:75   */\n              0x00\n                /* \"--CODEGEN--\":67:94   */\n              revert\n                /* \"--CODEGEN--\":5:7   */\n            tag_173:\n                /* \"v2-core-master/v2-core-master/contracts/DEXV2FactoryFlat.sol\":15649:15688  IERC20(token0).balanceOf(address(this)) */\n              pop\n              pop\n              pop\n              pop\n              mload(0x40)\n              returndatasize\n                /* \"--CODEGEN--\":13:15   */\n              0x20\n                /* \"--CODEGEN--\":8:11   */\n              dup2\n                /* \"--CODEGEN--\":5:16   */\n              lt\n                /* \"--CODEGEN--\":2:4   */\n              iszero\n              tag_174\n              jumpi\n                /* \"--CODEGEN--\":29:30   */\n              0x00\n                /* \"--CODEGEN--\":26:27   */\n              dup1\n                /* \"--CODEGEN--\":19:31   */\n              revert\n                /* \"--CODEGEN--\":2:4   */\n            tag_174:\n              pop\n                /* \"v2-core-master/v2-core-master/contracts/DEXV2FactoryFlat.sol\":15649:15688  IERC20(token0).balanceOf(address(this)) */\n              mload\n                /* \"v2-core-master/v2-core-master/contracts/DEXV2FactoryFlat.sol\":15722:15728  token1 */\n              sload(0x07)\n                /* \"v2-core-master/v2-core-master/contracts/DEXV2FactoryFlat.sol\":15715:15754  IERC20(token1).balanceOf(address(this)) */\n              0x40\n              dup1\n              mload\n              shl(0xe0, 0x70a08231)\n              dup2\n              mstore\n                /* \"v2-core-master/v2-core-master/contracts/DEXV2FactoryFlat.sol\":15748:15752  this */\n              address\n                /* \"v2-core-master/v2-core-master/contracts/DEXV2FactoryFlat.sol\":15715:15754  IERC20(token1).balanceOf(address(this)) */\n              0x04\n              dup3\n              add\n              mstore\n              swap1\n              mload\n                /* \"v2-core-master/v2-core-master/contracts/DEXV2FactoryFlat.sol\":15649:15688  IERC20(token0).balanceOf(address(this)) */\n              swap3\n              swap4\n              pop\n              0x00\n              swap3\n              sub(shl(0xa0, 0x01), 0x01)\n                /* \"v2-core-master/v2-core-master/contracts/DEXV2FactoryFlat.sol\":15722:15728  token1 */\n              swap1\n              swap3\n              and\n              swap2\n              0x70a08231\n              swap2\n                /* \"v2-core-master/v2-core-master/contracts/DEXV2FactoryFlat.sol\":15715:15754  IERC20(token1).balanceOf(address(this)) */\n              0x24\n              dup1\n              dup3\n              add\n              swap3\n                /* \"v2-core-master/v2-core-master/contracts/DEXV2FactoryFlat.sol\":15649:15688  IERC20(token0).balanceOf(address(this)) */\n              0x20\n              swap3\n                /* \"v2-core-master/v2-core-master/contracts/DEXV2FactoryFlat.sol\":15715:15754  IERC20(token1).balanceOf(address(this)) */\n              swap1\n              swap2\n              swap1\n              dup3\n              swap1\n              sub\n              add\n              dup2\n                /* \"v2-core-master/v2-core-master/contracts/DEXV2FactoryFlat.sol\":15722:15728  token1 */\n              dup7\n                /* \"v2-core-master/v2-core-master/contracts/DEXV2FactoryFlat.sol\":15715:15754  IERC20(token1).balanceOf(address(this)) */\n              dup1\n              extcodesize\n              iszero\n                /* \"--CODEGEN--\":5:7   */\n              dup1\n              iszero\n              tag_175\n              jumpi\n                /* \"--CODEGEN--\":30:31   */\n              0x00\n                /* \"--CODEGEN--\":27:28   */\n              dup1\n                /* \"--CODEGEN--\":20:32   */\n              revert\n                /* \"--CODEGEN--\":5:7   */\n            tag_175:\n                /* \"v2-core-master/v2-core-master/contracts/DEXV2FactoryFlat.sol\":15715:15754  IERC20(token1).balanceOf(address(this)) */\n              pop\n              gas\n              staticcall\n              iszero\n                /* \"--CODEGEN--\":8:17   */\n              dup1\n                /* \"--CODEGEN--\":5:7   */\n              iszero\n              tag_176\n              jumpi\n                /* \"--CODEGEN--\":45:61   */\n              returndatasize\n                /* \"--CODEGEN--\":42:43   */\n              0x00\n                /* \"--CODEGEN--\":39:40   */\n              dup1\n                /* \"--CODEGEN--\":24:62   */\n              returndatacopy\n                /* \"--CODEGEN--\":77:93   */\n              returndatasize\n                /* \"--CODEGEN--\":74:75   */\n              0x00\n                /* \"--CODEGEN--\":67:94   */\n              revert\n                /* \"--CODEGEN--\":5:7   */\n            tag_176:\n                /* \"v2-core-master/v2-core-master/contracts/DEXV2FactoryFlat.sol\":15715:15754  IERC20(token1).balanceOf(address(this)) */\n              pop\n              pop\n              pop\n              pop\n              mload(0x40)\n              returndatasize\n                /* \"--CODEGEN--\":13:15   */\n              0x20\n                /* \"--CODEGEN--\":8:11   */\n              dup2\n                /* \"--CODEGEN--\":5:16   */\n              lt\n                /* \"--CODEGEN--\":2:4   */\n              iszero\n              tag_177\n              jumpi\n                /* \"--CODEGEN--\":29:30   */\n              0x00\n                /* \"--CODEGEN--\":26:27   */\n              dup1\n                /* \"--CODEGEN--\":19:31   */\n              revert\n                /* \"--CODEGEN--\":2:4   */\n            tag_177:\n              pop\n                /* \"v2-core-master/v2-core-master/contracts/DEXV2FactoryFlat.sol\":15715:15754  IERC20(token1).balanceOf(address(this)) */\n              mload\n              swap1\n              pop\n                /* \"v2-core-master/v2-core-master/contracts/DEXV2FactoryFlat.sol\":15765:15777  uint amount0 */\n              0x00\n                /* \"v2-core-master/v2-core-master/contracts/DEXV2FactoryFlat.sol\":15780:15803  balance0.sub(_reserve0) */\n              tag_178\n                /* \"v2-core-master/v2-core-master/contracts/DEXV2FactoryFlat.sol\":15780:15788  balance0 */\n              dup4\n              sub(shl(0x70, 0x01), 0x01)\n                /* \"v2-core-master/v2-core-master/contracts/DEXV2FactoryFlat.sol\":15780:15803  balance0.sub(_reserve0) */\n              dup8\n              and\n                /* \"v2-core-master/v2-core-master/contracts/DEXV2FactoryFlat.sol\":15780:15792  balance0.sub */\n              tag_147\n                /* \"v2-core-master/v2-core-master/contracts/DEXV2FactoryFlat.sol\":15780:15803  balance0.sub(_reserve0) */\n              jump\t// in\n            tag_178:\n                /* \"v2-core-master/v2-core-master/contracts/DEXV2FactoryFlat.sol\":15765:15803  uint amount0 = balance0.sub(_reserve0) */\n              swap1\n              pop\n                /* \"v2-core-master/v2-core-master/contracts/DEXV2FactoryFlat.sol\":15814:15826  uint amount1 */\n              0x00\n                /* \"v2-core-master/v2-core-master/contracts/DEXV2FactoryFlat.sol\":15829:15852  balance1.sub(_reserve1) */\n              tag_179\n                /* \"v2-core-master/v2-core-master/contracts/DEXV2FactoryFlat.sol\":15829:15837  balance1 */\n              dup4\n              sub(shl(0x70, 0x01), 0x01)\n                /* \"v2-core-master/v2-core-master/contracts/DEXV2FactoryFlat.sol\":15829:15852  balance1.sub(_reserve1) */\n              dup8\n              and\n                /* \"v2-core-master/v2-core-master/contracts/DEXV2FactoryFlat.sol\":15829:15841  balance1.sub */\n              tag_147\n                /* \"v2-core-master/v2-core-master/contracts/DEXV2FactoryFlat.sol\":15829:15852  balance1.sub(_reserve1) */\n              jump\t// in\n            tag_179:\n                /* \"v2-core-master/v2-core-master/contracts/DEXV2FactoryFlat.sol\":15814:15852  uint amount1 = balance1.sub(_reserve1) */\n              swap1\n              pop\n                /* \"v2-core-master/v2-core-master/contracts/DEXV2FactoryFlat.sol\":15865:15875  bool feeOn */\n              0x00\n                /* \"v2-core-master/v2-core-master/contracts/DEXV2FactoryFlat.sol\":15878:15908  _mintFee(_reserve0, _reserve1) */\n              tag_180\n                /* \"v2-core-master/v2-core-master/contracts/DEXV2FactoryFlat.sol\":15887:15896  _reserve0 */\n              dup8\n                /* \"v2-core-master/v2-core-master/contracts/DEXV2FactoryFlat.sol\":15898:15907  _reserve1 */\n              dup8\n                /* \"v2-core-master/v2-core-master/contracts/DEXV2FactoryFlat.sol\":15878:15886  _mintFee */\n              tag_181\n                /* \"v2-core-master/v2-core-master/contracts/DEXV2FactoryFlat.sol\":15878:15908  _mintFee(_reserve0, _reserve1) */\n              jump\t// in\n            tag_180:\n                /* \"v2-core-master/v2-core-master/contracts/DEXV2FactoryFlat.sol\":15919:15936  uint _totalSupply */\n              0x00\n                /* \"v2-core-master/v2-core-master/contracts/DEXV2FactoryFlat.sol\":15939:15950  totalSupply */\n              sload\n                /* \"v2-core-master/v2-core-master/contracts/DEXV2FactoryFlat.sol\":15865:15908  bool feeOn = _mintFee(_reserve0, _reserve1) */\n              swap1\n              swap2\n              pop\n                /* \"v2-core-master/v2-core-master/contracts/DEXV2FactoryFlat.sol\":16043:16060  _totalSupply == 0 */\n              dup1\n                /* \"v2-core-master/v2-core-master/contracts/DEXV2FactoryFlat.sol\":16039:16391  if (_totalSupply == 0) {\r... */\n              tag_182\n              jumpi\n                /* \"v2-core-master/v2-core-master/contracts/DEXV2FactoryFlat.sol\":16089:16143  Math.sqrt(amount0.mul(amount1)).sub(MINIMUM_LIQUIDITY) */\n              tag_183\n                /* \"v2-core-master/v2-core-master/contracts/DEXV2FactoryFlat.sol\":11393:11398  10**3 */\n              0x03e8\n                /* \"v2-core-master/v2-core-master/contracts/DEXV2FactoryFlat.sol\":16089:16120  Math.sqrt(amount0.mul(amount1)) */\n              tag_146\n                /* \"v2-core-master/v2-core-master/contracts/DEXV2FactoryFlat.sol\":16099:16119  amount0.mul(amount1) */\n              tag_185\n                /* \"v2-core-master/v2-core-master/contracts/DEXV2FactoryFlat.sol\":16099:16106  amount0 */\n              dup8\n                /* \"v2-core-master/v2-core-master/contracts/DEXV2FactoryFlat.sol\":16111:16118  amount1 */\n              dup8\n                /* \"v2-core-master/v2-core-master/contracts/DEXV2FactoryFlat.sol\":16099:16119  amount0.mul(amount1) */\n              0xffffffff\n                /* \"v2-core-master/v2-core-master/contracts/DEXV2FactoryFlat.sol\":16099:16110  amount0.mul */\n              tag_145\n                /* \"v2-core-master/v2-core-master/contracts/DEXV2FactoryFlat.sol\":16099:16119  amount0.mul(amount1) */\n              and\n              jump\t// in\n            tag_185:\n                /* \"v2-core-master/v2-core-master/contracts/DEXV2FactoryFlat.sol\":16089:16098  Math.sqrt */\n              tag_186\n                /* \"v2-core-master/v2-core-master/contracts/DEXV2FactoryFlat.sol\":16089:16120  Math.sqrt(amount0.mul(amount1)) */\n              jump\t// in\n                /* \"v2-core-master/v2-core-master/contracts/DEXV2FactoryFlat.sol\":16089:16143  Math.sqrt(amount0.mul(amount1)).sub(MINIMUM_LIQUIDITY) */\n            tag_183:\n                /* \"v2-core-master/v2-core-master/contracts/DEXV2FactoryFlat.sol\":16077:16143  liquidity = Math.sqrt(amount0.mul(amount1)).sub(MINIMUM_LIQUIDITY) */\n              swap9\n              pop\n                /* \"v2-core-master/v2-core-master/contracts/DEXV2FactoryFlat.sol\":16157:16193  _mint(address(0), MINIMUM_LIQUIDITY) */\n              tag_187\n                /* \"v2-core-master/v2-core-master/contracts/DEXV2FactoryFlat.sol\":16171:16172  0 */\n              0x00\n                /* \"v2-core-master/v2-core-master/contracts/DEXV2FactoryFlat.sol\":11393:11398  10**3 */\n              0x03e8\n                /* \"v2-core-master/v2-core-master/contracts/DEXV2FactoryFlat.sol\":16157:16162  _mint */\n              tag_188\n                /* \"v2-core-master/v2-core-master/contracts/DEXV2FactoryFlat.sol\":16157:16193  _mint(address(0), MINIMUM_LIQUIDITY) */\n              jump\t// in\n            tag_187:\n                /* \"v2-core-master/v2-core-master/contracts/DEXV2FactoryFlat.sol\":16039:16391  if (_totalSupply == 0) {\r... */\n              jump(tag_189)\n            tag_182:\n                /* \"v2-core-master/v2-core-master/contracts/DEXV2FactoryFlat.sol\":16293:16379  Math.min(amount0.mul(_totalSupply) / _reserve0, amount1.mul(_totalSupply) / _reserve1) */\n              tag_190\n              sub(shl(0x70, 0x01), 0x01)\n                /* \"v2-core-master/v2-core-master/contracts/DEXV2FactoryFlat.sol\":16302:16339  amount0.mul(_totalSupply) / _reserve0 */\n              dup10\n              and\n                /* \"v2-core-master/v2-core-master/contracts/DEXV2FactoryFlat.sol\":16302:16327  amount0.mul(_totalSupply) */\n              tag_191\n                /* \"v2-core-master/v2-core-master/contracts/DEXV2FactoryFlat.sol\":16302:16309  amount0 */\n              dup7\n                /* \"v2-core-master/v2-core-master/contracts/DEXV2FactoryFlat.sol\":16314:16326  _totalSupply */\n              dup5\n                /* \"v2-core-master/v2-core-master/contracts/DEXV2FactoryFlat.sol\":16302:16313  amount0.mul */\n              tag_145\n                /* \"v2-core-master/v2-core-master/contracts/DEXV2FactoryFlat.sol\":16302:16327  amount0.mul(_totalSupply) */\n              jump\t// in\n            tag_191:\n                /* \"v2-core-master/v2-core-master/contracts/DEXV2FactoryFlat.sol\":16302:16339  amount0.mul(_totalSupply) / _reserve0 */\n              dup2\n              tag_192\n              jumpi\n              invalid\n            tag_192:\n              div\n              sub(shl(0x70, 0x01), 0x01)\n                /* \"v2-core-master/v2-core-master/contracts/DEXV2FactoryFlat.sol\":16341:16378  amount1.mul(_totalSupply) / _reserve1 */\n              dup10\n              and\n                /* \"v2-core-master/v2-core-master/contracts/DEXV2FactoryFlat.sol\":16341:16366  amount1.mul(_totalSupply) */\n              tag_193\n                /* \"v2-core-master/v2-core-master/contracts/DEXV2FactoryFlat.sol\":16341:16348  amount1 */\n              dup7\n                /* \"v2-core-master/v2-core-master/contracts/DEXV2FactoryFlat.sol\":16353:16365  _totalSupply */\n              dup6\n                /* \"v2-core-master/v2-core-master/contracts/DEXV2FactoryFlat.sol\":16341:16352  amount1.mul */\n              tag_145\n                /* \"v2-core-master/v2-core-master/contracts/DEXV2FactoryFlat.sol\":16341:16366  amount1.mul(_totalSupply) */\n              jump\t// in\n            tag_193:\n                /* \"v2-core-master/v2-core-master/contracts/DEXV2FactoryFlat.sol\":16341:16378  amount1.mul(_totalSupply) / _reserve1 */\n              dup2\n              tag_194\n              jumpi\n              invalid\n            tag_194:\n              div\n                /* \"v2-core-master/v2-core-master/contracts/DEXV2FactoryFlat.sol\":16293:16301  Math.min */\n              tag_195\n                /* \"v2-core-master/v2-core-master/contracts/DEXV2FactoryFlat.sol\":16293:16379  Math.min(amount0.mul(_totalSupply) / _reserve0, amount1.mul(_totalSupply) / _reserve1) */\n              jump\t// in\n            tag_190:\n                /* \"v2-core-master/v2-core-master/contracts/DEXV2FactoryFlat.sol\":16281:16379  liquidity = Math.min(amount0.mul(_totalSupply) / _reserve0, amount1.mul(_totalSupply) / _reserve1) */\n              swap9\n              pop\n                /* \"v2-core-master/v2-core-master/contracts/DEXV2FactoryFlat.sol\":16039:16391  if (_totalSupply == 0) {\r... */\n            tag_189:\n                /* \"v2-core-master/v2-core-master/contracts/DEXV2FactoryFlat.sol\":16421:16422  0 */\n              0x00\n                /* \"v2-core-master/v2-core-master/contracts/DEXV2FactoryFlat.sol\":16409:16418  liquidity */\n              dup10\n                /* \"v2-core-master/v2-core-master/contracts/DEXV2FactoryFlat.sol\":16409:16422  liquidity > 0 */\n              gt\n                /* \"v2-core-master/v2-core-master/contracts/DEXV2FactoryFlat.sol\":16401:16463  require(liquidity > 0, 'DEXV2: INSUFFICIENT_LIQUIDITY_MINTED') */\n              tag_196\n              jumpi\n              mload(0x40)\n              shl(0xe5, 0x461bcd)\n              dup2\n              mstore\n              0x04\n              add\n              dup1\n              dup1\n              0x20\n              add\n              dup3\n              dup2\n              sub\n              dup3\n              mstore\n              0x24\n              dup2\n              mstore\n              0x20\n              add\n              dup1\n              data_19858c75ca6575f0620a5a36ab79179f8f9a602bb98641841464a24f0f540494\n              0x24\n              swap2\n              codecopy\n              0x40\n              add\n              swap2\n              pop\n              pop\n              mload(0x40)\n              dup1\n              swap2\n              sub\n              swap1\n              revert\n            tag_196:\n                /* \"v2-core-master/v2-core-master/contracts/DEXV2FactoryFlat.sol\":16474:16494  _mint(to, liquidity) */\n              tag_197\n                /* \"v2-core-master/v2-core-master/contracts/DEXV2FactoryFlat.sol\":16480:16482  to */\n              dup11\n                /* \"v2-core-master/v2-core-master/contracts/DEXV2FactoryFlat.sol\":16484:16493  liquidity */\n              dup11\n                /* \"v2-core-master/v2-core-master/contracts/DEXV2FactoryFlat.sol\":16474:16479  _mint */\n              tag_188\n                /* \"v2-core-master/v2-core-master/contracts/DEXV2FactoryFlat.sol\":16474:16494  _mint(to, liquidity) */\n              jump\t// in\n            tag_197:\n                /* \"v2-core-master/v2-core-master/contracts/DEXV2FactoryFlat.sol\":16507:16556  _update(balance0, balance1, _reserve0, _reserve1) */\n              tag_198\n                /* \"v2-core-master/v2-core-master/contracts/DEXV2FactoryFlat.sol\":16515:16523  balance0 */\n              dup7\n                /* \"v2-core-master/v2-core-master/contracts/DEXV2FactoryFlat.sol\":16525:16533  balance1 */\n              dup7\n                /* \"v2-core-master/v2-core-master/contracts/DEXV2FactoryFlat.sol\":16535:16544  _reserve0 */\n              dup11\n                /* \"v2-core-master/v2-core-master/contracts/DEXV2FactoryFlat.sol\":16546:16555  _reserve1 */\n              dup11\n                /* \"v2-core-master/v2-core-master/contracts/DEXV2FactoryFlat.sol\":16507:16514  _update */\n              tag_156\n                /* \"v2-core-master/v2-core-master/contracts/DEXV2FactoryFlat.sol\":16507:16556  _update(balance0, balance1, _reserve0, _reserve1) */\n              jump\t// in\n            tag_198:\n                /* \"v2-core-master/v2-core-master/contracts/DEXV2FactoryFlat.sol\":16571:16576  feeOn */\n              dup2\n                /* \"v2-core-master/v2-core-master/contracts/DEXV2FactoryFlat.sol\":16567:16614  if (feeOn) kLast = uint(reserve0).mul(reserve1) */\n              iszero\n              tag_199\n              jumpi\n                /* \"v2-core-master/v2-core-master/contracts/DEXV2FactoryFlat.sol\":16605:16613  reserve1 */\n              sload(0x08)\n                /* \"v2-core-master/v2-core-master/contracts/DEXV2FactoryFlat.sol\":16586:16614  uint(reserve0).mul(reserve1) */\n              tag_200\n              swap1\n              sub(shl(0x70, 0x01), 0x01)\n                /* \"v2-core-master/v2-core-master/contracts/DEXV2FactoryFlat.sol\":16591:16599  reserve0 */\n              dup1\n              dup3\n              and\n              swap2\n              shl(0x70, 0x01)\n                /* \"v2-core-master/v2-core-master/contracts/DEXV2FactoryFlat.sol\":16605:16613  reserve1 */\n              swap1\n              div\n              and\n                /* \"v2-core-master/v2-core-master/contracts/DEXV2FactoryFlat.sol\":16586:16604  uint(reserve0).mul */\n              tag_145\n                /* \"v2-core-master/v2-core-master/contracts/DEXV2FactoryFlat.sol\":16586:16614  uint(reserve0).mul(reserve1) */\n              jump\t// in\n            tag_200:\n                /* \"v2-core-master/v2-core-master/contracts/DEXV2FactoryFlat.sol\":16578:16583  kLast */\n              0x0b\n                /* \"v2-core-master/v2-core-master/contracts/DEXV2FactoryFlat.sol\":16578:16614  kLast = uint(reserve0).mul(reserve1) */\n              sstore\n                /* \"v2-core-master/v2-core-master/contracts/DEXV2FactoryFlat.sol\":16567:16614  if (feeOn) kLast = uint(reserve0).mul(reserve1) */\n            tag_199:\n                /* \"v2-core-master/v2-core-master/contracts/DEXV2FactoryFlat.sol\":16670:16704  Mint(msg.sender, amount0, amount1) */\n              0x40\n              dup1\n              mload\n              dup6\n              dup2\n              mstore\n              0x20\n              dup2\n              add\n              dup6\n              swap1\n              mstore\n              dup2\n              mload\n                /* \"v2-core-master/v2-core-master/contracts/DEXV2FactoryFlat.sol\":16675:16685  msg.sender */\n              caller\n              swap3\n                /* \"v2-core-master/v2-core-master/contracts/DEXV2FactoryFlat.sol\":16670:16704  Mint(msg.sender, amount0, amount1) */\n              0x4c209b5fc8ad50758f13e2e1088ba56a560dff690a1c6fef26394f4c03821c4f\n              swap3\n              dup3\n              swap1\n              sub\n              add\n              swap1\n              log2\n              pop\n              pop\n                /* \"v2-core-master/v2-core-master/contracts/DEXV2FactoryFlat.sol\":12221:12222  1 */\n              0x01\n                /* \"v2-core-master/v2-core-master/contracts/DEXV2FactoryFlat.sol\":12210:12218  unlocked */\n              0x0c\n                /* \"v2-core-master/v2-core-master/contracts/DEXV2FactoryFlat.sol\":12210:12222  unlocked = 1 */\n              sstore\n              pop\n                /* \"v2-core-master/v2-core-master/contracts/DEXV2FactoryFlat.sol\":15476:16712  function mint(address to) external lock returns (uint liquidity) {\r... */\n              swap5\n              swap7\n              swap6\n              pop\n              pop\n              pop\n              pop\n              pop\n              pop\n              jump\t// out\n                /* \"v2-core-master/v2-core-master/contracts/DEXV2FactoryFlat.sol\":4699:4740  mapping(address => uint) public balanceOf */\n            tag_78:\n              mstore(0x20, 0x01)\n              0x00\n              swap1\n              dup2\n              mstore\n              0x40\n              swap1\n              keccak256\n              sload\n              dup2\n              jump\t// out\n                /* \"v2-core-master/v2-core-master/contracts/DEXV2FactoryFlat.sol\":11960:11977  uint public kLast */\n            tag_80:\n              sload(0x0b)\n              dup2\n              jump\t// out\n                /* \"v2-core-master/v2-core-master/contracts/DEXV2FactoryFlat.sol\":5075:5113  mapping(address => uint) public nonces */\n            tag_83:\n              mstore(0x20, 0x04)\n              0x00\n              swap1\n              dup2\n              mstore\n              0x40\n              swap1\n              keccak256\n              sload\n              dup2\n              jump\t// out\n                /* \"v2-core-master/v2-core-master/contracts/DEXV2FactoryFlat.sol\":16824:18286  function burn(address to) external lock returns (uint amount0, uint amount1) {\r... */\n            tag_86:\n                /* \"v2-core-master/v2-core-master/contracts/DEXV2FactoryFlat.sol\":16873:16885  uint amount0 */\n              0x00\n                /* \"v2-core-master/v2-core-master/contracts/DEXV2FactoryFlat.sol\":16887:16899  uint amount1 */\n              dup1\n                /* \"v2-core-master/v2-core-master/contracts/DEXV2FactoryFlat.sol\":12133:12141  unlocked */\n              sload(0x0c)\n                /* \"v2-core-master/v2-core-master/contracts/DEXV2FactoryFlat.sol\":12145:12146  1 */\n              0x01\n                /* \"v2-core-master/v2-core-master/contracts/DEXV2FactoryFlat.sol\":12133:12146  unlocked == 1 */\n              eq\n                /* \"v2-core-master/v2-core-master/contracts/DEXV2FactoryFlat.sol\":12125:12164  require(unlocked == 1, 'DEXV2: LOCKED') */\n              tag_202\n              jumpi\n              0x40\n              dup1\n              mload\n              shl(0xe5, 0x461bcd)\n              dup2\n              mstore\n              0x20\n              0x04\n              dup3\n              add\n              mstore\n              0x0d\n              0x24\n              dup3\n              add\n              mstore\n              shl(0x9a, 0x111156158c8e881313d0d2d151)\n              0x44\n              dup3\n              add\n              mstore\n              swap1\n              mload\n              swap1\n              dup2\n              swap1\n              sub\n              0x64\n              add\n              swap1\n              revert\n            tag_202:\n                /* \"v2-core-master/v2-core-master/contracts/DEXV2FactoryFlat.sol\":12186:12187  0 */\n              0x00\n                /* \"v2-core-master/v2-core-master/contracts/DEXV2FactoryFlat.sol\":12175:12183  unlocked */\n              0x0c\n                /* \"v2-core-master/v2-core-master/contracts/DEXV2FactoryFlat.sol\":12175:12187  unlocked = 0 */\n              dup2\n              swap1\n              sstore\n                /* \"v2-core-master/v2-core-master/contracts/DEXV2FactoryFlat.sol\":12186:12187  0 */\n              dup1\n                /* \"v2-core-master/v2-core-master/contracts/DEXV2FactoryFlat.sol\":16954:16967  getReserves() */\n              tag_204\n                /* \"v2-core-master/v2-core-master/contracts/DEXV2FactoryFlat.sol\":16954:16965  getReserves */\n              tag_49\n                /* \"v2-core-master/v2-core-master/contracts/DEXV2FactoryFlat.sol\":16954:16967  getReserves() */\n              jump\t// in\n            tag_204:\n              pop\n                /* \"v2-core-master/v2-core-master/contracts/DEXV2FactoryFlat.sol\":17011:17017  token0 */\n              sload(0x06)\n                /* \"v2-core-master/v2-core-master/contracts/DEXV2FactoryFlat.sol\":17092:17098  token1 */\n              sload(0x07)\n                /* \"v2-core-master/v2-core-master/contracts/DEXV2FactoryFlat.sol\":17171:17211  IERC20(_token0).balanceOf(address(this)) */\n              0x40\n              dup1\n              mload\n              shl(0xe0, 0x70a08231)\n              dup2\n              mstore\n                /* \"v2-core-master/v2-core-master/contracts/DEXV2FactoryFlat.sol\":17205:17209  this */\n              address\n                /* \"v2-core-master/v2-core-master/contracts/DEXV2FactoryFlat.sol\":17171:17211  IERC20(_token0).balanceOf(address(this)) */\n              0x04\n              dup3\n              add\n              mstore\n              swap1\n              mload\n                /* \"v2-core-master/v2-core-master/contracts/DEXV2FactoryFlat.sol\":16912:16967  (uint112 _reserve0, uint112 _reserve1,) = getReserves() */\n              swap5\n              swap7\n              pop\n              swap3\n              swap5\n              pop\n              sub(shl(0xa0, 0x01), 0x01)\n                /* \"v2-core-master/v2-core-master/contracts/DEXV2FactoryFlat.sol\":17011:17017  token0 */\n              swap2\n              dup3\n              and\n              swap4\n                /* \"v2-core-master/v2-core-master/contracts/DEXV2FactoryFlat.sol\":17092:17098  token1 */\n              swap2\n              and\n              swap2\n              0x00\n              swap2\n                /* \"v2-core-master/v2-core-master/contracts/DEXV2FactoryFlat.sol\":17011:17017  token0 */\n              dup5\n              swap2\n              0x70a08231\n              swap2\n                /* \"v2-core-master/v2-core-master/contracts/DEXV2FactoryFlat.sol\":17171:17211  IERC20(_token0).balanceOf(address(this)) */\n              0x24\n              dup1\n              dup4\n              add\n              swap3\n              0x20\n              swap3\n              swap2\n              swap1\n              dup3\n              swap1\n              sub\n              add\n              dup2\n                /* \"v2-core-master/v2-core-master/contracts/DEXV2FactoryFlat.sol\":17011:17017  token0 */\n              dup7\n                /* \"v2-core-master/v2-core-master/contracts/DEXV2FactoryFlat.sol\":17171:17211  IERC20(_token0).balanceOf(address(this)) */\n              dup1\n              extcodesize\n              iszero\n                /* \"--CODEGEN--\":5:7   */\n              dup1\n              iszero\n              tag_205\n              jumpi\n                /* \"--CODEGEN--\":30:31   */\n              0x00\n                /* \"--CODEGEN--\":27:28   */\n              dup1\n                /* \"--CODEGEN--\":20:32   */\n              revert\n                /* \"--CODEGEN--\":5:7   */\n            tag_205:\n                /* \"v2-core-master/v2-core-master/contracts/DEXV2FactoryFlat.sol\":17171:17211  IERC20(_token0).balanceOf(address(this)) */\n              pop\n              gas\n              staticcall\n              iszero\n                /* \"--CODEGEN--\":8:17   */\n              dup1\n                /* \"--CODEGEN--\":5:7   */\n              iszero\n              tag_206\n              jumpi\n                /* \"--CODEGEN--\":45:61   */\n              returndatasize\n                /* \"--CODEGEN--\":42:43   */\n              0x00\n                /* \"--CODEGEN--\":39:40   */\n              dup1\n                /* \"--CODEGEN--\":24:62   */\n              returndatacopy\n                /* \"--CODEGEN--\":77:93   */\n              returndatasize\n                /* \"--CODEGEN--\":74:75   */\n              0x00\n                /* \"--CODEGEN--\":67:94   */\n              revert\n                /* \"--CODEGEN--\":5:7   */\n            tag_206:\n                /* \"v2-core-master/v2-core-master/contracts/DEXV2FactoryFlat.sol\":17171:17211  IERC20(_token0).balanceOf(address(this)) */\n              pop\n              pop\n              pop\n              pop\n              mload(0x40)\n              returndatasize\n                /* \"--CODEGEN--\":13:15   */\n              0x20\n                /* \"--CODEGEN--\":8:11   */\n              dup2\n                /* \"--CODEGEN--\":5:16   */\n              lt\n                /* \"--CODEGEN--\":2:4   */\n              iszero\n              tag_207\n              jumpi\n                /* \"--CODEGEN--\":29:30   */\n              0x00\n                /* \"--CODEGEN--\":26:27   */\n              dup1\n                /* \"--CODEGEN--\":19:31   */\n              revert\n                /* \"--CODEGEN--\":2:4   */\n            tag_207:\n              pop\n                /* \"v2-core-master/v2-core-master/contracts/DEXV2FactoryFlat.sol\":17171:17211  IERC20(_token0).balanceOf(address(this)) */\n              mload\n                /* \"v2-core-master/v2-core-master/contracts/DEXV2FactoryFlat.sol\":17238:17278  IERC20(_token1).balanceOf(address(this)) */\n              0x40\n              dup1\n              mload\n              shl(0xe0, 0x70a08231)\n              dup2\n              mstore\n                /* \"v2-core-master/v2-core-master/contracts/DEXV2FactoryFlat.sol\":17272:17276  this */\n              address\n                /* \"v2-core-master/v2-core-master/contracts/DEXV2FactoryFlat.sol\":17238:17278  IERC20(_token1).balanceOf(address(this)) */\n              0x04\n              dup3\n              add\n              mstore\n              swap1\n              mload\n                /* \"v2-core-master/v2-core-master/contracts/DEXV2FactoryFlat.sol\":17171:17211  IERC20(_token0).balanceOf(address(this)) */\n              swap2\n              swap3\n              pop\n              0x00\n              swap2\n              sub(shl(0xa0, 0x01), 0x01)\n                /* \"v2-core-master/v2-core-master/contracts/DEXV2FactoryFlat.sol\":17238:17263  IERC20(_token1).balanceOf */\n              dup6\n              and\n              swap2\n              0x70a08231\n              swap2\n                /* \"v2-core-master/v2-core-master/contracts/DEXV2FactoryFlat.sol\":17238:17278  IERC20(_token1).balanceOf(address(this)) */\n              0x24\n              dup1\n              dup4\n              add\n              swap3\n                /* \"v2-core-master/v2-core-master/contracts/DEXV2FactoryFlat.sol\":17171:17211  IERC20(_token0).balanceOf(address(this)) */\n              0x20\n              swap3\n                /* \"v2-core-master/v2-core-master/contracts/DEXV2FactoryFlat.sol\":17238:17278  IERC20(_token1).balanceOf(address(this)) */\n              swap2\n              swap1\n              dup3\n              swap1\n              sub\n              add\n              dup2\n                /* \"v2-core-master/v2-core-master/contracts/DEXV2FactoryFlat.sol\":17238:17263  IERC20(_token1).balanceOf */\n              dup7\n                /* \"v2-core-master/v2-core-master/contracts/DEXV2FactoryFlat.sol\":17238:17278  IERC20(_token1).balanceOf(address(this)) */\n              dup1\n              extcodesize\n              iszero\n                /* \"--CODEGEN--\":5:7   */\n              dup1\n              iszero\n              tag_208\n              jumpi\n                /* \"--CODEGEN--\":30:31   */\n              0x00\n                /* \"--CODEGEN--\":27:28   */\n              dup1\n                /* \"--CODEGEN--\":20:32   */\n              revert\n                /* \"--CODEGEN--\":5:7   */\n            tag_208:\n                /* \"v2-core-master/v2-core-master/contracts/DEXV2FactoryFlat.sol\":17238:17278  IERC20(_token1).balanceOf(address(this)) */\n              pop\n              gas\n              staticcall\n              iszero\n                /* \"--CODEGEN--\":8:17   */\n              dup1\n                /* \"--CODEGEN--\":5:7   */\n              iszero\n              tag_209\n              jumpi\n                /* \"--CODEGEN--\":45:61   */\n              returndatasize\n                /* \"--CODEGEN--\":42:43   */\n              0x00\n                /* \"--CODEGEN--\":39:40   */\n              dup1\n                /* \"--CODEGEN--\":24:62   */\n              returndatacopy\n                /* \"--CODEGEN--\":77:93   */\n              returndatasize\n                /* \"--CODEGEN--\":74:75   */\n              0x00\n                /* \"--CODEGEN--\":67:94   */\n              revert\n                /* \"--CODEGEN--\":5:7   */\n            tag_209:\n                /* \"v2-core-master/v2-core-master/contracts/DEXV2FactoryFlat.sol\":17238:17278  IERC20(_token1).balanceOf(address(this)) */\n              pop\n              pop\n              pop\n              pop\n              mload(0x40)\n              returndatasize\n                /* \"--CODEGEN--\":13:15   */\n              0x20\n                /* \"--CODEGEN--\":8:11   */\n              dup2\n                /* \"--CODEGEN--\":5:16   */\n              lt\n                /* \"--CODEGEN--\":2:4   */\n              iszero\n              tag_210\n              jumpi\n                /* \"--CODEGEN--\":29:30   */\n              0x00\n                /* \"--CODEGEN--\":26:27   */\n              dup1\n                /* \"--CODEGEN--\":19:31   */\n              revert\n                /* \"--CODEGEN--\":2:4   */\n            tag_210:\n              pop\n                /* \"v2-core-master/v2-core-master/contracts/DEXV2FactoryFlat.sol\":17238:17278  IERC20(_token1).balanceOf(address(this)) */\n              mload\n                /* \"v2-core-master/v2-core-master/contracts/DEXV2FactoryFlat.sol\":17324:17328  this */\n              address\n                /* \"v2-core-master/v2-core-master/contracts/DEXV2FactoryFlat.sol\":17289:17303  uint liquidity */\n              0x00\n                /* \"v2-core-master/v2-core-master/contracts/DEXV2FactoryFlat.sol\":17306:17330  balanceOf[address(this)] */\n              swap1\n              dup2\n              mstore\n                /* \"v2-core-master/v2-core-master/contracts/DEXV2FactoryFlat.sol\":17306:17315  balanceOf */\n              0x01\n                /* \"v2-core-master/v2-core-master/contracts/DEXV2FactoryFlat.sol\":17238:17278  IERC20(_token1).balanceOf(address(this)) */\n              0x20\n                /* \"v2-core-master/v2-core-master/contracts/DEXV2FactoryFlat.sol\":17306:17330  balanceOf[address(this)] */\n              mstore\n              0x40\n              dup2\n              keccak256\n              sload\n                /* \"v2-core-master/v2-core-master/contracts/DEXV2FactoryFlat.sol\":17238:17278  IERC20(_token1).balanceOf(address(this)) */\n              swap2\n              swap3\n              pop\n                /* \"v2-core-master/v2-core-master/contracts/DEXV2FactoryFlat.sol\":17356:17386  _mintFee(_reserve0, _reserve1) */\n              tag_211\n                /* \"v2-core-master/v2-core-master/contracts/DEXV2FactoryFlat.sol\":17365:17374  _reserve0 */\n              dup9\n                /* \"v2-core-master/v2-core-master/contracts/DEXV2FactoryFlat.sol\":17376:17385  _reserve1 */\n              dup9\n                /* \"v2-core-master/v2-core-master/contracts/DEXV2FactoryFlat.sol\":17356:17364  _mintFee */\n              tag_181\n                /* \"v2-core-master/v2-core-master/contracts/DEXV2FactoryFlat.sol\":17356:17386  _mintFee(_reserve0, _reserve1) */\n              jump\t// in\n            tag_211:\n                /* \"v2-core-master/v2-core-master/contracts/DEXV2FactoryFlat.sol\":17397:17414  uint _totalSupply */\n              0x00\n                /* \"v2-core-master/v2-core-master/contracts/DEXV2FactoryFlat.sol\":17417:17428  totalSupply */\n              sload\n                /* \"v2-core-master/v2-core-master/contracts/DEXV2FactoryFlat.sol\":17343:17386  bool feeOn = _mintFee(_reserve0, _reserve1) */\n              swap1\n              swap2\n              pop\n                /* \"v2-core-master/v2-core-master/contracts/DEXV2FactoryFlat.sol\":17417:17428  totalSupply */\n              dup1\n                /* \"v2-core-master/v2-core-master/contracts/DEXV2FactoryFlat.sol\":17527:17550  liquidity.mul(balance0) */\n              tag_212\n                /* \"v2-core-master/v2-core-master/contracts/DEXV2FactoryFlat.sol\":17527:17536  liquidity */\n              dup5\n                /* \"v2-core-master/v2-core-master/contracts/DEXV2FactoryFlat.sol\":17541:17549  balance0 */\n              dup8\n                /* \"v2-core-master/v2-core-master/contracts/DEXV2FactoryFlat.sol\":17527:17550  liquidity.mul(balance0) */\n              0xffffffff\n                /* \"v2-core-master/v2-core-master/contracts/DEXV2FactoryFlat.sol\":17527:17540  liquidity.mul */\n              tag_145\n                /* \"v2-core-master/v2-core-master/contracts/DEXV2FactoryFlat.sol\":17527:17550  liquidity.mul(balance0) */\n              and\n              jump\t// in\n            tag_212:\n                /* \"v2-core-master/v2-core-master/contracts/DEXV2FactoryFlat.sol\":17527:17565  liquidity.mul(balance0) / _totalSupply */\n              dup2\n              tag_213\n              jumpi\n              invalid\n            tag_213:\n              div\n              swap11\n              pop\n                /* \"v2-core-master/v2-core-master/contracts/DEXV2FactoryFlat.sol\":17660:17672  _totalSupply */\n              dup1\n                /* \"v2-core-master/v2-core-master/contracts/DEXV2FactoryFlat.sol\":17634:17657  liquidity.mul(balance1) */\n              tag_214\n                /* \"v2-core-master/v2-core-master/contracts/DEXV2FactoryFlat.sol\":17634:17643  liquidity */\n              dup5\n                /* \"v2-core-master/v2-core-master/contracts/DEXV2FactoryFlat.sol\":17648:17656  balance1 */\n              dup7\n                /* \"v2-core-master/v2-core-master/contracts/DEXV2FactoryFlat.sol\":17634:17657  liquidity.mul(balance1) */\n              0xffffffff\n                /* \"v2-core-master/v2-core-master/contracts/DEXV2FactoryFlat.sol\":17634:17647  liquidity.mul */\n              tag_145\n                /* \"v2-core-master/v2-core-master/contracts/DEXV2FactoryFlat.sol\":17634:17657  liquidity.mul(balance1) */\n              and\n              jump\t// in\n            tag_214:\n                /* \"v2-core-master/v2-core-master/contracts/DEXV2FactoryFlat.sol\":17634:17672  liquidity.mul(balance1) / _totalSupply */\n              dup2\n              tag_215\n              jumpi\n              invalid\n            tag_215:\n              div\n                /* \"v2-core-master/v2-core-master/contracts/DEXV2FactoryFlat.sol\":17624:17672  amount1 = liquidity.mul(balance1) / _totalSupply */\n              swap10\n              pop\n                /* \"v2-core-master/v2-core-master/contracts/DEXV2FactoryFlat.sol\":17749:17750  0 */\n              0x00\n                /* \"v2-core-master/v2-core-master/contracts/DEXV2FactoryFlat.sol\":17739:17746  amount0 */\n              dup12\n                /* \"v2-core-master/v2-core-master/contracts/DEXV2FactoryFlat.sol\":17739:17750  amount0 > 0 */\n              gt\n                /* \"v2-core-master/v2-core-master/contracts/DEXV2FactoryFlat.sol\":17739:17765  amount0 > 0 && amount1 > 0 */\n              dup1\n              iszero\n              tag_216\n              jumpi\n              pop\n                /* \"v2-core-master/v2-core-master/contracts/DEXV2FactoryFlat.sol\":17764:17765  0 */\n              0x00\n                /* \"v2-core-master/v2-core-master/contracts/DEXV2FactoryFlat.sol\":17754:17761  amount1 */\n              dup11\n                /* \"v2-core-master/v2-core-master/contracts/DEXV2FactoryFlat.sol\":17754:17765  amount1 > 0 */\n              gt\n                /* \"v2-core-master/v2-core-master/contracts/DEXV2FactoryFlat.sol\":17739:17765  amount0 > 0 && amount1 > 0 */\n            tag_216:\n                /* \"v2-core-master/v2-core-master/contracts/DEXV2FactoryFlat.sol\":17731:17806  require(amount0 > 0 && amount1 > 0, 'DEXV2: INSUFFICIENT_LIQUIDITY_BURNED') */\n              tag_217\n              jumpi\n              mload(0x40)\n              shl(0xe5, 0x461bcd)\n              dup2\n              mstore\n              0x04\n              add\n              dup1\n              dup1\n              0x20\n              add\n              dup3\n              dup2\n              sub\n              dup3\n              mstore\n              0x24\n              dup2\n              mstore\n              0x20\n              add\n              dup1\n              data_b8515d9c102ebe9112851623068db4e89ae46cea200d65e7d4ce8f89e31a1179\n              0x24\n              swap2\n              codecopy\n              0x40\n              add\n              swap2\n              pop\n              pop\n              mload(0x40)\n              dup1\n              swap2\n              sub\n              swap1\n              revert\n            tag_217:\n                /* \"v2-core-master/v2-core-master/contracts/DEXV2FactoryFlat.sol\":17817:17848  _burn(address(this), liquidity) */\n              tag_218\n                /* \"v2-core-master/v2-core-master/contracts/DEXV2FactoryFlat.sol\":17831:17835  this */\n              address\n                /* \"v2-core-master/v2-core-master/contracts/DEXV2FactoryFlat.sol\":17838:17847  liquidity */\n              dup5\n                /* \"v2-core-master/v2-core-master/contracts/DEXV2FactoryFlat.sol\":17817:17822  _burn */\n              tag_219\n                /* \"v2-core-master/v2-core-master/contracts/DEXV2FactoryFlat.sol\":17817:17848  _burn(address(this), liquidity) */\n              jump\t// in\n            tag_218:\n                /* \"v2-core-master/v2-core-master/contracts/DEXV2FactoryFlat.sol\":17859:17894  _safeTransfer(_token0, to, amount0) */\n              tag_220\n                /* \"v2-core-master/v2-core-master/contracts/DEXV2FactoryFlat.sol\":17873:17880  _token0 */\n              dup8\n                /* \"v2-core-master/v2-core-master/contracts/DEXV2FactoryFlat.sol\":17882:17884  to */\n              dup14\n                /* \"v2-core-master/v2-core-master/contracts/DEXV2FactoryFlat.sol\":17886:17893  amount0 */\n              dup14\n                /* \"v2-core-master/v2-core-master/contracts/DEXV2FactoryFlat.sol\":17859:17872  _safeTransfer */\n              tag_125\n                /* \"v2-core-master/v2-core-master/contracts/DEXV2FactoryFlat.sol\":17859:17894  _safeTransfer(_token0, to, amount0) */\n              jump\t// in\n            tag_220:\n                /* \"v2-core-master/v2-core-master/contracts/DEXV2FactoryFlat.sol\":17905:17940  _safeTransfer(_token1, to, amount1) */\n              tag_221\n                /* \"v2-core-master/v2-core-master/contracts/DEXV2FactoryFlat.sol\":17919:17926  _token1 */\n              dup7\n                /* \"v2-core-master/v2-core-master/contracts/DEXV2FactoryFlat.sol\":17928:17930  to */\n              dup14\n                /* \"v2-core-master/v2-core-master/contracts/DEXV2FactoryFlat.sol\":17932:17939  amount1 */\n              dup13\n                /* \"v2-core-master/v2-core-master/contracts/DEXV2FactoryFlat.sol\":17905:17918  _safeTransfer */\n              tag_125\n                /* \"v2-core-master/v2-core-master/contracts/DEXV2FactoryFlat.sol\":17905:17940  _safeTransfer(_token1, to, amount1) */\n              jump\t// in\n            tag_221:\n                /* \"v2-core-master/v2-core-master/contracts/DEXV2FactoryFlat.sol\":17962:18002  IERC20(_token0).balanceOf(address(this)) */\n              0x40\n              dup1\n              mload\n              shl(0xe0, 0x70a08231)\n              dup2\n              mstore\n                /* \"v2-core-master/v2-core-master/contracts/DEXV2FactoryFlat.sol\":17996:18000  this */\n              address\n                /* \"v2-core-master/v2-core-master/contracts/DEXV2FactoryFlat.sol\":17962:18002  IERC20(_token0).balanceOf(address(this)) */\n              0x04\n              dup3\n              add\n              mstore\n              swap1\n              mload\n              sub(shl(0xa0, 0x01), 0x01)\n                /* \"v2-core-master/v2-core-master/contracts/DEXV2FactoryFlat.sol\":17962:17987  IERC20(_token0).balanceOf */\n              dup10\n              and\n              swap2\n              0x70a08231\n              swap2\n                /* \"v2-core-master/v2-core-master/contracts/DEXV2FactoryFlat.sol\":17962:18002  IERC20(_token0).balanceOf(address(this)) */\n              0x24\n              dup1\n              dup4\n              add\n              swap3\n              0x20\n              swap3\n              swap2\n              swap1\n              dup3\n              swap1\n              sub\n              add\n              dup2\n                /* \"v2-core-master/v2-core-master/contracts/DEXV2FactoryFlat.sol\":17962:17987  IERC20(_token0).balanceOf */\n              dup7\n                /* \"v2-core-master/v2-core-master/contracts/DEXV2FactoryFlat.sol\":17962:18002  IERC20(_token0).balanceOf(address(this)) */\n              dup1\n              extcodesize\n              iszero\n                /* \"--CODEGEN--\":5:7   */\n              dup1\n              iszero\n              tag_222\n              jumpi\n                /* \"--CODEGEN--\":30:31   */\n              0x00\n                /* \"--CODEGEN--\":27:28   */\n              dup1\n                /* \"--CODEGEN--\":20:32   */\n              revert\n                /* \"--CODEGEN--\":5:7   */\n            tag_222:\n                /* \"v2-core-master/v2-core-master/contracts/DEXV2FactoryFlat.sol\":17962:18002  IERC20(_token0).balanceOf(address(this)) */\n              pop\n              gas\n              staticcall\n              iszero\n                /* \"--CODEGEN--\":8:17   */\n              dup1\n                /* \"--CODEGEN--\":5:7   */\n              iszero\n              tag_223\n              jumpi\n                /* \"--CODEGEN--\":45:61   */\n              returndatasize\n                /* \"--CODEGEN--\":42:43   */\n              0x00\n                /* \"--CODEGEN--\":39:40   */\n              dup1\n                /* \"--CODEGEN--\":24:62   */\n              returndatacopy\n                /* \"--CODEGEN--\":77:93   */\n              returndatasize\n                /* \"--CODEGEN--\":74:75   */\n              0x00\n                /* \"--CODEGEN--\":67:94   */\n              revert\n                /* \"--CODEGEN--\":5:7   */\n            tag_223:\n                /* \"v2-core-master/v2-core-master/contracts/DEXV2FactoryFlat.sol\":17962:18002  IERC20(_token0).balanceOf(address(this)) */\n              pop\n              pop\n              pop\n              pop\n              mload(0x40)\n              returndatasize\n                /* \"--CODEGEN--\":13:15   */\n              0x20\n                /* \"--CODEGEN--\":8:11   */\n              dup2\n                /* \"--CODEGEN--\":5:16   */\n              lt\n                /* \"--CODEGEN--\":2:4   */\n              iszero\n              tag_224\n              jumpi\n                /* \"--CODEGEN--\":29:30   */\n              0x00\n                /* \"--CODEGEN--\":26:27   */\n              dup1\n                /* \"--CODEGEN--\":19:31   */\n              revert\n                /* \"--CODEGEN--\":2:4   */\n            tag_224:\n              pop\n                /* \"v2-core-master/v2-core-master/contracts/DEXV2FactoryFlat.sol\":17962:18002  IERC20(_token0).balanceOf(address(this)) */\n              mload\n                /* \"v2-core-master/v2-core-master/contracts/DEXV2FactoryFlat.sol\":18024:18064  IERC20(_token1).balanceOf(address(this)) */\n              0x40\n              dup1\n              mload\n              shl(0xe0, 0x70a08231)\n              dup2\n              mstore\n                /* \"v2-core-master/v2-core-master/contracts/DEXV2FactoryFlat.sol\":18058:18062  this */\n              address\n                /* \"v2-core-master/v2-core-master/contracts/DEXV2FactoryFlat.sol\":18024:18064  IERC20(_token1).balanceOf(address(this)) */\n              0x04\n              dup3\n              add\n              mstore\n              swap1\n              mload\n                /* \"v2-core-master/v2-core-master/contracts/DEXV2FactoryFlat.sol\":17962:18002  IERC20(_token0).balanceOf(address(this)) */\n              swap2\n              swap7\n              pop\n              sub(shl(0xa0, 0x01), 0x01)\n                /* \"v2-core-master/v2-core-master/contracts/DEXV2FactoryFlat.sol\":18024:18049  IERC20(_token1).balanceOf */\n              dup9\n              and\n              swap2\n              0x70a08231\n              swap2\n                /* \"v2-core-master/v2-core-master/contracts/DEXV2FactoryFlat.sol\":18024:18064  IERC20(_token1).balanceOf(address(this)) */\n              0x24\n              dup1\n              dup3\n              add\n              swap3\n                /* \"v2-core-master/v2-core-master/contracts/DEXV2FactoryFlat.sol\":17962:18002  IERC20(_token0).balanceOf(address(this)) */\n              0x20\n              swap3\n                /* \"v2-core-master/v2-core-master/contracts/DEXV2FactoryFlat.sol\":18024:18064  IERC20(_token1).balanceOf(address(this)) */\n              swap1\n              swap2\n              swap1\n              dup3\n              swap1\n              sub\n              add\n              dup2\n                /* \"v2-core-master/v2-core-master/contracts/DEXV2FactoryFlat.sol\":18024:18049  IERC20(_token1).balanceOf */\n              dup7\n                /* \"v2-core-master/v2-core-master/contracts/DEXV2FactoryFlat.sol\":18024:18064  IERC20(_token1).balanceOf(address(this)) */\n              dup1\n              extcodesize\n              iszero\n                /* \"--CODEGEN--\":5:7   */\n              dup1\n              iszero\n              tag_225\n              jumpi\n                /* \"--CODEGEN--\":30:31   */\n              0x00\n                /* \"--CODEGEN--\":27:28   */\n              dup1\n                /* \"--CODEGEN--\":20:32   */\n              revert\n                /* \"--CODEGEN--\":5:7   */\n            tag_225:\n                /* \"v2-core-master/v2-core-master/contracts/DEXV2FactoryFlat.sol\":18024:18064  IERC20(_token1).balanceOf(address(this)) */\n              pop\n              gas\n              staticcall\n              iszero\n                /* \"--CODEGEN--\":8:17   */\n              dup1\n                /* \"--CODEGEN--\":5:7   */\n              iszero\n              tag_226\n              jumpi\n                /* \"--CODEGEN--\":45:61   */\n              returndatasize\n                /* \"--CODEGEN--\":42:43   */\n              0x00\n                /* \"--CODEGEN--\":39:40   */\n              dup1\n                /* \"--CODEGEN--\":24:62   */\n              returndatacopy\n                /* \"--CODEGEN--\":77:93   */\n              returndatasize\n                /* \"--CODEGEN--\":74:75   */\n              0x00\n                /* \"--CODEGEN--\":67:94   */\n              revert\n                /* \"--CODEGEN--\":5:7   */\n            tag_226:\n                /* \"v2-core-master/v2-core-master/contracts/DEXV2FactoryFlat.sol\":18024:18064  IERC20(_token1).balanceOf(address(this)) */\n              pop\n              pop\n              pop\n              pop\n              mload(0x40)\n              returndatasize\n                /* \"--CODEGEN--\":13:15   */\n              0x20\n                /* \"--CODEGEN--\":8:11   */\n              dup2\n                /* \"--CODEGEN--\":5:16   */\n              lt\n                /* \"--CODEGEN--\":2:4   */\n              iszero\n              tag_227\n              jumpi\n                /* \"--CODEGEN--\":29:30   */\n              0x00\n                /* \"--CODEGEN--\":26:27   */\n              dup1\n                /* \"--CODEGEN--\":19:31   */\n              revert\n                /* \"--CODEGEN--\":2:4   */\n            tag_227:\n              pop\n                /* \"v2-core-master/v2-core-master/contracts/DEXV2FactoryFlat.sol\":18024:18064  IERC20(_token1).balanceOf(address(this)) */\n              mload\n              swap4\n              pop\n                /* \"v2-core-master/v2-core-master/contracts/DEXV2FactoryFlat.sol\":18077:18126  _update(balance0, balance1, _reserve0, _reserve1) */\n              tag_228\n                /* \"v2-core-master/v2-core-master/contracts/DEXV2FactoryFlat.sol\":18085:18093  balance0 */\n              dup6\n                /* \"v2-core-master/v2-core-master/contracts/DEXV2FactoryFlat.sol\":18024:18064  IERC20(_token1).balanceOf(address(this)) */\n              dup6\n                /* \"v2-core-master/v2-core-master/contracts/DEXV2FactoryFlat.sol\":18105:18114  _reserve0 */\n              dup12\n                /* \"v2-core-master/v2-core-master/contracts/DEXV2FactoryFlat.sol\":18116:18125  _reserve1 */\n              dup12\n                /* \"v2-core-master/v2-core-master/contracts/DEXV2FactoryFlat.sol\":18077:18084  _update */\n              tag_156\n                /* \"v2-core-master/v2-core-master/contracts/DEXV2FactoryFlat.sol\":18077:18126  _update(balance0, balance1, _reserve0, _reserve1) */\n              jump\t// in\n            tag_228:\n                /* \"v2-core-master/v2-core-master/contracts/DEXV2FactoryFlat.sol\":18141:18146  feeOn */\n              dup2\n                /* \"v2-core-master/v2-core-master/contracts/DEXV2FactoryFlat.sol\":18137:18184  if (feeOn) kLast = uint(reserve0).mul(reserve1) */\n              iszero\n              tag_229\n              jumpi\n                /* \"v2-core-master/v2-core-master/contracts/DEXV2FactoryFlat.sol\":18175:18183  reserve1 */\n              sload(0x08)\n                /* \"v2-core-master/v2-core-master/contracts/DEXV2FactoryFlat.sol\":18156:18184  uint(reserve0).mul(reserve1) */\n              tag_230\n              swap1\n              sub(shl(0x70, 0x01), 0x01)\n                /* \"v2-core-master/v2-core-master/contracts/DEXV2FactoryFlat.sol\":18161:18169  reserve0 */\n              dup1\n              dup3\n              and\n              swap2\n              shl(0x70, 0x01)\n                /* \"v2-core-master/v2-core-master/contracts/DEXV2FactoryFlat.sol\":18175:18183  reserve1 */\n              swap1\n              div\n              and\n                /* \"v2-core-master/v2-core-master/contracts/DEXV2FactoryFlat.sol\":18156:18174  uint(reserve0).mul */\n              tag_145\n                /* \"v2-core-master/v2-core-master/contracts/DEXV2FactoryFlat.sol\":18156:18184  uint(reserve0).mul(reserve1) */\n              jump\t// in\n            tag_230:\n                /* \"v2-core-master/v2-core-master/contracts/DEXV2FactoryFlat.sol\":18148:18153  kLast */\n              0x0b\n                /* \"v2-core-master/v2-core-master/contracts/DEXV2FactoryFlat.sol\":18148:18184  kLast = uint(reserve0).mul(reserve1) */\n              sstore\n                /* \"v2-core-master/v2-core-master/contracts/DEXV2FactoryFlat.sol\":18137:18184  if (feeOn) kLast = uint(reserve0).mul(reserve1) */\n            tag_229:\n                /* \"v2-core-master/v2-core-master/contracts/DEXV2FactoryFlat.sol\":18240:18278  Burn(msg.sender, amount0, amount1, to) */\n              0x40\n              dup1\n              mload\n              dup13\n              dup2\n              mstore\n              0x20\n              dup2\n              add\n              dup13\n              swap1\n              mstore\n              dup2\n              mload\n              sub(shl(0xa0, 0x01), 0x01)\n              dup16\n              and\n              swap3\n                /* \"v2-core-master/v2-core-master/contracts/DEXV2FactoryFlat.sol\":18245:18255  msg.sender */\n              caller\n              swap3\n                /* \"v2-core-master/v2-core-master/contracts/DEXV2FactoryFlat.sol\":18240:18278  Burn(msg.sender, amount0, amount1, to) */\n              0xdccd412f0b1252819cb1fd330b93224ca42612892bb3f4f789976e6d81936496\n              swap3\n              swap1\n              dup2\n              swap1\n              sub\n              swap1\n              swap2\n              add\n              swap1\n              log3\n                /* \"v2-core-master/v2-core-master/contracts/DEXV2FactoryFlat.sol\":12198:12199  _ */\n              pop\n              pop\n              pop\n              pop\n              pop\n              pop\n              pop\n              pop\n              pop\n                /* \"v2-core-master/v2-core-master/contracts/DEXV2FactoryFlat.sol\":12221:12222  1 */\n              0x01\n                /* \"v2-core-master/v2-core-master/contracts/DEXV2FactoryFlat.sol\":12210:12218  unlocked */\n              0x0c\n                /* \"v2-core-master/v2-core-master/contracts/DEXV2FactoryFlat.sol\":12210:12222  unlocked = 1 */\n              dup2\n              swap1\n              sstore\n              pop\n                /* \"v2-core-master/v2-core-master/contracts/DEXV2FactoryFlat.sol\":16824:18286  function burn(address to) external lock returns (uint amount0, uint amount1) {\r... */\n              swap2\n              pop\n              swap2\n              jump\t// out\n                /* \"v2-core-master/v2-core-master/contracts/DEXV2FactoryFlat.sol\":4579:4619  string public constant symbol = 'DEX-V2' */\n            tag_88:\n              0x40\n              dup1\n              mload\n              dup1\n              dup3\n              add\n              swap1\n              swap2\n              mstore\n              0x06\n              dup2\n              mstore\n              shl(0xd1, 0x2222ac16ab19)\n              0x20\n              dup3\n              add\n              mstore\n              dup2\n              jump\t// out\n                /* \"v2-core-master/v2-core-master/contracts/DEXV2FactoryFlat.sol\":6732:6871  function transfer(address to, uint value) external returns (bool) {\r... */\n            tag_95:\n                /* \"v2-core-master/v2-core-master/contracts/DEXV2FactoryFlat.sol\":6792:6796  bool */\n              0x00\n                /* \"v2-core-master/v2-core-master/contracts/DEXV2FactoryFlat.sol\":6809:6841  _transfer(msg.sender, to, value) */\n              tag_159\n                /* \"v2-core-master/v2-core-master/contracts/DEXV2FactoryFlat.sol\":6819:6829  msg.sender */\n              caller\n                /* \"v2-core-master/v2-core-master/contracts/DEXV2FactoryFlat.sol\":6831:6833  to */\n              dup5\n                /* \"v2-core-master/v2-core-master/contracts/DEXV2FactoryFlat.sol\":6835:6840  value */\n              dup5\n                /* \"v2-core-master/v2-core-master/contracts/DEXV2FactoryFlat.sol\":6809:6818  _transfer */\n              tag_165\n                /* \"v2-core-master/v2-core-master/contracts/DEXV2FactoryFlat.sol\":6809:6841  _transfer(msg.sender, to, value) */\n              jump\t// in\n                /* \"v2-core-master/v2-core-master/contracts/DEXV2FactoryFlat.sol\":11352:11398  uint public constant MINIMUM_LIQUIDITY = 10**3 */\n            tag_97:\n                /* \"v2-core-master/v2-core-master/contracts/DEXV2FactoryFlat.sol\":11393:11398  10**3 */\n              0x03e8\n                /* \"v2-core-master/v2-core-master/contracts/DEXV2FactoryFlat.sol\":11352:11398  uint public constant MINIMUM_LIQUIDITY = 10**3 */\n              dup2\n              jump\t// out\n                /* \"v2-core-master/v2-core-master/contracts/DEXV2FactoryFlat.sol\":20308:20642  function skim(address to) external lock {\r... */\n            tag_100:\n                /* \"v2-core-master/v2-core-master/contracts/DEXV2FactoryFlat.sol\":12133:12141  unlocked */\n              sload(0x0c)\n                /* \"v2-core-master/v2-core-master/contracts/DEXV2FactoryFlat.sol\":12145:12146  1 */\n              0x01\n                /* \"v2-core-master/v2-core-master/contracts/DEXV2FactoryFlat.sol\":12133:12146  unlocked == 1 */\n              eq\n                /* \"v2-core-master/v2-core-master/contracts/DEXV2FactoryFlat.sol\":12125:12164  require(unlocked == 1, 'DEXV2: LOCKED') */\n              tag_234\n              jumpi\n              0x40\n              dup1\n              mload\n              shl(0xe5, 0x461bcd)\n              dup2\n              mstore\n              0x20\n              0x04\n              dup3\n              add\n              mstore\n              0x0d\n              0x24\n              dup3\n              add\n              mstore\n              shl(0x9a, 0x111156158c8e881313d0d2d151)\n              0x44\n              dup3\n              add\n              mstore\n              swap1\n              mload\n              swap1\n              dup2\n              swap1\n              sub\n              0x64\n              add\n              swap1\n              revert\n            tag_234:\n                /* \"v2-core-master/v2-core-master/contracts/DEXV2FactoryFlat.sol\":12186:12187  0 */\n              0x00\n                /* \"v2-core-master/v2-core-master/contracts/DEXV2FactoryFlat.sol\":12175:12183  unlocked */\n              0x0c\n                /* \"v2-core-master/v2-core-master/contracts/DEXV2FactoryFlat.sol\":12175:12187  unlocked = 0 */\n              sstore\n                /* \"v2-core-master/v2-core-master/contracts/DEXV2FactoryFlat.sol\":20377:20383  token0 */\n              sload(0x06)\n                /* \"v2-core-master/v2-core-master/contracts/DEXV2FactoryFlat.sol\":20427:20433  token1 */\n              sload(0x07)\n                /* \"v2-core-master/v2-core-master/contracts/DEXV2FactoryFlat.sol\":20531:20539  reserve0 */\n              sload(0x08)\n                /* \"v2-core-master/v2-core-master/contracts/DEXV2FactoryFlat.sol\":20486:20526  IERC20(_token0).balanceOf(address(this)) */\n              0x40\n              dup1\n              mload\n              shl(0xe0, 0x70a08231)\n              dup2\n              mstore\n                /* \"v2-core-master/v2-core-master/contracts/DEXV2FactoryFlat.sol\":20520:20524  this */\n              address\n                /* \"v2-core-master/v2-core-master/contracts/DEXV2FactoryFlat.sol\":20486:20526  IERC20(_token0).balanceOf(address(this)) */\n              0x04\n              dup3\n              add\n              mstore\n              swap1\n              mload\n              sub(shl(0xa0, 0x01), 0x01)\n                /* \"v2-core-master/v2-core-master/contracts/DEXV2FactoryFlat.sol\":20377:20383  token0 */\n              swap5\n              dup6\n              and\n              swap5\n                /* \"v2-core-master/v2-core-master/contracts/DEXV2FactoryFlat.sol\":20427:20433  token1 */\n              swap1\n              swap4\n              and\n              swap3\n                /* \"v2-core-master/v2-core-master/contracts/DEXV2FactoryFlat.sol\":20459:20541  _safeTransfer(_token0, to, IERC20(_token0).balanceOf(address(this)).sub(reserve0)) */\n              tag_236\n              swap3\n                /* \"v2-core-master/v2-core-master/contracts/DEXV2FactoryFlat.sol\":20377:20383  token0 */\n              dup6\n              swap3\n                /* \"v2-core-master/v2-core-master/contracts/DEXV2FactoryFlat.sol\":20482:20484  to */\n              dup8\n              swap3\n                /* \"v2-core-master/v2-core-master/contracts/DEXV2FactoryFlat.sol\":20486:20540  IERC20(_token0).balanceOf(address(this)).sub(reserve0) */\n              tag_237\n              swap3\n              sub(shl(0x70, 0x01), 0x01)\n                /* \"v2-core-master/v2-core-master/contracts/DEXV2FactoryFlat.sol\":20531:20539  reserve0 */\n              and\n              swap2\n                /* \"v2-core-master/v2-core-master/contracts/DEXV2FactoryFlat.sol\":20377:20383  token0 */\n              dup6\n              swap2\n              0x70a08231\n              swap2\n                /* \"v2-core-master/v2-core-master/contracts/DEXV2FactoryFlat.sol\":20486:20526  IERC20(_token0).balanceOf(address(this)) */\n              0x24\n              dup1\n              dup3\n              add\n              swap3\n              0x20\n              swap3\n              swap1\n              swap2\n              swap1\n              dup3\n              swap1\n              sub\n              add\n              dup2\n                /* \"v2-core-master/v2-core-master/contracts/DEXV2FactoryFlat.sol\":20377:20383  token0 */\n              dup7\n                /* \"v2-core-master/v2-core-master/contracts/DEXV2FactoryFlat.sol\":20486:20526  IERC20(_token0).balanceOf(address(this)) */\n              dup1\n              extcodesize\n              iszero\n                /* \"--CODEGEN--\":5:7   */\n              dup1\n              iszero\n              tag_238\n              jumpi\n                /* \"--CODEGEN--\":30:31   */\n              0x00\n                /* \"--CODEGEN--\":27:28   */\n              dup1\n                /* \"--CODEGEN--\":20:32   */\n              revert\n                /* \"--CODEGEN--\":5:7   */\n            tag_238:\n                /* \"v2-core-master/v2-core-master/contracts/DEXV2FactoryFlat.sol\":20486:20526  IERC20(_token0).balanceOf(address(this)) */\n              pop\n              gas\n              staticcall\n              iszero\n                /* \"--CODEGEN--\":8:17   */\n              dup1\n                /* \"--CODEGEN--\":5:7   */\n              iszero\n              tag_239\n              jumpi\n                /* \"--CODEGEN--\":45:61   */\n              returndatasize\n                /* \"--CODEGEN--\":42:43   */\n              0x00\n                /* \"--CODEGEN--\":39:40   */\n              dup1\n                /* \"--CODEGEN--\":24:62   */\n              returndatacopy\n                /* \"--CODEGEN--\":77:93   */\n              returndatasize\n                /* \"--CODEGEN--\":74:75   */\n              0x00\n                /* \"--CODEGEN--\":67:94   */\n              revert\n                /* \"--CODEGEN--\":5:7   */\n            tag_239:\n                /* \"v2-core-master/v2-core-master/contracts/DEXV2FactoryFlat.sol\":20486:20526  IERC20(_token0).balanceOf(address(this)) */\n              pop\n              pop\n              pop\n              pop\n              mload(0x40)\n              returndatasize\n                /* \"--CODEGEN--\":13:15   */\n              0x20\n                /* \"--CODEGEN--\":8:11   */\n              dup2\n                /* \"--CODEGEN--\":5:16   */\n              lt\n                /* \"--CODEGEN--\":2:4   */\n              iszero\n              tag_240\n              jumpi\n                /* \"--CODEGEN--\":29:30   */\n              0x00\n                /* \"--CODEGEN--\":26:27   */\n              dup1\n                /* \"--CODEGEN--\":19:31   */\n              revert\n                /* \"--CODEGEN--\":2:4   */\n            tag_240:\n              pop\n                /* \"v2-core-master/v2-core-master/contracts/DEXV2FactoryFlat.sol\":20486:20526  IERC20(_token0).balanceOf(address(this)) */\n              mload\n              swap1\n                /* \"v2-core-master/v2-core-master/contracts/DEXV2FactoryFlat.sol\":20486:20540  IERC20(_token0).balanceOf(address(this)).sub(reserve0) */\n              0xffffffff\n                /* \"v2-core-master/v2-core-master/contracts/DEXV2FactoryFlat.sol\":20486:20530  IERC20(_token0).balanceOf(address(this)).sub */\n              tag_147\n                /* \"v2-core-master/v2-core-master/contracts/DEXV2FactoryFlat.sol\":20486:20540  IERC20(_token0).balanceOf(address(this)).sub(reserve0) */\n              and\n              jump\t// in\n            tag_237:\n                /* \"v2-core-master/v2-core-master/contracts/DEXV2FactoryFlat.sol\":20459:20472  _safeTransfer */\n              tag_125\n                /* \"v2-core-master/v2-core-master/contracts/DEXV2FactoryFlat.sol\":20459:20541  _safeTransfer(_token0, to, IERC20(_token0).balanceOf(address(this)).sub(reserve0)) */\n              jump\t// in\n            tag_236:\n                /* \"v2-core-master/v2-core-master/contracts/DEXV2FactoryFlat.sol\":20624:20632  reserve1 */\n              sload(0x08)\n                /* \"v2-core-master/v2-core-master/contracts/DEXV2FactoryFlat.sol\":20579:20619  IERC20(_token1).balanceOf(address(this)) */\n              0x40\n              dup1\n              mload\n              shl(0xe0, 0x70a08231)\n              dup2\n              mstore\n                /* \"v2-core-master/v2-core-master/contracts/DEXV2FactoryFlat.sol\":20613:20617  this */\n              address\n                /* \"v2-core-master/v2-core-master/contracts/DEXV2FactoryFlat.sol\":20579:20619  IERC20(_token1).balanceOf(address(this)) */\n              0x04\n              dup3\n              add\n              mstore\n              swap1\n              mload\n                /* \"v2-core-master/v2-core-master/contracts/DEXV2FactoryFlat.sol\":20552:20634  _safeTransfer(_token1, to, IERC20(_token1).balanceOf(address(this)).sub(reserve1)) */\n              tag_241\n              swap3\n                /* \"v2-core-master/v2-core-master/contracts/DEXV2FactoryFlat.sol\":20566:20573  _token1 */\n              dup5\n              swap3\n                /* \"v2-core-master/v2-core-master/contracts/DEXV2FactoryFlat.sol\":20575:20577  to */\n              dup8\n              swap3\n                /* \"v2-core-master/v2-core-master/contracts/DEXV2FactoryFlat.sol\":20579:20633  IERC20(_token1).balanceOf(address(this)).sub(reserve1) */\n              tag_237\n              swap3\n              shl(0x70, 0x01)\n                /* \"v2-core-master/v2-core-master/contracts/DEXV2FactoryFlat.sol\":20624:20632  reserve1 */\n              swap1\n              div\n              sub(shl(0x70, 0x01), 0x01)\n              and\n              swap2\n              sub(shl(0xa0, 0x01), 0x01)\n                /* \"v2-core-master/v2-core-master/contracts/DEXV2FactoryFlat.sol\":20579:20604  IERC20(_token1).balanceOf */\n              dup7\n              and\n              swap2\n              0x70a08231\n              swap2\n                /* \"v2-core-master/v2-core-master/contracts/DEXV2FactoryFlat.sol\":20579:20619  IERC20(_token1).balanceOf(address(this)) */\n              0x24\n              dup1\n              dup3\n              add\n              swap3\n              0x20\n              swap3\n              swap1\n              swap2\n              swap1\n              dup3\n              swap1\n              sub\n              add\n              dup2\n                /* \"v2-core-master/v2-core-master/contracts/DEXV2FactoryFlat.sol\":20579:20604  IERC20(_token1).balanceOf */\n              dup7\n                /* \"v2-core-master/v2-core-master/contracts/DEXV2FactoryFlat.sol\":20579:20619  IERC20(_token1).balanceOf(address(this)) */\n              dup1\n              extcodesize\n              iszero\n                /* \"--CODEGEN--\":5:7   */\n              dup1\n              iszero\n              tag_238\n              jumpi\n                /* \"--CODEGEN--\":30:31   */\n              0x00\n                /* \"--CODEGEN--\":27:28   */\n              dup1\n                /* \"--CODEGEN--\":20:32   */\n              revert\n                /* \"v2-core-master/v2-core-master/contracts/DEXV2FactoryFlat.sol\":20552:20634  _safeTransfer(_token1, to, IERC20(_token1).balanceOf(address(this)).sub(reserve1)) */\n            tag_241:\n              pop\n              pop\n                /* \"v2-core-master/v2-core-master/contracts/DEXV2FactoryFlat.sol\":12221:12222  1 */\n              0x01\n                /* \"v2-core-master/v2-core-master/contracts/DEXV2FactoryFlat.sol\":12210:12218  unlocked */\n              0x0c\n                /* \"v2-core-master/v2-core-master/contracts/DEXV2FactoryFlat.sol\":12210:12222  unlocked = 1 */\n              sstore\n              pop\n                /* \"v2-core-master/v2-core-master/contracts/DEXV2FactoryFlat.sol\":20308:20642  function skim(address to) external lock {\r... */\n              jump\t// out\n                /* \"v2-core-master/v2-core-master/contracts/DEXV2FactoryFlat.sol\":11502:11524  address public factory */\n            tag_102:\n              and(sub(shl(0xa0, 0x01), 0x01), sload(0x05))\n              dup2\n              jump\t// out\n                /* \"v2-core-master/v2-core-master/contracts/DEXV2FactoryFlat.sol\":11559:11580  address public token1 */\n            tag_104:\n              and(sub(shl(0xa0, 0x01), 0x01), sload(0x07))\n              dup2\n              jump\t// out\n                /* \"v2-core-master/v2-core-master/contracts/DEXV2FactoryFlat.sol\":7188:7854  function permit(address owner, address spender, uint value, uint deadline, uint8 v, bytes32 r, bytes32 s) external {\r... */\n            tag_107:\n                /* \"v2-core-master/v2-core-master/contracts/DEXV2FactoryFlat.sol\":7334:7349  block.timestamp */\n              timestamp\n                /* \"v2-core-master/v2-core-master/contracts/DEXV2FactoryFlat.sol\":7322:7330  deadline */\n              dup5\n                /* \"v2-core-master/v2-core-master/contracts/DEXV2FactoryFlat.sol\":7322:7349  deadline >= block.timestamp */\n              lt\n              iszero\n                /* \"v2-core-master/v2-core-master/contracts/DEXV2FactoryFlat.sol\":7314:7368  require(deadline >= block.timestamp, 'DEXV2: EXPIRED') */\n              tag_247\n              jumpi\n              0x40\n              dup1\n              mload\n              shl(0xe5, 0x461bcd)\n              dup2\n              mstore\n              0x20\n              0x04\n              dup3\n              add\n              mstore\n              0x0e\n              0x24\n              dup3\n              add\n              mstore\n              shl(0x92, 0x111156158c8e8811561412549151)\n              0x44\n              dup3\n              add\n              mstore\n              swap1\n              mload\n              swap1\n              dup2\n              swap1\n              sub\n              0x64\n              add\n              swap1\n              revert\n            tag_247:\n                /* \"v2-core-master/v2-core-master/contracts/DEXV2FactoryFlat.sol\":7484:7500  DOMAIN_SEPARATOR */\n              sload(0x03)\n              sub(shl(0xa0, 0x01), 0x01)\n                /* \"v2-core-master/v2-core-master/contracts/DEXV2FactoryFlat.sol\":7580:7593  nonces[owner] */\n              dup9\n              dup2\n              and\n                /* \"v2-core-master/v2-core-master/contracts/DEXV2FactoryFlat.sol\":7379:7393  bytes32 digest */\n              0x00\n                /* \"v2-core-master/v2-core-master/contracts/DEXV2FactoryFlat.sol\":7580:7593  nonces[owner] */\n              dup2\n              dup2\n              mstore\n                /* \"v2-core-master/v2-core-master/contracts/DEXV2FactoryFlat.sol\":7580:7586  nonces */\n              0x04\n                /* \"v2-core-master/v2-core-master/contracts/DEXV2FactoryFlat.sol\":7580:7593  nonces[owner] */\n              0x20\n              swap1\n              dup2\n              mstore\n              0x40\n              dup1\n              dup4\n              keccak256\n                /* \"v2-core-master/v2-core-master/contracts/DEXV2FactoryFlat.sol\":7580:7595  nonces[owner]++ */\n              dup1\n              sload\n              0x01\n              dup2\n              dup2\n              add\n              swap1\n              swap3\n              sstore\n                /* \"v2-core-master/v2-core-master/contracts/DEXV2FactoryFlat.sol\":7529:7606  abi.encode(PERMIT_TYPEHASH, owner, spender, value, nonces[owner]++, deadline) */\n              dup3\n              mload\n                /* \"v2-core-master/v2-core-master/contracts/DEXV2FactoryFlat.sol\":5002:5068  0x6e71edae12b1b97f4d1f60370fef10105fa2faae0126114a169c64845d6126c9 */\n              0x6e71edae12b1b97f4d1f60370fef10105fa2faae0126114a169c64845d6126c9\n                /* \"v2-core-master/v2-core-master/contracts/DEXV2FactoryFlat.sol\":7529:7606  abi.encode(PERMIT_TYPEHASH, owner, spender, value, nonces[owner]++, deadline) */\n              dup2\n              dup7\n              add\n              mstore\n              dup1\n              dup5\n              add\n              swap7\n              swap1\n              swap7\n              mstore\n              swap6\n              dup14\n              and\n              0x60\n              dup7\n              add\n              mstore\n              0x80\n              dup6\n              add\n              dup13\n              swap1\n              mstore\n              0xa0\n              dup6\n              add\n              swap6\n              swap1\n              swap6\n              mstore\n              0xc0\n              dup1\n              dup6\n              add\n              dup12\n              swap1\n              mstore\n              dup2\n              mload\n                /* \"--CODEGEN--\":26:47   */\n              dup1\n              dup7\n              sub\n                /* \"--CODEGEN--\":22:54   */\n              swap1\n              swap2\n              add\n                /* \"--CODEGEN--\":6:55   */\n              dup2\n              mstore\n                /* \"v2-core-master/v2-core-master/contracts/DEXV2FactoryFlat.sol\":7529:7606  abi.encode(PERMIT_TYPEHASH, owner, spender, value, nonces[owner]++, deadline) */\n              0xe0\n              dup6\n              add\n              dup3\n              mstore\n                /* \"v2-core-master/v2-core-master/contracts/DEXV2FactoryFlat.sol\":7519:7607  keccak256(abi.encode(PERMIT_TYPEHASH, owner, spender, value, nonces[owner]++, deadline)) */\n              dup1\n              mload\n              swap1\n              dup4\n              add\n              keccak256\n              shl(0xf0, 0x1901)\n                /* \"v2-core-master/v2-core-master/contracts/DEXV2FactoryFlat.sol\":7420:7622  abi.encodePacked(\r... */\n              0x0100\n              dup7\n              add\n              mstore\n              0x0102\n              dup6\n              add\n              swap7\n              swap1\n              swap7\n              mstore\n              0x0122\n              dup1\n              dup6\n              add\n              swap7\n              swap1\n              swap7\n              mstore\n              dup1\n              mload\n                /* \"--CODEGEN--\":26:47   */\n              dup1\n              dup6\n              sub\n                /* \"--CODEGEN--\":22:54   */\n              swap1\n              swap7\n              add\n                /* \"--CODEGEN--\":6:55   */\n              dup7\n              mstore\n                /* \"v2-core-master/v2-core-master/contracts/DEXV2FactoryFlat.sol\":7420:7622  abi.encodePacked(\r... */\n              0x0142\n              dup5\n              add\n              dup1\n              dup3\n              mstore\n                /* \"v2-core-master/v2-core-master/contracts/DEXV2FactoryFlat.sol\":7396:7633  keccak256(\r... */\n              dup7\n              mload\n              swap7\n              dup4\n              add\n              swap7\n              swap1\n              swap7\n              keccak256\n                /* \"v2-core-master/v2-core-master/contracts/DEXV2FactoryFlat.sol\":7671:7697  ecrecover(digest, v, r, s) */\n              swap6\n              dup4\n              swap1\n              mstore\n              0x0162\n              dup5\n              add\n              dup1\n              dup3\n              mstore\n              dup7\n              swap1\n              mstore\n              0xff\n              dup10\n              and\n              0x0182\n              dup6\n              add\n              mstore\n              0x01a2\n              dup5\n              add\n              dup9\n              swap1\n              mstore\n              0x01c2\n              dup5\n              add\n              dup8\n              swap1\n              mstore\n              mload\n                /* \"v2-core-master/v2-core-master/contracts/DEXV2FactoryFlat.sol\":7379:7393  bytes32 digest */\n              swap2\n              swap4\n              swap3\n                /* \"v2-core-master/v2-core-master/contracts/DEXV2FactoryFlat.sol\":7671:7697  ecrecover(digest, v, r, s) */\n              0x01e2\n              dup1\n              dup3\n              add\n              swap4\n              not(0x1f)\n              dup2\n              add\n              swap3\n              dup2\n              swap1\n              sub\n              swap1\n              swap2\n              add\n              swap1\n              dup6\n              gas\n              staticcall\n              iszero\n                /* \"--CODEGEN--\":8:17   */\n              dup1\n                /* \"--CODEGEN--\":5:7   */\n              iszero\n              tag_248\n              jumpi\n                /* \"--CODEGEN--\":45:61   */\n              returndatasize\n                /* \"--CODEGEN--\":42:43   */\n              0x00\n                /* \"--CODEGEN--\":39:40   */\n              dup1\n                /* \"--CODEGEN--\":24:62   */\n              returndatacopy\n                /* \"--CODEGEN--\":77:93   */\n              returndatasize\n                /* \"--CODEGEN--\":74:75   */\n              0x00\n                /* \"--CODEGEN--\":67:94   */\n              revert\n                /* \"--CODEGEN--\":5:7   */\n            tag_248:\n              pop\n              pop\n                /* \"v2-core-master/v2-core-master/contracts/DEXV2FactoryFlat.sol\":7671:7697  ecrecover(digest, v, r, s) */\n              mload(add(not(0x1f), mload(0x40)))\n              swap2\n              pop\n              pop\n              sub(shl(0xa0, 0x01), 0x01)\n                /* \"v2-core-master/v2-core-master/contracts/DEXV2FactoryFlat.sol\":7716:7746  recoveredAddress != address(0) */\n              dup2\n              and\n              iszero\n              dup1\n              iszero\n              swap1\n                /* \"v2-core-master/v2-core-master/contracts/DEXV2FactoryFlat.sol\":7716:7775  recoveredAddress != address(0) && recoveredAddress == owner */\n              tag_249\n              jumpi\n              pop\n              sub(shl(0xa0, 0x01), 0x01)\n                /* \"v2-core-master/v2-core-master/contracts/DEXV2FactoryFlat.sol\":7750:7775  recoveredAddress == owner */\n              dup2\n              dup2\n              and\n              swap1\n              dup11\n              and\n              eq\n                /* \"v2-core-master/v2-core-master/contracts/DEXV2FactoryFlat.sol\":7716:7775  recoveredAddress != address(0) && recoveredAddress == owner */\n            tag_249:\n                /* \"v2-core-master/v2-core-master/contracts/DEXV2FactoryFlat.sol\":7708:7804  require(recoveredAddress != address(0) && recoveredAddress == owner, 'DEXV2: INVALID_SIGNATURE') */\n              tag_250\n              jumpi\n              0x40\n              dup1\n              mload\n              shl(0xe5, 0x461bcd)\n              dup2\n              mstore\n              0x20\n              0x04\n              dup3\n              add\n              mstore\n              0x18\n              0x24\n              dup3\n              add\n              mstore\n              0x44455856323a20494e56414c49445f5349474e41545552450000000000000000\n              0x44\n              dup3\n              add\n              mstore\n              swap1\n              mload\n              swap1\n              dup2\n              swap1\n              sub\n              0x64\n              add\n              swap1\n              revert\n            tag_250:\n                /* \"v2-core-master/v2-core-master/contracts/DEXV2FactoryFlat.sol\":7815:7846  _approve(owner, spender, value) */\n              tag_251\n                /* \"v2-core-master/v2-core-master/contracts/DEXV2FactoryFlat.sol\":7824:7829  owner */\n              dup10\n                /* \"v2-core-master/v2-core-master/contracts/DEXV2FactoryFlat.sol\":7831:7838  spender */\n              dup10\n                /* \"v2-core-master/v2-core-master/contracts/DEXV2FactoryFlat.sol\":7840:7845  value */\n              dup10\n                /* \"v2-core-master/v2-core-master/contracts/DEXV2FactoryFlat.sol\":7815:7823  _approve */\n              tag_160\n                /* \"v2-core-master/v2-core-master/contracts/DEXV2FactoryFlat.sol\":7815:7846  _approve(owner, spender, value) */\n              jump\t// in\n            tag_251:\n                /* \"v2-core-master/v2-core-master/contracts/DEXV2FactoryFlat.sol\":7188:7854  function permit(address owner, address spender, uint value, uint deadline, uint8 v, bytes32 r, bytes32 s) external {\r... */\n              pop\n              pop\n              pop\n              pop\n              pop\n              pop\n              pop\n              pop\n              pop\n              jump\t// out\n                /* \"v2-core-master/v2-core-master/contracts/DEXV2FactoryFlat.sol\":4747:4808  mapping(address => mapping(address => uint)) public allowance */\n            tag_110:\n              0x02\n              0x20\n              swap1\n              dup2\n              mstore\n              0x00\n              swap3\n              dup4\n              mstore\n              0x40\n              dup1\n              dup5\n              keccak256\n              swap1\n              swap2\n              mstore\n              swap1\n              dup3\n              mstore\n              swap1\n              keccak256\n              sload\n              dup2\n              jump\t// out\n                /* \"v2-core-master/v2-core-master/contracts/DEXV2FactoryFlat.sol\":20691:20849  function sync() external lock {\r... */\n            tag_112:\n                /* \"v2-core-master/v2-core-master/contracts/DEXV2FactoryFlat.sol\":12133:12141  unlocked */\n              sload(0x0c)\n                /* \"v2-core-master/v2-core-master/contracts/DEXV2FactoryFlat.sol\":12145:12146  1 */\n              0x01\n                /* \"v2-core-master/v2-core-master/contracts/DEXV2FactoryFlat.sol\":12133:12146  unlocked == 1 */\n              eq\n                /* \"v2-core-master/v2-core-master/contracts/DEXV2FactoryFlat.sol\":12125:12164  require(unlocked == 1, 'DEXV2: LOCKED') */\n              tag_253\n              jumpi\n              0x40\n              dup1\n              mload\n              shl(0xe5, 0x461bcd)\n              dup2\n              mstore\n              0x20\n              0x04\n              dup3\n              add\n              mstore\n              0x0d\n              0x24\n              dup3\n              add\n              mstore\n              shl(0x9a, 0x111156158c8e881313d0d2d151)\n              0x44\n              dup3\n              add\n              mstore\n              swap1\n              mload\n              swap1\n              dup2\n              swap1\n              sub\n              0x64\n              add\n              swap1\n              revert\n            tag_253:\n                /* \"v2-core-master/v2-core-master/contracts/DEXV2FactoryFlat.sol\":12186:12187  0 */\n              0x00\n                /* \"v2-core-master/v2-core-master/contracts/DEXV2FactoryFlat.sol\":12175:12183  unlocked */\n              0x0c\n                /* \"v2-core-master/v2-core-master/contracts/DEXV2FactoryFlat.sol\":12175:12187  unlocked = 0 */\n              sstore\n                /* \"v2-core-master/v2-core-master/contracts/DEXV2FactoryFlat.sol\":20747:20753  token0 */\n              sload(0x06)\n                /* \"v2-core-master/v2-core-master/contracts/DEXV2FactoryFlat.sol\":20740:20779  IERC20(token0).balanceOf(address(this)) */\n              0x40\n              dup1\n              mload\n              shl(0xe0, 0x70a08231)\n              dup2\n              mstore\n                /* \"v2-core-master/v2-core-master/contracts/DEXV2FactoryFlat.sol\":20773:20777  this */\n              address\n                /* \"v2-core-master/v2-core-master/contracts/DEXV2FactoryFlat.sol\":20740:20779  IERC20(token0).balanceOf(address(this)) */\n              0x04\n              dup3\n              add\n              mstore\n              swap1\n              mload\n                /* \"v2-core-master/v2-core-master/contracts/DEXV2FactoryFlat.sol\":20732:20841  _update(IERC20(token0).balanceOf(address(this)), IERC20(token1).balanceOf(address(this)), reserve0, reserve1) */\n              tag_255\n              swap3\n              sub(shl(0xa0, 0x01), 0x01)\n                /* \"v2-core-master/v2-core-master/contracts/DEXV2FactoryFlat.sol\":20747:20753  token0 */\n              and\n              swap2\n              0x70a08231\n              swap2\n                /* \"v2-core-master/v2-core-master/contracts/DEXV2FactoryFlat.sol\":20740:20779  IERC20(token0).balanceOf(address(this)) */\n              0x24\n              dup1\n              dup4\n              add\n              swap3\n              0x20\n              swap3\n              swap2\n              swap1\n              dup3\n              swap1\n              sub\n              add\n              dup2\n                /* \"v2-core-master/v2-core-master/contracts/DEXV2FactoryFlat.sol\":20747:20753  token0 */\n              dup7\n                /* \"v2-core-master/v2-core-master/contracts/DEXV2FactoryFlat.sol\":20740:20779  IERC20(token0).balanceOf(address(this)) */\n              dup1\n              extcodesize\n              iszero\n                /* \"--CODEGEN--\":5:7   */\n              dup1\n              iszero\n              tag_256\n              jumpi\n                /* \"--CODEGEN--\":30:31   */\n              0x00\n                /* \"--CODEGEN--\":27:28   */\n              dup1\n                /* \"--CODEGEN--\":20:32   */\n              revert\n                /* \"--CODEGEN--\":5:7   */\n            tag_256:\n                /* \"v2-core-master/v2-core-master/contracts/DEXV2FactoryFlat.sol\":20740:20779  IERC20(token0).balanceOf(address(this)) */\n              pop\n              gas\n              staticcall\n              iszero\n                /* \"--CODEGEN--\":8:17   */\n              dup1\n                /* \"--CODEGEN--\":5:7   */\n              iszero\n              tag_257\n              jumpi\n                /* \"--CODEGEN--\":45:61   */\n              returndatasize\n                /* \"--CODEGEN--\":42:43   */\n              0x00\n                /* \"--CODEGEN--\":39:40   */\n              dup1\n                /* \"--CODEGEN--\":24:62   */\n              returndatacopy\n                /* \"--CODEGEN--\":77:93   */\n              returndatasize\n                /* \"--CODEGEN--\":74:75   */\n              0x00\n                /* \"--CODEGEN--\":67:94   */\n              revert\n                /* \"--CODEGEN--\":5:7   */\n            tag_257:\n                /* \"v2-core-master/v2-core-master/contracts/DEXV2FactoryFlat.sol\":20740:20779  IERC20(token0).balanceOf(address(this)) */\n              pop\n              pop\n              pop\n              pop\n              mload(0x40)\n              returndatasize\n                /* \"--CODEGEN--\":13:15   */\n              0x20\n                /* \"--CODEGEN--\":8:11   */\n              dup2\n                /* \"--CODEGEN--\":5:16   */\n              lt\n                /* \"--CODEGEN--\":2:4   */\n              iszero\n              tag_258\n              jumpi\n                /* \"--CODEGEN--\":29:30   */\n              0x00\n                /* \"--CODEGEN--\":26:27   */\n              dup1\n                /* \"--CODEGEN--\":19:31   */\n              revert\n                /* \"--CODEGEN--\":2:4   */\n            tag_258:\n              pop\n                /* \"v2-core-master/v2-core-master/contracts/DEXV2FactoryFlat.sol\":20740:20779  IERC20(token0).balanceOf(address(this)) */\n              mload\n                /* \"v2-core-master/v2-core-master/contracts/DEXV2FactoryFlat.sol\":20788:20794  token1 */\n              sload(0x07)\n                /* \"v2-core-master/v2-core-master/contracts/DEXV2FactoryFlat.sol\":20781:20820  IERC20(token1).balanceOf(address(this)) */\n              0x40\n              dup1\n              mload\n              shl(0xe0, 0x70a08231)\n              dup2\n              mstore\n                /* \"v2-core-master/v2-core-master/contracts/DEXV2FactoryFlat.sol\":20814:20818  this */\n              address\n                /* \"v2-core-master/v2-core-master/contracts/DEXV2FactoryFlat.sol\":20781:20820  IERC20(token1).balanceOf(address(this)) */\n              0x04\n              dup3\n              add\n              mstore\n              swap1\n              mload\n              sub(shl(0xa0, 0x01), 0x01)\n                /* \"v2-core-master/v2-core-master/contracts/DEXV2FactoryFlat.sol\":20788:20794  token1 */\n              swap1\n              swap3\n              and\n              swap2\n              0x70a08231\n              swap2\n                /* \"v2-core-master/v2-core-master/contracts/DEXV2FactoryFlat.sol\":20781:20820  IERC20(token1).balanceOf(address(this)) */\n              0x24\n              dup1\n              dup3\n              add\n              swap3\n                /* \"v2-core-master/v2-core-master/contracts/DEXV2FactoryFlat.sol\":20740:20779  IERC20(token0).balanceOf(address(this)) */\n              0x20\n              swap3\n                /* \"v2-core-master/v2-core-master/contracts/DEXV2FactoryFlat.sol\":20781:20820  IERC20(token1).balanceOf(address(this)) */\n              swap1\n              swap2\n              swap1\n              dup3\n              swap1\n              sub\n              add\n              dup2\n                /* \"v2-core-master/v2-core-master/contracts/DEXV2FactoryFlat.sol\":20788:20794  token1 */\n              dup7\n                /* \"v2-core-master/v2-core-master/contracts/DEXV2FactoryFlat.sol\":20781:20820  IERC20(token1).balanceOf(address(this)) */\n              dup1\n              extcodesize\n              iszero\n                /* \"--CODEGEN--\":5:7   */\n              dup1\n              iszero\n              tag_259\n              jumpi\n                /* \"--CODEGEN--\":30:31   */\n              0x00\n                /* \"--CODEGEN--\":27:28   */\n              dup1\n                /* \"--CODEGEN--\":20:32   */\n              revert\n                /* \"--CODEGEN--\":5:7   */\n            tag_259:\n                /* \"v2-core-master/v2-core-master/contracts/DEXV2FactoryFlat.sol\":20781:20820  IERC20(token1).balanceOf(address(this)) */\n              pop\n              gas\n              staticcall\n              iszero\n                /* \"--CODEGEN--\":8:17   */\n              dup1\n                /* \"--CODEGEN--\":5:7   */\n              iszero\n              tag_260\n              jumpi\n                /* \"--CODEGEN--\":45:61   */\n              returndatasize\n                /* \"--CODEGEN--\":42:43   */\n              0x00\n                /* \"--CODEGEN--\":39:40   */\n              dup1\n                /* \"--CODEGEN--\":24:62   */\n              returndatacopy\n                /* \"--CODEGEN--\":77:93   */\n              returndatasize\n                /* \"--CODEGEN--\":74:75   */\n              0x00\n                /* \"--CODEGEN--\":67:94   */\n              revert\n                /* \"--CODEGEN--\":5:7   */\n            tag_260:\n                /* \"v2-core-master/v2-core-master/contracts/DEXV2FactoryFlat.sol\":20781:20820  IERC20(token1).balanceOf(address(this)) */\n              pop\n              pop\n              pop\n              pop\n              mload(0x40)\n              returndatasize\n                /* \"--CODEGEN--\":13:15   */\n              0x20\n                /* \"--CODEGEN--\":8:11   */\n              dup2\n                /* \"--CODEGEN--\":5:16   */\n              lt\n                /* \"--CODEGEN--\":2:4   */\n              iszero\n              tag_261\n              jumpi\n                /* \"--CODEGEN--\":29:30   */\n              0x00\n                /* \"--CODEGEN--\":26:27   */\n              dup1\n                /* \"--CODEGEN--\":19:31   */\n              revert\n                /* \"--CODEGEN--\":2:4   */\n            tag_261:\n              pop\n                /* \"v2-core-master/v2-core-master/contracts/DEXV2FactoryFlat.sol\":20781:20820  IERC20(token1).balanceOf(address(this)) */\n              mload\n                /* \"v2-core-master/v2-core-master/contracts/DEXV2FactoryFlat.sol\":20822:20830  reserve0 */\n              sload(0x08)\n              sub(shl(0x70, 0x01), 0x01)\n              dup1\n              dup3\n              and\n              swap2\n              shl(0x70, 0x01)\n                /* \"v2-core-master/v2-core-master/contracts/DEXV2FactoryFlat.sol\":20832:20840  reserve1 */\n              swap1\n              div\n              and\n                /* \"v2-core-master/v2-core-master/contracts/DEXV2FactoryFlat.sol\":20732:20739  _update */\n              tag_156\n                /* \"v2-core-master/v2-core-master/contracts/DEXV2FactoryFlat.sol\":20732:20841  _update(IERC20(token0).balanceOf(address(this)), IERC20(token1).balanceOf(address(this)), reserve0, reserve1) */\n              jump\t// in\n            tag_255:\n                /* \"v2-core-master/v2-core-master/contracts/DEXV2FactoryFlat.sol\":12221:12222  1 */\n              0x01\n                /* \"v2-core-master/v2-core-master/contracts/DEXV2FactoryFlat.sol\":12210:12218  unlocked */\n              0x0c\n                /* \"v2-core-master/v2-core-master/contracts/DEXV2FactoryFlat.sol\":12210:12222  unlocked = 1 */\n              sstore\n                /* \"v2-core-master/v2-core-master/contracts/DEXV2FactoryFlat.sol\":20691:20849  function sync() external lock {\r... */\n              jump\t// out\n                /* \"v2-core-master/v2-core-master/contracts/DEXV2FactoryFlat.sol\":12477:12760  function _safeTransfer(address token, address to, uint value) private {\r... */\n            tag_125:\n                /* \"v2-core-master/v2-core-master/contracts/DEXV2FactoryFlat.sol\":11457:11491  bytes('transfer(address,uint256)') */\n              0x40\n              dup1\n              mload\n              dup1\n              dup3\n              add\n              dup3\n              mstore\n              0x19\n              dup2\n              mstore\n              0x7472616e7366657228616464726573732c75696e743235362900000000000000\n              0x20\n              swap2\n              dup3\n              add\n              mstore\n                /* \"v2-core-master/v2-core-master/contracts/DEXV2FactoryFlat.sol\":12605:12648  abi.encodeWithSelector(SELECTOR, to, value) */\n              dup2\n              mload\n              sub(shl(0xa0, 0x01), 0x01)\n              dup6\n              dup2\n              and\n              0x24\n              dup4\n              add\n              mstore\n              0x44\n              dup1\n              dup4\n              add\n              dup7\n              swap1\n              mstore\n              dup5\n              mload\n                /* \"--CODEGEN--\":26:47   */\n              dup1\n              dup5\n              sub\n                /* \"--CODEGEN--\":22:54   */\n              swap1\n              swap2\n              add\n                /* \"--CODEGEN--\":6:55   */\n              dup2\n              mstore\n                /* \"v2-core-master/v2-core-master/contracts/DEXV2FactoryFlat.sol\":12605:12648  abi.encodeWithSelector(SELECTOR, to, value) */\n              0x64\n              swap1\n              swap3\n              add\n              dup5\n              mstore\n                /* \"--CODEGEN--\":25:43   */\n              swap2\n              dup2\n              add\n                /* \"--CODEGEN--\":61:78   */\n              dup1\n              mload\n              sub(shl(0xe0, 0x01), 0x01)\n                /* \"--CODEGEN--\":182:197   */\n              and\n              shl(0xe0, 0xa9059cbb)\n                /* \"--CODEGEN--\":179:208   */\n              or\n                /* \"--CODEGEN--\":160:209   */\n              dup2\n              mstore\n                /* \"v2-core-master/v2-core-master/contracts/DEXV2FactoryFlat.sol\":12594:12649  token.call(abi.encodeWithSelector(SELECTOR, to, value)) */\n              swap3\n              mload\n              dup2\n              mload\n              0x00\n              swap5\n                /* \"v2-core-master/v2-core-master/contracts/DEXV2FactoryFlat.sol\":12573:12590  bytes memory data */\n              0x60\n              swap5\n                /* \"v2-core-master/v2-core-master/contracts/DEXV2FactoryFlat.sol\":12594:12604  token.call */\n              dup10\n              and\n              swap4\n                /* \"v2-core-master/v2-core-master/contracts/DEXV2FactoryFlat.sol\":12605:12648  abi.encodeWithSelector(SELECTOR, to, value) */\n              swap3\n                /* \"v2-core-master/v2-core-master/contracts/DEXV2FactoryFlat.sol\":12594:12649  token.call(abi.encodeWithSelector(SELECTOR, to, value)) */\n              swap2\n              dup3\n              swap2\n                /* \"--CODEGEN--\":25:43   */\n              swap1\n                /* \"v2-core-master/v2-core-master/contracts/DEXV2FactoryFlat.sol\":12594:12649  token.call(abi.encodeWithSelector(SELECTOR, to, value)) */\n              dup1\n              dup4\n                /* \"--CODEGEN--\":25:43   */\n              dup4\n                /* \"--CODEGEN--\":36:189   */\n            tag_263:\n                /* \"--CODEGEN--\":66:68   */\n              0x20\n                /* \"--CODEGEN--\":61:64   */\n              dup4\n                /* \"--CODEGEN--\":58:69   */\n              lt\n                /* \"--CODEGEN--\":36:189   */\n              tag_265\n              jumpi\n                /* \"--CODEGEN--\":176:186   */\n              dup1\n              mload\n                /* \"--CODEGEN--\":164:187   */\n              dup3\n              mstore\n              not(0x1f)\n                /* \"--CODEGEN--\":139:151   */\n              swap1\n              swap3\n              add\n              swap2\n                /* \"--CODEGEN--\":98:100   */\n              0x20\n                /* \"--CODEGEN--\":89:101   */\n              swap2\n              dup3\n              add\n              swap2\n                /* \"--CODEGEN--\":114:126   */\n              add\n                /* \"--CODEGEN--\":36:189   */\n              jump(tag_263)\n            tag_265:\n                /* \"--CODEGEN--\":274:275   */\n              0x01\n                /* \"--CODEGEN--\":267:270   */\n              dup4\n                /* \"--CODEGEN--\":263:265   */\n              0x20\n                /* \"--CODEGEN--\":259:271   */\n              sub\n                /* \"--CODEGEN--\":254:257   */\n              0x0100\n                /* \"--CODEGEN--\":250:272   */\n              exp\n                /* \"--CODEGEN--\":246:276   */\n              sub\n                /* \"--CODEGEN--\":315:319   */\n              dup1\n                /* \"--CODEGEN--\":311:320   */\n              not\n                /* \"--CODEGEN--\":305:308   */\n              dup3\n                /* \"--CODEGEN--\":299:309   */\n              mload\n                /* \"--CODEGEN--\":295:321   */\n              and\n                /* \"--CODEGEN--\":356:360   */\n              dup2\n                /* \"--CODEGEN--\":350:353   */\n              dup5\n                /* \"--CODEGEN--\":344:354   */\n              mload\n                /* \"--CODEGEN--\":340:361   */\n              and\n                /* \"--CODEGEN--\":389:396   */\n              dup1\n                /* \"--CODEGEN--\":380:387   */\n              dup3\n                /* \"--CODEGEN--\":377:397   */\n              or\n                /* \"--CODEGEN--\":372:375   */\n              dup6\n                /* \"--CODEGEN--\":365:398   */\n              mstore\n                /* \"--CODEGEN--\":3:402   */\n              pop\n              pop\n              pop\n                /* \"v2-core-master/v2-core-master/contracts/DEXV2FactoryFlat.sol\":12594:12649  token.call(abi.encodeWithSelector(SELECTOR, to, value)) */\n              pop\n              pop\n              pop\n              swap1\n              pop\n              add\n              swap2\n              pop\n              pop\n              0x00\n              mload(0x40)\n              dup1\n              dup4\n              sub\n              dup2\n              0x00\n              dup7\n              gas\n              call\n              swap2\n              pop\n              pop\n              returndatasize\n                /* \"--CODEGEN--\":14:15   */\n              dup1\n                /* \"--CODEGEN--\":21:22   */\n              0x00\n                /* \"--CODEGEN--\":16:47   */\n              dup2\n              eq\n              tag_267\n              jumpi\n                /* \"--CODEGEN--\":75:79   */\n              0x40\n                /* \"--CODEGEN--\":69:80   */\n              mload\n                /* \"--CODEGEN--\":64:80   */\n              swap2\n              pop\n                /* \"--CODEGEN--\":144:148   */\n              0x1f\n                /* \"--CODEGEN--\":140:149   */\n              not\n                /* \"--CODEGEN--\":133:137   */\n              0x3f\n                /* \"--CODEGEN--\":115:131   */\n              returndatasize\n                /* \"--CODEGEN--\":111:138   */\n              add\n                /* \"--CODEGEN--\":107:150   */\n              and\n                /* \"--CODEGEN--\":104:105   */\n              dup3\n                /* \"--CODEGEN--\":100:151   */\n              add\n                /* \"--CODEGEN--\":94:98   */\n              0x40\n                /* \"--CODEGEN--\":87:152   */\n              mstore\n                /* \"--CODEGEN--\":169:185   */\n              returndatasize\n                /* \"--CODEGEN--\":166:167   */\n              dup3\n                /* \"--CODEGEN--\":159:186   */\n              mstore\n                /* \"--CODEGEN--\":225:241   */\n              returndatasize\n                /* \"--CODEGEN--\":222:223   */\n              0x00\n                /* \"--CODEGEN--\":215:219   */\n              0x20\n                /* \"--CODEGEN--\":212:213   */\n              dup5\n                /* \"--CODEGEN--\":208:220   */\n              add\n                /* \"--CODEGEN--\":193:242   */\n              returndatacopy\n                /* \"--CODEGEN--\":7:249   */\n              jump(tag_266)\n                /* \"--CODEGEN--\":16:47   */\n            tag_267:\n                /* \"--CODEGEN--\":36:40   */\n              0x60\n                /* \"--CODEGEN--\":31:40   */\n              swap2\n              pop\n                /* \"--CODEGEN--\":7:249   */\n            tag_266:\n              pop\n                /* \"v2-core-master/v2-core-master/contracts/DEXV2FactoryFlat.sol\":12558:12649  (bool success, bytes memory data) = token.call(abi.encodeWithSelector(SELECTOR, to, value)) */\n              swap2\n              pop\n              swap2\n              pop\n                /* \"v2-core-master/v2-core-master/contracts/DEXV2FactoryFlat.sol\":12668:12675  success */\n              dup2\n                /* \"v2-core-master/v2-core-master/contracts/DEXV2FactoryFlat.sol\":12668:12725  success && (data.length == 0 || abi.decode(data, (bool))) */\n              dup1\n              iszero\n              tag_269\n              jumpi\n              pop\n                /* \"v2-core-master/v2-core-master/contracts/DEXV2FactoryFlat.sol\":12680:12691  data.length */\n              dup1\n              mload\n                /* \"v2-core-master/v2-core-master/contracts/DEXV2FactoryFlat.sol\":12680:12696  data.length == 0 */\n              iszero\n              dup1\n                /* \"v2-core-master/v2-core-master/contracts/DEXV2FactoryFlat.sol\":12680:12724  data.length == 0 || abi.decode(data, (bool)) */\n              tag_269\n              jumpi\n              pop\n                /* \"v2-core-master/v2-core-master/contracts/DEXV2FactoryFlat.sol\":12711:12715  data */\n              dup1\n                /* \"v2-core-master/v2-core-master/contracts/DEXV2FactoryFlat.sol\":12700:12724  abi.decode(data, (bool)) */\n              dup1\n              0x20\n              add\n              swap1\n              mload\n                /* \"--CODEGEN--\":13:15   */\n              0x20\n                /* \"--CODEGEN--\":8:11   */\n              dup2\n                /* \"--CODEGEN--\":5:16   */\n              lt\n                /* \"--CODEGEN--\":2:4   */\n              iszero\n              tag_270\n              jumpi\n                /* \"--CODEGEN--\":29:30   */\n              0x00\n                /* \"--CODEGEN--\":26:27   */\n              dup1\n                /* \"--CODEGEN--\":19:31   */\n              revert\n                /* \"--CODEGEN--\":2:4   */\n            tag_270:\n              pop\n                /* \"v2-core-master/v2-core-master/contracts/DEXV2FactoryFlat.sol\":12700:12724  abi.decode(data, (bool)) */\n              mload\n                /* \"v2-core-master/v2-core-master/contracts/DEXV2FactoryFlat.sol\":12680:12724  data.length == 0 || abi.decode(data, (bool)) */\n            tag_269:\n                /* \"v2-core-master/v2-core-master/contracts/DEXV2FactoryFlat.sol\":12660:12752  require(success && (data.length == 0 || abi.decode(data, (bool))), 'DEXV2: TRANSFER_FAILED') */\n              tag_271\n              jumpi\n              0x40\n              dup1\n              mload\n              shl(0xe5, 0x461bcd)\n              dup2\n              mstore\n              0x20\n              0x04\n              dup3\n              add\n              mstore\n              0x16\n              0x24\n              dup3\n              add\n              mstore\n              shl(0x52, 0x111156158c8e881514905394d1915497d19052531151)\n              0x44\n              dup3\n              add\n              mstore\n              swap1\n              mload\n              swap1\n              dup2\n              swap1\n              sub\n              0x64\n              add\n              swap1\n              revert\n            tag_271:\n                /* \"v2-core-master/v2-core-master/contracts/DEXV2FactoryFlat.sol\":12477:12760  function _safeTransfer(address token, address to, uint value) private {\r... */\n              pop\n              pop\n              pop\n              pop\n              pop\n              jump\t// out\n                /* \"v2-core-master/v2-core-master/contracts/DEXV2FactoryFlat.sol\":2994:3136  function mul(uint x, uint y) internal pure returns (uint z) {\r... */\n            tag_145:\n                /* \"v2-core-master/v2-core-master/contracts/DEXV2FactoryFlat.sol\":3046:3052  uint z */\n              0x00\n                /* \"v2-core-master/v2-core-master/contracts/DEXV2FactoryFlat.sol\":3073:3079  y == 0 */\n              dup2\n              iszero\n              dup1\n                /* \"v2-core-master/v2-core-master/contracts/DEXV2FactoryFlat.sol\":3073:3103  y == 0 || (z = x * y) / y == x */\n              tag_273\n              jumpi\n              pop\n              pop\n                /* \"v2-core-master/v2-core-master/contracts/DEXV2FactoryFlat.sol\":3088:3093  x * y */\n              dup1\n              dup3\n              mul\n                /* \"v2-core-master/v2-core-master/contracts/DEXV2FactoryFlat.sol\":3102:3103  x */\n              dup3\n                /* \"v2-core-master/v2-core-master/contracts/DEXV2FactoryFlat.sol\":3097:3098  y */\n              dup3\n                /* \"v2-core-master/v2-core-master/contracts/DEXV2FactoryFlat.sol\":3088:3093  x * y */\n              dup3\n                /* \"v2-core-master/v2-core-master/contracts/DEXV2FactoryFlat.sol\":3097:3098  y */\n              dup2\n                /* \"v2-core-master/v2-core-master/contracts/DEXV2FactoryFlat.sol\":3083:3098  (z = x * y) / y */\n              tag_274\n              jumpi\n              invalid\n            tag_274:\n              div\n                /* \"v2-core-master/v2-core-master/contracts/DEXV2FactoryFlat.sol\":3083:3103  (z = x * y) / y == x */\n              eq\n                /* \"v2-core-master/v2-core-master/contracts/DEXV2FactoryFlat.sol\":3073:3103  y == 0 || (z = x * y) / y == x */\n            tag_273:\n                /* \"v2-core-master/v2-core-master/contracts/DEXV2FactoryFlat.sol\":3065:3128  require(y == 0 || (z = x * y) / y == x, 'ds-math-mul-overflow') */\n              tag_158\n              jumpi\n              0x40\n              dup1\n              mload\n              shl(0xe5, 0x461bcd)\n              dup2\n              mstore\n              0x20\n              0x04\n              dup3\n              add\n              mstore\n              0x14\n              0x24\n              dup3\n              add\n              mstore\n              shl(0x60, 0x64732d6d6174682d6d756c2d6f766572666c6f77)\n              0x44\n              dup3\n              add\n              mstore\n              swap1\n              mload\n              swap1\n              dup2\n              swap1\n              sub\n              0x64\n              add\n              swap1\n              revert\n                /* \"v2-core-master/v2-core-master/contracts/DEXV2FactoryFlat.sol\":2857:2986  function sub(uint x, uint y) internal pure returns (uint z) {\r... */\n            tag_147:\n                /* \"v2-core-master/v2-core-master/contracts/DEXV2FactoryFlat.sol\":2941:2946  x - y */\n              dup1\n              dup3\n              sub\n                /* \"v2-core-master/v2-core-master/contracts/DEXV2FactoryFlat.sol\":2936:2952  (z = x - y) <= x */\n              dup3\n              dup2\n              gt\n              iszero\n                /* \"v2-core-master/v2-core-master/contracts/DEXV2FactoryFlat.sol\":2928:2978  require((z = x - y) <= x, 'ds-math-sub-underflow') */\n              tag_158\n              jumpi\n              0x40\n              dup1\n              mload\n              shl(0xe5, 0x461bcd)\n              dup2\n              mstore\n              0x20\n              0x04\n              dup3\n              add\n              mstore\n              0x15\n              0x24\n              dup3\n              add\n              mstore\n              shl(0x58, 0x64732d6d6174682d7375622d756e646572666c6f77)\n              0x44\n              dup3\n              add\n              mstore\n              swap1\n              mload\n              swap1\n              dup2\n              swap1\n              sub\n              0x64\n              add\n              swap1\n              revert\n                /* \"v2-core-master/v2-core-master/contracts/DEXV2FactoryFlat.sol\":13585:14441  function _update(uint balance0, uint balance1, uint112 _reserve0, uint112 _reserve1) private {\r... */\n            tag_156:\n              sub(shl(0x70, 0x01), 0x01)\n                /* \"v2-core-master/v2-core-master/contracts/DEXV2FactoryFlat.sol\":13697:13720  balance0 <= uint112(-1) */\n              dup5\n              gt\n              dup1\n              iszero\n              swap1\n                /* \"v2-core-master/v2-core-master/contracts/DEXV2FactoryFlat.sol\":13697:13747  balance0 <= uint112(-1) && balance1 <= uint112(-1) */\n              tag_279\n              jumpi\n              pop\n              sub(shl(0x70, 0x01), 0x01)\n                /* \"v2-core-master/v2-core-master/contracts/DEXV2FactoryFlat.sol\":13724:13747  balance1 <= uint112(-1) */\n              dup4\n              gt\n              iszero\n                /* \"v2-core-master/v2-core-master/contracts/DEXV2FactoryFlat.sol\":13697:13747  balance0 <= uint112(-1) && balance1 <= uint112(-1) */\n            tag_279:\n                /* \"v2-core-master/v2-core-master/contracts/DEXV2FactoryFlat.sol\":13689:13767  require(balance0 <= uint112(-1) && balance1 <= uint112(-1), 'DEXV2: OVERFLOW') */\n              tag_280\n              jumpi\n              0x40\n              dup1\n              mload\n              shl(0xe5, 0x461bcd)\n              dup2\n              mstore\n              0x20\n              0x04\n              dup3\n              add\n              mstore\n              0x0f\n              0x24\n              dup3\n              add\n              mstore\n              shl(0x88, 0x44455856323a204f564552464c4f57)\n              0x44\n              dup3\n              add\n              mstore\n              swap1\n              mload\n              swap1\n              dup2\n              swap1\n              sub\n              0x64\n              add\n              swap1\n              revert\n            tag_280:\n                /* \"v2-core-master/v2-core-master/contracts/DEXV2FactoryFlat.sol\":13882:13900  blockTimestampLast */\n              sload(0x08)\n                /* \"v2-core-master/v2-core-master/contracts/DEXV2FactoryFlat.sol\":13809:13832  block.timestamp % 2**32 */\n              0xffffffff\n                /* \"v2-core-master/v2-core-master/contracts/DEXV2FactoryFlat.sol\":13809:13824  block.timestamp */\n              timestamp\n                /* \"v2-core-master/v2-core-master/contracts/DEXV2FactoryFlat.sol\":13809:13832  block.timestamp % 2**32 */\n              dup2\n              and\n              swap2\n              shl(0xe0, 0x01)\n                /* \"v2-core-master/v2-core-master/contracts/DEXV2FactoryFlat.sol\":13882:13900  blockTimestampLast */\n              swap1\n              div\n              dup2\n              and\n                /* \"v2-core-master/v2-core-master/contracts/DEXV2FactoryFlat.sol\":13865:13900  blockTimestamp - blockTimestampLast */\n              dup3\n              sub\n              swap1\n                /* \"v2-core-master/v2-core-master/contracts/DEXV2FactoryFlat.sol\":13938:13953  timeElapsed > 0 */\n              dup2\n              and\n              iszero\n              dup1\n              iszero\n              swap1\n                /* \"v2-core-master/v2-core-master/contracts/DEXV2FactoryFlat.sol\":13938:13971  timeElapsed > 0 && _reserve0 != 0 */\n              tag_282\n              jumpi\n              pop\n              sub(shl(0x70, 0x01), 0x01)\n                /* \"v2-core-master/v2-core-master/contracts/DEXV2FactoryFlat.sol\":13957:13971  _reserve0 != 0 */\n              dup5\n              and\n              iszero\n              iszero\n                /* \"v2-core-master/v2-core-master/contracts/DEXV2FactoryFlat.sol\":13938:13971  timeElapsed > 0 && _reserve0 != 0 */\n            tag_282:\n                /* \"v2-core-master/v2-core-master/contracts/DEXV2FactoryFlat.sol\":13938:13989  timeElapsed > 0 && _reserve0 != 0 && _reserve1 != 0 */\n              dup1\n              iszero\n              tag_283\n              jumpi\n              pop\n              sub(shl(0x70, 0x01), 0x01)\n                /* \"v2-core-master/v2-core-master/contracts/DEXV2FactoryFlat.sol\":13975:13989  _reserve1 != 0 */\n              dup4\n              and\n              iszero\n              iszero\n                /* \"v2-core-master/v2-core-master/contracts/DEXV2FactoryFlat.sol\":13938:13989  timeElapsed > 0 && _reserve0 != 0 && _reserve1 != 0 */\n            tag_283:\n                /* \"v2-core-master/v2-core-master/contracts/DEXV2FactoryFlat.sol\":13934:14270  if (timeElapsed > 0 && _reserve0 != 0 && _reserve1 != 0) {\r... */\n              iszero\n              tag_284\n              jumpi\n                /* \"v2-core-master/v2-core-master/contracts/DEXV2FactoryFlat.sol\":14144:14155  timeElapsed */\n              dup1\n                /* \"v2-core-master/v2-core-master/contracts/DEXV2FactoryFlat.sol\":14091:14155  uint(UQ112x112.encode(_reserve1).uqdiv(_reserve0)) * timeElapsed */\n              0xffffffff\n              and\n                /* \"v2-core-master/v2-core-master/contracts/DEXV2FactoryFlat.sol\":14096:14140  UQ112x112.encode(_reserve1).uqdiv(_reserve0) */\n              tag_285\n                /* \"v2-core-master/v2-core-master/contracts/DEXV2FactoryFlat.sol\":14130:14139  _reserve0 */\n              dup6\n                /* \"v2-core-master/v2-core-master/contracts/DEXV2FactoryFlat.sol\":14096:14123  UQ112x112.encode(_reserve1) */\n              tag_286\n                /* \"v2-core-master/v2-core-master/contracts/DEXV2FactoryFlat.sol\":14113:14122  _reserve1 */\n              dup7\n                /* \"v2-core-master/v2-core-master/contracts/DEXV2FactoryFlat.sol\":14096:14112  UQ112x112.encode */\n              tag_287\n                /* \"v2-core-master/v2-core-master/contracts/DEXV2FactoryFlat.sol\":14096:14123  UQ112x112.encode(_reserve1) */\n              jump\t// in\n            tag_286:\n              sub(shl(0xe0, 0x01), 0x01)\n                /* \"v2-core-master/v2-core-master/contracts/DEXV2FactoryFlat.sol\":14096:14129  UQ112x112.encode(_reserve1).uqdiv */\n              and\n              swap1\n              tag_288\n                /* \"v2-core-master/v2-core-master/contracts/DEXV2FactoryFlat.sol\":14096:14140  UQ112x112.encode(_reserve1).uqdiv(_reserve0) */\n              jump\t// in\n            tag_285:\n                /* \"v2-core-master/v2-core-master/contracts/DEXV2FactoryFlat.sol\":14067:14087  price0CumulativeLast */\n              0x09\n                /* \"v2-core-master/v2-core-master/contracts/DEXV2FactoryFlat.sol\":14067:14155  price0CumulativeLast += uint(UQ112x112.encode(_reserve1).uqdiv(_reserve0)) * timeElapsed */\n              dup1\n              sload\n              sub(shl(0xe0, 0x01), 0x01)\n                /* \"v2-core-master/v2-core-master/contracts/DEXV2FactoryFlat.sol\":14091:14141  uint(UQ112x112.encode(_reserve1).uqdiv(_reserve0)) */\n              swap3\n              swap1\n              swap3\n              and\n                /* \"v2-core-master/v2-core-master/contracts/DEXV2FactoryFlat.sol\":14091:14155  uint(UQ112x112.encode(_reserve1).uqdiv(_reserve0)) * timeElapsed */\n              swap3\n              swap1\n              swap3\n              mul\n                /* \"v2-core-master/v2-core-master/contracts/DEXV2FactoryFlat.sol\":14067:14155  price0CumulativeLast += uint(UQ112x112.encode(_reserve1).uqdiv(_reserve0)) * timeElapsed */\n              add\n              swap1\n              sstore\n                /* \"v2-core-master/v2-core-master/contracts/DEXV2FactoryFlat.sol\":14194:14258  uint(UQ112x112.encode(_reserve0).uqdiv(_reserve1)) * timeElapsed */\n              0xffffffff\n              dup2\n              and\n                /* \"v2-core-master/v2-core-master/contracts/DEXV2FactoryFlat.sol\":14199:14243  UQ112x112.encode(_reserve0).uqdiv(_reserve1) */\n              tag_289\n                /* \"v2-core-master/v2-core-master/contracts/DEXV2FactoryFlat.sol\":14233:14242  _reserve1 */\n              dup5\n                /* \"v2-core-master/v2-core-master/contracts/DEXV2FactoryFlat.sol\":14199:14226  UQ112x112.encode(_reserve0) */\n              tag_286\n                /* \"v2-core-master/v2-core-master/contracts/DEXV2FactoryFlat.sol\":14216:14225  _reserve0 */\n              dup8\n                /* \"v2-core-master/v2-core-master/contracts/DEXV2FactoryFlat.sol\":14199:14215  UQ112x112.encode */\n              tag_287\n                /* \"v2-core-master/v2-core-master/contracts/DEXV2FactoryFlat.sol\":14199:14226  UQ112x112.encode(_reserve0) */\n              jump\t// in\n                /* \"v2-core-master/v2-core-master/contracts/DEXV2FactoryFlat.sol\":14199:14243  UQ112x112.encode(_reserve0).uqdiv(_reserve1) */\n            tag_289:\n                /* \"v2-core-master/v2-core-master/contracts/DEXV2FactoryFlat.sol\":14170:14190  price1CumulativeLast */\n              0x0a\n                /* \"v2-core-master/v2-core-master/contracts/DEXV2FactoryFlat.sol\":14170:14258  price1CumulativeLast += uint(UQ112x112.encode(_reserve0).uqdiv(_reserve1)) * timeElapsed */\n              dup1\n              sload\n              sub(shl(0xe0, 0x01), 0x01)\n                /* \"v2-core-master/v2-core-master/contracts/DEXV2FactoryFlat.sol\":14194:14244  uint(UQ112x112.encode(_reserve0).uqdiv(_reserve1)) */\n              swap3\n              swap1\n              swap3\n              and\n                /* \"v2-core-master/v2-core-master/contracts/DEXV2FactoryFlat.sol\":14194:14258  uint(UQ112x112.encode(_reserve0).uqdiv(_reserve1)) * timeElapsed */\n              swap3\n              swap1\n              swap3\n              mul\n                /* \"v2-core-master/v2-core-master/contracts/DEXV2FactoryFlat.sol\":14170:14258  price1CumulativeLast += uint(UQ112x112.encode(_reserve0).uqdiv(_reserve1)) * timeElapsed */\n              add\n              swap1\n              sstore\n                /* \"v2-core-master/v2-core-master/contracts/DEXV2FactoryFlat.sol\":13934:14270  if (timeElapsed > 0 && _reserve0 != 0 && _reserve1 != 0) {\r... */\n            tag_284:\n                /* \"v2-core-master/v2-core-master/contracts/DEXV2FactoryFlat.sol\":14280:14288  reserve0 */\n              0x08\n                /* \"v2-core-master/v2-core-master/contracts/DEXV2FactoryFlat.sol\":14280:14308  reserve0 = uint112(balance0) */\n              dup1\n              sload\n              not(0xffffffffffffffffffffffffffff)\n              and\n              sub(shl(0x70, 0x01), 0x01)\n              dup9\n              dup2\n              and\n              swap2\n              swap1\n              swap2\n              or\n              not(shl(0x70, 0xffffffffffffffffffffffffffff))\n                /* \"v2-core-master/v2-core-master/contracts/DEXV2FactoryFlat.sol\":14319:14347  reserve1 = uint112(balance1) */\n              and\n              shl(0x70, 0x01)\n              dup9\n              dup4\n              and\n              dup2\n              mul\n              swap2\n              swap1\n              swap2\n              or\n              sub(shl(0xe0, 0x01), 0x01)\n                /* \"v2-core-master/v2-core-master/contracts/DEXV2FactoryFlat.sol\":14358:14393  blockTimestampLast = blockTimestamp */\n              and\n              shl(0xe0, 0x01)\n              0xffffffff\n              dup8\n              and\n              mul\n              or\n              swap3\n              dup4\n              swap1\n              sstore\n                /* \"v2-core-master/v2-core-master/contracts/DEXV2FactoryFlat.sol\":14409:14433  Sync(reserve0, reserve1) */\n              0x40\n              dup1\n              mload\n                /* \"v2-core-master/v2-core-master/contracts/DEXV2FactoryFlat.sol\":14414:14422  reserve0 */\n              dup5\n              dup5\n              and\n                /* \"v2-core-master/v2-core-master/contracts/DEXV2FactoryFlat.sol\":14409:14433  Sync(reserve0, reserve1) */\n              dup2\n              mstore\n                /* \"v2-core-master/v2-core-master/contracts/DEXV2FactoryFlat.sol\":14424:14432  reserve1 */\n              swap2\n              swap1\n              swap4\n              div\n              swap1\n              swap2\n              and\n                /* \"v2-core-master/v2-core-master/contracts/DEXV2FactoryFlat.sol\":14409:14433  Sync(reserve0, reserve1) */\n              0x20\n              dup3\n              add\n              mstore\n              dup2\n              mload\n              0x1c411e9a96e071241c2f21f7726b17ae89e3cab4c78be50e062b03a9fffbbad1\n              swap3\n              swap2\n              dup2\n              swap1\n              sub\n              swap1\n              swap2\n              add\n              swap1\n              log1\n                /* \"v2-core-master/v2-core-master/contracts/DEXV2FactoryFlat.sol\":13585:14441  function _update(uint balance0, uint balance1, uint112 _reserve0, uint112 _reserve1) private {\r... */\n              pop\n              pop\n              pop\n              pop\n              pop\n              pop\n              jump\t// out\n                /* \"v2-core-master/v2-core-master/contracts/DEXV2FactoryFlat.sol\":6172:6341  function _approve(address owner, address spender, uint value) private {\r... */\n            tag_160:\n              sub(shl(0xa0, 0x01), 0x01)\n                /* \"v2-core-master/v2-core-master/contracts/DEXV2FactoryFlat.sol\":6253:6269  allowance[owner] */\n              dup4\n              dup2\n              and\n              0x00\n              dup2\n              dup2\n              mstore\n                /* \"v2-core-master/v2-core-master/contracts/DEXV2FactoryFlat.sol\":6253:6262  allowance */\n              0x02\n                /* \"v2-core-master/v2-core-master/contracts/DEXV2FactoryFlat.sol\":6253:6269  allowance[owner] */\n              0x20\n              swap1\n              dup2\n              mstore\n              0x40\n              dup1\n              dup4\n              keccak256\n                /* \"v2-core-master/v2-core-master/contracts/DEXV2FactoryFlat.sol\":6253:6278  allowance[owner][spender] */\n              swap5\n              dup8\n              and\n              dup1\n              dup5\n              mstore\n              swap5\n              dup3\n              mstore\n              swap2\n              dup3\n              swap1\n              keccak256\n                /* \"v2-core-master/v2-core-master/contracts/DEXV2FactoryFlat.sol\":6253:6286  allowance[owner][spender] = value */\n              dup6\n              swap1\n              sstore\n                /* \"v2-core-master/v2-core-master/contracts/DEXV2FactoryFlat.sol\":6302:6333  Approval(owner, spender, value) */\n              dup2\n              mload\n              dup6\n              dup2\n              mstore\n              swap2\n              mload\n              0x8c5be1e5ebec7d5bd14f71427d1e84f3dd0314c0f7b2291e5b200ac8c7c3b925\n              swap3\n              dup2\n              swap1\n              sub\n              swap1\n              swap2\n              add\n              swap1\n              log3\n                /* \"v2-core-master/v2-core-master/contracts/DEXV2FactoryFlat.sol\":6172:6341  function _approve(address owner, address spender, uint value) private {\r... */\n              pop\n              pop\n              pop\n              jump\t// out\n                /* \"v2-core-master/v2-core-master/contracts/DEXV2FactoryFlat.sol\":6349:6569  function _transfer(address from, address to, uint value) private {\r... */\n            tag_165:\n              sub(shl(0xa0, 0x01), 0x01)\n                /* \"v2-core-master/v2-core-master/contracts/DEXV2FactoryFlat.sol\":6443:6458  balanceOf[from] */\n              dup4\n              and\n              0x00\n              swap1\n              dup2\n              mstore\n              mstore(0x20, 0x01)\n              0x40\n              swap1\n              keccak256\n              sload\n                /* \"v2-core-master/v2-core-master/contracts/DEXV2FactoryFlat.sol\":6443:6469  balanceOf[from].sub(value) */\n              tag_293\n              swap1\n                /* \"v2-core-master/v2-core-master/contracts/DEXV2FactoryFlat.sol\":6463:6468  value */\n              dup3\n                /* \"v2-core-master/v2-core-master/contracts/DEXV2FactoryFlat.sol\":6443:6462  balanceOf[from].sub */\n              tag_147\n                /* \"v2-core-master/v2-core-master/contracts/DEXV2FactoryFlat.sol\":6443:6469  balanceOf[from].sub(value) */\n              jump\t// in\n            tag_293:\n              sub(shl(0xa0, 0x01), 0x01)\n                /* \"v2-core-master/v2-core-master/contracts/DEXV2FactoryFlat.sol\":6425:6440  balanceOf[from] */\n              dup5\n              dup2\n              and\n              0x00\n              swap1\n              dup2\n              mstore\n              mstore(0x20, 0x01)\n              0x40\n              dup1\n              dup3\n              keccak256\n                /* \"v2-core-master/v2-core-master/contracts/DEXV2FactoryFlat.sol\":6425:6469  balanceOf[from] = balanceOf[from].sub(value) */\n              swap4\n              swap1\n              swap4\n              sstore\n                /* \"v2-core-master/v2-core-master/contracts/DEXV2FactoryFlat.sol\":6496:6509  balanceOf[to] */\n              swap1\n              dup5\n              and\n              dup2\n              mstore\n              keccak256\n              sload\n                /* \"v2-core-master/v2-core-master/contracts/DEXV2FactoryFlat.sol\":6496:6520  balanceOf[to].add(value) */\n              tag_294\n              swap1\n                /* \"v2-core-master/v2-core-master/contracts/DEXV2FactoryFlat.sol\":6514:6519  value */\n              dup3\n                /* \"v2-core-master/v2-core-master/contracts/DEXV2FactoryFlat.sol\":6496:6513  balanceOf[to].add */\n              tag_295\n                /* \"v2-core-master/v2-core-master/contracts/DEXV2FactoryFlat.sol\":6496:6520  balanceOf[to].add(value) */\n              jump\t// in\n            tag_294:\n              sub(shl(0xa0, 0x01), 0x01)\n                /* \"v2-core-master/v2-core-master/contracts/DEXV2FactoryFlat.sol\":6480:6493  balanceOf[to] */\n              dup4\n              dup2\n              and\n              0x00\n              dup2\n              dup2\n              mstore\n              0x01\n              0x20\n              swap1\n              dup2\n              mstore\n              0x40\n              swap2\n              dup3\n              swap1\n              keccak256\n                /* \"v2-core-master/v2-core-master/contracts/DEXV2FactoryFlat.sol\":6480:6520  balanceOf[to] = balanceOf[to].add(value) */\n              swap5\n              swap1\n              swap5\n              sstore\n                /* \"v2-core-master/v2-core-master/contracts/DEXV2FactoryFlat.sol\":6536:6561  Transfer(from, to, value) */\n              dup1\n              mload\n              dup6\n              dup2\n              mstore\n              swap1\n              mload\n                /* \"v2-core-master/v2-core-master/contracts/DEXV2FactoryFlat.sol\":6480:6493  balanceOf[to] */\n              swap2\n              swap4\n                /* \"v2-core-master/v2-core-master/contracts/DEXV2FactoryFlat.sol\":6536:6561  Transfer(from, to, value) */\n              swap3\n              dup8\n              and\n              swap3\n              0xddf252ad1be2c89b69c2b068fc378daa952ba7f163c4a11628f55a4df523b3ef\n              swap3\n              swap2\n              dup3\n              swap1\n              sub\n              add\n              swap1\n              log3\n                /* \"v2-core-master/v2-core-master/contracts/DEXV2FactoryFlat.sol\":6349:6569  function _transfer(address from, address to, uint value) private {\r... */\n              pop\n              pop\n              pop\n              jump\t// out\n                /* \"v2-core-master/v2-core-master/contracts/DEXV2FactoryFlat.sol\":14531:15364  function _mintFee(uint112 _reserve0, uint112 _reserve1) private returns (bool feeOn) {\r... */\n            tag_181:\n                /* \"v2-core-master/v2-core-master/contracts/DEXV2FactoryFlat.sol\":14657:14664  factory */\n              sload(0x05)\n                /* \"v2-core-master/v2-core-master/contracts/DEXV2FactoryFlat.sol\":14643:14673  IDEXV2Factory(factory).feeTo() */\n              0x40\n              dup1\n              mload\n              shl(0xe3, 0x2fcfcb)\n              dup2\n              mstore\n              swap1\n              mload\n                /* \"v2-core-master/v2-core-master/contracts/DEXV2FactoryFlat.sol\":14604:14614  bool feeOn */\n              0x00\n              swap3\n              dup4\n              swap3\n              sub(shl(0xa0, 0x01), 0x01)\n                /* \"v2-core-master/v2-core-master/contracts/DEXV2FactoryFlat.sol\":14657:14664  factory */\n              swap1\n              swap2\n              and\n              swap2\n                /* \"v2-core-master/v2-core-master/contracts/DEXV2FactoryFlat.sol\":14643:14671  IDEXV2Factory(factory).feeTo */\n              0x017e7e58\n              swap2\n                /* \"v2-core-master/v2-core-master/contracts/DEXV2FactoryFlat.sol\":14643:14673  IDEXV2Factory(factory).feeTo() */\n              0x04\n              dup1\n              dup3\n              add\n              swap3\n              0x20\n              swap3\n              swap1\n              swap2\n              swap1\n              dup3\n              swap1\n              sub\n              add\n              dup2\n                /* \"v2-core-master/v2-core-master/contracts/DEXV2FactoryFlat.sol\":14657:14664  factory */\n              dup7\n                /* \"v2-core-master/v2-core-master/contracts/DEXV2FactoryFlat.sol\":14643:14673  IDEXV2Factory(factory).feeTo() */\n              dup1\n              extcodesize\n              iszero\n                /* \"--CODEGEN--\":5:7   */\n              dup1\n              iszero\n              tag_297\n              jumpi\n                /* \"--CODEGEN--\":30:31   */\n              0x00\n                /* \"--CODEGEN--\":27:28   */\n              dup1\n                /* \"--CODEGEN--\":20:32   */\n              revert\n                /* \"--CODEGEN--\":5:7   */\n            tag_297:\n                /* \"v2-core-master/v2-core-master/contracts/DEXV2FactoryFlat.sol\":14643:14673  IDEXV2Factory(factory).feeTo() */\n              pop\n              gas\n              staticcall\n              iszero\n                /* \"--CODEGEN--\":8:17   */\n              dup1\n                /* \"--CODEGEN--\":5:7   */\n              iszero\n              tag_298\n              jumpi\n                /* \"--CODEGEN--\":45:61   */\n              returndatasize\n                /* \"--CODEGEN--\":42:43   */\n              0x00\n                /* \"--CODEGEN--\":39:40   */\n              dup1\n                /* \"--CODEGEN--\":24:62   */\n              returndatacopy\n                /* \"--CODEGEN--\":77:93   */\n              returndatasize\n                /* \"--CODEGEN--\":74:75   */\n              0x00\n                /* \"--CODEGEN--\":67:94   */\n              revert\n                /* \"--CODEGEN--\":5:7   */\n            tag_298:\n                /* \"v2-core-master/v2-core-master/contracts/DEXV2FactoryFlat.sol\":14643:14673  IDEXV2Factory(factory).feeTo() */\n              pop\n              pop\n              pop\n              pop\n              mload(0x40)\n              returndatasize\n                /* \"--CODEGEN--\":13:15   */\n              0x20\n                /* \"--CODEGEN--\":8:11   */\n              dup2\n                /* \"--CODEGEN--\":5:16   */\n              lt\n                /* \"--CODEGEN--\":2:4   */\n              iszero\n              tag_299\n              jumpi\n                /* \"--CODEGEN--\":29:30   */\n              0x00\n                /* \"--CODEGEN--\":26:27   */\n              dup1\n                /* \"--CODEGEN--\":19:31   */\n              revert\n                /* \"--CODEGEN--\":2:4   */\n            tag_299:\n              pop\n                /* \"v2-core-master/v2-core-master/contracts/DEXV2FactoryFlat.sol\":14643:14673  IDEXV2Factory(factory).feeTo() */\n              mload\n                /* \"v2-core-master/v2-core-master/contracts/DEXV2FactoryFlat.sol\":14736:14741  kLast */\n              sload(0x0b)\n              sub(shl(0xa0, 0x01), 0x01)\n                /* \"v2-core-master/v2-core-master/contracts/DEXV2FactoryFlat.sol\":14692:14711  feeTo != address(0) */\n              dup3\n              and\n              iszero\n              dup1\n              iszero\n              swap5\n              pop\n                /* \"v2-core-master/v2-core-master/contracts/DEXV2FactoryFlat.sol\":14643:14673  IDEXV2Factory(factory).feeTo() */\n              swap2\n              swap3\n              pop\n                /* \"v2-core-master/v2-core-master/contracts/DEXV2FactoryFlat.sol\":14736:14741  kLast */\n              swap1\n                /* \"v2-core-master/v2-core-master/contracts/DEXV2FactoryFlat.sol\":14767:15357  if (feeOn) {\r... */\n              tag_300\n              jumpi\n                /* \"v2-core-master/v2-core-master/contracts/DEXV2FactoryFlat.sol\":14797:14808  _kLast != 0 */\n              dup1\n              iszero\n                /* \"v2-core-master/v2-core-master/contracts/DEXV2FactoryFlat.sol\":14793:15287  if (_kLast != 0) {\r... */\n              tag_301\n              jumpi\n                /* \"v2-core-master/v2-core-master/contracts/DEXV2FactoryFlat.sol\":14829:14839  uint rootK */\n              0x00\n                /* \"v2-core-master/v2-core-master/contracts/DEXV2FactoryFlat.sol\":14842:14883  Math.sqrt(uint(_reserve0).mul(_reserve1)) */\n              tag_302\n                /* \"v2-core-master/v2-core-master/contracts/DEXV2FactoryFlat.sol\":14852:14882  uint(_reserve0).mul(_reserve1) */\n              tag_185\n              sub(shl(0x70, 0x01), 0x01)\n                /* \"v2-core-master/v2-core-master/contracts/DEXV2FactoryFlat.sol\":14852:14867  uint(_reserve0) */\n              dup9\n              dup2\n              and\n              swap1\n                /* \"v2-core-master/v2-core-master/contracts/DEXV2FactoryFlat.sol\":14852:14882  uint(_reserve0).mul(_reserve1) */\n              dup9\n              and\n                /* \"v2-core-master/v2-core-master/contracts/DEXV2FactoryFlat.sol\":14852:14871  uint(_reserve0).mul */\n              tag_145\n                /* \"v2-core-master/v2-core-master/contracts/DEXV2FactoryFlat.sol\":14852:14882  uint(_reserve0).mul(_reserve1) */\n              jump\t// in\n                /* \"v2-core-master/v2-core-master/contracts/DEXV2FactoryFlat.sol\":14842:14883  Math.sqrt(uint(_reserve0).mul(_reserve1)) */\n            tag_302:\n                /* \"v2-core-master/v2-core-master/contracts/DEXV2FactoryFlat.sol\":14829:14883  uint rootK = Math.sqrt(uint(_reserve0).mul(_reserve1)) */\n              swap1\n              pop\n                /* \"v2-core-master/v2-core-master/contracts/DEXV2FactoryFlat.sol\":14902:14916  uint rootKLast */\n              0x00\n                /* \"v2-core-master/v2-core-master/contracts/DEXV2FactoryFlat.sol\":14919:14936  Math.sqrt(_kLast) */\n              tag_304\n                /* \"v2-core-master/v2-core-master/contracts/DEXV2FactoryFlat.sol\":14929:14935  _kLast */\n              dup4\n                /* \"v2-core-master/v2-core-master/contracts/DEXV2FactoryFlat.sol\":14919:14928  Math.sqrt */\n              tag_186\n                /* \"v2-core-master/v2-core-master/contracts/DEXV2FactoryFlat.sol\":14919:14936  Math.sqrt(_kLast) */\n              jump\t// in\n            tag_304:\n                /* \"v2-core-master/v2-core-master/contracts/DEXV2FactoryFlat.sol\":14902:14936  uint rootKLast = Math.sqrt(_kLast) */\n              swap1\n              pop\n                /* \"v2-core-master/v2-core-master/contracts/DEXV2FactoryFlat.sol\":14967:14976  rootKLast */\n              dup1\n                /* \"v2-core-master/v2-core-master/contracts/DEXV2FactoryFlat.sol\":14959:14964  rootK */\n              dup3\n                /* \"v2-core-master/v2-core-master/contracts/DEXV2FactoryFlat.sol\":14959:14976  rootK > rootKLast */\n              gt\n                /* \"v2-core-master/v2-core-master/contracts/DEXV2FactoryFlat.sol\":14955:15272  if (rootK > rootKLast) {\r... */\n              iszero\n              tag_305\n              jumpi\n                /* \"v2-core-master/v2-core-master/contracts/DEXV2FactoryFlat.sol\":15001:15015  uint numerator */\n              0x00\n                /* \"v2-core-master/v2-core-master/contracts/DEXV2FactoryFlat.sol\":15018:15055  totalSupply.mul(rootK.sub(rootKLast)) */\n              tag_306\n                /* \"v2-core-master/v2-core-master/contracts/DEXV2FactoryFlat.sol\":15034:15054  rootK.sub(rootKLast) */\n              tag_307\n                /* \"v2-core-master/v2-core-master/contracts/DEXV2FactoryFlat.sol\":15034:15039  rootK */\n              dup5\n                /* \"v2-core-master/v2-core-master/contracts/DEXV2FactoryFlat.sol\":15044:15053  rootKLast */\n              dup5\n                /* \"v2-core-master/v2-core-master/contracts/DEXV2FactoryFlat.sol\":15034:15054  rootK.sub(rootKLast) */\n              0xffffffff\n                /* \"v2-core-master/v2-core-master/contracts/DEXV2FactoryFlat.sol\":15034:15043  rootK.sub */\n              tag_147\n                /* \"v2-core-master/v2-core-master/contracts/DEXV2FactoryFlat.sol\":15034:15054  rootK.sub(rootKLast) */\n              and\n              jump\t// in\n            tag_307:\n                /* \"v2-core-master/v2-core-master/contracts/DEXV2FactoryFlat.sol\":15018:15029  totalSupply */\n              sload(0x00)\n              swap1\n                /* \"v2-core-master/v2-core-master/contracts/DEXV2FactoryFlat.sol\":15018:15055  totalSupply.mul(rootK.sub(rootKLast)) */\n              0xffffffff\n                /* \"v2-core-master/v2-core-master/contracts/DEXV2FactoryFlat.sol\":15018:15033  totalSupply.mul */\n              tag_145\n                /* \"v2-core-master/v2-core-master/contracts/DEXV2FactoryFlat.sol\":15018:15055  totalSupply.mul(rootK.sub(rootKLast)) */\n              and\n              jump\t// in\n            tag_306:\n                /* \"v2-core-master/v2-core-master/contracts/DEXV2FactoryFlat.sol\":15001:15055  uint numerator = totalSupply.mul(rootK.sub(rootKLast)) */\n              swap1\n              pop\n                /* \"v2-core-master/v2-core-master/contracts/DEXV2FactoryFlat.sol\":15078:15094  uint denominator */\n              0x00\n                /* \"v2-core-master/v2-core-master/contracts/DEXV2FactoryFlat.sol\":15097:15124  rootK.mul(5).add(rootKLast) */\n              tag_308\n                /* \"v2-core-master/v2-core-master/contracts/DEXV2FactoryFlat.sol\":15114:15123  rootKLast */\n              dup4\n                /* \"v2-core-master/v2-core-master/contracts/DEXV2FactoryFlat.sol\":15097:15109  rootK.mul(5) */\n              tag_309\n                /* \"v2-core-master/v2-core-master/contracts/DEXV2FactoryFlat.sol\":15097:15102  rootK */\n              dup7\n                /* \"v2-core-master/v2-core-master/contracts/DEXV2FactoryFlat.sol\":15107:15108  5 */\n              0x05\n                /* \"v2-core-master/v2-core-master/contracts/DEXV2FactoryFlat.sol\":15097:15109  rootK.mul(5) */\n              0xffffffff\n                /* \"v2-core-master/v2-core-master/contracts/DEXV2FactoryFlat.sol\":15097:15106  rootK.mul */\n              tag_145\n                /* \"v2-core-master/v2-core-master/contracts/DEXV2FactoryFlat.sol\":15097:15109  rootK.mul(5) */\n              and\n              jump\t// in\n            tag_309:\n                /* \"v2-core-master/v2-core-master/contracts/DEXV2FactoryFlat.sol\":15097:15113  rootK.mul(5).add */\n              swap1\n                /* \"v2-core-master/v2-core-master/contracts/DEXV2FactoryFlat.sol\":15097:15124  rootK.mul(5).add(rootKLast) */\n              0xffffffff\n                /* \"v2-core-master/v2-core-master/contracts/DEXV2FactoryFlat.sol\":15097:15113  rootK.mul(5).add */\n              tag_295\n                /* \"v2-core-master/v2-core-master/contracts/DEXV2FactoryFlat.sol\":15097:15124  rootK.mul(5).add(rootKLast) */\n              and\n              jump\t// in\n            tag_308:\n                /* \"v2-core-master/v2-core-master/contracts/DEXV2FactoryFlat.sol\":15078:15124  uint denominator = rootK.mul(5).add(rootKLast) */\n              swap1\n              pop\n                /* \"v2-core-master/v2-core-master/contracts/DEXV2FactoryFlat.sol\":15147:15161  uint liquidity */\n              0x00\n                /* \"v2-core-master/v2-core-master/contracts/DEXV2FactoryFlat.sol\":15176:15187  denominator */\n              dup2\n                /* \"v2-core-master/v2-core-master/contracts/DEXV2FactoryFlat.sol\":15164:15173  numerator */\n              dup4\n                /* \"v2-core-master/v2-core-master/contracts/DEXV2FactoryFlat.sol\":15164:15187  numerator / denominator */\n              dup2\n              tag_310\n              jumpi\n              invalid\n            tag_310:\n              div\n              swap1\n              pop\n                /* \"v2-core-master/v2-core-master/contracts/DEXV2FactoryFlat.sol\":15214:15227  liquidity > 0 */\n              dup1\n              iszero\n                /* \"v2-core-master/v2-core-master/contracts/DEXV2FactoryFlat.sol\":15210:15252  if (liquidity > 0) _mint(feeTo, liquidity) */\n              tag_312\n              jumpi\n                /* \"v2-core-master/v2-core-master/contracts/DEXV2FactoryFlat.sol\":15229:15252  _mint(feeTo, liquidity) */\n              tag_312\n                /* \"v2-core-master/v2-core-master/contracts/DEXV2FactoryFlat.sol\":15235:15240  feeTo */\n              dup8\n                /* \"v2-core-master/v2-core-master/contracts/DEXV2FactoryFlat.sol\":15242:15251  liquidity */\n              dup3\n                /* \"v2-core-master/v2-core-master/contracts/DEXV2FactoryFlat.sol\":15229:15234  _mint */\n              tag_188\n                /* \"v2-core-master/v2-core-master/contracts/DEXV2FactoryFlat.sol\":15229:15252  _mint(feeTo, liquidity) */\n              jump\t// in\n            tag_312:\n                /* \"v2-core-master/v2-core-master/contracts/DEXV2FactoryFlat.sol\":14955:15272  if (rootK > rootKLast) {\r... */\n              pop\n              pop\n              pop\n            tag_305:\n                /* \"v2-core-master/v2-core-master/contracts/DEXV2FactoryFlat.sol\":14793:15287  if (_kLast != 0) {\r... */\n              pop\n              pop\n            tag_301:\n                /* \"v2-core-master/v2-core-master/contracts/DEXV2FactoryFlat.sol\":14767:15357  if (feeOn) {\r... */\n              jump(tag_314)\n            tag_300:\n                /* \"v2-core-master/v2-core-master/contracts/DEXV2FactoryFlat.sol\":15308:15319  _kLast != 0 */\n              dup1\n              iszero\n                /* \"v2-core-master/v2-core-master/contracts/DEXV2FactoryFlat.sol\":15304:15357  if (_kLast != 0) {\r... */\n              tag_314\n              jumpi\n                /* \"v2-core-master/v2-core-master/contracts/DEXV2FactoryFlat.sol\":15344:15345  0 */\n              0x00\n                /* \"v2-core-master/v2-core-master/contracts/DEXV2FactoryFlat.sol\":15336:15341  kLast */\n              0x0b\n                /* \"v2-core-master/v2-core-master/contracts/DEXV2FactoryFlat.sol\":15336:15345  kLast = 0 */\n              sstore\n                /* \"v2-core-master/v2-core-master/contracts/DEXV2FactoryFlat.sol\":15304:15357  if (_kLast != 0) {\r... */\n            tag_314:\n                /* \"v2-core-master/v2-core-master/contracts/DEXV2FactoryFlat.sol\":14531:15364  function _mintFee(uint112 _reserve0, uint112 _reserve1) private returns (bool feeOn) {\r... */\n              pop\n              pop\n              swap3\n              swap2\n              pop\n              pop\n              jump\t// out\n                /* \"v2-core-master/v2-core-master/contracts/DEXV2FactoryFlat.sol\":2191:2494  function sqrt(uint y) internal pure returns (uint z) {\r... */\n            tag_186:\n                /* \"v2-core-master/v2-core-master/contracts/DEXV2FactoryFlat.sol\":2236:2242  uint z */\n              0x00\n                /* \"v2-core-master/v2-core-master/contracts/DEXV2FactoryFlat.sol\":2263:2264  3 */\n              0x03\n                /* \"v2-core-master/v2-core-master/contracts/DEXV2FactoryFlat.sol\":2259:2260  y */\n              dup3\n                /* \"v2-core-master/v2-core-master/contracts/DEXV2FactoryFlat.sol\":2259:2264  y > 3 */\n              gt\n                /* \"v2-core-master/v2-core-master/contracts/DEXV2FactoryFlat.sol\":2255:2487  if (y > 3) {\r... */\n              iszero\n              tag_316\n              jumpi\n              pop\n                /* \"v2-core-master/v2-core-master/contracts/DEXV2FactoryFlat.sol\":2285:2286  y */\n              dup1\n                /* \"v2-core-master/v2-core-master/contracts/DEXV2FactoryFlat.sol\":2318:2319  1 */\n              0x01\n                /* \"v2-core-master/v2-core-master/contracts/DEXV2FactoryFlat.sol\":2314:2315  2 */\n              0x02\n                /* \"v2-core-master/v2-core-master/contracts/DEXV2FactoryFlat.sol\":2310:2315  y / 2 */\n              dup3\n              div\n                /* \"v2-core-master/v2-core-master/contracts/DEXV2FactoryFlat.sol\":2310:2319  y / 2 + 1 */\n              add\n                /* \"v2-core-master/v2-core-master/contracts/DEXV2FactoryFlat.sol\":2334:2426  while (x < z) {\r... */\n            tag_318:\n                /* \"v2-core-master/v2-core-master/contracts/DEXV2FactoryFlat.sol\":2345:2346  z */\n              dup2\n                /* \"v2-core-master/v2-core-master/contracts/DEXV2FactoryFlat.sol\":2341:2342  x */\n              dup2\n                /* \"v2-core-master/v2-core-master/contracts/DEXV2FactoryFlat.sol\":2341:2346  x < z */\n              lt\n                /* \"v2-core-master/v2-core-master/contracts/DEXV2FactoryFlat.sol\":2334:2426  while (x < z) {\r... */\n              iszero\n              tag_319\n              jumpi\n                /* \"v2-core-master/v2-core-master/contracts/DEXV2FactoryFlat.sol\":2371:2372  x */\n              dup1\n                /* \"v2-core-master/v2-core-master/contracts/DEXV2FactoryFlat.sol\":2367:2372  z = x */\n              swap2\n              pop\n                /* \"v2-core-master/v2-core-master/contracts/DEXV2FactoryFlat.sol\":2409:2410  2 */\n              0x02\n                /* \"v2-core-master/v2-core-master/contracts/DEXV2FactoryFlat.sol\":2404:2405  x */\n              dup2\n                /* \"v2-core-master/v2-core-master/contracts/DEXV2FactoryFlat.sol\":2400:2401  x */\n              dup3\n                /* \"v2-core-master/v2-core-master/contracts/DEXV2FactoryFlat.sol\":2396:2397  y */\n              dup6\n                /* \"v2-core-master/v2-core-master/contracts/DEXV2FactoryFlat.sol\":2396:2401  y / x */\n              dup2\n              tag_320\n              jumpi\n              invalid\n            tag_320:\n              div\n                /* \"v2-core-master/v2-core-master/contracts/DEXV2FactoryFlat.sol\":2396:2405  y / x + x */\n              add\n                /* \"v2-core-master/v2-core-master/contracts/DEXV2FactoryFlat.sol\":2395:2410  (y / x + x) / 2 */\n              dup2\n              tag_321\n              jumpi\n              invalid\n            tag_321:\n              div\n                /* \"v2-core-master/v2-core-master/contracts/DEXV2FactoryFlat.sol\":2391:2410  x = (y / x + x) / 2 */\n              swap1\n              pop\n                /* \"v2-core-master/v2-core-master/contracts/DEXV2FactoryFlat.sol\":2334:2426  while (x < z) {\r... */\n              jump(tag_318)\n            tag_319:\n                /* \"v2-core-master/v2-core-master/contracts/DEXV2FactoryFlat.sol\":2255:2487  if (y > 3) {\r... */\n              pop\n              jump(tag_323)\n            tag_316:\n                /* \"v2-core-master/v2-core-master/contracts/DEXV2FactoryFlat.sol\":2447:2453  y != 0 */\n              dup2\n              iszero\n                /* \"v2-core-master/v2-core-master/contracts/DEXV2FactoryFlat.sol\":2443:2487  if (y != 0) {\r... */\n              tag_323\n              jumpi\n              pop\n                /* \"v2-core-master/v2-core-master/contracts/DEXV2FactoryFlat.sol\":2474:2475  1 */\n              0x01\n                /* \"v2-core-master/v2-core-master/contracts/DEXV2FactoryFlat.sol\":2443:2487  if (y != 0) {\r... */\n            tag_323:\n                /* \"v2-core-master/v2-core-master/contracts/DEXV2FactoryFlat.sol\":2191:2494  function sqrt(uint y) internal pure returns (uint z) {\r... */\n              swap2\n              swap1\n              pop\n              jump\t// out\n                /* \"v2-core-master/v2-core-master/contracts/DEXV2FactoryFlat.sol\":5746:5947  function _mint(address to, uint value) internal {\r... */\n            tag_188:\n                /* \"v2-core-master/v2-core-master/contracts/DEXV2FactoryFlat.sol\":5819:5830  totalSupply */\n              sload(0x00)\n                /* \"v2-core-master/v2-core-master/contracts/DEXV2FactoryFlat.sol\":5819:5841  totalSupply.add(value) */\n              tag_325\n              swap1\n                /* \"v2-core-master/v2-core-master/contracts/DEXV2FactoryFlat.sol\":5835:5840  value */\n              dup3\n                /* \"v2-core-master/v2-core-master/contracts/DEXV2FactoryFlat.sol\":5819:5841  totalSupply.add(value) */\n              0xffffffff\n                /* \"v2-core-master/v2-core-master/contracts/DEXV2FactoryFlat.sol\":5819:5834  totalSupply.add */\n              tag_295\n                /* \"v2-core-master/v2-core-master/contracts/DEXV2FactoryFlat.sol\":5819:5841  totalSupply.add(value) */\n              and\n              jump\t// in\n            tag_325:\n                /* \"v2-core-master/v2-core-master/contracts/DEXV2FactoryFlat.sol\":5805:5816  totalSupply */\n              0x00\n                /* \"v2-core-master/v2-core-master/contracts/DEXV2FactoryFlat.sol\":5805:5841  totalSupply = totalSupply.add(value) */\n              swap1\n              dup2\n              sstore\n              sub(shl(0xa0, 0x01), 0x01)\n                /* \"v2-core-master/v2-core-master/contracts/DEXV2FactoryFlat.sol\":5868:5881  balanceOf[to] */\n              dup4\n              and\n              dup2\n              mstore\n              mstore(0x20, 0x01)\n              0x40\n              swap1\n              keccak256\n              sload\n                /* \"v2-core-master/v2-core-master/contracts/DEXV2FactoryFlat.sol\":5868:5892  balanceOf[to].add(value) */\n              tag_326\n              swap1\n                /* \"v2-core-master/v2-core-master/contracts/DEXV2FactoryFlat.sol\":5886:5891  value */\n              dup3\n                /* \"v2-core-master/v2-core-master/contracts/DEXV2FactoryFlat.sol\":5868:5885  balanceOf[to].add */\n              tag_295\n                /* \"v2-core-master/v2-core-master/contracts/DEXV2FactoryFlat.sol\":5868:5892  balanceOf[to].add(value) */\n              jump\t// in\n            tag_326:\n              sub(shl(0xa0, 0x01), 0x01)\n                /* \"v2-core-master/v2-core-master/contracts/DEXV2FactoryFlat.sol\":5852:5865  balanceOf[to] */\n              dup4\n              and\n              0x00\n              dup2\n              dup2\n              mstore\n              0x01\n              0x20\n              swap1\n              dup2\n              mstore\n              0x40\n              dup1\n              dup4\n              keccak256\n                /* \"v2-core-master/v2-core-master/contracts/DEXV2FactoryFlat.sol\":5852:5892  balanceOf[to] = balanceOf[to].add(value) */\n              swap5\n              swap1\n              swap5\n              sstore\n                /* \"v2-core-master/v2-core-master/contracts/DEXV2FactoryFlat.sol\":5908:5939  Transfer(address(0), to, value) */\n              dup4\n              mload\n              dup6\n              dup2\n              mstore\n              swap4\n              mload\n                /* \"v2-core-master/v2-core-master/contracts/DEXV2FactoryFlat.sol\":5852:5865  balanceOf[to] */\n              swap3\n              swap4\n              swap2\n              swap3\n                /* \"v2-core-master/v2-core-master/contracts/DEXV2FactoryFlat.sol\":5908:5939  Transfer(address(0), to, value) */\n              0xddf252ad1be2c89b69c2b068fc378daa952ba7f163c4a11628f55a4df523b3ef\n              swap3\n              dup2\n              swap1\n              sub\n              swap1\n              swap2\n              add\n              swap1\n              log3\n                /* \"v2-core-master/v2-core-master/contracts/DEXV2FactoryFlat.sol\":5746:5947  function _mint(address to, uint value) internal {\r... */\n              pop\n              pop\n              jump\t// out\n                /* \"v2-core-master/v2-core-master/contracts/DEXV2FactoryFlat.sol\":1977:2073  function min(uint x, uint y) internal pure returns (uint z) {\r... */\n            tag_195:\n                /* \"v2-core-master/v2-core-master/contracts/DEXV2FactoryFlat.sol\":2029:2035  uint z */\n              0x00\n                /* \"v2-core-master/v2-core-master/contracts/DEXV2FactoryFlat.sol\":2056:2057  y */\n              dup2\n                /* \"v2-core-master/v2-core-master/contracts/DEXV2FactoryFlat.sol\":2052:2053  x */\n              dup4\n                /* \"v2-core-master/v2-core-master/contracts/DEXV2FactoryFlat.sol\":2052:2057  x < y */\n              lt\n                /* \"v2-core-master/v2-core-master/contracts/DEXV2FactoryFlat.sol\":2052:2065  x < y ? x : y */\n              tag_328\n              jumpi\n                /* \"v2-core-master/v2-core-master/contracts/DEXV2FactoryFlat.sol\":2064:2065  y */\n              dup2\n                /* \"v2-core-master/v2-core-master/contracts/DEXV2FactoryFlat.sol\":2052:2065  x < y ? x : y */\n              jump(tag_329)\n            tag_328:\n                /* \"v2-core-master/v2-core-master/contracts/DEXV2FactoryFlat.sol\":2060:2061  x */\n              dup3\n                /* \"v2-core-master/v2-core-master/contracts/DEXV2FactoryFlat.sol\":2052:2065  x < y ? x : y */\n            tag_329:\n                /* \"v2-core-master/v2-core-master/contracts/DEXV2FactoryFlat.sol\":2048:2065  z = x < y ? x : y */\n              swap4\n                /* \"v2-core-master/v2-core-master/contracts/DEXV2FactoryFlat.sol\":1977:2073  function min(uint x, uint y) internal pure returns (uint z) {\r... */\n              swap3\n              pop\n              pop\n              pop\n              jump\t// out\n                /* \"v2-core-master/v2-core-master/contracts/DEXV2FactoryFlat.sol\":5955:6164  function _burn(address from, uint value) internal {\r... */\n            tag_219:\n              sub(shl(0xa0, 0x01), 0x01)\n                /* \"v2-core-master/v2-core-master/contracts/DEXV2FactoryFlat.sol\":6034:6049  balanceOf[from] */\n              dup3\n              and\n              0x00\n              swap1\n              dup2\n              mstore\n              mstore(0x20, 0x01)\n              0x40\n              swap1\n              keccak256\n              sload\n                /* \"v2-core-master/v2-core-master/contracts/DEXV2FactoryFlat.sol\":6034:6060  balanceOf[from].sub(value) */\n              tag_331\n              swap1\n                /* \"v2-core-master/v2-core-master/contracts/DEXV2FactoryFlat.sol\":6054:6059  value */\n              dup3\n                /* \"v2-core-master/v2-core-master/contracts/DEXV2FactoryFlat.sol\":6034:6053  balanceOf[from].sub */\n              tag_147\n                /* \"v2-core-master/v2-core-master/contracts/DEXV2FactoryFlat.sol\":6034:6060  balanceOf[from].sub(value) */\n              jump\t// in\n            tag_331:\n              sub(shl(0xa0, 0x01), 0x01)\n                /* \"v2-core-master/v2-core-master/contracts/DEXV2FactoryFlat.sol\":6016:6031  balanceOf[from] */\n              dup4\n              and\n              0x00\n              swap1\n              dup2\n              mstore\n              mstore(0x20, 0x01)\n              0x40\n              dup2\n              keccak256\n                /* \"v2-core-master/v2-core-master/contracts/DEXV2FactoryFlat.sol\":6016:6060  balanceOf[from] = balanceOf[from].sub(value) */\n              swap2\n              swap1\n              swap2\n              sstore\n                /* \"v2-core-master/v2-core-master/contracts/DEXV2FactoryFlat.sol\":6085:6096  totalSupply */\n              sload\n                /* \"v2-core-master/v2-core-master/contracts/DEXV2FactoryFlat.sol\":6085:6107  totalSupply.sub(value) */\n              tag_332\n              swap1\n                /* \"v2-core-master/v2-core-master/contracts/DEXV2FactoryFlat.sol\":6101:6106  value */\n              dup3\n                /* \"v2-core-master/v2-core-master/contracts/DEXV2FactoryFlat.sol\":6085:6100  totalSupply.sub */\n              tag_147\n                /* \"v2-core-master/v2-core-master/contracts/DEXV2FactoryFlat.sol\":6085:6107  totalSupply.sub(value) */\n              jump\t// in\n            tag_332:\n                /* \"v2-core-master/v2-core-master/contracts/DEXV2FactoryFlat.sol\":6071:6082  totalSupply */\n              0x00\n                /* \"v2-core-master/v2-core-master/contracts/DEXV2FactoryFlat.sol\":6071:6107  totalSupply = totalSupply.sub(value) */\n              swap1\n              dup2\n              sstore\n                /* \"v2-core-master/v2-core-master/contracts/DEXV2FactoryFlat.sol\":6123:6156  Transfer(from, address(0), value) */\n              0x40\n              dup1\n              mload\n              dup4\n              dup2\n              mstore\n              swap1\n              mload\n              sub(shl(0xa0, 0x01), 0x01)\n              dup6\n              and\n              swap2\n              0xddf252ad1be2c89b69c2b068fc378daa952ba7f163c4a11628f55a4df523b3ef\n              swap2\n              swap1\n              dup2\n              swap1\n              sub\n              0x20\n              add\n              swap1\n              log3\n                /* \"v2-core-master/v2-core-master/contracts/DEXV2FactoryFlat.sol\":5955:6164  function _burn(address from, uint value) internal {\r... */\n              pop\n              pop\n              jump\t// out\n                /* \"v2-core-master/v2-core-master/contracts/DEXV2FactoryFlat.sol\":1512:1632  function encode(uint112 y) internal pure returns (uint224 z) {\r... */\n            tag_287:\n              sub(shl(0x70, 0x01), 0x01)\n                /* \"v2-core-master/v2-core-master/contracts/DEXV2FactoryFlat.sol\":1588:1598  uint224(y) */\n              and\n              shl(0x70, 0x01)\n                /* \"v2-core-master/v2-core-master/contracts/DEXV2FactoryFlat.sol\":1588:1605  uint224(y) * Q112 */\n              mul\n              swap1\n                /* \"v2-core-master/v2-core-master/contracts/DEXV2FactoryFlat.sol\":1512:1632  function encode(uint112 y) internal pure returns (uint224 z) {\r... */\n              jump\t// out\n                /* \"v2-core-master/v2-core-master/contracts/DEXV2FactoryFlat.sol\":1703:1811  function uqdiv(uint224 x, uint112 y) internal pure returns (uint224 z) {\r... */\n            tag_288:\n                /* \"v2-core-master/v2-core-master/contracts/DEXV2FactoryFlat.sol\":1763:1772  uint224 z */\n              0x00\n              sub(shl(0x70, 0x01), 0x01)\n                /* \"v2-core-master/v2-core-master/contracts/DEXV2FactoryFlat.sol\":1793:1803  uint224(y) */\n              dup3\n              and\n              sub(shl(0xe0, 0x01), 0x01)\n                /* \"v2-core-master/v2-core-master/contracts/DEXV2FactoryFlat.sol\":1789:1803  x / uint224(y) */\n              dup5\n              and\n                /* \"v2-core-master/v2-core-master/contracts/DEXV2FactoryFlat.sol\":1793:1803  uint224(y) */\n              dup2\n                /* \"v2-core-master/v2-core-master/contracts/DEXV2FactoryFlat.sol\":1789:1803  x / uint224(y) */\n              tag_335\n              jumpi\n              invalid\n            tag_335:\n              div\n              swap4\n                /* \"v2-core-master/v2-core-master/contracts/DEXV2FactoryFlat.sol\":1703:1811  function uqdiv(uint224 x, uint112 y) internal pure returns (uint224 z) {\r... */\n              swap3\n              pop\n              pop\n              pop\n              jump\t// out\n                /* \"v2-core-master/v2-core-master/contracts/DEXV2FactoryFlat.sol\":2721:2849  function add(uint x, uint y) internal pure returns (uint z) {\r... */\n            tag_295:\n                /* \"v2-core-master/v2-core-master/contracts/DEXV2FactoryFlat.sol\":2805:2810  x + y */\n              dup1\n              dup3\n              add\n                /* \"v2-core-master/v2-core-master/contracts/DEXV2FactoryFlat.sol\":2800:2816  (z = x + y) >= x */\n              dup3\n              dup2\n              lt\n              iszero\n                /* \"v2-core-master/v2-core-master/contracts/DEXV2FactoryFlat.sol\":2792:2841  require((z = x + y) >= x, 'ds-math-add-overflow') */\n              tag_158\n              jumpi\n              0x40\n              dup1\n              mload\n              shl(0xe5, 0x461bcd)\n              dup2\n              mstore\n              0x20\n              0x04\n              dup3\n              add\n              mstore\n              0x14\n              0x24\n              dup3\n              add\n              mstore\n              shl(0x60, 0x64732d6d6174682d6164642d6f766572666c6f77)\n              0x44\n              dup3\n              add\n              mstore\n              swap1\n              mload\n              swap1\n              dup2\n              swap1\n              sub\n              0x64\n              add\n              swap1\n              revert\n            stop\n            data_19858c75ca6575f0620a5a36ab79179f8f9a602bb98641841464a24f0f540494 44455856323a20494e53554646494349454e545f4c49515549444954595f4d494e544544\n            data_b8515d9c102ebe9112851623068db4e89ae46cea200d65e7d4ce8f89e31a1179 44455856323a20494e53554646494349454e545f4c49515549444954595f4255524e4544\n            data_bd3d279deafa3a413c640d6c8c87c7163b054a9440c7e5272a4c3da9af95f292 44455856323a20494e53554646494349454e545f4f55545055545f414d4f554e54\n\n            auxdata: 0xa265627a7a723158204c36731e30f3d40be3bf893c642283ceac0fdc63681b7a27500c370c3399f64264736f6c63430005100032\n        }\n    }\n\n    auxdata: 0xa265627a7a723158206771557fdacf3114819a126696a52947fb5a664867cb5bbd21505e436f4df69264736f6c63430005100032\n}\n",
				"bytecode": {
					"linkReferences": {},
					"object": "608060405234801561001057600080fd5b50604051612add380380612add8339818101604052602081101561003357600080fd5b5051600180546001600160a01b0319166001600160a01b03909216919091179055612a7a806100636000396000f3fe608060405234801561001057600080fd5b50600436106100935760003560e01c8063574f2ba311610066578063574f2ba3146100fb578063a2e74af614610103578063c9c653961461012b578063e6a4390514610159578063f46901ed1461018757610093565b8063017e7e5814610098578063094b7415146100bc5780631e3dd18b146100c4578063257671f5146100e1575b600080fd5b6100a06101ad565b604080516001600160a01b039092168252519081900360200190f35b6100a06101bc565b6100a0600480360360208110156100da57600080fd5b50356101cb565b6100e96101f2565b60408051918252519081900360200190f35b6100e9610285565b6101296004803603602081101561011957600080fd5b50356001600160a01b031661028b565b005b6100a06004803603604081101561014157600080fd5b506001600160a01b03813581169160200135166102ff565b6100a06004803603604081101561016f57600080fd5b506001600160a01b0381358116916020013516610622565b6101296004803603602081101561019d57600080fd5b50356001600160a01b0316610648565b6000546001600160a01b031681565b6001546001600160a01b031681565b600381815481106101d857fe5b6000918252602090912001546001600160a01b0316905081565b604051610201602082016106bc565b6020820181038252601f19601f820116604052506040516020018082805190602001908083835b602083106102475780518252601f199092019160209182019101610228565b6001836020036101000a0380198251168184511680821785525050505050509050019150506040516020818303038152906040528051906020012081565b60035490565b6001546001600160a01b031633146102dd576040805162461bcd60e51b815260206004820152601060248201526f2222ac2b191d102327a92124a22222a760811b604482015290519081900360640190fd5b600180546001600160a01b0319166001600160a01b0392909216919091179055565b6000816001600160a01b0316836001600160a01b03161415610368576040805162461bcd60e51b815260206004820152601a60248201527f44455856323a204944454e544943414c5f414444524553534553000000000000604482015290519081900360640190fd5b600080836001600160a01b0316856001600160a01b03161061038b57838561038e565b84845b90925090506001600160a01b0382166103e4576040805162461bcd60e51b815260206004820152601360248201527244455856323a205a45524f5f4144445245535360681b604482015290519081900360640190fd5b6001600160a01b03828116600090815260026020908152604080832085851684529091529020541615610453576040805162461bcd60e51b815260206004820152601260248201527144455856323a20504149525f45584953545360701b604482015290519081900360640190fd5b606060405180602001610465906106bc565b6020820181038252601f19601f8201166040525090506000838360405160200180836001600160a01b03166001600160a01b031660601b8152601401826001600160a01b03166001600160a01b031660601b815260140192505050604051602081830303815290604052805190602001209050808251602084016000f56040805163485cc95560e01b81526001600160a01b038781166004830152868116602483015291519297509087169163485cc9559160448082019260009290919082900301818387803b15801561053857600080fd5b505af115801561054c573d6000803e3d6000fd5b505050506001600160a01b0384811660008181526002602081815260408084208987168086529083528185208054978d166001600160a01b031998891681179091559383528185208686528352818520805488168517905560038054600181018255958190527fc2575a0e9e593c00f959f8c92f12db2869c3395a3b0502d05e2516446f71f85b90950180549097168417909655925483519283529082015281517f0d3648bd0f6ba80134a33ba9275ac585d9d315f0ad8355cddefde31afa28d0e9929181900390910190a35050505092915050565b60026020908152600092835260408084209091529082529020546001600160a01b031681565b6001546001600160a01b0316331461069a576040805162461bcd60e51b815260206004820152601060248201526f2222ac2b191d102327a92124a22222a760811b604482015290519081900360640190fd5b600080546001600160a01b0319166001600160a01b0392909216919091179055565b61237c806106ca8339019056fe60806040526001600c5534801561001557600080fd5b50604051469080605261232a823960408051918290036052018220828201825260068352652222ac102b1960d11b6020938401528151808301835260018152603160f81b908401528151808401919091527fc1c10dcba44900605795c0d4b2d4c7476e8679a18b4c003d4fb30b906d50ef31818301527fc89efdaa54c0f20c7adf612882df0950f5a951637e0307cdcb4c672f298b8bc6606082015260808101949094523060a0808601919091528151808603909101815260c09094019052825192019190912060035550600580546001600160a01b03191633179055612229806101016000396000f3fe608060405234801561001057600080fd5b50600436106101a95760003560e01c80636a627842116100f9578063ba9a7a5611610097578063d21220a711610071578063d21220a714610534578063d505accf1461053c578063dd62ed3e1461058d578063fff6cae9146105bb576101a9565b8063ba9a7a56146104fe578063bc25cf7714610506578063c45a01551461052c576101a9565b80637ecebe00116100d35780637ecebe001461046557806389afcb441461048b57806395d89b41146104ca578063a9059cbb146104d2576101a9565b80636a6278421461041157806370a08231146104375780637464fc3d1461045d576101a9565b806323b872dd116101665780633644e515116101405780633644e515146103cb578063485cc955146103d35780635909c0d5146104015780635a3d549314610409576101a9565b806323b872dd1461036f57806330adf81f146103a5578063313ce567146103ad576101a9565b8063022c0d9f146101ae57806306fdde031461023c5780630902f1ac146102b9578063095ea7b3146102f15780630dfe16811461033157806318160ddd14610355575b600080fd5b61023a600480360360808110156101c457600080fd5b8135916020810135916001600160a01b0360408301351691908101906080810160608201356401000000008111156101fb57600080fd5b82018360208201111561020d57600080fd5b8035906020019184600183028401116401000000008311171561022f57600080fd5b5090925090506105c3565b005b610244610b1e565b6040805160208082528351818301528351919283929083019185019080838360005b8381101561027e578181015183820152602001610266565b50505050905090810190601f1680156102ab5780820380516001836020036101000a031916815260200191505b509250505060405180910390f35b6102c1610b40565b604080516001600160701b03948516815292909316602083015263ffffffff168183015290519081900360600190f35b61031d6004803603604081101561030757600080fd5b506001600160a01b038135169060200135610b6a565b604080519115158252519081900360200190f35b610339610b81565b604080516001600160a01b039092168252519081900360200190f35b61035d610b90565b60408051918252519081900360200190f35b61031d6004803603606081101561038557600080fd5b506001600160a01b03813581169160208101359091169060400135610b96565b61035d610c30565b6103b5610c54565b6040805160ff9092168252519081900360200190f35b61035d610c59565b61023a600480360360408110156103e957600080fd5b506001600160a01b0381358116916020013516610c5f565b61035d610cdf565b61035d610ce5565b61035d6004803603602081101561042757600080fd5b50356001600160a01b0316610ceb565b61035d6004803603602081101561044d57600080fd5b50356001600160a01b0316610fe7565b61035d610ff9565b61035d6004803603602081101561047b57600080fd5b50356001600160a01b0316610fff565b6104b1600480360360208110156104a157600080fd5b50356001600160a01b0316611011565b6040805192835260208301919091528051918290030190f35b6102446113b3565b61031d600480360360408110156104e857600080fd5b506001600160a01b0381351690602001356113d5565b61035d6113e2565b61023a6004803603602081101561051c57600080fd5b50356001600160a01b03166113e8565b61033961154f565b61033961155e565b61023a600480360360e081101561055257600080fd5b506001600160a01b03813581169160208101359091169060408101359060608101359060ff6080820135169060a08101359060c0013561156d565b61035d600480360360408110156105a357600080fd5b506001600160a01b038135811691602001351661176b565b61023a611788565b600c5460011461060a576040805162461bcd60e51b815260206004820152600d60248201526c111156158c8e881313d0d2d151609a1b604482015290519081900360640190fd5b6000600c558415158061061d5750600084115b6106585760405162461bcd60e51b81526004018080602001828103825260218152602001806121d46021913960400191505060405180910390fd5b600080610663610b40565b5091509150816001600160701b0316871080156106885750806001600160701b031686105b6106d9576040805162461bcd60e51b815260206004820152601d60248201527f44455856323a20494e53554646494349454e545f4c4951554944495459000000604482015290519081900360640190fd5b60065460075460009182916001600160a01b039182169190811690891682148015906107175750806001600160a01b0316896001600160a01b031614155b61075c576040805162461bcd60e51b815260206004820152601160248201527044455856323a20494e56414c49445f544f60781b604482015290519081900360640190fd5b8a1561076d5761076d828a8d6118e6565b891561077e5761077e818a8c6118e6565b861561083957886001600160a01b031663d48d2648338d8d8c8c6040518663ffffffff1660e01b815260040180866001600160a01b03166001600160a01b03168152602001858152602001848152602001806020018281038252848482818152602001925080828437600081840152601f19601f8201169050808301925050509650505050505050600060405180830381600087803b15801561082057600080fd5b505af1158015610834573d6000803e3d6000fd5b505050505b604080516370a0823160e01b815230600482015290516001600160a01b038416916370a08231916024808301926020929190829003018186803b15801561087f57600080fd5b505afa158015610893573d6000803e3d6000fd5b505050506040513d60208110156108a957600080fd5b5051604080516370a0823160e01b815230600482015290519195506001600160a01b038316916370a0823191602480820192602092909190829003018186803b1580156108f557600080fd5b505afa158015610909573d6000803e3d6000fd5b505050506040513d602081101561091f57600080fd5b5051925060009150506001600160701b0385168a90038311610942576000610951565b89856001600160701b03160383035b9050600089856001600160701b031603831161096e57600061097d565b89856001600160701b03160383035b9050600082118061098e5750600081115b6109df576040805162461bcd60e51b815260206004820181905260248201527f44455856323a20494e53554646494349454e545f494e5055545f414d4f554e54604482015290519081900360640190fd5b6000610a136109f584600363ffffffff611a7916565b610a07876103e863ffffffff611a7916565b9063ffffffff611adc16565b90506000610a2b6109f584600363ffffffff611a7916565b9050610a5c620f4240610a506001600160701b038b8116908b1663ffffffff611a7916565b9063ffffffff611a7916565b610a6c838363ffffffff611a7916565b1015610aaa576040805162461bcd60e51b815260206004820152600860248201526744455856323a204b60c01b604482015290519081900360640190fd5b5050610ab884848888611b2c565b60408051838152602081018390528082018d9052606081018c905290516001600160a01b038b169133917fd78ad95fa46c994b6551d0da85fc275fe613ce37657fb8d5e3d130840159d8229181900360800190a350506001600c55505050505050505050565b604051806040016040528060068152602001652222ac102b1960d11b81525081565b6008546001600160701b0380821692600160701b830490911691600160e01b900463ffffffff1690565b6000610b77338484611ced565b5060015b92915050565b6006546001600160a01b031681565b60005481565b6001600160a01b038316600090815260026020908152604080832033845290915281205460001914610c1b576001600160a01b0384166000908152600260209081526040808320338452909152902054610bf6908363ffffffff611adc16565b6001600160a01b03851660009081526002602090815260408083203384529091529020555b610c26848484611d4f565b5060019392505050565b7f6e71edae12b1b97f4d1f60370fef10105fa2faae0126114a169c64845d6126c981565b601281565b60035481565b6005546001600160a01b03163314610cb1576040805162461bcd60e51b815260206004820152601060248201526f2222ac2b191d102327a92124a22222a760811b604482015290519081900360640190fd5b600680546001600160a01b039384166001600160a01b03199182161790915560078054929093169116179055565b60095481565b600a5481565b6000600c54600114610d34576040805162461bcd60e51b815260206004820152600d60248201526c111156158c8e881313d0d2d151609a1b604482015290519081900360640190fd5b6000600c81905580610d44610b40565b50600654604080516370a0823160e01b815230600482015290519395509193506000926001600160a01b03909116916370a08231916024808301926020929190829003018186803b158015610d9857600080fd5b505afa158015610dac573d6000803e3d6000fd5b505050506040513d6020811015610dc257600080fd5b5051600754604080516370a0823160e01b815230600482015290519293506000926001600160a01b03909216916370a0823191602480820192602092909190829003018186803b158015610e1557600080fd5b505afa158015610e29573d6000803e3d6000fd5b505050506040513d6020811015610e3f57600080fd5b505190506000610e5e836001600160701b03871663ffffffff611adc16565b90506000610e7b836001600160701b03871663ffffffff611adc16565b90506000610e898787611e09565b60005490915080610ec657610eb26103e8610a07610ead878763ffffffff611a7916565b611f67565b9850610ec160006103e8611fb9565b610f15565b610f126001600160701b038916610ee3868463ffffffff611a7916565b81610eea57fe5b046001600160701b038916610f05868563ffffffff611a7916565b81610f0c57fe5b0461204f565b98505b60008911610f545760405162461bcd60e51b815260040180806020018281038252602481526020018061218c6024913960400191505060405180910390fd5b610f5e8a8a611fb9565b610f6a86868a8a611b2c565b8115610f9a57600854610f96906001600160701b0380821691600160701b90041663ffffffff611a7916565b600b555b6040805185815260208101859052815133927f4c209b5fc8ad50758f13e2e1088ba56a560dff690a1c6fef26394f4c03821c4f928290030190a250506001600c5550949695505050505050565b60016020526000908152604090205481565b600b5481565b60046020526000908152604090205481565b600080600c5460011461105b576040805162461bcd60e51b815260206004820152600d60248201526c111156158c8e881313d0d2d151609a1b604482015290519081900360640190fd5b6000600c8190558061106b610b40565b50600654600754604080516370a0823160e01b815230600482015290519496509294506001600160a01b039182169391169160009184916370a08231916024808301926020929190829003018186803b1580156110c757600080fd5b505afa1580156110db573d6000803e3d6000fd5b505050506040513d60208110156110f157600080fd5b5051604080516370a0823160e01b815230600482015290519192506000916001600160a01b038516916370a08231916024808301926020929190829003018186803b15801561113f57600080fd5b505afa158015611153573d6000803e3d6000fd5b505050506040513d602081101561116957600080fd5b5051306000908152600160205260408120549192506111888888611e09565b6000549091508061119f848763ffffffff611a7916565b816111a657fe5b049a50806111ba848663ffffffff611a7916565b816111c157fe5b04995060008b1180156111d4575060008a115b61120f5760405162461bcd60e51b81526004018080602001828103825260248152602001806121b06024913960400191505060405180910390fd5b6112193084612067565b611224878d8d6118e6565b61122f868d8c6118e6565b604080516370a0823160e01b815230600482015290516001600160a01b038916916370a08231916024808301926020929190829003018186803b15801561127557600080fd5b505afa158015611289573d6000803e3d6000fd5b505050506040513d602081101561129f57600080fd5b5051604080516370a0823160e01b815230600482015290519196506001600160a01b038816916370a0823191602480820192602092909190829003018186803b1580156112eb57600080fd5b505afa1580156112ff573d6000803e3d6000fd5b505050506040513d602081101561131557600080fd5b5051935061132585858b8b611b2c565b811561135557600854611351906001600160701b0380821691600160701b90041663ffffffff611a7916565b600b555b604080518c8152602081018c905281516001600160a01b038f169233927fdccd412f0b1252819cb1fd330b93224ca42612892bb3f4f789976e6d81936496929081900390910190a35050505050505050506001600c81905550915091565b604051806040016040528060068152602001652222ac16ab1960d11b81525081565b6000610b77338484611d4f565b6103e881565b600c5460011461142f576040805162461bcd60e51b815260206004820152600d60248201526c111156158c8e881313d0d2d151609a1b604482015290519081900360640190fd5b6000600c55600654600754600854604080516370a0823160e01b815230600482015290516001600160a01b0394851694909316926114de92859287926114d9926001600160701b03169185916370a0823191602480820192602092909190829003018186803b1580156114a157600080fd5b505afa1580156114b5573d6000803e3d6000fd5b505050506040513d60208110156114cb57600080fd5b50519063ffffffff611adc16565b6118e6565b600854604080516370a0823160e01b8152306004820152905161154592849287926114d992600160701b90046001600160701b0316916001600160a01b038616916370a0823191602480820192602092909190829003018186803b1580156114a157600080fd5b50506001600c5550565b6005546001600160a01b031681565b6007546001600160a01b031681565b428410156115b3576040805162461bcd60e51b815260206004820152600e60248201526d111156158c8e881156141254915160921b604482015290519081900360640190fd5b6003546001600160a01b0380891660008181526004602090815260408083208054600180820190925582517f6e71edae12b1b97f4d1f60370fef10105fa2faae0126114a169c64845d6126c98186015280840196909652958d166060860152608085018c905260a085019590955260c08085018b90528151808603909101815260e08501825280519083012061190160f01b6101008601526101028501969096526101228085019690965280518085039096018652610142840180825286519683019690962095839052610162840180825286905260ff89166101828501526101a284018890526101c28401879052519193926101e280820193601f1981019281900390910190855afa1580156116ce573d6000803e3d6000fd5b5050604051601f1901519150506001600160a01b038116158015906117045750886001600160a01b0316816001600160a01b0316145b611755576040805162461bcd60e51b815260206004820152601860248201527f44455856323a20494e56414c49445f5349474e41545552450000000000000000604482015290519081900360640190fd5b611760898989611ced565b505050505050505050565b600260209081526000928352604080842090915290825290205481565b600c546001146117cf576040805162461bcd60e51b815260206004820152600d60248201526c111156158c8e881313d0d2d151609a1b604482015290519081900360640190fd5b6000600c55600654604080516370a0823160e01b815230600482015290516118df926001600160a01b0316916370a08231916024808301926020929190829003018186803b15801561182057600080fd5b505afa158015611834573d6000803e3d6000fd5b505050506040513d602081101561184a57600080fd5b5051600754604080516370a0823160e01b815230600482015290516001600160a01b03909216916370a0823191602480820192602092909190829003018186803b15801561189757600080fd5b505afa1580156118ab573d6000803e3d6000fd5b505050506040513d60208110156118c157600080fd5b50516008546001600160701b0380821691600160701b900416611b2c565b6001600c55565b604080518082018252601981527f7472616e7366657228616464726573732c75696e74323536290000000000000060209182015281516001600160a01b0385811660248301526044808301869052845180840390910181526064909201845291810180516001600160e01b031663a9059cbb60e01b1781529251815160009460609489169392918291908083835b602083106119935780518252601f199092019160209182019101611974565b6001836020036101000a0380198251168184511680821785525050505050509050019150506000604051808303816000865af19150503d80600081146119f5576040519150601f19603f3d011682016040523d82523d6000602084013e6119fa565b606091505b5091509150818015611a28575080511580611a285750808060200190516020811015611a2557600080fd5b50515b611a72576040805162461bcd60e51b8152602060048201526016602482015275111156158c8e881514905394d1915497d1905253115160521b604482015290519081900360640190fd5b5050505050565b6000811580611a9457505080820282828281611a9157fe5b04145b610b7b576040805162461bcd60e51b815260206004820152601460248201527364732d6d6174682d6d756c2d6f766572666c6f7760601b604482015290519081900360640190fd5b80820382811115610b7b576040805162461bcd60e51b815260206004820152601560248201527464732d6d6174682d7375622d756e646572666c6f7760581b604482015290519081900360640190fd5b6001600160701b038411801590611b4a57506001600160701b038311155b611b8d576040805162461bcd60e51b815260206004820152600f60248201526e44455856323a204f564552464c4f5760881b604482015290519081900360640190fd5b60085463ffffffff42811691600160e01b90048116820390811615801590611bbd57506001600160701b03841615155b8015611bd157506001600160701b03831615155b15611c42578063ffffffff16611bff85611bea86612105565b6001600160e01b03169063ffffffff61211716565b600980546001600160e01b03929092169290920201905563ffffffff8116611c2a84611bea87612105565b600a80546001600160e01b0392909216929092020190555b600880546dffffffffffffffffffffffffffff19166001600160701b03888116919091176dffffffffffffffffffffffffffff60701b1916600160701b8883168102919091176001600160e01b0316600160e01b63ffffffff871602179283905560408051848416815291909304909116602082015281517f1c411e9a96e071241c2f21f7726b17ae89e3cab4c78be50e062b03a9fffbbad1929181900390910190a1505050505050565b6001600160a01b03808416600081815260026020908152604080832094871680845294825291829020859055815185815291517f8c5be1e5ebec7d5bd14f71427d1e84f3dd0314c0f7b2291e5b200ac8c7c3b9259281900390910190a3505050565b6001600160a01b038316600090815260016020526040902054611d78908263ffffffff611adc16565b6001600160a01b038085166000908152600160205260408082209390935590841681522054611dad908263ffffffff61213c16565b6001600160a01b0380841660008181526001602090815260409182902094909455805185815290519193928716927fddf252ad1be2c89b69c2b068fc378daa952ba7f163c4a11628f55a4df523b3ef92918290030190a3505050565b600080600560009054906101000a90046001600160a01b03166001600160a01b031663017e7e586040518163ffffffff1660e01b815260040160206040518083038186803b158015611e5a57600080fd5b505afa158015611e6e573d6000803e3d6000fd5b505050506040513d6020811015611e8457600080fd5b5051600b546001600160a01b038216158015945091925090611f53578015611f4e576000611ec7610ead6001600160701b0388811690881663ffffffff611a7916565b90506000611ed483611f67565b905080821115611f4b576000611f02611ef3848463ffffffff611adc16565b6000549063ffffffff611a7916565b90506000611f2783611f1b86600563ffffffff611a7916565b9063ffffffff61213c16565b90506000818381611f3457fe5b0490508015611f4757611f478782611fb9565b5050505b50505b611f5f565b8015611f5f576000600b555b505092915050565b60006003821115611faa575080600160028204015b81811015611fa457809150600281828581611f9357fe5b040181611f9c57fe5b049050611f7c565b50611fb4565b8115611fb4575060015b919050565b600054611fcc908263ffffffff61213c16565b60009081556001600160a01b038316815260016020526040902054611ff7908263ffffffff61213c16565b6001600160a01b03831660008181526001602090815260408083209490945583518581529351929391927fddf252ad1be2c89b69c2b068fc378daa952ba7f163c4a11628f55a4df523b3ef9281900390910190a35050565b600081831061205e5781612060565b825b9392505050565b6001600160a01b038216600090815260016020526040902054612090908263ffffffff611adc16565b6001600160a01b038316600090815260016020526040812091909155546120bd908263ffffffff611adc16565b60009081556040805183815290516001600160a01b038516917fddf252ad1be2c89b69c2b068fc378daa952ba7f163c4a11628f55a4df523b3ef919081900360200190a35050565b6001600160701b0316600160701b0290565b60006001600160701b0382166001600160e01b0384168161213457fe5b049392505050565b80820182811015610b7b576040805162461bcd60e51b815260206004820152601460248201527364732d6d6174682d6164642d6f766572666c6f7760601b604482015290519081900360640190fdfe44455856323a20494e53554646494349454e545f4c49515549444954595f4d494e54454444455856323a20494e53554646494349454e545f4c49515549444954595f4255524e454444455856323a20494e53554646494349454e545f4f55545055545f414d4f554e54a265627a7a723158204c36731e30f3d40be3bf893c642283ceac0fdc63681b7a27500c370c3399f64264736f6c63430005100032454950373132446f6d61696e28737472696e67206e616d652c737472696e672076657273696f6e2c75696e7432353620636861696e49642c6164647265737320766572696679696e67436f6e747261637429a265627a7a723158206771557fdacf3114819a126696a52947fb5a664867cb5bbd21505e436f4df69264736f6c63430005100032",
					"opcodes": "PUSH1 0x80 PUSH1 0x40 MSTORE CALLVALUE DUP1 ISZERO PUSH2 0x10 JUMPI PUSH1 0x0 DUP1 REVERT JUMPDEST POP PUSH1 0x40 MLOAD PUSH2 0x2ADD CODESIZE SUB DUP1 PUSH2 0x2ADD DUP4 CODECOPY DUP2 DUP2 ADD PUSH1 0x40 MSTORE PUSH1 0x20 DUP2 LT ISZERO PUSH2 0x33 JUMPI PUSH1 0x0 DUP1 REVERT JUMPDEST POP MLOAD PUSH1 0x1 DUP1 SLOAD PUSH1 0x1 PUSH1 0x1 PUSH1 0xA0 SHL SUB NOT AND PUSH1 0x1 PUSH1 0x1 PUSH1 0xA0 SHL SUB SWAP1 SWAP3 AND SWAP2 SWAP1 SWAP2 OR SWAP1 SSTORE PUSH2 0x2A7A DUP1 PUSH2 0x63 PUSH1 0x0 CODECOPY PUSH1 0x0 RETURN INVALID PUSH1 0x80 PUSH1 0x40 MSTORE CALLVALUE DUP1 ISZERO PUSH2 0x10 JUMPI PUSH1 0x0 DUP1 REVERT JUMPDEST POP PUSH1 0x4 CALLDATASIZE LT PUSH2 0x93 JUMPI PUSH1 0x0 CALLDATALOAD PUSH1 0xE0 SHR DUP1 PUSH4 0x574F2BA3 GT PUSH2 0x66 JUMPI DUP1 PUSH4 0x574F2BA3 EQ PUSH2 0xFB JUMPI DUP1 PUSH4 0xA2E74AF6 EQ PUSH2 0x103 JUMPI DUP1 PUSH4 0xC9C65396 EQ PUSH2 0x12B JUMPI DUP1 PUSH4 0xE6A43905 EQ PUSH2 0x159 JUMPI DUP1 PUSH4 0xF46901ED EQ PUSH2 0x187 JUMPI PUSH2 0x93 JUMP JUMPDEST DUP1 PUSH4 0x17E7E58 EQ PUSH2 0x98 JUMPI DUP1 PUSH4 0x94B7415 EQ PUSH2 0xBC JUMPI DUP1 PUSH4 0x1E3DD18B EQ PUSH2 0xC4 JUMPI DUP1 PUSH4 0x257671F5 EQ PUSH2 0xE1 JUMPI JUMPDEST PUSH1 0x0 DUP1 REVERT JUMPDEST PUSH2 0xA0 PUSH2 0x1AD JUMP JUMPDEST PUSH1 0x40 DUP1 MLOAD PUSH1 0x1 PUSH1 0x1 PUSH1 0xA0 SHL SUB SWAP1 SWAP3 AND DUP3 MSTORE MLOAD SWAP1 DUP2 SWAP1 SUB PUSH1 0x20 ADD SWAP1 RETURN JUMPDEST PUSH2 0xA0 PUSH2 0x1BC JUMP JUMPDEST PUSH2 0xA0 PUSH1 0x4 DUP1 CALLDATASIZE SUB PUSH1 0x20 DUP2 LT ISZERO PUSH2 0xDA JUMPI PUSH1 0x0 DUP1 REVERT JUMPDEST POP CALLDATALOAD PUSH2 0x1CB JUMP JUMPDEST PUSH2 0xE9 PUSH2 0x1F2 JUMP JUMPDEST PUSH1 0x40 DUP1 MLOAD SWAP2 DUP3 MSTORE MLOAD SWAP1 DUP2 SWAP1 SUB PUSH1 0x20 ADD SWAP1 RETURN JUMPDEST PUSH2 0xE9 PUSH2 0x285 JUMP JUMPDEST PUSH2 0x129 PUSH1 0x4 DUP1 CALLDATASIZE SUB PUSH1 0x20 DUP2 LT ISZERO PUSH2 0x119 JUMPI PUSH1 0x0 DUP1 REVERT JUMPDEST POP CALLDATALOAD PUSH1 0x1 PUSH1 0x1 PUSH1 0xA0 SHL SUB AND PUSH2 0x28B JUMP JUMPDEST STOP JUMPDEST PUSH2 0xA0 PUSH1 0x4 DUP1 CALLDATASIZE SUB PUSH1 0x40 DUP2 LT ISZERO PUSH2 0x141 JUMPI PUSH1 0x0 DUP1 REVERT JUMPDEST POP PUSH1 0x1 PUSH1 0x1 PUSH1 0xA0 SHL SUB DUP2 CALLDATALOAD DUP2 AND SWAP2 PUSH1 0x20 ADD CALLDATALOAD AND PUSH2 0x2FF JUMP JUMPDEST PUSH2 0xA0 PUSH1 0x4 DUP1 CALLDATASIZE SUB PUSH1 0x40 DUP2 LT ISZERO PUSH2 0x16F JUMPI PUSH1 0x0 DUP1 REVERT JUMPDEST POP PUSH1 0x1 PUSH1 0x1 PUSH1 0xA0 SHL SUB DUP2 CALLDATALOAD DUP2 AND SWAP2 PUSH1 0x20 ADD CALLDATALOAD AND PUSH2 0x622 JUMP JUMPDEST PUSH2 0x129 PUSH1 0x4 DUP1 CALLDATASIZE SUB PUSH1 0x20 DUP2 LT ISZERO PUSH2 0x19D JUMPI PUSH1 0x0 DUP1 REVERT JUMPDEST POP CALLDATALOAD PUSH1 0x1 PUSH1 0x1 PUSH1 0xA0 SHL SUB AND PUSH2 0x648 JUMP JUMPDEST PUSH1 0x0 SLOAD PUSH1 0x1 PUSH1 0x1 PUSH1 0xA0 SHL SUB AND DUP2 JUMP JUMPDEST PUSH1 0x1 SLOAD PUSH1 0x1 PUSH1 0x1 PUSH1 0xA0 SHL SUB AND DUP2 JUMP JUMPDEST PUSH1 0x3 DUP2 DUP2 SLOAD DUP2 LT PUSH2 0x1D8 JUMPI INVALID JUMPDEST PUSH1 0x0 SWAP2 DUP3 MSTORE PUSH1 0x20 SWAP1 SWAP2 KECCAK256 ADD SLOAD PUSH1 0x1 PUSH1 0x1 PUSH1 0xA0 SHL SUB AND SWAP1 POP DUP2 JUMP JUMPDEST PUSH1 0x40 MLOAD PUSH2 0x201 PUSH1 0x20 DUP3 ADD PUSH2 0x6BC JUMP JUMPDEST PUSH1 0x20 DUP3 ADD DUP2 SUB DUP3 MSTORE PUSH1 0x1F NOT PUSH1 0x1F DUP3 ADD AND PUSH1 0x40 MSTORE POP PUSH1 0x40 MLOAD PUSH1 0x20 ADD DUP1 DUP3 DUP1 MLOAD SWAP1 PUSH1 0x20 ADD SWAP1 DUP1 DUP4 DUP4 JUMPDEST PUSH1 0x20 DUP4 LT PUSH2 0x247 JUMPI DUP1 MLOAD DUP3 MSTORE PUSH1 0x1F NOT SWAP1 SWAP3 ADD SWAP2 PUSH1 0x20 SWAP2 DUP3 ADD SWAP2 ADD PUSH2 0x228 JUMP JUMPDEST PUSH1 0x1 DUP4 PUSH1 0x20 SUB PUSH2 0x100 EXP SUB DUP1 NOT DUP3 MLOAD AND DUP2 DUP5 MLOAD AND DUP1 DUP3 OR DUP6 MSTORE POP POP POP POP POP POP SWAP1 POP ADD SWAP2 POP POP PUSH1 0x40 MLOAD PUSH1 0x20 DUP2 DUP4 SUB SUB DUP2 MSTORE SWAP1 PUSH1 0x40 MSTORE DUP1 MLOAD SWAP1 PUSH1 0x20 ADD KECCAK256 DUP2 JUMP JUMPDEST PUSH1 0x3 SLOAD SWAP1 JUMP JUMPDEST PUSH1 0x1 SLOAD PUSH1 0x1 PUSH1 0x1 PUSH1 0xA0 SHL SUB AND CALLER EQ PUSH2 0x2DD JUMPI PUSH1 0x40 DUP1 MLOAD PUSH3 0x461BCD PUSH1 0xE5 SHL DUP2 MSTORE PUSH1 0x20 PUSH1 0x4 DUP3 ADD MSTORE PUSH1 0x10 PUSH1 0x24 DUP3 ADD MSTORE PUSH16 0x2222AC2B191D102327A92124A22222A7 PUSH1 0x81 SHL PUSH1 0x44 DUP3 ADD MSTORE SWAP1 MLOAD SWAP1 DUP2 SWAP1 SUB PUSH1 0x64 ADD SWAP1 REVERT JUMPDEST PUSH1 0x1 DUP1 SLOAD PUSH1 0x1 PUSH1 0x1 PUSH1 0xA0 SHL SUB NOT AND PUSH1 0x1 PUSH1 0x1 PUSH1 0xA0 SHL SUB SWAP3 SWAP1 SWAP3 AND SWAP2 SWAP1 SWAP2 OR SWAP1 SSTORE JUMP JUMPDEST PUSH1 0x0 DUP2 PUSH1 0x1 PUSH1 0x1 PUSH1 0xA0 SHL SUB AND DUP4 PUSH1 0x1 PUSH1 0x1 PUSH1 0xA0 SHL SUB AND EQ ISZERO PUSH2 0x368 JUMPI PUSH1 0x40 DUP1 MLOAD PUSH3 0x461BCD PUSH1 0xE5 SHL DUP2 MSTORE PUSH1 0x20 PUSH1 0x4 DUP3 ADD MSTORE PUSH1 0x1A PUSH1 0x24 DUP3 ADD MSTORE PUSH32 0x44455856323A204944454E544943414C5F414444524553534553000000000000 PUSH1 0x44 DUP3 ADD MSTORE SWAP1 MLOAD SWAP1 DUP2 SWAP1 SUB PUSH1 0x64 ADD SWAP1 REVERT JUMPDEST PUSH1 0x0 DUP1 DUP4 PUSH1 0x1 PUSH1 0x1 PUSH1 0xA0 SHL SUB AND DUP6 PUSH1 0x1 PUSH1 0x1 PUSH1 0xA0 SHL SUB AND LT PUSH2 0x38B JUMPI DUP4 DUP6 PUSH2 0x38E JUMP JUMPDEST DUP5 DUP5 JUMPDEST SWAP1 SWAP3 POP SWAP1 POP PUSH1 0x1 PUSH1 0x1 PUSH1 0xA0 SHL SUB DUP3 AND PUSH2 0x3E4 JUMPI PUSH1 0x40 DUP1 MLOAD PUSH3 0x461BCD PUSH1 0xE5 SHL DUP2 MSTORE PUSH1 0x20 PUSH1 0x4 DUP3 ADD MSTORE PUSH1 0x13 PUSH1 0x24 DUP3 ADD MSTORE PUSH19 0x44455856323A205A45524F5F41444452455353 PUSH1 0x68 SHL PUSH1 0x44 DUP3 ADD MSTORE SWAP1 MLOAD SWAP1 DUP2 SWAP1 SUB PUSH1 0x64 ADD SWAP1 REVERT JUMPDEST PUSH1 0x1 PUSH1 0x1 PUSH1 0xA0 SHL SUB DUP3 DUP2 AND PUSH1 0x0 SWAP1 DUP2 MSTORE PUSH1 0x2 PUSH1 0x20 SWAP1 DUP2 MSTORE PUSH1 0x40 DUP1 DUP4 KECCAK256 DUP6 DUP6 AND DUP5 MSTORE SWAP1 SWAP2 MSTORE SWAP1 KECCAK256 SLOAD AND ISZERO PUSH2 0x453 JUMPI PUSH1 0x40 DUP1 MLOAD PUSH3 0x461BCD PUSH1 0xE5 SHL DUP2 MSTORE PUSH1 0x20 PUSH1 0x4 DUP3 ADD MSTORE PUSH1 0x12 PUSH1 0x24 DUP3 ADD MSTORE PUSH18 0x44455856323A20504149525F455849535453 PUSH1 0x70 SHL PUSH1 0x44 DUP3 ADD MSTORE SWAP1 MLOAD SWAP1 DUP2 SWAP1 SUB PUSH1 0x64 ADD SWAP1 REVERT JUMPDEST PUSH1 0x60 PUSH1 0x40 MLOAD DUP1 PUSH1 0x20 ADD PUSH2 0x465 SWAP1 PUSH2 0x6BC JUMP JUMPDEST PUSH1 0x20 DUP3 ADD DUP2 SUB DUP3 MSTORE PUSH1 0x1F NOT PUSH1 0x1F DUP3 ADD AND PUSH1 0x40 MSTORE POP SWAP1 POP PUSH1 0x0 DUP4 DUP4 PUSH1 0x40 MLOAD PUSH1 0x20 ADD DUP1 DUP4 PUSH1 0x1 PUSH1 0x1 PUSH1 0xA0 SHL SUB AND PUSH1 0x1 PUSH1 0x1 PUSH1 0xA0 SHL SUB AND PUSH1 0x60 SHL DUP2 MSTORE PUSH1 0x14 ADD DUP3 PUSH1 0x1 PUSH1 0x1 PUSH1 0xA0 SHL SUB AND PUSH1 0x1 PUSH1 0x1 PUSH1 0xA0 SHL SUB AND PUSH1 0x60 SHL DUP2 MSTORE PUSH1 0x14 ADD SWAP3 POP POP POP PUSH1 0x40 MLOAD PUSH1 0x20 DUP2 DUP4 SUB SUB DUP2 MSTORE SWAP1 PUSH1 0x40 MSTORE DUP1 MLOAD SWAP1 PUSH1 0x20 ADD KECCAK256 SWAP1 POP DUP1 DUP3 MLOAD PUSH1 0x20 DUP5 ADD PUSH1 0x0 CREATE2 PUSH1 0x40 DUP1 MLOAD PUSH4 0x485CC955 PUSH1 0xE0 SHL DUP2 MSTORE PUSH1 0x1 PUSH1 0x1 PUSH1 0xA0 SHL SUB DUP8 DUP2 AND PUSH1 0x4 DUP4 ADD MSTORE DUP7 DUP2 AND PUSH1 0x24 DUP4 ADD MSTORE SWAP2 MLOAD SWAP3 SWAP8 POP SWAP1 DUP8 AND SWAP2 PUSH4 0x485CC955 SWAP2 PUSH1 0x44 DUP1 DUP3 ADD SWAP3 PUSH1 0x0 SWAP3 SWAP1 SWAP2 SWAP1 DUP3 SWAP1 SUB ADD DUP2 DUP4 DUP8 DUP1 EXTCODESIZE ISZERO DUP1 ISZERO PUSH2 0x538 JUMPI PUSH1 0x0 DUP1 REVERT JUMPDEST POP GAS CALL ISZERO DUP1 ISZERO PUSH2 0x54C JUMPI RETURNDATASIZE PUSH1 0x0 DUP1 RETURNDATACOPY RETURNDATASIZE PUSH1 0x0 REVERT JUMPDEST POP POP POP POP PUSH1 0x1 PUSH1 0x1 PUSH1 0xA0 SHL SUB DUP5 DUP2 AND PUSH1 0x0 DUP2 DUP2 MSTORE PUSH1 0x2 PUSH1 0x20 DUP2 DUP2 MSTORE PUSH1 0x40 DUP1 DUP5 KECCAK256 DUP10 DUP8 AND DUP1 DUP7 MSTORE SWAP1 DUP4 MSTORE DUP2 DUP6 KECCAK256 DUP1 SLOAD SWAP8 DUP14 AND PUSH1 0x1 PUSH1 0x1 PUSH1 0xA0 SHL SUB NOT SWAP9 DUP10 AND DUP2 OR SWAP1 SWAP2 SSTORE SWAP4 DUP4 MSTORE DUP2 DUP6 KECCAK256 DUP7 DUP7 MSTORE DUP4 MSTORE DUP2 DUP6 KECCAK256 DUP1 SLOAD DUP9 AND DUP6 OR SWAP1 SSTORE PUSH1 0x3 DUP1 SLOAD PUSH1 0x1 DUP2 ADD DUP3 SSTORE SWAP6 DUP2 SWAP1 MSTORE PUSH32 0xC2575A0E9E593C00F959F8C92F12DB2869C3395A3B0502D05E2516446F71F85B SWAP1 SWAP6 ADD DUP1 SLOAD SWAP1 SWAP8 AND DUP5 OR SWAP1 SWAP7 SSTORE SWAP3 SLOAD DUP4 MLOAD SWAP3 DUP4 MSTORE SWAP1 DUP3 ADD MSTORE DUP2 MLOAD PUSH32 0xD3648BD0F6BA80134A33BA9275AC585D9D315F0AD8355CDDEFDE31AFA28D0E9 SWAP3 SWAP2 DUP2 SWAP1 SUB SWAP1 SWAP2 ADD SWAP1 LOG3 POP POP POP POP SWAP3 SWAP2 POP POP JUMP JUMPDEST PUSH1 0x2 PUSH1 0x20 SWAP1 DUP2 MSTORE PUSH1 0x0 SWAP3 DUP4 MSTORE PUSH1 0x40 DUP1 DUP5 KECCAK256 SWAP1 SWAP2 MSTORE SWAP1 DUP3 MSTORE SWAP1 KECCAK256 SLOAD PUSH1 0x1 PUSH1 0x1 PUSH1 0xA0 SHL SUB AND DUP2 JUMP JUMPDEST PUSH1 0x1 SLOAD PUSH1 0x1 PUSH1 0x1 PUSH1 0xA0 SHL SUB AND CALLER EQ PUSH2 0x69A JUMPI PUSH1 0x40 DUP1 MLOAD PUSH3 0x461BCD PUSH1 0xE5 SHL DUP2 MSTORE PUSH1 0x20 PUSH1 0x4 DUP3 ADD MSTORE PUSH1 0x10 PUSH1 0x24 DUP3 ADD MSTORE PUSH16 0x2222AC2B191D102327A92124A22222A7 PUSH1 0x81 SHL PUSH1 0x44 DUP3 ADD MSTORE SWAP1 MLOAD SWAP1 DUP2 SWAP1 SUB PUSH1 0x64 ADD SWAP1 REVERT JUMPDEST PUSH1 0x0 DUP1 SLOAD PUSH1 0x1 PUSH1 0x1 PUSH1 0xA0 SHL SUB NOT AND PUSH1 0x1 PUSH1 0x1 PUSH1 0xA0 SHL SUB SWAP3 SWAP1 SWAP3 AND SWAP2 SWAP1 SWAP2 OR SWAP1 SSTORE JUMP JUMPDEST PUSH2 0x237C DUP1 PUSH2 0x6CA DUP4 CODECOPY ADD SWAP1 JUMP INVALID PUSH1 0x80 PUSH1 0x40 MSTORE PUSH1 0x1 PUSH1 0xC SSTORE CALLVALUE DUP1 ISZERO PUSH2 0x15 JUMPI PUSH1 0x0 DUP1 REVERT JUMPDEST POP PUSH1 0x40 MLOAD CHAINID SWAP1 DUP1 PUSH1 0x52 PUSH2 0x232A DUP3 CODECOPY PUSH1 0x40 DUP1 MLOAD SWAP2 DUP3 SWAP1 SUB PUSH1 0x52 ADD DUP3 KECCAK256 DUP3 DUP3 ADD DUP3 MSTORE PUSH1 0x6 DUP4 MSTORE PUSH6 0x2222AC102B19 PUSH1 0xD1 SHL PUSH1 0x20 SWAP4 DUP5 ADD MSTORE DUP2 MLOAD DUP1 DUP4 ADD DUP4 MSTORE PUSH1 0x1 DUP2 MSTORE PUSH1 0x31 PUSH1 0xF8 SHL SWAP1 DUP5 ADD MSTORE DUP2 MLOAD DUP1 DUP5 ADD SWAP2 SWAP1 SWAP2 MSTORE PUSH32 0xC1C10DCBA44900605795C0D4B2D4C7476E8679A18B4C003D4FB30B906D50EF31 DUP2 DUP4 ADD MSTORE PUSH32 0xC89EFDAA54C0F20C7ADF612882DF0950F5A951637E0307CDCB4C672F298B8BC6 PUSH1 0x60 DUP3 ADD MSTORE PUSH1 0x80 DUP2 ADD SWAP5 SWAP1 SWAP5 MSTORE ADDRESS PUSH1 0xA0 DUP1 DUP7 ADD SWAP2 SWAP1 SWAP2 MSTORE DUP2 MLOAD DUP1 DUP7 SUB SWAP1 SWAP2 ADD DUP2 MSTORE PUSH1 0xC0 SWAP1 SWAP5 ADD SWAP1 MSTORE DUP3 MLOAD SWAP3 ADD SWAP2 SWAP1 SWAP2 KECCAK256 PUSH1 0x3 SSTORE POP PUSH1 0x5 DUP1 SLOAD PUSH1 0x1 PUSH1 0x1 PUSH1 0xA0 SHL SUB NOT AND CALLER OR SWAP1 SSTORE PUSH2 0x2229 DUP1 PUSH2 0x101 PUSH1 0x0 CODECOPY PUSH1 0x0 RETURN INVALID PUSH1 0x80 PUSH1 0x40 MSTORE CALLVALUE DUP1 ISZERO PUSH2 0x10 JUMPI PUSH1 0x0 DUP1 REVERT JUMPDEST POP PUSH1 0x4 CALLDATASIZE LT PUSH2 0x1A9 JUMPI PUSH1 0x0 CALLDATALOAD PUSH1 0xE0 SHR DUP1 PUSH4 0x6A627842 GT PUSH2 0xF9 JUMPI DUP1 PUSH4 0xBA9A7A56 GT PUSH2 0x97 JUMPI DUP1 PUSH4 0xD21220A7 GT PUSH2 0x71 JUMPI DUP1 PUSH4 0xD21220A7 EQ PUSH2 0x534 JUMPI DUP1 PUSH4 0xD505ACCF EQ PUSH2 0x53C JUMPI DUP1 PUSH4 0xDD62ED3E EQ PUSH2 0x58D JUMPI DUP1 PUSH4 0xFFF6CAE9 EQ PUSH2 0x5BB JUMPI PUSH2 0x1A9 JUMP JUMPDEST DUP1 PUSH4 0xBA9A7A56 EQ PUSH2 0x4FE JUMPI DUP1 PUSH4 0xBC25CF77 EQ PUSH2 0x506 JUMPI DUP1 PUSH4 0xC45A0155 EQ PUSH2 0x52C JUMPI PUSH2 0x1A9 JUMP JUMPDEST DUP1 PUSH4 0x7ECEBE00 GT PUSH2 0xD3 JUMPI DUP1 PUSH4 0x7ECEBE00 EQ PUSH2 0x465 JUMPI DUP1 PUSH4 0x89AFCB44 EQ PUSH2 0x48B JUMPI DUP1 PUSH4 0x95D89B41 EQ PUSH2 0x4CA JUMPI DUP1 PUSH4 0xA9059CBB EQ PUSH2 0x4D2 JUMPI PUSH2 0x1A9 JUMP JUMPDEST DUP1 PUSH4 0x6A627842 EQ PUSH2 0x411 JUMPI DUP1 PUSH4 0x70A08231 EQ PUSH2 0x437 JUMPI DUP1 PUSH4 0x7464FC3D EQ PUSH2 0x45D JUMPI PUSH2 0x1A9 JUMP JUMPDEST DUP1 PUSH4 0x23B872DD GT PUSH2 0x166 JUMPI DUP1 PUSH4 0x3644E515 GT PUSH2 0x140 JUMPI DUP1 PUSH4 0x3644E515 EQ PUSH2 0x3CB JUMPI DUP1 PUSH4 0x485CC955 EQ PUSH2 0x3D3 JUMPI DUP1 PUSH4 0x5909C0D5 EQ PUSH2 0x401 JUMPI DUP1 PUSH4 0x5A3D5493 EQ PUSH2 0x409 JUMPI PUSH2 0x1A9 JUMP JUMPDEST DUP1 PUSH4 0x23B872DD EQ PUSH2 0x36F JUMPI DUP1 PUSH4 0x30ADF81F EQ PUSH2 0x3A5 JUMPI DUP1 PUSH4 0x313CE567 EQ PUSH2 0x3AD JUMPI PUSH2 0x1A9 JUMP JUMPDEST DUP1 PUSH4 0x22C0D9F EQ PUSH2 0x1AE JUMPI DUP1 PUSH4 0x6FDDE03 EQ PUSH2 0x23C JUMPI DUP1 PUSH4 0x902F1AC EQ PUSH2 0x2B9 JUMPI DUP1 PUSH4 0x95EA7B3 EQ PUSH2 0x2F1 JUMPI DUP1 PUSH4 0xDFE1681 EQ PUSH2 0x331 JUMPI DUP1 PUSH4 0x18160DDD EQ PUSH2 0x355 JUMPI JUMPDEST PUSH1 0x0 DUP1 REVERT JUMPDEST PUSH2 0x23A PUSH1 0x4 DUP1 CALLDATASIZE SUB PUSH1 0x80 DUP2 LT ISZERO PUSH2 0x1C4 JUMPI PUSH1 0x0 DUP1 REVERT JUMPDEST DUP2 CALLDATALOAD SWAP2 PUSH1 0x20 DUP2 ADD CALLDATALOAD SWAP2 PUSH1 0x1 PUSH1 0x1 PUSH1 0xA0 SHL SUB PUSH1 0x40 DUP4 ADD CALLDATALOAD AND SWAP2 SWAP1 DUP2 ADD SWAP1 PUSH1 0x80 DUP2 ADD PUSH1 0x60 DUP3 ADD CALLDATALOAD PUSH5 0x100000000 DUP2 GT ISZERO PUSH2 0x1FB JUMPI PUSH1 0x0 DUP1 REVERT JUMPDEST DUP3 ADD DUP4 PUSH1 0x20 DUP3 ADD GT ISZERO PUSH2 0x20D JUMPI PUSH1 0x0 DUP1 REVERT JUMPDEST DUP1 CALLDATALOAD SWAP1 PUSH1 0x20 ADD SWAP2 DUP5 PUSH1 0x1 DUP4 MUL DUP5 ADD GT PUSH5 0x100000000 DUP4 GT OR ISZERO PUSH2 0x22F JUMPI PUSH1 0x0 DUP1 REVERT JUMPDEST POP SWAP1 SWAP3 POP SWAP1 POP PUSH2 0x5C3 JUMP JUMPDEST STOP JUMPDEST PUSH2 0x244 PUSH2 0xB1E JUMP JUMPDEST PUSH1 0x40 DUP1 MLOAD PUSH1 0x20 DUP1 DUP3 MSTORE DUP4 MLOAD DUP2 DUP4 ADD MSTORE DUP4 MLOAD SWAP2 SWAP3 DUP4 SWAP3 SWAP1 DUP4 ADD SWAP2 DUP6 ADD SWAP1 DUP1 DUP4 DUP4 PUSH1 0x0 JUMPDEST DUP4 DUP2 LT ISZERO PUSH2 0x27E JUMPI DUP2 DUP2 ADD MLOAD DUP4 DUP3 ADD MSTORE PUSH1 0x20 ADD PUSH2 0x266 JUMP JUMPDEST POP POP POP POP SWAP1 POP SWAP1 DUP2 ADD SWAP1 PUSH1 0x1F AND DUP1 ISZERO PUSH2 0x2AB JUMPI DUP1 DUP3 SUB DUP1 MLOAD PUSH1 0x1 DUP4 PUSH1 0x20 SUB PUSH2 0x100 EXP SUB NOT AND DUP2 MSTORE PUSH1 0x20 ADD SWAP2 POP JUMPDEST POP SWAP3 POP POP POP PUSH1 0x40 MLOAD DUP1 SWAP2 SUB SWAP1 RETURN JUMPDEST PUSH2 0x2C1 PUSH2 0xB40 JUMP JUMPDEST PUSH1 0x40 DUP1 MLOAD PUSH1 0x1 PUSH1 0x1 PUSH1 0x70 SHL SUB SWAP5 DUP6 AND DUP2 MSTORE SWAP3 SWAP1 SWAP4 AND PUSH1 0x20 DUP4 ADD MSTORE PUSH4 0xFFFFFFFF AND DUP2 DUP4 ADD MSTORE SWAP1 MLOAD SWAP1 DUP2 SWAP1 SUB PUSH1 0x60 ADD SWAP1 RETURN JUMPDEST PUSH2 0x31D PUSH1 0x4 DUP1 CALLDATASIZE SUB PUSH1 0x40 DUP2 LT ISZERO PUSH2 0x307 JUMPI PUSH1 0x0 DUP1 REVERT JUMPDEST POP PUSH1 0x1 PUSH1 0x1 PUSH1 0xA0 SHL SUB DUP2 CALLDATALOAD AND SWAP1 PUSH1 0x20 ADD CALLDATALOAD PUSH2 0xB6A JUMP JUMPDEST PUSH1 0x40 DUP1 MLOAD SWAP2 ISZERO ISZERO DUP3 MSTORE MLOAD SWAP1 DUP2 SWAP1 SUB PUSH1 0x20 ADD SWAP1 RETURN JUMPDEST PUSH2 0x339 PUSH2 0xB81 JUMP JUMPDEST PUSH1 0x40 DUP1 MLOAD PUSH1 0x1 PUSH1 0x1 PUSH1 0xA0 SHL SUB SWAP1 SWAP3 AND DUP3 MSTORE MLOAD SWAP1 DUP2 SWAP1 SUB PUSH1 0x20 ADD SWAP1 RETURN JUMPDEST PUSH2 0x35D PUSH2 0xB90 JUMP JUMPDEST PUSH1 0x40 DUP1 MLOAD SWAP2 DUP3 MSTORE MLOAD SWAP1 DUP2 SWAP1 SUB PUSH1 0x20 ADD SWAP1 RETURN JUMPDEST PUSH2 0x31D PUSH1 0x4 DUP1 CALLDATASIZE SUB PUSH1 0x60 DUP2 LT ISZERO PUSH2 0x385 JUMPI PUSH1 0x0 DUP1 REVERT JUMPDEST POP PUSH1 0x1 PUSH1 0x1 PUSH1 0xA0 SHL SUB DUP2 CALLDATALOAD DUP2 AND SWAP2 PUSH1 0x20 DUP2 ADD CALLDATALOAD SWAP1 SWAP2 AND SWAP1 PUSH1 0x40 ADD CALLDATALOAD PUSH2 0xB96 JUMP JUMPDEST PUSH2 0x35D PUSH2 0xC30 JUMP JUMPDEST PUSH2 0x3B5 PUSH2 0xC54 JUMP JUMPDEST PUSH1 0x40 DUP1 MLOAD PUSH1 0xFF SWAP1 SWAP3 AND DUP3 MSTORE MLOAD SWAP1 DUP2 SWAP1 SUB PUSH1 0x20 ADD SWAP1 RETURN JUMPDEST PUSH2 0x35D PUSH2 0xC59 JUMP JUMPDEST PUSH2 0x23A PUSH1 0x4 DUP1 CALLDATASIZE SUB PUSH1 0x40 DUP2 LT ISZERO PUSH2 0x3E9 JUMPI PUSH1 0x0 DUP1 REVERT JUMPDEST POP PUSH1 0x1 PUSH1 0x1 PUSH1 0xA0 SHL SUB DUP2 CALLDATALOAD DUP2 AND SWAP2 PUSH1 0x20 ADD CALLDATALOAD AND PUSH2 0xC5F JUMP JUMPDEST PUSH2 0x35D PUSH2 0xCDF JUMP JUMPDEST PUSH2 0x35D PUSH2 0xCE5 JUMP JUMPDEST PUSH2 0x35D PUSH1 0x4 DUP1 CALLDATASIZE SUB PUSH1 0x20 DUP2 LT ISZERO PUSH2 0x427 JUMPI PUSH1 0x0 DUP1 REVERT JUMPDEST POP CALLDATALOAD PUSH1 0x1 PUSH1 0x1 PUSH1 0xA0 SHL SUB AND PUSH2 0xCEB JUMP JUMPDEST PUSH2 0x35D PUSH1 0x4 DUP1 CALLDATASIZE SUB PUSH1 0x20 DUP2 LT ISZERO PUSH2 0x44D JUMPI PUSH1 0x0 DUP1 REVERT JUMPDEST POP CALLDATALOAD PUSH1 0x1 PUSH1 0x1 PUSH1 0xA0 SHL SUB AND PUSH2 0xFE7 JUMP JUMPDEST PUSH2 0x35D PUSH2 0xFF9 JUMP JUMPDEST PUSH2 0x35D PUSH1 0x4 DUP1 CALLDATASIZE SUB PUSH1 0x20 DUP2 LT ISZERO PUSH2 0x47B JUMPI PUSH1 0x0 DUP1 REVERT JUMPDEST POP CALLDATALOAD PUSH1 0x1 PUSH1 0x1 PUSH1 0xA0 SHL SUB AND PUSH2 0xFFF JUMP JUMPDEST PUSH2 0x4B1 PUSH1 0x4 DUP1 CALLDATASIZE SUB PUSH1 0x20 DUP2 LT ISZERO PUSH2 0x4A1 JUMPI PUSH1 0x0 DUP1 REVERT JUMPDEST POP CALLDATALOAD PUSH1 0x1 PUSH1 0x1 PUSH1 0xA0 SHL SUB AND PUSH2 0x1011 JUMP JUMPDEST PUSH1 0x40 DUP1 MLOAD SWAP3 DUP4 MSTORE PUSH1 0x20 DUP4 ADD SWAP2 SWAP1 SWAP2 MSTORE DUP1 MLOAD SWAP2 DUP3 SWAP1 SUB ADD SWAP1 RETURN JUMPDEST PUSH2 0x244 PUSH2 0x13B3 JUMP JUMPDEST PUSH2 0x31D PUSH1 0x4 DUP1 CALLDATASIZE SUB PUSH1 0x40 DUP2 LT ISZERO PUSH2 0x4E8 JUMPI PUSH1 0x0 DUP1 REVERT JUMPDEST POP PUSH1 0x1 PUSH1 0x1 PUSH1 0xA0 SHL SUB DUP2 CALLDATALOAD AND SWAP1 PUSH1 0x20 ADD CALLDATALOAD PUSH2 0x13D5 JUMP JUMPDEST PUSH2 0x35D PUSH2 0x13E2 JUMP JUMPDEST PUSH2 0x23A PUSH1 0x4 DUP1 CALLDATASIZE SUB PUSH1 0x20 DUP2 LT ISZERO PUSH2 0x51C JUMPI PUSH1 0x0 DUP1 REVERT JUMPDEST POP CALLDATALOAD PUSH1 0x1 PUSH1 0x1 PUSH1 0xA0 SHL SUB AND PUSH2 0x13E8 JUMP JUMPDEST PUSH2 0x339 PUSH2 0x154F JUMP JUMPDEST PUSH2 0x339 PUSH2 0x155E JUMP JUMPDEST PUSH2 0x23A PUSH1 0x4 DUP1 CALLDATASIZE SUB PUSH1 0xE0 DUP2 LT ISZERO PUSH2 0x552 JUMPI PUSH1 0x0 DUP1 REVERT JUMPDEST POP PUSH1 0x1 PUSH1 0x1 PUSH1 0xA0 SHL SUB DUP2 CALLDATALOAD DUP2 AND SWAP2 PUSH1 0x20 DUP2 ADD CALLDATALOAD SWAP1 SWAP2 AND SWAP1 PUSH1 0x40 DUP2 ADD CALLDATALOAD SWAP1 PUSH1 0x60 DUP2 ADD CALLDATALOAD SWAP1 PUSH1 0xFF PUSH1 0x80 DUP3 ADD CALLDATALOAD AND SWAP1 PUSH1 0xA0 DUP2 ADD CALLDATALOAD SWAP1 PUSH1 0xC0 ADD CALLDATALOAD PUSH2 0x156D JUMP JUMPDEST PUSH2 0x35D PUSH1 0x4 DUP1 CALLDATASIZE SUB PUSH1 0x40 DUP2 LT ISZERO PUSH2 0x5A3 JUMPI PUSH1 0x0 DUP1 REVERT JUMPDEST POP PUSH1 0x1 PUSH1 0x1 PUSH1 0xA0 SHL SUB DUP2 CALLDATALOAD DUP2 AND SWAP2 PUSH1 0x20 ADD CALLDATALOAD AND PUSH2 0x176B JUMP JUMPDEST PUSH2 0x23A PUSH2 0x1788 JUMP JUMPDEST PUSH1 0xC SLOAD PUSH1 0x1 EQ PUSH2 0x60A JUMPI PUSH1 0x40 DUP1 MLOAD PUSH3 0x461BCD PUSH1 0xE5 SHL DUP2 MSTORE PUSH1 0x20 PUSH1 0x4 DUP3 ADD MSTORE PUSH1 0xD PUSH1 0x24 DUP3 ADD MSTORE PUSH13 0x111156158C8E881313D0D2D151 PUSH1 0x9A SHL PUSH1 0x44 DUP3 ADD MSTORE SWAP1 MLOAD SWAP1 DUP2 SWAP1 SUB PUSH1 0x64 ADD SWAP1 REVERT JUMPDEST PUSH1 0x0 PUSH1 0xC SSTORE DUP5 ISZERO ISZERO DUP1 PUSH2 0x61D JUMPI POP PUSH1 0x0 DUP5 GT JUMPDEST PUSH2 0x658 JUMPI PUSH1 0x40 MLOAD PUSH3 0x461BCD PUSH1 0xE5 SHL DUP2 MSTORE PUSH1 0x4 ADD DUP1 DUP1 PUSH1 0x20 ADD DUP3 DUP2 SUB DUP3 MSTORE PUSH1 0x21 DUP2 MSTORE PUSH1 0x20 ADD DUP1 PUSH2 0x21D4 PUSH1 0x21 SWAP2 CODECOPY PUSH1 0x40 ADD SWAP2 POP POP PUSH1 0x40 MLOAD DUP1 SWAP2 SUB SWAP1 REVERT JUMPDEST PUSH1 0x0 DUP1 PUSH2 0x663 PUSH2 0xB40 JUMP JUMPDEST POP SWAP2 POP SWAP2 POP DUP2 PUSH1 0x1 PUSH1 0x1 PUSH1 0x70 SHL SUB AND DUP8 LT DUP1 ISZERO PUSH2 0x688 JUMPI POP DUP1 PUSH1 0x1 PUSH1 0x1 PUSH1 0x70 SHL SUB AND DUP7 LT JUMPDEST PUSH2 0x6D9 JUMPI PUSH1 0x40 DUP1 MLOAD PUSH3 0x461BCD PUSH1 0xE5 SHL DUP2 MSTORE PUSH1 0x20 PUSH1 0x4 DUP3 ADD MSTORE PUSH1 0x1D PUSH1 0x24 DUP3 ADD MSTORE PUSH32 0x44455856323A20494E53554646494349454E545F4C4951554944495459000000 PUSH1 0x44 DUP3 ADD MSTORE SWAP1 MLOAD SWAP1 DUP2 SWAP1 SUB PUSH1 0x64 ADD SWAP1 REVERT JUMPDEST PUSH1 0x6 SLOAD PUSH1 0x7 SLOAD PUSH1 0x0 SWAP2 DUP3 SWAP2 PUSH1 0x1 PUSH1 0x1 PUSH1 0xA0 SHL SUB SWAP2 DUP3 AND SWAP2 SWAP1 DUP2 AND SWAP1 DUP10 AND DUP3 EQ DUP1 ISZERO SWAP1 PUSH2 0x717 JUMPI POP DUP1 PUSH1 0x1 PUSH1 0x1 PUSH1 0xA0 SHL SUB AND DUP10 PUSH1 0x1 PUSH1 0x1 PUSH1 0xA0 SHL SUB AND EQ ISZERO JUMPDEST PUSH2 0x75C JUMPI PUSH1 0x40 DUP1 MLOAD PUSH3 0x461BCD PUSH1 0xE5 SHL DUP2 MSTORE PUSH1 0x20 PUSH1 0x4 DUP3 ADD MSTORE PUSH1 0x11 PUSH1 0x24 DUP3 ADD MSTORE PUSH17 0x44455856323A20494E56414C49445F544F PUSH1 0x78 SHL PUSH1 0x44 DUP3 ADD MSTORE SWAP1 MLOAD SWAP1 DUP2 SWAP1 SUB PUSH1 0x64 ADD SWAP1 REVERT JUMPDEST DUP11 ISZERO PUSH2 0x76D JUMPI PUSH2 0x76D DUP3 DUP11 DUP14 PUSH2 0x18E6 JUMP JUMPDEST DUP10 ISZERO PUSH2 0x77E JUMPI PUSH2 0x77E DUP2 DUP11 DUP13 PUSH2 0x18E6 JUMP JUMPDEST DUP7 ISZERO PUSH2 0x839 JUMPI DUP9 PUSH1 0x1 PUSH1 0x1 PUSH1 0xA0 SHL SUB AND PUSH4 0xD48D2648 CALLER DUP14 DUP14 DUP13 DUP13 PUSH1 0x40 MLOAD DUP7 PUSH4 0xFFFFFFFF AND PUSH1 0xE0 SHL DUP2 MSTORE PUSH1 0x4 ADD DUP1 DUP7 PUSH1 0x1 PUSH1 0x1 PUSH1 0xA0 SHL SUB AND PUSH1 0x1 PUSH1 0x1 PUSH1 0xA0 SHL SUB AND DUP2 MSTORE PUSH1 0x20 ADD DUP6 DUP2 MSTORE PUSH1 0x20 ADD DUP5 DUP2 MSTORE PUSH1 0x20 ADD DUP1 PUSH1 0x20 ADD DUP3 DUP2 SUB DUP3 MSTORE DUP5 DUP5 DUP3 DUP2 DUP2 MSTORE PUSH1 0x20 ADD SWAP3 POP DUP1 DUP3 DUP5 CALLDATACOPY PUSH1 0x0 DUP2 DUP5 ADD MSTORE PUSH1 0x1F NOT PUSH1 0x1F DUP3 ADD AND SWAP1 POP DUP1 DUP4 ADD SWAP3 POP POP POP SWAP7 POP POP POP POP POP POP POP PUSH1 0x0 PUSH1 0x40 MLOAD DUP1 DUP4 SUB DUP2 PUSH1 0x0 DUP8 DUP1 EXTCODESIZE ISZERO DUP1 ISZERO PUSH2 0x820 JUMPI PUSH1 0x0 DUP1 REVERT JUMPDEST POP GAS CALL ISZERO DUP1 ISZERO PUSH2 0x834 JUMPI RETURNDATASIZE PUSH1 0x0 DUP1 RETURNDATACOPY RETURNDATASIZE PUSH1 0x0 REVERT JUMPDEST POP POP POP POP JUMPDEST PUSH1 0x40 DUP1 MLOAD PUSH4 0x70A08231 PUSH1 0xE0 SHL DUP2 MSTORE ADDRESS PUSH1 0x4 DUP3 ADD MSTORE SWAP1 MLOAD PUSH1 0x1 PUSH1 0x1 PUSH1 0xA0 SHL SUB DUP5 AND SWAP2 PUSH4 0x70A08231 SWAP2 PUSH1 0x24 DUP1 DUP4 ADD SWAP3 PUSH1 0x20 SWAP3 SWAP2 SWAP1 DUP3 SWAP1 SUB ADD DUP2 DUP7 DUP1 EXTCODESIZE ISZERO DUP1 ISZERO PUSH2 0x87F JUMPI PUSH1 0x0 DUP1 REVERT JUMPDEST POP GAS STATICCALL ISZERO DUP1 ISZERO PUSH2 0x893 JUMPI RETURNDATASIZE PUSH1 0x0 DUP1 RETURNDATACOPY RETURNDATASIZE PUSH1 0x0 REVERT JUMPDEST POP POP POP POP PUSH1 0x40 MLOAD RETURNDATASIZE PUSH1 0x20 DUP2 LT ISZERO PUSH2 0x8A9 JUMPI PUSH1 0x0 DUP1 REVERT JUMPDEST POP MLOAD PUSH1 0x40 DUP1 MLOAD PUSH4 0x70A08231 PUSH1 0xE0 SHL DUP2 MSTORE ADDRESS PUSH1 0x4 DUP3 ADD MSTORE SWAP1 MLOAD SWAP2 SWAP6 POP PUSH1 0x1 PUSH1 0x1 PUSH1 0xA0 SHL SUB DUP4 AND SWAP2 PUSH4 0x70A08231 SWAP2 PUSH1 0x24 DUP1 DUP3 ADD SWAP3 PUSH1 0x20 SWAP3 SWAP1 SWAP2 SWAP1 DUP3 SWAP1 SUB ADD DUP2 DUP7 DUP1 EXTCODESIZE ISZERO DUP1 ISZERO PUSH2 0x8F5 JUMPI PUSH1 0x0 DUP1 REVERT JUMPDEST POP GAS STATICCALL ISZERO DUP1 ISZERO PUSH2 0x909 JUMPI RETURNDATASIZE PUSH1 0x0 DUP1 RETURNDATACOPY RETURNDATASIZE PUSH1 0x0 REVERT JUMPDEST POP POP POP POP PUSH1 0x40 MLOAD RETURNDATASIZE PUSH1 0x20 DUP2 LT ISZERO PUSH2 0x91F JUMPI PUSH1 0x0 DUP1 REVERT JUMPDEST POP MLOAD SWAP3 POP PUSH1 0x0 SWAP2 POP POP PUSH1 0x1 PUSH1 0x1 PUSH1 0x70 SHL SUB DUP6 AND DUP11 SWAP1 SUB DUP4 GT PUSH2 0x942 JUMPI PUSH1 0x0 PUSH2 0x951 JUMP JUMPDEST DUP10 DUP6 PUSH1 0x1 PUSH1 0x1 PUSH1 0x70 SHL SUB AND SUB DUP4 SUB JUMPDEST SWAP1 POP PUSH1 0x0 DUP10 DUP6 PUSH1 0x1 PUSH1 0x1 PUSH1 0x70 SHL SUB AND SUB DUP4 GT PUSH2 0x96E JUMPI PUSH1 0x0 PUSH2 0x97D JUMP JUMPDEST DUP10 DUP6 PUSH1 0x1 PUSH1 0x1 PUSH1 0x70 SHL SUB AND SUB DUP4 SUB JUMPDEST SWAP1 POP PUSH1 0x0 DUP3 GT DUP1 PUSH2 0x98E JUMPI POP PUSH1 0x0 DUP2 GT JUMPDEST PUSH2 0x9DF JUMPI PUSH1 0x40 DUP1 MLOAD PUSH3 0x461BCD PUSH1 0xE5 SHL DUP2 MSTORE PUSH1 0x20 PUSH1 0x4 DUP3 ADD DUP2 SWAP1 MSTORE PUSH1 0x24 DUP3 ADD MSTORE PUSH32 0x44455856323A20494E53554646494349454E545F494E5055545F414D4F554E54 PUSH1 0x44 DUP3 ADD MSTORE SWAP1 MLOAD SWAP1 DUP2 SWAP1 SUB PUSH1 0x64 ADD SWAP1 REVERT JUMPDEST PUSH1 0x0 PUSH2 0xA13 PUSH2 0x9F5 DUP5 PUSH1 0x3 PUSH4 0xFFFFFFFF PUSH2 0x1A79 AND JUMP JUMPDEST PUSH2 0xA07 DUP8 PUSH2 0x3E8 PUSH4 0xFFFFFFFF PUSH2 0x1A79 AND JUMP JUMPDEST SWAP1 PUSH4 0xFFFFFFFF PUSH2 0x1ADC AND JUMP JUMPDEST SWAP1 POP PUSH1 0x0 PUSH2 0xA2B PUSH2 0x9F5 DUP5 PUSH1 0x3 PUSH4 0xFFFFFFFF PUSH2 0x1A79 AND JUMP JUMPDEST SWAP1 POP PUSH2 0xA5C PUSH3 0xF4240 PUSH2 0xA50 PUSH1 0x1 PUSH1 0x1 PUSH1 0x70 SHL SUB DUP12 DUP2 AND SWAP1 DUP12 AND PUSH4 0xFFFFFFFF PUSH2 0x1A79 AND JUMP JUMPDEST SWAP1 PUSH4 0xFFFFFFFF PUSH2 0x1A79 AND JUMP JUMPDEST PUSH2 0xA6C DUP4 DUP4 PUSH4 0xFFFFFFFF PUSH2 0x1A79 AND JUMP JUMPDEST LT ISZERO PUSH2 0xAAA JUMPI PUSH1 0x40 DUP1 MLOAD PUSH3 0x461BCD PUSH1 0xE5 SHL DUP2 MSTORE PUSH1 0x20 PUSH1 0x4 DUP3 ADD MSTORE PUSH1 0x8 PUSH1 0x24 DUP3 ADD MSTORE PUSH8 0x44455856323A204B PUSH1 0xC0 SHL PUSH1 0x44 DUP3 ADD MSTORE SWAP1 MLOAD SWAP1 DUP2 SWAP1 SUB PUSH1 0x64 ADD SWAP1 REVERT JUMPDEST POP POP PUSH2 0xAB8 DUP5 DUP5 DUP9 DUP9 PUSH2 0x1B2C JUMP JUMPDEST PUSH1 0x40 DUP1 MLOAD DUP4 DUP2 MSTORE PUSH1 0x20 DUP2 ADD DUP4 SWAP1 MSTORE DUP1 DUP3 ADD DUP14 SWAP1 MSTORE PUSH1 0x60 DUP2 ADD DUP13 SWAP1 MSTORE SWAP1 MLOAD PUSH1 0x1 PUSH1 0x1 PUSH1 0xA0 SHL SUB DUP12 AND SWAP2 CALLER SWAP2 PUSH32 0xD78AD95FA46C994B6551D0DA85FC275FE613CE37657FB8D5E3D130840159D822 SWAP2 DUP2 SWAP1 SUB PUSH1 0x80 ADD SWAP1 LOG3 POP POP PUSH1 0x1 PUSH1 0xC SSTORE POP POP POP POP POP POP POP POP POP JUMP JUMPDEST PUSH1 0x40 MLOAD DUP1 PUSH1 0x40 ADD PUSH1 0x40 MSTORE DUP1 PUSH1 0x6 DUP2 MSTORE PUSH1 0x20 ADD PUSH6 0x2222AC102B19 PUSH1 0xD1 SHL DUP2 MSTORE POP DUP2 JUMP JUMPDEST PUSH1 0x8 SLOAD PUSH1 0x1 PUSH1 0x1 PUSH1 0x70 SHL SUB DUP1 DUP3 AND SWAP3 PUSH1 0x1 PUSH1 0x70 SHL DUP4 DIV SWAP1 SWAP2 AND SWAP2 PUSH1 0x1 PUSH1 0xE0 SHL SWAP1 DIV PUSH4 0xFFFFFFFF AND SWAP1 JUMP JUMPDEST PUSH1 0x0 PUSH2 0xB77 CALLER DUP5 DUP5 PUSH2 0x1CED JUMP JUMPDEST POP PUSH1 0x1 JUMPDEST SWAP3 SWAP2 POP POP JUMP JUMPDEST PUSH1 0x6 SLOAD PUSH1 0x1 PUSH1 0x1 PUSH1 0xA0 SHL SUB AND DUP2 JUMP JUMPDEST PUSH1 0x0 SLOAD DUP2 JUMP JUMPDEST PUSH1 0x1 PUSH1 0x1 PUSH1 0xA0 SHL SUB DUP4 AND PUSH1 0x0 SWAP1 DUP2 MSTORE PUSH1 0x2 PUSH1 0x20 SWAP1 DUP2 MSTORE PUSH1 0x40 DUP1 DUP4 KECCAK256 CALLER DUP5 MSTORE SWAP1 SWAP2 MSTORE DUP2 KECCAK256 SLOAD PUSH1 0x0 NOT EQ PUSH2 0xC1B JUMPI PUSH1 0x1 PUSH1 0x1 PUSH1 0xA0 SHL SUB DUP5 AND PUSH1 0x0 SWAP1 DUP2 MSTORE PUSH1 0x2 PUSH1 0x20 SWAP1 DUP2 MSTORE PUSH1 0x40 DUP1 DUP4 KECCAK256 CALLER DUP5 MSTORE SWAP1 SWAP2 MSTORE SWAP1 KECCAK256 SLOAD PUSH2 0xBF6 SWAP1 DUP4 PUSH4 0xFFFFFFFF PUSH2 0x1ADC AND JUMP JUMPDEST PUSH1 0x1 PUSH1 0x1 PUSH1 0xA0 SHL SUB DUP6 AND PUSH1 0x0 SWAP1 DUP2 MSTORE PUSH1 0x2 PUSH1 0x20 SWAP1 DUP2 MSTORE PUSH1 0x40 DUP1 DUP4 KECCAK256 CALLER DUP5 MSTORE SWAP1 SWAP2 MSTORE SWAP1 KECCAK256 SSTORE JUMPDEST PUSH2 0xC26 DUP5 DUP5 DUP5 PUSH2 0x1D4F JUMP JUMPDEST POP PUSH1 0x1 SWAP4 SWAP3 POP POP POP JUMP JUMPDEST PUSH32 0x6E71EDAE12B1B97F4D1F60370FEF10105FA2FAAE0126114A169C64845D6126C9 DUP2 JUMP JUMPDEST PUSH1 0x12 DUP2 JUMP JUMPDEST PUSH1 0x3 SLOAD DUP2 JUMP JUMPDEST PUSH1 0x5 SLOAD PUSH1 0x1 PUSH1 0x1 PUSH1 0xA0 SHL SUB AND CALLER EQ PUSH2 0xCB1 JUMPI PUSH1 0x40 DUP1 MLOAD PUSH3 0x461BCD PUSH1 0xE5 SHL DUP2 MSTORE PUSH1 0x20 PUSH1 0x4 DUP3 ADD MSTORE PUSH1 0x10 PUSH1 0x24 DUP3 ADD MSTORE PUSH16 0x2222AC2B191D102327A92124A22222A7 PUSH1 0x81 SHL PUSH1 0x44 DUP3 ADD MSTORE SWAP1 MLOAD SWAP1 DUP2 SWAP1 SUB PUSH1 0x64 ADD SWAP1 REVERT JUMPDEST PUSH1 0x6 DUP1 SLOAD PUSH1 0x1 PUSH1 0x1 PUSH1 0xA0 SHL SUB SWAP4 DUP5 AND PUSH1 0x1 PUSH1 0x1 PUSH1 0xA0 SHL SUB NOT SWAP2 DUP3 AND OR SWAP1 SWAP2 SSTORE PUSH1 0x7 DUP1 SLOAD SWAP3 SWAP1 SWAP4 AND SWAP2 AND OR SWAP1 SSTORE JUMP JUMPDEST PUSH1 0x9 SLOAD DUP2 JUMP JUMPDEST PUSH1 0xA SLOAD DUP2 JUMP JUMPDEST PUSH1 0x0 PUSH1 0xC SLOAD PUSH1 0x1 EQ PUSH2 0xD34 JUMPI PUSH1 0x40 DUP1 MLOAD PUSH3 0x461BCD PUSH1 0xE5 SHL DUP2 MSTORE PUSH1 0x20 PUSH1 0x4 DUP3 ADD MSTORE PUSH1 0xD PUSH1 0x24 DUP3 ADD MSTORE PUSH13 0x111156158C8E881313D0D2D151 PUSH1 0x9A SHL PUSH1 0x44 DUP3 ADD MSTORE SWAP1 MLOAD SWAP1 DUP2 SWAP1 SUB PUSH1 0x64 ADD SWAP1 REVERT JUMPDEST PUSH1 0x0 PUSH1 0xC DUP2 SWAP1 SSTORE DUP1 PUSH2 0xD44 PUSH2 0xB40 JUMP JUMPDEST POP PUSH1 0x6 SLOAD PUSH1 0x40 DUP1 MLOAD PUSH4 0x70A08231 PUSH1 0xE0 SHL DUP2 MSTORE ADDRESS PUSH1 0x4 DUP3 ADD MSTORE SWAP1 MLOAD SWAP4 SWAP6 POP SWAP2 SWAP4 POP PUSH1 0x0 SWAP3 PUSH1 0x1 PUSH1 0x1 PUSH1 0xA0 SHL SUB SWAP1 SWAP2 AND SWAP2 PUSH4 0x70A08231 SWAP2 PUSH1 0x24 DUP1 DUP4 ADD SWAP3 PUSH1 0x20 SWAP3 SWAP2 SWAP1 DUP3 SWAP1 SUB ADD DUP2 DUP7 DUP1 EXTCODESIZE ISZERO DUP1 ISZERO PUSH2 0xD98 JUMPI PUSH1 0x0 DUP1 REVERT JUMPDEST POP GAS STATICCALL ISZERO DUP1 ISZERO PUSH2 0xDAC JUMPI RETURNDATASIZE PUSH1 0x0 DUP1 RETURNDATACOPY RETURNDATASIZE PUSH1 0x0 REVERT JUMPDEST POP POP POP POP PUSH1 0x40 MLOAD RETURNDATASIZE PUSH1 0x20 DUP2 LT ISZERO PUSH2 0xDC2 JUMPI PUSH1 0x0 DUP1 REVERT JUMPDEST POP MLOAD PUSH1 0x7 SLOAD PUSH1 0x40 DUP1 MLOAD PUSH4 0x70A08231 PUSH1 0xE0 SHL DUP2 MSTORE ADDRESS PUSH1 0x4 DUP3 ADD MSTORE SWAP1 MLOAD SWAP3 SWAP4 POP PUSH1 0x0 SWAP3 PUSH1 0x1 PUSH1 0x1 PUSH1 0xA0 SHL SUB SWAP1 SWAP3 AND SWAP2 PUSH4 0x70A08231 SWAP2 PUSH1 0x24 DUP1 DUP3 ADD SWAP3 PUSH1 0x20 SWAP3 SWAP1 SWAP2 SWAP1 DUP3 SWAP1 SUB ADD DUP2 DUP7 DUP1 EXTCODESIZE ISZERO DUP1 ISZERO PUSH2 0xE15 JUMPI PUSH1 0x0 DUP1 REVERT JUMPDEST POP GAS STATICCALL ISZERO DUP1 ISZERO PUSH2 0xE29 JUMPI RETURNDATASIZE PUSH1 0x0 DUP1 RETURNDATACOPY RETURNDATASIZE PUSH1 0x0 REVERT JUMPDEST POP POP POP POP PUSH1 0x40 MLOAD RETURNDATASIZE PUSH1 0x20 DUP2 LT ISZERO PUSH2 0xE3F JUMPI PUSH1 0x0 DUP1 REVERT JUMPDEST POP MLOAD SWAP1 POP PUSH1 0x0 PUSH2 0xE5E DUP4 PUSH1 0x1 PUSH1 0x1 PUSH1 0x70 SHL SUB DUP8 AND PUSH4 0xFFFFFFFF PUSH2 0x1ADC AND JUMP JUMPDEST SWAP1 POP PUSH1 0x0 PUSH2 0xE7B DUP4 PUSH1 0x1 PUSH1 0x1 PUSH1 0x70 SHL SUB DUP8 AND PUSH4 0xFFFFFFFF PUSH2 0x1ADC AND JUMP JUMPDEST SWAP1 POP PUSH1 0x0 PUSH2 0xE89 DUP8 DUP8 PUSH2 0x1E09 JUMP JUMPDEST PUSH1 0x0 SLOAD SWAP1 SWAP2 POP DUP1 PUSH2 0xEC6 JUMPI PUSH2 0xEB2 PUSH2 0x3E8 PUSH2 0xA07 PUSH2 0xEAD DUP8 DUP8 PUSH4 0xFFFFFFFF PUSH2 0x1A79 AND JUMP JUMPDEST PUSH2 0x1F67 JUMP JUMPDEST SWAP9 POP PUSH2 0xEC1 PUSH1 0x0 PUSH2 0x3E8 PUSH2 0x1FB9 JUMP JUMPDEST PUSH2 0xF15 JUMP JUMPDEST PUSH2 0xF12 PUSH1 0x1 PUSH1 0x1 PUSH1 0x70 SHL SUB DUP10 AND PUSH2 0xEE3 DUP7 DUP5 PUSH4 0xFFFFFFFF PUSH2 0x1A79 AND JUMP JUMPDEST DUP2 PUSH2 0xEEA JUMPI INVALID JUMPDEST DIV PUSH1 0x1 PUSH1 0x1 PUSH1 0x70 SHL SUB DUP10 AND PUSH2 0xF05 DUP7 DUP6 PUSH4 0xFFFFFFFF PUSH2 0x1A79 AND JUMP JUMPDEST DUP2 PUSH2 0xF0C JUMPI INVALID JUMPDEST DIV PUSH2 0x204F JUMP JUMPDEST SWAP9 POP JUMPDEST PUSH1 0x0 DUP10 GT PUSH2 0xF54 JUMPI PUSH1 0x40 MLOAD PUSH3 0x461BCD PUSH1 0xE5 SHL DUP2 MSTORE PUSH1 0x4 ADD DUP1 DUP1 PUSH1 0x20 ADD DUP3 DUP2 SUB DUP3 MSTORE PUSH1 0x24 DUP2 MSTORE PUSH1 0x20 ADD DUP1 PUSH2 0x218C PUSH1 0x24 SWAP2 CODECOPY PUSH1 0x40 ADD SWAP2 POP POP PUSH1 0x40 MLOAD DUP1 SWAP2 SUB SWAP1 REVERT JUMPDEST PUSH2 0xF5E DUP11 DUP11 PUSH2 0x1FB9 JUMP JUMPDEST PUSH2 0xF6A DUP7 DUP7 DUP11 DUP11 PUSH2 0x1B2C JUMP JUMPDEST DUP2 ISZERO PUSH2 0xF9A JUMPI PUSH1 0x8 SLOAD PUSH2 0xF96 SWAP1 PUSH1 0x1 PUSH1 0x1 PUSH1 0x70 SHL SUB DUP1 DUP3 AND SWAP2 PUSH1 0x1 PUSH1 0x70 SHL SWAP1 DIV AND PUSH4 0xFFFFFFFF PUSH2 0x1A79 AND JUMP JUMPDEST PUSH1 0xB SSTORE JUMPDEST PUSH1 0x40 DUP1 MLOAD DUP6 DUP2 MSTORE PUSH1 0x20 DUP2 ADD DUP6 SWAP1 MSTORE DUP2 MLOAD CALLER SWAP3 PUSH32 0x4C209B5FC8AD50758F13E2E1088BA56A560DFF690A1C6FEF26394F4C03821C4F SWAP3 DUP3 SWAP1 SUB ADD SWAP1 LOG2 POP POP PUSH1 0x1 PUSH1 0xC SSTORE POP SWAP5 SWAP7 SWAP6 POP POP POP POP POP POP JUMP JUMPDEST PUSH1 0x1 PUSH1 0x20 MSTORE PUSH1 0x0 SWAP1 DUP2 MSTORE PUSH1 0x40 SWAP1 KECCAK256 SLOAD DUP2 JUMP JUMPDEST PUSH1 0xB SLOAD DUP2 JUMP JUMPDEST PUSH1 0x4 PUSH1 0x20 MSTORE PUSH1 0x0 SWAP1 DUP2 MSTORE PUSH1 0x40 SWAP1 KECCAK256 SLOAD DUP2 JUMP JUMPDEST PUSH1 0x0 DUP1 PUSH1 0xC SLOAD PUSH1 0x1 EQ PUSH2 0x105B JUMPI PUSH1 0x40 DUP1 MLOAD PUSH3 0x461BCD PUSH1 0xE5 SHL DUP2 MSTORE PUSH1 0x20 PUSH1 0x4 DUP3 ADD MSTORE PUSH1 0xD PUSH1 0x24 DUP3 ADD MSTORE PUSH13 0x111156158C8E881313D0D2D151 PUSH1 0x9A SHL PUSH1 0x44 DUP3 ADD MSTORE SWAP1 MLOAD SWAP1 DUP2 SWAP1 SUB PUSH1 0x64 ADD SWAP1 REVERT JUMPDEST PUSH1 0x0 PUSH1 0xC DUP2 SWAP1 SSTORE DUP1 PUSH2 0x106B PUSH2 0xB40 JUMP JUMPDEST POP PUSH1 0x6 SLOAD PUSH1 0x7 SLOAD PUSH1 0x40 DUP1 MLOAD PUSH4 0x70A08231 PUSH1 0xE0 SHL DUP2 MSTORE ADDRESS PUSH1 0x4 DUP3 ADD MSTORE SWAP1 MLOAD SWAP5 SWAP7 POP SWAP3 SWAP5 POP PUSH1 0x1 PUSH1 0x1 PUSH1 0xA0 SHL SUB SWAP2 DUP3 AND SWAP4 SWAP2 AND SWAP2 PUSH1 0x0 SWAP2 DUP5 SWAP2 PUSH4 0x70A08231 SWAP2 PUSH1 0x24 DUP1 DUP4 ADD SWAP3 PUSH1 0x20 SWAP3 SWAP2 SWAP1 DUP3 SWAP1 SUB ADD DUP2 DUP7 DUP1 EXTCODESIZE ISZERO DUP1 ISZERO PUSH2 0x10C7 JUMPI PUSH1 0x0 DUP1 REVERT JUMPDEST POP GAS STATICCALL ISZERO DUP1 ISZERO PUSH2 0x10DB JUMPI RETURNDATASIZE PUSH1 0x0 DUP1 RETURNDATACOPY RETURNDATASIZE PUSH1 0x0 REVERT JUMPDEST POP POP POP POP PUSH1 0x40 MLOAD RETURNDATASIZE PUSH1 0x20 DUP2 LT ISZERO PUSH2 0x10F1 JUMPI PUSH1 0x0 DUP1 REVERT JUMPDEST POP MLOAD PUSH1 0x40 DUP1 MLOAD PUSH4 0x70A08231 PUSH1 0xE0 SHL DUP2 MSTORE ADDRESS PUSH1 0x4 DUP3 ADD MSTORE SWAP1 MLOAD SWAP2 SWAP3 POP PUSH1 0x0 SWAP2 PUSH1 0x1 PUSH1 0x1 PUSH1 0xA0 SHL SUB DUP6 AND SWAP2 PUSH4 0x70A08231 SWAP2 PUSH1 0x24 DUP1 DUP4 ADD SWAP3 PUSH1 0x20 SWAP3 SWAP2 SWAP1 DUP3 SWAP1 SUB ADD DUP2 DUP7 DUP1 EXTCODESIZE ISZERO DUP1 ISZERO PUSH2 0x113F JUMPI PUSH1 0x0 DUP1 REVERT JUMPDEST POP GAS STATICCALL ISZERO DUP1 ISZERO PUSH2 0x1153 JUMPI RETURNDATASIZE PUSH1 0x0 DUP1 RETURNDATACOPY RETURNDATASIZE PUSH1 0x0 REVERT JUMPDEST POP POP POP POP PUSH1 0x40 MLOAD RETURNDATASIZE PUSH1 0x20 DUP2 LT ISZERO PUSH2 0x1169 JUMPI PUSH1 0x0 DUP1 REVERT JUMPDEST POP MLOAD ADDRESS PUSH1 0x0 SWAP1 DUP2 MSTORE PUSH1 0x1 PUSH1 0x20 MSTORE PUSH1 0x40 DUP2 KECCAK256 SLOAD SWAP2 SWAP3 POP PUSH2 0x1188 DUP9 DUP9 PUSH2 0x1E09 JUMP JUMPDEST PUSH1 0x0 SLOAD SWAP1 SWAP2 POP DUP1 PUSH2 0x119F DUP5 DUP8 PUSH4 0xFFFFFFFF PUSH2 0x1A79 AND JUMP JUMPDEST DUP2 PUSH2 0x11A6 JUMPI INVALID JUMPDEST DIV SWAP11 POP DUP1 PUSH2 0x11BA DUP5 DUP7 PUSH4 0xFFFFFFFF PUSH2 0x1A79 AND JUMP JUMPDEST DUP2 PUSH2 0x11C1 JUMPI INVALID JUMPDEST DIV SWAP10 POP PUSH1 0x0 DUP12 GT DUP1 ISZERO PUSH2 0x11D4 JUMPI POP PUSH1 0x0 DUP11 GT JUMPDEST PUSH2 0x120F JUMPI PUSH1 0x40 MLOAD PUSH3 0x461BCD PUSH1 0xE5 SHL DUP2 MSTORE PUSH1 0x4 ADD DUP1 DUP1 PUSH1 0x20 ADD DUP3 DUP2 SUB DUP3 MSTORE PUSH1 0x24 DUP2 MSTORE PUSH1 0x20 ADD DUP1 PUSH2 0x21B0 PUSH1 0x24 SWAP2 CODECOPY PUSH1 0x40 ADD SWAP2 POP POP PUSH1 0x40 MLOAD DUP1 SWAP2 SUB SWAP1 REVERT JUMPDEST PUSH2 0x1219 ADDRESS DUP5 PUSH2 0x2067 JUMP JUMPDEST PUSH2 0x1224 DUP8 DUP14 DUP14 PUSH2 0x18E6 JUMP JUMPDEST PUSH2 0x122F DUP7 DUP14 DUP13 PUSH2 0x18E6 JUMP JUMPDEST PUSH1 0x40 DUP1 MLOAD PUSH4 0x70A08231 PUSH1 0xE0 SHL DUP2 MSTORE ADDRESS PUSH1 0x4 DUP3 ADD MSTORE SWAP1 MLOAD PUSH1 0x1 PUSH1 0x1 PUSH1 0xA0 SHL SUB DUP10 AND SWAP2 PUSH4 0x70A08231 SWAP2 PUSH1 0x24 DUP1 DUP4 ADD SWAP3 PUSH1 0x20 SWAP3 SWAP2 SWAP1 DUP3 SWAP1 SUB ADD DUP2 DUP7 DUP1 EXTCODESIZE ISZERO DUP1 ISZERO PUSH2 0x1275 JUMPI PUSH1 0x0 DUP1 REVERT JUMPDEST POP GAS STATICCALL ISZERO DUP1 ISZERO PUSH2 0x1289 JUMPI RETURNDATASIZE PUSH1 0x0 DUP1 RETURNDATACOPY RETURNDATASIZE PUSH1 0x0 REVERT JUMPDEST POP POP POP POP PUSH1 0x40 MLOAD RETURNDATASIZE PUSH1 0x20 DUP2 LT ISZERO PUSH2 0x129F JUMPI PUSH1 0x0 DUP1 REVERT JUMPDEST POP MLOAD PUSH1 0x40 DUP1 MLOAD PUSH4 0x70A08231 PUSH1 0xE0 SHL DUP2 MSTORE ADDRESS PUSH1 0x4 DUP3 ADD MSTORE SWAP1 MLOAD SWAP2 SWAP7 POP PUSH1 0x1 PUSH1 0x1 PUSH1 0xA0 SHL SUB DUP9 AND SWAP2 PUSH4 0x70A08231 SWAP2 PUSH1 0x24 DUP1 DUP3 ADD SWAP3 PUSH1 0x20 SWAP3 SWAP1 SWAP2 SWAP1 DUP3 SWAP1 SUB ADD DUP2 DUP7 DUP1 EXTCODESIZE ISZERO DUP1 ISZERO PUSH2 0x12EB JUMPI PUSH1 0x0 DUP1 REVERT JUMPDEST POP GAS STATICCALL ISZERO DUP1 ISZERO PUSH2 0x12FF JUMPI RETURNDATASIZE PUSH1 0x0 DUP1 RETURNDATACOPY RETURNDATASIZE PUSH1 0x0 REVERT JUMPDEST POP POP POP POP PUSH1 0x40 MLOAD RETURNDATASIZE PUSH1 0x20 DUP2 LT ISZERO PUSH2 0x1315 JUMPI PUSH1 0x0 DUP1 REVERT JUMPDEST POP MLOAD SWAP4 POP PUSH2 0x1325 DUP6 DUP6 DUP12 DUP12 PUSH2 0x1B2C JUMP JUMPDEST DUP2 ISZERO PUSH2 0x1355 JUMPI PUSH1 0x8 SLOAD PUSH2 0x1351 SWAP1 PUSH1 0x1 PUSH1 0x1 PUSH1 0x70 SHL SUB DUP1 DUP3 AND SWAP2 PUSH1 0x1 PUSH1 0x70 SHL SWAP1 DIV AND PUSH4 0xFFFFFFFF PUSH2 0x1A79 AND JUMP JUMPDEST PUSH1 0xB SSTORE JUMPDEST PUSH1 0x40 DUP1 MLOAD DUP13 DUP2 MSTORE PUSH1 0x20 DUP2 ADD DUP13 SWAP1 MSTORE DUP2 MLOAD PUSH1 0x1 PUSH1 0x1 PUSH1 0xA0 SHL SUB DUP16 AND SWAP3 CALLER SWAP3 PUSH32 0xDCCD412F0B1252819CB1FD330B93224CA42612892BB3F4F789976E6D81936496 SWAP3 SWAP1 DUP2 SWAP1 SUB SWAP1 SWAP2 ADD SWAP1 LOG3 POP POP POP POP POP POP POP POP POP PUSH1 0x1 PUSH1 0xC DUP2 SWAP1 SSTORE POP SWAP2 POP SWAP2 JUMP JUMPDEST PUSH1 0x40 MLOAD DUP1 PUSH1 0x40 ADD PUSH1 0x40 MSTORE DUP1 PUSH1 0x6 DUP2 MSTORE PUSH1 0x20 ADD PUSH6 0x2222AC16AB19 PUSH1 0xD1 SHL DUP2 MSTORE POP DUP2 JUMP JUMPDEST PUSH1 0x0 PUSH2 0xB77 CALLER DUP5 DUP5 PUSH2 0x1D4F JUMP JUMPDEST PUSH2 0x3E8 DUP2 JUMP JUMPDEST PUSH1 0xC SLOAD PUSH1 0x1 EQ PUSH2 0x142F JUMPI PUSH1 0x40 DUP1 MLOAD PUSH3 0x461BCD PUSH1 0xE5 SHL DUP2 MSTORE PUSH1 0x20 PUSH1 0x4 DUP3 ADD MSTORE PUSH1 0xD PUSH1 0x24 DUP3 ADD MSTORE PUSH13 0x111156158C8E881313D0D2D151 PUSH1 0x9A SHL PUSH1 0x44 DUP3 ADD MSTORE SWAP1 MLOAD SWAP1 DUP2 SWAP1 SUB PUSH1 0x64 ADD SWAP1 REVERT JUMPDEST PUSH1 0x0 PUSH1 0xC SSTORE PUSH1 0x6 SLOAD PUSH1 0x7 SLOAD PUSH1 0x8 SLOAD PUSH1 0x40 DUP1 MLOAD PUSH4 0x70A08231 PUSH1 0xE0 SHL DUP2 MSTORE ADDRESS PUSH1 0x4 DUP3 ADD MSTORE SWAP1 MLOAD PUSH1 0x1 PUSH1 0x1 PUSH1 0xA0 SHL SUB SWAP5 DUP6 AND SWAP5 SWAP1 SWAP4 AND SWAP3 PUSH2 0x14DE SWAP3 DUP6 SWAP3 DUP8 SWAP3 PUSH2 0x14D9 SWAP3 PUSH1 0x1 PUSH1 0x1 PUSH1 0x70 SHL SUB AND SWAP2 DUP6 SWAP2 PUSH4 0x70A08231 SWAP2 PUSH1 0x24 DUP1 DUP3 ADD SWAP3 PUSH1 0x20 SWAP3 SWAP1 SWAP2 SWAP1 DUP3 SWAP1 SUB ADD DUP2 DUP7 DUP1 EXTCODESIZE ISZERO DUP1 ISZERO PUSH2 0x14A1 JUMPI PUSH1 0x0 DUP1 REVERT JUMPDEST POP GAS STATICCALL ISZERO DUP1 ISZERO PUSH2 0x14B5 JUMPI RETURNDATASIZE PUSH1 0x0 DUP1 RETURNDATACOPY RETURNDATASIZE PUSH1 0x0 REVERT JUMPDEST POP POP POP POP PUSH1 0x40 MLOAD RETURNDATASIZE PUSH1 0x20 DUP2 LT ISZERO PUSH2 0x14CB JUMPI PUSH1 0x0 DUP1 REVERT JUMPDEST POP MLOAD SWAP1 PUSH4 0xFFFFFFFF PUSH2 0x1ADC AND JUMP JUMPDEST PUSH2 0x18E6 JUMP JUMPDEST PUSH1 0x8 SLOAD PUSH1 0x40 DUP1 MLOAD PUSH4 0x70A08231 PUSH1 0xE0 SHL DUP2 MSTORE ADDRESS PUSH1 0x4 DUP3 ADD MSTORE SWAP1 MLOAD PUSH2 0x1545 SWAP3 DUP5 SWAP3 DUP8 SWAP3 PUSH2 0x14D9 SWAP3 PUSH1 0x1 PUSH1 0x70 SHL SWAP1 DIV PUSH1 0x1 PUSH1 0x1 PUSH1 0x70 SHL SUB AND SWAP2 PUSH1 0x1 PUSH1 0x1 PUSH1 0xA0 SHL SUB DUP7 AND SWAP2 PUSH4 0x70A08231 SWAP2 PUSH1 0x24 DUP1 DUP3 ADD SWAP3 PUSH1 0x20 SWAP3 SWAP1 SWAP2 SWAP1 DUP3 SWAP1 SUB ADD DUP2 DUP7 DUP1 EXTCODESIZE ISZERO DUP1 ISZERO PUSH2 0x14A1 JUMPI PUSH1 0x0 DUP1 REVERT JUMPDEST POP POP PUSH1 0x1 PUSH1 0xC SSTORE POP JUMP JUMPDEST PUSH1 0x5 SLOAD PUSH1 0x1 PUSH1 0x1 PUSH1 0xA0 SHL SUB AND DUP2 JUMP JUMPDEST PUSH1 0x7 SLOAD PUSH1 0x1 PUSH1 0x1 PUSH1 0xA0 SHL SUB AND DUP2 JUMP JUMPDEST TIMESTAMP DUP5 LT ISZERO PUSH2 0x15B3 JUMPI PUSH1 0x40 DUP1 MLOAD PUSH3 0x461BCD PUSH1 0xE5 SHL DUP2 MSTORE PUSH1 0x20 PUSH1 0x4 DUP3 ADD MSTORE PUSH1 0xE PUSH1 0x24 DUP3 ADD MSTORE PUSH14 0x111156158C8E8811561412549151 PUSH1 0x92 SHL PUSH1 0x44 DUP3 ADD MSTORE SWAP1 MLOAD SWAP1 DUP2 SWAP1 SUB PUSH1 0x64 ADD SWAP1 REVERT JUMPDEST PUSH1 0x3 SLOAD PUSH1 0x1 PUSH1 0x1 PUSH1 0xA0 SHL SUB DUP1 DUP10 AND PUSH1 0x0 DUP2 DUP2 MSTORE PUSH1 0x4 PUSH1 0x20 SWAP1 DUP2 MSTORE PUSH1 0x40 DUP1 DUP4 KECCAK256 DUP1 SLOAD PUSH1 0x1 DUP1 DUP3 ADD SWAP1 SWAP3 SSTORE DUP3 MLOAD PUSH32 0x6E71EDAE12B1B97F4D1F60370FEF10105FA2FAAE0126114A169C64845D6126C9 DUP2 DUP7 ADD MSTORE DUP1 DUP5 ADD SWAP7 SWAP1 SWAP7 MSTORE SWAP6 DUP14 AND PUSH1 0x60 DUP7 ADD MSTORE PUSH1 0x80 DUP6 ADD DUP13 SWAP1 MSTORE PUSH1 0xA0 DUP6 ADD SWAP6 SWAP1 SWAP6 MSTORE PUSH1 0xC0 DUP1 DUP6 ADD DUP12 SWAP1 MSTORE DUP2 MLOAD DUP1 DUP7 SUB SWAP1 SWAP2 ADD DUP2 MSTORE PUSH1 0xE0 DUP6 ADD DUP3 MSTORE DUP1 MLOAD SWAP1 DUP4 ADD KECCAK256 PUSH2 0x1901 PUSH1 0xF0 SHL PUSH2 0x100 DUP7 ADD MSTORE PUSH2 0x102 DUP6 ADD SWAP7 SWAP1 SWAP7 MSTORE PUSH2 0x122 DUP1 DUP6 ADD SWAP7 SWAP1 SWAP7 MSTORE DUP1 MLOAD DUP1 DUP6 SUB SWAP1 SWAP7 ADD DUP7 MSTORE PUSH2 0x142 DUP5 ADD DUP1 DUP3 MSTORE DUP7 MLOAD SWAP7 DUP4 ADD SWAP7 SWAP1 SWAP7 KECCAK256 SWAP6 DUP4 SWAP1 MSTORE PUSH2 0x162 DUP5 ADD DUP1 DUP3 MSTORE DUP7 SWAP1 MSTORE PUSH1 0xFF DUP10 AND PUSH2 0x182 DUP6 ADD MSTORE PUSH2 0x1A2 DUP5 ADD DUP9 SWAP1 MSTORE PUSH2 0x1C2 DUP5 ADD DUP8 SWAP1 MSTORE MLOAD SWAP2 SWAP4 SWAP3 PUSH2 0x1E2 DUP1 DUP3 ADD SWAP4 PUSH1 0x1F NOT DUP2 ADD SWAP3 DUP2 SWAP1 SUB SWAP1 SWAP2 ADD SWAP1 DUP6 GAS STATICCALL ISZERO DUP1 ISZERO PUSH2 0x16CE JUMPI RETURNDATASIZE PUSH1 0x0 DUP1 RETURNDATACOPY RETURNDATASIZE PUSH1 0x0 REVERT JUMPDEST POP POP PUSH1 0x40 MLOAD PUSH1 0x1F NOT ADD MLOAD SWAP2 POP POP PUSH1 0x1 PUSH1 0x1 PUSH1 0xA0 SHL SUB DUP2 AND ISZERO DUP1 ISZERO SWAP1 PUSH2 0x1704 JUMPI POP DUP9 PUSH1 0x1 PUSH1 0x1 PUSH1 0xA0 SHL SUB AND DUP2 PUSH1 0x1 PUSH1 0x1 PUSH1 0xA0 SHL SUB AND EQ JUMPDEST PUSH2 0x1755 JUMPI PUSH1 0x40 DUP1 MLOAD PUSH3 0x461BCD PUSH1 0xE5 SHL DUP2 MSTORE PUSH1 0x20 PUSH1 0x4 DUP3 ADD MSTORE PUSH1 0x18 PUSH1 0x24 DUP3 ADD MSTORE PUSH32 0x44455856323A20494E56414C49445F5349474E41545552450000000000000000 PUSH1 0x44 DUP3 ADD MSTORE SWAP1 MLOAD SWAP1 DUP2 SWAP1 SUB PUSH1 0x64 ADD SWAP1 REVERT JUMPDEST PUSH2 0x1760 DUP10 DUP10 DUP10 PUSH2 0x1CED JUMP JUMPDEST POP POP POP POP POP POP POP POP POP JUMP JUMPDEST PUSH1 0x2 PUSH1 0x20 SWAP1 DUP2 MSTORE PUSH1 0x0 SWAP3 DUP4 MSTORE PUSH1 0x40 DUP1 DUP5 KECCAK256 SWAP1 SWAP2 MSTORE SWAP1 DUP3 MSTORE SWAP1 KECCAK256 SLOAD DUP2 JUMP JUMPDEST PUSH1 0xC SLOAD PUSH1 0x1 EQ PUSH2 0x17CF JUMPI PUSH1 0x40 DUP1 MLOAD PUSH3 0x461BCD PUSH1 0xE5 SHL DUP2 MSTORE PUSH1 0x20 PUSH1 0x4 DUP3 ADD MSTORE PUSH1 0xD PUSH1 0x24 DUP3 ADD MSTORE PUSH13 0x111156158C8E881313D0D2D151 PUSH1 0x9A SHL PUSH1 0x44 DUP3 ADD MSTORE SWAP1 MLOAD SWAP1 DUP2 SWAP1 SUB PUSH1 0x64 ADD SWAP1 REVERT JUMPDEST PUSH1 0x0 PUSH1 0xC SSTORE PUSH1 0x6 SLOAD PUSH1 0x40 DUP1 MLOAD PUSH4 0x70A08231 PUSH1 0xE0 SHL DUP2 MSTORE ADDRESS PUSH1 0x4 DUP3 ADD MSTORE SWAP1 MLOAD PUSH2 0x18DF SWAP3 PUSH1 0x1 PUSH1 0x1 PUSH1 0xA0 SHL SUB AND SWAP2 PUSH4 0x70A08231 SWAP2 PUSH1 0x24 DUP1 DUP4 ADD SWAP3 PUSH1 0x20 SWAP3 SWAP2 SWAP1 DUP3 SWAP1 SUB ADD DUP2 DUP7 DUP1 EXTCODESIZE ISZERO DUP1 ISZERO PUSH2 0x1820 JUMPI PUSH1 0x0 DUP1 REVERT JUMPDEST POP GAS STATICCALL ISZERO DUP1 ISZERO PUSH2 0x1834 JUMPI RETURNDATASIZE PUSH1 0x0 DUP1 RETURNDATACOPY RETURNDATASIZE PUSH1 0x0 REVERT JUMPDEST POP POP POP POP PUSH1 0x40 MLOAD RETURNDATASIZE PUSH1 0x20 DUP2 LT ISZERO PUSH2 0x184A JUMPI PUSH1 0x0 DUP1 REVERT JUMPDEST POP MLOAD PUSH1 0x7 SLOAD PUSH1 0x40 DUP1 MLOAD PUSH4 0x70A08231 PUSH1 0xE0 SHL DUP2 MSTORE ADDRESS PUSH1 0x4 DUP3 ADD MSTORE SWAP1 MLOAD PUSH1 0x1 PUSH1 0x1 PUSH1 0xA0 SHL SUB SWAP1 SWAP3 AND SWAP2 PUSH4 0x70A08231 SWAP2 PUSH1 0x24 DUP1 DUP3 ADD SWAP3 PUSH1 0x20 SWAP3 SWAP1 SWAP2 SWAP1 DUP3 SWAP1 SUB ADD DUP2 DUP7 DUP1 EXTCODESIZE ISZERO DUP1 ISZERO PUSH2 0x1897 JUMPI PUSH1 0x0 DUP1 REVERT JUMPDEST POP GAS STATICCALL ISZERO DUP1 ISZERO PUSH2 0x18AB JUMPI RETURNDATASIZE PUSH1 0x0 DUP1 RETURNDATACOPY RETURNDATASIZE PUSH1 0x0 REVERT JUMPDEST POP POP POP POP PUSH1 0x40 MLOAD RETURNDATASIZE PUSH1 0x20 DUP2 LT ISZERO PUSH2 0x18C1 JUMPI PUSH1 0x0 DUP1 REVERT JUMPDEST POP MLOAD PUSH1 0x8 SLOAD PUSH1 0x1 PUSH1 0x1 PUSH1 0x70 SHL SUB DUP1 DUP3 AND SWAP2 PUSH1 0x1 PUSH1 0x70 SHL SWAP1 DIV AND PUSH2 0x1B2C JUMP JUMPDEST PUSH1 0x1 PUSH1 0xC SSTORE JUMP JUMPDEST PUSH1 0x40 DUP1 MLOAD DUP1 DUP3 ADD DUP3 MSTORE PUSH1 0x19 DUP2 MSTORE PUSH32 0x7472616E7366657228616464726573732C75696E743235362900000000000000 PUSH1 0x20 SWAP2 DUP3 ADD MSTORE DUP2 MLOAD PUSH1 0x1 PUSH1 0x1 PUSH1 0xA0 SHL SUB DUP6 DUP2 AND PUSH1 0x24 DUP4 ADD MSTORE PUSH1 0x44 DUP1 DUP4 ADD DUP7 SWAP1 MSTORE DUP5 MLOAD DUP1 DUP5 SUB SWAP1 SWAP2 ADD DUP2 MSTORE PUSH1 0x64 SWAP1 SWAP3 ADD DUP5 MSTORE SWAP2 DUP2 ADD DUP1 MLOAD PUSH1 0x1 PUSH1 0x1 PUSH1 0xE0 SHL SUB AND PUSH4 0xA9059CBB PUSH1 0xE0 SHL OR DUP2 MSTORE SWAP3 MLOAD DUP2 MLOAD PUSH1 0x0 SWAP5 PUSH1 0x60 SWAP5 DUP10 AND SWAP4 SWAP3 SWAP2 DUP3 SWAP2 SWAP1 DUP1 DUP4 DUP4 JUMPDEST PUSH1 0x20 DUP4 LT PUSH2 0x1993 JUMPI DUP1 MLOAD DUP3 MSTORE PUSH1 0x1F NOT SWAP1 SWAP3 ADD SWAP2 PUSH1 0x20 SWAP2 DUP3 ADD SWAP2 ADD PUSH2 0x1974 JUMP JUMPDEST PUSH1 0x1 DUP4 PUSH1 0x20 SUB PUSH2 0x100 EXP SUB DUP1 NOT DUP3 MLOAD AND DUP2 DUP5 MLOAD AND DUP1 DUP3 OR DUP6 MSTORE POP POP POP POP POP POP SWAP1 POP ADD SWAP2 POP POP PUSH1 0x0 PUSH1 0x40 MLOAD DUP1 DUP4 SUB DUP2 PUSH1 0x0 DUP7 GAS CALL SWAP2 POP POP RETURNDATASIZE DUP1 PUSH1 0x0 DUP2 EQ PUSH2 0x19F5 JUMPI PUSH1 0x40 MLOAD SWAP2 POP PUSH1 0x1F NOT PUSH1 0x3F RETURNDATASIZE ADD AND DUP3 ADD PUSH1 0x40 MSTORE RETURNDATASIZE DUP3 MSTORE RETURNDATASIZE PUSH1 0x0 PUSH1 0x20 DUP5 ADD RETURNDATACOPY PUSH2 0x19FA JUMP JUMPDEST PUSH1 0x60 SWAP2 POP JUMPDEST POP SWAP2 POP SWAP2 POP DUP2 DUP1 ISZERO PUSH2 0x1A28 JUMPI POP DUP1 MLOAD ISZERO DUP1 PUSH2 0x1A28 JUMPI POP DUP1 DUP1 PUSH1 0x20 ADD SWAP1 MLOAD PUSH1 0x20 DUP2 LT ISZERO PUSH2 0x1A25 JUMPI PUSH1 0x0 DUP1 REVERT JUMPDEST POP MLOAD JUMPDEST PUSH2 0x1A72 JUMPI PUSH1 0x40 DUP1 MLOAD PUSH3 0x461BCD PUSH1 0xE5 SHL DUP2 MSTORE PUSH1 0x20 PUSH1 0x4 DUP3 ADD MSTORE PUSH1 0x16 PUSH1 0x24 DUP3 ADD MSTORE PUSH22 0x111156158C8E881514905394D1915497D19052531151 PUSH1 0x52 SHL PUSH1 0x44 DUP3 ADD MSTORE SWAP1 MLOAD SWAP1 DUP2 SWAP1 SUB PUSH1 0x64 ADD SWAP1 REVERT JUMPDEST POP POP POP POP POP JUMP JUMPDEST PUSH1 0x0 DUP2 ISZERO DUP1 PUSH2 0x1A94 JUMPI POP POP DUP1 DUP3 MUL DUP3 DUP3 DUP3 DUP2 PUSH2 0x1A91 JUMPI INVALID JUMPDEST DIV EQ JUMPDEST PUSH2 0xB7B JUMPI PUSH1 0x40 DUP1 MLOAD PUSH3 0x461BCD PUSH1 0xE5 SHL DUP2 MSTORE PUSH1 0x20 PUSH1 0x4 DUP3 ADD MSTORE PUSH1 0x14 PUSH1 0x24 DUP3 ADD MSTORE PUSH20 0x64732D6D6174682D6D756C2D6F766572666C6F77 PUSH1 0x60 SHL PUSH1 0x44 DUP3 ADD MSTORE SWAP1 MLOAD SWAP1 DUP2 SWAP1 SUB PUSH1 0x64 ADD SWAP1 REVERT JUMPDEST DUP1 DUP3 SUB DUP3 DUP2 GT ISZERO PUSH2 0xB7B JUMPI PUSH1 0x40 DUP1 MLOAD PUSH3 0x461BCD PUSH1 0xE5 SHL DUP2 MSTORE PUSH1 0x20 PUSH1 0x4 DUP3 ADD MSTORE PUSH1 0x15 PUSH1 0x24 DUP3 ADD MSTORE PUSH21 0x64732D6D6174682D7375622D756E646572666C6F77 PUSH1 0x58 SHL PUSH1 0x44 DUP3 ADD MSTORE SWAP1 MLOAD SWAP1 DUP2 SWAP1 SUB PUSH1 0x64 ADD SWAP1 REVERT JUMPDEST PUSH1 0x1 PUSH1 0x1 PUSH1 0x70 SHL SUB DUP5 GT DUP1 ISZERO SWAP1 PUSH2 0x1B4A JUMPI POP PUSH1 0x1 PUSH1 0x1 PUSH1 0x70 SHL SUB DUP4 GT ISZERO JUMPDEST PUSH2 0x1B8D JUMPI PUSH1 0x40 DUP1 MLOAD PUSH3 0x461BCD PUSH1 0xE5 SHL DUP2 MSTORE PUSH1 0x20 PUSH1 0x4 DUP3 ADD MSTORE PUSH1 0xF PUSH1 0x24 DUP3 ADD MSTORE PUSH15 0x44455856323A204F564552464C4F57 PUSH1 0x88 SHL PUSH1 0x44 DUP3 ADD MSTORE SWAP1 MLOAD SWAP1 DUP2 SWAP1 SUB PUSH1 0x64 ADD SWAP1 REVERT JUMPDEST PUSH1 0x8 SLOAD PUSH4 0xFFFFFFFF TIMESTAMP DUP2 AND SWAP2 PUSH1 0x1 PUSH1 0xE0 SHL SWAP1 DIV DUP2 AND DUP3 SUB SWAP1 DUP2 AND ISZERO DUP1 ISZERO SWAP1 PUSH2 0x1BBD JUMPI POP PUSH1 0x1 PUSH1 0x1 PUSH1 0x70 SHL SUB DUP5 AND ISZERO ISZERO JUMPDEST DUP1 ISZERO PUSH2 0x1BD1 JUMPI POP PUSH1 0x1 PUSH1 0x1 PUSH1 0x70 SHL SUB DUP4 AND ISZERO ISZERO JUMPDEST ISZERO PUSH2 0x1C42 JUMPI DUP1 PUSH4 0xFFFFFFFF AND PUSH2 0x1BFF DUP6 PUSH2 0x1BEA DUP7 PUSH2 0x2105 JUMP JUMPDEST PUSH1 0x1 PUSH1 0x1 PUSH1 0xE0 SHL SUB AND SWAP1 PUSH4 0xFFFFFFFF PUSH2 0x2117 AND JUMP JUMPDEST PUSH1 0x9 DUP1 SLOAD PUSH1 0x1 PUSH1 0x1 PUSH1 0xE0 SHL SUB SWAP3 SWAP1 SWAP3 AND SWAP3 SWAP1 SWAP3 MUL ADD SWAP1 SSTORE PUSH4 0xFFFFFFFF DUP2 AND PUSH2 0x1C2A DUP5 PUSH2 0x1BEA DUP8 PUSH2 0x2105 JUMP JUMPDEST PUSH1 0xA DUP1 SLOAD PUSH1 0x1 PUSH1 0x1 PUSH1 0xE0 SHL SUB SWAP3 SWAP1 SWAP3 AND SWAP3 SWAP1 SWAP3 MUL ADD SWAP1 SSTORE JUMPDEST PUSH1 0x8 DUP1 SLOAD PUSH14 0xFFFFFFFFFFFFFFFFFFFFFFFFFFFF NOT AND PUSH1 0x1 PUSH1 0x1 PUSH1 0x70 SHL SUB DUP9 DUP2 AND SWAP2 SWAP1 SWAP2 OR PUSH14 0xFFFFFFFFFFFFFFFFFFFFFFFFFFFF PUSH1 0x70 SHL NOT AND PUSH1 0x1 PUSH1 0x70 SHL DUP9 DUP4 AND DUP2 MUL SWAP2 SWAP1 SWAP2 OR PUSH1 0x1 PUSH1 0x1 PUSH1 0xE0 SHL SUB AND PUSH1 0x1 PUSH1 0xE0 SHL PUSH4 0xFFFFFFFF DUP8 AND MUL OR SWAP3 DUP4 SWAP1 SSTORE PUSH1 0x40 DUP1 MLOAD DUP5 DUP5 AND DUP2 MSTORE SWAP2 SWAP1 SWAP4 DIV SWAP1 SWAP2 AND PUSH1 0x20 DUP3 ADD MSTORE DUP2 MLOAD PUSH32 0x1C411E9A96E071241C2F21F7726B17AE89E3CAB4C78BE50E062B03A9FFFBBAD1 SWAP3 SWAP2 DUP2 SWAP1 SUB SWAP1 SWAP2 ADD SWAP1 LOG1 POP POP POP POP POP POP JUMP JUMPDEST PUSH1 0x1 PUSH1 0x1 PUSH1 0xA0 SHL SUB DUP1 DUP5 AND PUSH1 0x0 DUP2 DUP2 MSTORE PUSH1 0x2 PUSH1 0x20 SWAP1 DUP2 MSTORE PUSH1 0x40 DUP1 DUP4 KECCAK256 SWAP5 DUP8 AND DUP1 DUP5 MSTORE SWAP5 DUP3 MSTORE SWAP2 DUP3 SWAP1 KECCAK256 DUP6 SWAP1 SSTORE DUP2 MLOAD DUP6 DUP2 MSTORE SWAP2 MLOAD PUSH32 0x8C5BE1E5EBEC7D5BD14F71427D1E84F3DD0314C0F7B2291E5B200AC8C7C3B925 SWAP3 DUP2 SWAP1 SUB SWAP1 SWAP2 ADD SWAP1 LOG3 POP POP POP JUMP JUMPDEST PUSH1 0x1 PUSH1 0x1 PUSH1 0xA0 SHL SUB DUP4 AND PUSH1 0x0 SWAP1 DUP2 MSTORE PUSH1 0x1 PUSH1 0x20 MSTORE PUSH1 0x40 SWAP1 KECCAK256 SLOAD PUSH2 0x1D78 SWAP1 DUP3 PUSH4 0xFFFFFFFF PUSH2 0x1ADC AND JUMP JUMPDEST PUSH1 0x1 PUSH1 0x1 PUSH1 0xA0 SHL SUB DUP1 DUP6 AND PUSH1 0x0 SWAP1 DUP2 MSTORE PUSH1 0x1 PUSH1 0x20 MSTORE PUSH1 0x40 DUP1 DUP3 KECCAK256 SWAP4 SWAP1 SWAP4 SSTORE SWAP1 DUP5 AND DUP2 MSTORE KECCAK256 SLOAD PUSH2 0x1DAD SWAP1 DUP3 PUSH4 0xFFFFFFFF PUSH2 0x213C AND JUMP JUMPDEST PUSH1 0x1 PUSH1 0x1 PUSH1 0xA0 SHL SUB DUP1 DUP5 AND PUSH1 0x0 DUP2 DUP2 MSTORE PUSH1 0x1 PUSH1 0x20 SWAP1 DUP2 MSTORE PUSH1 0x40 SWAP2 DUP3 SWAP1 KECCAK256 SWAP5 SWAP1 SWAP5 SSTORE DUP1 MLOAD DUP6 DUP2 MSTORE SWAP1 MLOAD SWAP2 SWAP4 SWAP3 DUP8 AND SWAP3 PUSH32 0xDDF252AD1BE2C89B69C2B068FC378DAA952BA7F163C4A11628F55A4DF523B3EF SWAP3 SWAP2 DUP3 SWAP1 SUB ADD SWAP1 LOG3 POP POP POP JUMP JUMPDEST PUSH1 0x0 DUP1 PUSH1 0x5 PUSH1 0x0 SWAP1 SLOAD SWAP1 PUSH2 0x100 EXP SWAP1 DIV PUSH1 0x1 PUSH1 0x1 PUSH1 0xA0 SHL SUB AND PUSH1 0x1 PUSH1 0x1 PUSH1 0xA0 SHL SUB AND PUSH4 0x17E7E58 PUSH1 0x40 MLOAD DUP2 PUSH4 0xFFFFFFFF AND PUSH1 0xE0 SHL DUP2 MSTORE PUSH1 0x4 ADD PUSH1 0x20 PUSH1 0x40 MLOAD DUP1 DUP4 SUB DUP2 DUP7 DUP1 EXTCODESIZE ISZERO DUP1 ISZERO PUSH2 0x1E5A JUMPI PUSH1 0x0 DUP1 REVERT JUMPDEST POP GAS STATICCALL ISZERO DUP1 ISZERO PUSH2 0x1E6E JUMPI RETURNDATASIZE PUSH1 0x0 DUP1 RETURNDATACOPY RETURNDATASIZE PUSH1 0x0 REVERT JUMPDEST POP POP POP POP PUSH1 0x40 MLOAD RETURNDATASIZE PUSH1 0x20 DUP2 LT ISZERO PUSH2 0x1E84 JUMPI PUSH1 0x0 DUP1 REVERT JUMPDEST POP MLOAD PUSH1 0xB SLOAD PUSH1 0x1 PUSH1 0x1 PUSH1 0xA0 SHL SUB DUP3 AND ISZERO DUP1 ISZERO SWAP5 POP SWAP2 SWAP3 POP SWAP1 PUSH2 0x1F53 JUMPI DUP1 ISZERO PUSH2 0x1F4E JUMPI PUSH1 0x0 PUSH2 0x1EC7 PUSH2 0xEAD PUSH1 0x1 PUSH1 0x1 PUSH1 0x70 SHL SUB DUP9 DUP2 AND SWAP1 DUP9 AND PUSH4 0xFFFFFFFF PUSH2 0x1A79 AND JUMP JUMPDEST SWAP1 POP PUSH1 0x0 PUSH2 0x1ED4 DUP4 PUSH2 0x1F67 JUMP JUMPDEST SWAP1 POP DUP1 DUP3 GT ISZERO PUSH2 0x1F4B JUMPI PUSH1 0x0 PUSH2 0x1F02 PUSH2 0x1EF3 DUP5 DUP5 PUSH4 0xFFFFFFFF PUSH2 0x1ADC AND JUMP JUMPDEST PUSH1 0x0 SLOAD SWAP1 PUSH4 0xFFFFFFFF PUSH2 0x1A79 AND JUMP JUMPDEST SWAP1 POP PUSH1 0x0 PUSH2 0x1F27 DUP4 PUSH2 0x1F1B DUP7 PUSH1 0x5 PUSH4 0xFFFFFFFF PUSH2 0x1A79 AND JUMP JUMPDEST SWAP1 PUSH4 0xFFFFFFFF PUSH2 0x213C AND JUMP JUMPDEST SWAP1 POP PUSH1 0x0 DUP2 DUP4 DUP2 PUSH2 0x1F34 JUMPI INVALID JUMPDEST DIV SWAP1 POP DUP1 ISZERO PUSH2 0x1F47 JUMPI PUSH2 0x1F47 DUP8 DUP3 PUSH2 0x1FB9 JUMP JUMPDEST POP POP POP JUMPDEST POP POP JUMPDEST PUSH2 0x1F5F JUMP JUMPDEST DUP1 ISZERO PUSH2 0x1F5F JUMPI PUSH1 0x0 PUSH1 0xB SSTORE JUMPDEST POP POP SWAP3 SWAP2 POP POP JUMP JUMPDEST PUSH1 0x0 PUSH1 0x3 DUP3 GT ISZERO PUSH2 0x1FAA JUMPI POP DUP1 PUSH1 0x1 PUSH1 0x2 DUP3 DIV ADD JUMPDEST DUP2 DUP2 LT ISZERO PUSH2 0x1FA4 JUMPI DUP1 SWAP2 POP PUSH1 0x2 DUP2 DUP3 DUP6 DUP2 PUSH2 0x1F93 JUMPI INVALID JUMPDEST DIV ADD DUP2 PUSH2 0x1F9C JUMPI INVALID JUMPDEST DIV SWAP1 POP PUSH2 0x1F7C JUMP JUMPDEST POP PUSH2 0x1FB4 JUMP JUMPDEST DUP2 ISZERO PUSH2 0x1FB4 JUMPI POP PUSH1 0x1 JUMPDEST SWAP2 SWAP1 POP JUMP JUMPDEST PUSH1 0x0 SLOAD PUSH2 0x1FCC SWAP1 DUP3 PUSH4 0xFFFFFFFF PUSH2 0x213C AND JUMP JUMPDEST PUSH1 0x0 SWAP1 DUP2 SSTORE PUSH1 0x1 PUSH1 0x1 PUSH1 0xA0 SHL SUB DUP4 AND DUP2 MSTORE PUSH1 0x1 PUSH1 0x20 MSTORE PUSH1 0x40 SWAP1 KECCAK256 SLOAD PUSH2 0x1FF7 SWAP1 DUP3 PUSH4 0xFFFFFFFF PUSH2 0x213C AND JUMP JUMPDEST PUSH1 0x1 PUSH1 0x1 PUSH1 0xA0 SHL SUB DUP4 AND PUSH1 0x0 DUP2 DUP2 MSTORE PUSH1 0x1 PUSH1 0x20 SWAP1 DUP2 MSTORE PUSH1 0x40 DUP1 DUP4 KECCAK256 SWAP5 SWAP1 SWAP5 SSTORE DUP4 MLOAD DUP6 DUP2 MSTORE SWAP4 MLOAD SWAP3 SWAP4 SWAP2 SWAP3 PUSH32 0xDDF252AD1BE2C89B69C2B068FC378DAA952BA7F163C4A11628F55A4DF523B3EF SWAP3 DUP2 SWAP1 SUB SWAP1 SWAP2 ADD SWAP1 LOG3 POP POP JUMP JUMPDEST PUSH1 0x0 DUP2 DUP4 LT PUSH2 0x205E JUMPI DUP2 PUSH2 0x2060 JUMP JUMPDEST DUP3 JUMPDEST SWAP4 SWAP3 POP POP POP JUMP JUMPDEST PUSH1 0x1 PUSH1 0x1 PUSH1 0xA0 SHL SUB DUP3 AND PUSH1 0x0 SWAP1 DUP2 MSTORE PUSH1 0x1 PUSH1 0x20 MSTORE PUSH1 0x40 SWAP1 KECCAK256 SLOAD PUSH2 0x2090 SWAP1 DUP3 PUSH4 0xFFFFFFFF PUSH2 0x1ADC AND JUMP JUMPDEST PUSH1 0x1 PUSH1 0x1 PUSH1 0xA0 SHL SUB DUP4 AND PUSH1 0x0 SWAP1 DUP2 MSTORE PUSH1 0x1 PUSH1 0x20 MSTORE PUSH1 0x40 DUP2 KECCAK256 SWAP2 SWAP1 SWAP2 SSTORE SLOAD PUSH2 0x20BD SWAP1 DUP3 PUSH4 0xFFFFFFFF PUSH2 0x1ADC AND JUMP JUMPDEST PUSH1 0x0 SWAP1 DUP2 SSTORE PUSH1 0x40 DUP1 MLOAD DUP4 DUP2 MSTORE SWAP1 MLOAD PUSH1 0x1 PUSH1 0x1 PUSH1 0xA0 SHL SUB DUP6 AND SWAP2 PUSH32 0xDDF252AD1BE2C89B69C2B068FC378DAA952BA7F163C4A11628F55A4DF523B3EF SWAP2 SWAP1 DUP2 SWAP1 SUB PUSH1 0x20 ADD SWAP1 LOG3 POP POP JUMP JUMPDEST PUSH1 0x1 PUSH1 0x1 PUSH1 0x70 SHL SUB AND PUSH1 0x1 PUSH1 0x70 SHL MUL SWAP1 JUMP JUMPDEST PUSH1 0x0 PUSH1 0x1 PUSH1 0x1 PUSH1 0x70 SHL SUB DUP3 AND PUSH1 0x1 PUSH1 0x1 PUSH1 0xE0 SHL SUB DUP5 AND DUP2 PUSH2 0x2134 JUMPI INVALID JUMPDEST DIV SWAP4 SWAP3 POP POP POP JUMP JUMPDEST DUP1 DUP3 ADD DUP3 DUP2 LT ISZERO PUSH2 0xB7B JUMPI PUSH1 0x40 DUP1 MLOAD PUSH3 0x461BCD PUSH1 0xE5 SHL DUP2 MSTORE PUSH1 0x20 PUSH1 0x4 DUP3 ADD MSTORE PUSH1 0x14 PUSH1 0x24 DUP3 ADD MSTORE PUSH20 0x64732D6D6174682D6164642D6F766572666C6F77 PUSH1 0x60 SHL PUSH1 0x44 DUP3 ADD MSTORE SWAP1 MLOAD SWAP1 DUP2 SWAP1 SUB PUSH1 0x64 ADD SWAP1 REVERT INVALID DIFFICULTY GASLIMIT PC JUMP ORIGIN GASPRICE KECCAK256 0x49 0x4E MSTORE8 SSTORE CHAINID CHAINID 0x49 NUMBER 0x49 GASLIMIT 0x4E SLOAD 0x5F 0x4C 0x49 MLOAD SSTORE 0x49 DIFFICULTY 0x49 SLOAD MSIZE 0x5F 0x4D 0x49 0x4E SLOAD GASLIMIT DIFFICULTY DIFFICULTY GASLIMIT PC JUMP ORIGIN GASPRICE KECCAK256 0x49 0x4E MSTORE8 SSTORE CHAINID CHAINID 0x49 NUMBER 0x49 GASLIMIT 0x4E SLOAD 0x5F 0x4C 0x49 MLOAD SSTORE 0x49 DIFFICULTY 0x49 SLOAD MSIZE 0x5F TIMESTAMP SSTORE MSTORE 0x4E GASLIMIT DIFFICULTY DIFFICULTY GASLIMIT PC JUMP ORIGIN GASPRICE KECCAK256 0x49 0x4E MSTORE8 SSTORE CHAINID CHAINID 0x49 NUMBER 0x49 GASLIMIT 0x4E SLOAD 0x5F 0x4F SSTORE SLOAD POP SSTORE SLOAD 0x5F COINBASE 0x4D 0x4F SSTORE 0x4E SLOAD LOG2 PUSH6 0x627A7A723158 KECCAK256 0x4C CALLDATASIZE PUSH20 0x1E30F3D40BE3BF893C642283CEAC0FDC63681B7A 0x27 POP 0xC CALLDATACOPY 0xC CALLER SWAP10 0xF6 TIMESTAMP PUSH5 0x736F6C6343 STOP SDIV LT STOP ORIGIN GASLIMIT 0x49 POP CALLDATACOPY BALANCE ORIGIN DIFFICULTY PUSH16 0x6D61696E28737472696E67206E616D65 0x2C PUSH20 0x7472696E672076657273696F6E2C75696E743235 CALLDATASIZE KECCAK256 PUSH4 0x6861696E 0x49 PUSH5 0x2C61646472 PUSH6 0x737320766572 PUSH10 0x6679696E67436F6E7472 PUSH2 0x6374 0x29 LOG2 PUSH6 0x627A7A723158 KECCAK256 PUSH8 0x71557FDACF311481 SWAP11 SLT PUSH7 0x96A52947FB5A66 0x48 PUSH8 0xCB5BBD21505E436F 0x4D 0xF6 SWAP3 PUSH5 0x736F6C6343 STOP SDIV LT STOP ORIGIN "
				},
				"gasEstimates": {
					"creation": {
						"codeDepositCost": "2174800",
						"executionCost": "infinite",
						"totalCost": "infinite"
					},
					"external": {
						"INIT_CODE_HASH()": "infinite",
						"allPairs(uint256)": "2015",
						"allPairsLength()": "998",
						"createPair(address,address)": "infinite",
						"feeTo()": "1038",
						"feeToSetter()": "1060",
						"getPair(address,address)": "1322",
						"setFeeTo(address)": "22001",
						"setFeeToSetter(address)": "21935"
					}
				},
				"methodIdentifiers": {
					"INIT_CODE_HASH()": "257671f5",
					"allPairs(uint256)": "1e3dd18b",
					"allPairsLength()": "574f2ba3",
					"createPair(address,address)": "c9c65396",
					"feeTo()": "017e7e58",
					"feeToSetter()": "094b7415",
					"getPair(address,address)": "e6a43905",
					"setFeeTo(address)": "f46901ed",
					"setFeeToSetter(address)": "a2e74af6"
				}
			},
			"storageLayout": {
				"storage": [
					{
						"astId": 2126,
						"contract": "v2-core-master/v2-core-master/contracts/DEXV2FactoryFlat.sol:DEXV2Factory",
						"label": "feeTo",
						"offset": 0,
						"slot": "0",
						"type": "t_address"
					},
					{
						"astId": 2128,
						"contract": "v2-core-master/v2-core-master/contracts/DEXV2FactoryFlat.sol:DEXV2Factory",
						"label": "feeToSetter",
						"offset": 0,
						"slot": "1",
						"type": "t_address"
					},
					{
						"astId": 2145,
						"contract": "v2-core-master/v2-core-master/contracts/DEXV2FactoryFlat.sol:DEXV2Factory",
						"label": "getPair",
						"offset": 0,
						"slot": "2",
						"type": "t_mapping(t_address,t_mapping(t_address,t_address))"
					},
					{
						"astId": 2148,
						"contract": "v2-core-master/v2-core-master/contracts/DEXV2FactoryFlat.sol:DEXV2Factory",
						"label": "allPairs",
						"offset": 0,
						"slot": "3",
						"type": "t_array(t_address)dyn_storage"
					}
				],
				"types": {
					"t_address": {
						"encoding": "inplace",
						"label": "address",
						"numberOfBytes": "20"
					},
					"t_array(t_address)dyn_storage": {
						"base": "t_address",
						"encoding": "dynamic_array",
						"label": "address[]",
						"numberOfBytes": "32"
					},
					"t_mapping(t_address,t_address)": {
						"encoding": "mapping",
						"key": "t_address",
						"label": "mapping(address => address)",
						"numberOfBytes": "32",
						"value": "t_address"
					},
					"t_mapping(t_address,t_mapping(t_address,t_address))": {
						"encoding": "mapping",
						"key": "t_address",
						"label": "mapping(address => mapping(address => address))",
						"numberOfBytes": "32",
						"value": "t_mapping(t_address,t_address)"
					}
				}
			},
			"userdoc": {
				"methods": {}
			}
		}
	}
}