{
	"v2-core-master/contracts/DEXV2Factory.sol": {
		"DEXV2Factory": {
			"abi": [
				{
					"inputs": [
						{
							"internalType": "address",
							"name": "_feeToSetter",
							"type": "address"
						}
					],
					"payable": false,
					"stateMutability": "nonpayable",
					"type": "constructor"
				},
				{
					"anonymous": false,
					"inputs": [
						{
							"indexed": true,
							"internalType": "address",
							"name": "token0",
							"type": "address"
						},
						{
							"indexed": true,
							"internalType": "address",
							"name": "token1",
							"type": "address"
						},
						{
							"indexed": false,
							"internalType": "address",
							"name": "pair",
							"type": "address"
						},
						{
							"indexed": false,
							"internalType": "uint256",
							"name": "",
							"type": "uint256"
						}
					],
					"name": "PairCreated",
					"type": "event"
				},
				{
					"constant": true,
					"inputs": [],
					"name": "INIT_CODE_HASH",
					"outputs": [
						{
							"internalType": "bytes32",
							"name": "",
							"type": "bytes32"
						}
					],
					"payable": false,
					"stateMutability": "view",
					"type": "function"
				},
				{
					"constant": true,
					"inputs": [
						{
							"internalType": "uint256",
							"name": "",
							"type": "uint256"
						}
					],
					"name": "allPairs",
					"outputs": [
						{
							"internalType": "address",
							"name": "",
							"type": "address"
						}
					],
					"payable": false,
					"stateMutability": "view",
					"type": "function"
				},
				{
					"constant": true,
					"inputs": [],
					"name": "allPairsLength",
					"outputs": [
						{
							"internalType": "uint256",
							"name": "",
							"type": "uint256"
						}
					],
					"payable": false,
					"stateMutability": "view",
					"type": "function"
				},
				{
					"constant": false,
					"inputs": [
						{
							"internalType": "address",
							"name": "tokenA",
							"type": "address"
						},
						{
							"internalType": "address",
							"name": "tokenB",
							"type": "address"
						}
					],
					"name": "createPair",
					"outputs": [
						{
							"internalType": "address",
							"name": "pair",
							"type": "address"
						}
					],
					"payable": false,
					"stateMutability": "nonpayable",
					"type": "function"
				},
				{
					"constant": true,
					"inputs": [],
					"name": "feeTo",
					"outputs": [
						{
							"internalType": "address",
							"name": "",
							"type": "address"
						}
					],
					"payable": false,
					"stateMutability": "view",
					"type": "function"
				},
				{
					"constant": true,
					"inputs": [],
					"name": "feeToSetter",
					"outputs": [
						{
							"internalType": "address",
							"name": "",
							"type": "address"
						}
					],
					"payable": false,
					"stateMutability": "view",
					"type": "function"
				},
				{
					"constant": true,
					"inputs": [
						{
							"internalType": "address",
							"name": "",
							"type": "address"
						},
						{
							"internalType": "address",
							"name": "",
							"type": "address"
						}
					],
					"name": "getPair",
					"outputs": [
						{
							"internalType": "address",
							"name": "",
							"type": "address"
						}
					],
					"payable": false,
					"stateMutability": "view",
					"type": "function"
				},
				{
					"constant": false,
					"inputs": [
						{
							"internalType": "address",
							"name": "_feeTo",
							"type": "address"
						}
					],
					"name": "setFeeTo",
					"outputs": [],
					"payable": false,
					"stateMutability": "nonpayable",
					"type": "function"
				},
				{
					"constant": false,
					"inputs": [
						{
							"internalType": "address",
							"name": "_feeToSetter",
							"type": "address"
						}
					],
					"name": "setFeeToSetter",
					"outputs": [],
					"payable": false,
					"stateMutability": "nonpayable",
					"type": "function"
				}
			],
			"devdoc": {
				"methods": {}
			},
			"evm": {
				"assembly": "    /* \"v2-core-master/contracts/DEXV2Factory.sol\":94:1927  contract DEXV2Factory is IDEXV2Factory {... */\n  mstore(0x40, 0x80)\n    /* \"v2-core-master/contracts/DEXV2Factory.sol\":495:579  constructor(address _feeToSetter) public {... */\n  callvalue\n    /* \"--CODEGEN--\":8:17   */\n  dup1\n    /* \"--CODEGEN--\":5:7   */\n  iszero\n  tag_1\n  jumpi\n    /* \"--CODEGEN--\":30:31   */\n  0x00\n    /* \"--CODEGEN--\":27:28   */\n  dup1\n    /* \"--CODEGEN--\":20:32   */\n  revert\n    /* \"--CODEGEN--\":5:7   */\ntag_1:\n    /* \"v2-core-master/contracts/DEXV2Factory.sol\":495:579  constructor(address _feeToSetter) public {... */\n  pop\n  mload(0x40)\n  sub(codesize, bytecodeSize)\n  dup1\n  bytecodeSize\n  dup4\n  codecopy\n  dup2\n  dup2\n  add\n  0x40\n  mstore\n    /* \"--CODEGEN--\":13:15   */\n  0x20\n    /* \"--CODEGEN--\":8:11   */\n  dup2\n    /* \"--CODEGEN--\":5:16   */\n  lt\n    /* \"--CODEGEN--\":2:4   */\n  iszero\n  tag_2\n  jumpi\n    /* \"--CODEGEN--\":29:30   */\n  0x00\n    /* \"--CODEGEN--\":26:27   */\n  dup1\n    /* \"--CODEGEN--\":19:31   */\n  revert\n    /* \"--CODEGEN--\":2:4   */\ntag_2:\n  pop\n    /* \"v2-core-master/contracts/DEXV2Factory.sol\":495:579  constructor(address _feeToSetter) public {... */\n  mload\n    /* \"v2-core-master/contracts/DEXV2Factory.sol\":546:557  feeToSetter */\n  0x01\n    /* \"v2-core-master/contracts/DEXV2Factory.sol\":546:572  feeToSetter = _feeToSetter */\n  dup1\n  sload\n  not(sub(shl(0xa0, 0x01), 0x01))\n  and\n  sub(shl(0xa0, 0x01), 0x01)\n  swap1\n  swap3\n  and\n  swap2\n  swap1\n  swap2\n  or\n  swap1\n  sstore\n    /* \"v2-core-master/contracts/DEXV2Factory.sol\":94:1927  contract DEXV2Factory is IDEXV2Factory {... */\n  dataSize(sub_0)\n  dup1\n  dataOffset(sub_0)\n  0x00\n  codecopy\n  0x00\n  return\nstop\n\nsub_0: assembly {\n        /* \"v2-core-master/contracts/DEXV2Factory.sol\":94:1927  contract DEXV2Factory is IDEXV2Factory {... */\n      mstore(0x40, 0x80)\n      callvalue\n        /* \"--CODEGEN--\":8:17   */\n      dup1\n        /* \"--CODEGEN--\":5:7   */\n      iszero\n      tag_1\n      jumpi\n        /* \"--CODEGEN--\":30:31   */\n      0x00\n        /* \"--CODEGEN--\":27:28   */\n      dup1\n        /* \"--CODEGEN--\":20:32   */\n      revert\n        /* \"--CODEGEN--\":5:7   */\n    tag_1:\n        /* \"v2-core-master/contracts/DEXV2Factory.sol\":94:1927  contract DEXV2Factory is IDEXV2Factory {... */\n      pop\n      jumpi(tag_2, lt(calldatasize, 0x04))\n      shr(0xe0, calldataload(0x00))\n      dup1\n      0x574f2ba3\n      gt\n      tag_12\n      jumpi\n      dup1\n      0x574f2ba3\n      eq\n      tag_7\n      jumpi\n      dup1\n      0xa2e74af6\n      eq\n      tag_8\n      jumpi\n      dup1\n      0xc9c65396\n      eq\n      tag_9\n      jumpi\n      dup1\n      0xe6a43905\n      eq\n      tag_10\n      jumpi\n      dup1\n      0xf46901ed\n      eq\n      tag_11\n      jumpi\n      jump(tag_2)\n    tag_12:\n      dup1\n      0x017e7e58\n      eq\n      tag_3\n      jumpi\n      dup1\n      0x094b7415\n      eq\n      tag_4\n      jumpi\n      dup1\n      0x1e3dd18b\n      eq\n      tag_5\n      jumpi\n      dup1\n      0x257671f5\n      eq\n      tag_6\n      jumpi\n    tag_2:\n      0x00\n      dup1\n      revert\n        /* \"v2-core-master/contracts/DEXV2Factory.sol\":139:159  address public feeTo */\n    tag_3:\n      tag_13\n      tag_14\n      jump\t// in\n    tag_13:\n      0x40\n      dup1\n      mload\n      sub(shl(0xa0, 0x01), 0x01)\n      swap1\n      swap3\n      and\n      dup3\n      mstore\n      mload\n      swap1\n      dup2\n      swap1\n      sub\n      0x20\n      add\n      swap1\n      return\n        /* \"v2-core-master/contracts/DEXV2Factory.sol\":165:191  address public feeToSetter */\n    tag_4:\n      tag_13\n      tag_16\n      jump\t// in\n        /* \"v2-core-master/contracts/DEXV2Factory.sol\":371:396  address[] public allPairs */\n    tag_5:\n      tag_13\n      0x04\n      dup1\n      calldatasize\n      sub\n        /* \"--CODEGEN--\":13:15   */\n      0x20\n        /* \"--CODEGEN--\":8:11   */\n      dup2\n        /* \"--CODEGEN--\":5:16   */\n      lt\n        /* \"--CODEGEN--\":2:4   */\n      iszero\n      tag_18\n      jumpi\n        /* \"--CODEGEN--\":29:30   */\n      0x00\n        /* \"--CODEGEN--\":26:27   */\n      dup1\n        /* \"--CODEGEN--\":19:31   */\n      revert\n        /* \"--CODEGEN--\":2:4   */\n    tag_18:\n      pop\n        /* \"v2-core-master/contracts/DEXV2Factory.sol\":371:396  address[] public allPairs */\n      calldataload\n      tag_19\n      jump\t// in\n        /* \"v2-core-master/contracts/DEXV2Factory.sol\":198:296  bytes32 public constant INIT_CODE_HASH = keccak256(abi.encodePacked(type(DEXV2Pair).creationCode)) */\n    tag_6:\n      tag_20\n      tag_21\n      jump\t// in\n    tag_20:\n      0x40\n      dup1\n      mload\n      swap2\n      dup3\n      mstore\n      mload\n      swap1\n      dup2\n      swap1\n      sub\n      0x20\n      add\n      swap1\n      return\n        /* \"v2-core-master/contracts/DEXV2Factory.sol\":585:679  function allPairsLength() external view returns (uint) {... */\n    tag_7:\n      tag_20\n      tag_23\n      jump\t// in\n        /* \"v2-core-master/contracts/DEXV2Factory.sol\":1763:1925  function setFeeToSetter(address _feeToSetter) external {... */\n    tag_8:\n      tag_24\n      0x04\n      dup1\n      calldatasize\n      sub\n        /* \"--CODEGEN--\":13:15   */\n      0x20\n        /* \"--CODEGEN--\":8:11   */\n      dup2\n        /* \"--CODEGEN--\":5:16   */\n      lt\n        /* \"--CODEGEN--\":2:4   */\n      iszero\n      tag_25\n      jumpi\n        /* \"--CODEGEN--\":29:30   */\n      0x00\n        /* \"--CODEGEN--\":26:27   */\n      dup1\n        /* \"--CODEGEN--\":19:31   */\n      revert\n        /* \"--CODEGEN--\":2:4   */\n    tag_25:\n      pop\n        /* \"v2-core-master/contracts/DEXV2Factory.sol\":1763:1925  function setFeeToSetter(address _feeToSetter) external {... */\n      calldataload\n      sub(shl(0xa0, 0x01), 0x01)\n      and\n      tag_26\n      jump\t// in\n    tag_24:\n      stop\n        /* \"v2-core-master/contracts/DEXV2Factory.sol\":685:1613  function createPair(address tokenA, address tokenB) external returns (address pair) {... */\n    tag_9:\n      tag_13\n      0x04\n      dup1\n      calldatasize\n      sub\n        /* \"--CODEGEN--\":13:15   */\n      0x40\n        /* \"--CODEGEN--\":8:11   */\n      dup2\n        /* \"--CODEGEN--\":5:16   */\n      lt\n        /* \"--CODEGEN--\":2:4   */\n      iszero\n      tag_28\n      jumpi\n        /* \"--CODEGEN--\":29:30   */\n      0x00\n        /* \"--CODEGEN--\":26:27   */\n      dup1\n        /* \"--CODEGEN--\":19:31   */\n      revert\n        /* \"--CODEGEN--\":2:4   */\n    tag_28:\n      pop\n      sub(shl(0xa0, 0x01), 0x01)\n        /* \"v2-core-master/contracts/DEXV2Factory.sol\":685:1613  function createPair(address tokenA, address tokenB) external returns (address pair) {... */\n      dup2\n      calldataload\n      dup2\n      and\n      swap2\n      0x20\n      add\n      calldataload\n      and\n      tag_29\n      jump\t// in\n        /* \"v2-core-master/contracts/DEXV2Factory.sol\":303:365  mapping(address => mapping(address => address)) public getPair */\n    tag_10:\n      tag_13\n      0x04\n      dup1\n      calldatasize\n      sub\n        /* \"--CODEGEN--\":13:15   */\n      0x40\n        /* \"--CODEGEN--\":8:11   */\n      dup2\n        /* \"--CODEGEN--\":5:16   */\n      lt\n        /* \"--CODEGEN--\":2:4   */\n      iszero\n      tag_31\n      jumpi\n        /* \"--CODEGEN--\":29:30   */\n      0x00\n        /* \"--CODEGEN--\":26:27   */\n      dup1\n        /* \"--CODEGEN--\":19:31   */\n      revert\n        /* \"--CODEGEN--\":2:4   */\n    tag_31:\n      pop\n      sub(shl(0xa0, 0x01), 0x01)\n        /* \"v2-core-master/contracts/DEXV2Factory.sol\":303:365  mapping(address => mapping(address => address)) public getPair */\n      dup2\n      calldataload\n      dup2\n      and\n      swap2\n      0x20\n      add\n      calldataload\n      and\n      tag_32\n      jump\t// in\n        /* \"v2-core-master/contracts/DEXV2Factory.sol\":1619:1757  function setFeeTo(address _feeTo) external {... */\n    tag_11:\n      tag_24\n      0x04\n      dup1\n      calldatasize\n      sub\n        /* \"--CODEGEN--\":13:15   */\n      0x20\n        /* \"--CODEGEN--\":8:11   */\n      dup2\n        /* \"--CODEGEN--\":5:16   */\n      lt\n        /* \"--CODEGEN--\":2:4   */\n      iszero\n      tag_34\n      jumpi\n        /* \"--CODEGEN--\":29:30   */\n      0x00\n        /* \"--CODEGEN--\":26:27   */\n      dup1\n        /* \"--CODEGEN--\":19:31   */\n      revert\n        /* \"--CODEGEN--\":2:4   */\n    tag_34:\n      pop\n        /* \"v2-core-master/contracts/DEXV2Factory.sol\":1619:1757  function setFeeTo(address _feeTo) external {... */\n      calldataload\n      sub(shl(0xa0, 0x01), 0x01)\n      and\n      tag_35\n      jump\t// in\n        /* \"v2-core-master/contracts/DEXV2Factory.sol\":139:159  address public feeTo */\n    tag_14:\n      and(sub(shl(0xa0, 0x01), 0x01), sload(0x00))\n      dup2\n      jump\t// out\n        /* \"v2-core-master/contracts/DEXV2Factory.sol\":165:191  address public feeToSetter */\n    tag_16:\n      and(sub(shl(0xa0, 0x01), 0x01), sload(0x01))\n      dup2\n      jump\t// out\n        /* \"v2-core-master/contracts/DEXV2Factory.sol\":371:396  address[] public allPairs */\n    tag_19:\n      0x03\n      dup2\n      dup2\n      sload\n      dup2\n      lt\n      tag_36\n      jumpi\n      invalid\n    tag_36:\n      0x00\n      swap2\n      dup3\n      mstore\n      0x20\n      swap1\n      swap2\n      keccak256\n      add\n      sload\n      sub(shl(0xa0, 0x01), 0x01)\n      and\n      swap1\n      pop\n      dup2\n      jump\t// out\n        /* \"v2-core-master/contracts/DEXV2Factory.sol\":198:296  bytes32 public constant INIT_CODE_HASH = keccak256(abi.encodePacked(type(DEXV2Pair).creationCode)) */\n    tag_21:\n        /* \"v2-core-master/contracts/DEXV2Factory.sol\":266:294  type(DEXV2Pair).creationCode */\n      mload(0x40)\n      tag_38\n      0x20\n      dup3\n      add\n      tag_39\n      jump\t// in\n    tag_38:\n        /* \"--CODEGEN--\":41:45   */\n      0x20\n        /* \"--CODEGEN--\":34:39   */\n      dup3\n        /* \"--CODEGEN--\":30:46   */\n      add\n        /* \"--CODEGEN--\":25:28   */\n      dup2\n        /* \"--CODEGEN--\":21:47   */\n      sub\n        /* \"--CODEGEN--\":14:19   */\n      dup3\n        /* \"--CODEGEN--\":7:48   */\n      mstore\n        /* \"--CODEGEN--\":87:89   */\n      0x1f\n        /* \"--CODEGEN--\":83:90   */\n      not\n        /* \"--CODEGEN--\":78:80   */\n      0x1f\n        /* \"--CODEGEN--\":73:76   */\n      dup3\n        /* \"--CODEGEN--\":69:81   */\n      add\n        /* \"--CODEGEN--\":65:91   */\n      and\n        /* \"--CODEGEN--\":61:63   */\n      0x40\n        /* \"--CODEGEN--\":54:92   */\n      mstore\n        /* \"v2-core-master/contracts/DEXV2Factory.sol\":266:294  type(DEXV2Pair).creationCode */\n      pop\n        /* \"v2-core-master/contracts/DEXV2Factory.sol\":249:295  abi.encodePacked(type(DEXV2Pair).creationCode) */\n      add(0x20, mload(0x40))\n      dup1\n      dup3\n      dup1\n      mload\n      swap1\n      0x20\n      add\n      swap1\n      dup1\n      dup4\n      dup4\n        /* \"--CODEGEN--\":36:189   */\n    tag_40:\n        /* \"--CODEGEN--\":66:68   */\n      0x20\n        /* \"--CODEGEN--\":61:64   */\n      dup4\n        /* \"--CODEGEN--\":58:69   */\n      lt\n        /* \"--CODEGEN--\":36:189   */\n      tag_42\n      jumpi\n        /* \"--CODEGEN--\":176:186   */\n      dup1\n      mload\n        /* \"--CODEGEN--\":164:187   */\n      dup3\n      mstore\n      not(0x1f)\n        /* \"--CODEGEN--\":139:151   */\n      swap1\n      swap3\n      add\n      swap2\n        /* \"--CODEGEN--\":98:100   */\n      0x20\n        /* \"--CODEGEN--\":89:101   */\n      swap2\n      dup3\n      add\n      swap2\n        /* \"--CODEGEN--\":114:126   */\n      add\n        /* \"--CODEGEN--\":36:189   */\n      jump(tag_40)\n    tag_42:\n        /* \"--CODEGEN--\":274:275   */\n      0x01\n        /* \"--CODEGEN--\":267:270   */\n      dup4\n        /* \"--CODEGEN--\":263:265   */\n      0x20\n        /* \"--CODEGEN--\":259:271   */\n      sub\n        /* \"--CODEGEN--\":254:257   */\n      0x0100\n        /* \"--CODEGEN--\":250:272   */\n      exp\n        /* \"--CODEGEN--\":246:276   */\n      sub\n        /* \"--CODEGEN--\":315:319   */\n      dup1\n        /* \"--CODEGEN--\":311:320   */\n      not\n        /* \"--CODEGEN--\":305:308   */\n      dup3\n        /* \"--CODEGEN--\":299:309   */\n      mload\n        /* \"--CODEGEN--\":295:321   */\n      and\n        /* \"--CODEGEN--\":356:360   */\n      dup2\n        /* \"--CODEGEN--\":350:353   */\n      dup5\n        /* \"--CODEGEN--\":344:354   */\n      mload\n        /* \"--CODEGEN--\":340:361   */\n      and\n        /* \"--CODEGEN--\":389:396   */\n      dup1\n        /* \"--CODEGEN--\":380:387   */\n      dup3\n        /* \"--CODEGEN--\":377:397   */\n      or\n        /* \"--CODEGEN--\":372:375   */\n      dup6\n        /* \"--CODEGEN--\":365:398   */\n      mstore\n        /* \"--CODEGEN--\":3:402   */\n      pop\n      pop\n      pop\n        /* \"v2-core-master/contracts/DEXV2Factory.sol\":249:295  abi.encodePacked(type(DEXV2Pair).creationCode) */\n      pop\n      pop\n      pop\n      swap1\n      pop\n      add\n      swap2\n      pop\n      pop\n      mload(0x40)\n        /* \"--CODEGEN--\":49:53   */\n      0x20\n        /* \"--CODEGEN--\":39:46   */\n      dup2\n        /* \"--CODEGEN--\":30:37   */\n      dup4\n        /* \"--CODEGEN--\":26:47   */\n      sub\n        /* \"--CODEGEN--\":22:54   */\n      sub\n        /* \"--CODEGEN--\":13:20   */\n      dup2\n        /* \"--CODEGEN--\":6:55   */\n      mstore\n        /* \"v2-core-master/contracts/DEXV2Factory.sol\":249:295  abi.encodePacked(type(DEXV2Pair).creationCode) */\n      swap1\n      0x40\n      mstore\n        /* \"v2-core-master/contracts/DEXV2Factory.sol\":239:296  keccak256(abi.encodePacked(type(DEXV2Pair).creationCode)) */\n      dup1\n      mload\n      swap1\n      0x20\n      add\n      keccak256\n        /* \"v2-core-master/contracts/DEXV2Factory.sol\":198:296  bytes32 public constant INIT_CODE_HASH = keccak256(abi.encodePacked(type(DEXV2Pair).creationCode)) */\n      dup2\n      jump\t// out\n        /* \"v2-core-master/contracts/DEXV2Factory.sol\":585:679  function allPairsLength() external view returns (uint) {... */\n    tag_23:\n        /* \"v2-core-master/contracts/DEXV2Factory.sol\":657:665  allPairs */\n      0x03\n        /* \"v2-core-master/contracts/DEXV2Factory.sol\":657:672  allPairs.length */\n      sload\n        /* \"v2-core-master/contracts/DEXV2Factory.sol\":585:679  function allPairsLength() external view returns (uint) {... */\n      swap1\n      jump\t// out\n        /* \"v2-core-master/contracts/DEXV2Factory.sol\":1763:1925  function setFeeToSetter(address _feeToSetter) external {... */\n    tag_26:\n        /* \"v2-core-master/contracts/DEXV2Factory.sol\":1850:1861  feeToSetter */\n      and(sub(shl(0xa0, 0x01), 0x01), sload(0x01))\n        /* \"v2-core-master/contracts/DEXV2Factory.sol\":1836:1846  msg.sender */\n      caller\n        /* \"v2-core-master/contracts/DEXV2Factory.sol\":1836:1861  msg.sender == feeToSetter */\n      eq\n        /* \"v2-core-master/contracts/DEXV2Factory.sol\":1828:1882  require(msg.sender == feeToSetter, 'DEXV2: FORBIDDEN') */\n      tag_45\n      jumpi\n      0x40\n      dup1\n      mload\n      shl(0xe5, 0x461bcd)\n      dup2\n      mstore\n      0x20\n      0x04\n      dup3\n      add\n      mstore\n      0x10\n      0x24\n      dup3\n      add\n      mstore\n      shl(0x81, 0x2222ac2b191d102327a92124a22222a7)\n      0x44\n      dup3\n      add\n      mstore\n      swap1\n      mload\n      swap1\n      dup2\n      swap1\n      sub\n      0x64\n      add\n      swap1\n      revert\n    tag_45:\n        /* \"v2-core-master/contracts/DEXV2Factory.sol\":1892:1903  feeToSetter */\n      0x01\n        /* \"v2-core-master/contracts/DEXV2Factory.sol\":1892:1918  feeToSetter = _feeToSetter */\n      dup1\n      sload\n      not(sub(shl(0xa0, 0x01), 0x01))\n      and\n      sub(shl(0xa0, 0x01), 0x01)\n      swap3\n      swap1\n      swap3\n      and\n      swap2\n      swap1\n      swap2\n      or\n      swap1\n      sstore\n        /* \"v2-core-master/contracts/DEXV2Factory.sol\":1763:1925  function setFeeToSetter(address _feeToSetter) external {... */\n      jump\t// out\n        /* \"v2-core-master/contracts/DEXV2Factory.sol\":685:1613  function createPair(address tokenA, address tokenB) external returns (address pair) {... */\n    tag_29:\n        /* \"v2-core-master/contracts/DEXV2Factory.sol\":755:767  address pair */\n      0x00\n        /* \"v2-core-master/contracts/DEXV2Factory.sol\":797:803  tokenB */\n      dup2\n      sub(shl(0xa0, 0x01), 0x01)\n        /* \"v2-core-master/contracts/DEXV2Factory.sol\":787:803  tokenA != tokenB */\n      and\n        /* \"v2-core-master/contracts/DEXV2Factory.sol\":787:793  tokenA */\n      dup4\n      sub(shl(0xa0, 0x01), 0x01)\n        /* \"v2-core-master/contracts/DEXV2Factory.sol\":787:803  tokenA != tokenB */\n      and\n      eq\n      iszero\n        /* \"v2-core-master/contracts/DEXV2Factory.sol\":779:834  require(tokenA != tokenB, 'DEXV2: IDENTICAL_ADDRESSES') */\n      tag_47\n      jumpi\n      0x40\n      dup1\n      mload\n      shl(0xe5, 0x461bcd)\n      dup2\n      mstore\n      0x20\n      0x04\n      dup3\n      add\n      mstore\n      0x1a\n      0x24\n      dup3\n      add\n      mstore\n      0x44455856323a204944454e544943414c5f414444524553534553000000000000\n      0x44\n      dup3\n      add\n      mstore\n      swap1\n      mload\n      swap1\n      dup2\n      swap1\n      sub\n      0x64\n      add\n      swap1\n      revert\n    tag_47:\n        /* \"v2-core-master/contracts/DEXV2Factory.sol\":845:859  address token0 */\n      0x00\n        /* \"v2-core-master/contracts/DEXV2Factory.sol\":861:875  address token1 */\n      dup1\n        /* \"v2-core-master/contracts/DEXV2Factory.sol\":888:894  tokenB */\n      dup4\n      sub(shl(0xa0, 0x01), 0x01)\n        /* \"v2-core-master/contracts/DEXV2Factory.sol\":879:894  tokenA < tokenB */\n      and\n        /* \"v2-core-master/contracts/DEXV2Factory.sol\":879:885  tokenA */\n      dup6\n      sub(shl(0xa0, 0x01), 0x01)\n        /* \"v2-core-master/contracts/DEXV2Factory.sol\":879:894  tokenA < tokenB */\n      and\n      lt\n        /* \"v2-core-master/contracts/DEXV2Factory.sol\":879:932  tokenA < tokenB ? (tokenA, tokenB) : (tokenB, tokenA) */\n      tag_48\n      jumpi\n        /* \"v2-core-master/contracts/DEXV2Factory.sol\":917:923  tokenB */\n      dup4\n        /* \"v2-core-master/contracts/DEXV2Factory.sol\":925:931  tokenA */\n      dup6\n        /* \"v2-core-master/contracts/DEXV2Factory.sol\":879:932  tokenA < tokenB ? (tokenA, tokenB) : (tokenB, tokenA) */\n      jump(tag_49)\n    tag_48:\n        /* \"v2-core-master/contracts/DEXV2Factory.sol\":898:904  tokenA */\n      dup5\n        /* \"v2-core-master/contracts/DEXV2Factory.sol\":906:912  tokenB */\n      dup5\n        /* \"v2-core-master/contracts/DEXV2Factory.sol\":879:932  tokenA < tokenB ? (tokenA, tokenB) : (tokenB, tokenA) */\n    tag_49:\n        /* \"v2-core-master/contracts/DEXV2Factory.sol\":844:932  (address token0, address token1) = tokenA < tokenB ? (tokenA, tokenB) : (tokenB, tokenA) */\n      swap1\n      swap3\n      pop\n      swap1\n      pop\n      sub(shl(0xa0, 0x01), 0x01)\n        /* \"v2-core-master/contracts/DEXV2Factory.sol\":950:970  token0 != address(0) */\n      dup3\n      and\n        /* \"v2-core-master/contracts/DEXV2Factory.sol\":942:994  require(token0 != address(0), 'DEXV2: ZERO_ADDRESS') */\n      tag_50\n      jumpi\n      0x40\n      dup1\n      mload\n      shl(0xe5, 0x461bcd)\n      dup2\n      mstore\n      0x20\n      0x04\n      dup3\n      add\n      mstore\n      0x13\n      0x24\n      dup3\n      add\n      mstore\n      shl(0x68, 0x44455856323a205a45524f5f41444452455353)\n      0x44\n      dup3\n      add\n      mstore\n      swap1\n      mload\n      swap1\n      dup2\n      swap1\n      sub\n      0x64\n      add\n      swap1\n      revert\n    tag_50:\n      sub(shl(0xa0, 0x01), 0x01)\n        /* \"v2-core-master/contracts/DEXV2Factory.sol\":1012:1027  getPair[token0] */\n      dup3\n      dup2\n      and\n        /* \"v2-core-master/contracts/DEXV2Factory.sol\":1047:1048  0 */\n      0x00\n        /* \"v2-core-master/contracts/DEXV2Factory.sol\":1012:1027  getPair[token0] */\n      swap1\n      dup2\n      mstore\n        /* \"v2-core-master/contracts/DEXV2Factory.sol\":1012:1019  getPair */\n      0x02\n        /* \"v2-core-master/contracts/DEXV2Factory.sol\":1012:1027  getPair[token0] */\n      0x20\n      swap1\n      dup2\n      mstore\n      0x40\n      dup1\n      dup4\n      keccak256\n        /* \"v2-core-master/contracts/DEXV2Factory.sol\":1012:1035  getPair[token0][token1] */\n      dup6\n      dup6\n      and\n      dup5\n      mstore\n      swap1\n      swap2\n      mstore\n      swap1\n      keccak256\n      sload\n      and\n        /* \"v2-core-master/contracts/DEXV2Factory.sol\":1012:1049  getPair[token0][token1] == address(0) */\n      iszero\n        /* \"v2-core-master/contracts/DEXV2Factory.sol\":1004:1072  require(getPair[token0][token1] == address(0), 'DEXV2: PAIR_EXISTS') */\n      tag_51\n      jumpi\n      0x40\n      dup1\n      mload\n      shl(0xe5, 0x461bcd)\n      dup2\n      mstore\n      0x20\n      0x04\n      dup3\n      add\n      mstore\n      0x12\n      0x24\n      dup3\n      add\n      mstore\n      shl(0x70, 0x44455856323a20504149525f455849535453)\n      0x44\n      dup3\n      add\n      mstore\n      swap1\n      mload\n      swap1\n      dup2\n      swap1\n      sub\n      0x64\n      add\n      swap1\n      revert\n    tag_51:\n        /* \"v2-core-master/contracts/DEXV2Factory.sol\":1112:1133  bytes memory bytecode */\n      0x60\n        /* \"v2-core-master/contracts/DEXV2Factory.sol\":1136:1164  type(DEXV2Pair).creationCode */\n      mload(0x40)\n      dup1\n      0x20\n      add\n      tag_52\n      swap1\n      tag_39\n      jump\t// in\n    tag_52:\n        /* \"--CODEGEN--\":41:45   */\n      0x20\n        /* \"--CODEGEN--\":34:39   */\n      dup3\n        /* \"--CODEGEN--\":30:46   */\n      add\n        /* \"--CODEGEN--\":25:28   */\n      dup2\n        /* \"--CODEGEN--\":21:47   */\n      sub\n        /* \"--CODEGEN--\":14:19   */\n      dup3\n        /* \"--CODEGEN--\":7:48   */\n      mstore\n        /* \"--CODEGEN--\":87:89   */\n      0x1f\n        /* \"--CODEGEN--\":83:90   */\n      not\n        /* \"--CODEGEN--\":78:80   */\n      0x1f\n        /* \"--CODEGEN--\":73:76   */\n      dup3\n        /* \"--CODEGEN--\":69:81   */\n      add\n        /* \"--CODEGEN--\":65:91   */\n      and\n        /* \"--CODEGEN--\":61:63   */\n      0x40\n        /* \"--CODEGEN--\":54:92   */\n      mstore\n        /* \"v2-core-master/contracts/DEXV2Factory.sol\":1136:1164  type(DEXV2Pair).creationCode */\n      pop\n        /* \"v2-core-master/contracts/DEXV2Factory.sol\":1112:1164  bytes memory bytecode = type(DEXV2Pair).creationCode */\n      swap1\n      pop\n        /* \"v2-core-master/contracts/DEXV2Factory.sol\":1174:1186  bytes32 salt */\n      0x00\n        /* \"v2-core-master/contracts/DEXV2Factory.sol\":1216:1222  token0 */\n      dup4\n        /* \"v2-core-master/contracts/DEXV2Factory.sol\":1224:1230  token1 */\n      dup4\n        /* \"v2-core-master/contracts/DEXV2Factory.sol\":1199:1231  abi.encodePacked(token0, token1) */\n      add(0x20, mload(0x40))\n      dup1\n      dup4\n      sub(shl(0xa0, 0x01), 0x01)\n      and\n      sub(shl(0xa0, 0x01), 0x01)\n      and\n      0x60\n      shl\n      dup2\n      mstore\n      0x14\n      add\n      dup3\n      sub(shl(0xa0, 0x01), 0x01)\n      and\n      sub(shl(0xa0, 0x01), 0x01)\n      and\n      0x60\n      shl\n      dup2\n      mstore\n      0x14\n      add\n      swap3\n      pop\n      pop\n      pop\n      mload(0x40)\n        /* \"--CODEGEN--\":49:53   */\n      0x20\n        /* \"--CODEGEN--\":39:46   */\n      dup2\n        /* \"--CODEGEN--\":30:37   */\n      dup4\n        /* \"--CODEGEN--\":26:47   */\n      sub\n        /* \"--CODEGEN--\":22:54   */\n      sub\n        /* \"--CODEGEN--\":13:20   */\n      dup2\n        /* \"--CODEGEN--\":6:55   */\n      mstore\n        /* \"v2-core-master/contracts/DEXV2Factory.sol\":1199:1231  abi.encodePacked(token0, token1) */\n      swap1\n      0x40\n      mstore\n        /* \"v2-core-master/contracts/DEXV2Factory.sol\":1189:1232  keccak256(abi.encodePacked(token0, token1)) */\n      dup1\n      mload\n      swap1\n      0x20\n      add\n      keccak256\n        /* \"v2-core-master/contracts/DEXV2Factory.sol\":1174:1232  bytes32 salt = keccak256(abi.encodePacked(token0, token1)) */\n      swap1\n      pop\n        /* \"v2-core-master/contracts/DEXV2Factory.sol\":1320:1324  salt */\n      dup1\n        /* \"v2-core-master/contracts/DEXV2Factory.sol\":1309:1317  bytecode */\n      dup3\n        /* \"v2-core-master/contracts/DEXV2Factory.sol\":1303:1318  mload(bytecode) */\n      mload\n        /* \"v2-core-master/contracts/DEXV2Factory.sol\":1298:1300  32 */\n      0x20\n        /* \"v2-core-master/contracts/DEXV2Factory.sol\":1288:1296  bytecode */\n      dup5\n        /* \"v2-core-master/contracts/DEXV2Factory.sol\":1284:1301  add(bytecode, 32) */\n      add\n        /* \"v2-core-master/contracts/DEXV2Factory.sol\":1281:1282  0 */\n      0x00\n        /* \"v2-core-master/contracts/DEXV2Factory.sol\":1273:1325  create2(0, add(bytecode, 32), mload(bytecode), salt) */\n      create2\n        /* \"v2-core-master/contracts/DEXV2Factory.sol\":1344:1387  IDEXV2Pair(pair).initialize(token0, token1) */\n      0x40\n      dup1\n      mload\n      shl(0xe0, 0x485cc955)\n      dup2\n      mstore\n      sub(shl(0xa0, 0x01), 0x01)\n      dup8\n      dup2\n      and\n      0x04\n      dup4\n      add\n      mstore\n      dup7\n      dup2\n      and\n      0x24\n      dup4\n      add\n      mstore\n      swap2\n      mload\n        /* \"v2-core-master/contracts/DEXV2Factory.sol\":1265:1325  pair := create2(0, add(bytecode, 32), mload(bytecode), salt) */\n      swap3\n      swap8\n      pop\n        /* \"v2-core-master/contracts/DEXV2Factory.sol\":1344:1371  IDEXV2Pair(pair).initialize */\n      swap1\n      dup8\n      and\n      swap2\n      0x485cc955\n      swap2\n        /* \"v2-core-master/contracts/DEXV2Factory.sol\":1344:1387  IDEXV2Pair(pair).initialize(token0, token1) */\n      0x44\n      dup1\n      dup3\n      add\n      swap3\n      0x00\n      swap3\n      swap1\n      swap2\n      swap1\n      dup3\n      swap1\n      sub\n      add\n      dup2\n      dup4\n        /* \"v2-core-master/contracts/DEXV2Factory.sol\":1344:1371  IDEXV2Pair(pair).initialize */\n      dup8\n        /* \"v2-core-master/contracts/DEXV2Factory.sol\":1344:1387  IDEXV2Pair(pair).initialize(token0, token1) */\n      dup1\n      extcodesize\n      iszero\n        /* \"--CODEGEN--\":5:7   */\n      dup1\n      iszero\n      tag_53\n      jumpi\n        /* \"--CODEGEN--\":30:31   */\n      0x00\n        /* \"--CODEGEN--\":27:28   */\n      dup1\n        /* \"--CODEGEN--\":20:32   */\n      revert\n        /* \"--CODEGEN--\":5:7   */\n    tag_53:\n        /* \"v2-core-master/contracts/DEXV2Factory.sol\":1344:1387  IDEXV2Pair(pair).initialize(token0, token1) */\n      pop\n      gas\n      call\n      iszero\n        /* \"--CODEGEN--\":8:17   */\n      dup1\n        /* \"--CODEGEN--\":5:7   */\n      iszero\n      tag_54\n      jumpi\n        /* \"--CODEGEN--\":45:61   */\n      returndatasize\n        /* \"--CODEGEN--\":42:43   */\n      0x00\n        /* \"--CODEGEN--\":39:40   */\n      dup1\n        /* \"--CODEGEN--\":24:62   */\n      returndatacopy\n        /* \"--CODEGEN--\":77:93   */\n      returndatasize\n        /* \"--CODEGEN--\":74:75   */\n      0x00\n        /* \"--CODEGEN--\":67:94   */\n      revert\n        /* \"--CODEGEN--\":5:7   */\n    tag_54:\n      pop\n      pop\n      pop\n      pop\n      sub(shl(0xa0, 0x01), 0x01)\n        /* \"v2-core-master/contracts/DEXV2Factory.sol\":1397:1412  getPair[token0] */\n      dup5\n      dup2\n      and\n      0x00\n      dup2\n      dup2\n      mstore\n        /* \"v2-core-master/contracts/DEXV2Factory.sol\":1397:1404  getPair */\n      0x02\n        /* \"v2-core-master/contracts/DEXV2Factory.sol\":1397:1412  getPair[token0] */\n      0x20\n      dup2\n      dup2\n      mstore\n      0x40\n      dup1\n      dup5\n      keccak256\n        /* \"v2-core-master/contracts/DEXV2Factory.sol\":1397:1420  getPair[token0][token1] */\n      dup10\n      dup8\n      and\n      dup1\n      dup7\n      mstore\n      swap1\n      dup4\n      mstore\n      dup2\n      dup6\n      keccak256\n        /* \"v2-core-master/contracts/DEXV2Factory.sol\":1397:1427  getPair[token0][token1] = pair */\n      dup1\n      sload\n      swap8\n      dup14\n      and\n      not(sub(shl(0xa0, 0x01), 0x01))\n      swap9\n      dup10\n      and\n      dup2\n      or\n      swap1\n      swap2\n      sstore\n        /* \"v2-core-master/contracts/DEXV2Factory.sol\":1437:1452  getPair[token1] */\n      swap4\n      dup4\n      mstore\n      dup2\n      dup6\n      keccak256\n        /* \"v2-core-master/contracts/DEXV2Factory.sol\":1437:1460  getPair[token1][token0] */\n      dup7\n      dup7\n      mstore\n      dup4\n      mstore\n      dup2\n      dup6\n      keccak256\n        /* \"v2-core-master/contracts/DEXV2Factory.sol\":1437:1467  getPair[token1][token0] = pair */\n      dup1\n      sload\n      dup9\n      and\n      dup6\n      or\n      swap1\n      sstore\n        /* \"v2-core-master/contracts/DEXV2Factory.sol\":1522:1530  allPairs */\n      0x03\n        /* \"--CODEGEN--\":27:37   */\n      dup1\n      sload\n      0x01\n        /* \"--CODEGEN--\":23:41   */\n      dup2\n      add\n        /* \"--CODEGEN--\":45:68   */\n      dup3\n      sstore\n        /* \"v2-core-master/contracts/DEXV2Factory.sol\":1522:1541  allPairs.push(pair) */\n      swap6\n      dup2\n      swap1\n      mstore\n      0xc2575a0e9e593c00f959f8c92f12db2869c3395a3b0502d05e2516446f71f85b\n      swap1\n      swap6\n      add\n      dup1\n      sload\n      swap1\n      swap8\n      and\n      dup5\n      or\n      swap1\n      swap7\n      sstore\n        /* \"v2-core-master/contracts/DEXV2Factory.sol\":1590:1605  allPairs.length */\n      swap3\n      sload\n        /* \"v2-core-master/contracts/DEXV2Factory.sol\":1556:1606  PairCreated(token0, token1, pair, allPairs.length) */\n      dup4\n      mload\n      swap3\n      dup4\n      mstore\n      swap1\n      dup3\n      add\n      mstore\n      dup2\n      mload\n      0x0d3648bd0f6ba80134a33ba9275ac585d9d315f0ad8355cddefde31afa28d0e9\n      swap3\n      swap2\n      dup2\n      swap1\n      sub\n      swap1\n      swap2\n      add\n      swap1\n      log3\n        /* \"v2-core-master/contracts/DEXV2Factory.sol\":685:1613  function createPair(address tokenA, address tokenB) external returns (address pair) {... */\n      pop\n      pop\n      pop\n      pop\n      swap3\n      swap2\n      pop\n      pop\n      jump\t// out\n        /* \"v2-core-master/contracts/DEXV2Factory.sol\":303:365  mapping(address => mapping(address => address)) public getPair */\n    tag_32:\n      0x02\n      0x20\n      swap1\n      dup2\n      mstore\n      0x00\n      swap3\n      dup4\n      mstore\n      0x40\n      dup1\n      dup5\n      keccak256\n      swap1\n      swap2\n      mstore\n      swap1\n      dup3\n      mstore\n      swap1\n      keccak256\n      sload\n      sub(shl(0xa0, 0x01), 0x01)\n      and\n      dup2\n      jump\t// out\n        /* \"v2-core-master/contracts/DEXV2Factory.sol\":1619:1757  function setFeeTo(address _feeTo) external {... */\n    tag_35:\n        /* \"v2-core-master/contracts/DEXV2Factory.sol\":1694:1705  feeToSetter */\n      and(sub(shl(0xa0, 0x01), 0x01), sload(0x01))\n        /* \"v2-core-master/contracts/DEXV2Factory.sol\":1680:1690  msg.sender */\n      caller\n        /* \"v2-core-master/contracts/DEXV2Factory.sol\":1680:1705  msg.sender == feeToSetter */\n      eq\n        /* \"v2-core-master/contracts/DEXV2Factory.sol\":1672:1726  require(msg.sender == feeToSetter, 'DEXV2: FORBIDDEN') */\n      tag_57\n      jumpi\n      0x40\n      dup1\n      mload\n      shl(0xe5, 0x461bcd)\n      dup2\n      mstore\n      0x20\n      0x04\n      dup3\n      add\n      mstore\n      0x10\n      0x24\n      dup3\n      add\n      mstore\n      shl(0x81, 0x2222ac2b191d102327a92124a22222a7)\n      0x44\n      dup3\n      add\n      mstore\n      swap1\n      mload\n      swap1\n      dup2\n      swap1\n      sub\n      0x64\n      add\n      swap1\n      revert\n    tag_57:\n        /* \"v2-core-master/contracts/DEXV2Factory.sol\":1736:1741  feeTo */\n      0x00\n        /* \"v2-core-master/contracts/DEXV2Factory.sol\":1736:1750  feeTo = _feeTo */\n      dup1\n      sload\n      not(sub(shl(0xa0, 0x01), 0x01))\n      and\n      sub(shl(0xa0, 0x01), 0x01)\n      swap3\n      swap1\n      swap3\n      and\n      swap2\n      swap1\n      swap2\n      or\n      swap1\n      sstore\n        /* \"v2-core-master/contracts/DEXV2Factory.sol\":1619:1757  function setFeeTo(address _feeTo) external {... */\n      jump\t// out\n        /* \"v2-core-master/contracts/DEXV2Factory.sol\":94:1927  contract DEXV2Factory is IDEXV2Factory {... */\n    tag_39:\n      dataSize(sub_0)\n      dup1\n      dataOffset(sub_0)\n      dup4\n      codecopy\n      add\n      swap1\n      jump\t// out\n    stop\n\n    sub_0: assembly {\n            /* \"v2-core-master/contracts/DEXV2Pair.sol\":274:9703  contract DEXV2Pair is IDEXV2Pair, DEXV2ERC20 {... */\n          mstore(0x40, 0x80)\n            /* \"v2-core-master/contracts/DEXV2Pair.sol\":1112:1113  1 */\n          0x01\n            /* \"v2-core-master/contracts/DEXV2Pair.sol\":1088:1113  uint private unlocked = 1 */\n          0x0c\n          sstore\n            /* \"v2-core-master/contracts/DEXV2Pair.sol\":2160:2218  constructor() public {... */\n          callvalue\n            /* \"--CODEGEN--\":8:17   */\n          dup1\n            /* \"--CODEGEN--\":5:7   */\n          iszero\n          tag_1\n          jumpi\n            /* \"--CODEGEN--\":30:31   */\n          0x00\n            /* \"--CODEGEN--\":27:28   */\n          dup1\n            /* \"--CODEGEN--\":20:32   */\n          revert\n            /* \"--CODEGEN--\":5:7   */\n        tag_1:\n          pop\n            /* \"v2-core-master/contracts/DEXV2ERC20.sol\":1086:1181  keccak256('EIP712Domain(string name,string version,uint256 chainId,address verifyingContract)') */\n          mload(0x40)\n            /* \"v2-core-master/contracts/DEXV2ERC20.sol\":990:997  chainid */\n          chainid\n          swap1\n            /* \"v2-core-master/contracts/DEXV2ERC20.sol\":1086:1181  keccak256('EIP712Domain(string name,string version,uint256 chainId,address verifyingContract)') */\n          dup1\n          0x52\n          data_8b73c3c69bb8fe3d512ecc4cf759cc79239f7b179b0ffacaa9a75d522b39400f\n          dup3\n          codecopy\n          0x40\n          dup1\n          mload\n          swap2\n          dup3\n          swap1\n          sub\n          0x52\n          add\n          dup3\n          keccak256\n            /* \"v2-core-master/contracts/DEXV2ERC20.sol\":1215:1219  name */\n          dup3\n          dup3\n          add\n          dup3\n          mstore\n          0x06\n          dup4\n          mstore\n          shl(0xd1, 0x2222ac102b19)\n          0x20\n          swap4\n          dup5\n          add\n          mstore\n            /* \"v2-core-master/contracts/DEXV2ERC20.sol\":1249:1259  bytes('1') */\n          dup2\n          mload\n          dup1\n          dup4\n          add\n          dup4\n          mstore\n          0x01\n          dup2\n          mstore\n          shl(0xf8, 0x31)\n          swap1\n          dup5\n          add\n          mstore\n            /* \"v2-core-master/contracts/DEXV2ERC20.sol\":1058:1330  abi.encode(... */\n          dup2\n          mload\n          dup1\n          dup5\n          add\n          swap2\n          swap1\n          swap2\n          mstore\n            /* \"v2-core-master/contracts/DEXV2ERC20.sol\":1199:1221  keccak256(bytes(name)) */\n          0xc1c10dcba44900605795c0d4b2d4c7476e8679a18b4c003d4fb30b906d50ef31\n            /* \"v2-core-master/contracts/DEXV2ERC20.sol\":1058:1330  abi.encode(... */\n          dup2\n          dup4\n          add\n          mstore\n            /* \"v2-core-master/contracts/DEXV2ERC20.sol\":1239:1260  keccak256(bytes('1')) */\n          0xc89efdaa54c0f20c7adf612882df0950f5a951637e0307cdcb4c672f298b8bc6\n            /* \"v2-core-master/contracts/DEXV2ERC20.sol\":1058:1330  abi.encode(... */\n          0x60\n          dup3\n          add\n          mstore\n          0x80\n          dup2\n          add\n          swap5\n          swap1\n          swap5\n          mstore\n            /* \"v2-core-master/contracts/DEXV2ERC20.sol\":1311:1315  this */\n          address\n            /* \"v2-core-master/contracts/DEXV2ERC20.sol\":1058:1330  abi.encode(... */\n          0xa0\n          dup1\n          dup7\n          add\n          swap2\n          swap1\n          swap2\n          mstore\n          dup2\n          mload\n            /* \"--CODEGEN--\":26:47   */\n          dup1\n          dup7\n          sub\n            /* \"--CODEGEN--\":22:54   */\n          swap1\n          swap2\n          add\n            /* \"--CODEGEN--\":6:55   */\n          dup2\n          mstore\n            /* \"v2-core-master/contracts/DEXV2ERC20.sol\":1058:1330  abi.encode(... */\n          0xc0\n          swap1\n          swap5\n          add\n          swap1\n          mstore\n            /* \"v2-core-master/contracts/DEXV2ERC20.sol\":1035:1340  keccak256(... */\n          dup3\n          mload\n          swap3\n          add\n          swap2\n          swap1\n          swap2\n          keccak256\n            /* \"v2-core-master/contracts/DEXV2ERC20.sol\":1016:1032  DOMAIN_SEPARATOR */\n          0x03\n            /* \"v2-core-master/contracts/DEXV2ERC20.sol\":1016:1340  DOMAIN_SEPARATOR = keccak256(... */\n          sstore\n          pop\n            /* \"v2-core-master/contracts/DEXV2Pair.sol\":2191:2198  factory */\n          0x05\n            /* \"v2-core-master/contracts/DEXV2Pair.sol\":2191:2211  factory = msg.sender */\n          dup1\n          sload\n          not(sub(shl(0xa0, 0x01), 0x01))\n          and\n            /* \"v2-core-master/contracts/DEXV2Pair.sol\":2201:2211  msg.sender */\n          caller\n            /* \"v2-core-master/contracts/DEXV2Pair.sol\":2191:2211  factory = msg.sender */\n          or\n          swap1\n          sstore\n          0x2229\n          dup1\n            /* \"v2-core-master/contracts/DEXV2Pair.sol\":274:9703  contract DEXV2Pair is IDEXV2Pair, DEXV2ERC20 {... */\n          dataOffset(sub_0)\n          0x00\n          codecopy\n          0x00\n          return\n        stop\n        data_8b73c3c69bb8fe3d512ecc4cf759cc79239f7b179b0ffacaa9a75d522b39400f 454950373132446f6d61696e28737472696e67206e616d652c737472696e672076657273696f6e2c75696e7432353620636861696e49642c6164647265737320766572696679696e67436f6e747261637429\n\n        sub_0: assembly {\n                /* \"v2-core-master/contracts/DEXV2Pair.sol\":274:9703  contract DEXV2Pair is IDEXV2Pair, DEXV2ERC20 {... */\n              mstore(0x40, 0x80)\n              callvalue\n                /* \"--CODEGEN--\":8:17   */\n              dup1\n                /* \"--CODEGEN--\":5:7   */\n              iszero\n              tag_1\n              jumpi\n                /* \"--CODEGEN--\":30:31   */\n              0x00\n                /* \"--CODEGEN--\":27:28   */\n              dup1\n                /* \"--CODEGEN--\":20:32   */\n              revert\n                /* \"--CODEGEN--\":5:7   */\n            tag_1:\n                /* \"v2-core-master/contracts/DEXV2Pair.sol\":274:9703  contract DEXV2Pair is IDEXV2Pair, DEXV2ERC20 {... */\n              pop\n              jumpi(tag_2, lt(calldatasize, 0x04))\n              shr(0xe0, calldataload(0x00))\n              dup1\n              0x6a627842\n              gt\n              tag_30\n              jumpi\n              dup1\n              0xba9a7a56\n              gt\n              tag_31\n              jumpi\n              dup1\n              0xd21220a7\n              gt\n              tag_32\n              jumpi\n              dup1\n              0xd21220a7\n              eq\n              tag_26\n              jumpi\n              dup1\n              0xd505accf\n              eq\n              tag_27\n              jumpi\n              dup1\n              0xdd62ed3e\n              eq\n              tag_28\n              jumpi\n              dup1\n              0xfff6cae9\n              eq\n              tag_29\n              jumpi\n              jump(tag_2)\n            tag_32:\n              dup1\n              0xba9a7a56\n              eq\n              tag_23\n              jumpi\n              dup1\n              0xbc25cf77\n              eq\n              tag_24\n              jumpi\n              dup1\n              0xc45a0155\n              eq\n              tag_25\n              jumpi\n              jump(tag_2)\n            tag_31:\n              dup1\n              0x7ecebe00\n              gt\n              tag_33\n              jumpi\n              dup1\n              0x7ecebe00\n              eq\n              tag_19\n              jumpi\n              dup1\n              0x89afcb44\n              eq\n              tag_20\n              jumpi\n              dup1\n              0x95d89b41\n              eq\n              tag_21\n              jumpi\n              dup1\n              0xa9059cbb\n              eq\n              tag_22\n              jumpi\n              jump(tag_2)\n            tag_33:\n              dup1\n              0x6a627842\n              eq\n              tag_16\n              jumpi\n              dup1\n              0x70a08231\n              eq\n              tag_17\n              jumpi\n              dup1\n              0x7464fc3d\n              eq\n              tag_18\n              jumpi\n              jump(tag_2)\n            tag_30:\n              dup1\n              0x23b872dd\n              gt\n              tag_34\n              jumpi\n              dup1\n              0x3644e515\n              gt\n              tag_35\n              jumpi\n              dup1\n              0x3644e515\n              eq\n              tag_12\n              jumpi\n              dup1\n              0x485cc955\n              eq\n              tag_13\n              jumpi\n              dup1\n              0x5909c0d5\n              eq\n              tag_14\n              jumpi\n              dup1\n              0x5a3d5493\n              eq\n              tag_15\n              jumpi\n              jump(tag_2)\n            tag_35:\n              dup1\n              0x23b872dd\n              eq\n              tag_9\n              jumpi\n              dup1\n              0x30adf81f\n              eq\n              tag_10\n              jumpi\n              dup1\n              0x313ce567\n              eq\n              tag_11\n              jumpi\n              jump(tag_2)\n            tag_34:\n              dup1\n              0x022c0d9f\n              eq\n              tag_3\n              jumpi\n              dup1\n              0x06fdde03\n              eq\n              tag_4\n              jumpi\n              dup1\n              0x0902f1ac\n              eq\n              tag_5\n              jumpi\n              dup1\n              0x095ea7b3\n              eq\n              tag_6\n              jumpi\n              dup1\n              0x0dfe1681\n              eq\n              tag_7\n              jumpi\n              dup1\n              0x18160ddd\n              eq\n              tag_8\n              jumpi\n            tag_2:\n              0x00\n              dup1\n              revert\n                /* \"v2-core-master/contracts/DEXV2Pair.sol\":7291:9124  function swap(uint amount0Out, uint amount1Out, address to, bytes calldata data) external lock {... */\n            tag_3:\n              tag_36\n              0x04\n              dup1\n              calldatasize\n              sub\n                /* \"--CODEGEN--\":13:16   */\n              0x80\n                /* \"--CODEGEN--\":8:11   */\n              dup2\n                /* \"--CODEGEN--\":5:17   */\n              lt\n                /* \"--CODEGEN--\":2:4   */\n              iszero\n              tag_37\n              jumpi\n                /* \"--CODEGEN--\":30:31   */\n              0x00\n                /* \"--CODEGEN--\":27:28   */\n              dup1\n                /* \"--CODEGEN--\":20:32   */\n              revert\n                /* \"--CODEGEN--\":2:4   */\n            tag_37:\n                /* \"v2-core-master/contracts/DEXV2Pair.sol\":7291:9124  function swap(uint amount0Out, uint amount1Out, address to, bytes calldata data) external lock {... */\n              dup2\n              calldataload\n              swap2\n              0x20\n              dup2\n              add\n              calldataload\n              swap2\n              0x40\n              dup3\n              add\n              calldataload\n              sub(shl(0xa0, 0x01), 0x01)\n              and\n              swap2\n              swap1\n              dup2\n              add\n              swap1\n              0x80\n              dup2\n              add\n              0x60\n              dup3\n              add\n              calldataload\n                /* \"--CODEGEN--\":21:32   */\n              0x0100000000\n                /* \"--CODEGEN--\":5:33   */\n              dup2\n              gt\n                /* \"--CODEGEN--\":2:4   */\n              iszero\n              tag_38\n              jumpi\n                /* \"--CODEGEN--\":46:47   */\n              0x00\n                /* \"--CODEGEN--\":43:44   */\n              dup1\n                /* \"--CODEGEN--\":36:48   */\n              revert\n                /* \"--CODEGEN--\":2:4   */\n            tag_38:\n                /* \"v2-core-master/contracts/DEXV2Pair.sol\":7291:9124  function swap(uint amount0Out, uint amount1Out, address to, bytes calldata data) external lock {... */\n              dup3\n              add\n                /* \"--CODEGEN--\":35:44   */\n              dup4\n                /* \"--CODEGEN--\":28:32   */\n              0x20\n                /* \"--CODEGEN--\":12:26   */\n              dup3\n                /* \"--CODEGEN--\":8:33   */\n              add\n                /* \"--CODEGEN--\":5:45   */\n              gt\n                /* \"--CODEGEN--\":2:4   */\n              iszero\n              tag_39\n              jumpi\n                /* \"--CODEGEN--\":58:59   */\n              0x00\n                /* \"--CODEGEN--\":55:56   */\n              dup1\n                /* \"--CODEGEN--\":48:60   */\n              revert\n                /* \"--CODEGEN--\":2:4   */\n            tag_39:\n                /* \"v2-core-master/contracts/DEXV2Pair.sol\":7291:9124  function swap(uint amount0Out, uint amount1Out, address to, bytes calldata data) external lock {... */\n              dup1\n              calldataload\n              swap1\n              0x20\n              add\n              swap2\n                /* \"--CODEGEN--\":100:109   */\n              dup5\n                /* \"--CODEGEN--\":95:96   */\n              0x01\n                /* \"--CODEGEN--\":81:93   */\n              dup4\n                /* \"--CODEGEN--\":77:97   */\n              mul\n                /* \"--CODEGEN--\":67:75   */\n              dup5\n                /* \"--CODEGEN--\":63:98   */\n              add\n                /* \"--CODEGEN--\":60:110   */\n              gt\n                /* \"--CODEGEN--\":39:50   */\n              0x0100000000\n                /* \"--CODEGEN--\":25:37   */\n              dup4\n                /* \"--CODEGEN--\":22:51   */\n              gt\n                /* \"--CODEGEN--\":11:118   */\n              or\n                /* \"--CODEGEN--\":8:10   */\n              iszero\n              tag_40\n              jumpi\n                /* \"--CODEGEN--\":131:132   */\n              0x00\n                /* \"--CODEGEN--\":128:129   */\n              dup1\n                /* \"--CODEGEN--\":121:133   */\n              revert\n                /* \"--CODEGEN--\":8:10   */\n            tag_40:\n              pop\n                /* \"v2-core-master/contracts/DEXV2Pair.sol\":7291:9124  function swap(uint amount0Out, uint amount1Out, address to, bytes calldata data) external lock {... */\n              swap1\n              swap3\n              pop\n              swap1\n              pop\n              tag_41\n              jump\t// in\n            tag_36:\n              stop\n                /* \"v2-core-master/contracts/DEXV2ERC20.sol\":172:210  string public constant name = 'DEX V2' */\n            tag_4:\n              tag_42\n              tag_43\n              jump\t// in\n            tag_42:\n              0x40\n              dup1\n              mload\n              0x20\n              dup1\n              dup3\n              mstore\n              dup4\n              mload\n              dup2\n              dup4\n              add\n              mstore\n              dup4\n              mload\n              swap2\n              swap3\n              dup4\n              swap3\n              swap1\n              dup4\n              add\n              swap2\n              dup6\n              add\n              swap1\n              dup1\n              dup4\n              dup4\n              0x00\n                /* \"--CODEGEN--\":8:108   */\n            tag_44:\n                /* \"--CODEGEN--\":33:36   */\n              dup4\n                /* \"--CODEGEN--\":30:31   */\n              dup2\n                /* \"--CODEGEN--\":27:37   */\n              lt\n                /* \"--CODEGEN--\":8:108   */\n              iszero\n              tag_46\n              jumpi\n                /* \"--CODEGEN--\":90:101   */\n              dup2\n              dup2\n              add\n                /* \"--CODEGEN--\":84:102   */\n              mload\n                /* \"--CODEGEN--\":71:82   */\n              dup4\n              dup3\n              add\n                /* \"--CODEGEN--\":64:103   */\n              mstore\n                /* \"--CODEGEN--\":52:54   */\n              0x20\n                /* \"--CODEGEN--\":45:55   */\n              add\n                /* \"--CODEGEN--\":8:108   */\n              jump(tag_44)\n            tag_46:\n                /* \"--CODEGEN--\":12:26   */\n              pop\n                /* \"v2-core-master/contracts/DEXV2ERC20.sol\":172:210  string public constant name = 'DEX V2' */\n              pop\n              pop\n              pop\n              swap1\n              pop\n              swap1\n              dup2\n              add\n              swap1\n              0x1f\n              and\n              dup1\n              iszero\n              tag_47\n              jumpi\n              dup1\n              dup3\n              sub\n              dup1\n              mload\n              0x01\n              dup4\n              0x20\n              sub\n              0x0100\n              exp\n              sub\n              not\n              and\n              dup2\n              mstore\n              0x20\n              add\n              swap2\n              pop\n            tag_47:\n              pop\n              swap3\n              pop\n              pop\n              pop\n              mload(0x40)\n              dup1\n              swap2\n              sub\n              swap1\n              return\n                /* \"v2-core-master/contracts/DEXV2Pair.sol\":1252:1479  function getReserves() public view returns (uint112 _reserve0, uint112 _reserve1, uint32 _blockTimestampLast) {... */\n            tag_5:\n              tag_48\n              tag_49\n              jump\t// in\n            tag_48:\n              0x40\n              dup1\n              mload\n              sub(shl(0x70, 0x01), 0x01)\n              swap5\n              dup6\n              and\n              dup2\n              mstore\n              swap3\n              swap1\n              swap4\n              and\n              0x20\n              dup4\n              add\n              mstore\n              0xffffffff\n              and\n              dup2\n              dup4\n              add\n              mstore\n              swap1\n              mload\n              swap1\n              dup2\n              swap1\n              sub\n              0x60\n              add\n              swap1\n              return\n                /* \"v2-core-master/contracts/DEXV2ERC20.sol\":2161:2305  function approve(address spender, uint value) external returns (bool) {... */\n            tag_6:\n              tag_50\n              0x04\n              dup1\n              calldatasize\n              sub\n                /* \"--CODEGEN--\":13:15   */\n              0x40\n                /* \"--CODEGEN--\":8:11   */\n              dup2\n                /* \"--CODEGEN--\":5:16   */\n              lt\n                /* \"--CODEGEN--\":2:4   */\n              iszero\n              tag_51\n              jumpi\n                /* \"--CODEGEN--\":29:30   */\n              0x00\n                /* \"--CODEGEN--\":26:27   */\n              dup1\n                /* \"--CODEGEN--\":19:31   */\n              revert\n                /* \"--CODEGEN--\":2:4   */\n            tag_51:\n              pop\n                /* \"v2-core-master/contracts/DEXV2ERC20.sol\":2161:2305  function approve(address spender, uint value) external returns (bool) {... */\n              dup1\n              calldataload\n              sub(shl(0xa0, 0x01), 0x01)\n              and\n              swap1\n              0x20\n              add\n              calldataload\n              tag_52\n              jump\t// in\n            tag_50:\n              0x40\n              dup1\n              mload\n              swap2\n              iszero\n              iszero\n              dup3\n              mstore\n              mload\n              swap1\n              dup2\n              swap1\n              sub\n              0x20\n              add\n              swap1\n              return\n                /* \"v2-core-master/contracts/DEXV2Pair.sol\":564:585  address public token0 */\n            tag_7:\n              tag_53\n              tag_54\n              jump\t// in\n            tag_53:\n              0x40\n              dup1\n              mload\n              0x01\n              dup1\n              0xa0\n              shl\n              sub\n              swap1\n              swap3\n              and\n              dup3\n              mstore\n              mload\n              swap1\n              dup2\n              swap1\n              sub\n              0x20\n              add\n              swap1\n              return\n                /* \"v2-core-master/contracts/DEXV2ERC20.sol\":303:327  uint  public totalSupply */\n            tag_8:\n              tag_55\n              tag_56\n              jump\t// in\n            tag_55:\n              0x40\n              dup1\n              mload\n              swap2\n              dup3\n              mstore\n              mload\n              swap1\n              dup2\n              swap1\n              sub\n              0x20\n              add\n              swap1\n              return\n                /* \"v2-core-master/contracts/DEXV2ERC20.sol\":2453:2748  function transferFrom(address from, address to, uint value) external returns (bool) {... */\n            tag_9:\n              tag_50\n              0x04\n              dup1\n              calldatasize\n              sub\n                /* \"--CODEGEN--\":13:15   */\n              0x60\n                /* \"--CODEGEN--\":8:11   */\n              dup2\n                /* \"--CODEGEN--\":5:16   */\n              lt\n                /* \"--CODEGEN--\":2:4   */\n              iszero\n              tag_58\n              jumpi\n                /* \"--CODEGEN--\":29:30   */\n              0x00\n                /* \"--CODEGEN--\":26:27   */\n              dup1\n                /* \"--CODEGEN--\":19:31   */\n              revert\n                /* \"--CODEGEN--\":2:4   */\n            tag_58:\n              pop\n              sub(shl(0xa0, 0x01), 0x01)\n                /* \"v2-core-master/contracts/DEXV2ERC20.sol\":2453:2748  function transferFrom(address from, address to, uint value) external returns (bool) {... */\n              dup2\n              calldataload\n              dup2\n              and\n              swap2\n              0x20\n              dup2\n              add\n              calldataload\n              swap1\n              swap2\n              and\n              swap1\n              0x40\n              add\n              calldataload\n              tag_59\n              jump\t// in\n                /* \"v2-core-master/contracts/DEXV2ERC20.sol\":589:697  bytes32 public constant PERMIT_TYPEHASH = 0x6e71edae12b1b97f4d1f60370fef10105fa2faae0126114a169c64845d6126c9 */\n            tag_10:\n              tag_55\n              tag_61\n              jump\t// in\n                /* \"v2-core-master/contracts/DEXV2ERC20.sol\":262:297  uint8 public constant decimals = 18 */\n            tag_11:\n              tag_62\n              tag_63\n              jump\t// in\n            tag_62:\n              0x40\n              dup1\n              mload\n              0xff\n              swap1\n              swap3\n              and\n              dup3\n              mstore\n              mload\n              swap1\n              dup2\n              swap1\n              sub\n              0x20\n              add\n              swap1\n              return\n                /* \"v2-core-master/contracts/DEXV2ERC20.sol\":448:479  bytes32 public DOMAIN_SEPARATOR */\n            tag_12:\n              tag_55\n              tag_65\n              jump\t// in\n                /* \"v2-core-master/contracts/DEXV2Pair.sol\":2280:2482  function initialize(address _token0, address _token1) external {... */\n            tag_13:\n              tag_36\n              0x04\n              dup1\n              calldatasize\n              sub\n                /* \"--CODEGEN--\":13:15   */\n              0x40\n                /* \"--CODEGEN--\":8:11   */\n              dup2\n                /* \"--CODEGEN--\":5:16   */\n              lt\n                /* \"--CODEGEN--\":2:4   */\n              iszero\n              tag_67\n              jumpi\n                /* \"--CODEGEN--\":29:30   */\n              0x00\n                /* \"--CODEGEN--\":26:27   */\n              dup1\n                /* \"--CODEGEN--\":19:31   */\n              revert\n                /* \"--CODEGEN--\":2:4   */\n            tag_67:\n              pop\n              sub(shl(0xa0, 0x01), 0x01)\n                /* \"v2-core-master/contracts/DEXV2Pair.sol\":2280:2482  function initialize(address _token0, address _token1) external {... */\n              dup2\n              calldataload\n              dup2\n              and\n              swap2\n              0x20\n              add\n              calldataload\n              and\n              tag_68\n              jump\t// in\n                /* \"v2-core-master/contracts/DEXV2Pair.sol\":908:940  uint public price0CumulativeLast */\n            tag_14:\n              tag_55\n              tag_70\n              jump\t// in\n                /* \"v2-core-master/contracts/DEXV2Pair.sol\":946:978  uint public price1CumulativeLast */\n            tag_15:\n              tag_55\n              tag_72\n              jump\t// in\n                /* \"v2-core-master/contracts/DEXV2Pair.sol\":4418:5633  function mint(address to) external lock returns (uint liquidity) {... */\n            tag_16:\n              tag_55\n              0x04\n              dup1\n              calldatasize\n              sub\n                /* \"--CODEGEN--\":13:15   */\n              0x20\n                /* \"--CODEGEN--\":8:11   */\n              dup2\n                /* \"--CODEGEN--\":5:16   */\n              lt\n                /* \"--CODEGEN--\":2:4   */\n              iszero\n              tag_74\n              jumpi\n                /* \"--CODEGEN--\":29:30   */\n              0x00\n                /* \"--CODEGEN--\":26:27   */\n              dup1\n                /* \"--CODEGEN--\":19:31   */\n              revert\n                /* \"--CODEGEN--\":2:4   */\n            tag_74:\n              pop\n                /* \"v2-core-master/contracts/DEXV2Pair.sol\":4418:5633  function mint(address to) external lock returns (uint liquidity) {... */\n              calldataload\n              sub(shl(0xa0, 0x01), 0x01)\n              and\n              tag_75\n              jump\t// in\n                /* \"v2-core-master/contracts/DEXV2ERC20.sol\":333:374  mapping(address => uint) public balanceOf */\n            tag_17:\n              tag_55\n              0x04\n              dup1\n              calldatasize\n              sub\n                /* \"--CODEGEN--\":13:15   */\n              0x20\n                /* \"--CODEGEN--\":8:11   */\n              dup2\n                /* \"--CODEGEN--\":5:16   */\n              lt\n                /* \"--CODEGEN--\":2:4   */\n              iszero\n              tag_77\n              jumpi\n                /* \"--CODEGEN--\":29:30   */\n              0x00\n                /* \"--CODEGEN--\":26:27   */\n              dup1\n                /* \"--CODEGEN--\":19:31   */\n              revert\n                /* \"--CODEGEN--\":2:4   */\n            tag_77:\n              pop\n                /* \"v2-core-master/contracts/DEXV2ERC20.sol\":333:374  mapping(address => uint) public balanceOf */\n              calldataload\n              sub(shl(0xa0, 0x01), 0x01)\n              and\n              tag_78\n              jump\t// in\n                /* \"v2-core-master/contracts/DEXV2Pair.sol\":984:1001  uint public kLast */\n            tag_18:\n              tag_55\n              tag_80\n              jump\t// in\n                /* \"v2-core-master/contracts/DEXV2ERC20.sol\":703:741  mapping(address => uint) public nonces */\n            tag_19:\n              tag_55\n              0x04\n              dup1\n              calldatasize\n              sub\n                /* \"--CODEGEN--\":13:15   */\n              0x20\n                /* \"--CODEGEN--\":8:11   */\n              dup2\n                /* \"--CODEGEN--\":5:16   */\n              lt\n                /* \"--CODEGEN--\":2:4   */\n              iszero\n              tag_82\n              jumpi\n                /* \"--CODEGEN--\":29:30   */\n              0x00\n                /* \"--CODEGEN--\":26:27   */\n              dup1\n                /* \"--CODEGEN--\":19:31   */\n              revert\n                /* \"--CODEGEN--\":2:4   */\n            tag_82:\n              pop\n                /* \"v2-core-master/contracts/DEXV2ERC20.sol\":703:741  mapping(address => uint) public nonces */\n              calldataload\n              sub(shl(0xa0, 0x01), 0x01)\n              and\n              tag_83\n              jump\t// in\n                /* \"v2-core-master/contracts/DEXV2Pair.sol\":5742:7182  function burn(address to) external lock returns (uint amount0, uint amount1) {... */\n            tag_20:\n              tag_84\n              0x04\n              dup1\n              calldatasize\n              sub\n                /* \"--CODEGEN--\":13:15   */\n              0x20\n                /* \"--CODEGEN--\":8:11   */\n              dup2\n                /* \"--CODEGEN--\":5:16   */\n              lt\n                /* \"--CODEGEN--\":2:4   */\n              iszero\n              tag_85\n              jumpi\n                /* \"--CODEGEN--\":29:30   */\n              0x00\n                /* \"--CODEGEN--\":26:27   */\n              dup1\n                /* \"--CODEGEN--\":19:31   */\n              revert\n                /* \"--CODEGEN--\":2:4   */\n            tag_85:\n              pop\n                /* \"v2-core-master/contracts/DEXV2Pair.sol\":5742:7182  function burn(address to) external lock returns (uint amount0, uint amount1) {... */\n              calldataload\n              sub(shl(0xa0, 0x01), 0x01)\n              and\n              tag_86\n              jump\t// in\n            tag_84:\n              0x40\n              dup1\n              mload\n              swap3\n              dup4\n              mstore\n              0x20\n              dup4\n              add\n              swap2\n              swap1\n              swap2\n              mstore\n              dup1\n              mload\n              swap2\n              dup3\n              swap1\n              sub\n              add\n              swap1\n              return\n                /* \"v2-core-master/contracts/DEXV2ERC20.sol\":216:256  string public constant symbol = 'DEX-V2' */\n            tag_21:\n              tag_42\n              tag_88\n              jump\t// in\n                /* \"v2-core-master/contracts/DEXV2ERC20.sol\":2311:2447  function transfer(address to, uint value) external returns (bool) {... */\n            tag_22:\n              tag_50\n              0x04\n              dup1\n              calldatasize\n              sub\n                /* \"--CODEGEN--\":13:15   */\n              0x40\n                /* \"--CODEGEN--\":8:11   */\n              dup2\n                /* \"--CODEGEN--\":5:16   */\n              lt\n                /* \"--CODEGEN--\":2:4   */\n              iszero\n              tag_94\n              jumpi\n                /* \"--CODEGEN--\":29:30   */\n              0x00\n                /* \"--CODEGEN--\":26:27   */\n              dup1\n                /* \"--CODEGEN--\":19:31   */\n              revert\n                /* \"--CODEGEN--\":2:4   */\n            tag_94:\n              pop\n                /* \"v2-core-master/contracts/DEXV2ERC20.sol\":2311:2447  function transfer(address to, uint value) external returns (bool) {... */\n              dup1\n              calldataload\n              sub(shl(0xa0, 0x01), 0x01)\n              and\n              swap1\n              0x20\n              add\n              calldataload\n              tag_95\n              jump\t// in\n                /* \"v2-core-master/contracts/DEXV2Pair.sol\":389:435  uint public constant MINIMUM_LIQUIDITY = 10**3 */\n            tag_23:\n              tag_55\n              tag_97\n              jump\t// in\n                /* \"v2-core-master/contracts/DEXV2Pair.sol\":9170:9499  function skim(address to) external lock {... */\n            tag_24:\n              tag_36\n              0x04\n              dup1\n              calldatasize\n              sub\n                /* \"--CODEGEN--\":13:15   */\n              0x20\n                /* \"--CODEGEN--\":8:11   */\n              dup2\n                /* \"--CODEGEN--\":5:16   */\n              lt\n                /* \"--CODEGEN--\":2:4   */\n              iszero\n              tag_99\n              jumpi\n                /* \"--CODEGEN--\":29:30   */\n              0x00\n                /* \"--CODEGEN--\":26:27   */\n              dup1\n                /* \"--CODEGEN--\":19:31   */\n              revert\n                /* \"--CODEGEN--\":2:4   */\n            tag_99:\n              pop\n                /* \"v2-core-master/contracts/DEXV2Pair.sol\":9170:9499  function skim(address to) external lock {... */\n              calldataload\n              sub(shl(0xa0, 0x01), 0x01)\n              and\n              tag_100\n              jump\t// in\n                /* \"v2-core-master/contracts/DEXV2Pair.sol\":536:558  address public factory */\n            tag_25:\n              tag_53\n              tag_102\n              jump\t// in\n                /* \"v2-core-master/contracts/DEXV2Pair.sol\":591:612  address public token1 */\n            tag_26:\n              tag_53\n              tag_104\n              jump\t// in\n                /* \"v2-core-master/contracts/DEXV2ERC20.sol\":2754:3408  function permit(address owner, address spender, uint value, uint deadline, uint8 v, bytes32 r, bytes32 s) external {... */\n            tag_27:\n              tag_36\n              0x04\n              dup1\n              calldatasize\n              sub\n                /* \"--CODEGEN--\":13:16   */\n              0xe0\n                /* \"--CODEGEN--\":8:11   */\n              dup2\n                /* \"--CODEGEN--\":5:17   */\n              lt\n                /* \"--CODEGEN--\":2:4   */\n              iszero\n              tag_106\n              jumpi\n                /* \"--CODEGEN--\":30:31   */\n              0x00\n                /* \"--CODEGEN--\":27:28   */\n              dup1\n                /* \"--CODEGEN--\":20:32   */\n              revert\n                /* \"--CODEGEN--\":2:4   */\n            tag_106:\n              pop\n              sub(shl(0xa0, 0x01), 0x01)\n                /* \"v2-core-master/contracts/DEXV2ERC20.sol\":2754:3408  function permit(address owner, address spender, uint value, uint deadline, uint8 v, bytes32 r, bytes32 s) external {... */\n              dup2\n              calldataload\n              dup2\n              and\n              swap2\n              0x20\n              dup2\n              add\n              calldataload\n              swap1\n              swap2\n              and\n              swap1\n              0x40\n              dup2\n              add\n              calldataload\n              swap1\n              0x60\n              dup2\n              add\n              calldataload\n              swap1\n              0xff\n              0x80\n              dup3\n              add\n              calldataload\n              and\n              swap1\n              0xa0\n              dup2\n              add\n              calldataload\n              swap1\n              0xc0\n              add\n              calldataload\n              tag_107\n              jump\t// in\n                /* \"v2-core-master/contracts/DEXV2ERC20.sol\":380:441  mapping(address => mapping(address => uint)) public allowance */\n            tag_28:\n              tag_55\n              0x04\n              dup1\n              calldatasize\n              sub\n                /* \"--CODEGEN--\":13:15   */\n              0x40\n                /* \"--CODEGEN--\":8:11   */\n              dup2\n                /* \"--CODEGEN--\":5:16   */\n              lt\n                /* \"--CODEGEN--\":2:4   */\n              iszero\n              tag_109\n              jumpi\n                /* \"--CODEGEN--\":29:30   */\n              0x00\n                /* \"--CODEGEN--\":26:27   */\n              dup1\n                /* \"--CODEGEN--\":19:31   */\n              revert\n                /* \"--CODEGEN--\":2:4   */\n            tag_109:\n              pop\n              sub(shl(0xa0, 0x01), 0x01)\n                /* \"v2-core-master/contracts/DEXV2ERC20.sol\":380:441  mapping(address => mapping(address => uint)) public allowance */\n              dup2\n              calldataload\n              dup2\n              and\n              swap2\n              0x20\n              add\n              calldataload\n              and\n              tag_110\n              jump\t// in\n                /* \"v2-core-master/contracts/DEXV2Pair.sol\":9545:9701  function sync() external lock {... */\n            tag_29:\n              tag_36\n              tag_112\n              jump\t// in\n                /* \"v2-core-master/contracts/DEXV2Pair.sol\":7291:9124  function swap(uint amount0Out, uint amount1Out, address to, bytes calldata data) external lock {... */\n            tag_41:\n                /* \"v2-core-master/contracts/DEXV2Pair.sol\":1153:1161  unlocked */\n              sload(0x0c)\n                /* \"v2-core-master/contracts/DEXV2Pair.sol\":1165:1166  1 */\n              0x01\n                /* \"v2-core-master/contracts/DEXV2Pair.sol\":1153:1166  unlocked == 1 */\n              eq\n                /* \"v2-core-master/contracts/DEXV2Pair.sol\":1145:1184  require(unlocked == 1, 'DEXV2: LOCKED') */\n              tag_114\n              jumpi\n              0x40\n              dup1\n              mload\n              shl(0xe5, 0x461bcd)\n              dup2\n              mstore\n              0x20\n              0x04\n              dup3\n              add\n              mstore\n              0x0d\n              0x24\n              dup3\n              add\n              mstore\n              shl(0x9a, 0x111156158c8e881313d0d2d151)\n              0x44\n              dup3\n              add\n              mstore\n              swap1\n              mload\n              swap1\n              dup2\n              swap1\n              sub\n              0x64\n              add\n              swap1\n              revert\n            tag_114:\n                /* \"v2-core-master/contracts/DEXV2Pair.sol\":1205:1206  0 */\n              0x00\n                /* \"v2-core-master/contracts/DEXV2Pair.sol\":1194:1202  unlocked */\n              0x0c\n                /* \"v2-core-master/contracts/DEXV2Pair.sol\":1194:1206  unlocked = 0 */\n              sstore\n                /* \"v2-core-master/contracts/DEXV2Pair.sol\":7404:7418  amount0Out > 0 */\n              dup5\n              iszero\n              iszero\n              dup1\n                /* \"v2-core-master/contracts/DEXV2Pair.sol\":7404:7436  amount0Out > 0 || amount1Out > 0 */\n              tag_116\n              jumpi\n              pop\n                /* \"v2-core-master/contracts/DEXV2Pair.sol\":7435:7436  0 */\n              0x00\n                /* \"v2-core-master/contracts/DEXV2Pair.sol\":7422:7432  amount1Out */\n              dup5\n                /* \"v2-core-master/contracts/DEXV2Pair.sol\":7422:7436  amount1Out > 0 */\n              gt\n                /* \"v2-core-master/contracts/DEXV2Pair.sol\":7404:7436  amount0Out > 0 || amount1Out > 0 */\n            tag_116:\n                /* \"v2-core-master/contracts/DEXV2Pair.sol\":7396:7474  require(amount0Out > 0 || amount1Out > 0, 'DEXV2: INSUFFICIENT_OUTPUT_AMOUNT') */\n              tag_117\n              jumpi\n              mload(0x40)\n              shl(0xe5, 0x461bcd)\n              dup2\n              mstore\n              0x04\n              add\n              dup1\n              dup1\n              0x20\n              add\n              dup3\n              dup2\n              sub\n              dup3\n              mstore\n              0x21\n              dup2\n              mstore\n              0x20\n              add\n              dup1\n              data_bd3d279deafa3a413c640d6c8c87c7163b054a9440c7e5272a4c3da9af95f292\n              0x21\n              swap2\n              codecopy\n              0x40\n              add\n              swap2\n              pop\n              pop\n              mload(0x40)\n              dup1\n              swap2\n              sub\n              swap1\n              revert\n            tag_117:\n                /* \"v2-core-master/contracts/DEXV2Pair.sol\":7485:7502  uint112 _reserve0 */\n              0x00\n                /* \"v2-core-master/contracts/DEXV2Pair.sol\":7504:7521  uint112 _reserve1 */\n              dup1\n                /* \"v2-core-master/contracts/DEXV2Pair.sol\":7526:7539  getReserves() */\n              tag_118\n                /* \"v2-core-master/contracts/DEXV2Pair.sol\":7526:7537  getReserves */\n              tag_49\n                /* \"v2-core-master/contracts/DEXV2Pair.sol\":7526:7539  getReserves() */\n              jump\t// in\n            tag_118:\n              pop\n                /* \"v2-core-master/contracts/DEXV2Pair.sol\":7484:7539  (uint112 _reserve0, uint112 _reserve1,) = getReserves() */\n              swap1\n              swap3\n              pop\n              swap1\n              pop\n              sub(shl(0x70, 0x01), 0x01)\n                /* \"v2-core-master/contracts/DEXV2Pair.sol\":7572:7594  amount0Out < _reserve0 */\n              dup3\n              and\n              dup8\n              lt\n                /* \"v2-core-master/contracts/DEXV2Pair.sol\":7572:7620  amount0Out < _reserve0 && amount1Out < _reserve1 */\n              dup1\n              iszero\n              tag_119\n              jumpi\n              pop\n              sub(shl(0x70, 0x01), 0x01)\n                /* \"v2-core-master/contracts/DEXV2Pair.sol\":7598:7620  amount1Out < _reserve1 */\n              dup2\n              and\n              dup7\n              lt\n                /* \"v2-core-master/contracts/DEXV2Pair.sol\":7572:7620  amount0Out < _reserve0 && amount1Out < _reserve1 */\n            tag_119:\n                /* \"v2-core-master/contracts/DEXV2Pair.sol\":7564:7654  require(amount0Out < _reserve0 && amount1Out < _reserve1, 'DEXV2: INSUFFICIENT_LIQUIDITY') */\n              tag_120\n              jumpi\n              0x40\n              dup1\n              mload\n              shl(0xe5, 0x461bcd)\n              dup2\n              mstore\n              0x20\n              0x04\n              dup3\n              add\n              mstore\n              0x1d\n              0x24\n              dup3\n              add\n              mstore\n              0x44455856323a20494e53554646494349454e545f4c4951554944495459000000\n              0x44\n              dup3\n              add\n              mstore\n              swap1\n              mload\n              swap1\n              dup2\n              swap1\n              sub\n              0x64\n              add\n              swap1\n              revert\n            tag_120:\n                /* \"v2-core-master/contracts/DEXV2Pair.sol\":7794:7800  token0 */\n              sload(0x06)\n                /* \"v2-core-master/contracts/DEXV2Pair.sol\":7828:7834  token1 */\n              sload(0x07)\n                /* \"v2-core-master/contracts/DEXV2Pair.sol\":7665:7678  uint balance0 */\n              0x00\n              swap2\n              dup3\n              swap2\n              sub(shl(0xa0, 0x01), 0x01)\n                /* \"v2-core-master/contracts/DEXV2Pair.sol\":7794:7800  token0 */\n              swap2\n              dup3\n              and\n              swap2\n                /* \"v2-core-master/contracts/DEXV2Pair.sol\":7828:7834  token1 */\n              swap1\n              dup2\n              and\n              swap1\n                /* \"v2-core-master/contracts/DEXV2Pair.sol\":7852:7865  to != _token0 */\n              dup10\n              and\n              dup3\n              eq\n              dup1\n              iszero\n              swap1\n                /* \"v2-core-master/contracts/DEXV2Pair.sol\":7852:7882  to != _token0 && to != _token1 */\n              tag_121\n              jumpi\n              pop\n              sub(shl(0xa0, 0x01), 0x01)\n                /* \"v2-core-master/contracts/DEXV2Pair.sol\":7869:7882  to != _token1 */\n              dup10\n              dup2\n              and\n              swap1\n              dup3\n              and\n              eq\n              iszero\n                /* \"v2-core-master/contracts/DEXV2Pair.sol\":7852:7882  to != _token0 && to != _token1 */\n            tag_121:\n                /* \"v2-core-master/contracts/DEXV2Pair.sol\":7844:7904  require(to != _token0 && to != _token1, 'DEXV2: INVALID_TO') */\n              tag_122\n              jumpi\n              0x40\n              dup1\n              mload\n              shl(0xe5, 0x461bcd)\n              dup2\n              mstore\n              0x20\n              0x04\n              dup3\n              add\n              mstore\n              0x11\n              0x24\n              dup3\n              add\n              mstore\n              shl(0x78, 0x44455856323a20494e56414c49445f544f)\n              0x44\n              dup3\n              add\n              mstore\n              swap1\n              mload\n              swap1\n              dup2\n              swap1\n              sub\n              0x64\n              add\n              swap1\n              revert\n            tag_122:\n                /* \"v2-core-master/contracts/DEXV2Pair.sol\":7918:7932  amount0Out > 0 */\n              dup11\n              iszero\n                /* \"v2-core-master/contracts/DEXV2Pair.sol\":7914:7972  if (amount0Out > 0) _safeTransfer(_token0, to, amount0Out) */\n              tag_124\n              jumpi\n                /* \"v2-core-master/contracts/DEXV2Pair.sol\":7934:7972  _safeTransfer(_token0, to, amount0Out) */\n              tag_124\n                /* \"v2-core-master/contracts/DEXV2Pair.sol\":7948:7955  _token0 */\n              dup3\n                /* \"v2-core-master/contracts/DEXV2Pair.sol\":7957:7959  to */\n              dup11\n                /* \"v2-core-master/contracts/DEXV2Pair.sol\":7961:7971  amount0Out */\n              dup14\n                /* \"v2-core-master/contracts/DEXV2Pair.sol\":7934:7947  _safeTransfer */\n              tag_125\n                /* \"v2-core-master/contracts/DEXV2Pair.sol\":7934:7972  _safeTransfer(_token0, to, amount0Out) */\n              jump\t// in\n            tag_124:\n                /* \"v2-core-master/contracts/DEXV2Pair.sol\":8020:8034  amount1Out > 0 */\n              dup10\n              iszero\n                /* \"v2-core-master/contracts/DEXV2Pair.sol\":8016:8074  if (amount1Out > 0) _safeTransfer(_token1, to, amount1Out) */\n              tag_127\n              jumpi\n                /* \"v2-core-master/contracts/DEXV2Pair.sol\":8036:8074  _safeTransfer(_token1, to, amount1Out) */\n              tag_127\n                /* \"v2-core-master/contracts/DEXV2Pair.sol\":8050:8057  _token1 */\n              dup2\n                /* \"v2-core-master/contracts/DEXV2Pair.sol\":8059:8061  to */\n              dup11\n                /* \"v2-core-master/contracts/DEXV2Pair.sol\":8063:8073  amount1Out */\n              dup13\n                /* \"v2-core-master/contracts/DEXV2Pair.sol\":8036:8049  _safeTransfer */\n              tag_125\n                /* \"v2-core-master/contracts/DEXV2Pair.sol\":8036:8074  _safeTransfer(_token1, to, amount1Out) */\n              jump\t// in\n            tag_127:\n                /* \"v2-core-master/contracts/DEXV2Pair.sol\":8122:8137  data.length > 0 */\n              dup7\n              iszero\n                /* \"v2-core-master/contracts/DEXV2Pair.sol\":8118:8207  if (data.length > 0) IDEXV2Callee(to).DEXV2Call(msg.sender, amount0Out, amount1Out, data) */\n              tag_128\n              jumpi\n                /* \"v2-core-master/contracts/DEXV2Pair.sol\":8152:8154  to */\n              dup9\n              0x01\n              dup1\n              0xa0\n              shl\n              sub\n                /* \"v2-core-master/contracts/DEXV2Pair.sol\":8139:8165  IDEXV2Callee(to).DEXV2Call */\n              and\n              0xd48d2648\n                /* \"v2-core-master/contracts/DEXV2Pair.sol\":8166:8176  msg.sender */\n              caller\n                /* \"v2-core-master/contracts/DEXV2Pair.sol\":8178:8188  amount0Out */\n              dup14\n                /* \"v2-core-master/contracts/DEXV2Pair.sol\":8190:8200  amount1Out */\n              dup14\n                /* \"v2-core-master/contracts/DEXV2Pair.sol\":8202:8206  data */\n              dup13\n              dup13\n                /* \"v2-core-master/contracts/DEXV2Pair.sol\":8139:8207  IDEXV2Callee(to).DEXV2Call(msg.sender, amount0Out, amount1Out, data) */\n              mload(0x40)\n              dup7\n              0xffffffff\n              and\n              0xe0\n              shl\n              dup2\n              mstore\n              0x04\n              add\n              dup1\n              dup7\n              0x01\n              dup1\n              0xa0\n              shl\n              sub\n              and\n              0x01\n              dup1\n              0xa0\n              shl\n              sub\n              and\n              dup2\n              mstore\n              0x20\n              add\n              dup6\n              dup2\n              mstore\n              0x20\n              add\n              dup5\n              dup2\n              mstore\n              0x20\n              add\n              dup1\n              0x20\n              add\n              dup3\n              dup2\n              sub\n              dup3\n              mstore\n              dup5\n              dup5\n              dup3\n              dup2\n              dup2\n              mstore\n              0x20\n              add\n              swap3\n              pop\n                /* \"--CODEGEN--\":30:33   */\n              dup1\n                /* \"--CODEGEN--\":22:28   */\n              dup3\n                /* \"--CODEGEN--\":14:20   */\n              dup5\n                /* \"--CODEGEN--\":1:34   */\n              calldatacopy\n                /* \"--CODEGEN--\":99:100   */\n              0x00\n                /* \"--CODEGEN--\":93:96   */\n              dup2\n                /* \"--CODEGEN--\":85:91   */\n              dup5\n                /* \"--CODEGEN--\":81:97   */\n              add\n                /* \"--CODEGEN--\":74:101   */\n              mstore\n                /* \"--CODEGEN--\":137:141   */\n              0x1f\n                /* \"--CODEGEN--\":133:142   */\n              not\n                /* \"--CODEGEN--\":126:130   */\n              0x1f\n                /* \"--CODEGEN--\":121:124   */\n              dup3\n                /* \"--CODEGEN--\":117:131   */\n              add\n                /* \"--CODEGEN--\":113:143   */\n              and\n                /* \"--CODEGEN--\":106:143   */\n              swap1\n              pop\n                /* \"--CODEGEN--\":169:172   */\n              dup1\n                /* \"--CODEGEN--\":161:167   */\n              dup4\n                /* \"--CODEGEN--\":157:173   */\n              add\n                /* \"--CODEGEN--\":147:173   */\n              swap3\n              pop\n                /* \"v2-core-master/contracts/DEXV2Pair.sol\":8139:8207  IDEXV2Callee(to).DEXV2Call(msg.sender, amount0Out, amount1Out, data) */\n              pop\n              pop\n              swap7\n              pop\n              pop\n              pop\n              pop\n              pop\n              pop\n              pop\n              0x00\n              mload(0x40)\n              dup1\n              dup4\n              sub\n              dup2\n              0x00\n              dup8\n              dup1\n              extcodesize\n              iszero\n                /* \"--CODEGEN--\":8:17   */\n              dup1\n                /* \"--CODEGEN--\":5:7   */\n              iszero\n              tag_129\n              jumpi\n                /* \"--CODEGEN--\":30:31   */\n              0x00\n                /* \"--CODEGEN--\":27:28   */\n              dup1\n                /* \"--CODEGEN--\":20:32   */\n              revert\n                /* \"--CODEGEN--\":5:7   */\n            tag_129:\n                /* \"v2-core-master/contracts/DEXV2Pair.sol\":8139:8207  IDEXV2Callee(to).DEXV2Call(msg.sender, amount0Out, amount1Out, data) */\n              pop\n              gas\n              call\n              iszero\n                /* \"--CODEGEN--\":8:17   */\n              dup1\n                /* \"--CODEGEN--\":5:7   */\n              iszero\n              tag_130\n              jumpi\n                /* \"--CODEGEN--\":45:61   */\n              returndatasize\n                /* \"--CODEGEN--\":42:43   */\n              0x00\n                /* \"--CODEGEN--\":39:40   */\n              dup1\n                /* \"--CODEGEN--\":24:62   */\n              returndatacopy\n                /* \"--CODEGEN--\":77:93   */\n              returndatasize\n                /* \"--CODEGEN--\":74:75   */\n              0x00\n                /* \"--CODEGEN--\":67:94   */\n              revert\n                /* \"--CODEGEN--\":5:7   */\n            tag_130:\n                /* \"v2-core-master/contracts/DEXV2Pair.sol\":8139:8207  IDEXV2Callee(to).DEXV2Call(msg.sender, amount0Out, amount1Out, data) */\n              pop\n              pop\n              pop\n              pop\n                /* \"v2-core-master/contracts/DEXV2Pair.sol\":8118:8207  if (data.length > 0) IDEXV2Callee(to).DEXV2Call(msg.sender, amount0Out, amount1Out, data) */\n            tag_128:\n                /* \"v2-core-master/contracts/DEXV2Pair.sol\":8228:8268  IERC20(_token0).balanceOf(address(this)) */\n              0x40\n              dup1\n              mload\n              shl(0xe0, 0x70a08231)\n              dup2\n              mstore\n                /* \"v2-core-master/contracts/DEXV2Pair.sol\":8262:8266  this */\n              address\n                /* \"v2-core-master/contracts/DEXV2Pair.sol\":8228:8268  IERC20(_token0).balanceOf(address(this)) */\n              0x04\n              dup3\n              add\n              mstore\n              swap1\n              mload\n              sub(shl(0xa0, 0x01), 0x01)\n                /* \"v2-core-master/contracts/DEXV2Pair.sol\":8228:8253  IERC20(_token0).balanceOf */\n              dup5\n              and\n              swap2\n              0x70a08231\n              swap2\n                /* \"v2-core-master/contracts/DEXV2Pair.sol\":8228:8268  IERC20(_token0).balanceOf(address(this)) */\n              0x24\n              dup1\n              dup4\n              add\n              swap3\n              0x20\n              swap3\n              swap2\n              swap1\n              dup3\n              swap1\n              sub\n              add\n              dup2\n                /* \"v2-core-master/contracts/DEXV2Pair.sol\":8228:8253  IERC20(_token0).balanceOf */\n              dup7\n                /* \"v2-core-master/contracts/DEXV2Pair.sol\":8228:8268  IERC20(_token0).balanceOf(address(this)) */\n              dup1\n              extcodesize\n              iszero\n                /* \"--CODEGEN--\":5:7   */\n              dup1\n              iszero\n              tag_131\n              jumpi\n                /* \"--CODEGEN--\":30:31   */\n              0x00\n                /* \"--CODEGEN--\":27:28   */\n              dup1\n                /* \"--CODEGEN--\":20:32   */\n              revert\n                /* \"--CODEGEN--\":5:7   */\n            tag_131:\n                /* \"v2-core-master/contracts/DEXV2Pair.sol\":8228:8268  IERC20(_token0).balanceOf(address(this)) */\n              pop\n              gas\n              staticcall\n              iszero\n                /* \"--CODEGEN--\":8:17   */\n              dup1\n                /* \"--CODEGEN--\":5:7   */\n              iszero\n              tag_132\n              jumpi\n                /* \"--CODEGEN--\":45:61   */\n              returndatasize\n                /* \"--CODEGEN--\":42:43   */\n              0x00\n                /* \"--CODEGEN--\":39:40   */\n              dup1\n                /* \"--CODEGEN--\":24:62   */\n              returndatacopy\n                /* \"--CODEGEN--\":77:93   */\n              returndatasize\n                /* \"--CODEGEN--\":74:75   */\n              0x00\n                /* \"--CODEGEN--\":67:94   */\n              revert\n                /* \"--CODEGEN--\":5:7   */\n            tag_132:\n                /* \"v2-core-master/contracts/DEXV2Pair.sol\":8228:8268  IERC20(_token0).balanceOf(address(this)) */\n              pop\n              pop\n              pop\n              pop\n              mload(0x40)\n              returndatasize\n                /* \"--CODEGEN--\":13:15   */\n              0x20\n                /* \"--CODEGEN--\":8:11   */\n              dup2\n                /* \"--CODEGEN--\":5:16   */\n              lt\n                /* \"--CODEGEN--\":2:4   */\n              iszero\n              tag_133\n              jumpi\n                /* \"--CODEGEN--\":29:30   */\n              0x00\n                /* \"--CODEGEN--\":26:27   */\n              dup1\n                /* \"--CODEGEN--\":19:31   */\n              revert\n                /* \"--CODEGEN--\":2:4   */\n            tag_133:\n              pop\n                /* \"v2-core-master/contracts/DEXV2Pair.sol\":8228:8268  IERC20(_token0).balanceOf(address(this)) */\n              mload\n                /* \"v2-core-master/contracts/DEXV2Pair.sol\":8289:8329  IERC20(_token1).balanceOf(address(this)) */\n              0x40\n              dup1\n              mload\n              shl(0xe0, 0x70a08231)\n              dup2\n              mstore\n                /* \"v2-core-master/contracts/DEXV2Pair.sol\":8323:8327  this */\n              address\n                /* \"v2-core-master/contracts/DEXV2Pair.sol\":8289:8329  IERC20(_token1).balanceOf(address(this)) */\n              0x04\n              dup3\n              add\n              mstore\n              swap1\n              mload\n                /* \"v2-core-master/contracts/DEXV2Pair.sol\":8228:8268  IERC20(_token0).balanceOf(address(this)) */\n              swap2\n              swap6\n              pop\n              sub(shl(0xa0, 0x01), 0x01)\n                /* \"v2-core-master/contracts/DEXV2Pair.sol\":8289:8314  IERC20(_token1).balanceOf */\n              dup4\n              and\n              swap2\n              0x70a08231\n              swap2\n                /* \"v2-core-master/contracts/DEXV2Pair.sol\":8289:8329  IERC20(_token1).balanceOf(address(this)) */\n              0x24\n              dup1\n              dup3\n              add\n              swap3\n                /* \"v2-core-master/contracts/DEXV2Pair.sol\":8228:8268  IERC20(_token0).balanceOf(address(this)) */\n              0x20\n              swap3\n                /* \"v2-core-master/contracts/DEXV2Pair.sol\":8289:8329  IERC20(_token1).balanceOf(address(this)) */\n              swap1\n              swap2\n              swap1\n              dup3\n              swap1\n              sub\n              add\n              dup2\n                /* \"v2-core-master/contracts/DEXV2Pair.sol\":8289:8314  IERC20(_token1).balanceOf */\n              dup7\n                /* \"v2-core-master/contracts/DEXV2Pair.sol\":8289:8329  IERC20(_token1).balanceOf(address(this)) */\n              dup1\n              extcodesize\n              iszero\n                /* \"--CODEGEN--\":5:7   */\n              dup1\n              iszero\n              tag_134\n              jumpi\n                /* \"--CODEGEN--\":30:31   */\n              0x00\n                /* \"--CODEGEN--\":27:28   */\n              dup1\n                /* \"--CODEGEN--\":20:32   */\n              revert\n                /* \"--CODEGEN--\":5:7   */\n            tag_134:\n                /* \"v2-core-master/contracts/DEXV2Pair.sol\":8289:8329  IERC20(_token1).balanceOf(address(this)) */\n              pop\n              gas\n              staticcall\n              iszero\n                /* \"--CODEGEN--\":8:17   */\n              dup1\n                /* \"--CODEGEN--\":5:7   */\n              iszero\n              tag_135\n              jumpi\n                /* \"--CODEGEN--\":45:61   */\n              returndatasize\n                /* \"--CODEGEN--\":42:43   */\n              0x00\n                /* \"--CODEGEN--\":39:40   */\n              dup1\n                /* \"--CODEGEN--\":24:62   */\n              returndatacopy\n                /* \"--CODEGEN--\":77:93   */\n              returndatasize\n                /* \"--CODEGEN--\":74:75   */\n              0x00\n                /* \"--CODEGEN--\":67:94   */\n              revert\n                /* \"--CODEGEN--\":5:7   */\n            tag_135:\n                /* \"v2-core-master/contracts/DEXV2Pair.sol\":8289:8329  IERC20(_token1).balanceOf(address(this)) */\n              pop\n              pop\n              pop\n              pop\n              mload(0x40)\n              returndatasize\n                /* \"--CODEGEN--\":13:15   */\n              0x20\n                /* \"--CODEGEN--\":8:11   */\n              dup2\n                /* \"--CODEGEN--\":5:16   */\n              lt\n                /* \"--CODEGEN--\":2:4   */\n              iszero\n              tag_136\n              jumpi\n                /* \"--CODEGEN--\":29:30   */\n              0x00\n                /* \"--CODEGEN--\":26:27   */\n              dup1\n                /* \"--CODEGEN--\":19:31   */\n              revert\n                /* \"--CODEGEN--\":2:4   */\n            tag_136:\n              pop\n                /* \"v2-core-master/contracts/DEXV2Pair.sol\":8289:8329  IERC20(_token1).balanceOf(address(this)) */\n              mload\n              swap3\n              pop\n                /* \"v2-core-master/contracts/DEXV2Pair.sol\":8349:8363  uint amount0In */\n              0x00\n              swap2\n              pop\n              pop\n              sub(shl(0x70, 0x01), 0x01)\n                /* \"v2-core-master/contracts/DEXV2Pair.sol\":8377:8399  _reserve0 - amount0Out */\n              dup6\n              and\n              dup11\n              swap1\n              sub\n                /* \"v2-core-master/contracts/DEXV2Pair.sol\":8366:8399  balance0 > _reserve0 - amount0Out */\n              dup4\n              gt\n                /* \"v2-core-master/contracts/DEXV2Pair.sol\":8366:8441  balance0 > _reserve0 - amount0Out ? balance0 - (_reserve0 - amount0Out) : 0 */\n              tag_137\n              jumpi\n                /* \"v2-core-master/contracts/DEXV2Pair.sol\":8440:8441  0 */\n              0x00\n                /* \"v2-core-master/contracts/DEXV2Pair.sol\":8366:8441  balance0 > _reserve0 - amount0Out ? balance0 - (_reserve0 - amount0Out) : 0 */\n              jump(tag_138)\n            tag_137:\n              sub(shl(0x70, 0x01), 0x01)\n                /* \"v2-core-master/contracts/DEXV2Pair.sol\":8414:8436  _reserve0 - amount0Out */\n              dup6\n              and\n              dup11\n              swap1\n              sub\n                /* \"v2-core-master/contracts/DEXV2Pair.sol\":8402:8437  balance0 - (_reserve0 - amount0Out) */\n              dup4\n              sub\n                /* \"v2-core-master/contracts/DEXV2Pair.sol\":8366:8441  balance0 > _reserve0 - amount0Out ? balance0 - (_reserve0 - amount0Out) : 0 */\n            tag_138:\n                /* \"v2-core-master/contracts/DEXV2Pair.sol\":8349:8441  uint amount0In = balance0 > _reserve0 - amount0Out ? balance0 - (_reserve0 - amount0Out) : 0 */\n              swap1\n              pop\n                /* \"v2-core-master/contracts/DEXV2Pair.sol\":8451:8465  uint amount1In */\n              0x00\n              sub(shl(0x70, 0x01), 0x01)\n                /* \"v2-core-master/contracts/DEXV2Pair.sol\":8479:8501  _reserve1 - amount1Out */\n              dup6\n              and\n              dup11\n              swap1\n              sub\n                /* \"v2-core-master/contracts/DEXV2Pair.sol\":8468:8501  balance1 > _reserve1 - amount1Out */\n              dup4\n              gt\n                /* \"v2-core-master/contracts/DEXV2Pair.sol\":8468:8543  balance1 > _reserve1 - amount1Out ? balance1 - (_reserve1 - amount1Out) : 0 */\n              tag_139\n              jumpi\n                /* \"v2-core-master/contracts/DEXV2Pair.sol\":8542:8543  0 */\n              0x00\n                /* \"v2-core-master/contracts/DEXV2Pair.sol\":8468:8543  balance1 > _reserve1 - amount1Out ? balance1 - (_reserve1 - amount1Out) : 0 */\n              jump(tag_140)\n            tag_139:\n              sub(shl(0x70, 0x01), 0x01)\n                /* \"v2-core-master/contracts/DEXV2Pair.sol\":8516:8538  _reserve1 - amount1Out */\n              dup6\n              and\n              dup11\n              swap1\n              sub\n                /* \"v2-core-master/contracts/DEXV2Pair.sol\":8504:8539  balance1 - (_reserve1 - amount1Out) */\n              dup4\n              sub\n                /* \"v2-core-master/contracts/DEXV2Pair.sol\":8468:8543  balance1 > _reserve1 - amount1Out ? balance1 - (_reserve1 - amount1Out) : 0 */\n            tag_140:\n                /* \"v2-core-master/contracts/DEXV2Pair.sol\":8451:8543  uint amount1In = balance1 > _reserve1 - amount1Out ? balance1 - (_reserve1 - amount1Out) : 0 */\n              swap1\n              pop\n                /* \"v2-core-master/contracts/DEXV2Pair.sol\":8573:8574  0 */\n              0x00\n                /* \"v2-core-master/contracts/DEXV2Pair.sol\":8561:8570  amount0In */\n              dup3\n                /* \"v2-core-master/contracts/DEXV2Pair.sol\":8561:8574  amount0In > 0 */\n              gt\n                /* \"v2-core-master/contracts/DEXV2Pair.sol\":8561:8591  amount0In > 0 || amount1In > 0 */\n              dup1\n              tag_141\n              jumpi\n              pop\n                /* \"v2-core-master/contracts/DEXV2Pair.sol\":8590:8591  0 */\n              0x00\n                /* \"v2-core-master/contracts/DEXV2Pair.sol\":8578:8587  amount1In */\n              dup2\n                /* \"v2-core-master/contracts/DEXV2Pair.sol\":8578:8591  amount1In > 0 */\n              gt\n                /* \"v2-core-master/contracts/DEXV2Pair.sol\":8561:8591  amount0In > 0 || amount1In > 0 */\n            tag_141:\n                /* \"v2-core-master/contracts/DEXV2Pair.sol\":8553:8628  require(amount0In > 0 || amount1In > 0, 'DEXV2: INSUFFICIENT_INPUT_AMOUNT') */\n              tag_142\n              jumpi\n              0x40\n              dup1\n              mload\n              shl(0xe5, 0x461bcd)\n              dup2\n              mstore\n              0x20\n              0x04\n              dup3\n              add\n              dup2\n              swap1\n              mstore\n              0x24\n              dup3\n              add\n              mstore\n              0x44455856323a20494e53554646494349454e545f494e5055545f414d4f554e54\n              0x44\n              dup3\n              add\n              mstore\n              swap1\n              mload\n              swap1\n              dup2\n              swap1\n              sub\n              0x64\n              add\n              swap1\n              revert\n            tag_142:\n                /* \"v2-core-master/contracts/DEXV2Pair.sol\":8712:8733  uint balance0Adjusted */\n              0x00\n                /* \"v2-core-master/contracts/DEXV2Pair.sol\":8736:8776  balance0.mul(1000).sub(amount0In.mul(3)) */\n              tag_143\n                /* \"v2-core-master/contracts/DEXV2Pair.sol\":8759:8775  amount0In.mul(3) */\n              tag_144\n                /* \"v2-core-master/contracts/DEXV2Pair.sol\":8759:8768  amount0In */\n              dup5\n                /* \"v2-core-master/contracts/DEXV2Pair.sol\":8773:8774  3 */\n              0x03\n                /* \"v2-core-master/contracts/DEXV2Pair.sol\":8759:8775  amount0In.mul(3) */\n              0xffffffff\n                /* \"v2-core-master/contracts/DEXV2Pair.sol\":8759:8772  amount0In.mul */\n              tag_145\n                /* \"v2-core-master/contracts/DEXV2Pair.sol\":8759:8775  amount0In.mul(3) */\n              and\n              jump\t// in\n            tag_144:\n                /* \"v2-core-master/contracts/DEXV2Pair.sol\":8736:8754  balance0.mul(1000) */\n              tag_146\n                /* \"v2-core-master/contracts/DEXV2Pair.sol\":8736:8744  balance0 */\n              dup8\n                /* \"v2-core-master/contracts/DEXV2Pair.sol\":8749:8753  1000 */\n              0x03e8\n                /* \"v2-core-master/contracts/DEXV2Pair.sol\":8736:8754  balance0.mul(1000) */\n              0xffffffff\n                /* \"v2-core-master/contracts/DEXV2Pair.sol\":8736:8748  balance0.mul */\n              tag_145\n                /* \"v2-core-master/contracts/DEXV2Pair.sol\":8736:8754  balance0.mul(1000) */\n              and\n              jump\t// in\n            tag_146:\n                /* \"v2-core-master/contracts/DEXV2Pair.sol\":8736:8758  balance0.mul(1000).sub */\n              swap1\n                /* \"v2-core-master/contracts/DEXV2Pair.sol\":8736:8776  balance0.mul(1000).sub(amount0In.mul(3)) */\n              0xffffffff\n                /* \"v2-core-master/contracts/DEXV2Pair.sol\":8736:8758  balance0.mul(1000).sub */\n              tag_147\n                /* \"v2-core-master/contracts/DEXV2Pair.sol\":8736:8776  balance0.mul(1000).sub(amount0In.mul(3)) */\n              and\n              jump\t// in\n            tag_143:\n                /* \"v2-core-master/contracts/DEXV2Pair.sol\":8712:8776  uint balance0Adjusted = balance0.mul(1000).sub(amount0In.mul(3)) */\n              swap1\n              pop\n                /* \"v2-core-master/contracts/DEXV2Pair.sol\":8786:8807  uint balance1Adjusted */\n              0x00\n                /* \"v2-core-master/contracts/DEXV2Pair.sol\":8810:8850  balance1.mul(1000).sub(amount1In.mul(3)) */\n              tag_148\n                /* \"v2-core-master/contracts/DEXV2Pair.sol\":8833:8849  amount1In.mul(3) */\n              tag_144\n                /* \"v2-core-master/contracts/DEXV2Pair.sol\":8833:8842  amount1In */\n              dup5\n                /* \"v2-core-master/contracts/DEXV2Pair.sol\":8847:8848  3 */\n              0x03\n                /* \"v2-core-master/contracts/DEXV2Pair.sol\":8833:8849  amount1In.mul(3) */\n              0xffffffff\n                /* \"v2-core-master/contracts/DEXV2Pair.sol\":8833:8846  amount1In.mul */\n              tag_145\n                /* \"v2-core-master/contracts/DEXV2Pair.sol\":8833:8849  amount1In.mul(3) */\n              and\n              jump\t// in\n                /* \"v2-core-master/contracts/DEXV2Pair.sol\":8810:8850  balance1.mul(1000).sub(amount1In.mul(3)) */\n            tag_148:\n                /* \"v2-core-master/contracts/DEXV2Pair.sol\":8786:8850  uint balance1Adjusted = balance1.mul(1000).sub(amount1In.mul(3)) */\n              swap1\n              pop\n                /* \"v2-core-master/contracts/DEXV2Pair.sol\":8910:8953  uint(_reserve0).mul(_reserve1).mul(1000**2) */\n              tag_151\n                /* \"v2-core-master/contracts/DEXV2Pair.sol\":8945:8952  1000**2 */\n              0x0f4240\n                /* \"v2-core-master/contracts/DEXV2Pair.sol\":8910:8940  uint(_reserve0).mul(_reserve1) */\n              tag_152\n              sub(shl(0x70, 0x01), 0x01)\n                /* \"v2-core-master/contracts/DEXV2Pair.sol\":8910:8925  uint(_reserve0) */\n              dup12\n              dup2\n              and\n              swap1\n                /* \"v2-core-master/contracts/DEXV2Pair.sol\":8910:8940  uint(_reserve0).mul(_reserve1) */\n              dup12\n              and\n                /* \"v2-core-master/contracts/DEXV2Pair.sol\":8910:8929  uint(_reserve0).mul */\n              tag_145\n                /* \"v2-core-master/contracts/DEXV2Pair.sol\":8910:8940  uint(_reserve0).mul(_reserve1) */\n              jump\t// in\n            tag_152:\n                /* \"v2-core-master/contracts/DEXV2Pair.sol\":8910:8944  uint(_reserve0).mul(_reserve1).mul */\n              swap1\n                /* \"v2-core-master/contracts/DEXV2Pair.sol\":8910:8953  uint(_reserve0).mul(_reserve1).mul(1000**2) */\n              0xffffffff\n                /* \"v2-core-master/contracts/DEXV2Pair.sol\":8910:8944  uint(_reserve0).mul(_reserve1).mul */\n              tag_145\n                /* \"v2-core-master/contracts/DEXV2Pair.sol\":8910:8953  uint(_reserve0).mul(_reserve1).mul(1000**2) */\n              and\n              jump\t// in\n            tag_151:\n                /* \"v2-core-master/contracts/DEXV2Pair.sol\":8868:8906  balance0Adjusted.mul(balance1Adjusted) */\n              tag_153\n                /* \"v2-core-master/contracts/DEXV2Pair.sol\":8868:8884  balance0Adjusted */\n              dup4\n                /* \"v2-core-master/contracts/DEXV2Pair.sol\":8889:8905  balance1Adjusted */\n              dup4\n                /* \"v2-core-master/contracts/DEXV2Pair.sol\":8868:8906  balance0Adjusted.mul(balance1Adjusted) */\n              0xffffffff\n                /* \"v2-core-master/contracts/DEXV2Pair.sol\":8868:8888  balance0Adjusted.mul */\n              tag_145\n                /* \"v2-core-master/contracts/DEXV2Pair.sol\":8868:8906  balance0Adjusted.mul(balance1Adjusted) */\n              and\n              jump\t// in\n            tag_153:\n                /* \"v2-core-master/contracts/DEXV2Pair.sol\":8868:8953  balance0Adjusted.mul(balance1Adjusted) >= uint(_reserve0).mul(_reserve1).mul(1000**2) */\n              lt\n              iszero\n                /* \"v2-core-master/contracts/DEXV2Pair.sol\":8860:8966  require(balance0Adjusted.mul(balance1Adjusted) >= uint(_reserve0).mul(_reserve1).mul(1000**2), 'DEXV2: K') */\n              tag_154\n              jumpi\n              0x40\n              dup1\n              mload\n              shl(0xe5, 0x461bcd)\n              dup2\n              mstore\n              0x20\n              0x04\n              dup3\n              add\n              mstore\n              0x08\n              0x24\n              dup3\n              add\n              mstore\n              shl(0xc0, 0x44455856323a204b)\n              0x44\n              dup3\n              add\n              mstore\n              swap1\n              mload\n              swap1\n              dup2\n              swap1\n              sub\n              0x64\n              add\n              swap1\n              revert\n            tag_154:\n                /* \"v2-core-master/contracts/DEXV2Pair.sol\":1216:1217  _ */\n              pop\n              pop\n                /* \"v2-core-master/contracts/DEXV2Pair.sol\":8987:9036  _update(balance0, balance1, _reserve0, _reserve1) */\n              tag_155\n                /* \"v2-core-master/contracts/DEXV2Pair.sol\":8995:9003  balance0 */\n              dup5\n                /* \"v2-core-master/contracts/DEXV2Pair.sol\":9005:9013  balance1 */\n              dup5\n                /* \"v2-core-master/contracts/DEXV2Pair.sol\":9015:9024  _reserve0 */\n              dup9\n                /* \"v2-core-master/contracts/DEXV2Pair.sol\":9026:9035  _reserve1 */\n              dup9\n                /* \"v2-core-master/contracts/DEXV2Pair.sol\":8987:8994  _update */\n              tag_156\n                /* \"v2-core-master/contracts/DEXV2Pair.sol\":8987:9036  _update(balance0, balance1, _reserve0, _reserve1) */\n              jump\t// in\n            tag_155:\n                /* \"v2-core-master/contracts/DEXV2Pair.sol\":9051:9117  Swap(msg.sender, amount0In, amount1In, amount0Out, amount1Out, to) */\n              0x40\n              dup1\n              mload\n              dup4\n              dup2\n              mstore\n              0x20\n              dup2\n              add\n              dup4\n              swap1\n              mstore\n              dup1\n              dup3\n              add\n              dup14\n              swap1\n              mstore\n              0x60\n              dup2\n              add\n              dup13\n              swap1\n              mstore\n              swap1\n              mload\n              sub(shl(0xa0, 0x01), 0x01)\n              dup12\n              and\n              swap2\n                /* \"v2-core-master/contracts/DEXV2Pair.sol\":9056:9066  msg.sender */\n              caller\n              swap2\n                /* \"v2-core-master/contracts/DEXV2Pair.sol\":9051:9117  Swap(msg.sender, amount0In, amount1In, amount0Out, amount1Out, to) */\n              0xd78ad95fa46c994b6551d0da85fc275fe613ce37657fb8d5e3d130840159d822\n              swap2\n              dup2\n              swap1\n              sub\n              0x80\n              add\n              swap1\n              log3\n              pop\n              pop\n                /* \"v2-core-master/contracts/DEXV2Pair.sol\":1238:1239  1 */\n              0x01\n                /* \"v2-core-master/contracts/DEXV2Pair.sol\":1227:1235  unlocked */\n              0x0c\n                /* \"v2-core-master/contracts/DEXV2Pair.sol\":1227:1239  unlocked = 1 */\n              sstore\n              pop\n              pop\n              pop\n              pop\n              pop\n              pop\n              pop\n              pop\n              pop\n                /* \"v2-core-master/contracts/DEXV2Pair.sol\":7291:9124  function swap(uint amount0Out, uint amount1Out, address to, bytes calldata data) external lock {... */\n              jump\t// out\n                /* \"v2-core-master/contracts/DEXV2ERC20.sol\":172:210  string public constant name = 'DEX V2' */\n            tag_43:\n              0x40\n              dup1\n              mload\n              dup1\n              dup3\n              add\n              swap1\n              swap2\n              mstore\n              0x06\n              dup2\n              mstore\n              shl(0xd1, 0x2222ac102b19)\n              0x20\n              dup3\n              add\n              mstore\n              dup2\n              jump\t// out\n                /* \"v2-core-master/contracts/DEXV2Pair.sol\":1252:1479  function getReserves() public view returns (uint112 _reserve0, uint112 _reserve1, uint32 _blockTimestampLast) {... */\n            tag_49:\n                /* \"v2-core-master/contracts/DEXV2Pair.sol\":1384:1392  reserve0 */\n              sload(0x08)\n              sub(shl(0x70, 0x01), 0x01)\n              dup1\n              dup3\n              and\n              swap3\n              shl(0x70, 0x01)\n                /* \"v2-core-master/contracts/DEXV2Pair.sol\":1414:1422  reserve1 */\n              dup4\n              div\n              swap1\n              swap2\n              and\n              swap2\n              shl(0xe0, 0x01)\n                /* \"v2-core-master/contracts/DEXV2Pair.sol\":1454:1472  blockTimestampLast */\n              swap1\n              div\n              0xffffffff\n              and\n              swap1\n                /* \"v2-core-master/contracts/DEXV2Pair.sol\":1252:1479  function getReserves() public view returns (uint112 _reserve0, uint112 _reserve1, uint32 _blockTimestampLast) {... */\n              jump\t// out\n                /* \"v2-core-master/contracts/DEXV2ERC20.sol\":2161:2305  function approve(address spender, uint value) external returns (bool) {... */\n            tag_52:\n                /* \"v2-core-master/contracts/DEXV2ERC20.sol\":2225:2229  bool */\n              0x00\n                /* \"v2-core-master/contracts/DEXV2ERC20.sol\":2241:2277  _approve(msg.sender, spender, value) */\n              tag_159\n                /* \"v2-core-master/contracts/DEXV2ERC20.sol\":2250:2260  msg.sender */\n              caller\n                /* \"v2-core-master/contracts/DEXV2ERC20.sol\":2262:2269  spender */\n              dup5\n                /* \"v2-core-master/contracts/DEXV2ERC20.sol\":2271:2276  value */\n              dup5\n                /* \"v2-core-master/contracts/DEXV2ERC20.sol\":2241:2249  _approve */\n              tag_160\n                /* \"v2-core-master/contracts/DEXV2ERC20.sol\":2241:2277  _approve(msg.sender, spender, value) */\n              jump\t// in\n            tag_159:\n              pop\n                /* \"v2-core-master/contracts/DEXV2ERC20.sol\":2294:2298  true */\n              0x01\n                /* \"v2-core-master/contracts/DEXV2ERC20.sol\":2161:2305  function approve(address spender, uint value) external returns (bool) {... */\n            tag_158:\n              swap3\n              swap2\n              pop\n              pop\n              jump\t// out\n                /* \"v2-core-master/contracts/DEXV2Pair.sol\":564:585  address public token0 */\n            tag_54:\n              and(sub(shl(0xa0, 0x01), 0x01), sload(0x06))\n              dup2\n              jump\t// out\n                /* \"v2-core-master/contracts/DEXV2ERC20.sol\":303:327  uint  public totalSupply */\n            tag_56:\n              sload(0x00)\n              dup2\n              jump\t// out\n                /* \"v2-core-master/contracts/DEXV2ERC20.sol\":2453:2748  function transferFrom(address from, address to, uint value) external returns (bool) {... */\n            tag_59:\n              sub(shl(0xa0, 0x01), 0x01)\n                /* \"v2-core-master/contracts/DEXV2ERC20.sol\":2551:2566  allowance[from] */\n              dup4\n              and\n                /* \"v2-core-master/contracts/DEXV2ERC20.sol\":2531:2535  bool */\n              0x00\n                /* \"v2-core-master/contracts/DEXV2ERC20.sol\":2551:2566  allowance[from] */\n              swap1\n              dup2\n              mstore\n                /* \"v2-core-master/contracts/DEXV2ERC20.sol\":2551:2560  allowance */\n              0x02\n                /* \"v2-core-master/contracts/DEXV2ERC20.sol\":2551:2566  allowance[from] */\n              0x20\n              swap1\n              dup2\n              mstore\n              0x40\n              dup1\n              dup4\n              keccak256\n                /* \"v2-core-master/contracts/DEXV2ERC20.sol\":2567:2577  msg.sender */\n              caller\n                /* \"v2-core-master/contracts/DEXV2ERC20.sol\":2551:2578  allowance[from][msg.sender] */\n              dup5\n              mstore\n              swap1\n              swap2\n              mstore\n              dup2\n              keccak256\n              sload\n              not(0x00)\n                /* \"v2-core-master/contracts/DEXV2ERC20.sol\":2551:2590  allowance[from][msg.sender] != uint(-1) */\n              eq\n                /* \"v2-core-master/contracts/DEXV2ERC20.sol\":2547:2685  if (allowance[from][msg.sender] != uint(-1)) {... */\n              tag_162\n              jumpi\n              sub(shl(0xa0, 0x01), 0x01)\n                /* \"v2-core-master/contracts/DEXV2ERC20.sol\":2636:2651  allowance[from] */\n              dup5\n              and\n              0x00\n              swap1\n              dup2\n              mstore\n                /* \"v2-core-master/contracts/DEXV2ERC20.sol\":2636:2645  allowance */\n              0x02\n                /* \"v2-core-master/contracts/DEXV2ERC20.sol\":2636:2651  allowance[from] */\n              0x20\n              swap1\n              dup2\n              mstore\n              0x40\n              dup1\n              dup4\n              keccak256\n                /* \"v2-core-master/contracts/DEXV2ERC20.sol\":2652:2662  msg.sender */\n              caller\n                /* \"v2-core-master/contracts/DEXV2ERC20.sol\":2636:2663  allowance[from][msg.sender] */\n              dup5\n              mstore\n              swap1\n              swap2\n              mstore\n              swap1\n              keccak256\n              sload\n                /* \"v2-core-master/contracts/DEXV2ERC20.sol\":2636:2674  allowance[from][msg.sender].sub(value) */\n              tag_163\n              swap1\n                /* \"v2-core-master/contracts/DEXV2ERC20.sol\":2668:2673  value */\n              dup4\n                /* \"v2-core-master/contracts/DEXV2ERC20.sol\":2636:2667  allowance[from][msg.sender].sub */\n              tag_147\n                /* \"v2-core-master/contracts/DEXV2ERC20.sol\":2636:2674  allowance[from][msg.sender].sub(value) */\n              jump\t// in\n            tag_163:\n              sub(shl(0xa0, 0x01), 0x01)\n                /* \"v2-core-master/contracts/DEXV2ERC20.sol\":2606:2621  allowance[from] */\n              dup6\n              and\n              0x00\n              swap1\n              dup2\n              mstore\n                /* \"v2-core-master/contracts/DEXV2ERC20.sol\":2606:2615  allowance */\n              0x02\n                /* \"v2-core-master/contracts/DEXV2ERC20.sol\":2606:2621  allowance[from] */\n              0x20\n              swap1\n              dup2\n              mstore\n              0x40\n              dup1\n              dup4\n              keccak256\n                /* \"v2-core-master/contracts/DEXV2ERC20.sol\":2622:2632  msg.sender */\n              caller\n                /* \"v2-core-master/contracts/DEXV2ERC20.sol\":2606:2633  allowance[from][msg.sender] */\n              dup5\n              mstore\n              swap1\n              swap2\n              mstore\n              swap1\n              keccak256\n                /* \"v2-core-master/contracts/DEXV2ERC20.sol\":2606:2674  allowance[from][msg.sender] = allowance[from][msg.sender].sub(value) */\n              sstore\n                /* \"v2-core-master/contracts/DEXV2ERC20.sol\":2547:2685  if (allowance[from][msg.sender] != uint(-1)) {... */\n            tag_162:\n                /* \"v2-core-master/contracts/DEXV2ERC20.sol\":2694:2720  _transfer(from, to, value) */\n              tag_164\n                /* \"v2-core-master/contracts/DEXV2ERC20.sol\":2704:2708  from */\n              dup5\n                /* \"v2-core-master/contracts/DEXV2ERC20.sol\":2710:2712  to */\n              dup5\n                /* \"v2-core-master/contracts/DEXV2ERC20.sol\":2714:2719  value */\n              dup5\n                /* \"v2-core-master/contracts/DEXV2ERC20.sol\":2694:2703  _transfer */\n              tag_165\n                /* \"v2-core-master/contracts/DEXV2ERC20.sol\":2694:2720  _transfer(from, to, value) */\n              jump\t// in\n            tag_164:\n              pop\n                /* \"v2-core-master/contracts/DEXV2ERC20.sol\":2737:2741  true */\n              0x01\n                /* \"v2-core-master/contracts/DEXV2ERC20.sol\":2453:2748  function transferFrom(address from, address to, uint value) external returns (bool) {... */\n              swap4\n              swap3\n              pop\n              pop\n              pop\n              jump\t// out\n                /* \"v2-core-master/contracts/DEXV2ERC20.sol\":589:697  bytes32 public constant PERMIT_TYPEHASH = 0x6e71edae12b1b97f4d1f60370fef10105fa2faae0126114a169c64845d6126c9 */\n            tag_61:\n                /* \"v2-core-master/contracts/DEXV2ERC20.sol\":631:697  0x6e71edae12b1b97f4d1f60370fef10105fa2faae0126114a169c64845d6126c9 */\n              0x6e71edae12b1b97f4d1f60370fef10105fa2faae0126114a169c64845d6126c9\n                /* \"v2-core-master/contracts/DEXV2ERC20.sol\":589:697  bytes32 public constant PERMIT_TYPEHASH = 0x6e71edae12b1b97f4d1f60370fef10105fa2faae0126114a169c64845d6126c9 */\n              dup2\n              jump\t// out\n                /* \"v2-core-master/contracts/DEXV2ERC20.sol\":262:297  uint8 public constant decimals = 18 */\n            tag_63:\n                /* \"v2-core-master/contracts/DEXV2ERC20.sol\":295:297  18 */\n              0x12\n                /* \"v2-core-master/contracts/DEXV2ERC20.sol\":262:297  uint8 public constant decimals = 18 */\n              dup2\n              jump\t// out\n                /* \"v2-core-master/contracts/DEXV2ERC20.sol\":448:479  bytes32 public DOMAIN_SEPARATOR */\n            tag_65:\n              sload(0x03)\n              dup2\n              jump\t// out\n                /* \"v2-core-master/contracts/DEXV2Pair.sol\":2280:2482  function initialize(address _token0, address _token1) external {... */\n            tag_68:\n                /* \"v2-core-master/contracts/DEXV2Pair.sol\":2375:2382  factory */\n              and(sub(shl(0xa0, 0x01), 0x01), sload(0x05))\n                /* \"v2-core-master/contracts/DEXV2Pair.sol\":2361:2371  msg.sender */\n              caller\n                /* \"v2-core-master/contracts/DEXV2Pair.sol\":2361:2382  msg.sender == factory */\n              eq\n                /* \"v2-core-master/contracts/DEXV2Pair.sol\":2353:2403  require(msg.sender == factory, 'DEXV2: FORBIDDEN') */\n              tag_167\n              jumpi\n              0x40\n              dup1\n              mload\n              shl(0xe5, 0x461bcd)\n              dup2\n              mstore\n              0x20\n              0x04\n              dup3\n              add\n              mstore\n              0x10\n              0x24\n              dup3\n              add\n              mstore\n              shl(0x81, 0x2222ac2b191d102327a92124a22222a7)\n              0x44\n              dup3\n              add\n              mstore\n              swap1\n              mload\n              swap1\n              dup2\n              swap1\n              sub\n              0x64\n              add\n              swap1\n              revert\n            tag_167:\n                /* \"v2-core-master/contracts/DEXV2Pair.sol\":2433:2439  token0 */\n              0x06\n                /* \"v2-core-master/contracts/DEXV2Pair.sol\":2433:2449  token0 = _token0 */\n              dup1\n              sload\n              sub(shl(0xa0, 0x01), 0x01)\n              swap4\n              dup5\n              and\n              not(sub(shl(0xa0, 0x01), 0x01))\n              swap2\n              dup3\n              and\n              or\n              swap1\n              swap2\n              sstore\n                /* \"v2-core-master/contracts/DEXV2Pair.sol\":2459:2465  token1 */\n              0x07\n                /* \"v2-core-master/contracts/DEXV2Pair.sol\":2459:2475  token1 = _token1 */\n              dup1\n              sload\n              swap3\n              swap1\n              swap4\n              and\n              swap2\n              and\n              or\n              swap1\n              sstore\n                /* \"v2-core-master/contracts/DEXV2Pair.sol\":2280:2482  function initialize(address _token0, address _token1) external {... */\n              jump\t// out\n                /* \"v2-core-master/contracts/DEXV2Pair.sol\":908:940  uint public price0CumulativeLast */\n            tag_70:\n              sload(0x09)\n              dup2\n              jump\t// out\n                /* \"v2-core-master/contracts/DEXV2Pair.sol\":946:978  uint public price1CumulativeLast */\n            tag_72:\n              sload(0x0a)\n              dup2\n              jump\t// out\n                /* \"v2-core-master/contracts/DEXV2Pair.sol\":4418:5633  function mint(address to) external lock returns (uint liquidity) {... */\n            tag_75:\n                /* \"v2-core-master/contracts/DEXV2Pair.sol\":4467:4481  uint liquidity */\n              0x00\n                /* \"v2-core-master/contracts/DEXV2Pair.sol\":1153:1161  unlocked */\n              sload(0x0c)\n                /* \"v2-core-master/contracts/DEXV2Pair.sol\":1165:1166  1 */\n              0x01\n                /* \"v2-core-master/contracts/DEXV2Pair.sol\":1153:1166  unlocked == 1 */\n              eq\n                /* \"v2-core-master/contracts/DEXV2Pair.sol\":1145:1184  require(unlocked == 1, 'DEXV2: LOCKED') */\n              tag_169\n              jumpi\n              0x40\n              dup1\n              mload\n              shl(0xe5, 0x461bcd)\n              dup2\n              mstore\n              0x20\n              0x04\n              dup3\n              add\n              mstore\n              0x0d\n              0x24\n              dup3\n              add\n              mstore\n              shl(0x9a, 0x111156158c8e881313d0d2d151)\n              0x44\n              dup3\n              add\n              mstore\n              swap1\n              mload\n              swap1\n              dup2\n              swap1\n              sub\n              0x64\n              add\n              swap1\n              revert\n            tag_169:\n                /* \"v2-core-master/contracts/DEXV2Pair.sol\":1205:1206  0 */\n              0x00\n                /* \"v2-core-master/contracts/DEXV2Pair.sol\":1194:1202  unlocked */\n              0x0c\n                /* \"v2-core-master/contracts/DEXV2Pair.sol\":1194:1206  unlocked = 0 */\n              dup2\n              swap1\n              sstore\n                /* \"v2-core-master/contracts/DEXV2Pair.sol\":1205:1206  0 */\n              dup1\n                /* \"v2-core-master/contracts/DEXV2Pair.sol\":4535:4548  getReserves() */\n              tag_171\n                /* \"v2-core-master/contracts/DEXV2Pair.sol\":4535:4546  getReserves */\n              tag_49\n                /* \"v2-core-master/contracts/DEXV2Pair.sol\":4535:4548  getReserves() */\n              jump\t// in\n            tag_171:\n              pop\n                /* \"v2-core-master/contracts/DEXV2Pair.sol\":4596:4602  token0 */\n              sload(0x06)\n                /* \"v2-core-master/contracts/DEXV2Pair.sol\":4589:4628  IERC20(token0).balanceOf(address(this)) */\n              0x40\n              dup1\n              mload\n              shl(0xe0, 0x70a08231)\n              dup2\n              mstore\n                /* \"v2-core-master/contracts/DEXV2Pair.sol\":4622:4626  this */\n              address\n                /* \"v2-core-master/contracts/DEXV2Pair.sol\":4589:4628  IERC20(token0).balanceOf(address(this)) */\n              0x04\n              dup3\n              add\n              mstore\n              swap1\n              mload\n                /* \"v2-core-master/contracts/DEXV2Pair.sol\":4493:4548  (uint112 _reserve0, uint112 _reserve1,) = getReserves() */\n              swap4\n              swap6\n              pop\n              swap2\n              swap4\n              pop\n              0x00\n              swap3\n              sub(shl(0xa0, 0x01), 0x01)\n                /* \"v2-core-master/contracts/DEXV2Pair.sol\":4596:4602  token0 */\n              swap1\n              swap2\n              and\n              swap2\n              0x70a08231\n              swap2\n                /* \"v2-core-master/contracts/DEXV2Pair.sol\":4589:4628  IERC20(token0).balanceOf(address(this)) */\n              0x24\n              dup1\n              dup4\n              add\n              swap3\n              0x20\n              swap3\n              swap2\n              swap1\n              dup3\n              swap1\n              sub\n              add\n              dup2\n                /* \"v2-core-master/contracts/DEXV2Pair.sol\":4596:4602  token0 */\n              dup7\n                /* \"v2-core-master/contracts/DEXV2Pair.sol\":4589:4628  IERC20(token0).balanceOf(address(this)) */\n              dup1\n              extcodesize\n              iszero\n                /* \"--CODEGEN--\":5:7   */\n              dup1\n              iszero\n              tag_172\n              jumpi\n                /* \"--CODEGEN--\":30:31   */\n              0x00\n                /* \"--CODEGEN--\":27:28   */\n              dup1\n                /* \"--CODEGEN--\":20:32   */\n              revert\n                /* \"--CODEGEN--\":5:7   */\n            tag_172:\n                /* \"v2-core-master/contracts/DEXV2Pair.sol\":4589:4628  IERC20(token0).balanceOf(address(this)) */\n              pop\n              gas\n              staticcall\n              iszero\n                /* \"--CODEGEN--\":8:17   */\n              dup1\n                /* \"--CODEGEN--\":5:7   */\n              iszero\n              tag_173\n              jumpi\n                /* \"--CODEGEN--\":45:61   */\n              returndatasize\n                /* \"--CODEGEN--\":42:43   */\n              0x00\n                /* \"--CODEGEN--\":39:40   */\n              dup1\n                /* \"--CODEGEN--\":24:62   */\n              returndatacopy\n                /* \"--CODEGEN--\":77:93   */\n              returndatasize\n                /* \"--CODEGEN--\":74:75   */\n              0x00\n                /* \"--CODEGEN--\":67:94   */\n              revert\n                /* \"--CODEGEN--\":5:7   */\n            tag_173:\n                /* \"v2-core-master/contracts/DEXV2Pair.sol\":4589:4628  IERC20(token0).balanceOf(address(this)) */\n              pop\n              pop\n              pop\n              pop\n              mload(0x40)\n              returndatasize\n                /* \"--CODEGEN--\":13:15   */\n              0x20\n                /* \"--CODEGEN--\":8:11   */\n              dup2\n                /* \"--CODEGEN--\":5:16   */\n              lt\n                /* \"--CODEGEN--\":2:4   */\n              iszero\n              tag_174\n              jumpi\n                /* \"--CODEGEN--\":29:30   */\n              0x00\n                /* \"--CODEGEN--\":26:27   */\n              dup1\n                /* \"--CODEGEN--\":19:31   */\n              revert\n                /* \"--CODEGEN--\":2:4   */\n            tag_174:\n              pop\n                /* \"v2-core-master/contracts/DEXV2Pair.sol\":4589:4628  IERC20(token0).balanceOf(address(this)) */\n              mload\n                /* \"v2-core-master/contracts/DEXV2Pair.sol\":4661:4667  token1 */\n              sload(0x07)\n                /* \"v2-core-master/contracts/DEXV2Pair.sol\":4654:4693  IERC20(token1).balanceOf(address(this)) */\n              0x40\n              dup1\n              mload\n              shl(0xe0, 0x70a08231)\n              dup2\n              mstore\n                /* \"v2-core-master/contracts/DEXV2Pair.sol\":4687:4691  this */\n              address\n                /* \"v2-core-master/contracts/DEXV2Pair.sol\":4654:4693  IERC20(token1).balanceOf(address(this)) */\n              0x04\n              dup3\n              add\n              mstore\n              swap1\n              mload\n                /* \"v2-core-master/contracts/DEXV2Pair.sol\":4589:4628  IERC20(token0).balanceOf(address(this)) */\n              swap3\n              swap4\n              pop\n              0x00\n              swap3\n              sub(shl(0xa0, 0x01), 0x01)\n                /* \"v2-core-master/contracts/DEXV2Pair.sol\":4661:4667  token1 */\n              swap1\n              swap3\n              and\n              swap2\n              0x70a08231\n              swap2\n                /* \"v2-core-master/contracts/DEXV2Pair.sol\":4654:4693  IERC20(token1).balanceOf(address(this)) */\n              0x24\n              dup1\n              dup3\n              add\n              swap3\n                /* \"v2-core-master/contracts/DEXV2Pair.sol\":4589:4628  IERC20(token0).balanceOf(address(this)) */\n              0x20\n              swap3\n                /* \"v2-core-master/contracts/DEXV2Pair.sol\":4654:4693  IERC20(token1).balanceOf(address(this)) */\n              swap1\n              swap2\n              swap1\n              dup3\n              swap1\n              sub\n              add\n              dup2\n                /* \"v2-core-master/contracts/DEXV2Pair.sol\":4661:4667  token1 */\n              dup7\n                /* \"v2-core-master/contracts/DEXV2Pair.sol\":4654:4693  IERC20(token1).balanceOf(address(this)) */\n              dup1\n              extcodesize\n              iszero\n                /* \"--CODEGEN--\":5:7   */\n              dup1\n              iszero\n              tag_175\n              jumpi\n                /* \"--CODEGEN--\":30:31   */\n              0x00\n                /* \"--CODEGEN--\":27:28   */\n              dup1\n                /* \"--CODEGEN--\":20:32   */\n              revert\n                /* \"--CODEGEN--\":5:7   */\n            tag_175:\n                /* \"v2-core-master/contracts/DEXV2Pair.sol\":4654:4693  IERC20(token1).balanceOf(address(this)) */\n              pop\n              gas\n              staticcall\n              iszero\n                /* \"--CODEGEN--\":8:17   */\n              dup1\n                /* \"--CODEGEN--\":5:7   */\n              iszero\n              tag_176\n              jumpi\n                /* \"--CODEGEN--\":45:61   */\n              returndatasize\n                /* \"--CODEGEN--\":42:43   */\n              0x00\n                /* \"--CODEGEN--\":39:40   */\n              dup1\n                /* \"--CODEGEN--\":24:62   */\n              returndatacopy\n                /* \"--CODEGEN--\":77:93   */\n              returndatasize\n                /* \"--CODEGEN--\":74:75   */\n              0x00\n                /* \"--CODEGEN--\":67:94   */\n              revert\n                /* \"--CODEGEN--\":5:7   */\n            tag_176:\n                /* \"v2-core-master/contracts/DEXV2Pair.sol\":4654:4693  IERC20(token1).balanceOf(address(this)) */\n              pop\n              pop\n              pop\n              pop\n              mload(0x40)\n              returndatasize\n                /* \"--CODEGEN--\":13:15   */\n              0x20\n                /* \"--CODEGEN--\":8:11   */\n              dup2\n                /* \"--CODEGEN--\":5:16   */\n              lt\n                /* \"--CODEGEN--\":2:4   */\n              iszero\n              tag_177\n              jumpi\n                /* \"--CODEGEN--\":29:30   */\n              0x00\n                /* \"--CODEGEN--\":26:27   */\n              dup1\n                /* \"--CODEGEN--\":19:31   */\n              revert\n                /* \"--CODEGEN--\":2:4   */\n            tag_177:\n              pop\n                /* \"v2-core-master/contracts/DEXV2Pair.sol\":4654:4693  IERC20(token1).balanceOf(address(this)) */\n              mload\n              swap1\n              pop\n                /* \"v2-core-master/contracts/DEXV2Pair.sol\":4703:4715  uint amount0 */\n              0x00\n                /* \"v2-core-master/contracts/DEXV2Pair.sol\":4718:4741  balance0.sub(_reserve0) */\n              tag_178\n                /* \"v2-core-master/contracts/DEXV2Pair.sol\":4718:4726  balance0 */\n              dup4\n              sub(shl(0x70, 0x01), 0x01)\n                /* \"v2-core-master/contracts/DEXV2Pair.sol\":4718:4741  balance0.sub(_reserve0) */\n              dup8\n              and\n                /* \"v2-core-master/contracts/DEXV2Pair.sol\":4718:4730  balance0.sub */\n              tag_147\n                /* \"v2-core-master/contracts/DEXV2Pair.sol\":4718:4741  balance0.sub(_reserve0) */\n              jump\t// in\n            tag_178:\n                /* \"v2-core-master/contracts/DEXV2Pair.sol\":4703:4741  uint amount0 = balance0.sub(_reserve0) */\n              swap1\n              pop\n                /* \"v2-core-master/contracts/DEXV2Pair.sol\":4751:4763  uint amount1 */\n              0x00\n                /* \"v2-core-master/contracts/DEXV2Pair.sol\":4766:4789  balance1.sub(_reserve1) */\n              tag_179\n                /* \"v2-core-master/contracts/DEXV2Pair.sol\":4766:4774  balance1 */\n              dup4\n              sub(shl(0x70, 0x01), 0x01)\n                /* \"v2-core-master/contracts/DEXV2Pair.sol\":4766:4789  balance1.sub(_reserve1) */\n              dup8\n              and\n                /* \"v2-core-master/contracts/DEXV2Pair.sol\":4766:4778  balance1.sub */\n              tag_147\n                /* \"v2-core-master/contracts/DEXV2Pair.sol\":4766:4789  balance1.sub(_reserve1) */\n              jump\t// in\n            tag_179:\n                /* \"v2-core-master/contracts/DEXV2Pair.sol\":4751:4789  uint amount1 = balance1.sub(_reserve1) */\n              swap1\n              pop\n                /* \"v2-core-master/contracts/DEXV2Pair.sol\":4800:4810  bool feeOn */\n              0x00\n                /* \"v2-core-master/contracts/DEXV2Pair.sol\":4813:4843  _mintFee(_reserve0, _reserve1) */\n              tag_180\n                /* \"v2-core-master/contracts/DEXV2Pair.sol\":4822:4831  _reserve0 */\n              dup8\n                /* \"v2-core-master/contracts/DEXV2Pair.sol\":4833:4842  _reserve1 */\n              dup8\n                /* \"v2-core-master/contracts/DEXV2Pair.sol\":4813:4821  _mintFee */\n              tag_181\n                /* \"v2-core-master/contracts/DEXV2Pair.sol\":4813:4843  _mintFee(_reserve0, _reserve1) */\n              jump\t// in\n            tag_180:\n                /* \"v2-core-master/contracts/DEXV2Pair.sol\":4853:4870  uint _totalSupply */\n              0x00\n                /* \"v2-core-master/contracts/DEXV2Pair.sol\":4873:4884  totalSupply */\n              sload\n                /* \"v2-core-master/contracts/DEXV2Pair.sol\":4800:4843  bool feeOn = _mintFee(_reserve0, _reserve1) */\n              swap1\n              swap2\n              pop\n                /* \"v2-core-master/contracts/DEXV2Pair.sol\":4976:4993  _totalSupply == 0 */\n              dup1\n                /* \"v2-core-master/contracts/DEXV2Pair.sol\":4972:5319  if (_totalSupply == 0) {... */\n              tag_182\n              jumpi\n                /* \"v2-core-master/contracts/DEXV2Pair.sol\":5021:5075  Math.sqrt(amount0.mul(amount1)).sub(MINIMUM_LIQUIDITY) */\n              tag_183\n                /* \"v2-core-master/contracts/DEXV2Pair.sol\":430:435  10**3 */\n              0x03e8\n                /* \"v2-core-master/contracts/DEXV2Pair.sol\":5021:5052  Math.sqrt(amount0.mul(amount1)) */\n              tag_146\n                /* \"v2-core-master/contracts/DEXV2Pair.sol\":5031:5051  amount0.mul(amount1) */\n              tag_185\n                /* \"v2-core-master/contracts/DEXV2Pair.sol\":5031:5038  amount0 */\n              dup8\n                /* \"v2-core-master/contracts/DEXV2Pair.sol\":5043:5050  amount1 */\n              dup8\n                /* \"v2-core-master/contracts/DEXV2Pair.sol\":5031:5051  amount0.mul(amount1) */\n              0xffffffff\n                /* \"v2-core-master/contracts/DEXV2Pair.sol\":5031:5042  amount0.mul */\n              tag_145\n                /* \"v2-core-master/contracts/DEXV2Pair.sol\":5031:5051  amount0.mul(amount1) */\n              and\n              jump\t// in\n            tag_185:\n                /* \"v2-core-master/contracts/DEXV2Pair.sol\":5021:5030  Math.sqrt */\n              tag_186\n                /* \"v2-core-master/contracts/DEXV2Pair.sol\":5021:5052  Math.sqrt(amount0.mul(amount1)) */\n              jump\t// in\n                /* \"v2-core-master/contracts/DEXV2Pair.sol\":5021:5075  Math.sqrt(amount0.mul(amount1)).sub(MINIMUM_LIQUIDITY) */\n            tag_183:\n                /* \"v2-core-master/contracts/DEXV2Pair.sol\":5009:5075  liquidity = Math.sqrt(amount0.mul(amount1)).sub(MINIMUM_LIQUIDITY) */\n              swap9\n              pop\n                /* \"v2-core-master/contracts/DEXV2Pair.sol\":5088:5124  _mint(address(0), MINIMUM_LIQUIDITY) */\n              tag_187\n                /* \"v2-core-master/contracts/DEXV2Pair.sol\":5102:5103  0 */\n              0x00\n                /* \"v2-core-master/contracts/DEXV2Pair.sol\":430:435  10**3 */\n              0x03e8\n                /* \"v2-core-master/contracts/DEXV2Pair.sol\":5088:5093  _mint */\n              tag_188\n                /* \"v2-core-master/contracts/DEXV2Pair.sol\":5088:5124  _mint(address(0), MINIMUM_LIQUIDITY) */\n              jump\t// in\n            tag_187:\n                /* \"v2-core-master/contracts/DEXV2Pair.sol\":4972:5319  if (_totalSupply == 0) {... */\n              jump(tag_189)\n            tag_182:\n                /* \"v2-core-master/contracts/DEXV2Pair.sol\":5222:5308  Math.min(amount0.mul(_totalSupply) / _reserve0, amount1.mul(_totalSupply) / _reserve1) */\n              tag_190\n              sub(shl(0x70, 0x01), 0x01)\n                /* \"v2-core-master/contracts/DEXV2Pair.sol\":5231:5268  amount0.mul(_totalSupply) / _reserve0 */\n              dup10\n              and\n                /* \"v2-core-master/contracts/DEXV2Pair.sol\":5231:5256  amount0.mul(_totalSupply) */\n              tag_191\n                /* \"v2-core-master/contracts/DEXV2Pair.sol\":5231:5238  amount0 */\n              dup7\n                /* \"v2-core-master/contracts/DEXV2Pair.sol\":5243:5255  _totalSupply */\n              dup5\n                /* \"v2-core-master/contracts/DEXV2Pair.sol\":5231:5242  amount0.mul */\n              tag_145\n                /* \"v2-core-master/contracts/DEXV2Pair.sol\":5231:5256  amount0.mul(_totalSupply) */\n              jump\t// in\n            tag_191:\n                /* \"v2-core-master/contracts/DEXV2Pair.sol\":5231:5268  amount0.mul(_totalSupply) / _reserve0 */\n              dup2\n              tag_192\n              jumpi\n              invalid\n            tag_192:\n              div\n              sub(shl(0x70, 0x01), 0x01)\n                /* \"v2-core-master/contracts/DEXV2Pair.sol\":5270:5307  amount1.mul(_totalSupply) / _reserve1 */\n              dup10\n              and\n                /* \"v2-core-master/contracts/DEXV2Pair.sol\":5270:5295  amount1.mul(_totalSupply) */\n              tag_193\n                /* \"v2-core-master/contracts/DEXV2Pair.sol\":5270:5277  amount1 */\n              dup7\n                /* \"v2-core-master/contracts/DEXV2Pair.sol\":5282:5294  _totalSupply */\n              dup6\n                /* \"v2-core-master/contracts/DEXV2Pair.sol\":5270:5281  amount1.mul */\n              tag_145\n                /* \"v2-core-master/contracts/DEXV2Pair.sol\":5270:5295  amount1.mul(_totalSupply) */\n              jump\t// in\n            tag_193:\n                /* \"v2-core-master/contracts/DEXV2Pair.sol\":5270:5307  amount1.mul(_totalSupply) / _reserve1 */\n              dup2\n              tag_194\n              jumpi\n              invalid\n            tag_194:\n              div\n                /* \"v2-core-master/contracts/DEXV2Pair.sol\":5222:5230  Math.min */\n              tag_195\n                /* \"v2-core-master/contracts/DEXV2Pair.sol\":5222:5308  Math.min(amount0.mul(_totalSupply) / _reserve0, amount1.mul(_totalSupply) / _reserve1) */\n              jump\t// in\n            tag_190:\n                /* \"v2-core-master/contracts/DEXV2Pair.sol\":5210:5308  liquidity = Math.min(amount0.mul(_totalSupply) / _reserve0, amount1.mul(_totalSupply) / _reserve1) */\n              swap9\n              pop\n                /* \"v2-core-master/contracts/DEXV2Pair.sol\":4972:5319  if (_totalSupply == 0) {... */\n            tag_189:\n                /* \"v2-core-master/contracts/DEXV2Pair.sol\":5348:5349  0 */\n              0x00\n                /* \"v2-core-master/contracts/DEXV2Pair.sol\":5336:5345  liquidity */\n              dup10\n                /* \"v2-core-master/contracts/DEXV2Pair.sol\":5336:5349  liquidity > 0 */\n              gt\n                /* \"v2-core-master/contracts/DEXV2Pair.sol\":5328:5390  require(liquidity > 0, 'DEXV2: INSUFFICIENT_LIQUIDITY_MINTED') */\n              tag_196\n              jumpi\n              mload(0x40)\n              shl(0xe5, 0x461bcd)\n              dup2\n              mstore\n              0x04\n              add\n              dup1\n              dup1\n              0x20\n              add\n              dup3\n              dup2\n              sub\n              dup3\n              mstore\n              0x24\n              dup2\n              mstore\n              0x20\n              add\n              dup1\n              data_19858c75ca6575f0620a5a36ab79179f8f9a602bb98641841464a24f0f540494\n              0x24\n              swap2\n              codecopy\n              0x40\n              add\n              swap2\n              pop\n              pop\n              mload(0x40)\n              dup1\n              swap2\n              sub\n              swap1\n              revert\n            tag_196:\n                /* \"v2-core-master/contracts/DEXV2Pair.sol\":5400:5420  _mint(to, liquidity) */\n              tag_197\n                /* \"v2-core-master/contracts/DEXV2Pair.sol\":5406:5408  to */\n              dup11\n                /* \"v2-core-master/contracts/DEXV2Pair.sol\":5410:5419  liquidity */\n              dup11\n                /* \"v2-core-master/contracts/DEXV2Pair.sol\":5400:5405  _mint */\n              tag_188\n                /* \"v2-core-master/contracts/DEXV2Pair.sol\":5400:5420  _mint(to, liquidity) */\n              jump\t// in\n            tag_197:\n                /* \"v2-core-master/contracts/DEXV2Pair.sol\":5431:5480  _update(balance0, balance1, _reserve0, _reserve1) */\n              tag_198\n                /* \"v2-core-master/contracts/DEXV2Pair.sol\":5439:5447  balance0 */\n              dup7\n                /* \"v2-core-master/contracts/DEXV2Pair.sol\":5449:5457  balance1 */\n              dup7\n                /* \"v2-core-master/contracts/DEXV2Pair.sol\":5459:5468  _reserve0 */\n              dup11\n                /* \"v2-core-master/contracts/DEXV2Pair.sol\":5470:5479  _reserve1 */\n              dup11\n                /* \"v2-core-master/contracts/DEXV2Pair.sol\":5431:5438  _update */\n              tag_156\n                /* \"v2-core-master/contracts/DEXV2Pair.sol\":5431:5480  _update(balance0, balance1, _reserve0, _reserve1) */\n              jump\t// in\n            tag_198:\n                /* \"v2-core-master/contracts/DEXV2Pair.sol\":5494:5499  feeOn */\n              dup2\n                /* \"v2-core-master/contracts/DEXV2Pair.sol\":5490:5537  if (feeOn) kLast = uint(reserve0).mul(reserve1) */\n              iszero\n              tag_199\n              jumpi\n                /* \"v2-core-master/contracts/DEXV2Pair.sol\":5528:5536  reserve1 */\n              sload(0x08)\n                /* \"v2-core-master/contracts/DEXV2Pair.sol\":5509:5537  uint(reserve0).mul(reserve1) */\n              tag_200\n              swap1\n              sub(shl(0x70, 0x01), 0x01)\n                /* \"v2-core-master/contracts/DEXV2Pair.sol\":5514:5522  reserve0 */\n              dup1\n              dup3\n              and\n              swap2\n              shl(0x70, 0x01)\n                /* \"v2-core-master/contracts/DEXV2Pair.sol\":5528:5536  reserve1 */\n              swap1\n              div\n              and\n                /* \"v2-core-master/contracts/DEXV2Pair.sol\":5509:5527  uint(reserve0).mul */\n              tag_145\n                /* \"v2-core-master/contracts/DEXV2Pair.sol\":5509:5537  uint(reserve0).mul(reserve1) */\n              jump\t// in\n            tag_200:\n                /* \"v2-core-master/contracts/DEXV2Pair.sol\":5501:5506  kLast */\n              0x0b\n                /* \"v2-core-master/contracts/DEXV2Pair.sol\":5501:5537  kLast = uint(reserve0).mul(reserve1) */\n              sstore\n                /* \"v2-core-master/contracts/DEXV2Pair.sol\":5490:5537  if (feeOn) kLast = uint(reserve0).mul(reserve1) */\n            tag_199:\n                /* \"v2-core-master/contracts/DEXV2Pair.sol\":5592:5626  Mint(msg.sender, amount0, amount1) */\n              0x40\n              dup1\n              mload\n              dup6\n              dup2\n              mstore\n              0x20\n              dup2\n              add\n              dup6\n              swap1\n              mstore\n              dup2\n              mload\n                /* \"v2-core-master/contracts/DEXV2Pair.sol\":5597:5607  msg.sender */\n              caller\n              swap3\n                /* \"v2-core-master/contracts/DEXV2Pair.sol\":5592:5626  Mint(msg.sender, amount0, amount1) */\n              0x4c209b5fc8ad50758f13e2e1088ba56a560dff690a1c6fef26394f4c03821c4f\n              swap3\n              dup3\n              swap1\n              sub\n              add\n              swap1\n              log2\n              pop\n              pop\n                /* \"v2-core-master/contracts/DEXV2Pair.sol\":1238:1239  1 */\n              0x01\n                /* \"v2-core-master/contracts/DEXV2Pair.sol\":1227:1235  unlocked */\n              0x0c\n                /* \"v2-core-master/contracts/DEXV2Pair.sol\":1227:1239  unlocked = 1 */\n              sstore\n              pop\n                /* \"v2-core-master/contracts/DEXV2Pair.sol\":4418:5633  function mint(address to) external lock returns (uint liquidity) {... */\n              swap5\n              swap7\n              swap6\n              pop\n              pop\n              pop\n              pop\n              pop\n              pop\n              jump\t// out\n                /* \"v2-core-master/contracts/DEXV2ERC20.sol\":333:374  mapping(address => uint) public balanceOf */\n            tag_78:\n              mstore(0x20, 0x01)\n              0x00\n              swap1\n              dup2\n              mstore\n              0x40\n              swap1\n              keccak256\n              sload\n              dup2\n              jump\t// out\n                /* \"v2-core-master/contracts/DEXV2Pair.sol\":984:1001  uint public kLast */\n            tag_80:\n              sload(0x0b)\n              dup2\n              jump\t// out\n                /* \"v2-core-master/contracts/DEXV2ERC20.sol\":703:741  mapping(address => uint) public nonces */\n            tag_83:\n              mstore(0x20, 0x04)\n              0x00\n              swap1\n              dup2\n              mstore\n              0x40\n              swap1\n              keccak256\n              sload\n              dup2\n              jump\t// out\n                /* \"v2-core-master/contracts/DEXV2Pair.sol\":5742:7182  function burn(address to) external lock returns (uint amount0, uint amount1) {... */\n            tag_86:\n                /* \"v2-core-master/contracts/DEXV2Pair.sol\":5791:5803  uint amount0 */\n              0x00\n                /* \"v2-core-master/contracts/DEXV2Pair.sol\":5805:5817  uint amount1 */\n              dup1\n                /* \"v2-core-master/contracts/DEXV2Pair.sol\":1153:1161  unlocked */\n              sload(0x0c)\n                /* \"v2-core-master/contracts/DEXV2Pair.sol\":1165:1166  1 */\n              0x01\n                /* \"v2-core-master/contracts/DEXV2Pair.sol\":1153:1166  unlocked == 1 */\n              eq\n                /* \"v2-core-master/contracts/DEXV2Pair.sol\":1145:1184  require(unlocked == 1, 'DEXV2: LOCKED') */\n              tag_202\n              jumpi\n              0x40\n              dup1\n              mload\n              shl(0xe5, 0x461bcd)\n              dup2\n              mstore\n              0x20\n              0x04\n              dup3\n              add\n              mstore\n              0x0d\n              0x24\n              dup3\n              add\n              mstore\n              shl(0x9a, 0x111156158c8e881313d0d2d151)\n              0x44\n              dup3\n              add\n              mstore\n              swap1\n              mload\n              swap1\n              dup2\n              swap1\n              sub\n              0x64\n              add\n              swap1\n              revert\n            tag_202:\n                /* \"v2-core-master/contracts/DEXV2Pair.sol\":1205:1206  0 */\n              0x00\n                /* \"v2-core-master/contracts/DEXV2Pair.sol\":1194:1202  unlocked */\n              0x0c\n                /* \"v2-core-master/contracts/DEXV2Pair.sol\":1194:1206  unlocked = 0 */\n              dup2\n              swap1\n              sstore\n                /* \"v2-core-master/contracts/DEXV2Pair.sol\":1205:1206  0 */\n              dup1\n                /* \"v2-core-master/contracts/DEXV2Pair.sol\":5871:5884  getReserves() */\n              tag_204\n                /* \"v2-core-master/contracts/DEXV2Pair.sol\":5871:5882  getReserves */\n              tag_49\n                /* \"v2-core-master/contracts/DEXV2Pair.sol\":5871:5884  getReserves() */\n              jump\t// in\n            tag_204:\n              pop\n                /* \"v2-core-master/contracts/DEXV2Pair.sol\":5927:5933  token0 */\n              sload(0x06)\n                /* \"v2-core-master/contracts/DEXV2Pair.sol\":6007:6013  token1 */\n              sload(0x07)\n                /* \"v2-core-master/contracts/DEXV2Pair.sol\":6085:6125  IERC20(_token0).balanceOf(address(this)) */\n              0x40\n              dup1\n              mload\n              shl(0xe0, 0x70a08231)\n              dup2\n              mstore\n                /* \"v2-core-master/contracts/DEXV2Pair.sol\":6119:6123  this */\n              address\n                /* \"v2-core-master/contracts/DEXV2Pair.sol\":6085:6125  IERC20(_token0).balanceOf(address(this)) */\n              0x04\n              dup3\n              add\n              mstore\n              swap1\n              mload\n                /* \"v2-core-master/contracts/DEXV2Pair.sol\":5829:5884  (uint112 _reserve0, uint112 _reserve1,) = getReserves() */\n              swap5\n              swap7\n              pop\n              swap3\n              swap5\n              pop\n              sub(shl(0xa0, 0x01), 0x01)\n                /* \"v2-core-master/contracts/DEXV2Pair.sol\":5927:5933  token0 */\n              swap2\n              dup3\n              and\n              swap4\n                /* \"v2-core-master/contracts/DEXV2Pair.sol\":6007:6013  token1 */\n              swap2\n              and\n              swap2\n              0x00\n              swap2\n                /* \"v2-core-master/contracts/DEXV2Pair.sol\":5927:5933  token0 */\n              dup5\n              swap2\n              0x70a08231\n              swap2\n                /* \"v2-core-master/contracts/DEXV2Pair.sol\":6085:6125  IERC20(_token0).balanceOf(address(this)) */\n              0x24\n              dup1\n              dup4\n              add\n              swap3\n              0x20\n              swap3\n              swap2\n              swap1\n              dup3\n              swap1\n              sub\n              add\n              dup2\n                /* \"v2-core-master/contracts/DEXV2Pair.sol\":5927:5933  token0 */\n              dup7\n                /* \"v2-core-master/contracts/DEXV2Pair.sol\":6085:6125  IERC20(_token0).balanceOf(address(this)) */\n              dup1\n              extcodesize\n              iszero\n                /* \"--CODEGEN--\":5:7   */\n              dup1\n              iszero\n              tag_205\n              jumpi\n                /* \"--CODEGEN--\":30:31   */\n              0x00\n                /* \"--CODEGEN--\":27:28   */\n              dup1\n                /* \"--CODEGEN--\":20:32   */\n              revert\n                /* \"--CODEGEN--\":5:7   */\n            tag_205:\n                /* \"v2-core-master/contracts/DEXV2Pair.sol\":6085:6125  IERC20(_token0).balanceOf(address(this)) */\n              pop\n              gas\n              staticcall\n              iszero\n                /* \"--CODEGEN--\":8:17   */\n              dup1\n                /* \"--CODEGEN--\":5:7   */\n              iszero\n              tag_206\n              jumpi\n                /* \"--CODEGEN--\":45:61   */\n              returndatasize\n                /* \"--CODEGEN--\":42:43   */\n              0x00\n                /* \"--CODEGEN--\":39:40   */\n              dup1\n                /* \"--CODEGEN--\":24:62   */\n              returndatacopy\n                /* \"--CODEGEN--\":77:93   */\n              returndatasize\n                /* \"--CODEGEN--\":74:75   */\n              0x00\n                /* \"--CODEGEN--\":67:94   */\n              revert\n                /* \"--CODEGEN--\":5:7   */\n            tag_206:\n                /* \"v2-core-master/contracts/DEXV2Pair.sol\":6085:6125  IERC20(_token0).balanceOf(address(this)) */\n              pop\n              pop\n              pop\n              pop\n              mload(0x40)\n              returndatasize\n                /* \"--CODEGEN--\":13:15   */\n              0x20\n                /* \"--CODEGEN--\":8:11   */\n              dup2\n                /* \"--CODEGEN--\":5:16   */\n              lt\n                /* \"--CODEGEN--\":2:4   */\n              iszero\n              tag_207\n              jumpi\n                /* \"--CODEGEN--\":29:30   */\n              0x00\n                /* \"--CODEGEN--\":26:27   */\n              dup1\n                /* \"--CODEGEN--\":19:31   */\n              revert\n                /* \"--CODEGEN--\":2:4   */\n            tag_207:\n              pop\n                /* \"v2-core-master/contracts/DEXV2Pair.sol\":6085:6125  IERC20(_token0).balanceOf(address(this)) */\n              mload\n                /* \"v2-core-master/contracts/DEXV2Pair.sol\":6151:6191  IERC20(_token1).balanceOf(address(this)) */\n              0x40\n              dup1\n              mload\n              shl(0xe0, 0x70a08231)\n              dup2\n              mstore\n                /* \"v2-core-master/contracts/DEXV2Pair.sol\":6185:6189  this */\n              address\n                /* \"v2-core-master/contracts/DEXV2Pair.sol\":6151:6191  IERC20(_token1).balanceOf(address(this)) */\n              0x04\n              dup3\n              add\n              mstore\n              swap1\n              mload\n                /* \"v2-core-master/contracts/DEXV2Pair.sol\":6085:6125  IERC20(_token0).balanceOf(address(this)) */\n              swap2\n              swap3\n              pop\n              0x00\n              swap2\n              sub(shl(0xa0, 0x01), 0x01)\n                /* \"v2-core-master/contracts/DEXV2Pair.sol\":6151:6176  IERC20(_token1).balanceOf */\n              dup6\n              and\n              swap2\n              0x70a08231\n              swap2\n                /* \"v2-core-master/contracts/DEXV2Pair.sol\":6151:6191  IERC20(_token1).balanceOf(address(this)) */\n              0x24\n              dup1\n              dup4\n              add\n              swap3\n                /* \"v2-core-master/contracts/DEXV2Pair.sol\":6085:6125  IERC20(_token0).balanceOf(address(this)) */\n              0x20\n              swap3\n                /* \"v2-core-master/contracts/DEXV2Pair.sol\":6151:6191  IERC20(_token1).balanceOf(address(this)) */\n              swap2\n              swap1\n              dup3\n              swap1\n              sub\n              add\n              dup2\n                /* \"v2-core-master/contracts/DEXV2Pair.sol\":6151:6176  IERC20(_token1).balanceOf */\n              dup7\n                /* \"v2-core-master/contracts/DEXV2Pair.sol\":6151:6191  IERC20(_token1).balanceOf(address(this)) */\n              dup1\n              extcodesize\n              iszero\n                /* \"--CODEGEN--\":5:7   */\n              dup1\n              iszero\n              tag_208\n              jumpi\n                /* \"--CODEGEN--\":30:31   */\n              0x00\n                /* \"--CODEGEN--\":27:28   */\n              dup1\n                /* \"--CODEGEN--\":20:32   */\n              revert\n                /* \"--CODEGEN--\":5:7   */\n            tag_208:\n                /* \"v2-core-master/contracts/DEXV2Pair.sol\":6151:6191  IERC20(_token1).balanceOf(address(this)) */\n              pop\n              gas\n              staticcall\n              iszero\n                /* \"--CODEGEN--\":8:17   */\n              dup1\n                /* \"--CODEGEN--\":5:7   */\n              iszero\n              tag_209\n              jumpi\n                /* \"--CODEGEN--\":45:61   */\n              returndatasize\n                /* \"--CODEGEN--\":42:43   */\n              0x00\n                /* \"--CODEGEN--\":39:40   */\n              dup1\n                /* \"--CODEGEN--\":24:62   */\n              returndatacopy\n                /* \"--CODEGEN--\":77:93   */\n              returndatasize\n                /* \"--CODEGEN--\":74:75   */\n              0x00\n                /* \"--CODEGEN--\":67:94   */\n              revert\n                /* \"--CODEGEN--\":5:7   */\n            tag_209:\n                /* \"v2-core-master/contracts/DEXV2Pair.sol\":6151:6191  IERC20(_token1).balanceOf(address(this)) */\n              pop\n              pop\n              pop\n              pop\n              mload(0x40)\n              returndatasize\n                /* \"--CODEGEN--\":13:15   */\n              0x20\n                /* \"--CODEGEN--\":8:11   */\n              dup2\n                /* \"--CODEGEN--\":5:16   */\n              lt\n                /* \"--CODEGEN--\":2:4   */\n              iszero\n              tag_210\n              jumpi\n                /* \"--CODEGEN--\":29:30   */\n              0x00\n                /* \"--CODEGEN--\":26:27   */\n              dup1\n                /* \"--CODEGEN--\":19:31   */\n              revert\n                /* \"--CODEGEN--\":2:4   */\n            tag_210:\n              pop\n                /* \"v2-core-master/contracts/DEXV2Pair.sol\":6151:6191  IERC20(_token1).balanceOf(address(this)) */\n              mload\n                /* \"v2-core-master/contracts/DEXV2Pair.sol\":6236:6240  this */\n              address\n                /* \"v2-core-master/contracts/DEXV2Pair.sol\":6201:6215  uint liquidity */\n              0x00\n                /* \"v2-core-master/contracts/DEXV2Pair.sol\":6218:6242  balanceOf[address(this)] */\n              swap1\n              dup2\n              mstore\n                /* \"v2-core-master/contracts/DEXV2Pair.sol\":6218:6227  balanceOf */\n              0x01\n                /* \"v2-core-master/contracts/DEXV2Pair.sol\":6151:6191  IERC20(_token1).balanceOf(address(this)) */\n              0x20\n                /* \"v2-core-master/contracts/DEXV2Pair.sol\":6218:6242  balanceOf[address(this)] */\n              mstore\n              0x40\n              dup2\n              keccak256\n              sload\n                /* \"v2-core-master/contracts/DEXV2Pair.sol\":6151:6191  IERC20(_token1).balanceOf(address(this)) */\n              swap2\n              swap3\n              pop\n                /* \"v2-core-master/contracts/DEXV2Pair.sol\":6266:6296  _mintFee(_reserve0, _reserve1) */\n              tag_211\n                /* \"v2-core-master/contracts/DEXV2Pair.sol\":6275:6284  _reserve0 */\n              dup9\n                /* \"v2-core-master/contracts/DEXV2Pair.sol\":6286:6295  _reserve1 */\n              dup9\n                /* \"v2-core-master/contracts/DEXV2Pair.sol\":6266:6274  _mintFee */\n              tag_181\n                /* \"v2-core-master/contracts/DEXV2Pair.sol\":6266:6296  _mintFee(_reserve0, _reserve1) */\n              jump\t// in\n            tag_211:\n                /* \"v2-core-master/contracts/DEXV2Pair.sol\":6306:6323  uint _totalSupply */\n              0x00\n                /* \"v2-core-master/contracts/DEXV2Pair.sol\":6326:6337  totalSupply */\n              sload\n                /* \"v2-core-master/contracts/DEXV2Pair.sol\":6253:6296  bool feeOn = _mintFee(_reserve0, _reserve1) */\n              swap1\n              swap2\n              pop\n                /* \"v2-core-master/contracts/DEXV2Pair.sol\":6326:6337  totalSupply */\n              dup1\n                /* \"v2-core-master/contracts/DEXV2Pair.sol\":6435:6458  liquidity.mul(balance0) */\n              tag_212\n                /* \"v2-core-master/contracts/DEXV2Pair.sol\":6435:6444  liquidity */\n              dup5\n                /* \"v2-core-master/contracts/DEXV2Pair.sol\":6449:6457  balance0 */\n              dup8\n                /* \"v2-core-master/contracts/DEXV2Pair.sol\":6435:6458  liquidity.mul(balance0) */\n              0xffffffff\n                /* \"v2-core-master/contracts/DEXV2Pair.sol\":6435:6448  liquidity.mul */\n              tag_145\n                /* \"v2-core-master/contracts/DEXV2Pair.sol\":6435:6458  liquidity.mul(balance0) */\n              and\n              jump\t// in\n            tag_212:\n                /* \"v2-core-master/contracts/DEXV2Pair.sol\":6435:6473  liquidity.mul(balance0) / _totalSupply */\n              dup2\n              tag_213\n              jumpi\n              invalid\n            tag_213:\n              div\n              swap11\n              pop\n                /* \"v2-core-master/contracts/DEXV2Pair.sol\":6567:6579  _totalSupply */\n              dup1\n                /* \"v2-core-master/contracts/DEXV2Pair.sol\":6541:6564  liquidity.mul(balance1) */\n              tag_214\n                /* \"v2-core-master/contracts/DEXV2Pair.sol\":6541:6550  liquidity */\n              dup5\n                /* \"v2-core-master/contracts/DEXV2Pair.sol\":6555:6563  balance1 */\n              dup7\n                /* \"v2-core-master/contracts/DEXV2Pair.sol\":6541:6564  liquidity.mul(balance1) */\n              0xffffffff\n                /* \"v2-core-master/contracts/DEXV2Pair.sol\":6541:6554  liquidity.mul */\n              tag_145\n                /* \"v2-core-master/contracts/DEXV2Pair.sol\":6541:6564  liquidity.mul(balance1) */\n              and\n              jump\t// in\n            tag_214:\n                /* \"v2-core-master/contracts/DEXV2Pair.sol\":6541:6579  liquidity.mul(balance1) / _totalSupply */\n              dup2\n              tag_215\n              jumpi\n              invalid\n            tag_215:\n              div\n                /* \"v2-core-master/contracts/DEXV2Pair.sol\":6531:6579  amount1 = liquidity.mul(balance1) / _totalSupply */\n              swap10\n              pop\n                /* \"v2-core-master/contracts/DEXV2Pair.sol\":6655:6656  0 */\n              0x00\n                /* \"v2-core-master/contracts/DEXV2Pair.sol\":6645:6652  amount0 */\n              dup12\n                /* \"v2-core-master/contracts/DEXV2Pair.sol\":6645:6656  amount0 > 0 */\n              gt\n                /* \"v2-core-master/contracts/DEXV2Pair.sol\":6645:6671  amount0 > 0 && amount1 > 0 */\n              dup1\n              iszero\n              tag_216\n              jumpi\n              pop\n                /* \"v2-core-master/contracts/DEXV2Pair.sol\":6670:6671  0 */\n              0x00\n                /* \"v2-core-master/contracts/DEXV2Pair.sol\":6660:6667  amount1 */\n              dup11\n                /* \"v2-core-master/contracts/DEXV2Pair.sol\":6660:6671  amount1 > 0 */\n              gt\n                /* \"v2-core-master/contracts/DEXV2Pair.sol\":6645:6671  amount0 > 0 && amount1 > 0 */\n            tag_216:\n                /* \"v2-core-master/contracts/DEXV2Pair.sol\":6637:6712  require(amount0 > 0 && amount1 > 0, 'DEXV2: INSUFFICIENT_LIQUIDITY_BURNED') */\n              tag_217\n              jumpi\n              mload(0x40)\n              shl(0xe5, 0x461bcd)\n              dup2\n              mstore\n              0x04\n              add\n              dup1\n              dup1\n              0x20\n              add\n              dup3\n              dup2\n              sub\n              dup3\n              mstore\n              0x24\n              dup2\n              mstore\n              0x20\n              add\n              dup1\n              data_b8515d9c102ebe9112851623068db4e89ae46cea200d65e7d4ce8f89e31a1179\n              0x24\n              swap2\n              codecopy\n              0x40\n              add\n              swap2\n              pop\n              pop\n              mload(0x40)\n              dup1\n              swap2\n              sub\n              swap1\n              revert\n            tag_217:\n                /* \"v2-core-master/contracts/DEXV2Pair.sol\":6722:6753  _burn(address(this), liquidity) */\n              tag_218\n                /* \"v2-core-master/contracts/DEXV2Pair.sol\":6736:6740  this */\n              address\n                /* \"v2-core-master/contracts/DEXV2Pair.sol\":6743:6752  liquidity */\n              dup5\n                /* \"v2-core-master/contracts/DEXV2Pair.sol\":6722:6727  _burn */\n              tag_219\n                /* \"v2-core-master/contracts/DEXV2Pair.sol\":6722:6753  _burn(address(this), liquidity) */\n              jump\t// in\n            tag_218:\n                /* \"v2-core-master/contracts/DEXV2Pair.sol\":6763:6798  _safeTransfer(_token0, to, amount0) */\n              tag_220\n                /* \"v2-core-master/contracts/DEXV2Pair.sol\":6777:6784  _token0 */\n              dup8\n                /* \"v2-core-master/contracts/DEXV2Pair.sol\":6786:6788  to */\n              dup14\n                /* \"v2-core-master/contracts/DEXV2Pair.sol\":6790:6797  amount0 */\n              dup14\n                /* \"v2-core-master/contracts/DEXV2Pair.sol\":6763:6776  _safeTransfer */\n              tag_125\n                /* \"v2-core-master/contracts/DEXV2Pair.sol\":6763:6798  _safeTransfer(_token0, to, amount0) */\n              jump\t// in\n            tag_220:\n                /* \"v2-core-master/contracts/DEXV2Pair.sol\":6808:6843  _safeTransfer(_token1, to, amount1) */\n              tag_221\n                /* \"v2-core-master/contracts/DEXV2Pair.sol\":6822:6829  _token1 */\n              dup7\n                /* \"v2-core-master/contracts/DEXV2Pair.sol\":6831:6833  to */\n              dup14\n                /* \"v2-core-master/contracts/DEXV2Pair.sol\":6835:6842  amount1 */\n              dup13\n                /* \"v2-core-master/contracts/DEXV2Pair.sol\":6808:6821  _safeTransfer */\n              tag_125\n                /* \"v2-core-master/contracts/DEXV2Pair.sol\":6808:6843  _safeTransfer(_token1, to, amount1) */\n              jump\t// in\n            tag_221:\n                /* \"v2-core-master/contracts/DEXV2Pair.sol\":6864:6904  IERC20(_token0).balanceOf(address(this)) */\n              0x40\n              dup1\n              mload\n              shl(0xe0, 0x70a08231)\n              dup2\n              mstore\n                /* \"v2-core-master/contracts/DEXV2Pair.sol\":6898:6902  this */\n              address\n                /* \"v2-core-master/contracts/DEXV2Pair.sol\":6864:6904  IERC20(_token0).balanceOf(address(this)) */\n              0x04\n              dup3\n              add\n              mstore\n              swap1\n              mload\n              sub(shl(0xa0, 0x01), 0x01)\n                /* \"v2-core-master/contracts/DEXV2Pair.sol\":6864:6889  IERC20(_token0).balanceOf */\n              dup10\n              and\n              swap2\n              0x70a08231\n              swap2\n                /* \"v2-core-master/contracts/DEXV2Pair.sol\":6864:6904  IERC20(_token0).balanceOf(address(this)) */\n              0x24\n              dup1\n              dup4\n              add\n              swap3\n              0x20\n              swap3\n              swap2\n              swap1\n              dup3\n              swap1\n              sub\n              add\n              dup2\n                /* \"v2-core-master/contracts/DEXV2Pair.sol\":6864:6889  IERC20(_token0).balanceOf */\n              dup7\n                /* \"v2-core-master/contracts/DEXV2Pair.sol\":6864:6904  IERC20(_token0).balanceOf(address(this)) */\n              dup1\n              extcodesize\n              iszero\n                /* \"--CODEGEN--\":5:7   */\n              dup1\n              iszero\n              tag_222\n              jumpi\n                /* \"--CODEGEN--\":30:31   */\n              0x00\n                /* \"--CODEGEN--\":27:28   */\n              dup1\n                /* \"--CODEGEN--\":20:32   */\n              revert\n                /* \"--CODEGEN--\":5:7   */\n            tag_222:\n                /* \"v2-core-master/contracts/DEXV2Pair.sol\":6864:6904  IERC20(_token0).balanceOf(address(this)) */\n              pop\n              gas\n              staticcall\n              iszero\n                /* \"--CODEGEN--\":8:17   */\n              dup1\n                /* \"--CODEGEN--\":5:7   */\n              iszero\n              tag_223\n              jumpi\n                /* \"--CODEGEN--\":45:61   */\n              returndatasize\n                /* \"--CODEGEN--\":42:43   */\n              0x00\n                /* \"--CODEGEN--\":39:40   */\n              dup1\n                /* \"--CODEGEN--\":24:62   */\n              returndatacopy\n                /* \"--CODEGEN--\":77:93   */\n              returndatasize\n                /* \"--CODEGEN--\":74:75   */\n              0x00\n                /* \"--CODEGEN--\":67:94   */\n              revert\n                /* \"--CODEGEN--\":5:7   */\n            tag_223:\n                /* \"v2-core-master/contracts/DEXV2Pair.sol\":6864:6904  IERC20(_token0).balanceOf(address(this)) */\n              pop\n              pop\n              pop\n              pop\n              mload(0x40)\n              returndatasize\n                /* \"--CODEGEN--\":13:15   */\n              0x20\n                /* \"--CODEGEN--\":8:11   */\n              dup2\n                /* \"--CODEGEN--\":5:16   */\n              lt\n                /* \"--CODEGEN--\":2:4   */\n              iszero\n              tag_224\n              jumpi\n                /* \"--CODEGEN--\":29:30   */\n              0x00\n                /* \"--CODEGEN--\":26:27   */\n              dup1\n                /* \"--CODEGEN--\":19:31   */\n              revert\n                /* \"--CODEGEN--\":2:4   */\n            tag_224:\n              pop\n                /* \"v2-core-master/contracts/DEXV2Pair.sol\":6864:6904  IERC20(_token0).balanceOf(address(this)) */\n              mload\n                /* \"v2-core-master/contracts/DEXV2Pair.sol\":6925:6965  IERC20(_token1).balanceOf(address(this)) */\n              0x40\n              dup1\n              mload\n              shl(0xe0, 0x70a08231)\n              dup2\n              mstore\n                /* \"v2-core-master/contracts/DEXV2Pair.sol\":6959:6963  this */\n              address\n                /* \"v2-core-master/contracts/DEXV2Pair.sol\":6925:6965  IERC20(_token1).balanceOf(address(this)) */\n              0x04\n              dup3\n              add\n              mstore\n              swap1\n              mload\n                /* \"v2-core-master/contracts/DEXV2Pair.sol\":6864:6904  IERC20(_token0).balanceOf(address(this)) */\n              swap2\n              swap7\n              pop\n              sub(shl(0xa0, 0x01), 0x01)\n                /* \"v2-core-master/contracts/DEXV2Pair.sol\":6925:6950  IERC20(_token1).balanceOf */\n              dup9\n              and\n              swap2\n              0x70a08231\n              swap2\n                /* \"v2-core-master/contracts/DEXV2Pair.sol\":6925:6965  IERC20(_token1).balanceOf(address(this)) */\n              0x24\n              dup1\n              dup3\n              add\n              swap3\n                /* \"v2-core-master/contracts/DEXV2Pair.sol\":6864:6904  IERC20(_token0).balanceOf(address(this)) */\n              0x20\n              swap3\n                /* \"v2-core-master/contracts/DEXV2Pair.sol\":6925:6965  IERC20(_token1).balanceOf(address(this)) */\n              swap1\n              swap2\n              swap1\n              dup3\n              swap1\n              sub\n              add\n              dup2\n                /* \"v2-core-master/contracts/DEXV2Pair.sol\":6925:6950  IERC20(_token1).balanceOf */\n              dup7\n                /* \"v2-core-master/contracts/DEXV2Pair.sol\":6925:6965  IERC20(_token1).balanceOf(address(this)) */\n              dup1\n              extcodesize\n              iszero\n                /* \"--CODEGEN--\":5:7   */\n              dup1\n              iszero\n              tag_225\n              jumpi\n                /* \"--CODEGEN--\":30:31   */\n              0x00\n                /* \"--CODEGEN--\":27:28   */\n              dup1\n                /* \"--CODEGEN--\":20:32   */\n              revert\n                /* \"--CODEGEN--\":5:7   */\n            tag_225:\n                /* \"v2-core-master/contracts/DEXV2Pair.sol\":6925:6965  IERC20(_token1).balanceOf(address(this)) */\n              pop\n              gas\n              staticcall\n              iszero\n                /* \"--CODEGEN--\":8:17   */\n              dup1\n                /* \"--CODEGEN--\":5:7   */\n              iszero\n              tag_226\n              jumpi\n                /* \"--CODEGEN--\":45:61   */\n              returndatasize\n                /* \"--CODEGEN--\":42:43   */\n              0x00\n                /* \"--CODEGEN--\":39:40   */\n              dup1\n                /* \"--CODEGEN--\":24:62   */\n              returndatacopy\n                /* \"--CODEGEN--\":77:93   */\n              returndatasize\n                /* \"--CODEGEN--\":74:75   */\n              0x00\n                /* \"--CODEGEN--\":67:94   */\n              revert\n                /* \"--CODEGEN--\":5:7   */\n            tag_226:\n                /* \"v2-core-master/contracts/DEXV2Pair.sol\":6925:6965  IERC20(_token1).balanceOf(address(this)) */\n              pop\n              pop\n              pop\n              pop\n              mload(0x40)\n              returndatasize\n                /* \"--CODEGEN--\":13:15   */\n              0x20\n                /* \"--CODEGEN--\":8:11   */\n              dup2\n                /* \"--CODEGEN--\":5:16   */\n              lt\n                /* \"--CODEGEN--\":2:4   */\n              iszero\n              tag_227\n              jumpi\n                /* \"--CODEGEN--\":29:30   */\n              0x00\n                /* \"--CODEGEN--\":26:27   */\n              dup1\n                /* \"--CODEGEN--\":19:31   */\n              revert\n                /* \"--CODEGEN--\":2:4   */\n            tag_227:\n              pop\n                /* \"v2-core-master/contracts/DEXV2Pair.sol\":6925:6965  IERC20(_token1).balanceOf(address(this)) */\n              mload\n              swap4\n              pop\n                /* \"v2-core-master/contracts/DEXV2Pair.sol\":6976:7025  _update(balance0, balance1, _reserve0, _reserve1) */\n              tag_228\n                /* \"v2-core-master/contracts/DEXV2Pair.sol\":6984:6992  balance0 */\n              dup6\n                /* \"v2-core-master/contracts/DEXV2Pair.sol\":6925:6965  IERC20(_token1).balanceOf(address(this)) */\n              dup6\n                /* \"v2-core-master/contracts/DEXV2Pair.sol\":7004:7013  _reserve0 */\n              dup12\n                /* \"v2-core-master/contracts/DEXV2Pair.sol\":7015:7024  _reserve1 */\n              dup12\n                /* \"v2-core-master/contracts/DEXV2Pair.sol\":6976:6983  _update */\n              tag_156\n                /* \"v2-core-master/contracts/DEXV2Pair.sol\":6976:7025  _update(balance0, balance1, _reserve0, _reserve1) */\n              jump\t// in\n            tag_228:\n                /* \"v2-core-master/contracts/DEXV2Pair.sol\":7039:7044  feeOn */\n              dup2\n                /* \"v2-core-master/contracts/DEXV2Pair.sol\":7035:7082  if (feeOn) kLast = uint(reserve0).mul(reserve1) */\n              iszero\n              tag_229\n              jumpi\n                /* \"v2-core-master/contracts/DEXV2Pair.sol\":7073:7081  reserve1 */\n              sload(0x08)\n                /* \"v2-core-master/contracts/DEXV2Pair.sol\":7054:7082  uint(reserve0).mul(reserve1) */\n              tag_230\n              swap1\n              sub(shl(0x70, 0x01), 0x01)\n                /* \"v2-core-master/contracts/DEXV2Pair.sol\":7059:7067  reserve0 */\n              dup1\n              dup3\n              and\n              swap2\n              shl(0x70, 0x01)\n                /* \"v2-core-master/contracts/DEXV2Pair.sol\":7073:7081  reserve1 */\n              swap1\n              div\n              and\n                /* \"v2-core-master/contracts/DEXV2Pair.sol\":7054:7072  uint(reserve0).mul */\n              tag_145\n                /* \"v2-core-master/contracts/DEXV2Pair.sol\":7054:7082  uint(reserve0).mul(reserve1) */\n              jump\t// in\n            tag_230:\n                /* \"v2-core-master/contracts/DEXV2Pair.sol\":7046:7051  kLast */\n              0x0b\n                /* \"v2-core-master/contracts/DEXV2Pair.sol\":7046:7082  kLast = uint(reserve0).mul(reserve1) */\n              sstore\n                /* \"v2-core-master/contracts/DEXV2Pair.sol\":7035:7082  if (feeOn) kLast = uint(reserve0).mul(reserve1) */\n            tag_229:\n                /* \"v2-core-master/contracts/DEXV2Pair.sol\":7137:7175  Burn(msg.sender, amount0, amount1, to) */\n              0x40\n              dup1\n              mload\n              dup13\n              dup2\n              mstore\n              0x20\n              dup2\n              add\n              dup13\n              swap1\n              mstore\n              dup2\n              mload\n              sub(shl(0xa0, 0x01), 0x01)\n              dup16\n              and\n              swap3\n                /* \"v2-core-master/contracts/DEXV2Pair.sol\":7142:7152  msg.sender */\n              caller\n              swap3\n                /* \"v2-core-master/contracts/DEXV2Pair.sol\":7137:7175  Burn(msg.sender, amount0, amount1, to) */\n              0xdccd412f0b1252819cb1fd330b93224ca42612892bb3f4f789976e6d81936496\n              swap3\n              swap1\n              dup2\n              swap1\n              sub\n              swap1\n              swap2\n              add\n              swap1\n              log3\n                /* \"v2-core-master/contracts/DEXV2Pair.sol\":1216:1217  _ */\n              pop\n              pop\n              pop\n              pop\n              pop\n              pop\n              pop\n              pop\n              pop\n                /* \"v2-core-master/contracts/DEXV2Pair.sol\":1238:1239  1 */\n              0x01\n                /* \"v2-core-master/contracts/DEXV2Pair.sol\":1227:1235  unlocked */\n              0x0c\n                /* \"v2-core-master/contracts/DEXV2Pair.sol\":1227:1239  unlocked = 1 */\n              dup2\n              swap1\n              sstore\n              pop\n                /* \"v2-core-master/contracts/DEXV2Pair.sol\":5742:7182  function burn(address to) external lock returns (uint amount0, uint amount1) {... */\n              swap2\n              pop\n              swap2\n              jump\t// out\n                /* \"v2-core-master/contracts/DEXV2ERC20.sol\":216:256  string public constant symbol = 'DEX-V2' */\n            tag_88:\n              0x40\n              dup1\n              mload\n              dup1\n              dup3\n              add\n              swap1\n              swap2\n              mstore\n              0x06\n              dup2\n              mstore\n              shl(0xd1, 0x2222ac16ab19)\n              0x20\n              dup3\n              add\n              mstore\n              dup2\n              jump\t// out\n                /* \"v2-core-master/contracts/DEXV2ERC20.sol\":2311:2447  function transfer(address to, uint value) external returns (bool) {... */\n            tag_95:\n                /* \"v2-core-master/contracts/DEXV2ERC20.sol\":2371:2375  bool */\n              0x00\n                /* \"v2-core-master/contracts/DEXV2ERC20.sol\":2387:2419  _transfer(msg.sender, to, value) */\n              tag_159\n                /* \"v2-core-master/contracts/DEXV2ERC20.sol\":2397:2407  msg.sender */\n              caller\n                /* \"v2-core-master/contracts/DEXV2ERC20.sol\":2409:2411  to */\n              dup5\n                /* \"v2-core-master/contracts/DEXV2ERC20.sol\":2413:2418  value */\n              dup5\n                /* \"v2-core-master/contracts/DEXV2ERC20.sol\":2387:2396  _transfer */\n              tag_165\n                /* \"v2-core-master/contracts/DEXV2ERC20.sol\":2387:2419  _transfer(msg.sender, to, value) */\n              jump\t// in\n                /* \"v2-core-master/contracts/DEXV2Pair.sol\":389:435  uint public constant MINIMUM_LIQUIDITY = 10**3 */\n            tag_97:\n                /* \"v2-core-master/contracts/DEXV2Pair.sol\":430:435  10**3 */\n              0x03e8\n                /* \"v2-core-master/contracts/DEXV2Pair.sol\":389:435  uint public constant MINIMUM_LIQUIDITY = 10**3 */\n              dup2\n              jump\t// out\n                /* \"v2-core-master/contracts/DEXV2Pair.sol\":9170:9499  function skim(address to) external lock {... */\n            tag_100:\n                /* \"v2-core-master/contracts/DEXV2Pair.sol\":1153:1161  unlocked */\n              sload(0x0c)\n                /* \"v2-core-master/contracts/DEXV2Pair.sol\":1165:1166  1 */\n              0x01\n                /* \"v2-core-master/contracts/DEXV2Pair.sol\":1153:1166  unlocked == 1 */\n              eq\n                /* \"v2-core-master/contracts/DEXV2Pair.sol\":1145:1184  require(unlocked == 1, 'DEXV2: LOCKED') */\n              tag_234\n              jumpi\n              0x40\n              dup1\n              mload\n              shl(0xe5, 0x461bcd)\n              dup2\n              mstore\n              0x20\n              0x04\n              dup3\n              add\n              mstore\n              0x0d\n              0x24\n              dup3\n              add\n              mstore\n              shl(0x9a, 0x111156158c8e881313d0d2d151)\n              0x44\n              dup3\n              add\n              mstore\n              swap1\n              mload\n              swap1\n              dup2\n              swap1\n              sub\n              0x64\n              add\n              swap1\n              revert\n            tag_234:\n                /* \"v2-core-master/contracts/DEXV2Pair.sol\":1205:1206  0 */\n              0x00\n                /* \"v2-core-master/contracts/DEXV2Pair.sol\":1194:1202  unlocked */\n              0x0c\n                /* \"v2-core-master/contracts/DEXV2Pair.sol\":1194:1206  unlocked = 0 */\n              sstore\n                /* \"v2-core-master/contracts/DEXV2Pair.sol\":9238:9244  token0 */\n              sload(0x06)\n                /* \"v2-core-master/contracts/DEXV2Pair.sol\":9287:9293  token1 */\n              sload(0x07)\n                /* \"v2-core-master/contracts/DEXV2Pair.sol\":9390:9398  reserve0 */\n              sload(0x08)\n                /* \"v2-core-master/contracts/DEXV2Pair.sol\":9345:9385  IERC20(_token0).balanceOf(address(this)) */\n              0x40\n              dup1\n              mload\n              shl(0xe0, 0x70a08231)\n              dup2\n              mstore\n                /* \"v2-core-master/contracts/DEXV2Pair.sol\":9379:9383  this */\n              address\n                /* \"v2-core-master/contracts/DEXV2Pair.sol\":9345:9385  IERC20(_token0).balanceOf(address(this)) */\n              0x04\n              dup3\n              add\n              mstore\n              swap1\n              mload\n              sub(shl(0xa0, 0x01), 0x01)\n                /* \"v2-core-master/contracts/DEXV2Pair.sol\":9238:9244  token0 */\n              swap5\n              dup6\n              and\n              swap5\n                /* \"v2-core-master/contracts/DEXV2Pair.sol\":9287:9293  token1 */\n              swap1\n              swap4\n              and\n              swap3\n                /* \"v2-core-master/contracts/DEXV2Pair.sol\":9318:9400  _safeTransfer(_token0, to, IERC20(_token0).balanceOf(address(this)).sub(reserve0)) */\n              tag_236\n              swap3\n                /* \"v2-core-master/contracts/DEXV2Pair.sol\":9238:9244  token0 */\n              dup6\n              swap3\n                /* \"v2-core-master/contracts/DEXV2Pair.sol\":9341:9343  to */\n              dup8\n              swap3\n                /* \"v2-core-master/contracts/DEXV2Pair.sol\":9345:9399  IERC20(_token0).balanceOf(address(this)).sub(reserve0) */\n              tag_237\n              swap3\n              sub(shl(0x70, 0x01), 0x01)\n                /* \"v2-core-master/contracts/DEXV2Pair.sol\":9390:9398  reserve0 */\n              and\n              swap2\n                /* \"v2-core-master/contracts/DEXV2Pair.sol\":9238:9244  token0 */\n              dup6\n              swap2\n              0x70a08231\n              swap2\n                /* \"v2-core-master/contracts/DEXV2Pair.sol\":9345:9385  IERC20(_token0).balanceOf(address(this)) */\n              0x24\n              dup1\n              dup3\n              add\n              swap3\n              0x20\n              swap3\n              swap1\n              swap2\n              swap1\n              dup3\n              swap1\n              sub\n              add\n              dup2\n                /* \"v2-core-master/contracts/DEXV2Pair.sol\":9238:9244  token0 */\n              dup7\n                /* \"v2-core-master/contracts/DEXV2Pair.sol\":9345:9385  IERC20(_token0).balanceOf(address(this)) */\n              dup1\n              extcodesize\n              iszero\n                /* \"--CODEGEN--\":5:7   */\n              dup1\n              iszero\n              tag_238\n              jumpi\n                /* \"--CODEGEN--\":30:31   */\n              0x00\n                /* \"--CODEGEN--\":27:28   */\n              dup1\n                /* \"--CODEGEN--\":20:32   */\n              revert\n                /* \"--CODEGEN--\":5:7   */\n            tag_238:\n                /* \"v2-core-master/contracts/DEXV2Pair.sol\":9345:9385  IERC20(_token0).balanceOf(address(this)) */\n              pop\n              gas\n              staticcall\n              iszero\n                /* \"--CODEGEN--\":8:17   */\n              dup1\n                /* \"--CODEGEN--\":5:7   */\n              iszero\n              tag_239\n              jumpi\n                /* \"--CODEGEN--\":45:61   */\n              returndatasize\n                /* \"--CODEGEN--\":42:43   */\n              0x00\n                /* \"--CODEGEN--\":39:40   */\n              dup1\n                /* \"--CODEGEN--\":24:62   */\n              returndatacopy\n                /* \"--CODEGEN--\":77:93   */\n              returndatasize\n                /* \"--CODEGEN--\":74:75   */\n              0x00\n                /* \"--CODEGEN--\":67:94   */\n              revert\n                /* \"--CODEGEN--\":5:7   */\n            tag_239:\n                /* \"v2-core-master/contracts/DEXV2Pair.sol\":9345:9385  IERC20(_token0).balanceOf(address(this)) */\n              pop\n              pop\n              pop\n              pop\n              mload(0x40)\n              returndatasize\n                /* \"--CODEGEN--\":13:15   */\n              0x20\n                /* \"--CODEGEN--\":8:11   */\n              dup2\n                /* \"--CODEGEN--\":5:16   */\n              lt\n                /* \"--CODEGEN--\":2:4   */\n              iszero\n              tag_240\n              jumpi\n                /* \"--CODEGEN--\":29:30   */\n              0x00\n                /* \"--CODEGEN--\":26:27   */\n              dup1\n                /* \"--CODEGEN--\":19:31   */\n              revert\n                /* \"--CODEGEN--\":2:4   */\n            tag_240:\n              pop\n                /* \"v2-core-master/contracts/DEXV2Pair.sol\":9345:9385  IERC20(_token0).balanceOf(address(this)) */\n              mload\n              swap1\n                /* \"v2-core-master/contracts/DEXV2Pair.sol\":9345:9399  IERC20(_token0).balanceOf(address(this)).sub(reserve0) */\n              0xffffffff\n                /* \"v2-core-master/contracts/DEXV2Pair.sol\":9345:9389  IERC20(_token0).balanceOf(address(this)).sub */\n              tag_147\n                /* \"v2-core-master/contracts/DEXV2Pair.sol\":9345:9399  IERC20(_token0).balanceOf(address(this)).sub(reserve0) */\n              and\n              jump\t// in\n            tag_237:\n                /* \"v2-core-master/contracts/DEXV2Pair.sol\":9318:9331  _safeTransfer */\n              tag_125\n                /* \"v2-core-master/contracts/DEXV2Pair.sol\":9318:9400  _safeTransfer(_token0, to, IERC20(_token0).balanceOf(address(this)).sub(reserve0)) */\n              jump\t// in\n            tag_236:\n                /* \"v2-core-master/contracts/DEXV2Pair.sol\":9482:9490  reserve1 */\n              sload(0x08)\n                /* \"v2-core-master/contracts/DEXV2Pair.sol\":9437:9477  IERC20(_token1).balanceOf(address(this)) */\n              0x40\n              dup1\n              mload\n              shl(0xe0, 0x70a08231)\n              dup2\n              mstore\n                /* \"v2-core-master/contracts/DEXV2Pair.sol\":9471:9475  this */\n              address\n                /* \"v2-core-master/contracts/DEXV2Pair.sol\":9437:9477  IERC20(_token1).balanceOf(address(this)) */\n              0x04\n              dup3\n              add\n              mstore\n              swap1\n              mload\n                /* \"v2-core-master/contracts/DEXV2Pair.sol\":9410:9492  _safeTransfer(_token1, to, IERC20(_token1).balanceOf(address(this)).sub(reserve1)) */\n              tag_241\n              swap3\n                /* \"v2-core-master/contracts/DEXV2Pair.sol\":9424:9431  _token1 */\n              dup5\n              swap3\n                /* \"v2-core-master/contracts/DEXV2Pair.sol\":9433:9435  to */\n              dup8\n              swap3\n                /* \"v2-core-master/contracts/DEXV2Pair.sol\":9437:9491  IERC20(_token1).balanceOf(address(this)).sub(reserve1) */\n              tag_237\n              swap3\n              shl(0x70, 0x01)\n                /* \"v2-core-master/contracts/DEXV2Pair.sol\":9482:9490  reserve1 */\n              swap1\n              div\n              sub(shl(0x70, 0x01), 0x01)\n              and\n              swap2\n              sub(shl(0xa0, 0x01), 0x01)\n                /* \"v2-core-master/contracts/DEXV2Pair.sol\":9437:9462  IERC20(_token1).balanceOf */\n              dup7\n              and\n              swap2\n              0x70a08231\n              swap2\n                /* \"v2-core-master/contracts/DEXV2Pair.sol\":9437:9477  IERC20(_token1).balanceOf(address(this)) */\n              0x24\n              dup1\n              dup3\n              add\n              swap3\n              0x20\n              swap3\n              swap1\n              swap2\n              swap1\n              dup3\n              swap1\n              sub\n              add\n              dup2\n                /* \"v2-core-master/contracts/DEXV2Pair.sol\":9437:9462  IERC20(_token1).balanceOf */\n              dup7\n                /* \"v2-core-master/contracts/DEXV2Pair.sol\":9437:9477  IERC20(_token1).balanceOf(address(this)) */\n              dup1\n              extcodesize\n              iszero\n                /* \"--CODEGEN--\":5:7   */\n              dup1\n              iszero\n              tag_238\n              jumpi\n                /* \"--CODEGEN--\":30:31   */\n              0x00\n                /* \"--CODEGEN--\":27:28   */\n              dup1\n                /* \"--CODEGEN--\":20:32   */\n              revert\n                /* \"v2-core-master/contracts/DEXV2Pair.sol\":9410:9492  _safeTransfer(_token1, to, IERC20(_token1).balanceOf(address(this)).sub(reserve1)) */\n            tag_241:\n              pop\n              pop\n                /* \"v2-core-master/contracts/DEXV2Pair.sol\":1238:1239  1 */\n              0x01\n                /* \"v2-core-master/contracts/DEXV2Pair.sol\":1227:1235  unlocked */\n              0x0c\n                /* \"v2-core-master/contracts/DEXV2Pair.sol\":1227:1239  unlocked = 1 */\n              sstore\n              pop\n                /* \"v2-core-master/contracts/DEXV2Pair.sol\":9170:9499  function skim(address to) external lock {... */\n              jump\t// out\n                /* \"v2-core-master/contracts/DEXV2Pair.sol\":536:558  address public factory */\n            tag_102:\n              and(sub(shl(0xa0, 0x01), 0x01), sload(0x05))\n              dup2\n              jump\t// out\n                /* \"v2-core-master/contracts/DEXV2Pair.sol\":591:612  address public token1 */\n            tag_104:\n              and(sub(shl(0xa0, 0x01), 0x01), sload(0x07))\n              dup2\n              jump\t// out\n                /* \"v2-core-master/contracts/DEXV2ERC20.sol\":2754:3408  function permit(address owner, address spender, uint value, uint deadline, uint8 v, bytes32 r, bytes32 s) external {... */\n            tag_107:\n                /* \"v2-core-master/contracts/DEXV2ERC20.sol\":2899:2914  block.timestamp */\n              timestamp\n                /* \"v2-core-master/contracts/DEXV2ERC20.sol\":2887:2895  deadline */\n              dup5\n                /* \"v2-core-master/contracts/DEXV2ERC20.sol\":2887:2914  deadline >= block.timestamp */\n              lt\n              iszero\n                /* \"v2-core-master/contracts/DEXV2ERC20.sol\":2879:2933  require(deadline >= block.timestamp, 'DEXV2: EXPIRED') */\n              tag_247\n              jumpi\n              0x40\n              dup1\n              mload\n              shl(0xe5, 0x461bcd)\n              dup2\n              mstore\n              0x20\n              0x04\n              dup3\n              add\n              mstore\n              0x0e\n              0x24\n              dup3\n              add\n              mstore\n              shl(0x92, 0x111156158c8e8811561412549151)\n              0x44\n              dup3\n              add\n              mstore\n              swap1\n              mload\n              swap1\n              dup2\n              swap1\n              sub\n              0x64\n              add\n              swap1\n              revert\n            tag_247:\n                /* \"v2-core-master/contracts/DEXV2ERC20.sol\":3045:3061  DOMAIN_SEPARATOR */\n              sload(0x03)\n              sub(shl(0xa0, 0x01), 0x01)\n                /* \"v2-core-master/contracts/DEXV2ERC20.sol\":3140:3153  nonces[owner] */\n              dup9\n              dup2\n              and\n                /* \"v2-core-master/contracts/DEXV2ERC20.sol\":2943:2957  bytes32 digest */\n              0x00\n                /* \"v2-core-master/contracts/DEXV2ERC20.sol\":3140:3153  nonces[owner] */\n              dup2\n              dup2\n              mstore\n                /* \"v2-core-master/contracts/DEXV2ERC20.sol\":3140:3146  nonces */\n              0x04\n                /* \"v2-core-master/contracts/DEXV2ERC20.sol\":3140:3153  nonces[owner] */\n              0x20\n              swap1\n              dup2\n              mstore\n              0x40\n              dup1\n              dup4\n              keccak256\n                /* \"v2-core-master/contracts/DEXV2ERC20.sol\":3140:3155  nonces[owner]++ */\n              dup1\n              sload\n              0x01\n              dup2\n              dup2\n              add\n              swap1\n              swap3\n              sstore\n                /* \"v2-core-master/contracts/DEXV2ERC20.sol\":3089:3166  abi.encode(PERMIT_TYPEHASH, owner, spender, value, nonces[owner]++, deadline) */\n              dup3\n              mload\n                /* \"v2-core-master/contracts/DEXV2ERC20.sol\":631:697  0x6e71edae12b1b97f4d1f60370fef10105fa2faae0126114a169c64845d6126c9 */\n              0x6e71edae12b1b97f4d1f60370fef10105fa2faae0126114a169c64845d6126c9\n                /* \"v2-core-master/contracts/DEXV2ERC20.sol\":3089:3166  abi.encode(PERMIT_TYPEHASH, owner, spender, value, nonces[owner]++, deadline) */\n              dup2\n              dup7\n              add\n              mstore\n              dup1\n              dup5\n              add\n              swap7\n              swap1\n              swap7\n              mstore\n              swap6\n              dup14\n              and\n              0x60\n              dup7\n              add\n              mstore\n              0x80\n              dup6\n              add\n              dup13\n              swap1\n              mstore\n              0xa0\n              dup6\n              add\n              swap6\n              swap1\n              swap6\n              mstore\n              0xc0\n              dup1\n              dup6\n              add\n              dup12\n              swap1\n              mstore\n              dup2\n              mload\n                /* \"--CODEGEN--\":26:47   */\n              dup1\n              dup7\n              sub\n                /* \"--CODEGEN--\":22:54   */\n              swap1\n              swap2\n              add\n                /* \"--CODEGEN--\":6:55   */\n              dup2\n              mstore\n                /* \"v2-core-master/contracts/DEXV2ERC20.sol\":3089:3166  abi.encode(PERMIT_TYPEHASH, owner, spender, value, nonces[owner]++, deadline) */\n              0xe0\n              dup6\n              add\n              dup3\n              mstore\n                /* \"v2-core-master/contracts/DEXV2ERC20.sol\":3079:3167  keccak256(abi.encode(PERMIT_TYPEHASH, owner, spender, value, nonces[owner]++, deadline)) */\n              dup1\n              mload\n              swap1\n              dup4\n              add\n              keccak256\n              shl(0xf0, 0x1901)\n                /* \"v2-core-master/contracts/DEXV2ERC20.sol\":2983:3181  abi.encodePacked(... */\n              0x0100\n              dup7\n              add\n              mstore\n              0x0102\n              dup6\n              add\n              swap7\n              swap1\n              swap7\n              mstore\n              0x0122\n              dup1\n              dup6\n              add\n              swap7\n              swap1\n              swap7\n              mstore\n              dup1\n              mload\n                /* \"--CODEGEN--\":26:47   */\n              dup1\n              dup6\n              sub\n                /* \"--CODEGEN--\":22:54   */\n              swap1\n              swap7\n              add\n                /* \"--CODEGEN--\":6:55   */\n              dup7\n              mstore\n                /* \"v2-core-master/contracts/DEXV2ERC20.sol\":2983:3181  abi.encodePacked(... */\n              0x0142\n              dup5\n              add\n              dup1\n              dup3\n              mstore\n                /* \"v2-core-master/contracts/DEXV2ERC20.sol\":2960:3191  keccak256(... */\n              dup7\n              mload\n              swap7\n              dup4\n              add\n              swap7\n              swap1\n              swap7\n              keccak256\n                /* \"v2-core-master/contracts/DEXV2ERC20.sol\":3228:3254  ecrecover(digest, v, r, s) */\n              swap6\n              dup4\n              swap1\n              mstore\n              0x0162\n              dup5\n              add\n              dup1\n              dup3\n              mstore\n              dup7\n              swap1\n              mstore\n              0xff\n              dup10\n              and\n              0x0182\n              dup6\n              add\n              mstore\n              0x01a2\n              dup5\n              add\n              dup9\n              swap1\n              mstore\n              0x01c2\n              dup5\n              add\n              dup8\n              swap1\n              mstore\n              mload\n                /* \"v2-core-master/contracts/DEXV2ERC20.sol\":2943:2957  bytes32 digest */\n              swap2\n              swap4\n              swap3\n                /* \"v2-core-master/contracts/DEXV2ERC20.sol\":3228:3254  ecrecover(digest, v, r, s) */\n              0x01e2\n              dup1\n              dup3\n              add\n              swap4\n              not(0x1f)\n              dup2\n              add\n              swap3\n              dup2\n              swap1\n              sub\n              swap1\n              swap2\n              add\n              swap1\n              dup6\n              gas\n              staticcall\n              iszero\n                /* \"--CODEGEN--\":8:17   */\n              dup1\n                /* \"--CODEGEN--\":5:7   */\n              iszero\n              tag_248\n              jumpi\n                /* \"--CODEGEN--\":45:61   */\n              returndatasize\n                /* \"--CODEGEN--\":42:43   */\n              0x00\n                /* \"--CODEGEN--\":39:40   */\n              dup1\n                /* \"--CODEGEN--\":24:62   */\n              returndatacopy\n                /* \"--CODEGEN--\":77:93   */\n              returndatasize\n                /* \"--CODEGEN--\":74:75   */\n              0x00\n                /* \"--CODEGEN--\":67:94   */\n              revert\n                /* \"--CODEGEN--\":5:7   */\n            tag_248:\n              pop\n              pop\n                /* \"v2-core-master/contracts/DEXV2ERC20.sol\":3228:3254  ecrecover(digest, v, r, s) */\n              mload(add(not(0x1f), mload(0x40)))\n              swap2\n              pop\n              pop\n              sub(shl(0xa0, 0x01), 0x01)\n                /* \"v2-core-master/contracts/DEXV2ERC20.sol\":3272:3302  recoveredAddress != address(0) */\n              dup2\n              and\n              iszero\n              dup1\n              iszero\n              swap1\n                /* \"v2-core-master/contracts/DEXV2ERC20.sol\":3272:3331  recoveredAddress != address(0) && recoveredAddress == owner */\n              tag_249\n              jumpi\n              pop\n              sub(shl(0xa0, 0x01), 0x01)\n                /* \"v2-core-master/contracts/DEXV2ERC20.sol\":3306:3331  recoveredAddress == owner */\n              dup2\n              dup2\n              and\n              swap1\n              dup11\n              and\n              eq\n                /* \"v2-core-master/contracts/DEXV2ERC20.sol\":3272:3331  recoveredAddress != address(0) && recoveredAddress == owner */\n            tag_249:\n                /* \"v2-core-master/contracts/DEXV2ERC20.sol\":3264:3360  require(recoveredAddress != address(0) && recoveredAddress == owner, 'DEXV2: INVALID_SIGNATURE') */\n              tag_250\n              jumpi\n              0x40\n              dup1\n              mload\n              shl(0xe5, 0x461bcd)\n              dup2\n              mstore\n              0x20\n              0x04\n              dup3\n              add\n              mstore\n              0x18\n              0x24\n              dup3\n              add\n              mstore\n              0x44455856323a20494e56414c49445f5349474e41545552450000000000000000\n              0x44\n              dup3\n              add\n              mstore\n              swap1\n              mload\n              swap1\n              dup2\n              swap1\n              sub\n              0x64\n              add\n              swap1\n              revert\n            tag_250:\n                /* \"v2-core-master/contracts/DEXV2ERC20.sol\":3370:3401  _approve(owner, spender, value) */\n              tag_251\n                /* \"v2-core-master/contracts/DEXV2ERC20.sol\":3379:3384  owner */\n              dup10\n                /* \"v2-core-master/contracts/DEXV2ERC20.sol\":3386:3393  spender */\n              dup10\n                /* \"v2-core-master/contracts/DEXV2ERC20.sol\":3395:3400  value */\n              dup10\n                /* \"v2-core-master/contracts/DEXV2ERC20.sol\":3370:3378  _approve */\n              tag_160\n                /* \"v2-core-master/contracts/DEXV2ERC20.sol\":3370:3401  _approve(owner, spender, value) */\n              jump\t// in\n            tag_251:\n                /* \"v2-core-master/contracts/DEXV2ERC20.sol\":2754:3408  function permit(address owner, address spender, uint value, uint deadline, uint8 v, bytes32 r, bytes32 s) external {... */\n              pop\n              pop\n              pop\n              pop\n              pop\n              pop\n              pop\n              pop\n              pop\n              jump\t// out\n                /* \"v2-core-master/contracts/DEXV2ERC20.sol\":380:441  mapping(address => mapping(address => uint)) public allowance */\n            tag_110:\n              0x02\n              0x20\n              swap1\n              dup2\n              mstore\n              0x00\n              swap3\n              dup4\n              mstore\n              0x40\n              dup1\n              dup5\n              keccak256\n              swap1\n              swap2\n              mstore\n              swap1\n              dup3\n              mstore\n              swap1\n              keccak256\n              sload\n              dup2\n              jump\t// out\n                /* \"v2-core-master/contracts/DEXV2Pair.sol\":9545:9701  function sync() external lock {... */\n            tag_112:\n                /* \"v2-core-master/contracts/DEXV2Pair.sol\":1153:1161  unlocked */\n              sload(0x0c)\n                /* \"v2-core-master/contracts/DEXV2Pair.sol\":1165:1166  1 */\n              0x01\n                /* \"v2-core-master/contracts/DEXV2Pair.sol\":1153:1166  unlocked == 1 */\n              eq\n                /* \"v2-core-master/contracts/DEXV2Pair.sol\":1145:1184  require(unlocked == 1, 'DEXV2: LOCKED') */\n              tag_253\n              jumpi\n              0x40\n              dup1\n              mload\n              shl(0xe5, 0x461bcd)\n              dup2\n              mstore\n              0x20\n              0x04\n              dup3\n              add\n              mstore\n              0x0d\n              0x24\n              dup3\n              add\n              mstore\n              shl(0x9a, 0x111156158c8e881313d0d2d151)\n              0x44\n              dup3\n              add\n              mstore\n              swap1\n              mload\n              swap1\n              dup2\n              swap1\n              sub\n              0x64\n              add\n              swap1\n              revert\n            tag_253:\n                /* \"v2-core-master/contracts/DEXV2Pair.sol\":1205:1206  0 */\n              0x00\n                /* \"v2-core-master/contracts/DEXV2Pair.sol\":1194:1202  unlocked */\n              0x0c\n                /* \"v2-core-master/contracts/DEXV2Pair.sol\":1194:1206  unlocked = 0 */\n              sstore\n                /* \"v2-core-master/contracts/DEXV2Pair.sol\":9600:9606  token0 */\n              sload(0x06)\n                /* \"v2-core-master/contracts/DEXV2Pair.sol\":9593:9632  IERC20(token0).balanceOf(address(this)) */\n              0x40\n              dup1\n              mload\n              shl(0xe0, 0x70a08231)\n              dup2\n              mstore\n                /* \"v2-core-master/contracts/DEXV2Pair.sol\":9626:9630  this */\n              address\n                /* \"v2-core-master/contracts/DEXV2Pair.sol\":9593:9632  IERC20(token0).balanceOf(address(this)) */\n              0x04\n              dup3\n              add\n              mstore\n              swap1\n              mload\n                /* \"v2-core-master/contracts/DEXV2Pair.sol\":9585:9694  _update(IERC20(token0).balanceOf(address(this)), IERC20(token1).balanceOf(address(this)), reserve0, reserve1) */\n              tag_255\n              swap3\n              sub(shl(0xa0, 0x01), 0x01)\n                /* \"v2-core-master/contracts/DEXV2Pair.sol\":9600:9606  token0 */\n              and\n              swap2\n              0x70a08231\n              swap2\n                /* \"v2-core-master/contracts/DEXV2Pair.sol\":9593:9632  IERC20(token0).balanceOf(address(this)) */\n              0x24\n              dup1\n              dup4\n              add\n              swap3\n              0x20\n              swap3\n              swap2\n              swap1\n              dup3\n              swap1\n              sub\n              add\n              dup2\n                /* \"v2-core-master/contracts/DEXV2Pair.sol\":9600:9606  token0 */\n              dup7\n                /* \"v2-core-master/contracts/DEXV2Pair.sol\":9593:9632  IERC20(token0).balanceOf(address(this)) */\n              dup1\n              extcodesize\n              iszero\n                /* \"--CODEGEN--\":5:7   */\n              dup1\n              iszero\n              tag_256\n              jumpi\n                /* \"--CODEGEN--\":30:31   */\n              0x00\n                /* \"--CODEGEN--\":27:28   */\n              dup1\n                /* \"--CODEGEN--\":20:32   */\n              revert\n                /* \"--CODEGEN--\":5:7   */\n            tag_256:\n                /* \"v2-core-master/contracts/DEXV2Pair.sol\":9593:9632  IERC20(token0).balanceOf(address(this)) */\n              pop\n              gas\n              staticcall\n              iszero\n                /* \"--CODEGEN--\":8:17   */\n              dup1\n                /* \"--CODEGEN--\":5:7   */\n              iszero\n              tag_257\n              jumpi\n                /* \"--CODEGEN--\":45:61   */\n              returndatasize\n                /* \"--CODEGEN--\":42:43   */\n              0x00\n                /* \"--CODEGEN--\":39:40   */\n              dup1\n                /* \"--CODEGEN--\":24:62   */\n              returndatacopy\n                /* \"--CODEGEN--\":77:93   */\n              returndatasize\n                /* \"--CODEGEN--\":74:75   */\n              0x00\n                /* \"--CODEGEN--\":67:94   */\n              revert\n                /* \"--CODEGEN--\":5:7   */\n            tag_257:\n                /* \"v2-core-master/contracts/DEXV2Pair.sol\":9593:9632  IERC20(token0).balanceOf(address(this)) */\n              pop\n              pop\n              pop\n              pop\n              mload(0x40)\n              returndatasize\n                /* \"--CODEGEN--\":13:15   */\n              0x20\n                /* \"--CODEGEN--\":8:11   */\n              dup2\n                /* \"--CODEGEN--\":5:16   */\n              lt\n                /* \"--CODEGEN--\":2:4   */\n              iszero\n              tag_258\n              jumpi\n                /* \"--CODEGEN--\":29:30   */\n              0x00\n                /* \"--CODEGEN--\":26:27   */\n              dup1\n                /* \"--CODEGEN--\":19:31   */\n              revert\n                /* \"--CODEGEN--\":2:4   */\n            tag_258:\n              pop\n                /* \"v2-core-master/contracts/DEXV2Pair.sol\":9593:9632  IERC20(token0).balanceOf(address(this)) */\n              mload\n                /* \"v2-core-master/contracts/DEXV2Pair.sol\":9641:9647  token1 */\n              sload(0x07)\n                /* \"v2-core-master/contracts/DEXV2Pair.sol\":9634:9673  IERC20(token1).balanceOf(address(this)) */\n              0x40\n              dup1\n              mload\n              shl(0xe0, 0x70a08231)\n              dup2\n              mstore\n                /* \"v2-core-master/contracts/DEXV2Pair.sol\":9667:9671  this */\n              address\n                /* \"v2-core-master/contracts/DEXV2Pair.sol\":9634:9673  IERC20(token1).balanceOf(address(this)) */\n              0x04\n              dup3\n              add\n              mstore\n              swap1\n              mload\n              sub(shl(0xa0, 0x01), 0x01)\n                /* \"v2-core-master/contracts/DEXV2Pair.sol\":9641:9647  token1 */\n              swap1\n              swap3\n              and\n              swap2\n              0x70a08231\n              swap2\n                /* \"v2-core-master/contracts/DEXV2Pair.sol\":9634:9673  IERC20(token1).balanceOf(address(this)) */\n              0x24\n              dup1\n              dup3\n              add\n              swap3\n                /* \"v2-core-master/contracts/DEXV2Pair.sol\":9593:9632  IERC20(token0).balanceOf(address(this)) */\n              0x20\n              swap3\n                /* \"v2-core-master/contracts/DEXV2Pair.sol\":9634:9673  IERC20(token1).balanceOf(address(this)) */\n              swap1\n              swap2\n              swap1\n              dup3\n              swap1\n              sub\n              add\n              dup2\n                /* \"v2-core-master/contracts/DEXV2Pair.sol\":9641:9647  token1 */\n              dup7\n                /* \"v2-core-master/contracts/DEXV2Pair.sol\":9634:9673  IERC20(token1).balanceOf(address(this)) */\n              dup1\n              extcodesize\n              iszero\n                /* \"--CODEGEN--\":5:7   */\n              dup1\n              iszero\n              tag_259\n              jumpi\n                /* \"--CODEGEN--\":30:31   */\n              0x00\n                /* \"--CODEGEN--\":27:28   */\n              dup1\n                /* \"--CODEGEN--\":20:32   */\n              revert\n                /* \"--CODEGEN--\":5:7   */\n            tag_259:\n                /* \"v2-core-master/contracts/DEXV2Pair.sol\":9634:9673  IERC20(token1).balanceOf(address(this)) */\n              pop\n              gas\n              staticcall\n              iszero\n                /* \"--CODEGEN--\":8:17   */\n              dup1\n                /* \"--CODEGEN--\":5:7   */\n              iszero\n              tag_260\n              jumpi\n                /* \"--CODEGEN--\":45:61   */\n              returndatasize\n                /* \"--CODEGEN--\":42:43   */\n              0x00\n                /* \"--CODEGEN--\":39:40   */\n              dup1\n                /* \"--CODEGEN--\":24:62   */\n              returndatacopy\n                /* \"--CODEGEN--\":77:93   */\n              returndatasize\n                /* \"--CODEGEN--\":74:75   */\n              0x00\n                /* \"--CODEGEN--\":67:94   */\n              revert\n                /* \"--CODEGEN--\":5:7   */\n            tag_260:\n                /* \"v2-core-master/contracts/DEXV2Pair.sol\":9634:9673  IERC20(token1).balanceOf(address(this)) */\n              pop\n              pop\n              pop\n              pop\n              mload(0x40)\n              returndatasize\n                /* \"--CODEGEN--\":13:15   */\n              0x20\n                /* \"--CODEGEN--\":8:11   */\n              dup2\n                /* \"--CODEGEN--\":5:16   */\n              lt\n                /* \"--CODEGEN--\":2:4   */\n              iszero\n              tag_261\n              jumpi\n                /* \"--CODEGEN--\":29:30   */\n              0x00\n                /* \"--CODEGEN--\":26:27   */\n              dup1\n                /* \"--CODEGEN--\":19:31   */\n              revert\n                /* \"--CODEGEN--\":2:4   */\n            tag_261:\n              pop\n                /* \"v2-core-master/contracts/DEXV2Pair.sol\":9634:9673  IERC20(token1).balanceOf(address(this)) */\n              mload\n                /* \"v2-core-master/contracts/DEXV2Pair.sol\":9675:9683  reserve0 */\n              sload(0x08)\n              sub(shl(0x70, 0x01), 0x01)\n              dup1\n              dup3\n              and\n              swap2\n              shl(0x70, 0x01)\n                /* \"v2-core-master/contracts/DEXV2Pair.sol\":9685:9693  reserve1 */\n              swap1\n              div\n              and\n                /* \"v2-core-master/contracts/DEXV2Pair.sol\":9585:9592  _update */\n              tag_156\n                /* \"v2-core-master/contracts/DEXV2Pair.sol\":9585:9694  _update(IERC20(token0).balanceOf(address(this)), IERC20(token1).balanceOf(address(this)), reserve0, reserve1) */\n              jump\t// in\n            tag_255:\n                /* \"v2-core-master/contracts/DEXV2Pair.sol\":1238:1239  1 */\n              0x01\n                /* \"v2-core-master/contracts/DEXV2Pair.sol\":1227:1235  unlocked */\n              0x0c\n                /* \"v2-core-master/contracts/DEXV2Pair.sol\":1227:1239  unlocked = 1 */\n              sstore\n                /* \"v2-core-master/contracts/DEXV2Pair.sol\":9545:9701  function sync() external lock {... */\n              jump\t// out\n                /* \"v2-core-master/contracts/DEXV2Pair.sol\":1485:1765  function _safeTransfer(address token, address to, uint value) private {... */\n            tag_125:\n                /* \"v2-core-master/contracts/DEXV2Pair.sol\":493:527  bytes('transfer(address,uint256)') */\n              0x40\n              dup1\n              mload\n              dup1\n              dup3\n              add\n              dup3\n              mstore\n              0x19\n              dup2\n              mstore\n              0x7472616e7366657228616464726573732c75696e743235362900000000000000\n              0x20\n              swap2\n              dup3\n              add\n              mstore\n                /* \"v2-core-master/contracts/DEXV2Pair.sol\":1612:1655  abi.encodeWithSelector(SELECTOR, to, value) */\n              dup2\n              mload\n              sub(shl(0xa0, 0x01), 0x01)\n              dup6\n              dup2\n              and\n              0x24\n              dup4\n              add\n              mstore\n              0x44\n              dup1\n              dup4\n              add\n              dup7\n              swap1\n              mstore\n              dup5\n              mload\n                /* \"--CODEGEN--\":26:47   */\n              dup1\n              dup5\n              sub\n                /* \"--CODEGEN--\":22:54   */\n              swap1\n              swap2\n              add\n                /* \"--CODEGEN--\":6:55   */\n              dup2\n              mstore\n                /* \"v2-core-master/contracts/DEXV2Pair.sol\":1612:1655  abi.encodeWithSelector(SELECTOR, to, value) */\n              0x64\n              swap1\n              swap3\n              add\n              dup5\n              mstore\n                /* \"--CODEGEN--\":25:43   */\n              swap2\n              dup2\n              add\n                /* \"--CODEGEN--\":61:78   */\n              dup1\n              mload\n              sub(shl(0xe0, 0x01), 0x01)\n                /* \"--CODEGEN--\":182:197   */\n              and\n              shl(0xe0, 0xa9059cbb)\n                /* \"--CODEGEN--\":179:208   */\n              or\n                /* \"--CODEGEN--\":160:209   */\n              dup2\n              mstore\n                /* \"v2-core-master/contracts/DEXV2Pair.sol\":1601:1656  token.call(abi.encodeWithSelector(SELECTOR, to, value)) */\n              swap3\n              mload\n              dup2\n              mload\n              0x00\n              swap5\n                /* \"v2-core-master/contracts/DEXV2Pair.sol\":1580:1597  bytes memory data */\n              0x60\n              swap5\n                /* \"v2-core-master/contracts/DEXV2Pair.sol\":1601:1611  token.call */\n              dup10\n              and\n              swap4\n                /* \"v2-core-master/contracts/DEXV2Pair.sol\":1612:1655  abi.encodeWithSelector(SELECTOR, to, value) */\n              swap3\n                /* \"v2-core-master/contracts/DEXV2Pair.sol\":1601:1656  token.call(abi.encodeWithSelector(SELECTOR, to, value)) */\n              swap2\n              dup3\n              swap2\n                /* \"--CODEGEN--\":25:43   */\n              swap1\n                /* \"v2-core-master/contracts/DEXV2Pair.sol\":1601:1656  token.call(abi.encodeWithSelector(SELECTOR, to, value)) */\n              dup1\n              dup4\n                /* \"--CODEGEN--\":25:43   */\n              dup4\n                /* \"--CODEGEN--\":36:189   */\n            tag_263:\n                /* \"--CODEGEN--\":66:68   */\n              0x20\n                /* \"--CODEGEN--\":61:64   */\n              dup4\n                /* \"--CODEGEN--\":58:69   */\n              lt\n                /* \"--CODEGEN--\":36:189   */\n              tag_265\n              jumpi\n                /* \"--CODEGEN--\":176:186   */\n              dup1\n              mload\n                /* \"--CODEGEN--\":164:187   */\n              dup3\n              mstore\n              not(0x1f)\n                /* \"--CODEGEN--\":139:151   */\n              swap1\n              swap3\n              add\n              swap2\n                /* \"--CODEGEN--\":98:100   */\n              0x20\n                /* \"--CODEGEN--\":89:101   */\n              swap2\n              dup3\n              add\n              swap2\n                /* \"--CODEGEN--\":114:126   */\n              add\n                /* \"--CODEGEN--\":36:189   */\n              jump(tag_263)\n            tag_265:\n                /* \"--CODEGEN--\":274:275   */\n              0x01\n                /* \"--CODEGEN--\":267:270   */\n              dup4\n                /* \"--CODEGEN--\":263:265   */\n              0x20\n                /* \"--CODEGEN--\":259:271   */\n              sub\n                /* \"--CODEGEN--\":254:257   */\n              0x0100\n                /* \"--CODEGEN--\":250:272   */\n              exp\n                /* \"--CODEGEN--\":246:276   */\n              sub\n                /* \"--CODEGEN--\":315:319   */\n              dup1\n                /* \"--CODEGEN--\":311:320   */\n              not\n                /* \"--CODEGEN--\":305:308   */\n              dup3\n                /* \"--CODEGEN--\":299:309   */\n              mload\n                /* \"--CODEGEN--\":295:321   */\n              and\n                /* \"--CODEGEN--\":356:360   */\n              dup2\n                /* \"--CODEGEN--\":350:353   */\n              dup5\n                /* \"--CODEGEN--\":344:354   */\n              mload\n                /* \"--CODEGEN--\":340:361   */\n              and\n                /* \"--CODEGEN--\":389:396   */\n              dup1\n                /* \"--CODEGEN--\":380:387   */\n              dup3\n                /* \"--CODEGEN--\":377:397   */\n              or\n                /* \"--CODEGEN--\":372:375   */\n              dup6\n                /* \"--CODEGEN--\":365:398   */\n              mstore\n                /* \"--CODEGEN--\":3:402   */\n              pop\n              pop\n              pop\n                /* \"v2-core-master/contracts/DEXV2Pair.sol\":1601:1656  token.call(abi.encodeWithSelector(SELECTOR, to, value)) */\n              pop\n              pop\n              pop\n              swap1\n              pop\n              add\n              swap2\n              pop\n              pop\n              0x00\n              mload(0x40)\n              dup1\n              dup4\n              sub\n              dup2\n              0x00\n              dup7\n              gas\n              call\n              swap2\n              pop\n              pop\n              returndatasize\n                /* \"--CODEGEN--\":14:15   */\n              dup1\n                /* \"--CODEGEN--\":21:22   */\n              0x00\n                /* \"--CODEGEN--\":16:47   */\n              dup2\n              eq\n              tag_267\n              jumpi\n                /* \"--CODEGEN--\":75:79   */\n              0x40\n                /* \"--CODEGEN--\":69:80   */\n              mload\n                /* \"--CODEGEN--\":64:80   */\n              swap2\n              pop\n                /* \"--CODEGEN--\":144:148   */\n              0x1f\n                /* \"--CODEGEN--\":140:149   */\n              not\n                /* \"--CODEGEN--\":133:137   */\n              0x3f\n                /* \"--CODEGEN--\":115:131   */\n              returndatasize\n                /* \"--CODEGEN--\":111:138   */\n              add\n                /* \"--CODEGEN--\":107:150   */\n              and\n                /* \"--CODEGEN--\":104:105   */\n              dup3\n                /* \"--CODEGEN--\":100:151   */\n              add\n                /* \"--CODEGEN--\":94:98   */\n              0x40\n                /* \"--CODEGEN--\":87:152   */\n              mstore\n                /* \"--CODEGEN--\":169:185   */\n              returndatasize\n                /* \"--CODEGEN--\":166:167   */\n              dup3\n                /* \"--CODEGEN--\":159:186   */\n              mstore\n                /* \"--CODEGEN--\":225:241   */\n              returndatasize\n                /* \"--CODEGEN--\":222:223   */\n              0x00\n                /* \"--CODEGEN--\":215:219   */\n              0x20\n                /* \"--CODEGEN--\":212:213   */\n              dup5\n                /* \"--CODEGEN--\":208:220   */\n              add\n                /* \"--CODEGEN--\":193:242   */\n              returndatacopy\n                /* \"--CODEGEN--\":7:249   */\n              jump(tag_266)\n                /* \"--CODEGEN--\":16:47   */\n            tag_267:\n                /* \"--CODEGEN--\":36:40   */\n              0x60\n                /* \"--CODEGEN--\":31:40   */\n              swap2\n              pop\n                /* \"--CODEGEN--\":7:249   */\n            tag_266:\n              pop\n                /* \"v2-core-master/contracts/DEXV2Pair.sol\":1565:1656  (bool success, bytes memory data) = token.call(abi.encodeWithSelector(SELECTOR, to, value)) */\n              swap2\n              pop\n              swap2\n              pop\n                /* \"v2-core-master/contracts/DEXV2Pair.sol\":1674:1681  success */\n              dup2\n                /* \"v2-core-master/contracts/DEXV2Pair.sol\":1674:1731  success && (data.length == 0 || abi.decode(data, (bool))) */\n              dup1\n              iszero\n              tag_269\n              jumpi\n              pop\n                /* \"v2-core-master/contracts/DEXV2Pair.sol\":1686:1697  data.length */\n              dup1\n              mload\n                /* \"v2-core-master/contracts/DEXV2Pair.sol\":1686:1702  data.length == 0 */\n              iszero\n              dup1\n                /* \"v2-core-master/contracts/DEXV2Pair.sol\":1686:1730  data.length == 0 || abi.decode(data, (bool)) */\n              tag_269\n              jumpi\n              pop\n                /* \"v2-core-master/contracts/DEXV2Pair.sol\":1717:1721  data */\n              dup1\n                /* \"v2-core-master/contracts/DEXV2Pair.sol\":1706:1730  abi.decode(data, (bool)) */\n              dup1\n              0x20\n              add\n              swap1\n              mload\n                /* \"--CODEGEN--\":13:15   */\n              0x20\n                /* \"--CODEGEN--\":8:11   */\n              dup2\n                /* \"--CODEGEN--\":5:16   */\n              lt\n                /* \"--CODEGEN--\":2:4   */\n              iszero\n              tag_270\n              jumpi\n                /* \"--CODEGEN--\":29:30   */\n              0x00\n                /* \"--CODEGEN--\":26:27   */\n              dup1\n                /* \"--CODEGEN--\":19:31   */\n              revert\n                /* \"--CODEGEN--\":2:4   */\n            tag_270:\n              pop\n                /* \"v2-core-master/contracts/DEXV2Pair.sol\":1706:1730  abi.decode(data, (bool)) */\n              mload\n                /* \"v2-core-master/contracts/DEXV2Pair.sol\":1686:1730  data.length == 0 || abi.decode(data, (bool)) */\n            tag_269:\n                /* \"v2-core-master/contracts/DEXV2Pair.sol\":1666:1758  require(success && (data.length == 0 || abi.decode(data, (bool))), 'DEXV2: TRANSFER_FAILED') */\n              tag_271\n              jumpi\n              0x40\n              dup1\n              mload\n              shl(0xe5, 0x461bcd)\n              dup2\n              mstore\n              0x20\n              0x04\n              dup3\n              add\n              mstore\n              0x16\n              0x24\n              dup3\n              add\n              mstore\n              shl(0x52, 0x111156158c8e881514905394d1915497d19052531151)\n              0x44\n              dup3\n              add\n              mstore\n              swap1\n              mload\n              swap1\n              dup2\n              swap1\n              sub\n              0x64\n              add\n              swap1\n              revert\n            tag_271:\n                /* \"v2-core-master/contracts/DEXV2Pair.sol\":1485:1765  function _safeTransfer(address token, address to, uint value) private {... */\n              pop\n              pop\n              pop\n              pop\n              pop\n              jump\t// out\n                /* \"v2-core-master/contracts/libraries/SafeMath.sol\":420:560  function mul(uint x, uint y) internal pure returns (uint z) {... */\n            tag_145:\n                /* \"v2-core-master/contracts/libraries/SafeMath.sol\":472:478  uint z */\n              0x00\n                /* \"v2-core-master/contracts/libraries/SafeMath.sol\":498:504  y == 0 */\n              dup2\n              iszero\n              dup1\n                /* \"v2-core-master/contracts/libraries/SafeMath.sol\":498:528  y == 0 || (z = x * y) / y == x */\n              tag_273\n              jumpi\n              pop\n              pop\n                /* \"v2-core-master/contracts/libraries/SafeMath.sol\":513:518  x * y */\n              dup1\n              dup3\n              mul\n                /* \"v2-core-master/contracts/libraries/SafeMath.sol\":527:528  x */\n              dup3\n                /* \"v2-core-master/contracts/libraries/SafeMath.sol\":522:523  y */\n              dup3\n                /* \"v2-core-master/contracts/libraries/SafeMath.sol\":513:518  x * y */\n              dup3\n                /* \"v2-core-master/contracts/libraries/SafeMath.sol\":522:523  y */\n              dup2\n                /* \"v2-core-master/contracts/libraries/SafeMath.sol\":508:523  (z = x * y) / y */\n              tag_274\n              jumpi\n              invalid\n            tag_274:\n              div\n                /* \"v2-core-master/contracts/libraries/SafeMath.sol\":508:528  (z = x * y) / y == x */\n              eq\n                /* \"v2-core-master/contracts/libraries/SafeMath.sol\":498:528  y == 0 || (z = x * y) / y == x */\n            tag_273:\n                /* \"v2-core-master/contracts/libraries/SafeMath.sol\":490:553  require(y == 0 || (z = x * y) / y == x, 'ds-math-mul-overflow') */\n              tag_158\n              jumpi\n              0x40\n              dup1\n              mload\n              shl(0xe5, 0x461bcd)\n              dup2\n              mstore\n              0x20\n              0x04\n              dup3\n              add\n              mstore\n              0x14\n              0x24\n              dup3\n              add\n              mstore\n              shl(0x60, 0x64732d6d6174682d6d756c2d6f766572666c6f77)\n              0x44\n              dup3\n              add\n              mstore\n              swap1\n              mload\n              swap1\n              dup2\n              swap1\n              sub\n              0x64\n              add\n              swap1\n              revert\n                /* \"v2-core-master/contracts/libraries/SafeMath.sol\":287:414  function sub(uint x, uint y) internal pure returns (uint z) {... */\n            tag_147:\n                /* \"v2-core-master/contracts/libraries/SafeMath.sol\":370:375  x - y */\n              dup1\n              dup3\n              sub\n                /* \"v2-core-master/contracts/libraries/SafeMath.sol\":365:381  (z = x - y) <= x */\n              dup3\n              dup2\n              gt\n              iszero\n                /* \"v2-core-master/contracts/libraries/SafeMath.sol\":357:407  require((z = x - y) <= x, 'ds-math-sub-underflow') */\n              tag_158\n              jumpi\n              0x40\n              dup1\n              mload\n              shl(0xe5, 0x461bcd)\n              dup2\n              mstore\n              0x20\n              0x04\n              dup3\n              add\n              mstore\n              0x15\n              0x24\n              dup3\n              add\n              mstore\n              shl(0x58, 0x64732d6d6174682d7375622d756e646572666c6f77)\n              0x44\n              dup3\n              add\n              mstore\n              swap1\n              mload\n              swap1\n              dup2\n              swap1\n              sub\n              0x64\n              add\n              swap1\n              revert\n                /* \"v2-core-master/contracts/DEXV2Pair.sol\":2564:3407  function _update(uint balance0, uint balance1, uint112 _reserve0, uint112 _reserve1) private {... */\n            tag_156:\n              sub(shl(0x70, 0x01), 0x01)\n                /* \"v2-core-master/contracts/DEXV2Pair.sol\":2675:2698  balance0 <= uint112(-1) */\n              dup5\n              gt\n              dup1\n              iszero\n              swap1\n                /* \"v2-core-master/contracts/DEXV2Pair.sol\":2675:2725  balance0 <= uint112(-1) && balance1 <= uint112(-1) */\n              tag_279\n              jumpi\n              pop\n              sub(shl(0x70, 0x01), 0x01)\n                /* \"v2-core-master/contracts/DEXV2Pair.sol\":2702:2725  balance1 <= uint112(-1) */\n              dup4\n              gt\n              iszero\n                /* \"v2-core-master/contracts/DEXV2Pair.sol\":2675:2725  balance0 <= uint112(-1) && balance1 <= uint112(-1) */\n            tag_279:\n                /* \"v2-core-master/contracts/DEXV2Pair.sol\":2667:2745  require(balance0 <= uint112(-1) && balance1 <= uint112(-1), 'DEXV2: OVERFLOW') */\n              tag_280\n              jumpi\n              0x40\n              dup1\n              mload\n              shl(0xe5, 0x461bcd)\n              dup2\n              mstore\n              0x20\n              0x04\n              dup3\n              add\n              mstore\n              0x0f\n              0x24\n              dup3\n              add\n              mstore\n              shl(0x88, 0x44455856323a204f564552464c4f57)\n              0x44\n              dup3\n              add\n              mstore\n              swap1\n              mload\n              swap1\n              dup2\n              swap1\n              sub\n              0x64\n              add\n              swap1\n              revert\n            tag_280:\n                /* \"v2-core-master/contracts/DEXV2Pair.sol\":2858:2876  blockTimestampLast */\n              sload(0x08)\n                /* \"v2-core-master/contracts/DEXV2Pair.sol\":2786:2809  block.timestamp % 2**32 */\n              0xffffffff\n                /* \"v2-core-master/contracts/DEXV2Pair.sol\":2786:2801  block.timestamp */\n              timestamp\n                /* \"v2-core-master/contracts/DEXV2Pair.sol\":2786:2809  block.timestamp % 2**32 */\n              dup2\n              and\n              swap2\n              shl(0xe0, 0x01)\n                /* \"v2-core-master/contracts/DEXV2Pair.sol\":2858:2876  blockTimestampLast */\n              swap1\n              div\n              dup2\n              and\n                /* \"v2-core-master/contracts/DEXV2Pair.sol\":2841:2876  blockTimestamp - blockTimestampLast */\n              dup3\n              sub\n              swap1\n                /* \"v2-core-master/contracts/DEXV2Pair.sol\":2913:2928  timeElapsed > 0 */\n              dup2\n              and\n              iszero\n              dup1\n              iszero\n              swap1\n                /* \"v2-core-master/contracts/DEXV2Pair.sol\":2913:2946  timeElapsed > 0 && _reserve0 != 0 */\n              tag_282\n              jumpi\n              pop\n              sub(shl(0x70, 0x01), 0x01)\n                /* \"v2-core-master/contracts/DEXV2Pair.sol\":2932:2946  _reserve0 != 0 */\n              dup5\n              and\n              iszero\n              iszero\n                /* \"v2-core-master/contracts/DEXV2Pair.sol\":2913:2946  timeElapsed > 0 && _reserve0 != 0 */\n            tag_282:\n                /* \"v2-core-master/contracts/DEXV2Pair.sol\":2913:2964  timeElapsed > 0 && _reserve0 != 0 && _reserve1 != 0 */\n              dup1\n              iszero\n              tag_283\n              jumpi\n              pop\n              sub(shl(0x70, 0x01), 0x01)\n                /* \"v2-core-master/contracts/DEXV2Pair.sol\":2950:2964  _reserve1 != 0 */\n              dup4\n              and\n              iszero\n              iszero\n                /* \"v2-core-master/contracts/DEXV2Pair.sol\":2913:2964  timeElapsed > 0 && _reserve0 != 0 && _reserve1 != 0 */\n            tag_283:\n                /* \"v2-core-master/contracts/DEXV2Pair.sol\":2909:3241  if (timeElapsed > 0 && _reserve0 != 0 && _reserve1 != 0) {... */\n              iszero\n              tag_284\n              jumpi\n                /* \"v2-core-master/contracts/DEXV2Pair.sol\":3117:3128  timeElapsed */\n              dup1\n                /* \"v2-core-master/contracts/DEXV2Pair.sol\":3064:3128  uint(UQ112x112.encode(_reserve1).uqdiv(_reserve0)) * timeElapsed */\n              0xffffffff\n              and\n                /* \"v2-core-master/contracts/DEXV2Pair.sol\":3069:3113  UQ112x112.encode(_reserve1).uqdiv(_reserve0) */\n              tag_285\n                /* \"v2-core-master/contracts/DEXV2Pair.sol\":3103:3112  _reserve0 */\n              dup6\n                /* \"v2-core-master/contracts/DEXV2Pair.sol\":3069:3096  UQ112x112.encode(_reserve1) */\n              tag_286\n                /* \"v2-core-master/contracts/DEXV2Pair.sol\":3086:3095  _reserve1 */\n              dup7\n                /* \"v2-core-master/contracts/DEXV2Pair.sol\":3069:3085  UQ112x112.encode */\n              tag_287\n                /* \"v2-core-master/contracts/DEXV2Pair.sol\":3069:3096  UQ112x112.encode(_reserve1) */\n              jump\t// in\n            tag_286:\n              sub(shl(0xe0, 0x01), 0x01)\n                /* \"v2-core-master/contracts/DEXV2Pair.sol\":3069:3102  UQ112x112.encode(_reserve1).uqdiv */\n              and\n              swap1\n              tag_288\n                /* \"v2-core-master/contracts/DEXV2Pair.sol\":3069:3113  UQ112x112.encode(_reserve1).uqdiv(_reserve0) */\n              jump\t// in\n            tag_285:\n                /* \"v2-core-master/contracts/DEXV2Pair.sol\":3040:3060  price0CumulativeLast */\n              0x09\n                /* \"v2-core-master/contracts/DEXV2Pair.sol\":3040:3128  price0CumulativeLast += uint(UQ112x112.encode(_reserve1).uqdiv(_reserve0)) * timeElapsed */\n              dup1\n              sload\n              sub(shl(0xe0, 0x01), 0x01)\n                /* \"v2-core-master/contracts/DEXV2Pair.sol\":3064:3114  uint(UQ112x112.encode(_reserve1).uqdiv(_reserve0)) */\n              swap3\n              swap1\n              swap3\n              and\n                /* \"v2-core-master/contracts/DEXV2Pair.sol\":3064:3128  uint(UQ112x112.encode(_reserve1).uqdiv(_reserve0)) * timeElapsed */\n              swap3\n              swap1\n              swap3\n              mul\n                /* \"v2-core-master/contracts/DEXV2Pair.sol\":3040:3128  price0CumulativeLast += uint(UQ112x112.encode(_reserve1).uqdiv(_reserve0)) * timeElapsed */\n              add\n              swap1\n              sstore\n                /* \"v2-core-master/contracts/DEXV2Pair.sol\":3166:3230  uint(UQ112x112.encode(_reserve0).uqdiv(_reserve1)) * timeElapsed */\n              0xffffffff\n              dup2\n              and\n                /* \"v2-core-master/contracts/DEXV2Pair.sol\":3171:3215  UQ112x112.encode(_reserve0).uqdiv(_reserve1) */\n              tag_289\n                /* \"v2-core-master/contracts/DEXV2Pair.sol\":3205:3214  _reserve1 */\n              dup5\n                /* \"v2-core-master/contracts/DEXV2Pair.sol\":3171:3198  UQ112x112.encode(_reserve0) */\n              tag_286\n                /* \"v2-core-master/contracts/DEXV2Pair.sol\":3188:3197  _reserve0 */\n              dup8\n                /* \"v2-core-master/contracts/DEXV2Pair.sol\":3171:3187  UQ112x112.encode */\n              tag_287\n                /* \"v2-core-master/contracts/DEXV2Pair.sol\":3171:3198  UQ112x112.encode(_reserve0) */\n              jump\t// in\n                /* \"v2-core-master/contracts/DEXV2Pair.sol\":3171:3215  UQ112x112.encode(_reserve0).uqdiv(_reserve1) */\n            tag_289:\n                /* \"v2-core-master/contracts/DEXV2Pair.sol\":3142:3162  price1CumulativeLast */\n              0x0a\n                /* \"v2-core-master/contracts/DEXV2Pair.sol\":3142:3230  price1CumulativeLast += uint(UQ112x112.encode(_reserve0).uqdiv(_reserve1)) * timeElapsed */\n              dup1\n              sload\n              sub(shl(0xe0, 0x01), 0x01)\n                /* \"v2-core-master/contracts/DEXV2Pair.sol\":3166:3216  uint(UQ112x112.encode(_reserve0).uqdiv(_reserve1)) */\n              swap3\n              swap1\n              swap3\n              and\n                /* \"v2-core-master/contracts/DEXV2Pair.sol\":3166:3230  uint(UQ112x112.encode(_reserve0).uqdiv(_reserve1)) * timeElapsed */\n              swap3\n              swap1\n              swap3\n              mul\n                /* \"v2-core-master/contracts/DEXV2Pair.sol\":3142:3230  price1CumulativeLast += uint(UQ112x112.encode(_reserve0).uqdiv(_reserve1)) * timeElapsed */\n              add\n              swap1\n              sstore\n                /* \"v2-core-master/contracts/DEXV2Pair.sol\":2909:3241  if (timeElapsed > 0 && _reserve0 != 0 && _reserve1 != 0) {... */\n            tag_284:\n                /* \"v2-core-master/contracts/DEXV2Pair.sol\":3250:3258  reserve0 */\n              0x08\n                /* \"v2-core-master/contracts/DEXV2Pair.sol\":3250:3278  reserve0 = uint112(balance0) */\n              dup1\n              sload\n              not(0xffffffffffffffffffffffffffff)\n              and\n              sub(shl(0x70, 0x01), 0x01)\n              dup9\n              dup2\n              and\n              swap2\n              swap1\n              swap2\n              or\n              not(shl(0x70, 0xffffffffffffffffffffffffffff))\n                /* \"v2-core-master/contracts/DEXV2Pair.sol\":3288:3316  reserve1 = uint112(balance1) */\n              and\n              shl(0x70, 0x01)\n              dup9\n              dup4\n              and\n              dup2\n              mul\n              swap2\n              swap1\n              swap2\n              or\n              sub(shl(0xe0, 0x01), 0x01)\n                /* \"v2-core-master/contracts/DEXV2Pair.sol\":3326:3361  blockTimestampLast = blockTimestamp */\n              and\n              shl(0xe0, 0x01)\n              0xffffffff\n              dup8\n              and\n              mul\n              or\n              swap3\n              dup4\n              swap1\n              sstore\n                /* \"v2-core-master/contracts/DEXV2Pair.sol\":3376:3400  Sync(reserve0, reserve1) */\n              0x40\n              dup1\n              mload\n                /* \"v2-core-master/contracts/DEXV2Pair.sol\":3381:3389  reserve0 */\n              dup5\n              dup5\n              and\n                /* \"v2-core-master/contracts/DEXV2Pair.sol\":3376:3400  Sync(reserve0, reserve1) */\n              dup2\n              mstore\n                /* \"v2-core-master/contracts/DEXV2Pair.sol\":3391:3399  reserve1 */\n              swap2\n              swap1\n              swap4\n              div\n              swap1\n              swap2\n              and\n                /* \"v2-core-master/contracts/DEXV2Pair.sol\":3376:3400  Sync(reserve0, reserve1) */\n              0x20\n              dup3\n              add\n              mstore\n              dup2\n              mload\n              0x1c411e9a96e071241c2f21f7726b17ae89e3cab4c78be50e062b03a9fffbbad1\n              swap3\n              swap2\n              dup2\n              swap1\n              sub\n              swap1\n              swap2\n              add\n              swap1\n              log1\n                /* \"v2-core-master/contracts/DEXV2Pair.sol\":2564:3407  function _update(uint balance0, uint balance1, uint112 _reserve0, uint112 _reserve1) private {... */\n              pop\n              pop\n              pop\n              pop\n              pop\n              pop\n              jump\t// out\n                /* \"v2-core-master/contracts/DEXV2ERC20.sol\":1767:1933  function _approve(address owner, address spender, uint value) private {... */\n            tag_160:\n              sub(shl(0xa0, 0x01), 0x01)\n                /* \"v2-core-master/contracts/DEXV2ERC20.sol\":1847:1863  allowance[owner] */\n              dup4\n              dup2\n              and\n              0x00\n              dup2\n              dup2\n              mstore\n                /* \"v2-core-master/contracts/DEXV2ERC20.sol\":1847:1856  allowance */\n              0x02\n                /* \"v2-core-master/contracts/DEXV2ERC20.sol\":1847:1863  allowance[owner] */\n              0x20\n              swap1\n              dup2\n              mstore\n              0x40\n              dup1\n              dup4\n              keccak256\n                /* \"v2-core-master/contracts/DEXV2ERC20.sol\":1847:1872  allowance[owner][spender] */\n              swap5\n              dup8\n              and\n              dup1\n              dup5\n              mstore\n              swap5\n              dup3\n              mstore\n              swap2\n              dup3\n              swap1\n              keccak256\n                /* \"v2-core-master/contracts/DEXV2ERC20.sol\":1847:1880  allowance[owner][spender] = value */\n              dup6\n              swap1\n              sstore\n                /* \"v2-core-master/contracts/DEXV2ERC20.sol\":1895:1926  Approval(owner, spender, value) */\n              dup2\n              mload\n              dup6\n              dup2\n              mstore\n              swap2\n              mload\n              0x8c5be1e5ebec7d5bd14f71427d1e84f3dd0314c0f7b2291e5b200ac8c7c3b925\n              swap3\n              dup2\n              swap1\n              sub\n              swap1\n              swap2\n              add\n              swap1\n              log3\n                /* \"v2-core-master/contracts/DEXV2ERC20.sol\":1767:1933  function _approve(address owner, address spender, uint value) private {... */\n              pop\n              pop\n              pop\n              jump\t// out\n                /* \"v2-core-master/contracts/DEXV2ERC20.sol\":1939:2155  function _transfer(address from, address to, uint value) private {... */\n            tag_165:\n              sub(shl(0xa0, 0x01), 0x01)\n                /* \"v2-core-master/contracts/DEXV2ERC20.sol\":2032:2047  balanceOf[from] */\n              dup4\n              and\n              0x00\n              swap1\n              dup2\n              mstore\n              mstore(0x20, 0x01)\n              0x40\n              swap1\n              keccak256\n              sload\n                /* \"v2-core-master/contracts/DEXV2ERC20.sol\":2032:2058  balanceOf[from].sub(value) */\n              tag_293\n              swap1\n                /* \"v2-core-master/contracts/DEXV2ERC20.sol\":2052:2057  value */\n              dup3\n                /* \"v2-core-master/contracts/DEXV2ERC20.sol\":2032:2051  balanceOf[from].sub */\n              tag_147\n                /* \"v2-core-master/contracts/DEXV2ERC20.sol\":2032:2058  balanceOf[from].sub(value) */\n              jump\t// in\n            tag_293:\n              sub(shl(0xa0, 0x01), 0x01)\n                /* \"v2-core-master/contracts/DEXV2ERC20.sol\":2014:2029  balanceOf[from] */\n              dup5\n              dup2\n              and\n              0x00\n              swap1\n              dup2\n              mstore\n              mstore(0x20, 0x01)\n              0x40\n              dup1\n              dup3\n              keccak256\n                /* \"v2-core-master/contracts/DEXV2ERC20.sol\":2014:2058  balanceOf[from] = balanceOf[from].sub(value) */\n              swap4\n              swap1\n              swap4\n              sstore\n                /* \"v2-core-master/contracts/DEXV2ERC20.sol\":2084:2097  balanceOf[to] */\n              swap1\n              dup5\n              and\n              dup2\n              mstore\n              keccak256\n              sload\n                /* \"v2-core-master/contracts/DEXV2ERC20.sol\":2084:2108  balanceOf[to].add(value) */\n              tag_294\n              swap1\n                /* \"v2-core-master/contracts/DEXV2ERC20.sol\":2102:2107  value */\n              dup3\n                /* \"v2-core-master/contracts/DEXV2ERC20.sol\":2084:2101  balanceOf[to].add */\n              tag_295\n                /* \"v2-core-master/contracts/DEXV2ERC20.sol\":2084:2108  balanceOf[to].add(value) */\n              jump\t// in\n            tag_294:\n              sub(shl(0xa0, 0x01), 0x01)\n                /* \"v2-core-master/contracts/DEXV2ERC20.sol\":2068:2081  balanceOf[to] */\n              dup4\n              dup2\n              and\n              0x00\n              dup2\n              dup2\n              mstore\n              0x01\n              0x20\n              swap1\n              dup2\n              mstore\n              0x40\n              swap2\n              dup3\n              swap1\n              keccak256\n                /* \"v2-core-master/contracts/DEXV2ERC20.sol\":2068:2108  balanceOf[to] = balanceOf[to].add(value) */\n              swap5\n              swap1\n              swap5\n              sstore\n                /* \"v2-core-master/contracts/DEXV2ERC20.sol\":2123:2148  Transfer(from, to, value) */\n              dup1\n              mload\n              dup6\n              dup2\n              mstore\n              swap1\n              mload\n                /* \"v2-core-master/contracts/DEXV2ERC20.sol\":2068:2081  balanceOf[to] */\n              swap2\n              swap4\n                /* \"v2-core-master/contracts/DEXV2ERC20.sol\":2123:2148  Transfer(from, to, value) */\n              swap3\n              dup8\n              and\n              swap3\n              0xddf252ad1be2c89b69c2b068fc378daa952ba7f163c4a11628f55a4df523b3ef\n              swap3\n              swap2\n              dup3\n              swap1\n              sub\n              add\n              swap1\n              log3\n                /* \"v2-core-master/contracts/DEXV2ERC20.sol\":1939:2155  function _transfer(address from, address to, uint value) private {... */\n              pop\n              pop\n              pop\n              jump\t// out\n                /* \"v2-core-master/contracts/DEXV2Pair.sol\":3494:4309  function _mintFee(uint112 _reserve0, uint112 _reserve1) private returns (bool feeOn) {... */\n            tag_181:\n                /* \"v2-core-master/contracts/DEXV2Pair.sol\":3619:3626  factory */\n              sload(0x05)\n                /* \"v2-core-master/contracts/DEXV2Pair.sol\":3605:3635  IDEXV2Factory(factory).feeTo() */\n              0x40\n              dup1\n              mload\n              shl(0xe3, 0x2fcfcb)\n              dup2\n              mstore\n              swap1\n              mload\n                /* \"v2-core-master/contracts/DEXV2Pair.sol\":3567:3577  bool feeOn */\n              0x00\n              swap3\n              dup4\n              swap3\n              sub(shl(0xa0, 0x01), 0x01)\n                /* \"v2-core-master/contracts/DEXV2Pair.sol\":3619:3626  factory */\n              swap1\n              swap2\n              and\n              swap2\n                /* \"v2-core-master/contracts/DEXV2Pair.sol\":3605:3633  IDEXV2Factory(factory).feeTo */\n              0x017e7e58\n              swap2\n                /* \"v2-core-master/contracts/DEXV2Pair.sol\":3605:3635  IDEXV2Factory(factory).feeTo() */\n              0x04\n              dup1\n              dup3\n              add\n              swap3\n              0x20\n              swap3\n              swap1\n              swap2\n              swap1\n              dup3\n              swap1\n              sub\n              add\n              dup2\n                /* \"v2-core-master/contracts/DEXV2Pair.sol\":3619:3626  factory */\n              dup7\n                /* \"v2-core-master/contracts/DEXV2Pair.sol\":3605:3635  IDEXV2Factory(factory).feeTo() */\n              dup1\n              extcodesize\n              iszero\n                /* \"--CODEGEN--\":5:7   */\n              dup1\n              iszero\n              tag_297\n              jumpi\n                /* \"--CODEGEN--\":30:31   */\n              0x00\n                /* \"--CODEGEN--\":27:28   */\n              dup1\n                /* \"--CODEGEN--\":20:32   */\n              revert\n                /* \"--CODEGEN--\":5:7   */\n            tag_297:\n                /* \"v2-core-master/contracts/DEXV2Pair.sol\":3605:3635  IDEXV2Factory(factory).feeTo() */\n              pop\n              gas\n              staticcall\n              iszero\n                /* \"--CODEGEN--\":8:17   */\n              dup1\n                /* \"--CODEGEN--\":5:7   */\n              iszero\n              tag_298\n              jumpi\n                /* \"--CODEGEN--\":45:61   */\n              returndatasize\n                /* \"--CODEGEN--\":42:43   */\n              0x00\n                /* \"--CODEGEN--\":39:40   */\n              dup1\n                /* \"--CODEGEN--\":24:62   */\n              returndatacopy\n                /* \"--CODEGEN--\":77:93   */\n              returndatasize\n                /* \"--CODEGEN--\":74:75   */\n              0x00\n                /* \"--CODEGEN--\":67:94   */\n              revert\n                /* \"--CODEGEN--\":5:7   */\n            tag_298:\n                /* \"v2-core-master/contracts/DEXV2Pair.sol\":3605:3635  IDEXV2Factory(factory).feeTo() */\n              pop\n              pop\n              pop\n              pop\n              mload(0x40)\n              returndatasize\n                /* \"--CODEGEN--\":13:15   */\n              0x20\n                /* \"--CODEGEN--\":8:11   */\n              dup2\n                /* \"--CODEGEN--\":5:16   */\n              lt\n                /* \"--CODEGEN--\":2:4   */\n              iszero\n              tag_299\n              jumpi\n                /* \"--CODEGEN--\":29:30   */\n              0x00\n                /* \"--CODEGEN--\":26:27   */\n              dup1\n                /* \"--CODEGEN--\":19:31   */\n              revert\n                /* \"--CODEGEN--\":2:4   */\n            tag_299:\n              pop\n                /* \"v2-core-master/contracts/DEXV2Pair.sol\":3605:3635  IDEXV2Factory(factory).feeTo() */\n              mload\n                /* \"v2-core-master/contracts/DEXV2Pair.sol\":3696:3701  kLast */\n              sload(0x0b)\n              sub(shl(0xa0, 0x01), 0x01)\n                /* \"v2-core-master/contracts/DEXV2Pair.sol\":3653:3672  feeTo != address(0) */\n              dup3\n              and\n              iszero\n              dup1\n              iszero\n              swap5\n              pop\n                /* \"v2-core-master/contracts/DEXV2Pair.sol\":3605:3635  IDEXV2Factory(factory).feeTo() */\n              swap2\n              swap3\n              pop\n                /* \"v2-core-master/contracts/DEXV2Pair.sol\":3696:3701  kLast */\n              swap1\n                /* \"v2-core-master/contracts/DEXV2Pair.sol\":3726:4303  if (feeOn) {... */\n              tag_300\n              jumpi\n                /* \"v2-core-master/contracts/DEXV2Pair.sol\":3755:3766  _kLast != 0 */\n              dup1\n              iszero\n                /* \"v2-core-master/contracts/DEXV2Pair.sol\":3751:4236  if (_kLast != 0) {... */\n              tag_301\n              jumpi\n                /* \"v2-core-master/contracts/DEXV2Pair.sol\":3786:3796  uint rootK */\n              0x00\n                /* \"v2-core-master/contracts/DEXV2Pair.sol\":3799:3840  Math.sqrt(uint(_reserve0).mul(_reserve1)) */\n              tag_302\n                /* \"v2-core-master/contracts/DEXV2Pair.sol\":3809:3839  uint(_reserve0).mul(_reserve1) */\n              tag_185\n              sub(shl(0x70, 0x01), 0x01)\n                /* \"v2-core-master/contracts/DEXV2Pair.sol\":3809:3824  uint(_reserve0) */\n              dup9\n              dup2\n              and\n              swap1\n                /* \"v2-core-master/contracts/DEXV2Pair.sol\":3809:3839  uint(_reserve0).mul(_reserve1) */\n              dup9\n              and\n                /* \"v2-core-master/contracts/DEXV2Pair.sol\":3809:3828  uint(_reserve0).mul */\n              tag_145\n                /* \"v2-core-master/contracts/DEXV2Pair.sol\":3809:3839  uint(_reserve0).mul(_reserve1) */\n              jump\t// in\n                /* \"v2-core-master/contracts/DEXV2Pair.sol\":3799:3840  Math.sqrt(uint(_reserve0).mul(_reserve1)) */\n            tag_302:\n                /* \"v2-core-master/contracts/DEXV2Pair.sol\":3786:3840  uint rootK = Math.sqrt(uint(_reserve0).mul(_reserve1)) */\n              swap1\n              pop\n                /* \"v2-core-master/contracts/DEXV2Pair.sol\":3858:3872  uint rootKLast */\n              0x00\n                /* \"v2-core-master/contracts/DEXV2Pair.sol\":3875:3892  Math.sqrt(_kLast) */\n              tag_304\n                /* \"v2-core-master/contracts/DEXV2Pair.sol\":3885:3891  _kLast */\n              dup4\n                /* \"v2-core-master/contracts/DEXV2Pair.sol\":3875:3884  Math.sqrt */\n              tag_186\n                /* \"v2-core-master/contracts/DEXV2Pair.sol\":3875:3892  Math.sqrt(_kLast) */\n              jump\t// in\n            tag_304:\n                /* \"v2-core-master/contracts/DEXV2Pair.sol\":3858:3892  uint rootKLast = Math.sqrt(_kLast) */\n              swap1\n              pop\n                /* \"v2-core-master/contracts/DEXV2Pair.sol\":3922:3931  rootKLast */\n              dup1\n                /* \"v2-core-master/contracts/DEXV2Pair.sol\":3914:3919  rootK */\n              dup3\n                /* \"v2-core-master/contracts/DEXV2Pair.sol\":3914:3931  rootK > rootKLast */\n              gt\n                /* \"v2-core-master/contracts/DEXV2Pair.sol\":3910:4222  if (rootK > rootKLast) {... */\n              iszero\n              tag_305\n              jumpi\n                /* \"v2-core-master/contracts/DEXV2Pair.sol\":3955:3969  uint numerator */\n              0x00\n                /* \"v2-core-master/contracts/DEXV2Pair.sol\":3972:4009  totalSupply.mul(rootK.sub(rootKLast)) */\n              tag_306\n                /* \"v2-core-master/contracts/DEXV2Pair.sol\":3988:4008  rootK.sub(rootKLast) */\n              tag_307\n                /* \"v2-core-master/contracts/DEXV2Pair.sol\":3988:3993  rootK */\n              dup5\n                /* \"v2-core-master/contracts/DEXV2Pair.sol\":3998:4007  rootKLast */\n              dup5\n                /* \"v2-core-master/contracts/DEXV2Pair.sol\":3988:4008  rootK.sub(rootKLast) */\n              0xffffffff\n                /* \"v2-core-master/contracts/DEXV2Pair.sol\":3988:3997  rootK.sub */\n              tag_147\n                /* \"v2-core-master/contracts/DEXV2Pair.sol\":3988:4008  rootK.sub(rootKLast) */\n              and\n              jump\t// in\n            tag_307:\n                /* \"v2-core-master/contracts/DEXV2Pair.sol\":3972:3983  totalSupply */\n              sload(0x00)\n              swap1\n                /* \"v2-core-master/contracts/DEXV2Pair.sol\":3972:4009  totalSupply.mul(rootK.sub(rootKLast)) */\n              0xffffffff\n                /* \"v2-core-master/contracts/DEXV2Pair.sol\":3972:3987  totalSupply.mul */\n              tag_145\n                /* \"v2-core-master/contracts/DEXV2Pair.sol\":3972:4009  totalSupply.mul(rootK.sub(rootKLast)) */\n              and\n              jump\t// in\n            tag_306:\n                /* \"v2-core-master/contracts/DEXV2Pair.sol\":3955:4009  uint numerator = totalSupply.mul(rootK.sub(rootKLast)) */\n              swap1\n              pop\n                /* \"v2-core-master/contracts/DEXV2Pair.sol\":4031:4047  uint denominator */\n              0x00\n                /* \"v2-core-master/contracts/DEXV2Pair.sol\":4050:4077  rootK.mul(5).add(rootKLast) */\n              tag_308\n                /* \"v2-core-master/contracts/DEXV2Pair.sol\":4067:4076  rootKLast */\n              dup4\n                /* \"v2-core-master/contracts/DEXV2Pair.sol\":4050:4062  rootK.mul(5) */\n              tag_309\n                /* \"v2-core-master/contracts/DEXV2Pair.sol\":4050:4055  rootK */\n              dup7\n                /* \"v2-core-master/contracts/DEXV2Pair.sol\":4060:4061  5 */\n              0x05\n                /* \"v2-core-master/contracts/DEXV2Pair.sol\":4050:4062  rootK.mul(5) */\n              0xffffffff\n                /* \"v2-core-master/contracts/DEXV2Pair.sol\":4050:4059  rootK.mul */\n              tag_145\n                /* \"v2-core-master/contracts/DEXV2Pair.sol\":4050:4062  rootK.mul(5) */\n              and\n              jump\t// in\n            tag_309:\n                /* \"v2-core-master/contracts/DEXV2Pair.sol\":4050:4066  rootK.mul(5).add */\n              swap1\n                /* \"v2-core-master/contracts/DEXV2Pair.sol\":4050:4077  rootK.mul(5).add(rootKLast) */\n              0xffffffff\n                /* \"v2-core-master/contracts/DEXV2Pair.sol\":4050:4066  rootK.mul(5).add */\n              tag_295\n                /* \"v2-core-master/contracts/DEXV2Pair.sol\":4050:4077  rootK.mul(5).add(rootKLast) */\n              and\n              jump\t// in\n            tag_308:\n                /* \"v2-core-master/contracts/DEXV2Pair.sol\":4031:4077  uint denominator = rootK.mul(5).add(rootKLast) */\n              swap1\n              pop\n                /* \"v2-core-master/contracts/DEXV2Pair.sol\":4099:4113  uint liquidity */\n              0x00\n                /* \"v2-core-master/contracts/DEXV2Pair.sol\":4128:4139  denominator */\n              dup2\n                /* \"v2-core-master/contracts/DEXV2Pair.sol\":4116:4125  numerator */\n              dup4\n                /* \"v2-core-master/contracts/DEXV2Pair.sol\":4116:4139  numerator / denominator */\n              dup2\n              tag_310\n              jumpi\n              invalid\n            tag_310:\n              div\n              swap1\n              pop\n                /* \"v2-core-master/contracts/DEXV2Pair.sol\":4165:4178  liquidity > 0 */\n              dup1\n              iszero\n                /* \"v2-core-master/contracts/DEXV2Pair.sol\":4161:4203  if (liquidity > 0) _mint(feeTo, liquidity) */\n              tag_312\n              jumpi\n                /* \"v2-core-master/contracts/DEXV2Pair.sol\":4180:4203  _mint(feeTo, liquidity) */\n              tag_312\n                /* \"v2-core-master/contracts/DEXV2Pair.sol\":4186:4191  feeTo */\n              dup8\n                /* \"v2-core-master/contracts/DEXV2Pair.sol\":4193:4202  liquidity */\n              dup3\n                /* \"v2-core-master/contracts/DEXV2Pair.sol\":4180:4185  _mint */\n              tag_188\n                /* \"v2-core-master/contracts/DEXV2Pair.sol\":4180:4203  _mint(feeTo, liquidity) */\n              jump\t// in\n            tag_312:\n                /* \"v2-core-master/contracts/DEXV2Pair.sol\":3910:4222  if (rootK > rootKLast) {... */\n              pop\n              pop\n              pop\n            tag_305:\n                /* \"v2-core-master/contracts/DEXV2Pair.sol\":3751:4236  if (_kLast != 0) {... */\n              pop\n              pop\n            tag_301:\n                /* \"v2-core-master/contracts/DEXV2Pair.sol\":3726:4303  if (feeOn) {... */\n              jump(tag_314)\n            tag_300:\n                /* \"v2-core-master/contracts/DEXV2Pair.sol\":4256:4267  _kLast != 0 */\n              dup1\n              iszero\n                /* \"v2-core-master/contracts/DEXV2Pair.sol\":4252:4303  if (_kLast != 0) {... */\n              tag_314\n              jumpi\n                /* \"v2-core-master/contracts/DEXV2Pair.sol\":4291:4292  0 */\n              0x00\n                /* \"v2-core-master/contracts/DEXV2Pair.sol\":4283:4288  kLast */\n              0x0b\n                /* \"v2-core-master/contracts/DEXV2Pair.sol\":4283:4292  kLast = 0 */\n              sstore\n                /* \"v2-core-master/contracts/DEXV2Pair.sol\":4252:4303  if (_kLast != 0) {... */\n            tag_314:\n                /* \"v2-core-master/contracts/DEXV2Pair.sol\":3494:4309  function _mintFee(uint112 _reserve0, uint112 _reserve1) private returns (bool feeOn) {... */\n              pop\n              pop\n              swap3\n              swap2\n              pop\n              pop\n              jump\t// out\n                /* \"v2-core-master/contracts/libraries/Math.sol\":307:599  function sqrt(uint y) internal pure returns (uint z) {... */\n            tag_186:\n                /* \"v2-core-master/contracts/libraries/Math.sol\":352:358  uint z */\n              0x00\n                /* \"v2-core-master/contracts/libraries/Math.sol\":378:379  3 */\n              0x03\n                /* \"v2-core-master/contracts/libraries/Math.sol\":374:375  y */\n              dup3\n                /* \"v2-core-master/contracts/libraries/Math.sol\":374:379  y > 3 */\n              gt\n                /* \"v2-core-master/contracts/libraries/Math.sol\":370:593  if (y > 3) {... */\n              iszero\n              tag_316\n              jumpi\n              pop\n                /* \"v2-core-master/contracts/libraries/Math.sol\":399:400  y */\n              dup1\n                /* \"v2-core-master/contracts/libraries/Math.sol\":431:432  1 */\n              0x01\n                /* \"v2-core-master/contracts/libraries/Math.sol\":427:428  2 */\n              0x02\n                /* \"v2-core-master/contracts/libraries/Math.sol\":423:428  y / 2 */\n              dup3\n              div\n                /* \"v2-core-master/contracts/libraries/Math.sol\":423:432  y / 2 + 1 */\n              add\n                /* \"v2-core-master/contracts/libraries/Math.sol\":446:535  while (x < z) {... */\n            tag_318:\n                /* \"v2-core-master/contracts/libraries/Math.sol\":457:458  z */\n              dup2\n                /* \"v2-core-master/contracts/libraries/Math.sol\":453:454  x */\n              dup2\n                /* \"v2-core-master/contracts/libraries/Math.sol\":453:458  x < z */\n              lt\n                /* \"v2-core-master/contracts/libraries/Math.sol\":446:535  while (x < z) {... */\n              iszero\n              tag_319\n              jumpi\n                /* \"v2-core-master/contracts/libraries/Math.sol\":482:483  x */\n              dup1\n                /* \"v2-core-master/contracts/libraries/Math.sol\":478:483  z = x */\n              swap2\n              pop\n                /* \"v2-core-master/contracts/libraries/Math.sol\":519:520  2 */\n              0x02\n                /* \"v2-core-master/contracts/libraries/Math.sol\":514:515  x */\n              dup2\n                /* \"v2-core-master/contracts/libraries/Math.sol\":510:511  x */\n              dup3\n                /* \"v2-core-master/contracts/libraries/Math.sol\":506:507  y */\n              dup6\n                /* \"v2-core-master/contracts/libraries/Math.sol\":506:511  y / x */\n              dup2\n              tag_320\n              jumpi\n              invalid\n            tag_320:\n              div\n                /* \"v2-core-master/contracts/libraries/Math.sol\":506:515  y / x + x */\n              add\n                /* \"v2-core-master/contracts/libraries/Math.sol\":505:520  (y / x + x) / 2 */\n              dup2\n              tag_321\n              jumpi\n              invalid\n            tag_321:\n              div\n                /* \"v2-core-master/contracts/libraries/Math.sol\":501:520  x = (y / x + x) / 2 */\n              swap1\n              pop\n                /* \"v2-core-master/contracts/libraries/Math.sol\":446:535  while (x < z) {... */\n              jump(tag_318)\n            tag_319:\n                /* \"v2-core-master/contracts/libraries/Math.sol\":370:593  if (y > 3) {... */\n              pop\n              jump(tag_323)\n            tag_316:\n                /* \"v2-core-master/contracts/libraries/Math.sol\":555:561  y != 0 */\n              dup2\n              iszero\n                /* \"v2-core-master/contracts/libraries/Math.sol\":551:593  if (y != 0) {... */\n              tag_323\n              jumpi\n              pop\n                /* \"v2-core-master/contracts/libraries/Math.sol\":581:582  1 */\n              0x01\n                /* \"v2-core-master/contracts/libraries/Math.sol\":551:593  if (y != 0) {... */\n            tag_323:\n                /* \"v2-core-master/contracts/libraries/Math.sol\":307:599  function sqrt(uint y) internal pure returns (uint z) {... */\n              swap2\n              swap1\n              pop\n              jump\t// out\n                /* \"v2-core-master/contracts/DEXV2ERC20.sol\":1353:1550  function _mint(address to, uint value) internal {... */\n            tag_188:\n                /* \"v2-core-master/contracts/DEXV2ERC20.sol\":1425:1436  totalSupply */\n              sload(0x00)\n                /* \"v2-core-master/contracts/DEXV2ERC20.sol\":1425:1447  totalSupply.add(value) */\n              tag_325\n              swap1\n                /* \"v2-core-master/contracts/DEXV2ERC20.sol\":1441:1446  value */\n              dup3\n                /* \"v2-core-master/contracts/DEXV2ERC20.sol\":1425:1447  totalSupply.add(value) */\n              0xffffffff\n                /* \"v2-core-master/contracts/DEXV2ERC20.sol\":1425:1440  totalSupply.add */\n              tag_295\n                /* \"v2-core-master/contracts/DEXV2ERC20.sol\":1425:1447  totalSupply.add(value) */\n              and\n              jump\t// in\n            tag_325:\n                /* \"v2-core-master/contracts/DEXV2ERC20.sol\":1411:1422  totalSupply */\n              0x00\n                /* \"v2-core-master/contracts/DEXV2ERC20.sol\":1411:1447  totalSupply = totalSupply.add(value) */\n              swap1\n              dup2\n              sstore\n              sub(shl(0xa0, 0x01), 0x01)\n                /* \"v2-core-master/contracts/DEXV2ERC20.sol\":1473:1486  balanceOf[to] */\n              dup4\n              and\n              dup2\n              mstore\n              mstore(0x20, 0x01)\n              0x40\n              swap1\n              keccak256\n              sload\n                /* \"v2-core-master/contracts/DEXV2ERC20.sol\":1473:1497  balanceOf[to].add(value) */\n              tag_326\n              swap1\n                /* \"v2-core-master/contracts/DEXV2ERC20.sol\":1491:1496  value */\n              dup3\n                /* \"v2-core-master/contracts/DEXV2ERC20.sol\":1473:1490  balanceOf[to].add */\n              tag_295\n                /* \"v2-core-master/contracts/DEXV2ERC20.sol\":1473:1497  balanceOf[to].add(value) */\n              jump\t// in\n            tag_326:\n              sub(shl(0xa0, 0x01), 0x01)\n                /* \"v2-core-master/contracts/DEXV2ERC20.sol\":1457:1470  balanceOf[to] */\n              dup4\n              and\n              0x00\n              dup2\n              dup2\n              mstore\n              0x01\n              0x20\n              swap1\n              dup2\n              mstore\n              0x40\n              dup1\n              dup4\n              keccak256\n                /* \"v2-core-master/contracts/DEXV2ERC20.sol\":1457:1497  balanceOf[to] = balanceOf[to].add(value) */\n              swap5\n              swap1\n              swap5\n              sstore\n                /* \"v2-core-master/contracts/DEXV2ERC20.sol\":1512:1543  Transfer(address(0), to, value) */\n              dup4\n              mload\n              dup6\n              dup2\n              mstore\n              swap4\n              mload\n                /* \"v2-core-master/contracts/DEXV2ERC20.sol\":1457:1470  balanceOf[to] */\n              swap3\n              swap4\n              swap2\n              swap3\n                /* \"v2-core-master/contracts/DEXV2ERC20.sol\":1512:1543  Transfer(address(0), to, value) */\n              0xddf252ad1be2c89b69c2b068fc378daa952ba7f163c4a11628f55a4df523b3ef\n              swap3\n              dup2\n              swap1\n              sub\n              swap1\n              swap2\n              add\n              swap1\n              log3\n                /* \"v2-core-master/contracts/DEXV2ERC20.sol\":1353:1550  function _mint(address to, uint value) internal {... */\n              pop\n              pop\n              jump\t// out\n                /* \"v2-core-master/contracts/libraries/Math.sol\":98:192  function min(uint x, uint y) internal pure returns (uint z) {... */\n            tag_195:\n                /* \"v2-core-master/contracts/libraries/Math.sol\":150:156  uint z */\n              0x00\n                /* \"v2-core-master/contracts/libraries/Math.sol\":176:177  y */\n              dup2\n                /* \"v2-core-master/contracts/libraries/Math.sol\":172:173  x */\n              dup4\n                /* \"v2-core-master/contracts/libraries/Math.sol\":172:177  x < y */\n              lt\n                /* \"v2-core-master/contracts/libraries/Math.sol\":172:185  x < y ? x : y */\n              tag_328\n              jumpi\n                /* \"v2-core-master/contracts/libraries/Math.sol\":184:185  y */\n              dup2\n                /* \"v2-core-master/contracts/libraries/Math.sol\":172:185  x < y ? x : y */\n              jump(tag_329)\n            tag_328:\n                /* \"v2-core-master/contracts/libraries/Math.sol\":180:181  x */\n              dup3\n                /* \"v2-core-master/contracts/libraries/Math.sol\":172:185  x < y ? x : y */\n            tag_329:\n                /* \"v2-core-master/contracts/libraries/Math.sol\":168:185  z = x < y ? x : y */\n              swap4\n                /* \"v2-core-master/contracts/libraries/Math.sol\":98:192  function min(uint x, uint y) internal pure returns (uint z) {... */\n              swap3\n              pop\n              pop\n              pop\n              jump\t// out\n                /* \"v2-core-master/contracts/DEXV2ERC20.sol\":1556:1761  function _burn(address from, uint value) internal {... */\n            tag_219:\n              sub(shl(0xa0, 0x01), 0x01)\n                /* \"v2-core-master/contracts/DEXV2ERC20.sol\":1634:1649  balanceOf[from] */\n              dup3\n              and\n              0x00\n              swap1\n              dup2\n              mstore\n              mstore(0x20, 0x01)\n              0x40\n              swap1\n              keccak256\n              sload\n                /* \"v2-core-master/contracts/DEXV2ERC20.sol\":1634:1660  balanceOf[from].sub(value) */\n              tag_331\n              swap1\n                /* \"v2-core-master/contracts/DEXV2ERC20.sol\":1654:1659  value */\n              dup3\n                /* \"v2-core-master/contracts/DEXV2ERC20.sol\":1634:1653  balanceOf[from].sub */\n              tag_147\n                /* \"v2-core-master/contracts/DEXV2ERC20.sol\":1634:1660  balanceOf[from].sub(value) */\n              jump\t// in\n            tag_331:\n              sub(shl(0xa0, 0x01), 0x01)\n                /* \"v2-core-master/contracts/DEXV2ERC20.sol\":1616:1631  balanceOf[from] */\n              dup4\n              and\n              0x00\n              swap1\n              dup2\n              mstore\n              mstore(0x20, 0x01)\n              0x40\n              dup2\n              keccak256\n                /* \"v2-core-master/contracts/DEXV2ERC20.sol\":1616:1660  balanceOf[from] = balanceOf[from].sub(value) */\n              swap2\n              swap1\n              swap2\n              sstore\n                /* \"v2-core-master/contracts/DEXV2ERC20.sol\":1684:1695  totalSupply */\n              sload\n                /* \"v2-core-master/contracts/DEXV2ERC20.sol\":1684:1706  totalSupply.sub(value) */\n              tag_332\n              swap1\n                /* \"v2-core-master/contracts/DEXV2ERC20.sol\":1700:1705  value */\n              dup3\n                /* \"v2-core-master/contracts/DEXV2ERC20.sol\":1684:1699  totalSupply.sub */\n              tag_147\n                /* \"v2-core-master/contracts/DEXV2ERC20.sol\":1684:1706  totalSupply.sub(value) */\n              jump\t// in\n            tag_332:\n                /* \"v2-core-master/contracts/DEXV2ERC20.sol\":1670:1681  totalSupply */\n              0x00\n                /* \"v2-core-master/contracts/DEXV2ERC20.sol\":1670:1706  totalSupply = totalSupply.sub(value) */\n              swap1\n              dup2\n              sstore\n                /* \"v2-core-master/contracts/DEXV2ERC20.sol\":1721:1754  Transfer(from, address(0), value) */\n              0x40\n              dup1\n              mload\n              dup4\n              dup2\n              mstore\n              swap1\n              mload\n              sub(shl(0xa0, 0x01), 0x01)\n              dup6\n              and\n              swap2\n              0xddf252ad1be2c89b69c2b068fc378daa952ba7f163c4a11628f55a4df523b3ef\n              swap2\n              swap1\n              dup2\n              swap1\n              sub\n              0x20\n              add\n              swap1\n              log3\n                /* \"v2-core-master/contracts/DEXV2ERC20.sol\":1556:1761  function _burn(address from, uint value) internal {... */\n              pop\n              pop\n              jump\t// out\n                /* \"v2-core-master/contracts/libraries/UQ112x112.sol\":283:401  function encode(uint112 y) internal pure returns (uint224 z) {... */\n            tag_287:\n              sub(shl(0x70, 0x01), 0x01)\n                /* \"v2-core-master/contracts/libraries/UQ112x112.sol\":358:368  uint224(y) */\n              and\n              shl(0x70, 0x01)\n                /* \"v2-core-master/contracts/libraries/UQ112x112.sol\":358:375  uint224(y) * Q112 */\n              mul\n              swap1\n                /* \"v2-core-master/contracts/libraries/UQ112x112.sol\":283:401  function encode(uint112 y) internal pure returns (uint224 z) {... */\n              jump\t// out\n                /* \"v2-core-master/contracts/libraries/UQ112x112.sol\":469:575  function uqdiv(uint224 x, uint112 y) internal pure returns (uint224 z) {... */\n            tag_288:\n                /* \"v2-core-master/contracts/libraries/UQ112x112.sol\":529:538  uint224 z */\n              0x00\n              sub(shl(0x70, 0x01), 0x01)\n                /* \"v2-core-master/contracts/libraries/UQ112x112.sol\":558:568  uint224(y) */\n              dup3\n              and\n              sub(shl(0xe0, 0x01), 0x01)\n                /* \"v2-core-master/contracts/libraries/UQ112x112.sol\":554:568  x / uint224(y) */\n              dup5\n              and\n                /* \"v2-core-master/contracts/libraries/UQ112x112.sol\":558:568  uint224(y) */\n              dup2\n                /* \"v2-core-master/contracts/libraries/UQ112x112.sol\":554:568  x / uint224(y) */\n              tag_335\n              jumpi\n              invalid\n            tag_335:\n              div\n              swap4\n                /* \"v2-core-master/contracts/libraries/UQ112x112.sol\":469:575  function uqdiv(uint224 x, uint112 y) internal pure returns (uint224 z) {... */\n              swap3\n              pop\n              pop\n              pop\n              jump\t// out\n                /* \"v2-core-master/contracts/libraries/SafeMath.sol\":155:281  function add(uint x, uint y) internal pure returns (uint z) {... */\n            tag_295:\n                /* \"v2-core-master/contracts/libraries/SafeMath.sol\":238:243  x + y */\n              dup1\n              dup3\n              add\n                /* \"v2-core-master/contracts/libraries/SafeMath.sol\":233:249  (z = x + y) >= x */\n              dup3\n              dup2\n              lt\n              iszero\n                /* \"v2-core-master/contracts/libraries/SafeMath.sol\":225:274  require((z = x + y) >= x, 'ds-math-add-overflow') */\n              tag_158\n              jumpi\n              0x40\n              dup1\n              mload\n              shl(0xe5, 0x461bcd)\n              dup2\n              mstore\n              0x20\n              0x04\n              dup3\n              add\n              mstore\n              0x14\n              0x24\n              dup3\n              add\n              mstore\n              shl(0x60, 0x64732d6d6174682d6164642d6f766572666c6f77)\n              0x44\n              dup3\n              add\n              mstore\n              swap1\n              mload\n              swap1\n              dup2\n              swap1\n              sub\n              0x64\n              add\n              swap1\n              revert\n            stop\n            data_19858c75ca6575f0620a5a36ab79179f8f9a602bb98641841464a24f0f540494 44455856323a20494e53554646494349454e545f4c49515549444954595f4d494e544544\n            data_b8515d9c102ebe9112851623068db4e89ae46cea200d65e7d4ce8f89e31a1179 44455856323a20494e53554646494349454e545f4c49515549444954595f4255524e4544\n            data_bd3d279deafa3a413c640d6c8c87c7163b054a9440c7e5272a4c3da9af95f292 44455856323a20494e53554646494349454e545f4f55545055545f414d4f554e54\n\n            auxdata: 0xa265627a7a72315820e3957a0c2f24a7b870a55c31b799734d7d69ec785597bb447b9413a22cfd209464736f6c63430005100032\n        }\n    }\n\n    auxdata: 0xa265627a7a72315820f5f56aa351d4413f9b394163a7a7b4dfd9426a43363cc3cdc277c0fe3e383a0b64736f6c63430005100032\n}\n",
				"bytecode": {
					"linkReferences": {},
					"object": "608060405234801561001057600080fd5b50604051612add380380612add8339818101604052602081101561003357600080fd5b5051600180546001600160a01b0319166001600160a01b03909216919091179055612a7a806100636000396000f3fe608060405234801561001057600080fd5b50600436106100935760003560e01c8063574f2ba311610066578063574f2ba3146100fb578063a2e74af614610103578063c9c653961461012b578063e6a4390514610159578063f46901ed1461018757610093565b8063017e7e5814610098578063094b7415146100bc5780631e3dd18b146100c4578063257671f5146100e1575b600080fd5b6100a06101ad565b604080516001600160a01b039092168252519081900360200190f35b6100a06101bc565b6100a0600480360360208110156100da57600080fd5b50356101cb565b6100e96101f2565b60408051918252519081900360200190f35b6100e9610285565b6101296004803603602081101561011957600080fd5b50356001600160a01b031661028b565b005b6100a06004803603604081101561014157600080fd5b506001600160a01b03813581169160200135166102ff565b6100a06004803603604081101561016f57600080fd5b506001600160a01b0381358116916020013516610622565b6101296004803603602081101561019d57600080fd5b50356001600160a01b0316610648565b6000546001600160a01b031681565b6001546001600160a01b031681565b600381815481106101d857fe5b6000918252602090912001546001600160a01b0316905081565b604051610201602082016106bc565b6020820181038252601f19601f820116604052506040516020018082805190602001908083835b602083106102475780518252601f199092019160209182019101610228565b6001836020036101000a0380198251168184511680821785525050505050509050019150506040516020818303038152906040528051906020012081565b60035490565b6001546001600160a01b031633146102dd576040805162461bcd60e51b815260206004820152601060248201526f2222ac2b191d102327a92124a22222a760811b604482015290519081900360640190fd5b600180546001600160a01b0319166001600160a01b0392909216919091179055565b6000816001600160a01b0316836001600160a01b03161415610368576040805162461bcd60e51b815260206004820152601a60248201527f44455856323a204944454e544943414c5f414444524553534553000000000000604482015290519081900360640190fd5b600080836001600160a01b0316856001600160a01b03161061038b57838561038e565b84845b90925090506001600160a01b0382166103e4576040805162461bcd60e51b815260206004820152601360248201527244455856323a205a45524f5f4144445245535360681b604482015290519081900360640190fd5b6001600160a01b03828116600090815260026020908152604080832085851684529091529020541615610453576040805162461bcd60e51b815260206004820152601260248201527144455856323a20504149525f45584953545360701b604482015290519081900360640190fd5b606060405180602001610465906106bc565b6020820181038252601f19601f8201166040525090506000838360405160200180836001600160a01b03166001600160a01b031660601b8152601401826001600160a01b03166001600160a01b031660601b815260140192505050604051602081830303815290604052805190602001209050808251602084016000f56040805163485cc95560e01b81526001600160a01b038781166004830152868116602483015291519297509087169163485cc9559160448082019260009290919082900301818387803b15801561053857600080fd5b505af115801561054c573d6000803e3d6000fd5b505050506001600160a01b0384811660008181526002602081815260408084208987168086529083528185208054978d166001600160a01b031998891681179091559383528185208686528352818520805488168517905560038054600181018255958190527fc2575a0e9e593c00f959f8c92f12db2869c3395a3b0502d05e2516446f71f85b90950180549097168417909655925483519283529082015281517f0d3648bd0f6ba80134a33ba9275ac585d9d315f0ad8355cddefde31afa28d0e9929181900390910190a35050505092915050565b60026020908152600092835260408084209091529082529020546001600160a01b031681565b6001546001600160a01b0316331461069a576040805162461bcd60e51b815260206004820152601060248201526f2222ac2b191d102327a92124a22222a760811b604482015290519081900360640190fd5b600080546001600160a01b0319166001600160a01b0392909216919091179055565b61237c806106ca8339019056fe60806040526001600c5534801561001557600080fd5b50604051469080605261232a823960408051918290036052018220828201825260068352652222ac102b1960d11b6020938401528151808301835260018152603160f81b908401528151808401919091527fc1c10dcba44900605795c0d4b2d4c7476e8679a18b4c003d4fb30b906d50ef31818301527fc89efdaa54c0f20c7adf612882df0950f5a951637e0307cdcb4c672f298b8bc6606082015260808101949094523060a0808601919091528151808603909101815260c09094019052825192019190912060035550600580546001600160a01b03191633179055612229806101016000396000f3fe608060405234801561001057600080fd5b50600436106101a95760003560e01c80636a627842116100f9578063ba9a7a5611610097578063d21220a711610071578063d21220a714610534578063d505accf1461053c578063dd62ed3e1461058d578063fff6cae9146105bb576101a9565b8063ba9a7a56146104fe578063bc25cf7714610506578063c45a01551461052c576101a9565b80637ecebe00116100d35780637ecebe001461046557806389afcb441461048b57806395d89b41146104ca578063a9059cbb146104d2576101a9565b80636a6278421461041157806370a08231146104375780637464fc3d1461045d576101a9565b806323b872dd116101665780633644e515116101405780633644e515146103cb578063485cc955146103d35780635909c0d5146104015780635a3d549314610409576101a9565b806323b872dd1461036f57806330adf81f146103a5578063313ce567146103ad576101a9565b8063022c0d9f146101ae57806306fdde031461023c5780630902f1ac146102b9578063095ea7b3146102f15780630dfe16811461033157806318160ddd14610355575b600080fd5b61023a600480360360808110156101c457600080fd5b8135916020810135916001600160a01b0360408301351691908101906080810160608201356401000000008111156101fb57600080fd5b82018360208201111561020d57600080fd5b8035906020019184600183028401116401000000008311171561022f57600080fd5b5090925090506105c3565b005b610244610b1e565b6040805160208082528351818301528351919283929083019185019080838360005b8381101561027e578181015183820152602001610266565b50505050905090810190601f1680156102ab5780820380516001836020036101000a031916815260200191505b509250505060405180910390f35b6102c1610b40565b604080516001600160701b03948516815292909316602083015263ffffffff168183015290519081900360600190f35b61031d6004803603604081101561030757600080fd5b506001600160a01b038135169060200135610b6a565b604080519115158252519081900360200190f35b610339610b81565b604080516001600160a01b039092168252519081900360200190f35b61035d610b90565b60408051918252519081900360200190f35b61031d6004803603606081101561038557600080fd5b506001600160a01b03813581169160208101359091169060400135610b96565b61035d610c30565b6103b5610c54565b6040805160ff9092168252519081900360200190f35b61035d610c59565b61023a600480360360408110156103e957600080fd5b506001600160a01b0381358116916020013516610c5f565b61035d610cdf565b61035d610ce5565b61035d6004803603602081101561042757600080fd5b50356001600160a01b0316610ceb565b61035d6004803603602081101561044d57600080fd5b50356001600160a01b0316610fe7565b61035d610ff9565b61035d6004803603602081101561047b57600080fd5b50356001600160a01b0316610fff565b6104b1600480360360208110156104a157600080fd5b50356001600160a01b0316611011565b6040805192835260208301919091528051918290030190f35b6102446113b3565b61031d600480360360408110156104e857600080fd5b506001600160a01b0381351690602001356113d5565b61035d6113e2565b61023a6004803603602081101561051c57600080fd5b50356001600160a01b03166113e8565b61033961154f565b61033961155e565b61023a600480360360e081101561055257600080fd5b506001600160a01b03813581169160208101359091169060408101359060608101359060ff6080820135169060a08101359060c0013561156d565b61035d600480360360408110156105a357600080fd5b506001600160a01b038135811691602001351661176b565b61023a611788565b600c5460011461060a576040805162461bcd60e51b815260206004820152600d60248201526c111156158c8e881313d0d2d151609a1b604482015290519081900360640190fd5b6000600c558415158061061d5750600084115b6106585760405162461bcd60e51b81526004018080602001828103825260218152602001806121d46021913960400191505060405180910390fd5b600080610663610b40565b5091509150816001600160701b0316871080156106885750806001600160701b031686105b6106d9576040805162461bcd60e51b815260206004820152601d60248201527f44455856323a20494e53554646494349454e545f4c4951554944495459000000604482015290519081900360640190fd5b60065460075460009182916001600160a01b039182169190811690891682148015906107175750806001600160a01b0316896001600160a01b031614155b61075c576040805162461bcd60e51b815260206004820152601160248201527044455856323a20494e56414c49445f544f60781b604482015290519081900360640190fd5b8a1561076d5761076d828a8d6118e6565b891561077e5761077e818a8c6118e6565b861561083957886001600160a01b031663d48d2648338d8d8c8c6040518663ffffffff1660e01b815260040180866001600160a01b03166001600160a01b03168152602001858152602001848152602001806020018281038252848482818152602001925080828437600081840152601f19601f8201169050808301925050509650505050505050600060405180830381600087803b15801561082057600080fd5b505af1158015610834573d6000803e3d6000fd5b505050505b604080516370a0823160e01b815230600482015290516001600160a01b038416916370a08231916024808301926020929190829003018186803b15801561087f57600080fd5b505afa158015610893573d6000803e3d6000fd5b505050506040513d60208110156108a957600080fd5b5051604080516370a0823160e01b815230600482015290519195506001600160a01b038316916370a0823191602480820192602092909190829003018186803b1580156108f557600080fd5b505afa158015610909573d6000803e3d6000fd5b505050506040513d602081101561091f57600080fd5b5051925060009150506001600160701b0385168a90038311610942576000610951565b89856001600160701b03160383035b9050600089856001600160701b031603831161096e57600061097d565b89856001600160701b03160383035b9050600082118061098e5750600081115b6109df576040805162461bcd60e51b815260206004820181905260248201527f44455856323a20494e53554646494349454e545f494e5055545f414d4f554e54604482015290519081900360640190fd5b6000610a136109f584600363ffffffff611a7916565b610a07876103e863ffffffff611a7916565b9063ffffffff611adc16565b90506000610a2b6109f584600363ffffffff611a7916565b9050610a5c620f4240610a506001600160701b038b8116908b1663ffffffff611a7916565b9063ffffffff611a7916565b610a6c838363ffffffff611a7916565b1015610aaa576040805162461bcd60e51b815260206004820152600860248201526744455856323a204b60c01b604482015290519081900360640190fd5b5050610ab884848888611b2c565b60408051838152602081018390528082018d9052606081018c905290516001600160a01b038b169133917fd78ad95fa46c994b6551d0da85fc275fe613ce37657fb8d5e3d130840159d8229181900360800190a350506001600c55505050505050505050565b604051806040016040528060068152602001652222ac102b1960d11b81525081565b6008546001600160701b0380821692600160701b830490911691600160e01b900463ffffffff1690565b6000610b77338484611ced565b5060015b92915050565b6006546001600160a01b031681565b60005481565b6001600160a01b038316600090815260026020908152604080832033845290915281205460001914610c1b576001600160a01b0384166000908152600260209081526040808320338452909152902054610bf6908363ffffffff611adc16565b6001600160a01b03851660009081526002602090815260408083203384529091529020555b610c26848484611d4f565b5060019392505050565b7f6e71edae12b1b97f4d1f60370fef10105fa2faae0126114a169c64845d6126c981565b601281565b60035481565b6005546001600160a01b03163314610cb1576040805162461bcd60e51b815260206004820152601060248201526f2222ac2b191d102327a92124a22222a760811b604482015290519081900360640190fd5b600680546001600160a01b039384166001600160a01b03199182161790915560078054929093169116179055565b60095481565b600a5481565b6000600c54600114610d34576040805162461bcd60e51b815260206004820152600d60248201526c111156158c8e881313d0d2d151609a1b604482015290519081900360640190fd5b6000600c81905580610d44610b40565b50600654604080516370a0823160e01b815230600482015290519395509193506000926001600160a01b03909116916370a08231916024808301926020929190829003018186803b158015610d9857600080fd5b505afa158015610dac573d6000803e3d6000fd5b505050506040513d6020811015610dc257600080fd5b5051600754604080516370a0823160e01b815230600482015290519293506000926001600160a01b03909216916370a0823191602480820192602092909190829003018186803b158015610e1557600080fd5b505afa158015610e29573d6000803e3d6000fd5b505050506040513d6020811015610e3f57600080fd5b505190506000610e5e836001600160701b03871663ffffffff611adc16565b90506000610e7b836001600160701b03871663ffffffff611adc16565b90506000610e898787611e09565b60005490915080610ec657610eb26103e8610a07610ead878763ffffffff611a7916565b611f67565b9850610ec160006103e8611fb9565b610f15565b610f126001600160701b038916610ee3868463ffffffff611a7916565b81610eea57fe5b046001600160701b038916610f05868563ffffffff611a7916565b81610f0c57fe5b0461204f565b98505b60008911610f545760405162461bcd60e51b815260040180806020018281038252602481526020018061218c6024913960400191505060405180910390fd5b610f5e8a8a611fb9565b610f6a86868a8a611b2c565b8115610f9a57600854610f96906001600160701b0380821691600160701b90041663ffffffff611a7916565b600b555b6040805185815260208101859052815133927f4c209b5fc8ad50758f13e2e1088ba56a560dff690a1c6fef26394f4c03821c4f928290030190a250506001600c5550949695505050505050565b60016020526000908152604090205481565b600b5481565b60046020526000908152604090205481565b600080600c5460011461105b576040805162461bcd60e51b815260206004820152600d60248201526c111156158c8e881313d0d2d151609a1b604482015290519081900360640190fd5b6000600c8190558061106b610b40565b50600654600754604080516370a0823160e01b815230600482015290519496509294506001600160a01b039182169391169160009184916370a08231916024808301926020929190829003018186803b1580156110c757600080fd5b505afa1580156110db573d6000803e3d6000fd5b505050506040513d60208110156110f157600080fd5b5051604080516370a0823160e01b815230600482015290519192506000916001600160a01b038516916370a08231916024808301926020929190829003018186803b15801561113f57600080fd5b505afa158015611153573d6000803e3d6000fd5b505050506040513d602081101561116957600080fd5b5051306000908152600160205260408120549192506111888888611e09565b6000549091508061119f848763ffffffff611a7916565b816111a657fe5b049a50806111ba848663ffffffff611a7916565b816111c157fe5b04995060008b1180156111d4575060008a115b61120f5760405162461bcd60e51b81526004018080602001828103825260248152602001806121b06024913960400191505060405180910390fd5b6112193084612067565b611224878d8d6118e6565b61122f868d8c6118e6565b604080516370a0823160e01b815230600482015290516001600160a01b038916916370a08231916024808301926020929190829003018186803b15801561127557600080fd5b505afa158015611289573d6000803e3d6000fd5b505050506040513d602081101561129f57600080fd5b5051604080516370a0823160e01b815230600482015290519196506001600160a01b038816916370a0823191602480820192602092909190829003018186803b1580156112eb57600080fd5b505afa1580156112ff573d6000803e3d6000fd5b505050506040513d602081101561131557600080fd5b5051935061132585858b8b611b2c565b811561135557600854611351906001600160701b0380821691600160701b90041663ffffffff611a7916565b600b555b604080518c8152602081018c905281516001600160a01b038f169233927fdccd412f0b1252819cb1fd330b93224ca42612892bb3f4f789976e6d81936496929081900390910190a35050505050505050506001600c81905550915091565b604051806040016040528060068152602001652222ac16ab1960d11b81525081565b6000610b77338484611d4f565b6103e881565b600c5460011461142f576040805162461bcd60e51b815260206004820152600d60248201526c111156158c8e881313d0d2d151609a1b604482015290519081900360640190fd5b6000600c55600654600754600854604080516370a0823160e01b815230600482015290516001600160a01b0394851694909316926114de92859287926114d9926001600160701b03169185916370a0823191602480820192602092909190829003018186803b1580156114a157600080fd5b505afa1580156114b5573d6000803e3d6000fd5b505050506040513d60208110156114cb57600080fd5b50519063ffffffff611adc16565b6118e6565b600854604080516370a0823160e01b8152306004820152905161154592849287926114d992600160701b90046001600160701b0316916001600160a01b038616916370a0823191602480820192602092909190829003018186803b1580156114a157600080fd5b50506001600c5550565b6005546001600160a01b031681565b6007546001600160a01b031681565b428410156115b3576040805162461bcd60e51b815260206004820152600e60248201526d111156158c8e881156141254915160921b604482015290519081900360640190fd5b6003546001600160a01b0380891660008181526004602090815260408083208054600180820190925582517f6e71edae12b1b97f4d1f60370fef10105fa2faae0126114a169c64845d6126c98186015280840196909652958d166060860152608085018c905260a085019590955260c08085018b90528151808603909101815260e08501825280519083012061190160f01b6101008601526101028501969096526101228085019690965280518085039096018652610142840180825286519683019690962095839052610162840180825286905260ff89166101828501526101a284018890526101c28401879052519193926101e280820193601f1981019281900390910190855afa1580156116ce573d6000803e3d6000fd5b5050604051601f1901519150506001600160a01b038116158015906117045750886001600160a01b0316816001600160a01b0316145b611755576040805162461bcd60e51b815260206004820152601860248201527f44455856323a20494e56414c49445f5349474e41545552450000000000000000604482015290519081900360640190fd5b611760898989611ced565b505050505050505050565b600260209081526000928352604080842090915290825290205481565b600c546001146117cf576040805162461bcd60e51b815260206004820152600d60248201526c111156158c8e881313d0d2d151609a1b604482015290519081900360640190fd5b6000600c55600654604080516370a0823160e01b815230600482015290516118df926001600160a01b0316916370a08231916024808301926020929190829003018186803b15801561182057600080fd5b505afa158015611834573d6000803e3d6000fd5b505050506040513d602081101561184a57600080fd5b5051600754604080516370a0823160e01b815230600482015290516001600160a01b03909216916370a0823191602480820192602092909190829003018186803b15801561189757600080fd5b505afa1580156118ab573d6000803e3d6000fd5b505050506040513d60208110156118c157600080fd5b50516008546001600160701b0380821691600160701b900416611b2c565b6001600c55565b604080518082018252601981527f7472616e7366657228616464726573732c75696e74323536290000000000000060209182015281516001600160a01b0385811660248301526044808301869052845180840390910181526064909201845291810180516001600160e01b031663a9059cbb60e01b1781529251815160009460609489169392918291908083835b602083106119935780518252601f199092019160209182019101611974565b6001836020036101000a0380198251168184511680821785525050505050509050019150506000604051808303816000865af19150503d80600081146119f5576040519150601f19603f3d011682016040523d82523d6000602084013e6119fa565b606091505b5091509150818015611a28575080511580611a285750808060200190516020811015611a2557600080fd5b50515b611a72576040805162461bcd60e51b8152602060048201526016602482015275111156158c8e881514905394d1915497d1905253115160521b604482015290519081900360640190fd5b5050505050565b6000811580611a9457505080820282828281611a9157fe5b04145b610b7b576040805162461bcd60e51b815260206004820152601460248201527364732d6d6174682d6d756c2d6f766572666c6f7760601b604482015290519081900360640190fd5b80820382811115610b7b576040805162461bcd60e51b815260206004820152601560248201527464732d6d6174682d7375622d756e646572666c6f7760581b604482015290519081900360640190fd5b6001600160701b038411801590611b4a57506001600160701b038311155b611b8d576040805162461bcd60e51b815260206004820152600f60248201526e44455856323a204f564552464c4f5760881b604482015290519081900360640190fd5b60085463ffffffff42811691600160e01b90048116820390811615801590611bbd57506001600160701b03841615155b8015611bd157506001600160701b03831615155b15611c42578063ffffffff16611bff85611bea86612105565b6001600160e01b03169063ffffffff61211716565b600980546001600160e01b03929092169290920201905563ffffffff8116611c2a84611bea87612105565b600a80546001600160e01b0392909216929092020190555b600880546dffffffffffffffffffffffffffff19166001600160701b03888116919091176dffffffffffffffffffffffffffff60701b1916600160701b8883168102919091176001600160e01b0316600160e01b63ffffffff871602179283905560408051848416815291909304909116602082015281517f1c411e9a96e071241c2f21f7726b17ae89e3cab4c78be50e062b03a9fffbbad1929181900390910190a1505050505050565b6001600160a01b03808416600081815260026020908152604080832094871680845294825291829020859055815185815291517f8c5be1e5ebec7d5bd14f71427d1e84f3dd0314c0f7b2291e5b200ac8c7c3b9259281900390910190a3505050565b6001600160a01b038316600090815260016020526040902054611d78908263ffffffff611adc16565b6001600160a01b038085166000908152600160205260408082209390935590841681522054611dad908263ffffffff61213c16565b6001600160a01b0380841660008181526001602090815260409182902094909455805185815290519193928716927fddf252ad1be2c89b69c2b068fc378daa952ba7f163c4a11628f55a4df523b3ef92918290030190a3505050565b600080600560009054906101000a90046001600160a01b03166001600160a01b031663017e7e586040518163ffffffff1660e01b815260040160206040518083038186803b158015611e5a57600080fd5b505afa158015611e6e573d6000803e3d6000fd5b505050506040513d6020811015611e8457600080fd5b5051600b546001600160a01b038216158015945091925090611f53578015611f4e576000611ec7610ead6001600160701b0388811690881663ffffffff611a7916565b90506000611ed483611f67565b905080821115611f4b576000611f02611ef3848463ffffffff611adc16565b6000549063ffffffff611a7916565b90506000611f2783611f1b86600563ffffffff611a7916565b9063ffffffff61213c16565b90506000818381611f3457fe5b0490508015611f4757611f478782611fb9565b5050505b50505b611f5f565b8015611f5f576000600b555b505092915050565b60006003821115611faa575080600160028204015b81811015611fa457809150600281828581611f9357fe5b040181611f9c57fe5b049050611f7c565b50611fb4565b8115611fb4575060015b919050565b600054611fcc908263ffffffff61213c16565b60009081556001600160a01b038316815260016020526040902054611ff7908263ffffffff61213c16565b6001600160a01b03831660008181526001602090815260408083209490945583518581529351929391927fddf252ad1be2c89b69c2b068fc378daa952ba7f163c4a11628f55a4df523b3ef9281900390910190a35050565b600081831061205e5781612060565b825b9392505050565b6001600160a01b038216600090815260016020526040902054612090908263ffffffff611adc16565b6001600160a01b038316600090815260016020526040812091909155546120bd908263ffffffff611adc16565b60009081556040805183815290516001600160a01b038516917fddf252ad1be2c89b69c2b068fc378daa952ba7f163c4a11628f55a4df523b3ef919081900360200190a35050565b6001600160701b0316600160701b0290565b60006001600160701b0382166001600160e01b0384168161213457fe5b049392505050565b80820182811015610b7b576040805162461bcd60e51b815260206004820152601460248201527364732d6d6174682d6164642d6f766572666c6f7760601b604482015290519081900360640190fdfe44455856323a20494e53554646494349454e545f4c49515549444954595f4d494e54454444455856323a20494e53554646494349454e545f4c49515549444954595f4255524e454444455856323a20494e53554646494349454e545f4f55545055545f414d4f554e54a265627a7a72315820e3957a0c2f24a7b870a55c31b799734d7d69ec785597bb447b9413a22cfd209464736f6c63430005100032454950373132446f6d61696e28737472696e67206e616d652c737472696e672076657273696f6e2c75696e7432353620636861696e49642c6164647265737320766572696679696e67436f6e747261637429a265627a7a72315820f5f56aa351d4413f9b394163a7a7b4dfd9426a43363cc3cdc277c0fe3e383a0b64736f6c63430005100032",
					"opcodes": "PUSH1 0x80 PUSH1 0x40 MSTORE CALLVALUE DUP1 ISZERO PUSH2 0x10 JUMPI PUSH1 0x0 DUP1 REVERT JUMPDEST POP PUSH1 0x40 MLOAD PUSH2 0x2ADD CODESIZE SUB DUP1 PUSH2 0x2ADD DUP4 CODECOPY DUP2 DUP2 ADD PUSH1 0x40 MSTORE PUSH1 0x20 DUP2 LT ISZERO PUSH2 0x33 JUMPI PUSH1 0x0 DUP1 REVERT JUMPDEST POP MLOAD PUSH1 0x1 DUP1 SLOAD PUSH1 0x1 PUSH1 0x1 PUSH1 0xA0 SHL SUB NOT AND PUSH1 0x1 PUSH1 0x1 PUSH1 0xA0 SHL SUB SWAP1 SWAP3 AND SWAP2 SWAP1 SWAP2 OR SWAP1 SSTORE PUSH2 0x2A7A DUP1 PUSH2 0x63 PUSH1 0x0 CODECOPY PUSH1 0x0 RETURN INVALID PUSH1 0x80 PUSH1 0x40 MSTORE CALLVALUE DUP1 ISZERO PUSH2 0x10 JUMPI PUSH1 0x0 DUP1 REVERT JUMPDEST POP PUSH1 0x4 CALLDATASIZE LT PUSH2 0x93 JUMPI PUSH1 0x0 CALLDATALOAD PUSH1 0xE0 SHR DUP1 PUSH4 0x574F2BA3 GT PUSH2 0x66 JUMPI DUP1 PUSH4 0x574F2BA3 EQ PUSH2 0xFB JUMPI DUP1 PUSH4 0xA2E74AF6 EQ PUSH2 0x103 JUMPI DUP1 PUSH4 0xC9C65396 EQ PUSH2 0x12B JUMPI DUP1 PUSH4 0xE6A43905 EQ PUSH2 0x159 JUMPI DUP1 PUSH4 0xF46901ED EQ PUSH2 0x187 JUMPI PUSH2 0x93 JUMP JUMPDEST DUP1 PUSH4 0x17E7E58 EQ PUSH2 0x98 JUMPI DUP1 PUSH4 0x94B7415 EQ PUSH2 0xBC JUMPI DUP1 PUSH4 0x1E3DD18B EQ PUSH2 0xC4 JUMPI DUP1 PUSH4 0x257671F5 EQ PUSH2 0xE1 JUMPI JUMPDEST PUSH1 0x0 DUP1 REVERT JUMPDEST PUSH2 0xA0 PUSH2 0x1AD JUMP JUMPDEST PUSH1 0x40 DUP1 MLOAD PUSH1 0x1 PUSH1 0x1 PUSH1 0xA0 SHL SUB SWAP1 SWAP3 AND DUP3 MSTORE MLOAD SWAP1 DUP2 SWAP1 SUB PUSH1 0x20 ADD SWAP1 RETURN JUMPDEST PUSH2 0xA0 PUSH2 0x1BC JUMP JUMPDEST PUSH2 0xA0 PUSH1 0x4 DUP1 CALLDATASIZE SUB PUSH1 0x20 DUP2 LT ISZERO PUSH2 0xDA JUMPI PUSH1 0x0 DUP1 REVERT JUMPDEST POP CALLDATALOAD PUSH2 0x1CB JUMP JUMPDEST PUSH2 0xE9 PUSH2 0x1F2 JUMP JUMPDEST PUSH1 0x40 DUP1 MLOAD SWAP2 DUP3 MSTORE MLOAD SWAP1 DUP2 SWAP1 SUB PUSH1 0x20 ADD SWAP1 RETURN JUMPDEST PUSH2 0xE9 PUSH2 0x285 JUMP JUMPDEST PUSH2 0x129 PUSH1 0x4 DUP1 CALLDATASIZE SUB PUSH1 0x20 DUP2 LT ISZERO PUSH2 0x119 JUMPI PUSH1 0x0 DUP1 REVERT JUMPDEST POP CALLDATALOAD PUSH1 0x1 PUSH1 0x1 PUSH1 0xA0 SHL SUB AND PUSH2 0x28B JUMP JUMPDEST STOP JUMPDEST PUSH2 0xA0 PUSH1 0x4 DUP1 CALLDATASIZE SUB PUSH1 0x40 DUP2 LT ISZERO PUSH2 0x141 JUMPI PUSH1 0x0 DUP1 REVERT JUMPDEST POP PUSH1 0x1 PUSH1 0x1 PUSH1 0xA0 SHL SUB DUP2 CALLDATALOAD DUP2 AND SWAP2 PUSH1 0x20 ADD CALLDATALOAD AND PUSH2 0x2FF JUMP JUMPDEST PUSH2 0xA0 PUSH1 0x4 DUP1 CALLDATASIZE SUB PUSH1 0x40 DUP2 LT ISZERO PUSH2 0x16F JUMPI PUSH1 0x0 DUP1 REVERT JUMPDEST POP PUSH1 0x1 PUSH1 0x1 PUSH1 0xA0 SHL SUB DUP2 CALLDATALOAD DUP2 AND SWAP2 PUSH1 0x20 ADD CALLDATALOAD AND PUSH2 0x622 JUMP JUMPDEST PUSH2 0x129 PUSH1 0x4 DUP1 CALLDATASIZE SUB PUSH1 0x20 DUP2 LT ISZERO PUSH2 0x19D JUMPI PUSH1 0x0 DUP1 REVERT JUMPDEST POP CALLDATALOAD PUSH1 0x1 PUSH1 0x1 PUSH1 0xA0 SHL SUB AND PUSH2 0x648 JUMP JUMPDEST PUSH1 0x0 SLOAD PUSH1 0x1 PUSH1 0x1 PUSH1 0xA0 SHL SUB AND DUP2 JUMP JUMPDEST PUSH1 0x1 SLOAD PUSH1 0x1 PUSH1 0x1 PUSH1 0xA0 SHL SUB AND DUP2 JUMP JUMPDEST PUSH1 0x3 DUP2 DUP2 SLOAD DUP2 LT PUSH2 0x1D8 JUMPI INVALID JUMPDEST PUSH1 0x0 SWAP2 DUP3 MSTORE PUSH1 0x20 SWAP1 SWAP2 KECCAK256 ADD SLOAD PUSH1 0x1 PUSH1 0x1 PUSH1 0xA0 SHL SUB AND SWAP1 POP DUP2 JUMP JUMPDEST PUSH1 0x40 MLOAD PUSH2 0x201 PUSH1 0x20 DUP3 ADD PUSH2 0x6BC JUMP JUMPDEST PUSH1 0x20 DUP3 ADD DUP2 SUB DUP3 MSTORE PUSH1 0x1F NOT PUSH1 0x1F DUP3 ADD AND PUSH1 0x40 MSTORE POP PUSH1 0x40 MLOAD PUSH1 0x20 ADD DUP1 DUP3 DUP1 MLOAD SWAP1 PUSH1 0x20 ADD SWAP1 DUP1 DUP4 DUP4 JUMPDEST PUSH1 0x20 DUP4 LT PUSH2 0x247 JUMPI DUP1 MLOAD DUP3 MSTORE PUSH1 0x1F NOT SWAP1 SWAP3 ADD SWAP2 PUSH1 0x20 SWAP2 DUP3 ADD SWAP2 ADD PUSH2 0x228 JUMP JUMPDEST PUSH1 0x1 DUP4 PUSH1 0x20 SUB PUSH2 0x100 EXP SUB DUP1 NOT DUP3 MLOAD AND DUP2 DUP5 MLOAD AND DUP1 DUP3 OR DUP6 MSTORE POP POP POP POP POP POP SWAP1 POP ADD SWAP2 POP POP PUSH1 0x40 MLOAD PUSH1 0x20 DUP2 DUP4 SUB SUB DUP2 MSTORE SWAP1 PUSH1 0x40 MSTORE DUP1 MLOAD SWAP1 PUSH1 0x20 ADD KECCAK256 DUP2 JUMP JUMPDEST PUSH1 0x3 SLOAD SWAP1 JUMP JUMPDEST PUSH1 0x1 SLOAD PUSH1 0x1 PUSH1 0x1 PUSH1 0xA0 SHL SUB AND CALLER EQ PUSH2 0x2DD JUMPI PUSH1 0x40 DUP1 MLOAD PUSH3 0x461BCD PUSH1 0xE5 SHL DUP2 MSTORE PUSH1 0x20 PUSH1 0x4 DUP3 ADD MSTORE PUSH1 0x10 PUSH1 0x24 DUP3 ADD MSTORE PUSH16 0x2222AC2B191D102327A92124A22222A7 PUSH1 0x81 SHL PUSH1 0x44 DUP3 ADD MSTORE SWAP1 MLOAD SWAP1 DUP2 SWAP1 SUB PUSH1 0x64 ADD SWAP1 REVERT JUMPDEST PUSH1 0x1 DUP1 SLOAD PUSH1 0x1 PUSH1 0x1 PUSH1 0xA0 SHL SUB NOT AND PUSH1 0x1 PUSH1 0x1 PUSH1 0xA0 SHL SUB SWAP3 SWAP1 SWAP3 AND SWAP2 SWAP1 SWAP2 OR SWAP1 SSTORE JUMP JUMPDEST PUSH1 0x0 DUP2 PUSH1 0x1 PUSH1 0x1 PUSH1 0xA0 SHL SUB AND DUP4 PUSH1 0x1 PUSH1 0x1 PUSH1 0xA0 SHL SUB AND EQ ISZERO PUSH2 0x368 JUMPI PUSH1 0x40 DUP1 MLOAD PUSH3 0x461BCD PUSH1 0xE5 SHL DUP2 MSTORE PUSH1 0x20 PUSH1 0x4 DUP3 ADD MSTORE PUSH1 0x1A PUSH1 0x24 DUP3 ADD MSTORE PUSH32 0x44455856323A204944454E544943414C5F414444524553534553000000000000 PUSH1 0x44 DUP3 ADD MSTORE SWAP1 MLOAD SWAP1 DUP2 SWAP1 SUB PUSH1 0x64 ADD SWAP1 REVERT JUMPDEST PUSH1 0x0 DUP1 DUP4 PUSH1 0x1 PUSH1 0x1 PUSH1 0xA0 SHL SUB AND DUP6 PUSH1 0x1 PUSH1 0x1 PUSH1 0xA0 SHL SUB AND LT PUSH2 0x38B JUMPI DUP4 DUP6 PUSH2 0x38E JUMP JUMPDEST DUP5 DUP5 JUMPDEST SWAP1 SWAP3 POP SWAP1 POP PUSH1 0x1 PUSH1 0x1 PUSH1 0xA0 SHL SUB DUP3 AND PUSH2 0x3E4 JUMPI PUSH1 0x40 DUP1 MLOAD PUSH3 0x461BCD PUSH1 0xE5 SHL DUP2 MSTORE PUSH1 0x20 PUSH1 0x4 DUP3 ADD MSTORE PUSH1 0x13 PUSH1 0x24 DUP3 ADD MSTORE PUSH19 0x44455856323A205A45524F5F41444452455353 PUSH1 0x68 SHL PUSH1 0x44 DUP3 ADD MSTORE SWAP1 MLOAD SWAP1 DUP2 SWAP1 SUB PUSH1 0x64 ADD SWAP1 REVERT JUMPDEST PUSH1 0x1 PUSH1 0x1 PUSH1 0xA0 SHL SUB DUP3 DUP2 AND PUSH1 0x0 SWAP1 DUP2 MSTORE PUSH1 0x2 PUSH1 0x20 SWAP1 DUP2 MSTORE PUSH1 0x40 DUP1 DUP4 KECCAK256 DUP6 DUP6 AND DUP5 MSTORE SWAP1 SWAP2 MSTORE SWAP1 KECCAK256 SLOAD AND ISZERO PUSH2 0x453 JUMPI PUSH1 0x40 DUP1 MLOAD PUSH3 0x461BCD PUSH1 0xE5 SHL DUP2 MSTORE PUSH1 0x20 PUSH1 0x4 DUP3 ADD MSTORE PUSH1 0x12 PUSH1 0x24 DUP3 ADD MSTORE PUSH18 0x44455856323A20504149525F455849535453 PUSH1 0x70 SHL PUSH1 0x44 DUP3 ADD MSTORE SWAP1 MLOAD SWAP1 DUP2 SWAP1 SUB PUSH1 0x64 ADD SWAP1 REVERT JUMPDEST PUSH1 0x60 PUSH1 0x40 MLOAD DUP1 PUSH1 0x20 ADD PUSH2 0x465 SWAP1 PUSH2 0x6BC JUMP JUMPDEST PUSH1 0x20 DUP3 ADD DUP2 SUB DUP3 MSTORE PUSH1 0x1F NOT PUSH1 0x1F DUP3 ADD AND PUSH1 0x40 MSTORE POP SWAP1 POP PUSH1 0x0 DUP4 DUP4 PUSH1 0x40 MLOAD PUSH1 0x20 ADD DUP1 DUP4 PUSH1 0x1 PUSH1 0x1 PUSH1 0xA0 SHL SUB AND PUSH1 0x1 PUSH1 0x1 PUSH1 0xA0 SHL SUB AND PUSH1 0x60 SHL DUP2 MSTORE PUSH1 0x14 ADD DUP3 PUSH1 0x1 PUSH1 0x1 PUSH1 0xA0 SHL SUB AND PUSH1 0x1 PUSH1 0x1 PUSH1 0xA0 SHL SUB AND PUSH1 0x60 SHL DUP2 MSTORE PUSH1 0x14 ADD SWAP3 POP POP POP PUSH1 0x40 MLOAD PUSH1 0x20 DUP2 DUP4 SUB SUB DUP2 MSTORE SWAP1 PUSH1 0x40 MSTORE DUP1 MLOAD SWAP1 PUSH1 0x20 ADD KECCAK256 SWAP1 POP DUP1 DUP3 MLOAD PUSH1 0x20 DUP5 ADD PUSH1 0x0 CREATE2 PUSH1 0x40 DUP1 MLOAD PUSH4 0x485CC955 PUSH1 0xE0 SHL DUP2 MSTORE PUSH1 0x1 PUSH1 0x1 PUSH1 0xA0 SHL SUB DUP8 DUP2 AND PUSH1 0x4 DUP4 ADD MSTORE DUP7 DUP2 AND PUSH1 0x24 DUP4 ADD MSTORE SWAP2 MLOAD SWAP3 SWAP8 POP SWAP1 DUP8 AND SWAP2 PUSH4 0x485CC955 SWAP2 PUSH1 0x44 DUP1 DUP3 ADD SWAP3 PUSH1 0x0 SWAP3 SWAP1 SWAP2 SWAP1 DUP3 SWAP1 SUB ADD DUP2 DUP4 DUP8 DUP1 EXTCODESIZE ISZERO DUP1 ISZERO PUSH2 0x538 JUMPI PUSH1 0x0 DUP1 REVERT JUMPDEST POP GAS CALL ISZERO DUP1 ISZERO PUSH2 0x54C JUMPI RETURNDATASIZE PUSH1 0x0 DUP1 RETURNDATACOPY RETURNDATASIZE PUSH1 0x0 REVERT JUMPDEST POP POP POP POP PUSH1 0x1 PUSH1 0x1 PUSH1 0xA0 SHL SUB DUP5 DUP2 AND PUSH1 0x0 DUP2 DUP2 MSTORE PUSH1 0x2 PUSH1 0x20 DUP2 DUP2 MSTORE PUSH1 0x40 DUP1 DUP5 KECCAK256 DUP10 DUP8 AND DUP1 DUP7 MSTORE SWAP1 DUP4 MSTORE DUP2 DUP6 KECCAK256 DUP1 SLOAD SWAP8 DUP14 AND PUSH1 0x1 PUSH1 0x1 PUSH1 0xA0 SHL SUB NOT SWAP9 DUP10 AND DUP2 OR SWAP1 SWAP2 SSTORE SWAP4 DUP4 MSTORE DUP2 DUP6 KECCAK256 DUP7 DUP7 MSTORE DUP4 MSTORE DUP2 DUP6 KECCAK256 DUP1 SLOAD DUP9 AND DUP6 OR SWAP1 SSTORE PUSH1 0x3 DUP1 SLOAD PUSH1 0x1 DUP2 ADD DUP3 SSTORE SWAP6 DUP2 SWAP1 MSTORE PUSH32 0xC2575A0E9E593C00F959F8C92F12DB2869C3395A3B0502D05E2516446F71F85B SWAP1 SWAP6 ADD DUP1 SLOAD SWAP1 SWAP8 AND DUP5 OR SWAP1 SWAP7 SSTORE SWAP3 SLOAD DUP4 MLOAD SWAP3 DUP4 MSTORE SWAP1 DUP3 ADD MSTORE DUP2 MLOAD PUSH32 0xD3648BD0F6BA80134A33BA9275AC585D9D315F0AD8355CDDEFDE31AFA28D0E9 SWAP3 SWAP2 DUP2 SWAP1 SUB SWAP1 SWAP2 ADD SWAP1 LOG3 POP POP POP POP SWAP3 SWAP2 POP POP JUMP JUMPDEST PUSH1 0x2 PUSH1 0x20 SWAP1 DUP2 MSTORE PUSH1 0x0 SWAP3 DUP4 MSTORE PUSH1 0x40 DUP1 DUP5 KECCAK256 SWAP1 SWAP2 MSTORE SWAP1 DUP3 MSTORE SWAP1 KECCAK256 SLOAD PUSH1 0x1 PUSH1 0x1 PUSH1 0xA0 SHL SUB AND DUP2 JUMP JUMPDEST PUSH1 0x1 SLOAD PUSH1 0x1 PUSH1 0x1 PUSH1 0xA0 SHL SUB AND CALLER EQ PUSH2 0x69A JUMPI PUSH1 0x40 DUP1 MLOAD PUSH3 0x461BCD PUSH1 0xE5 SHL DUP2 MSTORE PUSH1 0x20 PUSH1 0x4 DUP3 ADD MSTORE PUSH1 0x10 PUSH1 0x24 DUP3 ADD MSTORE PUSH16 0x2222AC2B191D102327A92124A22222A7 PUSH1 0x81 SHL PUSH1 0x44 DUP3 ADD MSTORE SWAP1 MLOAD SWAP1 DUP2 SWAP1 SUB PUSH1 0x64 ADD SWAP1 REVERT JUMPDEST PUSH1 0x0 DUP1 SLOAD PUSH1 0x1 PUSH1 0x1 PUSH1 0xA0 SHL SUB NOT AND PUSH1 0x1 PUSH1 0x1 PUSH1 0xA0 SHL SUB SWAP3 SWAP1 SWAP3 AND SWAP2 SWAP1 SWAP2 OR SWAP1 SSTORE JUMP JUMPDEST PUSH2 0x237C DUP1 PUSH2 0x6CA DUP4 CODECOPY ADD SWAP1 JUMP INVALID PUSH1 0x80 PUSH1 0x40 MSTORE PUSH1 0x1 PUSH1 0xC SSTORE CALLVALUE DUP1 ISZERO PUSH2 0x15 JUMPI PUSH1 0x0 DUP1 REVERT JUMPDEST POP PUSH1 0x40 MLOAD CHAINID SWAP1 DUP1 PUSH1 0x52 PUSH2 0x232A DUP3 CODECOPY PUSH1 0x40 DUP1 MLOAD SWAP2 DUP3 SWAP1 SUB PUSH1 0x52 ADD DUP3 KECCAK256 DUP3 DUP3 ADD DUP3 MSTORE PUSH1 0x6 DUP4 MSTORE PUSH6 0x2222AC102B19 PUSH1 0xD1 SHL PUSH1 0x20 SWAP4 DUP5 ADD MSTORE DUP2 MLOAD DUP1 DUP4 ADD DUP4 MSTORE PUSH1 0x1 DUP2 MSTORE PUSH1 0x31 PUSH1 0xF8 SHL SWAP1 DUP5 ADD MSTORE DUP2 MLOAD DUP1 DUP5 ADD SWAP2 SWAP1 SWAP2 MSTORE PUSH32 0xC1C10DCBA44900605795C0D4B2D4C7476E8679A18B4C003D4FB30B906D50EF31 DUP2 DUP4 ADD MSTORE PUSH32 0xC89EFDAA54C0F20C7ADF612882DF0950F5A951637E0307CDCB4C672F298B8BC6 PUSH1 0x60 DUP3 ADD MSTORE PUSH1 0x80 DUP2 ADD SWAP5 SWAP1 SWAP5 MSTORE ADDRESS PUSH1 0xA0 DUP1 DUP7 ADD SWAP2 SWAP1 SWAP2 MSTORE DUP2 MLOAD DUP1 DUP7 SUB SWAP1 SWAP2 ADD DUP2 MSTORE PUSH1 0xC0 SWAP1 SWAP5 ADD SWAP1 MSTORE DUP3 MLOAD SWAP3 ADD SWAP2 SWAP1 SWAP2 KECCAK256 PUSH1 0x3 SSTORE POP PUSH1 0x5 DUP1 SLOAD PUSH1 0x1 PUSH1 0x1 PUSH1 0xA0 SHL SUB NOT AND CALLER OR SWAP1 SSTORE PUSH2 0x2229 DUP1 PUSH2 0x101 PUSH1 0x0 CODECOPY PUSH1 0x0 RETURN INVALID PUSH1 0x80 PUSH1 0x40 MSTORE CALLVALUE DUP1 ISZERO PUSH2 0x10 JUMPI PUSH1 0x0 DUP1 REVERT JUMPDEST POP PUSH1 0x4 CALLDATASIZE LT PUSH2 0x1A9 JUMPI PUSH1 0x0 CALLDATALOAD PUSH1 0xE0 SHR DUP1 PUSH4 0x6A627842 GT PUSH2 0xF9 JUMPI DUP1 PUSH4 0xBA9A7A56 GT PUSH2 0x97 JUMPI DUP1 PUSH4 0xD21220A7 GT PUSH2 0x71 JUMPI DUP1 PUSH4 0xD21220A7 EQ PUSH2 0x534 JUMPI DUP1 PUSH4 0xD505ACCF EQ PUSH2 0x53C JUMPI DUP1 PUSH4 0xDD62ED3E EQ PUSH2 0x58D JUMPI DUP1 PUSH4 0xFFF6CAE9 EQ PUSH2 0x5BB JUMPI PUSH2 0x1A9 JUMP JUMPDEST DUP1 PUSH4 0xBA9A7A56 EQ PUSH2 0x4FE JUMPI DUP1 PUSH4 0xBC25CF77 EQ PUSH2 0x506 JUMPI DUP1 PUSH4 0xC45A0155 EQ PUSH2 0x52C JUMPI PUSH2 0x1A9 JUMP JUMPDEST DUP1 PUSH4 0x7ECEBE00 GT PUSH2 0xD3 JUMPI DUP1 PUSH4 0x7ECEBE00 EQ PUSH2 0x465 JUMPI DUP1 PUSH4 0x89AFCB44 EQ PUSH2 0x48B JUMPI DUP1 PUSH4 0x95D89B41 EQ PUSH2 0x4CA JUMPI DUP1 PUSH4 0xA9059CBB EQ PUSH2 0x4D2 JUMPI PUSH2 0x1A9 JUMP JUMPDEST DUP1 PUSH4 0x6A627842 EQ PUSH2 0x411 JUMPI DUP1 PUSH4 0x70A08231 EQ PUSH2 0x437 JUMPI DUP1 PUSH4 0x7464FC3D EQ PUSH2 0x45D JUMPI PUSH2 0x1A9 JUMP JUMPDEST DUP1 PUSH4 0x23B872DD GT PUSH2 0x166 JUMPI DUP1 PUSH4 0x3644E515 GT PUSH2 0x140 JUMPI DUP1 PUSH4 0x3644E515 EQ PUSH2 0x3CB JUMPI DUP1 PUSH4 0x485CC955 EQ PUSH2 0x3D3 JUMPI DUP1 PUSH4 0x5909C0D5 EQ PUSH2 0x401 JUMPI DUP1 PUSH4 0x5A3D5493 EQ PUSH2 0x409 JUMPI PUSH2 0x1A9 JUMP JUMPDEST DUP1 PUSH4 0x23B872DD EQ PUSH2 0x36F JUMPI DUP1 PUSH4 0x30ADF81F EQ PUSH2 0x3A5 JUMPI DUP1 PUSH4 0x313CE567 EQ PUSH2 0x3AD JUMPI PUSH2 0x1A9 JUMP JUMPDEST DUP1 PUSH4 0x22C0D9F EQ PUSH2 0x1AE JUMPI DUP1 PUSH4 0x6FDDE03 EQ PUSH2 0x23C JUMPI DUP1 PUSH4 0x902F1AC EQ PUSH2 0x2B9 JUMPI DUP1 PUSH4 0x95EA7B3 EQ PUSH2 0x2F1 JUMPI DUP1 PUSH4 0xDFE1681 EQ PUSH2 0x331 JUMPI DUP1 PUSH4 0x18160DDD EQ PUSH2 0x355 JUMPI JUMPDEST PUSH1 0x0 DUP1 REVERT JUMPDEST PUSH2 0x23A PUSH1 0x4 DUP1 CALLDATASIZE SUB PUSH1 0x80 DUP2 LT ISZERO PUSH2 0x1C4 JUMPI PUSH1 0x0 DUP1 REVERT JUMPDEST DUP2 CALLDATALOAD SWAP2 PUSH1 0x20 DUP2 ADD CALLDATALOAD SWAP2 PUSH1 0x1 PUSH1 0x1 PUSH1 0xA0 SHL SUB PUSH1 0x40 DUP4 ADD CALLDATALOAD AND SWAP2 SWAP1 DUP2 ADD SWAP1 PUSH1 0x80 DUP2 ADD PUSH1 0x60 DUP3 ADD CALLDATALOAD PUSH5 0x100000000 DUP2 GT ISZERO PUSH2 0x1FB JUMPI PUSH1 0x0 DUP1 REVERT JUMPDEST DUP3 ADD DUP4 PUSH1 0x20 DUP3 ADD GT ISZERO PUSH2 0x20D JUMPI PUSH1 0x0 DUP1 REVERT JUMPDEST DUP1 CALLDATALOAD SWAP1 PUSH1 0x20 ADD SWAP2 DUP5 PUSH1 0x1 DUP4 MUL DUP5 ADD GT PUSH5 0x100000000 DUP4 GT OR ISZERO PUSH2 0x22F JUMPI PUSH1 0x0 DUP1 REVERT JUMPDEST POP SWAP1 SWAP3 POP SWAP1 POP PUSH2 0x5C3 JUMP JUMPDEST STOP JUMPDEST PUSH2 0x244 PUSH2 0xB1E JUMP JUMPDEST PUSH1 0x40 DUP1 MLOAD PUSH1 0x20 DUP1 DUP3 MSTORE DUP4 MLOAD DUP2 DUP4 ADD MSTORE DUP4 MLOAD SWAP2 SWAP3 DUP4 SWAP3 SWAP1 DUP4 ADD SWAP2 DUP6 ADD SWAP1 DUP1 DUP4 DUP4 PUSH1 0x0 JUMPDEST DUP4 DUP2 LT ISZERO PUSH2 0x27E JUMPI DUP2 DUP2 ADD MLOAD DUP4 DUP3 ADD MSTORE PUSH1 0x20 ADD PUSH2 0x266 JUMP JUMPDEST POP POP POP POP SWAP1 POP SWAP1 DUP2 ADD SWAP1 PUSH1 0x1F AND DUP1 ISZERO PUSH2 0x2AB JUMPI DUP1 DUP3 SUB DUP1 MLOAD PUSH1 0x1 DUP4 PUSH1 0x20 SUB PUSH2 0x100 EXP SUB NOT AND DUP2 MSTORE PUSH1 0x20 ADD SWAP2 POP JUMPDEST POP SWAP3 POP POP POP PUSH1 0x40 MLOAD DUP1 SWAP2 SUB SWAP1 RETURN JUMPDEST PUSH2 0x2C1 PUSH2 0xB40 JUMP JUMPDEST PUSH1 0x40 DUP1 MLOAD PUSH1 0x1 PUSH1 0x1 PUSH1 0x70 SHL SUB SWAP5 DUP6 AND DUP2 MSTORE SWAP3 SWAP1 SWAP4 AND PUSH1 0x20 DUP4 ADD MSTORE PUSH4 0xFFFFFFFF AND DUP2 DUP4 ADD MSTORE SWAP1 MLOAD SWAP1 DUP2 SWAP1 SUB PUSH1 0x60 ADD SWAP1 RETURN JUMPDEST PUSH2 0x31D PUSH1 0x4 DUP1 CALLDATASIZE SUB PUSH1 0x40 DUP2 LT ISZERO PUSH2 0x307 JUMPI PUSH1 0x0 DUP1 REVERT JUMPDEST POP PUSH1 0x1 PUSH1 0x1 PUSH1 0xA0 SHL SUB DUP2 CALLDATALOAD AND SWAP1 PUSH1 0x20 ADD CALLDATALOAD PUSH2 0xB6A JUMP JUMPDEST PUSH1 0x40 DUP1 MLOAD SWAP2 ISZERO ISZERO DUP3 MSTORE MLOAD SWAP1 DUP2 SWAP1 SUB PUSH1 0x20 ADD SWAP1 RETURN JUMPDEST PUSH2 0x339 PUSH2 0xB81 JUMP JUMPDEST PUSH1 0x40 DUP1 MLOAD PUSH1 0x1 PUSH1 0x1 PUSH1 0xA0 SHL SUB SWAP1 SWAP3 AND DUP3 MSTORE MLOAD SWAP1 DUP2 SWAP1 SUB PUSH1 0x20 ADD SWAP1 RETURN JUMPDEST PUSH2 0x35D PUSH2 0xB90 JUMP JUMPDEST PUSH1 0x40 DUP1 MLOAD SWAP2 DUP3 MSTORE MLOAD SWAP1 DUP2 SWAP1 SUB PUSH1 0x20 ADD SWAP1 RETURN JUMPDEST PUSH2 0x31D PUSH1 0x4 DUP1 CALLDATASIZE SUB PUSH1 0x60 DUP2 LT ISZERO PUSH2 0x385 JUMPI PUSH1 0x0 DUP1 REVERT JUMPDEST POP PUSH1 0x1 PUSH1 0x1 PUSH1 0xA0 SHL SUB DUP2 CALLDATALOAD DUP2 AND SWAP2 PUSH1 0x20 DUP2 ADD CALLDATALOAD SWAP1 SWAP2 AND SWAP1 PUSH1 0x40 ADD CALLDATALOAD PUSH2 0xB96 JUMP JUMPDEST PUSH2 0x35D PUSH2 0xC30 JUMP JUMPDEST PUSH2 0x3B5 PUSH2 0xC54 JUMP JUMPDEST PUSH1 0x40 DUP1 MLOAD PUSH1 0xFF SWAP1 SWAP3 AND DUP3 MSTORE MLOAD SWAP1 DUP2 SWAP1 SUB PUSH1 0x20 ADD SWAP1 RETURN JUMPDEST PUSH2 0x35D PUSH2 0xC59 JUMP JUMPDEST PUSH2 0x23A PUSH1 0x4 DUP1 CALLDATASIZE SUB PUSH1 0x40 DUP2 LT ISZERO PUSH2 0x3E9 JUMPI PUSH1 0x0 DUP1 REVERT JUMPDEST POP PUSH1 0x1 PUSH1 0x1 PUSH1 0xA0 SHL SUB DUP2 CALLDATALOAD DUP2 AND SWAP2 PUSH1 0x20 ADD CALLDATALOAD AND PUSH2 0xC5F JUMP JUMPDEST PUSH2 0x35D PUSH2 0xCDF JUMP JUMPDEST PUSH2 0x35D PUSH2 0xCE5 JUMP JUMPDEST PUSH2 0x35D PUSH1 0x4 DUP1 CALLDATASIZE SUB PUSH1 0x20 DUP2 LT ISZERO PUSH2 0x427 JUMPI PUSH1 0x0 DUP1 REVERT JUMPDEST POP CALLDATALOAD PUSH1 0x1 PUSH1 0x1 PUSH1 0xA0 SHL SUB AND PUSH2 0xCEB JUMP JUMPDEST PUSH2 0x35D PUSH1 0x4 DUP1 CALLDATASIZE SUB PUSH1 0x20 DUP2 LT ISZERO PUSH2 0x44D JUMPI PUSH1 0x0 DUP1 REVERT JUMPDEST POP CALLDATALOAD PUSH1 0x1 PUSH1 0x1 PUSH1 0xA0 SHL SUB AND PUSH2 0xFE7 JUMP JUMPDEST PUSH2 0x35D PUSH2 0xFF9 JUMP JUMPDEST PUSH2 0x35D PUSH1 0x4 DUP1 CALLDATASIZE SUB PUSH1 0x20 DUP2 LT ISZERO PUSH2 0x47B JUMPI PUSH1 0x0 DUP1 REVERT JUMPDEST POP CALLDATALOAD PUSH1 0x1 PUSH1 0x1 PUSH1 0xA0 SHL SUB AND PUSH2 0xFFF JUMP JUMPDEST PUSH2 0x4B1 PUSH1 0x4 DUP1 CALLDATASIZE SUB PUSH1 0x20 DUP2 LT ISZERO PUSH2 0x4A1 JUMPI PUSH1 0x0 DUP1 REVERT JUMPDEST POP CALLDATALOAD PUSH1 0x1 PUSH1 0x1 PUSH1 0xA0 SHL SUB AND PUSH2 0x1011 JUMP JUMPDEST PUSH1 0x40 DUP1 MLOAD SWAP3 DUP4 MSTORE PUSH1 0x20 DUP4 ADD SWAP2 SWAP1 SWAP2 MSTORE DUP1 MLOAD SWAP2 DUP3 SWAP1 SUB ADD SWAP1 RETURN JUMPDEST PUSH2 0x244 PUSH2 0x13B3 JUMP JUMPDEST PUSH2 0x31D PUSH1 0x4 DUP1 CALLDATASIZE SUB PUSH1 0x40 DUP2 LT ISZERO PUSH2 0x4E8 JUMPI PUSH1 0x0 DUP1 REVERT JUMPDEST POP PUSH1 0x1 PUSH1 0x1 PUSH1 0xA0 SHL SUB DUP2 CALLDATALOAD AND SWAP1 PUSH1 0x20 ADD CALLDATALOAD PUSH2 0x13D5 JUMP JUMPDEST PUSH2 0x35D PUSH2 0x13E2 JUMP JUMPDEST PUSH2 0x23A PUSH1 0x4 DUP1 CALLDATASIZE SUB PUSH1 0x20 DUP2 LT ISZERO PUSH2 0x51C JUMPI PUSH1 0x0 DUP1 REVERT JUMPDEST POP CALLDATALOAD PUSH1 0x1 PUSH1 0x1 PUSH1 0xA0 SHL SUB AND PUSH2 0x13E8 JUMP JUMPDEST PUSH2 0x339 PUSH2 0x154F JUMP JUMPDEST PUSH2 0x339 PUSH2 0x155E JUMP JUMPDEST PUSH2 0x23A PUSH1 0x4 DUP1 CALLDATASIZE SUB PUSH1 0xE0 DUP2 LT ISZERO PUSH2 0x552 JUMPI PUSH1 0x0 DUP1 REVERT JUMPDEST POP PUSH1 0x1 PUSH1 0x1 PUSH1 0xA0 SHL SUB DUP2 CALLDATALOAD DUP2 AND SWAP2 PUSH1 0x20 DUP2 ADD CALLDATALOAD SWAP1 SWAP2 AND SWAP1 PUSH1 0x40 DUP2 ADD CALLDATALOAD SWAP1 PUSH1 0x60 DUP2 ADD CALLDATALOAD SWAP1 PUSH1 0xFF PUSH1 0x80 DUP3 ADD CALLDATALOAD AND SWAP1 PUSH1 0xA0 DUP2 ADD CALLDATALOAD SWAP1 PUSH1 0xC0 ADD CALLDATALOAD PUSH2 0x156D JUMP JUMPDEST PUSH2 0x35D PUSH1 0x4 DUP1 CALLDATASIZE SUB PUSH1 0x40 DUP2 LT ISZERO PUSH2 0x5A3 JUMPI PUSH1 0x0 DUP1 REVERT JUMPDEST POP PUSH1 0x1 PUSH1 0x1 PUSH1 0xA0 SHL SUB DUP2 CALLDATALOAD DUP2 AND SWAP2 PUSH1 0x20 ADD CALLDATALOAD AND PUSH2 0x176B JUMP JUMPDEST PUSH2 0x23A PUSH2 0x1788 JUMP JUMPDEST PUSH1 0xC SLOAD PUSH1 0x1 EQ PUSH2 0x60A JUMPI PUSH1 0x40 DUP1 MLOAD PUSH3 0x461BCD PUSH1 0xE5 SHL DUP2 MSTORE PUSH1 0x20 PUSH1 0x4 DUP3 ADD MSTORE PUSH1 0xD PUSH1 0x24 DUP3 ADD MSTORE PUSH13 0x111156158C8E881313D0D2D151 PUSH1 0x9A SHL PUSH1 0x44 DUP3 ADD MSTORE SWAP1 MLOAD SWAP1 DUP2 SWAP1 SUB PUSH1 0x64 ADD SWAP1 REVERT JUMPDEST PUSH1 0x0 PUSH1 0xC SSTORE DUP5 ISZERO ISZERO DUP1 PUSH2 0x61D JUMPI POP PUSH1 0x0 DUP5 GT JUMPDEST PUSH2 0x658 JUMPI PUSH1 0x40 MLOAD PUSH3 0x461BCD PUSH1 0xE5 SHL DUP2 MSTORE PUSH1 0x4 ADD DUP1 DUP1 PUSH1 0x20 ADD DUP3 DUP2 SUB DUP3 MSTORE PUSH1 0x21 DUP2 MSTORE PUSH1 0x20 ADD DUP1 PUSH2 0x21D4 PUSH1 0x21 SWAP2 CODECOPY PUSH1 0x40 ADD SWAP2 POP POP PUSH1 0x40 MLOAD DUP1 SWAP2 SUB SWAP1 REVERT JUMPDEST PUSH1 0x0 DUP1 PUSH2 0x663 PUSH2 0xB40 JUMP JUMPDEST POP SWAP2 POP SWAP2 POP DUP2 PUSH1 0x1 PUSH1 0x1 PUSH1 0x70 SHL SUB AND DUP8 LT DUP1 ISZERO PUSH2 0x688 JUMPI POP DUP1 PUSH1 0x1 PUSH1 0x1 PUSH1 0x70 SHL SUB AND DUP7 LT JUMPDEST PUSH2 0x6D9 JUMPI PUSH1 0x40 DUP1 MLOAD PUSH3 0x461BCD PUSH1 0xE5 SHL DUP2 MSTORE PUSH1 0x20 PUSH1 0x4 DUP3 ADD MSTORE PUSH1 0x1D PUSH1 0x24 DUP3 ADD MSTORE PUSH32 0x44455856323A20494E53554646494349454E545F4C4951554944495459000000 PUSH1 0x44 DUP3 ADD MSTORE SWAP1 MLOAD SWAP1 DUP2 SWAP1 SUB PUSH1 0x64 ADD SWAP1 REVERT JUMPDEST PUSH1 0x6 SLOAD PUSH1 0x7 SLOAD PUSH1 0x0 SWAP2 DUP3 SWAP2 PUSH1 0x1 PUSH1 0x1 PUSH1 0xA0 SHL SUB SWAP2 DUP3 AND SWAP2 SWAP1 DUP2 AND SWAP1 DUP10 AND DUP3 EQ DUP1 ISZERO SWAP1 PUSH2 0x717 JUMPI POP DUP1 PUSH1 0x1 PUSH1 0x1 PUSH1 0xA0 SHL SUB AND DUP10 PUSH1 0x1 PUSH1 0x1 PUSH1 0xA0 SHL SUB AND EQ ISZERO JUMPDEST PUSH2 0x75C JUMPI PUSH1 0x40 DUP1 MLOAD PUSH3 0x461BCD PUSH1 0xE5 SHL DUP2 MSTORE PUSH1 0x20 PUSH1 0x4 DUP3 ADD MSTORE PUSH1 0x11 PUSH1 0x24 DUP3 ADD MSTORE PUSH17 0x44455856323A20494E56414C49445F544F PUSH1 0x78 SHL PUSH1 0x44 DUP3 ADD MSTORE SWAP1 MLOAD SWAP1 DUP2 SWAP1 SUB PUSH1 0x64 ADD SWAP1 REVERT JUMPDEST DUP11 ISZERO PUSH2 0x76D JUMPI PUSH2 0x76D DUP3 DUP11 DUP14 PUSH2 0x18E6 JUMP JUMPDEST DUP10 ISZERO PUSH2 0x77E JUMPI PUSH2 0x77E DUP2 DUP11 DUP13 PUSH2 0x18E6 JUMP JUMPDEST DUP7 ISZERO PUSH2 0x839 JUMPI DUP9 PUSH1 0x1 PUSH1 0x1 PUSH1 0xA0 SHL SUB AND PUSH4 0xD48D2648 CALLER DUP14 DUP14 DUP13 DUP13 PUSH1 0x40 MLOAD DUP7 PUSH4 0xFFFFFFFF AND PUSH1 0xE0 SHL DUP2 MSTORE PUSH1 0x4 ADD DUP1 DUP7 PUSH1 0x1 PUSH1 0x1 PUSH1 0xA0 SHL SUB AND PUSH1 0x1 PUSH1 0x1 PUSH1 0xA0 SHL SUB AND DUP2 MSTORE PUSH1 0x20 ADD DUP6 DUP2 MSTORE PUSH1 0x20 ADD DUP5 DUP2 MSTORE PUSH1 0x20 ADD DUP1 PUSH1 0x20 ADD DUP3 DUP2 SUB DUP3 MSTORE DUP5 DUP5 DUP3 DUP2 DUP2 MSTORE PUSH1 0x20 ADD SWAP3 POP DUP1 DUP3 DUP5 CALLDATACOPY PUSH1 0x0 DUP2 DUP5 ADD MSTORE PUSH1 0x1F NOT PUSH1 0x1F DUP3 ADD AND SWAP1 POP DUP1 DUP4 ADD SWAP3 POP POP POP SWAP7 POP POP POP POP POP POP POP PUSH1 0x0 PUSH1 0x40 MLOAD DUP1 DUP4 SUB DUP2 PUSH1 0x0 DUP8 DUP1 EXTCODESIZE ISZERO DUP1 ISZERO PUSH2 0x820 JUMPI PUSH1 0x0 DUP1 REVERT JUMPDEST POP GAS CALL ISZERO DUP1 ISZERO PUSH2 0x834 JUMPI RETURNDATASIZE PUSH1 0x0 DUP1 RETURNDATACOPY RETURNDATASIZE PUSH1 0x0 REVERT JUMPDEST POP POP POP POP JUMPDEST PUSH1 0x40 DUP1 MLOAD PUSH4 0x70A08231 PUSH1 0xE0 SHL DUP2 MSTORE ADDRESS PUSH1 0x4 DUP3 ADD MSTORE SWAP1 MLOAD PUSH1 0x1 PUSH1 0x1 PUSH1 0xA0 SHL SUB DUP5 AND SWAP2 PUSH4 0x70A08231 SWAP2 PUSH1 0x24 DUP1 DUP4 ADD SWAP3 PUSH1 0x20 SWAP3 SWAP2 SWAP1 DUP3 SWAP1 SUB ADD DUP2 DUP7 DUP1 EXTCODESIZE ISZERO DUP1 ISZERO PUSH2 0x87F JUMPI PUSH1 0x0 DUP1 REVERT JUMPDEST POP GAS STATICCALL ISZERO DUP1 ISZERO PUSH2 0x893 JUMPI RETURNDATASIZE PUSH1 0x0 DUP1 RETURNDATACOPY RETURNDATASIZE PUSH1 0x0 REVERT JUMPDEST POP POP POP POP PUSH1 0x40 MLOAD RETURNDATASIZE PUSH1 0x20 DUP2 LT ISZERO PUSH2 0x8A9 JUMPI PUSH1 0x0 DUP1 REVERT JUMPDEST POP MLOAD PUSH1 0x40 DUP1 MLOAD PUSH4 0x70A08231 PUSH1 0xE0 SHL DUP2 MSTORE ADDRESS PUSH1 0x4 DUP3 ADD MSTORE SWAP1 MLOAD SWAP2 SWAP6 POP PUSH1 0x1 PUSH1 0x1 PUSH1 0xA0 SHL SUB DUP4 AND SWAP2 PUSH4 0x70A08231 SWAP2 PUSH1 0x24 DUP1 DUP3 ADD SWAP3 PUSH1 0x20 SWAP3 SWAP1 SWAP2 SWAP1 DUP3 SWAP1 SUB ADD DUP2 DUP7 DUP1 EXTCODESIZE ISZERO DUP1 ISZERO PUSH2 0x8F5 JUMPI PUSH1 0x0 DUP1 REVERT JUMPDEST POP GAS STATICCALL ISZERO DUP1 ISZERO PUSH2 0x909 JUMPI RETURNDATASIZE PUSH1 0x0 DUP1 RETURNDATACOPY RETURNDATASIZE PUSH1 0x0 REVERT JUMPDEST POP POP POP POP PUSH1 0x40 MLOAD RETURNDATASIZE PUSH1 0x20 DUP2 LT ISZERO PUSH2 0x91F JUMPI PUSH1 0x0 DUP1 REVERT JUMPDEST POP MLOAD SWAP3 POP PUSH1 0x0 SWAP2 POP POP PUSH1 0x1 PUSH1 0x1 PUSH1 0x70 SHL SUB DUP6 AND DUP11 SWAP1 SUB DUP4 GT PUSH2 0x942 JUMPI PUSH1 0x0 PUSH2 0x951 JUMP JUMPDEST DUP10 DUP6 PUSH1 0x1 PUSH1 0x1 PUSH1 0x70 SHL SUB AND SUB DUP4 SUB JUMPDEST SWAP1 POP PUSH1 0x0 DUP10 DUP6 PUSH1 0x1 PUSH1 0x1 PUSH1 0x70 SHL SUB AND SUB DUP4 GT PUSH2 0x96E JUMPI PUSH1 0x0 PUSH2 0x97D JUMP JUMPDEST DUP10 DUP6 PUSH1 0x1 PUSH1 0x1 PUSH1 0x70 SHL SUB AND SUB DUP4 SUB JUMPDEST SWAP1 POP PUSH1 0x0 DUP3 GT DUP1 PUSH2 0x98E JUMPI POP PUSH1 0x0 DUP2 GT JUMPDEST PUSH2 0x9DF JUMPI PUSH1 0x40 DUP1 MLOAD PUSH3 0x461BCD PUSH1 0xE5 SHL DUP2 MSTORE PUSH1 0x20 PUSH1 0x4 DUP3 ADD DUP2 SWAP1 MSTORE PUSH1 0x24 DUP3 ADD MSTORE PUSH32 0x44455856323A20494E53554646494349454E545F494E5055545F414D4F554E54 PUSH1 0x44 DUP3 ADD MSTORE SWAP1 MLOAD SWAP1 DUP2 SWAP1 SUB PUSH1 0x64 ADD SWAP1 REVERT JUMPDEST PUSH1 0x0 PUSH2 0xA13 PUSH2 0x9F5 DUP5 PUSH1 0x3 PUSH4 0xFFFFFFFF PUSH2 0x1A79 AND JUMP JUMPDEST PUSH2 0xA07 DUP8 PUSH2 0x3E8 PUSH4 0xFFFFFFFF PUSH2 0x1A79 AND JUMP JUMPDEST SWAP1 PUSH4 0xFFFFFFFF PUSH2 0x1ADC AND JUMP JUMPDEST SWAP1 POP PUSH1 0x0 PUSH2 0xA2B PUSH2 0x9F5 DUP5 PUSH1 0x3 PUSH4 0xFFFFFFFF PUSH2 0x1A79 AND JUMP JUMPDEST SWAP1 POP PUSH2 0xA5C PUSH3 0xF4240 PUSH2 0xA50 PUSH1 0x1 PUSH1 0x1 PUSH1 0x70 SHL SUB DUP12 DUP2 AND SWAP1 DUP12 AND PUSH4 0xFFFFFFFF PUSH2 0x1A79 AND JUMP JUMPDEST SWAP1 PUSH4 0xFFFFFFFF PUSH2 0x1A79 AND JUMP JUMPDEST PUSH2 0xA6C DUP4 DUP4 PUSH4 0xFFFFFFFF PUSH2 0x1A79 AND JUMP JUMPDEST LT ISZERO PUSH2 0xAAA JUMPI PUSH1 0x40 DUP1 MLOAD PUSH3 0x461BCD PUSH1 0xE5 SHL DUP2 MSTORE PUSH1 0x20 PUSH1 0x4 DUP3 ADD MSTORE PUSH1 0x8 PUSH1 0x24 DUP3 ADD MSTORE PUSH8 0x44455856323A204B PUSH1 0xC0 SHL PUSH1 0x44 DUP3 ADD MSTORE SWAP1 MLOAD SWAP1 DUP2 SWAP1 SUB PUSH1 0x64 ADD SWAP1 REVERT JUMPDEST POP POP PUSH2 0xAB8 DUP5 DUP5 DUP9 DUP9 PUSH2 0x1B2C JUMP JUMPDEST PUSH1 0x40 DUP1 MLOAD DUP4 DUP2 MSTORE PUSH1 0x20 DUP2 ADD DUP4 SWAP1 MSTORE DUP1 DUP3 ADD DUP14 SWAP1 MSTORE PUSH1 0x60 DUP2 ADD DUP13 SWAP1 MSTORE SWAP1 MLOAD PUSH1 0x1 PUSH1 0x1 PUSH1 0xA0 SHL SUB DUP12 AND SWAP2 CALLER SWAP2 PUSH32 0xD78AD95FA46C994B6551D0DA85FC275FE613CE37657FB8D5E3D130840159D822 SWAP2 DUP2 SWAP1 SUB PUSH1 0x80 ADD SWAP1 LOG3 POP POP PUSH1 0x1 PUSH1 0xC SSTORE POP POP POP POP POP POP POP POP POP JUMP JUMPDEST PUSH1 0x40 MLOAD DUP1 PUSH1 0x40 ADD PUSH1 0x40 MSTORE DUP1 PUSH1 0x6 DUP2 MSTORE PUSH1 0x20 ADD PUSH6 0x2222AC102B19 PUSH1 0xD1 SHL DUP2 MSTORE POP DUP2 JUMP JUMPDEST PUSH1 0x8 SLOAD PUSH1 0x1 PUSH1 0x1 PUSH1 0x70 SHL SUB DUP1 DUP3 AND SWAP3 PUSH1 0x1 PUSH1 0x70 SHL DUP4 DIV SWAP1 SWAP2 AND SWAP2 PUSH1 0x1 PUSH1 0xE0 SHL SWAP1 DIV PUSH4 0xFFFFFFFF AND SWAP1 JUMP JUMPDEST PUSH1 0x0 PUSH2 0xB77 CALLER DUP5 DUP5 PUSH2 0x1CED JUMP JUMPDEST POP PUSH1 0x1 JUMPDEST SWAP3 SWAP2 POP POP JUMP JUMPDEST PUSH1 0x6 SLOAD PUSH1 0x1 PUSH1 0x1 PUSH1 0xA0 SHL SUB AND DUP2 JUMP JUMPDEST PUSH1 0x0 SLOAD DUP2 JUMP JUMPDEST PUSH1 0x1 PUSH1 0x1 PUSH1 0xA0 SHL SUB DUP4 AND PUSH1 0x0 SWAP1 DUP2 MSTORE PUSH1 0x2 PUSH1 0x20 SWAP1 DUP2 MSTORE PUSH1 0x40 DUP1 DUP4 KECCAK256 CALLER DUP5 MSTORE SWAP1 SWAP2 MSTORE DUP2 KECCAK256 SLOAD PUSH1 0x0 NOT EQ PUSH2 0xC1B JUMPI PUSH1 0x1 PUSH1 0x1 PUSH1 0xA0 SHL SUB DUP5 AND PUSH1 0x0 SWAP1 DUP2 MSTORE PUSH1 0x2 PUSH1 0x20 SWAP1 DUP2 MSTORE PUSH1 0x40 DUP1 DUP4 KECCAK256 CALLER DUP5 MSTORE SWAP1 SWAP2 MSTORE SWAP1 KECCAK256 SLOAD PUSH2 0xBF6 SWAP1 DUP4 PUSH4 0xFFFFFFFF PUSH2 0x1ADC AND JUMP JUMPDEST PUSH1 0x1 PUSH1 0x1 PUSH1 0xA0 SHL SUB DUP6 AND PUSH1 0x0 SWAP1 DUP2 MSTORE PUSH1 0x2 PUSH1 0x20 SWAP1 DUP2 MSTORE PUSH1 0x40 DUP1 DUP4 KECCAK256 CALLER DUP5 MSTORE SWAP1 SWAP2 MSTORE SWAP1 KECCAK256 SSTORE JUMPDEST PUSH2 0xC26 DUP5 DUP5 DUP5 PUSH2 0x1D4F JUMP JUMPDEST POP PUSH1 0x1 SWAP4 SWAP3 POP POP POP JUMP JUMPDEST PUSH32 0x6E71EDAE12B1B97F4D1F60370FEF10105FA2FAAE0126114A169C64845D6126C9 DUP2 JUMP JUMPDEST PUSH1 0x12 DUP2 JUMP JUMPDEST PUSH1 0x3 SLOAD DUP2 JUMP JUMPDEST PUSH1 0x5 SLOAD PUSH1 0x1 PUSH1 0x1 PUSH1 0xA0 SHL SUB AND CALLER EQ PUSH2 0xCB1 JUMPI PUSH1 0x40 DUP1 MLOAD PUSH3 0x461BCD PUSH1 0xE5 SHL DUP2 MSTORE PUSH1 0x20 PUSH1 0x4 DUP3 ADD MSTORE PUSH1 0x10 PUSH1 0x24 DUP3 ADD MSTORE PUSH16 0x2222AC2B191D102327A92124A22222A7 PUSH1 0x81 SHL PUSH1 0x44 DUP3 ADD MSTORE SWAP1 MLOAD SWAP1 DUP2 SWAP1 SUB PUSH1 0x64 ADD SWAP1 REVERT JUMPDEST PUSH1 0x6 DUP1 SLOAD PUSH1 0x1 PUSH1 0x1 PUSH1 0xA0 SHL SUB SWAP4 DUP5 AND PUSH1 0x1 PUSH1 0x1 PUSH1 0xA0 SHL SUB NOT SWAP2 DUP3 AND OR SWAP1 SWAP2 SSTORE PUSH1 0x7 DUP1 SLOAD SWAP3 SWAP1 SWAP4 AND SWAP2 AND OR SWAP1 SSTORE JUMP JUMPDEST PUSH1 0x9 SLOAD DUP2 JUMP JUMPDEST PUSH1 0xA SLOAD DUP2 JUMP JUMPDEST PUSH1 0x0 PUSH1 0xC SLOAD PUSH1 0x1 EQ PUSH2 0xD34 JUMPI PUSH1 0x40 DUP1 MLOAD PUSH3 0x461BCD PUSH1 0xE5 SHL DUP2 MSTORE PUSH1 0x20 PUSH1 0x4 DUP3 ADD MSTORE PUSH1 0xD PUSH1 0x24 DUP3 ADD MSTORE PUSH13 0x111156158C8E881313D0D2D151 PUSH1 0x9A SHL PUSH1 0x44 DUP3 ADD MSTORE SWAP1 MLOAD SWAP1 DUP2 SWAP1 SUB PUSH1 0x64 ADD SWAP1 REVERT JUMPDEST PUSH1 0x0 PUSH1 0xC DUP2 SWAP1 SSTORE DUP1 PUSH2 0xD44 PUSH2 0xB40 JUMP JUMPDEST POP PUSH1 0x6 SLOAD PUSH1 0x40 DUP1 MLOAD PUSH4 0x70A08231 PUSH1 0xE0 SHL DUP2 MSTORE ADDRESS PUSH1 0x4 DUP3 ADD MSTORE SWAP1 MLOAD SWAP4 SWAP6 POP SWAP2 SWAP4 POP PUSH1 0x0 SWAP3 PUSH1 0x1 PUSH1 0x1 PUSH1 0xA0 SHL SUB SWAP1 SWAP2 AND SWAP2 PUSH4 0x70A08231 SWAP2 PUSH1 0x24 DUP1 DUP4 ADD SWAP3 PUSH1 0x20 SWAP3 SWAP2 SWAP1 DUP3 SWAP1 SUB ADD DUP2 DUP7 DUP1 EXTCODESIZE ISZERO DUP1 ISZERO PUSH2 0xD98 JUMPI PUSH1 0x0 DUP1 REVERT JUMPDEST POP GAS STATICCALL ISZERO DUP1 ISZERO PUSH2 0xDAC JUMPI RETURNDATASIZE PUSH1 0x0 DUP1 RETURNDATACOPY RETURNDATASIZE PUSH1 0x0 REVERT JUMPDEST POP POP POP POP PUSH1 0x40 MLOAD RETURNDATASIZE PUSH1 0x20 DUP2 LT ISZERO PUSH2 0xDC2 JUMPI PUSH1 0x0 DUP1 REVERT JUMPDEST POP MLOAD PUSH1 0x7 SLOAD PUSH1 0x40 DUP1 MLOAD PUSH4 0x70A08231 PUSH1 0xE0 SHL DUP2 MSTORE ADDRESS PUSH1 0x4 DUP3 ADD MSTORE SWAP1 MLOAD SWAP3 SWAP4 POP PUSH1 0x0 SWAP3 PUSH1 0x1 PUSH1 0x1 PUSH1 0xA0 SHL SUB SWAP1 SWAP3 AND SWAP2 PUSH4 0x70A08231 SWAP2 PUSH1 0x24 DUP1 DUP3 ADD SWAP3 PUSH1 0x20 SWAP3 SWAP1 SWAP2 SWAP1 DUP3 SWAP1 SUB ADD DUP2 DUP7 DUP1 EXTCODESIZE ISZERO DUP1 ISZERO PUSH2 0xE15 JUMPI PUSH1 0x0 DUP1 REVERT JUMPDEST POP GAS STATICCALL ISZERO DUP1 ISZERO PUSH2 0xE29 JUMPI RETURNDATASIZE PUSH1 0x0 DUP1 RETURNDATACOPY RETURNDATASIZE PUSH1 0x0 REVERT JUMPDEST POP POP POP POP PUSH1 0x40 MLOAD RETURNDATASIZE PUSH1 0x20 DUP2 LT ISZERO PUSH2 0xE3F JUMPI PUSH1 0x0 DUP1 REVERT JUMPDEST POP MLOAD SWAP1 POP PUSH1 0x0 PUSH2 0xE5E DUP4 PUSH1 0x1 PUSH1 0x1 PUSH1 0x70 SHL SUB DUP8 AND PUSH4 0xFFFFFFFF PUSH2 0x1ADC AND JUMP JUMPDEST SWAP1 POP PUSH1 0x0 PUSH2 0xE7B DUP4 PUSH1 0x1 PUSH1 0x1 PUSH1 0x70 SHL SUB DUP8 AND PUSH4 0xFFFFFFFF PUSH2 0x1ADC AND JUMP JUMPDEST SWAP1 POP PUSH1 0x0 PUSH2 0xE89 DUP8 DUP8 PUSH2 0x1E09 JUMP JUMPDEST PUSH1 0x0 SLOAD SWAP1 SWAP2 POP DUP1 PUSH2 0xEC6 JUMPI PUSH2 0xEB2 PUSH2 0x3E8 PUSH2 0xA07 PUSH2 0xEAD DUP8 DUP8 PUSH4 0xFFFFFFFF PUSH2 0x1A79 AND JUMP JUMPDEST PUSH2 0x1F67 JUMP JUMPDEST SWAP9 POP PUSH2 0xEC1 PUSH1 0x0 PUSH2 0x3E8 PUSH2 0x1FB9 JUMP JUMPDEST PUSH2 0xF15 JUMP JUMPDEST PUSH2 0xF12 PUSH1 0x1 PUSH1 0x1 PUSH1 0x70 SHL SUB DUP10 AND PUSH2 0xEE3 DUP7 DUP5 PUSH4 0xFFFFFFFF PUSH2 0x1A79 AND JUMP JUMPDEST DUP2 PUSH2 0xEEA JUMPI INVALID JUMPDEST DIV PUSH1 0x1 PUSH1 0x1 PUSH1 0x70 SHL SUB DUP10 AND PUSH2 0xF05 DUP7 DUP6 PUSH4 0xFFFFFFFF PUSH2 0x1A79 AND JUMP JUMPDEST DUP2 PUSH2 0xF0C JUMPI INVALID JUMPDEST DIV PUSH2 0x204F JUMP JUMPDEST SWAP9 POP JUMPDEST PUSH1 0x0 DUP10 GT PUSH2 0xF54 JUMPI PUSH1 0x40 MLOAD PUSH3 0x461BCD PUSH1 0xE5 SHL DUP2 MSTORE PUSH1 0x4 ADD DUP1 DUP1 PUSH1 0x20 ADD DUP3 DUP2 SUB DUP3 MSTORE PUSH1 0x24 DUP2 MSTORE PUSH1 0x20 ADD DUP1 PUSH2 0x218C PUSH1 0x24 SWAP2 CODECOPY PUSH1 0x40 ADD SWAP2 POP POP PUSH1 0x40 MLOAD DUP1 SWAP2 SUB SWAP1 REVERT JUMPDEST PUSH2 0xF5E DUP11 DUP11 PUSH2 0x1FB9 JUMP JUMPDEST PUSH2 0xF6A DUP7 DUP7 DUP11 DUP11 PUSH2 0x1B2C JUMP JUMPDEST DUP2 ISZERO PUSH2 0xF9A JUMPI PUSH1 0x8 SLOAD PUSH2 0xF96 SWAP1 PUSH1 0x1 PUSH1 0x1 PUSH1 0x70 SHL SUB DUP1 DUP3 AND SWAP2 PUSH1 0x1 PUSH1 0x70 SHL SWAP1 DIV AND PUSH4 0xFFFFFFFF PUSH2 0x1A79 AND JUMP JUMPDEST PUSH1 0xB SSTORE JUMPDEST PUSH1 0x40 DUP1 MLOAD DUP6 DUP2 MSTORE PUSH1 0x20 DUP2 ADD DUP6 SWAP1 MSTORE DUP2 MLOAD CALLER SWAP3 PUSH32 0x4C209B5FC8AD50758F13E2E1088BA56A560DFF690A1C6FEF26394F4C03821C4F SWAP3 DUP3 SWAP1 SUB ADD SWAP1 LOG2 POP POP PUSH1 0x1 PUSH1 0xC SSTORE POP SWAP5 SWAP7 SWAP6 POP POP POP POP POP POP JUMP JUMPDEST PUSH1 0x1 PUSH1 0x20 MSTORE PUSH1 0x0 SWAP1 DUP2 MSTORE PUSH1 0x40 SWAP1 KECCAK256 SLOAD DUP2 JUMP JUMPDEST PUSH1 0xB SLOAD DUP2 JUMP JUMPDEST PUSH1 0x4 PUSH1 0x20 MSTORE PUSH1 0x0 SWAP1 DUP2 MSTORE PUSH1 0x40 SWAP1 KECCAK256 SLOAD DUP2 JUMP JUMPDEST PUSH1 0x0 DUP1 PUSH1 0xC SLOAD PUSH1 0x1 EQ PUSH2 0x105B JUMPI PUSH1 0x40 DUP1 MLOAD PUSH3 0x461BCD PUSH1 0xE5 SHL DUP2 MSTORE PUSH1 0x20 PUSH1 0x4 DUP3 ADD MSTORE PUSH1 0xD PUSH1 0x24 DUP3 ADD MSTORE PUSH13 0x111156158C8E881313D0D2D151 PUSH1 0x9A SHL PUSH1 0x44 DUP3 ADD MSTORE SWAP1 MLOAD SWAP1 DUP2 SWAP1 SUB PUSH1 0x64 ADD SWAP1 REVERT JUMPDEST PUSH1 0x0 PUSH1 0xC DUP2 SWAP1 SSTORE DUP1 PUSH2 0x106B PUSH2 0xB40 JUMP JUMPDEST POP PUSH1 0x6 SLOAD PUSH1 0x7 SLOAD PUSH1 0x40 DUP1 MLOAD PUSH4 0x70A08231 PUSH1 0xE0 SHL DUP2 MSTORE ADDRESS PUSH1 0x4 DUP3 ADD MSTORE SWAP1 MLOAD SWAP5 SWAP7 POP SWAP3 SWAP5 POP PUSH1 0x1 PUSH1 0x1 PUSH1 0xA0 SHL SUB SWAP2 DUP3 AND SWAP4 SWAP2 AND SWAP2 PUSH1 0x0 SWAP2 DUP5 SWAP2 PUSH4 0x70A08231 SWAP2 PUSH1 0x24 DUP1 DUP4 ADD SWAP3 PUSH1 0x20 SWAP3 SWAP2 SWAP1 DUP3 SWAP1 SUB ADD DUP2 DUP7 DUP1 EXTCODESIZE ISZERO DUP1 ISZERO PUSH2 0x10C7 JUMPI PUSH1 0x0 DUP1 REVERT JUMPDEST POP GAS STATICCALL ISZERO DUP1 ISZERO PUSH2 0x10DB JUMPI RETURNDATASIZE PUSH1 0x0 DUP1 RETURNDATACOPY RETURNDATASIZE PUSH1 0x0 REVERT JUMPDEST POP POP POP POP PUSH1 0x40 MLOAD RETURNDATASIZE PUSH1 0x20 DUP2 LT ISZERO PUSH2 0x10F1 JUMPI PUSH1 0x0 DUP1 REVERT JUMPDEST POP MLOAD PUSH1 0x40 DUP1 MLOAD PUSH4 0x70A08231 PUSH1 0xE0 SHL DUP2 MSTORE ADDRESS PUSH1 0x4 DUP3 ADD MSTORE SWAP1 MLOAD SWAP2 SWAP3 POP PUSH1 0x0 SWAP2 PUSH1 0x1 PUSH1 0x1 PUSH1 0xA0 SHL SUB DUP6 AND SWAP2 PUSH4 0x70A08231 SWAP2 PUSH1 0x24 DUP1 DUP4 ADD SWAP3 PUSH1 0x20 SWAP3 SWAP2 SWAP1 DUP3 SWAP1 SUB ADD DUP2 DUP7 DUP1 EXTCODESIZE ISZERO DUP1 ISZERO PUSH2 0x113F JUMPI PUSH1 0x0 DUP1 REVERT JUMPDEST POP GAS STATICCALL ISZERO DUP1 ISZERO PUSH2 0x1153 JUMPI RETURNDATASIZE PUSH1 0x0 DUP1 RETURNDATACOPY RETURNDATASIZE PUSH1 0x0 REVERT JUMPDEST POP POP POP POP PUSH1 0x40 MLOAD RETURNDATASIZE PUSH1 0x20 DUP2 LT ISZERO PUSH2 0x1169 JUMPI PUSH1 0x0 DUP1 REVERT JUMPDEST POP MLOAD ADDRESS PUSH1 0x0 SWAP1 DUP2 MSTORE PUSH1 0x1 PUSH1 0x20 MSTORE PUSH1 0x40 DUP2 KECCAK256 SLOAD SWAP2 SWAP3 POP PUSH2 0x1188 DUP9 DUP9 PUSH2 0x1E09 JUMP JUMPDEST PUSH1 0x0 SLOAD SWAP1 SWAP2 POP DUP1 PUSH2 0x119F DUP5 DUP8 PUSH4 0xFFFFFFFF PUSH2 0x1A79 AND JUMP JUMPDEST DUP2 PUSH2 0x11A6 JUMPI INVALID JUMPDEST DIV SWAP11 POP DUP1 PUSH2 0x11BA DUP5 DUP7 PUSH4 0xFFFFFFFF PUSH2 0x1A79 AND JUMP JUMPDEST DUP2 PUSH2 0x11C1 JUMPI INVALID JUMPDEST DIV SWAP10 POP PUSH1 0x0 DUP12 GT DUP1 ISZERO PUSH2 0x11D4 JUMPI POP PUSH1 0x0 DUP11 GT JUMPDEST PUSH2 0x120F JUMPI PUSH1 0x40 MLOAD PUSH3 0x461BCD PUSH1 0xE5 SHL DUP2 MSTORE PUSH1 0x4 ADD DUP1 DUP1 PUSH1 0x20 ADD DUP3 DUP2 SUB DUP3 MSTORE PUSH1 0x24 DUP2 MSTORE PUSH1 0x20 ADD DUP1 PUSH2 0x21B0 PUSH1 0x24 SWAP2 CODECOPY PUSH1 0x40 ADD SWAP2 POP POP PUSH1 0x40 MLOAD DUP1 SWAP2 SUB SWAP1 REVERT JUMPDEST PUSH2 0x1219 ADDRESS DUP5 PUSH2 0x2067 JUMP JUMPDEST PUSH2 0x1224 DUP8 DUP14 DUP14 PUSH2 0x18E6 JUMP JUMPDEST PUSH2 0x122F DUP7 DUP14 DUP13 PUSH2 0x18E6 JUMP JUMPDEST PUSH1 0x40 DUP1 MLOAD PUSH4 0x70A08231 PUSH1 0xE0 SHL DUP2 MSTORE ADDRESS PUSH1 0x4 DUP3 ADD MSTORE SWAP1 MLOAD PUSH1 0x1 PUSH1 0x1 PUSH1 0xA0 SHL SUB DUP10 AND SWAP2 PUSH4 0x70A08231 SWAP2 PUSH1 0x24 DUP1 DUP4 ADD SWAP3 PUSH1 0x20 SWAP3 SWAP2 SWAP1 DUP3 SWAP1 SUB ADD DUP2 DUP7 DUP1 EXTCODESIZE ISZERO DUP1 ISZERO PUSH2 0x1275 JUMPI PUSH1 0x0 DUP1 REVERT JUMPDEST POP GAS STATICCALL ISZERO DUP1 ISZERO PUSH2 0x1289 JUMPI RETURNDATASIZE PUSH1 0x0 DUP1 RETURNDATACOPY RETURNDATASIZE PUSH1 0x0 REVERT JUMPDEST POP POP POP POP PUSH1 0x40 MLOAD RETURNDATASIZE PUSH1 0x20 DUP2 LT ISZERO PUSH2 0x129F JUMPI PUSH1 0x0 DUP1 REVERT JUMPDEST POP MLOAD PUSH1 0x40 DUP1 MLOAD PUSH4 0x70A08231 PUSH1 0xE0 SHL DUP2 MSTORE ADDRESS PUSH1 0x4 DUP3 ADD MSTORE SWAP1 MLOAD SWAP2 SWAP7 POP PUSH1 0x1 PUSH1 0x1 PUSH1 0xA0 SHL SUB DUP9 AND SWAP2 PUSH4 0x70A08231 SWAP2 PUSH1 0x24 DUP1 DUP3 ADD SWAP3 PUSH1 0x20 SWAP3 SWAP1 SWAP2 SWAP1 DUP3 SWAP1 SUB ADD DUP2 DUP7 DUP1 EXTCODESIZE ISZERO DUP1 ISZERO PUSH2 0x12EB JUMPI PUSH1 0x0 DUP1 REVERT JUMPDEST POP GAS STATICCALL ISZERO DUP1 ISZERO PUSH2 0x12FF JUMPI RETURNDATASIZE PUSH1 0x0 DUP1 RETURNDATACOPY RETURNDATASIZE PUSH1 0x0 REVERT JUMPDEST POP POP POP POP PUSH1 0x40 MLOAD RETURNDATASIZE PUSH1 0x20 DUP2 LT ISZERO PUSH2 0x1315 JUMPI PUSH1 0x0 DUP1 REVERT JUMPDEST POP MLOAD SWAP4 POP PUSH2 0x1325 DUP6 DUP6 DUP12 DUP12 PUSH2 0x1B2C JUMP JUMPDEST DUP2 ISZERO PUSH2 0x1355 JUMPI PUSH1 0x8 SLOAD PUSH2 0x1351 SWAP1 PUSH1 0x1 PUSH1 0x1 PUSH1 0x70 SHL SUB DUP1 DUP3 AND SWAP2 PUSH1 0x1 PUSH1 0x70 SHL SWAP1 DIV AND PUSH4 0xFFFFFFFF PUSH2 0x1A79 AND JUMP JUMPDEST PUSH1 0xB SSTORE JUMPDEST PUSH1 0x40 DUP1 MLOAD DUP13 DUP2 MSTORE PUSH1 0x20 DUP2 ADD DUP13 SWAP1 MSTORE DUP2 MLOAD PUSH1 0x1 PUSH1 0x1 PUSH1 0xA0 SHL SUB DUP16 AND SWAP3 CALLER SWAP3 PUSH32 0xDCCD412F0B1252819CB1FD330B93224CA42612892BB3F4F789976E6D81936496 SWAP3 SWAP1 DUP2 SWAP1 SUB SWAP1 SWAP2 ADD SWAP1 LOG3 POP POP POP POP POP POP POP POP POP PUSH1 0x1 PUSH1 0xC DUP2 SWAP1 SSTORE POP SWAP2 POP SWAP2 JUMP JUMPDEST PUSH1 0x40 MLOAD DUP1 PUSH1 0x40 ADD PUSH1 0x40 MSTORE DUP1 PUSH1 0x6 DUP2 MSTORE PUSH1 0x20 ADD PUSH6 0x2222AC16AB19 PUSH1 0xD1 SHL DUP2 MSTORE POP DUP2 JUMP JUMPDEST PUSH1 0x0 PUSH2 0xB77 CALLER DUP5 DUP5 PUSH2 0x1D4F JUMP JUMPDEST PUSH2 0x3E8 DUP2 JUMP JUMPDEST PUSH1 0xC SLOAD PUSH1 0x1 EQ PUSH2 0x142F JUMPI PUSH1 0x40 DUP1 MLOAD PUSH3 0x461BCD PUSH1 0xE5 SHL DUP2 MSTORE PUSH1 0x20 PUSH1 0x4 DUP3 ADD MSTORE PUSH1 0xD PUSH1 0x24 DUP3 ADD MSTORE PUSH13 0x111156158C8E881313D0D2D151 PUSH1 0x9A SHL PUSH1 0x44 DUP3 ADD MSTORE SWAP1 MLOAD SWAP1 DUP2 SWAP1 SUB PUSH1 0x64 ADD SWAP1 REVERT JUMPDEST PUSH1 0x0 PUSH1 0xC SSTORE PUSH1 0x6 SLOAD PUSH1 0x7 SLOAD PUSH1 0x8 SLOAD PUSH1 0x40 DUP1 MLOAD PUSH4 0x70A08231 PUSH1 0xE0 SHL DUP2 MSTORE ADDRESS PUSH1 0x4 DUP3 ADD MSTORE SWAP1 MLOAD PUSH1 0x1 PUSH1 0x1 PUSH1 0xA0 SHL SUB SWAP5 DUP6 AND SWAP5 SWAP1 SWAP4 AND SWAP3 PUSH2 0x14DE SWAP3 DUP6 SWAP3 DUP8 SWAP3 PUSH2 0x14D9 SWAP3 PUSH1 0x1 PUSH1 0x1 PUSH1 0x70 SHL SUB AND SWAP2 DUP6 SWAP2 PUSH4 0x70A08231 SWAP2 PUSH1 0x24 DUP1 DUP3 ADD SWAP3 PUSH1 0x20 SWAP3 SWAP1 SWAP2 SWAP1 DUP3 SWAP1 SUB ADD DUP2 DUP7 DUP1 EXTCODESIZE ISZERO DUP1 ISZERO PUSH2 0x14A1 JUMPI PUSH1 0x0 DUP1 REVERT JUMPDEST POP GAS STATICCALL ISZERO DUP1 ISZERO PUSH2 0x14B5 JUMPI RETURNDATASIZE PUSH1 0x0 DUP1 RETURNDATACOPY RETURNDATASIZE PUSH1 0x0 REVERT JUMPDEST POP POP POP POP PUSH1 0x40 MLOAD RETURNDATASIZE PUSH1 0x20 DUP2 LT ISZERO PUSH2 0x14CB JUMPI PUSH1 0x0 DUP1 REVERT JUMPDEST POP MLOAD SWAP1 PUSH4 0xFFFFFFFF PUSH2 0x1ADC AND JUMP JUMPDEST PUSH2 0x18E6 JUMP JUMPDEST PUSH1 0x8 SLOAD PUSH1 0x40 DUP1 MLOAD PUSH4 0x70A08231 PUSH1 0xE0 SHL DUP2 MSTORE ADDRESS PUSH1 0x4 DUP3 ADD MSTORE SWAP1 MLOAD PUSH2 0x1545 SWAP3 DUP5 SWAP3 DUP8 SWAP3 PUSH2 0x14D9 SWAP3 PUSH1 0x1 PUSH1 0x70 SHL SWAP1 DIV PUSH1 0x1 PUSH1 0x1 PUSH1 0x70 SHL SUB AND SWAP2 PUSH1 0x1 PUSH1 0x1 PUSH1 0xA0 SHL SUB DUP7 AND SWAP2 PUSH4 0x70A08231 SWAP2 PUSH1 0x24 DUP1 DUP3 ADD SWAP3 PUSH1 0x20 SWAP3 SWAP1 SWAP2 SWAP1 DUP3 SWAP1 SUB ADD DUP2 DUP7 DUP1 EXTCODESIZE ISZERO DUP1 ISZERO PUSH2 0x14A1 JUMPI PUSH1 0x0 DUP1 REVERT JUMPDEST POP POP PUSH1 0x1 PUSH1 0xC SSTORE POP JUMP JUMPDEST PUSH1 0x5 SLOAD PUSH1 0x1 PUSH1 0x1 PUSH1 0xA0 SHL SUB AND DUP2 JUMP JUMPDEST PUSH1 0x7 SLOAD PUSH1 0x1 PUSH1 0x1 PUSH1 0xA0 SHL SUB AND DUP2 JUMP JUMPDEST TIMESTAMP DUP5 LT ISZERO PUSH2 0x15B3 JUMPI PUSH1 0x40 DUP1 MLOAD PUSH3 0x461BCD PUSH1 0xE5 SHL DUP2 MSTORE PUSH1 0x20 PUSH1 0x4 DUP3 ADD MSTORE PUSH1 0xE PUSH1 0x24 DUP3 ADD MSTORE PUSH14 0x111156158C8E8811561412549151 PUSH1 0x92 SHL PUSH1 0x44 DUP3 ADD MSTORE SWAP1 MLOAD SWAP1 DUP2 SWAP1 SUB PUSH1 0x64 ADD SWAP1 REVERT JUMPDEST PUSH1 0x3 SLOAD PUSH1 0x1 PUSH1 0x1 PUSH1 0xA0 SHL SUB DUP1 DUP10 AND PUSH1 0x0 DUP2 DUP2 MSTORE PUSH1 0x4 PUSH1 0x20 SWAP1 DUP2 MSTORE PUSH1 0x40 DUP1 DUP4 KECCAK256 DUP1 SLOAD PUSH1 0x1 DUP1 DUP3 ADD SWAP1 SWAP3 SSTORE DUP3 MLOAD PUSH32 0x6E71EDAE12B1B97F4D1F60370FEF10105FA2FAAE0126114A169C64845D6126C9 DUP2 DUP7 ADD MSTORE DUP1 DUP5 ADD SWAP7 SWAP1 SWAP7 MSTORE SWAP6 DUP14 AND PUSH1 0x60 DUP7 ADD MSTORE PUSH1 0x80 DUP6 ADD DUP13 SWAP1 MSTORE PUSH1 0xA0 DUP6 ADD SWAP6 SWAP1 SWAP6 MSTORE PUSH1 0xC0 DUP1 DUP6 ADD DUP12 SWAP1 MSTORE DUP2 MLOAD DUP1 DUP7 SUB SWAP1 SWAP2 ADD DUP2 MSTORE PUSH1 0xE0 DUP6 ADD DUP3 MSTORE DUP1 MLOAD SWAP1 DUP4 ADD KECCAK256 PUSH2 0x1901 PUSH1 0xF0 SHL PUSH2 0x100 DUP7 ADD MSTORE PUSH2 0x102 DUP6 ADD SWAP7 SWAP1 SWAP7 MSTORE PUSH2 0x122 DUP1 DUP6 ADD SWAP7 SWAP1 SWAP7 MSTORE DUP1 MLOAD DUP1 DUP6 SUB SWAP1 SWAP7 ADD DUP7 MSTORE PUSH2 0x142 DUP5 ADD DUP1 DUP3 MSTORE DUP7 MLOAD SWAP7 DUP4 ADD SWAP7 SWAP1 SWAP7 KECCAK256 SWAP6 DUP4 SWAP1 MSTORE PUSH2 0x162 DUP5 ADD DUP1 DUP3 MSTORE DUP7 SWAP1 MSTORE PUSH1 0xFF DUP10 AND PUSH2 0x182 DUP6 ADD MSTORE PUSH2 0x1A2 DUP5 ADD DUP9 SWAP1 MSTORE PUSH2 0x1C2 DUP5 ADD DUP8 SWAP1 MSTORE MLOAD SWAP2 SWAP4 SWAP3 PUSH2 0x1E2 DUP1 DUP3 ADD SWAP4 PUSH1 0x1F NOT DUP2 ADD SWAP3 DUP2 SWAP1 SUB SWAP1 SWAP2 ADD SWAP1 DUP6 GAS STATICCALL ISZERO DUP1 ISZERO PUSH2 0x16CE JUMPI RETURNDATASIZE PUSH1 0x0 DUP1 RETURNDATACOPY RETURNDATASIZE PUSH1 0x0 REVERT JUMPDEST POP POP PUSH1 0x40 MLOAD PUSH1 0x1F NOT ADD MLOAD SWAP2 POP POP PUSH1 0x1 PUSH1 0x1 PUSH1 0xA0 SHL SUB DUP2 AND ISZERO DUP1 ISZERO SWAP1 PUSH2 0x1704 JUMPI POP DUP9 PUSH1 0x1 PUSH1 0x1 PUSH1 0xA0 SHL SUB AND DUP2 PUSH1 0x1 PUSH1 0x1 PUSH1 0xA0 SHL SUB AND EQ JUMPDEST PUSH2 0x1755 JUMPI PUSH1 0x40 DUP1 MLOAD PUSH3 0x461BCD PUSH1 0xE5 SHL DUP2 MSTORE PUSH1 0x20 PUSH1 0x4 DUP3 ADD MSTORE PUSH1 0x18 PUSH1 0x24 DUP3 ADD MSTORE PUSH32 0x44455856323A20494E56414C49445F5349474E41545552450000000000000000 PUSH1 0x44 DUP3 ADD MSTORE SWAP1 MLOAD SWAP1 DUP2 SWAP1 SUB PUSH1 0x64 ADD SWAP1 REVERT JUMPDEST PUSH2 0x1760 DUP10 DUP10 DUP10 PUSH2 0x1CED JUMP JUMPDEST POP POP POP POP POP POP POP POP POP JUMP JUMPDEST PUSH1 0x2 PUSH1 0x20 SWAP1 DUP2 MSTORE PUSH1 0x0 SWAP3 DUP4 MSTORE PUSH1 0x40 DUP1 DUP5 KECCAK256 SWAP1 SWAP2 MSTORE SWAP1 DUP3 MSTORE SWAP1 KECCAK256 SLOAD DUP2 JUMP JUMPDEST PUSH1 0xC SLOAD PUSH1 0x1 EQ PUSH2 0x17CF JUMPI PUSH1 0x40 DUP1 MLOAD PUSH3 0x461BCD PUSH1 0xE5 SHL DUP2 MSTORE PUSH1 0x20 PUSH1 0x4 DUP3 ADD MSTORE PUSH1 0xD PUSH1 0x24 DUP3 ADD MSTORE PUSH13 0x111156158C8E881313D0D2D151 PUSH1 0x9A SHL PUSH1 0x44 DUP3 ADD MSTORE SWAP1 MLOAD SWAP1 DUP2 SWAP1 SUB PUSH1 0x64 ADD SWAP1 REVERT JUMPDEST PUSH1 0x0 PUSH1 0xC SSTORE PUSH1 0x6 SLOAD PUSH1 0x40 DUP1 MLOAD PUSH4 0x70A08231 PUSH1 0xE0 SHL DUP2 MSTORE ADDRESS PUSH1 0x4 DUP3 ADD MSTORE SWAP1 MLOAD PUSH2 0x18DF SWAP3 PUSH1 0x1 PUSH1 0x1 PUSH1 0xA0 SHL SUB AND SWAP2 PUSH4 0x70A08231 SWAP2 PUSH1 0x24 DUP1 DUP4 ADD SWAP3 PUSH1 0x20 SWAP3 SWAP2 SWAP1 DUP3 SWAP1 SUB ADD DUP2 DUP7 DUP1 EXTCODESIZE ISZERO DUP1 ISZERO PUSH2 0x1820 JUMPI PUSH1 0x0 DUP1 REVERT JUMPDEST POP GAS STATICCALL ISZERO DUP1 ISZERO PUSH2 0x1834 JUMPI RETURNDATASIZE PUSH1 0x0 DUP1 RETURNDATACOPY RETURNDATASIZE PUSH1 0x0 REVERT JUMPDEST POP POP POP POP PUSH1 0x40 MLOAD RETURNDATASIZE PUSH1 0x20 DUP2 LT ISZERO PUSH2 0x184A JUMPI PUSH1 0x0 DUP1 REVERT JUMPDEST POP MLOAD PUSH1 0x7 SLOAD PUSH1 0x40 DUP1 MLOAD PUSH4 0x70A08231 PUSH1 0xE0 SHL DUP2 MSTORE ADDRESS PUSH1 0x4 DUP3 ADD MSTORE SWAP1 MLOAD PUSH1 0x1 PUSH1 0x1 PUSH1 0xA0 SHL SUB SWAP1 SWAP3 AND SWAP2 PUSH4 0x70A08231 SWAP2 PUSH1 0x24 DUP1 DUP3 ADD SWAP3 PUSH1 0x20 SWAP3 SWAP1 SWAP2 SWAP1 DUP3 SWAP1 SUB ADD DUP2 DUP7 DUP1 EXTCODESIZE ISZERO DUP1 ISZERO PUSH2 0x1897 JUMPI PUSH1 0x0 DUP1 REVERT JUMPDEST POP GAS STATICCALL ISZERO DUP1 ISZERO PUSH2 0x18AB JUMPI RETURNDATASIZE PUSH1 0x0 DUP1 RETURNDATACOPY RETURNDATASIZE PUSH1 0x0 REVERT JUMPDEST POP POP POP POP PUSH1 0x40 MLOAD RETURNDATASIZE PUSH1 0x20 DUP2 LT ISZERO PUSH2 0x18C1 JUMPI PUSH1 0x0 DUP1 REVERT JUMPDEST POP MLOAD PUSH1 0x8 SLOAD PUSH1 0x1 PUSH1 0x1 PUSH1 0x70 SHL SUB DUP1 DUP3 AND SWAP2 PUSH1 0x1 PUSH1 0x70 SHL SWAP1 DIV AND PUSH2 0x1B2C JUMP JUMPDEST PUSH1 0x1 PUSH1 0xC SSTORE JUMP JUMPDEST PUSH1 0x40 DUP1 MLOAD DUP1 DUP3 ADD DUP3 MSTORE PUSH1 0x19 DUP2 MSTORE PUSH32 0x7472616E7366657228616464726573732C75696E743235362900000000000000 PUSH1 0x20 SWAP2 DUP3 ADD MSTORE DUP2 MLOAD PUSH1 0x1 PUSH1 0x1 PUSH1 0xA0 SHL SUB DUP6 DUP2 AND PUSH1 0x24 DUP4 ADD MSTORE PUSH1 0x44 DUP1 DUP4 ADD DUP7 SWAP1 MSTORE DUP5 MLOAD DUP1 DUP5 SUB SWAP1 SWAP2 ADD DUP2 MSTORE PUSH1 0x64 SWAP1 SWAP3 ADD DUP5 MSTORE SWAP2 DUP2 ADD DUP1 MLOAD PUSH1 0x1 PUSH1 0x1 PUSH1 0xE0 SHL SUB AND PUSH4 0xA9059CBB PUSH1 0xE0 SHL OR DUP2 MSTORE SWAP3 MLOAD DUP2 MLOAD PUSH1 0x0 SWAP5 PUSH1 0x60 SWAP5 DUP10 AND SWAP4 SWAP3 SWAP2 DUP3 SWAP2 SWAP1 DUP1 DUP4 DUP4 JUMPDEST PUSH1 0x20 DUP4 LT PUSH2 0x1993 JUMPI DUP1 MLOAD DUP3 MSTORE PUSH1 0x1F NOT SWAP1 SWAP3 ADD SWAP2 PUSH1 0x20 SWAP2 DUP3 ADD SWAP2 ADD PUSH2 0x1974 JUMP JUMPDEST PUSH1 0x1 DUP4 PUSH1 0x20 SUB PUSH2 0x100 EXP SUB DUP1 NOT DUP3 MLOAD AND DUP2 DUP5 MLOAD AND DUP1 DUP3 OR DUP6 MSTORE POP POP POP POP POP POP SWAP1 POP ADD SWAP2 POP POP PUSH1 0x0 PUSH1 0x40 MLOAD DUP1 DUP4 SUB DUP2 PUSH1 0x0 DUP7 GAS CALL SWAP2 POP POP RETURNDATASIZE DUP1 PUSH1 0x0 DUP2 EQ PUSH2 0x19F5 JUMPI PUSH1 0x40 MLOAD SWAP2 POP PUSH1 0x1F NOT PUSH1 0x3F RETURNDATASIZE ADD AND DUP3 ADD PUSH1 0x40 MSTORE RETURNDATASIZE DUP3 MSTORE RETURNDATASIZE PUSH1 0x0 PUSH1 0x20 DUP5 ADD RETURNDATACOPY PUSH2 0x19FA JUMP JUMPDEST PUSH1 0x60 SWAP2 POP JUMPDEST POP SWAP2 POP SWAP2 POP DUP2 DUP1 ISZERO PUSH2 0x1A28 JUMPI POP DUP1 MLOAD ISZERO DUP1 PUSH2 0x1A28 JUMPI POP DUP1 DUP1 PUSH1 0x20 ADD SWAP1 MLOAD PUSH1 0x20 DUP2 LT ISZERO PUSH2 0x1A25 JUMPI PUSH1 0x0 DUP1 REVERT JUMPDEST POP MLOAD JUMPDEST PUSH2 0x1A72 JUMPI PUSH1 0x40 DUP1 MLOAD PUSH3 0x461BCD PUSH1 0xE5 SHL DUP2 MSTORE PUSH1 0x20 PUSH1 0x4 DUP3 ADD MSTORE PUSH1 0x16 PUSH1 0x24 DUP3 ADD MSTORE PUSH22 0x111156158C8E881514905394D1915497D19052531151 PUSH1 0x52 SHL PUSH1 0x44 DUP3 ADD MSTORE SWAP1 MLOAD SWAP1 DUP2 SWAP1 SUB PUSH1 0x64 ADD SWAP1 REVERT JUMPDEST POP POP POP POP POP JUMP JUMPDEST PUSH1 0x0 DUP2 ISZERO DUP1 PUSH2 0x1A94 JUMPI POP POP DUP1 DUP3 MUL DUP3 DUP3 DUP3 DUP2 PUSH2 0x1A91 JUMPI INVALID JUMPDEST DIV EQ JUMPDEST PUSH2 0xB7B JUMPI PUSH1 0x40 DUP1 MLOAD PUSH3 0x461BCD PUSH1 0xE5 SHL DUP2 MSTORE PUSH1 0x20 PUSH1 0x4 DUP3 ADD MSTORE PUSH1 0x14 PUSH1 0x24 DUP3 ADD MSTORE PUSH20 0x64732D6D6174682D6D756C2D6F766572666C6F77 PUSH1 0x60 SHL PUSH1 0x44 DUP3 ADD MSTORE SWAP1 MLOAD SWAP1 DUP2 SWAP1 SUB PUSH1 0x64 ADD SWAP1 REVERT JUMPDEST DUP1 DUP3 SUB DUP3 DUP2 GT ISZERO PUSH2 0xB7B JUMPI PUSH1 0x40 DUP1 MLOAD PUSH3 0x461BCD PUSH1 0xE5 SHL DUP2 MSTORE PUSH1 0x20 PUSH1 0x4 DUP3 ADD MSTORE PUSH1 0x15 PUSH1 0x24 DUP3 ADD MSTORE PUSH21 0x64732D6D6174682D7375622D756E646572666C6F77 PUSH1 0x58 SHL PUSH1 0x44 DUP3 ADD MSTORE SWAP1 MLOAD SWAP1 DUP2 SWAP1 SUB PUSH1 0x64 ADD SWAP1 REVERT JUMPDEST PUSH1 0x1 PUSH1 0x1 PUSH1 0x70 SHL SUB DUP5 GT DUP1 ISZERO SWAP1 PUSH2 0x1B4A JUMPI POP PUSH1 0x1 PUSH1 0x1 PUSH1 0x70 SHL SUB DUP4 GT ISZERO JUMPDEST PUSH2 0x1B8D JUMPI PUSH1 0x40 DUP1 MLOAD PUSH3 0x461BCD PUSH1 0xE5 SHL DUP2 MSTORE PUSH1 0x20 PUSH1 0x4 DUP3 ADD MSTORE PUSH1 0xF PUSH1 0x24 DUP3 ADD MSTORE PUSH15 0x44455856323A204F564552464C4F57 PUSH1 0x88 SHL PUSH1 0x44 DUP3 ADD MSTORE SWAP1 MLOAD SWAP1 DUP2 SWAP1 SUB PUSH1 0x64 ADD SWAP1 REVERT JUMPDEST PUSH1 0x8 SLOAD PUSH4 0xFFFFFFFF TIMESTAMP DUP2 AND SWAP2 PUSH1 0x1 PUSH1 0xE0 SHL SWAP1 DIV DUP2 AND DUP3 SUB SWAP1 DUP2 AND ISZERO DUP1 ISZERO SWAP1 PUSH2 0x1BBD JUMPI POP PUSH1 0x1 PUSH1 0x1 PUSH1 0x70 SHL SUB DUP5 AND ISZERO ISZERO JUMPDEST DUP1 ISZERO PUSH2 0x1BD1 JUMPI POP PUSH1 0x1 PUSH1 0x1 PUSH1 0x70 SHL SUB DUP4 AND ISZERO ISZERO JUMPDEST ISZERO PUSH2 0x1C42 JUMPI DUP1 PUSH4 0xFFFFFFFF AND PUSH2 0x1BFF DUP6 PUSH2 0x1BEA DUP7 PUSH2 0x2105 JUMP JUMPDEST PUSH1 0x1 PUSH1 0x1 PUSH1 0xE0 SHL SUB AND SWAP1 PUSH4 0xFFFFFFFF PUSH2 0x2117 AND JUMP JUMPDEST PUSH1 0x9 DUP1 SLOAD PUSH1 0x1 PUSH1 0x1 PUSH1 0xE0 SHL SUB SWAP3 SWAP1 SWAP3 AND SWAP3 SWAP1 SWAP3 MUL ADD SWAP1 SSTORE PUSH4 0xFFFFFFFF DUP2 AND PUSH2 0x1C2A DUP5 PUSH2 0x1BEA DUP8 PUSH2 0x2105 JUMP JUMPDEST PUSH1 0xA DUP1 SLOAD PUSH1 0x1 PUSH1 0x1 PUSH1 0xE0 SHL SUB SWAP3 SWAP1 SWAP3 AND SWAP3 SWAP1 SWAP3 MUL ADD SWAP1 SSTORE JUMPDEST PUSH1 0x8 DUP1 SLOAD PUSH14 0xFFFFFFFFFFFFFFFFFFFFFFFFFFFF NOT AND PUSH1 0x1 PUSH1 0x1 PUSH1 0x70 SHL SUB DUP9 DUP2 AND SWAP2 SWAP1 SWAP2 OR PUSH14 0xFFFFFFFFFFFFFFFFFFFFFFFFFFFF PUSH1 0x70 SHL NOT AND PUSH1 0x1 PUSH1 0x70 SHL DUP9 DUP4 AND DUP2 MUL SWAP2 SWAP1 SWAP2 OR PUSH1 0x1 PUSH1 0x1 PUSH1 0xE0 SHL SUB AND PUSH1 0x1 PUSH1 0xE0 SHL PUSH4 0xFFFFFFFF DUP8 AND MUL OR SWAP3 DUP4 SWAP1 SSTORE PUSH1 0x40 DUP1 MLOAD DUP5 DUP5 AND DUP2 MSTORE SWAP2 SWAP1 SWAP4 DIV SWAP1 SWAP2 AND PUSH1 0x20 DUP3 ADD MSTORE DUP2 MLOAD PUSH32 0x1C411E9A96E071241C2F21F7726B17AE89E3CAB4C78BE50E062B03A9FFFBBAD1 SWAP3 SWAP2 DUP2 SWAP1 SUB SWAP1 SWAP2 ADD SWAP1 LOG1 POP POP POP POP POP POP JUMP JUMPDEST PUSH1 0x1 PUSH1 0x1 PUSH1 0xA0 SHL SUB DUP1 DUP5 AND PUSH1 0x0 DUP2 DUP2 MSTORE PUSH1 0x2 PUSH1 0x20 SWAP1 DUP2 MSTORE PUSH1 0x40 DUP1 DUP4 KECCAK256 SWAP5 DUP8 AND DUP1 DUP5 MSTORE SWAP5 DUP3 MSTORE SWAP2 DUP3 SWAP1 KECCAK256 DUP6 SWAP1 SSTORE DUP2 MLOAD DUP6 DUP2 MSTORE SWAP2 MLOAD PUSH32 0x8C5BE1E5EBEC7D5BD14F71427D1E84F3DD0314C0F7B2291E5B200AC8C7C3B925 SWAP3 DUP2 SWAP1 SUB SWAP1 SWAP2 ADD SWAP1 LOG3 POP POP POP JUMP JUMPDEST PUSH1 0x1 PUSH1 0x1 PUSH1 0xA0 SHL SUB DUP4 AND PUSH1 0x0 SWAP1 DUP2 MSTORE PUSH1 0x1 PUSH1 0x20 MSTORE PUSH1 0x40 SWAP1 KECCAK256 SLOAD PUSH2 0x1D78 SWAP1 DUP3 PUSH4 0xFFFFFFFF PUSH2 0x1ADC AND JUMP JUMPDEST PUSH1 0x1 PUSH1 0x1 PUSH1 0xA0 SHL SUB DUP1 DUP6 AND PUSH1 0x0 SWAP1 DUP2 MSTORE PUSH1 0x1 PUSH1 0x20 MSTORE PUSH1 0x40 DUP1 DUP3 KECCAK256 SWAP4 SWAP1 SWAP4 SSTORE SWAP1 DUP5 AND DUP2 MSTORE KECCAK256 SLOAD PUSH2 0x1DAD SWAP1 DUP3 PUSH4 0xFFFFFFFF PUSH2 0x213C AND JUMP JUMPDEST PUSH1 0x1 PUSH1 0x1 PUSH1 0xA0 SHL SUB DUP1 DUP5 AND PUSH1 0x0 DUP2 DUP2 MSTORE PUSH1 0x1 PUSH1 0x20 SWAP1 DUP2 MSTORE PUSH1 0x40 SWAP2 DUP3 SWAP1 KECCAK256 SWAP5 SWAP1 SWAP5 SSTORE DUP1 MLOAD DUP6 DUP2 MSTORE SWAP1 MLOAD SWAP2 SWAP4 SWAP3 DUP8 AND SWAP3 PUSH32 0xDDF252AD1BE2C89B69C2B068FC378DAA952BA7F163C4A11628F55A4DF523B3EF SWAP3 SWAP2 DUP3 SWAP1 SUB ADD SWAP1 LOG3 POP POP POP JUMP JUMPDEST PUSH1 0x0 DUP1 PUSH1 0x5 PUSH1 0x0 SWAP1 SLOAD SWAP1 PUSH2 0x100 EXP SWAP1 DIV PUSH1 0x1 PUSH1 0x1 PUSH1 0xA0 SHL SUB AND PUSH1 0x1 PUSH1 0x1 PUSH1 0xA0 SHL SUB AND PUSH4 0x17E7E58 PUSH1 0x40 MLOAD DUP2 PUSH4 0xFFFFFFFF AND PUSH1 0xE0 SHL DUP2 MSTORE PUSH1 0x4 ADD PUSH1 0x20 PUSH1 0x40 MLOAD DUP1 DUP4 SUB DUP2 DUP7 DUP1 EXTCODESIZE ISZERO DUP1 ISZERO PUSH2 0x1E5A JUMPI PUSH1 0x0 DUP1 REVERT JUMPDEST POP GAS STATICCALL ISZERO DUP1 ISZERO PUSH2 0x1E6E JUMPI RETURNDATASIZE PUSH1 0x0 DUP1 RETURNDATACOPY RETURNDATASIZE PUSH1 0x0 REVERT JUMPDEST POP POP POP POP PUSH1 0x40 MLOAD RETURNDATASIZE PUSH1 0x20 DUP2 LT ISZERO PUSH2 0x1E84 JUMPI PUSH1 0x0 DUP1 REVERT JUMPDEST POP MLOAD PUSH1 0xB SLOAD PUSH1 0x1 PUSH1 0x1 PUSH1 0xA0 SHL SUB DUP3 AND ISZERO DUP1 ISZERO SWAP5 POP SWAP2 SWAP3 POP SWAP1 PUSH2 0x1F53 JUMPI DUP1 ISZERO PUSH2 0x1F4E JUMPI PUSH1 0x0 PUSH2 0x1EC7 PUSH2 0xEAD PUSH1 0x1 PUSH1 0x1 PUSH1 0x70 SHL SUB DUP9 DUP2 AND SWAP1 DUP9 AND PUSH4 0xFFFFFFFF PUSH2 0x1A79 AND JUMP JUMPDEST SWAP1 POP PUSH1 0x0 PUSH2 0x1ED4 DUP4 PUSH2 0x1F67 JUMP JUMPDEST SWAP1 POP DUP1 DUP3 GT ISZERO PUSH2 0x1F4B JUMPI PUSH1 0x0 PUSH2 0x1F02 PUSH2 0x1EF3 DUP5 DUP5 PUSH4 0xFFFFFFFF PUSH2 0x1ADC AND JUMP JUMPDEST PUSH1 0x0 SLOAD SWAP1 PUSH4 0xFFFFFFFF PUSH2 0x1A79 AND JUMP JUMPDEST SWAP1 POP PUSH1 0x0 PUSH2 0x1F27 DUP4 PUSH2 0x1F1B DUP7 PUSH1 0x5 PUSH4 0xFFFFFFFF PUSH2 0x1A79 AND JUMP JUMPDEST SWAP1 PUSH4 0xFFFFFFFF PUSH2 0x213C AND JUMP JUMPDEST SWAP1 POP PUSH1 0x0 DUP2 DUP4 DUP2 PUSH2 0x1F34 JUMPI INVALID JUMPDEST DIV SWAP1 POP DUP1 ISZERO PUSH2 0x1F47 JUMPI PUSH2 0x1F47 DUP8 DUP3 PUSH2 0x1FB9 JUMP JUMPDEST POP POP POP JUMPDEST POP POP JUMPDEST PUSH2 0x1F5F JUMP JUMPDEST DUP1 ISZERO PUSH2 0x1F5F JUMPI PUSH1 0x0 PUSH1 0xB SSTORE JUMPDEST POP POP SWAP3 SWAP2 POP POP JUMP JUMPDEST PUSH1 0x0 PUSH1 0x3 DUP3 GT ISZERO PUSH2 0x1FAA JUMPI POP DUP1 PUSH1 0x1 PUSH1 0x2 DUP3 DIV ADD JUMPDEST DUP2 DUP2 LT ISZERO PUSH2 0x1FA4 JUMPI DUP1 SWAP2 POP PUSH1 0x2 DUP2 DUP3 DUP6 DUP2 PUSH2 0x1F93 JUMPI INVALID JUMPDEST DIV ADD DUP2 PUSH2 0x1F9C JUMPI INVALID JUMPDEST DIV SWAP1 POP PUSH2 0x1F7C JUMP JUMPDEST POP PUSH2 0x1FB4 JUMP JUMPDEST DUP2 ISZERO PUSH2 0x1FB4 JUMPI POP PUSH1 0x1 JUMPDEST SWAP2 SWAP1 POP JUMP JUMPDEST PUSH1 0x0 SLOAD PUSH2 0x1FCC SWAP1 DUP3 PUSH4 0xFFFFFFFF PUSH2 0x213C AND JUMP JUMPDEST PUSH1 0x0 SWAP1 DUP2 SSTORE PUSH1 0x1 PUSH1 0x1 PUSH1 0xA0 SHL SUB DUP4 AND DUP2 MSTORE PUSH1 0x1 PUSH1 0x20 MSTORE PUSH1 0x40 SWAP1 KECCAK256 SLOAD PUSH2 0x1FF7 SWAP1 DUP3 PUSH4 0xFFFFFFFF PUSH2 0x213C AND JUMP JUMPDEST PUSH1 0x1 PUSH1 0x1 PUSH1 0xA0 SHL SUB DUP4 AND PUSH1 0x0 DUP2 DUP2 MSTORE PUSH1 0x1 PUSH1 0x20 SWAP1 DUP2 MSTORE PUSH1 0x40 DUP1 DUP4 KECCAK256 SWAP5 SWAP1 SWAP5 SSTORE DUP4 MLOAD DUP6 DUP2 MSTORE SWAP4 MLOAD SWAP3 SWAP4 SWAP2 SWAP3 PUSH32 0xDDF252AD1BE2C89B69C2B068FC378DAA952BA7F163C4A11628F55A4DF523B3EF SWAP3 DUP2 SWAP1 SUB SWAP1 SWAP2 ADD SWAP1 LOG3 POP POP JUMP JUMPDEST PUSH1 0x0 DUP2 DUP4 LT PUSH2 0x205E JUMPI DUP2 PUSH2 0x2060 JUMP JUMPDEST DUP3 JUMPDEST SWAP4 SWAP3 POP POP POP JUMP JUMPDEST PUSH1 0x1 PUSH1 0x1 PUSH1 0xA0 SHL SUB DUP3 AND PUSH1 0x0 SWAP1 DUP2 MSTORE PUSH1 0x1 PUSH1 0x20 MSTORE PUSH1 0x40 SWAP1 KECCAK256 SLOAD PUSH2 0x2090 SWAP1 DUP3 PUSH4 0xFFFFFFFF PUSH2 0x1ADC AND JUMP JUMPDEST PUSH1 0x1 PUSH1 0x1 PUSH1 0xA0 SHL SUB DUP4 AND PUSH1 0x0 SWAP1 DUP2 MSTORE PUSH1 0x1 PUSH1 0x20 MSTORE PUSH1 0x40 DUP2 KECCAK256 SWAP2 SWAP1 SWAP2 SSTORE SLOAD PUSH2 0x20BD SWAP1 DUP3 PUSH4 0xFFFFFFFF PUSH2 0x1ADC AND JUMP JUMPDEST PUSH1 0x0 SWAP1 DUP2 SSTORE PUSH1 0x40 DUP1 MLOAD DUP4 DUP2 MSTORE SWAP1 MLOAD PUSH1 0x1 PUSH1 0x1 PUSH1 0xA0 SHL SUB DUP6 AND SWAP2 PUSH32 0xDDF252AD1BE2C89B69C2B068FC378DAA952BA7F163C4A11628F55A4DF523B3EF SWAP2 SWAP1 DUP2 SWAP1 SUB PUSH1 0x20 ADD SWAP1 LOG3 POP POP JUMP JUMPDEST PUSH1 0x1 PUSH1 0x1 PUSH1 0x70 SHL SUB AND PUSH1 0x1 PUSH1 0x70 SHL MUL SWAP1 JUMP JUMPDEST PUSH1 0x0 PUSH1 0x1 PUSH1 0x1 PUSH1 0x70 SHL SUB DUP3 AND PUSH1 0x1 PUSH1 0x1 PUSH1 0xE0 SHL SUB DUP5 AND DUP2 PUSH2 0x2134 JUMPI INVALID JUMPDEST DIV SWAP4 SWAP3 POP POP POP JUMP JUMPDEST DUP1 DUP3 ADD DUP3 DUP2 LT ISZERO PUSH2 0xB7B JUMPI PUSH1 0x40 DUP1 MLOAD PUSH3 0x461BCD PUSH1 0xE5 SHL DUP2 MSTORE PUSH1 0x20 PUSH1 0x4 DUP3 ADD MSTORE PUSH1 0x14 PUSH1 0x24 DUP3 ADD MSTORE PUSH20 0x64732D6D6174682D6164642D6F766572666C6F77 PUSH1 0x60 SHL PUSH1 0x44 DUP3 ADD MSTORE SWAP1 MLOAD SWAP1 DUP2 SWAP1 SUB PUSH1 0x64 ADD SWAP1 REVERT INVALID DIFFICULTY GASLIMIT PC JUMP ORIGIN GASPRICE KECCAK256 0x49 0x4E MSTORE8 SSTORE CHAINID CHAINID 0x49 NUMBER 0x49 GASLIMIT 0x4E SLOAD 0x5F 0x4C 0x49 MLOAD SSTORE 0x49 DIFFICULTY 0x49 SLOAD MSIZE 0x5F 0x4D 0x49 0x4E SLOAD GASLIMIT DIFFICULTY DIFFICULTY GASLIMIT PC JUMP ORIGIN GASPRICE KECCAK256 0x49 0x4E MSTORE8 SSTORE CHAINID CHAINID 0x49 NUMBER 0x49 GASLIMIT 0x4E SLOAD 0x5F 0x4C 0x49 MLOAD SSTORE 0x49 DIFFICULTY 0x49 SLOAD MSIZE 0x5F TIMESTAMP SSTORE MSTORE 0x4E GASLIMIT DIFFICULTY DIFFICULTY GASLIMIT PC JUMP ORIGIN GASPRICE KECCAK256 0x49 0x4E MSTORE8 SSTORE CHAINID CHAINID 0x49 NUMBER 0x49 GASLIMIT 0x4E SLOAD 0x5F 0x4F SSTORE SLOAD POP SSTORE SLOAD 0x5F COINBASE 0x4D 0x4F SSTORE 0x4E SLOAD LOG2 PUSH6 0x627A7A723158 KECCAK256 0xE3 SWAP6 PUSH27 0xC2F24A7B870A55C31B799734D7D69EC785597BB447B9413A22CFD KECCAK256 SWAP5 PUSH5 0x736F6C6343 STOP SDIV LT STOP ORIGIN GASLIMIT 0x49 POP CALLDATACOPY BALANCE ORIGIN DIFFICULTY PUSH16 0x6D61696E28737472696E67206E616D65 0x2C PUSH20 0x7472696E672076657273696F6E2C75696E743235 CALLDATASIZE KECCAK256 PUSH4 0x6861696E 0x49 PUSH5 0x2C61646472 PUSH6 0x737320766572 PUSH10 0x6679696E67436F6E7472 PUSH2 0x6374 0x29 LOG2 PUSH6 0x627A7A723158 KECCAK256 CREATE2 CREATE2 PUSH11 0xA351D4413F9B394163A7A7 0xB4 0xDF 0xD9 TIMESTAMP PUSH11 0x43363CC3CDC277C0FE3E38 GASPRICE SIGNEXTEND PUSH5 0x736F6C6343 STOP SDIV LT STOP ORIGIN "
				},
				"gasEstimates": {
					"creation": {
						"codeDepositCost": "2174800",
						"executionCost": "infinite",
						"totalCost": "infinite"
					},
					"external": {
						"INIT_CODE_HASH()": "infinite",
						"allPairs(uint256)": "2015",
						"allPairsLength()": "998",
						"createPair(address,address)": "infinite",
						"feeTo()": "1038",
						"feeToSetter()": "1060",
						"getPair(address,address)": "1322",
						"setFeeTo(address)": "22001",
						"setFeeToSetter(address)": "21935"
					}
				},
				"methodIdentifiers": {
					"INIT_CODE_HASH()": "257671f5",
					"allPairs(uint256)": "1e3dd18b",
					"allPairsLength()": "574f2ba3",
					"createPair(address,address)": "c9c65396",
					"feeTo()": "017e7e58",
					"feeToSetter()": "094b7415",
					"getPair(address,address)": "e6a43905",
					"setFeeTo(address)": "f46901ed",
					"setFeeToSetter(address)": "a2e74af6"
				}
			},
			"storageLayout": {
				"storage": [
					{
						"astId": 392,
						"contract": "v2-core-master/contracts/DEXV2Factory.sol:DEXV2Factory",
						"label": "feeTo",
						"offset": 0,
						"slot": "0",
						"type": "t_address"
					},
					{
						"astId": 394,
						"contract": "v2-core-master/contracts/DEXV2Factory.sol:DEXV2Factory",
						"label": "feeToSetter",
						"offset": 0,
						"slot": "1",
						"type": "t_address"
					},
					{
						"astId": 411,
						"contract": "v2-core-master/contracts/DEXV2Factory.sol:DEXV2Factory",
						"label": "getPair",
						"offset": 0,
						"slot": "2",
						"type": "t_mapping(t_address,t_mapping(t_address,t_address))"
					},
					{
						"astId": 414,
						"contract": "v2-core-master/contracts/DEXV2Factory.sol:DEXV2Factory",
						"label": "allPairs",
						"offset": 0,
						"slot": "3",
						"type": "t_array(t_address)dyn_storage"
					}
				],
				"types": {
					"t_address": {
						"encoding": "inplace",
						"label": "address",
						"numberOfBytes": "20"
					},
					"t_array(t_address)dyn_storage": {
						"base": "t_address",
						"encoding": "dynamic_array",
						"label": "address[]",
						"numberOfBytes": "32"
					},
					"t_mapping(t_address,t_address)": {
						"encoding": "mapping",
						"key": "t_address",
						"label": "mapping(address => address)",
						"numberOfBytes": "32",
						"value": "t_address"
					},
					"t_mapping(t_address,t_mapping(t_address,t_address))": {
						"encoding": "mapping",
						"key": "t_address",
						"label": "mapping(address => mapping(address => address))",
						"numberOfBytes": "32",
						"value": "t_mapping(t_address,t_address)"
					}
				}
			},
			"userdoc": {
				"methods": {}
			}
		}
	}
}